:020000040800F2
:1000000000040020DF0D0008ED0D0008EF0D0008D2
:10001000F10D0008F30D0008F50D000800000000C8
:10002000000000000000000000000000F70D0008C4
:10003000F90D000800000000FB0D0008FD0D000890
:10004000410E0008430E0008450E0008470E000848
:10005000490E00084B0E00084D0E00084F0E000818
:10006000510E0008530E0008550E0008570E0008E8
:10007000590E00085B0E00085D0E00085F0E0008B8
:10008000610E0008630E0008650E0008FF0D0008F1
:10009000FF0D0008FF0D0008FF0D00086F0E00089F
:1000A000710E0008730E0008750E0008770E000828
:1000B000790E00087B0E00087D0E00087F0E0008F8
:1000C000810E0008830E0008850E0008870E0008C8
:1000D000890E00088B0E00088D0E00088F0E000898
:1000E000910E0008930E0008950E0008970E000868
:1000F000990E00089B0E00089D0E00089F0E000838
:10010000A10E0008A30E0008A50E0008A70E000807
:10011000A90E0008AB0E0008AD0E0008AF0E0008D7
:10012000B10E0008B30E0008B50E0008B70E0008A7
:1001300000F002F800F03AF80AA090E8000C8244BF
:100140008344AAF10107DA4501D100F02FF8AFF29C
:10015000090EBAE80F0013F0010F18BFFB1A43F0A5
:1001600001031847CC6A0000EC6A0000103A24BF73
:1001700078C878C1FAD8520724BF30C830C144BF0C
:1001800004680C607047000000230024002500264E
:10019000103A28BF78C1FBD8520728BF30C148BFEA
:1001A0000B6070471FB51FBD10B510BD01F0BBFC43
:1001B0001146FFF7F7FF01F0FAF901F0D9FC03B49B
:1001C000FFF7F2FF03BC01F0DDFC000010B50446B0
:1001D000C248844208D10121042000F017FB00210D
:1001E000042000F013FB46E0BD48844208D1012101
:1001F000082000F00BFB0021082000F007FB3AE08C
:10020000B848844208D10121102000F0FFFA0021F3
:10021000102000F0FBFA2EE0B348844208D10121FF
:10022000202000F0F3FA0021202000F0EFFA22E075
:10023000AE48844208D10121402000F0E7FA0021B5
:10024000402000F0E3FA16E0A948844208D10121D9
:10025000802000F0DBFA0021802000F0D7FA0AE0CD
:10026000A448844207D10121801500F0CFFA002173
:10027000A01500F0CBFA10BD10B50121084600F022
:10028000C5FA0021012000F0C1FA10BD2DE9F041AE
:10029000024600250026002000230024002791F8B4
:1002A00003C00CF00F0591F803C01CF0100F03D031
:1002B00091F802C04CEA050591F800C0BCF1000FAE
:1002C00031D0146800202BE04FF0010C0CFA00F341
:1002D000B1F800C00CEA03069E4220D183004FF023
:1002E0000F0C0CFA03F7BC4305FA03FC4CEA0404B8
:1002F00091F803C0BCF1280F06D14FF0010C0CFAA5
:1003000000FCC2F814C00AE091F803C0BCF1480F29
:1003100005D14FF0010C0CFA00FCC2F810C0401CD3
:100320000828D1D31460B1F800C0BCF1FF0F34DD50
:10033000546800202EE000F1080C4FF0010808FA84
:100340000CF3B1F800C00CEA03069E4221D18300F1
:100350004FF00F0C0CFA03F7BC4305FA03FC4CEA10
:10036000040491F803C0BCF1280F05D100F1080C7A
:1003700008FA0CF8C2F8148091F803C0BCF1480FD9
:1003800007D100F1080C4FF0010808FA0CF8C2F888
:100390001080401C0828CED35460BDE8F0814FF691
:1003A000FF710180022181700421C17070470246F3
:1003B000002093680B4201D0012000E0002070472C
:1003C0000146886880B2704702460020D3680B421D
:1003D00001D0012000E0002070470146C86880B2CB
:1003E000704701617047416170470AB1016100E0E7
:1003F00041617047C16070474FF480320A438261A7
:1004000081618261826982697047024600203A4BAD
:1004100018684FF68073184040EA02100843364BC4
:10042000186070473549C8617047F0B50A46002327
:10043000002400210025304E7168C0F3034583B2CB
:1004400000F44016B6F5401F08D121F070612A4E25
:10045000766826F07066284F7E6012E000F4801601
:10046000B6F5801F06D1032606FA05F4A14341F034
:10047000706106E0460D360103FA06F6B14341F01D
:10048000706122B1460D360103FA06F631431A4E69
:100490007160F0BD30B500228B071C0F0F2303FAEB
:1004A00004F2154B08338C1053F824309343124C4C
:1004B00008348D1044F8253023468C1053F824302E
:1004C0008C07240F00FA04F423430B4C08348D10DE
:1004D00044F8253030BD0A490860704700080140E3
:1004E000000C0140001001400014014000180140C0
:1004F000001C01400020014000000140000020429B
:10050000DC002042DD48006840F00100DB49086063
:1005100008464068DA490840D849486008460068FB
:10052000D8490840D54908600846006820F4802072
:1005300008600846406820F4FE0048604FF41F0041
:1005400088607047CD49096821F48031CB4A116039
:100550001146096821F480211160B0F5803F03D075
:10056000B0F5802F0ED106E0C449096841F480310E
:10057000C24A116007E0C149096841F4A021BF4A9D
:10058000116000E000BF00BF704710B501460022B7
:10059000002300204A11012A02D1B84C236806E04A
:1005A000022A02D1B54C236A01E0B44C636A01F01F
:1005B0001F02012494401C4201D0012000E00020D1
:1005C00010BD38B5002000900024002500BF312068
:1005D000FFF7DBFF05460098401C00900098B0F53F
:1005E000A06F01D0002DF2D03120FFF7CEFF08B16F
:1005F000012400E00024204638BD014600209F4A27
:10060000106820F0F80040EAC100106070479E4971
:100610000860704702460020984B586820F47C1010
:1006200042EA01031843954B5860704796490866A3
:10063000704701460020914A506820F003000843AB
:10064000506070478D48406800F00C0070470146CC
:1006500000208A4A506820F0F0000843506070473C
:1006600001460020854A506820F4E060084350604D
:10067000704701460020814A506820F4605040EAEB
:10068000C1005060704729B17C4A527A02437B4BCB
:100690005A7204E0794A527A8243784B5A72704710
:1006A0007A490860704701460020744A506820F477
:1006B00040400843506070470021754A11706F4AEE
:1006C00082F82010012802D0042808D103E001217B
:1006D0006F4A117004E005216D4A117000E000BFFF
:1006E00000BF70476B49086070476449096A01435D
:1006F000624A11627047674944390860704730B5F3
:1007000000210022002400235C4D6D6805F00C01DF
:1007100021B1042905D0082923D105E05E4D0560EB
:1007200022E05D4D05601FE0544D6D6805F47012C8
:10073000524D6D6805F48034022505EB92421CB9D8
:10074000564D554305600BE04C4D6D6815F4003F68
:1007500003D0524D5543056002E04F4D55430560AF
:1007600002E04D4D056000BF00BF444D6D6805F0CF
:10077000F00109094A4D6B5C0568DD4045603F4D5D
:100780006D6805F4E061090A454D6B5C4568DD4024
:1007900085603A4D6D6805F46051C90A404D6B5C47
:1007A0004568DD40C560354D6D6805F44041890BF5
:1007B0003C4D6B5CC568B5FBF3F5056130BD29B1F7
:1007C0002E4A526902432D4B5A6104E02B4A52696A
:1007D00082432A4B5A61704729B1284A92690243E1
:1007E000264B9A6104E0254A92698243234B9A6121
:1007F000704729B1214AD2690243204BDA6104E0F3
:100800001E4AD26982431D4BDA61704729B11B4AE7
:10081000D2680243194BDA6004E0184AD268824376
:10082000164BDA60704729B1144A12690243134B20
:100830001A6104E0114A12698243104B1A61704731
:1008400014494039086070470F49C86470470B4924
:10085000C87170470948406A40F080700749486293
:10086000704701460020054A92680A4201D00120E3
:1008700000E0002070470149887270470010024074
:100880000000FFF8FFFFF6FE00004242D80042429F
:10089000201002408004424200127A0000093D000C
:1008A000000000201000002001460020FD4A1068D2
:1008B00000F03800084310607047FA49096821F0D9
:1008C0000801F84A11601146096801431160704738
:1008D000F449096821F01001F24A116011460968D3
:1008E000014311607047F048EE494860EF484860A6
:1008F0007047EC48006940F08000EA4908617047A1
:100900000420E849C96811F0010F01D001200EE070
:10091000E449C96811F0040F01D0022007E0E14961
:10092000C96811F0100F01D0032000E004207047C7
:1009300008B500200090FF20009002E00098401EC3
:10094000009000980028F9D108BD70B50446042530
:10095000FFF7D6FF054605E0FFF7EAFFFFF7D0FFF8
:100960000546641E012D01D1002CF5D104B90525E1
:10097000284670BD70B50546042440F6FF70FFF7A9
:10098000E4FF0446042C19D1C648006940F0020077
:10099000C449086108464561006940F040000861AB
:1009A00040F6FF70FFF7D1FF0446052C06D0BD4886
:1009B000006941F6FD710840BA490861204670BDE2
:1009C00010B5042440F6FF70FFF7BFFF0446042C67
:1009D00018D1B448006940F00400B24908610846E3
:1009E000006940F04000086140F6FF70FFF7ADFF7E
:1009F0000446052C06D0AB48006941F6FB7108405F
:100A0000A8490861204610BD10B5042440F6FF70C7
:100A1000FFF79BFF0446042C3BD1A348A149886003
:100A2000A24888600846006940F020000861084636
:100A3000006940F04000086140F6FF70FFF785FF55
:100A40000446042C1CD19748006941F6DF71084028
:100A5000944908610846006940F010000861A5202B
:100A6000934908800F20FFF770FF0446052C10D033
:100A70008C48006941F6EF7108408A49086108E036
:100A8000052C06D08748006941F6EF71084085497A
:100A90000861204610BDF8B506460D460424002026
:100AA00000900F20FFF751FF0446042C28D17D4809
:100AB000006940F001007B49086135800F20FFF795
:100AC00044FF0446042C12D1B01C0090280C00995D
:100AD00008800F20FFF739FF0446052C10D071481D
:100AE000006941F6FE7108406E49086108E0052C76
:100AF00006D06C48006941F6FE71084069490861FA
:100B00002046F8BD70B505460E4604240F20FFF7B9
:100B10001CFF0446042C13D16248006940F0010018
:100B2000604908612E800F20FFF70FFF0446052C57
:100B300006D05C48006941F6FE71084059490861D9
:100B4000204670BD70B505460E4604240F20FFF701
:100B5000FCFE0446042C17D1534852498860534880
:100B600088600846006940F0100008612E800F2060
:100B7000FFF7EBFE0446052C06D04A48006941F613
:100B8000EF71084047490861204670BD2DE9F047E4
:100B900004464FF6FF763746B046B1460425E44397
:100BA000E6B2C4F30727C4F307484FEA14690F20DD
:100BB000FFF7CBFE0546042D40D13B4839498860FC
:100BC0003A4888600846006940F010000861FF2E2E
:100BD00006D03748083006800F20FFF7B6FE0546DE
:100BE000042D08D1FF2F06D031480A3007800F208E
:100BF000FFF7ABFE0546042D0AD1B8F1FF0F07D071
:100C00002B480C30A0F800800F20FFF79EFE054611
:100C1000042D0AD1B9F1FF0F07D025480E30A0F8F6
:100C200000900F20FFF791FE0546052D06D01D48C8
:100C3000006941F6EF7108401A4908612846BDE88D
:100C4000F08770B50546042440F6FF70FFF77DFE7F
:100C50000446042C49D1144812498860134888601E
:100C60000846006940F0200008610846006940F02D
:100C70004000086140F6FF70FFF767FE0446042C51
:100C80002AD10848006941F6DF710840054908612A
:100C90000846006940F0100008615DB10020044979
:100CA00008800AE00020024023016745AB89EFCDB0
:100CB00000F8FF1FA5204549088040F6FF70FFF7A8
:100CC00044FE0446052C10D04148006941F6EF71FE
:100CD00008403F49086108E0052C06D03C480069FF
:100CE00041F6DF7108403A490861204670BD2DE9A0
:100CF000F04105460E4617460424364834498860BC
:100D0000354888600F20FFF720FE0446042C19D1D7
:100D10002F48006940F010002D49086147F0F800A5
:100D2000304328432949891C08800F20FFF70DFE16
:100D30000446052C06D02648006941F6EF710840AC
:100D4000234908612046BDE8F0812148C069800838
:100D500070471F48006A704700201D49C96911F09B
:100D6000020F01D0012000E0002070470020184948
:100D7000096811F0200F01D0012000E00020704729
:100D800029B1134A12690243114B1A6104E0104A57
:100D9000126982430E4B1A617047014600200129F7
:100DA00008D10B4AD26912F0010F01D0012008E0EE
:100DB000002006E0064AD2680A4201D0012000E085
:100DC000002070470249C8607047000000F8FF1F0C
:100DD0000020024023016745AB89EFCD70470B48E7
:100DE00080470B4981F308880A480047FEE7FEE781
:100DF000FEE7FEE7FEE7FEE7FEE7FEE7FEE7FEE7CB
:100E000005480649064A074B70470000DD0D0008FB
:100E100078060020310100087800002078060020C4
:100E200078020020780200207047704700BFFEE77C
:100E300000BFFEE700BFFEE770477047704770478E
:100E400070477047704770477047704770477047EA
:100E500070477047704770477047704770477047DA
:100E600070477047704770477047704770477047CA
:100E700070477047704770477047704770477047BA
:100E800070477047704770477047704770477047AA
:100E9000704770477047704770477047704770479A
:100EA000704770477047704770477047704770478A
:100EB000704770477047704700E0401E0128FCD81B
:100EC00070470022002100BF05E0002200E0521C14
:100ED000FF2AFCD9491C8142F7D3704710B5002185
:100EE0000BE0002205E0002300E05B1CDE2BFCDBB6
:100EF000521CB2F57A6FF6DB491C8142F1D310BD6A
:100F000010B500BF712000F0BBFD4FF40051FB484D
:100F1000FFF74DFA044604F0010080F00104002CB4
:100F2000F0D1C820FFF7CDFF10BD10B5502000F064
:100F3000A7FDF72000F0BCFD022000F0A1FDFFF7A7
:100F4000DFFF072000F09CFDA52000F0B1FD10BDE3
:100F500010B5122000F094FD6420FFF7B2FFFFF7F8
:100F6000CFFF10BD10B5102000F08AFD002403E073
:100F7000FF2000F09DFD641C40F6C4208442F7D39E
:100F80000220FFF79EFF132000F07AFD002403E00B
:100F9000FF2000F08DFD641C40F6C4208442F7D38E
:100FA0000220FFF78EFF10BD10B56820D4490870ED
:100FB0000020D4490870D420D349087000F094FD73
:100FC000062000F05DFD172000F072FD172000F0F4
:100FD0006FFD172000F06CFD042000F051FDFFF7BD
:100FE0008FFF002000F04CFD1F2000F061FD0D2060
:100FF00000F05EFD612000F043FDC148007800F084
:1010000057FDC048007800F053FDBF48007800F05D
:101010004FFD502000F034FD972000F049FD10BD39
:1010200010B5202000F02CFD002404E0B749085D35
:1010300000F03EFD641C2C2CF8D3212000F020FD94
:10104000002404E0B249085D00F032FD641C2A2C43
:10105000F8D3222000F014FD002404E0AD49085D1F
:1010600000F026FD641C2A2CF8D3232000F008FD94
:10107000002404E0A849085D00F01AFD641C2A2C35
:10108000F8D3242000F0FCFC002404E0A349085D10
:1010900000F00EFD641C2A2CF8D310BD2DE9FE4F84
:1010A0000746884692469B4600BF0D983844401E2E
:1010B000029000200190C146B8F1FF0F04DD4FEA15
:1010C0001920019009F0FF09002000900C9840447D
:1010D000461EFF2E02D9300A0090F6B2DDE90C015F
:1010E0004843C508822000F0CBFC082000F0E0FC5B
:1010F000502000F0C5FC472000F0DAFCFFF790FF1D
:10110000912000F0BDFC902000F0BAFCF8B200F095
:10111000CFFC0299C8B200F0CBFC0199C8B200F034
:10112000C7FC09F0FF0000F0C3FC0099C8B200F052
:10113000BFFCF0B200F0BCFC282000F0B9FC10208D
:1011400000F09EFC0E9840B9002403E0002000F05F
:10115000AFFC641CAC42F9D30AE0002406E01AF8A4
:101160000410C943C8B200F0A3FC641CAC42F6D31F
:10117000132000F085FC0E9802280BD0002406E016
:101180001BF80410C943C8B200F092FC641CAC42C6
:10119000F6D307E0002403E0002000F089FC641C83
:1011A000AC42F9D3122000F06BFC0A20FFF789FE55
:1011B000FFF7A6FEBDE8FE8F10B568205049087005
:1011C000002050490870D4204F49087000F08CFC72
:1011D000012000F055FC032000F06AFC002000F024
:1011E00067FC2B2000F064FC2B2000F061FC132036
:1011F00000F05EFC062000F043FC172000F058FCD5
:10120000172000F055FC172000F052FC042000F0DD
:1012100037FCFFF775FE002000F032FCBF2000F025
:1012200047FC302000F02CFC3C2000F041FC612009
:1012300000F026FC3248007800F03AFC3148007893
:1012400000F036FC3048007800F032FC822000F0DC
:1012500017FC122000F02CFC502000F011FC97200D
:1012600000F026FC10BD2DE9F041102000F008FC34
:1012700000273AE00024002631E006EB87002849E9
:1012800011F8008008F0F005F02D02D144F00104BF
:1012900009E005B907E0A02D04DDF02D02DA44F0E5
:1012A000010400E000BF6006040E4FEA08704FEA38
:1012B000106808F0F005F02D02D144F0010409E0B7
:1012C00005B907E0A02D04DDF02D02DA44F0010499
:1012D00000E000BF032E01D06006040E761C042E31
:1012E000CBD3204600F0E4FB7F1C40F6C4208742AD
:1012F000C0D3132000F0C4FB00274CE000180140CD
:10130000150000201600002017000020661C0008B1
:10131000921C0008BC1C0008E61C0008101D0008F8
:101320005C360008002400262FE006EB8700FE490B
:1013300011F8008008F0F005F02D02D144F001040E
:1013400008E005B906E0A02D02DDF02D00DA01E08D
:1013500044F001046006040E4FEA08704FEA10687A
:1013600008F0F005F02D02D144F0010408E005B9C1
:1013700006E0A02D02DDF02D00DA01E044F00104CA
:10138000032E01D06006040E761C042ECDD3204619
:1013900000F08EFB7F1C40F6C4208742C2D3BDE81C
:1013A000F08110B5202000F06BFB002404E0DF4941
:1013B000085D00F07DFB641C2C2CF8D3212000F08C
:1013C0005FFB002404E0DA49085D00F071FB641C57
:1013D0002A2CF8D3222000F053FB002404E0D54946
:1013E000085D00F065FB641C2A2CF8D3232000F074
:1013F00047FB002404E0D049085D00F059FB641C61
:101400002A2CF8D3242000F03BFB002404E0CB4935
:10141000085D00F04DFB641C2A2CF8D3252000F059
:101420002FFB002404E0C249085D00F041FB641C6E
:101430002A2CF8D310BD10B50446A047FFF7B1FF22
:10144000122000F01DFB6420FFF73BFDFFF758FD65
:1014500010BD70B50546102000F012FB002403E01B
:10146000FF2000F025FB641C40F6C4208442F7D323
:10147000132000F005FB002404E0287800F018FB9E
:101480006D1C641C40F6C4208442F6D370BD08B5C0
:1014900001212020FFF7A0F94FF4E060ADF8000033
:1014A00002208DF8020010208DF803006946A44840
:1014B000FEF7ECFE01214020FFF78EF94FF440408B
:1014C000ADF8000002208DF8020010208DF8030016
:1014D00069469C48FEF7DAFE4FF40050ADF8000074
:1014E00002208DF8020004208DF80300694695481B
:1014F000FEF7CCFE01214020FFF76EF94FF480503B
:10150000ADF8000002208DF8020010208DF80300D5
:1015100069468C48FEF7BAFE08BD10B5FEF7F2FF2B
:101520004FF48030FFF70EF8FFF74BF8864908704C
:1015300008460078012805D14FF4E0110004FFF7B8
:1015400069F80DE00120FFF762F800BF2120FFF7E6
:101550001CF80028FAD04FF460110020FFF75AF869
:101560001020FFF7B5F90220FFF79EF90020FFF7E2
:101570006EF80020FFF77DF84FF48060FFF770F8F9
:101580000120FFF753F800BF3920FEF7FEFF0028C7
:10159000FAD00220FFF74DF800BFFFF753F80828F4
:1015A000FBD1012144F20500FFF716F910BD0EB57D
:1015B000FFF7B3FFFFF76BFF7FE1FFF7F5FC634831
:1015C000FFF747FFFFF7C4FCFFF7AFFC1E20FFF754
:1015D00085FCFFF7F1FDAFF27130FFF72CFFFFF74D
:1015E000A4FC1E20FFF77AFCFFF7DEFCFFF7BAFC35
:1015F000FFF7AEFCFFF799FCFFF7DEFD002050215E
:101600004022534BCDE9002102901A466A2118204E
:10161000FFF744FD0020502118224E4BCDE9002158
:1016200002901A4601461820FFF738FD022050218B
:101630001822484BCDE9002102901A4600211820BB
:10164000FFF72CFD012050214022434BCDE9002122
:1016500002903F4A6A211820FFF720FD0020182140
:1016600050223E4BCDE9002102901A460146FFF779
:1016700015FD022018215022384BCDE9002102909F
:101680001A4600210846FFF709FD0120502140229B
:10169000334BCDE9002102902F4A6A211820FFF731
:1016A000FDFC0020182150222C4BCDE90021029096
:1016B0001A465021FFF7F2FC022018215022274B36
:1016C000CDE9002102901A4650210020FFF7E6FCE8
:1016D000012050214022234BCDE900210290204AD5
:1016E0006A211820FFF7DAFC0020182150221B4B3A
:1016F000CDE9002102901A468421FFF7CFFC022099
:1017000018215022154BCDE9002102901A46842160
:101710000020FFF7C3FC012050214022124BCDE9ED
:10172000002102900F4A21E05C3600083A1D0008B3
:10173000641D00088E1D0008B81D0008E21D000889
:101740000014014000180140140000206C610008E2
:101750000C1E00087C2B00088C2000088C2A000836
:101760000C2300088C2500080C2800086A2118208A
:10177000FFF794FC002050211822994BCDE900215D
:1017800002901A46BC211820FFF788FC0220502145
:101790001822934BCDE9002102901A46BC21182053
:1017A000FFF77CFC0220502140228E4BCDE9002126
:1017B00002901A466A211820FFF770FC0020502181
:1017C0001822894BCDE9002102901A4601461820C3
:1017D000FFF764FC022050211822834BCDE9002141
:1017E00002901A4600211820FFF758FC002018210B
:1017F00050227E4BCDE9002102901A460146FFF7A8
:101800004DFC022018215022784BCDE90021029096
:101810001A4600210846FFF741FC002018215022FB
:10182000724BCDE9002102901A465021FFF736FC99
:101830000220182150226D4BCDE9002102901A465A
:1018400050210020FFF72AFC002018215022674B6E
:10185000CDE9002102901A468421FFF71FFC0220E7
:1018600018215022614BCDE9002102901A468421B3
:101870000020FFF713FC002050211822584BCDE91F
:10188000002102901A46BC211820FFF707FC022015
:1018900050211822524BCDE9002102901A46BC215A
:1018A0001820FFF7FBFBFFF77FFBFFF75BFBFFF762
:1018B0004FFBFFF73AFB00BFFEE77EE62DE9F04164
:1018C000102000F0DDF8002703E0FF2000F0F0F822
:1018D0007F1CB7F52C7FF8D9002603E0FF2000F02D
:1018E000E7F8761CB6F52C7FF8D9002503E0002038
:1018F00000F0DEF86D1CB5F52C7FF8D9002403E06C
:10190000002000F0D5F8641CB4F52C7FF8D9132022
:1019100000F0B6F8002403E0FF2000F0C9F8641CD2
:10192000B4F52C7FF8D9002503E0002000F0C0F8C2
:101930006D1CB5F52C7FF8D9002603E0FF2000F0E0
:10194000B7F8761CB6F52C7FF8D9002703E0002005
:1019500000F0AEF87F1CB7F52C7FF8D9BDE8F08118
:1019600010B5202000F08CF8002404E02049085D28
:1019700000F09EF8641C2C2CF8D3212000F080F895
:10198000002404E01B49085D00F092F8641C2A2C36
:10199000F8D3222000F074F8002404E01649085D12
:1019A00000F086F8641C2A2CF8D3232000F068F895
:1019B000002404E01149085D00F07AF8641C2A2C28
:1019C000F8D3242000F05CF8002404E00C49085D02
:1019D00000F06EF8641C2A2CF8D310BD704700008C
:1019E0006C2C00080C2800087C2B00088C2A0008AE
:1019F000921B0008BE1B0008E81B0008121C000810
:101A00003C1C000807E0002101E04A1CD1B2022979
:101A1000FBDB421ED0B20028F5D1704770B50446FA
:101A20000120FFF7EFFF002527E04FF400712C485D
:101A3000FEF7D9FC0120FFF7E5FF14F0800F05D079
:101A40004FF480612648FEF7CCFC04E04FF480613F
:101A50002348FEF7C8FC6006040E0120FFF7D2FF02
:101A60000120FFF729FA4FF400711D48FEF7B9FC79
:101A70000120FFF7C7FF681CC5B2082DD5DB70BD7C
:101A800010B504460120FFF7BDFF4FF480711448E4
:101A9000FEF7A9FC4FF400411248FEF7A4FC2046D3
:101AA000FFF7BCFF4FF480710D48FEF79AFC10BDA4
:101AB00010B504460120FFF7A5FF4FF480710848D8
:101AC000FEF791FC4FF400410648FEF78AFC2046E1
:101AD000FFF7A4FF4FF480710148FEF782FC10BDB0
:101AE000001401400018014010B54FF400610B488C
:101AF000FEF779FC4FF480410848FEF774FC4FF480
:101B00007A70FFF7DEF94FF480410448FEF769FC74
:101B10004FF47A70FFF7D5F910BD000000180140AE
:101B2000704770477047754600F028F8AE460500CC
:101B30006946534620F00700854618B020B5FFF7E8
:101B40005FF9BDE820404FF000064FF000074FF06E
:101B500000084FF0000B21F00701AC46ACE8C009CB
:101B6000ACE8C009ACE8C009ACE8C0098D467047D4
:101B70000446AFF300802046FEF721FB0048704783
:101B80001800002001491820ABBEFEE72600020025
:101B900070470008000000026028280000010014BF
:101BA000000000010012120000010000000000000F
:101BB00000000000000000000000000000004008DD
:101BC00000000002902828000001401400000001DD
:101BD000A012120000010000000000000000000040
:101BE0000000000000000000401700000002900FFD
:101BF0000F000003400A01000001A00E0E000002C9
:101C000000000000000000000000000000000000D4
:101C100000008008000000029028280000018014C5
:101C2000000000015012120000010000000000003E
:101C3000000000000000000000000000800800001C
:101C400000029028280000018014000000015012BA
:101C50001200000100000000000000000000000071
:101C60000000000000000019010000010000000059
:101C70000000000000000000000000000000000064
:101C80000000000000000000000000000000000054
:101C90000000001901000001000000000000000029
:101CA0000000000000000000000000000000000034
:101CB000000000000000000000000000801901008A
:101CC0000001000000000000000000000000000013
:101CD0000000000000000000000000000000000004
:101CE0000000000000004019010000010000000099
:101CF00000000000000000000000000000000000E4
:101D000000000000000000000000000000000000D3
:101D100000190100000100000000000000000000A8
:101D200000000000000000000000000000000000B3
:101D300000000000000000000000000A0000000198
:101D400060141400000100140000000100130A01D7
:101D50000001000000000000000000000000000082
:101D600000000000400A000000019014140000016F
:101D700010140A000001A01301000001000000007F
:101D80000000000000000000000000000000400A09
:101D90000000000190141400000100140A0000016A
:101DA000990C010304010000000000000000000085
:101DB0000000000000000000400A00000001901434
:101DC0001400000100140A000001990B0404010131
:101DD0000000000000000000000000000000000003
:101DE0000000800A0000000190141400000120147B
:101DF0000A00000150130100000100000000000073
:101E0000000000000000000000000000FFFFFFFFD6
:101E1000FFFFFFFFFFFFFFFFFFFFFFFFFFFFFFFFD2
:101E2000FFFFFFFFFFFFFFFFFFFFFFFFFFFFFFFFC2
:101E3000FFFFFFFFFFFFFFFFFFFFFFFFFFFFFFFFB2
:101E4000FFFFFFFFFFFFFFFFFFFFFFFFFFFFFFFFA2
:101E5000FFFFFFFFFFFFFFFFFFFFFFFFFFFFFFFF92
:101E6000FFFFFFFFFFFFFFFFFFFFFFFFFFFFFFFF82
:101E7000FFF80FFFFFFFFFFFFFFFFFE003FFFFFF84
:101E8000FFFFFFFFFF8000FFFFFFFFFFFFFFFF03DC
:101E9000E07FFFFFFFFFFFFFFE0FFC3FFFFFFFFFA5
:101EA000FFFFFC3FFE1FFFFFFFFFFFFFF87F3F0F1D
:101EB000FFFFFFFFFFFFF8FE1F87FFFFFFFFFFFF92
:101EC000F1FE1FC7FFFFFFFFFFFFE1FF3FC3FFFF63
:101ED000FFFFFFFFE3FFFF23FFFFFFFFFFFFC3FF46
:101EE000FF21FFFFFFFFFFFFC7FFFF31FFFFFFFFE6
:101EF000FFFFC7FFFF31FFFFFC0000008FFFFF382F
:101F0000FFFF800000008FFFFF38FFF0000000009F
:101F10008FFFFF38FF0003FFFFFF8FFF3F38E00018
:101F20007FFFFFFF1FFE1F3C0007FFFFFFFF1FFE9D
:101F30001FFC00FFFFFFFFFF1FFF3FFC0FFFFFFF26
:101F4000FFFF1FFFFFFC7FFFFFFFFFFF1FFFFFFCE7
:101F50007FFFFFFFFFFF1FFFFFFC7FFFFFFFFFFF74
:101F60001FFFFFFC7FFFFFFFFFFF1FFFFFFC7FFF47
:101F7000FFFFFFFF1FFFFFFC7FFFFFFFFFFF1FFFB4
:101F8000FFFC7FFFFFFFFFFF1FFFFFFC7FFFFFFF47
:101F9000FFFF8FFFFFF8FFFFFFFFFFFF8FFFFFF83F
:101FA000FFFFFFFFFFFF8FFFFFF8FFFFFFFFFFFFB8
:101FB0008FFFFFF87FFFFFFFFFFFC7FFFFF03FFF2F
:101FC000FFFFFFFFC7FFFFF00FFFFFFFFFFFC3FF94
:101FD000FFE103FFFFFFFFFFE3FFFFE3C1FFFFFFA1
:101FE000FFFFE1FFFFC3E07FFFFFFFFFF1FFFFC740
:101FF000F81FFFFFFFFFF8FFFF87FE07FFFFFFFF50
:10200000F87FFF0FFF03FFFFFFFFFC3FFE1FFFC036
:10201000FFFFFFFFFE0FFC3FFFF03FFFFFFFFF034F
:10202000E07FFFFC07FFFFFFFF8000FFFFFF01FFD6
:10203000FFFFFFE003FFFFFF801FFFFFFFF80FFF21
:10204000FFFFF000FFFFFFFFFFFFFFFFFE00007F2D
:10205000FFFFFFFFFFFFFFC00000FFFFFFFFFFFFCD
:10206000FFFF0000FFFFFFFFFFFFFFFFFF80FFFFFD
:10207000FFFFFFFFFFFFFFFFFFFFFFFFFFFFFFFF70
:10208000FFFFFFFFFFFFFFFFFFFFFFFFFFFFFFFF60
:10209000FFFFFFFFFFFFFFFFFFFFFFFFFFFFFFFF50
:1020A000FFFFFFFFFFFFFFFFFFFFFFFFFFFFFFFF40
:1020B000FFFFFFFFFFFFFFFFFFFFFFFFFFFFFFFF30
:1020C000FFFFFFFFFFFFFFFFFFFFFFFFFFFFFFFF20
:1020D000FFFFFFFFFFFFFFFFFFFFFFFFFFFFFFFF10
:1020E000FFFFFFFFFFFFFFFFFFFFFFFFFFFFFFFF00
:1020F000FFF80FFFFFFFFFFFFFFFFFE003FFFFFF02
:10210000FFFFFFFFFF8000FFFFFFFFFFFFFFFF0359
:10211000E07FFFFFFFFFFFFFFE0FFC3FFFFFFFFF22
:10212000FFFFFC3FFE1FFFFFFFFFFFFFF87FFF0FDA
:10213000FFFFFFFFFFFFF8CFFF87FFFFFFFFFFFF5E
:10214000F187FFC7FFFFFFFFFFFFE187FFE3FFFF0F
:10215000FFFFFFFFE3CFFFE3FFFFFFFFFFFFC3FF33
:10216000CFE1FFFFFFFFFFFFC7FFCFF1FFFFFFFF43
:10217000FFFFC7FFCFF1FFFFFC0000008FFFCFF88C
:10218000FFFF800000008FFFCFF8FFF0000000008D
:102190008FFFCFF8FF0003FFFFFF8FFFCFF8E000B6
:1021A0007FFFFFFF1FCFCFFC0007FFFFFFFF1F8751
:1021B000CFFC00FFFFFFFFFF1F87FFFC0FFFFFFFAC
:1021C000FFFF1FCFFFFC7FFFFFFFFFFF1FFFFFFC95
:1021D0007FFFFFFFFFFF1FFFFFFC7FFFFFFFFFFFF2
:1021E0001FFFFFFC7FFFFFFFFFFF1FFFFFFC7FFFC5
:1021F000FFFFFFFF1FFFFFFC7FFFFFFFFFFF1FFF32
:10220000FFFC7FFFFFFFFFFF1FFFFFFC7FFFFFFFC4
:10221000FFFF8FFFFFF8FFFFFFFFFFFF8FFFFFF8BC
:10222000FFFFFFFFFFFF8FFFFFF8FFFFFFFFFFFF35
:102230008FFFFFF87FFFFFFFFFFFC7FFFFF03FFFAC
:10224000FFFFFFFFC7FFFFF00FFFFFFFFFFFC3FF11
:10225000FFE103FFFFFFFFFFE3FFFFE3C1FFFFFF1E
:10226000FFFFE1FFFFC3E07FFFFFFFFFF1FFFFC7BD
:10227000F81FFFFFFFFFF8FFFF87FE07FFFFFFFFCD
:10228000F87FFF0FFF03FFFFFFFFFC3FFE1FFFC0B4
:10229000FFFFFFFFFE0FFC3FFFF03FFFFFFFFF03CD
:1022A000E07FFFFC07FFFFFFFF8000FFFFFF01FF54
:1022B000FFFFFFE003FFFFFF801FFFFFFFF80FFF9F
:1022C000FFFFF000FFFFFFFFFFFFFFFFFE00007FAB
:1022D000FFFFFFFFFFFFFFC00000FFFFFFFFFFFF4B
:1022E000FFFF0000FFFFFFFFFFFFFFFFFF80FFFF7B
:1022F000FFFFFFFFFFFFFFFFFFFFFFFFFFFFFFFFEE
:10230000FFFFFFFFFFFFFFFFFFFFFFFFFFFFFFFFDD
:10231000FFFFFFFFFFFFFFFFFFFFFFFFFFFFFFFFCD
:10232000FFFFFFFFFFFFFFFFFFFFFFFFFFFFFFFFBD
:10233000FFFFFFFFFFFFFFFFFFFFFFFFFFFFFFFFAD
:10234000FFFFFFFFFFFFFFFFFFFFFFFFFFFFFFFF9D
:10235000FFFFFFFFFFFFFFFFFFFFFFFFFFFFFFFF8D
:10236000FFFFFFFFFFFFFFFFFFFFFFFFFFFFFFFF7D
:10237000FFF80FFFFFFFFFFFFFFFFFE003FFFFFF7F
:10238000FFFFFFFFFF8000FFFFFFFFFFFFFFFF03D7
:10239000E07FFFFFFFFFFFFFFE0FFC3FFFFFFFFFA0
:1023A000FFFFFC3FFE1FFFFFFFFFFFFFF87FFF0F58
:1023B000FFFFFFFFFFFFF8FFFF87FFFFFFFFFFFFAC
:1023C000F1FFFFC7FFFFFFFFFFFFE1FFFFE3FFFF9D
:1023D000FFFFFFFFE3FFFFE3FFFFFFFFFFFFC3FF81
:1023E000FFE1FFFFFFFFFFFFC7FFFFF1FFFFFFFF61
:1023F000FFFFC7FFFFF1FFFFFC0000008FFFFFF8AA
:10240000FFFF800000008F3FFFF8FFF0000000009A
:102410008E1FFFF8FF0003FFFFFF8E1FFFF8E00095
:102420007FFFFFFF1F3FFFFC0007FFFFFFFF1FFFB6
:102430003FFC00FFFFFFFFFF1FFF3FFC0FFFFFFF01
:10244000FFFF1FFF3FFC7FFFFFFFFFFF1FFF3FFC62
:102450007FFFFFFFFFFF1FFF3FFC7FFFFFFFFFFF2F
:102460001FFF3FFC7FFFFFFFFFFF1FFF3FFC7FFFC2
:10247000FFFFFFFF1F3F3FFC7FFFFFFFFFFF1E1F10
:102480003FFC7FFFFFFFFFFF1E1FFFFC7FFFFFFFE3
:10249000FFFF8F3FFFF8FFFFFFFFFFFF8FFFFFF8FA
:1024A000FFFFFFFFFFFF8FFFFFF8FFFFFFFFFFFFB3
:1024B0008FFFFFF87FFFFFFFFFFFC7FFFFF03FFF2A
:1024C000FFFFFFFFC7FFFFF00FFFFFFFFFFFC3FF8F
:1024D000FFE103FFFFFFFFFFE3FFFFE3C1FFFFFF9C
:1024E000FFFFE1FFFFC3E07FFFFFFFFFF1FFFFC73B
:1024F000F81FFFFFFFFFF8FFFF87FE07FFFFFFFF4B
:10250000F87FFF0FFF03FFFFFFFFFC3FFE1FFFC031
:10251000FFFFFFFFFE0FFC3FFFF03FFFFFFFFF034A
:10252000E07FFFFC07FFFFFFFF8000FFFFFF01FFD1
:10253000FFFFFFE003FFFFFF801FFFFFFFF80FFF1C
:10254000FFFFF000FFFFFFFFFFFFFFFFFE00007F28
:10255000FFFFFFFFFFFFFFC00000FFFFFFFFFFFFC8
:10256000FFFF0000FFFFFFFFFFFFFFFFFF80FFFFF8
:10257000FFFFFFFFFFFFFFFFFFFFFFFFFFFFFFFF6B
:10258000FFFFFFFFFFFFFFFFFFFFFFFFFFFFFFFF5B
:10259000FFFFFFFFFFFFFFFFFFFFFFFFFFFFFFFF4B
:1025A000FFFFFFFFFFFFFFFFFFFFFFFFFFFFFFFF3B
:1025B000FFFFFFFFFFFFFFFFFFFFFFFFFFFFFFFF2B
:1025C000FFFFFFFFFFFFFFFFFFFFFFFFFFFFFFFF1B
:1025D000FFFFFFFFFFFFFFFFFFFFFFFFFFFFFFFF0B
:1025E000FFFFFFFFFFFFFFFFFFFFFFFFFFFFFFFFFB
:1025F000FFF80FFFFFFFFFFFFFFFFFE003FFFFFFFD
:10260000FFFFFFFFFF8000FFFFFFFFFFFFFFFF0354
:10261000E07FFFFFFFFFFFFFFE0FFC1FFFFFFFFF3D
:10262000FFFFFC3FFF1FFFFFFFFFFFFFF87FFF8F54
:10263000FFFFFFFFFFFFF8FFFFC7FFFFFFFFFFFFE9
:10264000F1FFFFC7FFFFFFFFFFFFE1FFFFE3FFFF1A
:10265000FFFFFFFFE3FFFFE3FFFFFFFFFFFFC3FFFE
:10266000FFE1FFFFFFFFFFFFC7FFFFF1FFFFFFFFDE
:10267000FFFFC7FFFFF1FFFFFC0000008FFFFFF827
:10268000FFFF800000008FFFFFF8FFF00000000058
:102690008FFFFFF8FF0003FFFFFF8FFFFFF8E00051
:1026A0007FFFFFFF1FFFFFFC0007FFFFFFFF1E7FF5
:1026B000FFFC00FFFFFFFFFF1C3FFFFC0FFFFFFFC2
:1026C000FFFF1C3FFFFC7FFFFFFFFFFF1E7FFFFCA4
:1026D0007FFFFFFFFFFF1FFE7FFC7FFFFFFFFFFF6E
:1026E0001FFE7FFC7FFFFFFFFFFF1FFE7FFC7FFFC2
:1026F000FFFFFFFF1FFE7FFC7FFFFFFFFFFF1FFEAF
:102700007FFC7FFFFFFFFFFF1FFE7FFC7FFFFFFFC0
:10271000FFFF8FFE7FF8FFFFFFFFFFFF8E7E7FF83A
:10272000FFFFFFFFFFFF8C3E7FF8FFFFFFFFFFFF74
:102730008C3FFFF87FFFFFFFFFFFC67FFFF03FFFEB
:10274000FFFFFFFFC7FFFFF00FFFFFFFFFFFC3FF0C
:10275000FFE103FFFFFFFFFFE3FFFFE3C1FFFFFF19
:10276000FFFFE1FFFFC3E07FFFFFFFFFF1FFFFC7B8
:10277000F81FFFFFFFFFF8FFFF87FE07FFFFFFFFC8
:10278000F87FFF0FFF03FFFFFFFFFC3FFE1FFFC0AF
:10279000FFFFFFFFFE0FFC3FFFF03FFFFFFFFF03C8
:1027A000E07FFFFC07FFFFFFFF8000FFFFFF01FF4F
:1027B000FFFFFFE003FFFFFF801FFFFFFFF80FFF9A
:1027C000FFFFF000FFFFFFFFFFFFFFFFFE00007FA6
:1027D000FFFFFFFFFFFFFFC00000FFFFFFFFFFFF46
:1027E000FFFF0000FFFFFFFFFFFFFFFFFF80FFFF76
:1027F000FFFFFFFFFFFFFFFFFFFFFFFFFFFFFFFFE9
:10280000FFFFFFFFFFFFFFFFFFFFFFFFFFFFFFFFD8
:10281000FFFFFFFFFFFFFFFFFFFFFFFFFFFFFFFFC8
:10282000FFFFFFFFFFFFFFFFFFFFFFFFFFFFFFFFB8
:10283000FFFFFFFFFFFFFFFFFFFFFFFFFFFFFFFFA8
:10284000FFFFFFFFFFFFFFFFFFFFFFFFFFFFFFFF98
:10285000FFFFFFFFFFFFFFFFFFFFFFFFFFFFFFFF88
:10286000FFFFFFFFFFFFFFFFFFFFFFFFFFFFFFFF78
:10287000FFF80FFFFFFFFFFFFFFFFFE003FFFFFF7A
:10288000FFFFFFFFFF8000FFFFFFFFFFFFFFFF03D2
:10289000E07FFFFFFFFFFFFFFE0FFC1FFFFFFFFFBB
:1028A000FFFFFC3FFF1FFFFFFFFFFFFFF87FFF8FD2
:1028B000FFFFFFFFFFFFF8FFFFC7FFFFFFFFFFFF67
:1028C000F1FFFFC7FFFFFFFFFFFFE1FFFFE3FFFF98
:1028D000FFFFFFFFE3FFFFE3FFFFFFFFFFFFC3FF7C
:1028E000FFE1FFFFFFFFFFFFC7FFFFF1FFFFFFFF5C
:1028F000FFFFC7FFFFF1FFFFFC0000008FFFFFF8A5
:10290000FFFF800000008FFFFFF8FFF000000000D5
:102910008FFFFFF8FF0003FFFFFF8FFFFFF8E000CE
:102920007FFFFFFF1FFFFFFC0007FFFFFFFF1FFFF1
:10293000FFFC00FFFFFFFFFF1FFFFFFC0FFFFFFF7C
:10294000FFFF1FFFFFFC7FFFFFFFFFFF1FFFFFFCDD
:102950007FFFFFFFFFFF1FFFFFFC7FFFFFFFFFFF6A
:102960001FFCFFFC7FFFFFFFFFFF1FF87FFC7FFFC7
:10297000FFFFFFFF1FF87FFC7FFFFFFFFFFF1FFC34
:10298000FFFC7FFFFFFFFFFF1FFFFCFC7FFFFFFF40
:10299000FFFF8FFFFCF8FFFFFFFFFFFF8FFFFCF83B
:1029A000FFFFFFFFFFFF8FFFFCF8FFFFFFFFFFFFB1
:1029B0008FFFFCF87FFFFFFFFFFFC7FFFCF03FFF2B
:1029C000FFFFFFFFC7FFFCF00FFFFFFFFFFFC3FC90
:1029D000FCE103FFFFFFFFFFE3F87CE3C1FFFFFF24
:1029E000FFFFE1F87FC3E07FFFFFFFFFF1FCFFC7C0
:1029F000F81FFFFFFFFFF8FFFF87FE07FFFFFFFF46
:102A0000F87FFF0FFF03FFFFFFFFFC3FFE1FFFC02C
:102A1000FFFFFFFFFE0FFC3FFFF03FFFFFFFFF0345
:102A2000E07FFFFC07FFFFFFFF8000FFFFFF01FFCC
:102A3000FFFFFFE003FFFFFF801FFFFFFFF80FFF17
:102A4000FFFFF000FFFFFFFFFFFFFFFFFE00007F23
:102A5000FFFFFFFFFFFFFFC00000FFFFFFFFFFFFC3
:102A6000FFFF0000FFFFFFFFFFFFFFFFFF80FFFFF3
:102A7000FFFFFFFFFFFFFFFFFFFFFFFFFFFFFFFF66
:102A8000FFFFFFFFFFFFFFFFFFFFFFFFFFFFFFFF56
:102A9000FFFFFFFFFFFDFFFFFE7FFFFFBFFFFFC147
:102AA000FFFFBFFFFE7FFFFDF9FFFFC7FFFE2FFF08
:102AB000FDEFFFFE2FFFFFC5FFFFF9FFFFFDFFFF4B
:102AC000FDFFFFFDFFFC01FFFFFFFFFE3FFFFDDFFE
:102AD000FFFDDFFFFDDFFFFDDFFFFC01FFFFFFFF6D
:102AE000FE63FFFDDDFFFDDDFFFDDDFFFDDDFFFE24
:102AF00033FFFFFFFFFC01FFFFFFFFFF07FFFEFBB0
:102B0000FFFDFDFFFDFDFFFDFDFFFDFDFFFC01FFE6
:102B1000FFFFFFFFFFFFFF07FFFEFBFFFDFDFFFDC8
:102B2000FDFFFDFDFFFDFDFFFC01FFFFFFFFFF07B8
:102B3000FFFEFBFFFDFDFFFDFDFFFDFDFFFEFBFFBB
:102B4000FF07FFFFFFFFFF07FFFEFBFFFDFDFFFD90
:102B5000FDFFFDFDFFFEFBFFFF07FFFFFFFFFF4740
:102B6000FFFEDBFFFDDDFFFDFDFFFDFDFFFEFBFFCB
:102B7000FF07FFFFFFFFFFFFFFFFFFFFFFFFFFFF5D
:102B8000FFFFFFFFFFFFFFFFFFFFFFFFFFFFFFFF55
:102B9000FFFFFFFFFFFFFFFFFFFFFFFFFFFFFFFF45
:102BA000FFFFFFFFFFFFFFFFFFFFFFFFFFFFFFFF35
:102BB000FFFFFFFFFFFFFFFFF8F8F8E0F0761837A0
:102BC000EDF7F777776F77B5EBD7D6EFEFAFAFAF1E
:102BD000B7D5EBD7D6EFEFEFAFAFB7D5FBD7D75F12
:102BE000EE2FAFAFB7D61837BBBFEFAFAFAFB7D78A
:102BF000EBF783BFEFAFAFAFB7D5EBF7BBBFF7775F
:102C0000776F77B5EBF77DBFF8F8F8E0F0761BF05B
:102C10003DBFFFFFFFFFFFFFFFFFFFFFFFFFFFFFC6
:102C2000FFFFFFFFFFFFFFFFFFFFFFFFFFFFFFFFB4
:102C3000FFFFFFFFFFFFFFFFFFFFFFFFFFFFFFFFA4
:102C4000FFFFFFFFFFFFFFFFFFFFFFFFFFFFFFFF94
:102C5000FFFFFFFFFFFFFFFFFFFFFFFFFFFFFFFF84
:102C6000FFFFFFFFFFFFFFFFFFFFFFFFFFFFFFFF74
:102C7000FFFFFFFFFFFFFFFFFFFFFFFFFFFFFFFF64
:102C8000FFFFFFFFFFFFFFFFFFFFFFFFFFFFFFFF54
:102C9000FFFFFFFFFFFFFFFFFFFFFFFFFFFFFFFF44
:102CA000FFFFFFFFFFFFFFFFFFFFFFFFFFFFFFFF34
:102CB000FFFFFFFFFFFFFFFFFFFFFFFFFFFFFFFF24
:102CC000FFFFFFFFFFFFFDBC0FD86E0F071F1F1F89
:102CD000FDBEEFD7ADEEF6EEEEEFFDDDEFD7ABEDDF
:102CE000F5F5F5F7FDC1EFD7EBEDF5F5F5F7FDDD02
:102CF000EC186BEDF5F5F477FAEBEBDFABEDF5F5F2
:102D0000F7F7F76BEBD7ABEDF5F5F5F7F76BEBD71F
:102D1000ADEEF6EEEEEFEFB7EC186E0F071F1F1FCC
:102D2000FFFFFFFFFFFFFFFFFFFFFFFFFFFFFFFFB3
:102D3000FFFFFFFFFFFFFFFFFFFFFFFFFFFFFFFFA3
:102D4000FFFFFFFFFFFFFFFFFFFFFFFFFFFFFFFF93
:102D5000FFFFFFFFFFFFFFFFFFFFFFFFFFFFFFFF83
:102D6000FFFFFFFFFFFFFFFFFFFFFFFFFFFFFFFF73
:102D7000FFFFFFFFFFFFFFFFFFFFFFFFFFFFFFFF63
:102D8000FFFFFFFFFFFFFFF7FFFFFFF7FFFFFFF76B
:102D9000FFFFFFE7FF000007FF000007FF800007BD
:102DA000FFDFFFE7FFDFFFF7FFDFFFF7FFDFFFF7E3
:102DB000FFFFFFFFFFFFFFFFFFFFFFFFFFFFFFFF23
:102DC000FFFFFFFFFFFFFFFFFFFFFFFFFFFFFFFF13
:102DD000FFFFFFFFFFFFFFFFFFFFFFFFFFFFFFFF03
:102DE000FFFFFFFFFFFFFFFFFFFFFFFFFFFFFFFFF3
:102DF000FFFFFFFFFFFFFFFFFFFFFFFFFFFC01FFE4
:102E0000FFE0003FFFC0001FFF87FF0FFF1FFFC74E
:102E1000FF3FFFE7FF7FFFF7FF7FFFF7FF3FFFE782
:102E2000FF1FFFC7FF83FE0FFFC0001FFFE0003F33
:102E3000FFFC01FFFFFFFFFFFFFFFFFFFFFFFFFFA3
:102E4000FFFFFFFFFFFFFFFFFFFFFFFFFFFFFFFF92
:102E5000FFFFFFFFFFFFFFFFFFFFFFFFFFFFFFFF82
:102E6000FFFFFFFFFFFFFFFFFFFFFFFFFFFFFFFF72
:102E7000FFFFFFFFFFFFFFFFFFFFFFFFFFFFFFFF62
:102E8000FFE0FE1FFF807E07FF803FC7FF1F1FE799
:102E9000FF3FCFE7FF7FE7E7FF7FF3E7FF7FF9E73C
:102EA000FF7FFCE7FF3FFE67FF99FF27FFC1FF871A
:102EB000FFE1FFC7FFFFFFFFFFFFFFFFFFFFFFFF78
:102EC000FFFFFFFFFFFFFFFFFFFFFFFFFFFFFFFF12
:102ED000FFFFFFFFFFFFFFFFFFFFFFFFFFFFFFFF02
:102EE000FFFFFFFFFFFFFFFFFFFFFFFFFFFFFFFFF2
:102EF000FFFFFFFFFFFFFFFFFFFFFFFFFFFFFFFFE2
:102F0000FFFFFFFFFFFFFFF7FFFFFFF7FFFFFFF7E9
:102F1000FFFFFFE7FF000007FF000007FF8000073B
:102F2000FFDFFFE7FFDFFFF7FFDFFFF7FFDFFFF761
:102F3000FFFFFFFFFFFFFFFFFFFFFFFFFFFFFFFFA1
:102F4000FFFFFFFFFFFFFFFFFFFFFFFFFFFFFFFF91
:102F5000FFFFFFFFFFFFFFFFFFFFFFFFFFFFFFFF81
:102F6000FFFFFFFFFFFFFFFFFFFFFFFFFFFFFFFF71
:102F7000FFFFFFFFFFFFFFFFFFFFFFFFFFFFFFFF61
:102F8000FFFFF87FFFE1E01FFF80C00FFF804FCF02
:102F9000FF1E1FE7FF3F1FF7FF7FBFF7FF7FBFF752
:102FA000FF7FBFF7FF3FFFE7FF83FE0FFF83FE0FAB
:102FB000FFC3FE1FFFFFFFFFFFFFFFFFFFFFFFFF3E
:102FC000FFFFFFFFFFFFFFFFFFFFFFFFFFFFFFFF11
:102FD000FFFFFFFFFFFFFFFFFFFFFFFFFFFFFFFF01
:102FE000FFFFFFFFFFFFFFFFFFFFFFFFFFFFFFFFF1
:102FF000FFFFFFFFFFFFFFFFFFFFFFFFFFFFFFFFE1
:10300000FFE0FE1FFF807E07FF803FC7FF1F1FE717
:10301000FF3FCFE7FF7FE7E7FF7FF3E7FF7FF9E7BA
:10302000FF7FFCE7FF3FFE67FF99FF27FFC1FF8798
:10303000FFE1FFC7FFFFFFFFFFFFFFFFFFFFFFFFF6
:10304000FFFFFFFFFFFFFFFFFFFFFFFFFFFFFFFF90
:10305000FFFFFFFFFFFFFFFFFFFFFFFFFFFFFFFF80
:10306000FFFFFFFFFFFFFFFFFFFFFFFFFFFFFFFF70
:10307000FFFFFFFFFFFFFFFFFFFFFFFFFFFFFDFB66
:10308000FFFFFDFBFFFFFDFBFF000003FF00000350
:10309000FF000003FF800003FFE3FDFBFFF0FDFBEB
:1030A000FFFC7DFBFFFE1DFFFFFF8DFFFFFFE1FF2C
:1030B000FFFFF1FFFFFFFDFFFFFFFFFFFFFFFFFF30
:1030C000FFFFFFFFFFFFFFFFFFFFFFFFFFFFFFFF10
:1030D000FFFFFFFFFFFFFFFFFFFFFFFFFFFFFFFF00
:1030E000FFFFFFFFFFFFFFFFFFFFFFFFFFFFFFFFF0
:1030F000FFFFFFFFFFFFFFFFFFFFFFFFFFFFFFFFE0
:10310000FFFFF87FFFE1E01FFF80C00FFF804FCF80
:10311000FF1E1FE7FF3F1FF7FF7FBFF7FF7FBFF7D0
:10312000FF7FBFF7FF3FFFE7FF83FE0FFF83FE0F29
:10313000FFC3FE1FFFFFFFFFFFFFFFFFFFFFFFFFBC
:10314000FFFFFFFFFFFFFFFFFFFFFFFFFFFFFFFF8F
:10315000FFFFFFFFFFFFFFFFFFFFFFFFFFFFFFFF7F
:10316000FFFFFFFFFFFFFFFFFFFFFFFFFFFFFFFF6F
:10317000FFFFFFFFFFFFFFFFFFFFFFFFFFFFFFFF5F
:10318000FF3FE07FFF3F801FFF3F000FFF3E3F8F6D
:10319000FF3E7FE7FF3EFFF7FF3EFFF7FF3EFFF7F3
:1031A000FF3E7FF7FF073FF7FF001E67FFF81E0F88
:1031B000FFFFFE1FFFFFFFFFFFFFFFFFFFFFFFFF00
:1031C000FFFFFFFFFFFFFFFFFFFFFFFFFFFFFFFF0F
:1031D000FFFFFFFFFFFFFFFFFFFFFFFFFFFFFFFFFF
:1031E000FFFFFFFFFFFFFFFFFFFFFFFFFFFFFFFFEF
:1031F000FFFFFFFFFFFFFFFFFFFFFFFFFFFFFDFBE5
:10320000FFFFFDFBFFFFFDFBFF000003FF000003CE
:10321000FF000003FF800003FFE3FDFBFFF0FDFB69
:10322000FFFC7DFBFFFE1DFFFFFF8DFFFFFFE1FFAA
:10323000FFFFF1FFFFFFFDFFFFFFFFFFFFFFFFFFAE
:10324000FFFFFFFFFFFFFFFFFFFFFFFFFFFFFFFF8E
:10325000FFFFFFFFFFFFFFFFFFFFFFFFFFFFFFFF7E
:10326000FFFFFFFFFFFFFFFFFFFFFFFFFFFFFFFF6E
:10327000FFFFFFFFFFFFFFFFFFFFFFFFFFFFE07FFD
:10328000FFCFC01FFF8F800FFF0F1FCFFF7F3FE7D4
:10329000FF7F7FF7FF7F7FF7FF3F7FF7FF3F3FE72E
:1032A000FF9F9FC7FFC38F0FFFE0001FFFF0003F8E
:1032B000FFFE00FFFFFFFFFFFFFFFFFFFFFFFFFF1E
:1032C000FFFFFFFFFFFFFFFFFFFFFFFFFFFFFFFF0E
:1032D000FFFFFFFFFFFFFFFFFFFFFFFFFFFFFFFFFE
:1032E000FFFFFFFFFFFFFFFFFFFFFFFFFFFFFFFFEE
:1032F000FFFFFFFFFFFFFFFFFFFFFFFFFFFFFFFFDE
:10330000FF3FE07FFF3F801FFF3F000FFF3E3F8FEB
:10331000FF3E7FE7FF3EFFF7FF3EFFF7FF3EFFF771
:10332000FF3E7FF7FF073FF7FF001E67FFF81E0F06
:10333000FFFFFE1FFFFFFFFFFFFFFFFFFFFFFFFF7E
:10334000FFFFFFFFFFFFFFFFFFFFFFFFFFFFFFFF8D
:10335000FFFFFFFFFFFFFFFFFFFFFFFFFFFFFFFF7D
:10336000FFFFFFFFFFFFFFFFFFFFFFFFFFFFFFFF6D
:10337000FFFFFFFFFFFFFFFFFFFFFFFFFFFFFFFF5D
:10338000FF3FFFFFFF1FFFFFFF07FFFFFF21FFFFC3
:10339000FF387FFFFF3E0FFFFF3F8007FF3FF00733
:1033A000FF3FFE07FF1FFFFFFF0FFFFFFF03FFFFB2
:1033B000FFC3FFFFFFFFFFFFFFFFFFFFFFFFFFFF59
:1033C000FFFFFFFFFFFFFFFFFFFFFFFFFFFFFFFF0D
:1033D000FFFFFFFFFFFFFFFFFFFFFFFFFFFFFFFFFD
:1033E000FFFFFFFFFFFFFFFFFFFFFFFFFFFFFFFFED
:1033F000FFFFFFFFFFFFFFFFFFFFFFFFFFFFE07F7C
:10340000FFCFC01FFF8F800FFF0F1FCFFF7F3FE752
:10341000FF7F7FF7FF7F7FF7FF3F7FF7FF3F3FE7AC
:10342000FF9F9FC7FFC38F0FFFE0001FFFF0003F0C
:10343000FFFE00FFFFFFFFFFFFFFFFFFFFFFFFFF9C
:10344000FFFFFFFFFFFFFFFFFFFFFFFFFFFFFFFF8C
:10345000FFFFFFFFFFFFFFFFFFFFFFFFFFFFFFFF7C
:10346000FFFFFFFFFFFFFFFFFFFFFFFFFFFFFFFF6C
:10347000FFFFFFFFFFFFFFFFFFFFFFFFFFFFFFFF5C
:10348000FFE1F83FFFC0F01FFF80600FFF1E03CF7A
:10349000FF3F87E7FF7F8FF7FF7F9FF7FF7F1FF7D4
:1034A000FF3E1FF7FF1C0FE7FF8047CFFFC0E00F75
:1034B000FFE1F01FFFFFF83FFFFFFFFFFFFFFFFFF0
:1034C000FFFFFFFFFFFFFFFFFFFFFFFFFFFFFFFF0C
:1034D000FFFFFFFFFFFFFFFFFFFFFFFFFFFFFFFFFC
:1034E000FFFFFFFFFFFFFFFFFFFFFFFFFFFFFFFFEC
:1034F000FFFFFFFFFFFFFFFFFFFFFFFFFFFFFFFFDC
:10350000FF3FFFFFFF1FFFFFFF07FFFFFF21FFFF41
:10351000FF387FFFFF3E0FFFFF3F8007FF3FF007B1
:10352000FF3FFE07FF1FFFFFFF0FFFFFFF03FFFF30
:10353000FFC3FFFFFFFFFFFFFFFFFFFFFFFFFFFFD7
:10354000FFFFFFFFFFFFFFFFFFFFFFFFFFFFFFFF8B
:10355000FFFFFFFFFFFFFFFFFFFFFFFFFFFFFFFF7B
:10356000FFFFFFFFFFFFFFFFFFFFFFFFFFFFFFFF6B
:10357000FFFFFFFFFFFFFFFFFFFFFFFFFFFFFFFF5B
:10358000FFF803FFFFE0007FFFC0003FFF8F8C1FAD
:10359000FF3FCF8FFF7FE7C7FF7FF7E7FF7FF7F79B
:1035A000FF7FF7F7FF3FE7F7FF8FC787FF800F8F9A
:1035B000FFC01F8FFFF03FFFFFFFFFFFFFFFFFFF79
:1035C000FFFFFFFFFFFFFFFFFFFFFFFFFFFFFFFF0B
:1035D000FFFFFFFFFFFFFFFFFFFFFFFFFFFFFFFFFB
:1035E000FFFFFFFFFFFFFFFFFFFFFFFFFFFFFFFFEB
:1035F000FFFFFFFFFFFFFFFFFFFFFFFFFFFFFFFFDB
:10360000FFE1F83FFFC0F01FFF80600FFF1E03CFF8
:10361000FF3F87E7FF7F8FF7FF7F9FF7FF7F1FF752
:10362000FF3E1FF7FF1C0FE7FF8047CFFFC0E00FF3
:10363000FFE1F01FFFFFF83FFFFFFFFFFFFFFFFF6E
:10364000FFFFFFFFFFFFFFFFFFFFFFFFFFFFFFFF8A
:10365000FFFFFFFFFFFFFFFFFFFFFFFFFFFFFFFF7A
:10366000FFFFFFFFFFFFFFFFFFFFFFFFFFFFFFFF6A
:10367000FFFFFFFFFFFFFFFFFFFFFFFFFFFFFFFF5A
:10368000FFFFFFFFFFFFFFFFFFFFFFFFFFFFFFFF4A
:10369000FFFFFFFFFFFFFFFFFFFFFFFFFFFFFFFF3A
:1036A000FFFFFFFFFFFFFFFFFFFFFFFFFFFFFFFF2A
:1036B000FFFFFFFFFFFFFFFFFFFFFFFFFFFFFFFF1A
:1036C000FFFFFFFFFFFFFFFFFFFFFFFFFFFFFFFF0A
:1036D000FFFFFFFFFFFFFFFFFFFFFFFFFFFFFFFFFA
:1036E000FFFFFFFFFFFFFFFFFFFFFFFFFFFFFFFFEA
:1036F000FFFFFFFFFFFFFFFFFFFFFFFFFFFFFFFFDA
:10370000FFFFFFFFFFFFFFFFFFFFFFFFFFFFFFFFC9
:10371000FFFFFFFFFFFFFFFFFFFFFFFFFFFFFFFFB9
:10372000FFFFFFFFFFFFFFFFFFFFFFFFFFFFFFFFA9
:10373000FFFFFFFFFFFFFFFFFFFFFFFFFFFFFFFF99
:10374000FFFFFFFFFFFFFFFFFFFFFFFEDDEEC89D56
:10375000EEEFFFFFFFFFFFFFFFFFFFFFFFFFFFFF9A
:10376000FFFFFFFFFFFFFFFFFFFFFFFFFFFFFFFF69
:10377000FFFFFFFFFFFFFFFFFFFFFFFFFFFFC98608
:1037800055655435DFEEFFFFFFFFFFFFFFFFFFFF33
:10379000FFFFFFFFFFFFFFFFFFFFFFFFFFFFFFFF39
:1037A000FFFFFFFFFFFFFFFFFFFFFFFFFFFFFFFF29
:1037B000FFFC9A85444444436EFEEEFFFFFFFFFF8B
:1037C000FFFFFFFFFFFFFFFFFFFFFFFFFFFFFFFF09
:1037D000FFFFFFFFFFFFFFFFFFFFFFFFFFFFFFFFF9
:1037E000FFFFFEDB9879CCC85344345337FFEDEF2D
:1037F000FFFFFFFFFFFFFFFFFFFFFFFFFFFFFFFFD9
:10380000FFFFFFFFFFFFFFFFFFFFFFFFFFFFFFFFC8
:10381000FFFFFFFFFFDA86655559CDC843433333B9
:10382000339FEDDFFFFFFFFFFFFFFFFFFFFFFFFF06
:10383000FFFFFFFFFFFFFFFFFFFFFFFFFC9AFFFF00
:10384000FFFFFFFFFFDCEDC9766556665568CDC901
:1038500054333333333CFDCEFFFFFFFFFFFFFFFF49
:10386000FFFFFFFFFFFFFFFFFFFFFFFFFFFFFFFF68
:10387000A10048CFFFFFEDA5100023566565555503
:103880005557CDDB543333433435EEBDFFFFFFFFD7
:10389000FFFFFFFFFFFFFFFFFFFFFFFFFFFFFFFF38
:1038A000FFFFFFF7000000001111000000000003FF
:1038B000655555555557BDDC6333333225638FCD80
:1038C000EFFFFFFFFFFFFFFFFFFFFFFFFFFFFFFF18
:1038D000FFFFFFFFFFFFFFF10000000000000000FE
:1038E00000000000355550035556ACDC73334321BE
:1038F00012444CDCEFFFFFFFFFFFFFFFFFFFFFFF66
:10390000FFFFFFFFFFFFFFFFFFFFFFB01000000002
:1039100000000100000000001450000045558CDD3F
:1039200094434422442236EBEEFFFFFFFFFFFFFFEC
:10393000FFFFFFFFFFFFFFFFFFFFFFFFFFFFFF6036
:1039400000002A88653200000000000002100230EA
:1039500015557CDDB5435533463243BCDEFFFFFFD2
:10396000FFFFFFFFFFFFFFFFFFFFFFFFFFFFFFFF67
:10397000FFFFFF200000FFFFFFECA500000000009C
:103980001000333202556ADDC74333324532337C8F
:10399000CEFFFFFFFFFFFFFFFFFFFFFFFFFFFFFF68
:1039A000FFFFFFFFFFFFFF200006FEFFFFFFFF708E
:1039B0000000000100033333104559CDC9433432B0
:1039C0004552335CCEEFFFFFFFFFFFFFFFFFFFFF1E
:1039D000FFFFFFFFFFFFFFFFFFFFFF20000AEEEEEC
:1039E000EEEEEEF70000001001333333300557CD13
:1039F000DB6333434553443BDEEFFFFFFFFFFFFF35
:103A0000FFFFFFFFFFFFFFFFFFFFFFFFFFFFFF20A5
:103A1000000CFEDDDDDDEEFB1000010003320003D3
:103A2000330356ACDC8433543565233ADEEFFFFFB5
:103A3000FFFFFFFFFFFFFFFFFFFFFFFFFFFFFFFF96
:103A4000FFFFFF20000DFEDCCBAABCED2000100222
:103A5000333001003310558CDDB5333337652337F0
:103A6000DDEFFFFFFFFFFFFFFFFFFFFFFFFFFFFF98
:103A7000FFFFFFFFFFFFFF41000DFEDCBA9888DD6E
:103A800010000024331014002330356BCDC84333AD
:103A900037762335DDEFFFFFFFFFFFFFFFFFFFFF5F
:103AA000FFFFFFFFFFFFFFFFFFFFFF83000EFEDCB6
:103AB000BA9987DA000002443101143013311559E4
:103AC000CDDB533435763334CDEEFFFFFFFFFFFF00
:103AD000FFFFFFFFFFFFFFFFFFFFFFFFFFFFFFE90C
:103AE000201FFEDCBA9888E5001014431011110164
:103AF00033320557BDDC844433564333BEEEFFFFFB
:103B0000FFFFFFFFFFFFFFFFFFFFFFFFFFFFFFFFC5
:103B1000FFFFFFFFE00FEEDCBA987CC001004442DB
:103B200000111005433303558CDDC643335644332F
:103B30009EDEFFFFFFFFFFFFFFFFFFFFFFFFFFFF17
:103B4000FFFFFFFFFFFFFFFFF10EEEDDCBA99E5051
:103B50001004542002210024433311556ACDCA5366
:103B6000336762338EDEFFFFFFFFFFFFFFFFFFFFC4
:103B7000FFFFFFFFFFFFFFFFFFFFFFFFF20AEEDD8A
:103B8000DA88DB220035430022000233333103554B
:103B900057CCDC74357872336CDEFFFFFFFFFFFF1C
:103BA000FFFFFFFFFFFFFFFFFFFFFFFFFFFFFFFF25
:103BB000F406EEE81002E5110155300120014443FE
:103BC0002000024556ACDCA544454334ADDEFFFF82
:103BD000FFFFFFFFFFFFFFFFFFFFFFFFFFFFFFFFF5
:103BE000FFFFFFFFFD03FE30000C92100554100193
:103BF0000024443000122235557BDDC84343334B4B
:103C0000DDDEFFFFFFFFFFFFFFFFFFFFFFFFFFFF07
:103C1000FFFFFFFFFFFFFFFFFF12C200000D32009A
:103C20005555200003544200034555555569CDDBD9
:103C3000643344CEFEDEFFFFFFFFFFFFFFFFFFFF09
:103C4000FFFFFFFFFFFFFFFFFFFFFFFFFF30000051
:103C500000E61003555553004553000002655555C5
:103C60005557BDDC94435DFFFFEEEFFFFFFFFFFF05
:103C7000FFFFFFFFFFFFFFFFFFFFFFFFFFFFFFFF54
:103C8000FF8000000DA10014455555555420001229
:103C90000055555555568CDDB848EFFFFFFEEFFF38
:103CA000FFFFFFFFFFFFFFFFFFFFFFFFFFFFFFFF24
:103CB000FFFFFFFFFF9000005E32017A645555550B
:103CC000410012231035555555556ACDCAAFFFFF37
:103CD000FFFEEFFFFFFFFFFFFFFFFFFFFFFFFFFF05
:103CE000FFFFFFFFFFFFFFFFFD000002E8117EFF67
:103CF000F84555540001223330055555555557CCDC
:103D0000CBEFFFFFFFFEEFFFFFFFFFFFFFFFFFFF18
:103D1000FFFFFFFFFFFFFFFFFFFFFFFFF2000008B5
:103D2000D23BFA9FFFA555300012103211055555B0
:103D30005555569CCDFFFFFFFFFEEFFFFFFFFFFF36
:103D4000FFFFFFFFFFFFFFFFFFFFFFFFFFFFFFFF83
:103D50005000001E75EEEDCDEFFA43001233333301
:103D60000203555555555578CEFFFFFFFFFFEEFF77
:103D7000FFFFFFFFFFFFFFFFFFFFFFFFFFFFFFFF53
:103D8000FFFFFFFA000B803EAFF86FF7CFFA20017C
:103D9000233333333300555555555569EFFFFFFF36
:103DA000FFFEDEFFFFFFFFFFFFFFFFFFFFFFFFFF45
:103DB000FFFFFFFFFFFFFFF1009FFABFF9DEDEFF0D
:103DC000F7DB002323043021230055555555557D3D
:103DD000FFFFFFFFFFFEDEFFFFFFFFFFFFFFFFFF15
:103DE000FFFFFFFFFFFFFFFFFFFFFF7005FFFFFC6F
:103DF000F78FF77FFEF71233342332212310555506
:103E0000555569AEFFFFFFFFFFFEDEFFFFFFFFFF1F
:103E1000FFFFFFFFFFFFFFFFFFFFFFFFFFFFFF00B1
:103E20000CFFFFFABFEFFEDC8FE323432333333372
:103E3000210055555556CACFFFFFFFFFFFFEDEFF9D
:103E4000FFFFFFFFFFFFFFFFFFFFFFFFFFFFFFFF82
:103E5000FFFFF9006FFEDEFC4EE57FFE8EA23331E0
:103E600001330331121055555559BADFFFFFFFFFDB
:103E7000FFFEDDFFFFFFFFFFFFFFFFFFFFFFFFFF75
:103E8000FFFFFFFFFFFFF101CFFC6BFF65722CFF0F
:103E9000FF5232333033233113305555558CCCDF3C
:103EA000FFFFFFFFFFFEDDFFFFFFFFFFFFFFFFFF45
:103EB000FFFFFFFFFFFFFFFFFFFFF005FE977EFF05
:103EC000B2333EB4DD233020233301333120555546
:103ED00056CCDCDFFFFFFFFFFFFEDCEFFFFFFFFF45
:103EE000FFFFFFFFFFFFFFFFFFFFFFFFFFFFE00AF6
:103EF000FE8F8BEAE7333CFDF0023331203333335E
:103F0000203045655BCDDCDFFFFFFFFFFFFEDCEF10
:103F1000FFFFFFFFFFFFFFFFFFFFFFFFFFFFFFFFB1
:103F2000FFFFF00DFF8E877AFB11238DE000231039
:103F300032322320332055658CCDDDCEFFFFFFFFCD
:103F4000FFFEDCEFFFFFFFFFFFFFFFFFFFFFFFFFB5
:103F5000FFFFFFFFFFFFF00EFF97759AB8000112F9
:103F6000000002333031133233205566BCDDDDCC26
:103F7000DFFFFFFFFFFFFCDFFFFFFFFFFFFFFFFF94
:103F8000FFFFFFFFFFFFFFFFFFFFFB0EEA65A5330B
:103F90007700002200000033333332233310566998
:103FA000CDDDDDDCCDEFFFFFFFFFFDCFFFFFFFFF2E
:103FB000FFFFFFFFFFFFFFFFFFFFFFFFFFFFFFFE12
:103FC000DAD5597CE70000121000001333322112B9
:103FD0000300666BCDDDDDDDDCCDEFFFFFFFFDBF58
:103FE000FFFFFFFFFFFFFFFFFFFFFFFFFFFFFFFFE1
:103FF000FFFFFFFFEEC54CEA670001010000000172
:10400000332033333304666CCDDDDDDDDDCBBCFF27
:10401000FFFFFEBEFFFFFFFFFFFFFFFFFFFFFFFFF2
:10402000FFFFFFFFFFFFFFFFFFEB45538B0001404A
:1040300000100000023320032104669CCDDDDDDD8D
:10404000DDCA44CFFFFFFFBDFFFFFFFFFFFFFFFF04
:10405000FFFFFFFFFFFFFFFFFFFFFFFFFFFE7444B7
:10406000CC0000600011000000223323300566AC54
:10407000DDDDDDDDDDCA469EFFFFFFCDFFFFFFFF7B
:10408000FFFFFFFFFFFFFFFFFFFFFFFFFFFFFFFF40
:10409000FFFFB446FC1000100001100000032333A2
:1040A000001666ACDDDDDDDDDDC8445DFFFFFFCC65
:1040B000FFFFFFFFFFFFFFFFFFFFFFFFFFFFFFFF10
:1040C000FFFFFFFFFFFEC839FD10000000022000C7
:1040D00000013323005666ACDDDDDDDDDCA6474B99
:1040E000EFFFFFDBFFFFFFFFFFFFFFFFFFFFFFFF14
:1040F000FFFFFFFFFFFFFFFFFFFEE82AF6000000C3
:1041000000100100000013310056669CDDDDDDDD8E
:10411000DC955639EFFFFFEBFFFFFFFFFFFFFFFFCF
:10412000FFFFFFFFFFFFFFFFFFFFFFFFFFFFEC545D
:104130005000000000020000000000000066666CF5
:10414000CDDDDDDDDB855436DFFFFFFBEFFFFFFF5D
:10415000FFFFFFFFFFFFFFFFFFFFFFFFFFFFFFFF6F
:10416000FFFFFEC30000010000120001100000006C
:104170000566666BCDDDDDCDDB746544CEFFFFFBF0
:10418000DFFFFFFFFFFFFFFFFFFFFFFFFFFFFFFF5F
:10419000FFFFFFFFFFFFFFB1000001000012000062
:1041A0001000000016666667CCDDDDDDDA6565446B
:1041B000BEFFFFFBCFFFFFFFFFFFFFFFFFFFFFFF84
:1041C000FFFFFFFFFFFFFFFFFFFFFE300011122286
:1041D0000101000032000000156666669CCDDDDD41
:1041E000C95565438EFFFFFBBFFFFFFFFFFFFFFFCA
:1041F000FFFFFFFFFFFFFFFFFFFFFFFFFFFFFC10C1
:10420000016520001200000132100000056666669C
:104210006BCDDDDDC95555436DFFFFFCBFFFFFFFD3
:10422000FFFFFFFFFFFFFFFFFFFFFFFFFFFFFFFF9E
:10423000FFFFFF9216610000021000033100000032
:104240000356666668CCDDDDC94775445DFFFFFD3A
:10425000BFFFFFFFFFFFFFFFFFFFFFFFFFFFFFFFAE
:10426000FFFFFFFFFFFFFFFEE71001000221000339
:10427000200000015A65666665BCDDDDC9486554ED
:104280004BFFFFFEAFFFFFFFFFFFFFFFFFFFFFFF43
:10429000FFFFFFFFFFFFFFFFFFFFFFFFF600000034
:1042A000110100231000115BFFA56666668CDDDD41
:1042B000C946555439EFFFFEAEFFFFFFFFFFFFFF7A
:1042C000FFFFFFFFFFFFFFFFFFFFFFFFFFFFFFFFFE
:1042D000FC1000002010112200003AFFE9E65666AB
:1042E000665CCDDDC856554438EFFFFEADFFFFFFDD
:1042F000FFFFFFFFFFFFFFFFFFFFFFFFFFFFFFFFCE
:10430000FFFFFFFFFFB200031100233200009FE612
:10431000C7EB56666669CDDDC856544436EFFFFEDE
:10432000ADFFFFFFFFFFFFFFFFFFFFFFFFFFFFFFEF
:10433000FFFFFFFFFFFFFFFFFFFC01330100233200
:104340000000AFECED6F65666656CCDDB7465544B0
:1043500035EFFFFFACFFFFFFFFFFFFFFFFFFFFFF9A
:10436000FFFFFFFFFFFFFFFFFFFFFFFFFFFFFA223F
:10437000100022000122BC7E7E9FB5666566ACDD22
:10438000C835554444DFFFFFACFFFFFFFFFFFFFFD1
:10439000FFFFFFFFFFFFFFFFFFFFFFFFFFFFFFFF2D
:1043A000FFFFFC30000121000234EE9ECFFDF756E6
:1043B00056659CDDC935554444CFFFFFABFFFFFF79
:1043C000FFFFFFFFFFFFFFFFFFFFFFFFFFFFFFFFFD
:1043D000FFFFFFFFFFFFFFD41002200002102FEFAE
:1043E000DF7C806666667CCDDB45844444AFFFFF9E
:1043F000AAFFFFFFFFFFFFFFFFFFFFFFFFFFFFFF22
:10440000FFFFFFFFFFFFFFFFFFFFFFFC2233000066
:104410000200164D6E7C106666666CCDDC836444CB
:10442000449FFFFFAAFFFFFFFFFFFFFFFFFFFFFF0C
:10443000FFFFFFFFFFFFFFFFFFFFFFFFFFFFFFFF8C
:10444000EA2100000100032ADEED006666666CDDED
:10445000DCB4455435BFFFFFA9FFFFFFFFFFFFFF9F
:10446000FFFFFFFFFFFFFFFFFFFFFFFFFFFFFFFF5C
:10447000FFFFFFFFFE6100001000233D7EF80156A4
:1044800066667CDDDDC84544537FFFFFA9FFFFFF63
:10449000FFFFFFFFFFFFFFFFFFFFFFFFFFFFFFFF2C
:1044A000FFFFFFFFFFFFFFFFFFF500000000234EAF
:1044B000E7F1002666667CDDDDCB5443746FFFFFB9
:1044C000A8EFFFFFFFFFFFFFFFFFFFFFFFFFFFFF63
:1044D000FFFFFFFFFFFFFFFFFFFFFFFFFFFF941244
:1044E00000001317FFC1001666669CDDDDDC854405
:1044F000338FFFFF88EFFFFFFFFFFFFFFFFFFFFF8F
:10450000FFFFFFFFFFFFFFFFFFFFFFFFFFFFFFFFBB
:10451000FFFFFA21000101116E2000166666BCDD66
:10452000DDDCB85333CFFFFF88EFFFFFFFFFFFFF56
:10453000FFFFFF000000000000000000000000FF7F
:10454000FFFFFFFFFFFFFF611010010001000006E9
:104550006668CCDDDDDDDC8435FFFFFFA8EFFFFF03
:10456000FFFFFFFFFFFFFF00000000000000000052
:10457000000000FFFFFFFFFFFFFFFFD4411000001E
:1045800000000006666ACDDDDDDDDDA57CFFFFFFF6
:1045900098EFFFFFFFFFFFFFFFFFFF00000000009D
:1045A00000000000000000FFFFFFFFFFFFFFFFFE15
:1045B000E500000000000016666CCDDDDDDDDDBA33
:1045C000EFFFFFFF98EFFFFFFFFFFFFFFFFFFF0081
:1045D0000000000000000000000000FFFFFFFFFFE0
:1045E000FFFFFFFFE301000000000006667CCDDD59
:1045F000DDDDDCCDFFFFFFFF88EFFFFFFFFFFFFFEB
:10460000FFFFFF000000000000000000000000FFAE
:10461000FFFFFFFFFFFFFFFFE43000000000000688
:10462000667CCDDDDDDDDCDEFFFFFFFFA8EFFFFFF9
:10463000FFFFFFFFFFFFFF00000000000000000081
:10464000000000FFFFFFFFFFFFFFFFFFFA20000059
:1046500000000006668CDDDDDDDDCCEFFFFFFFFF37
:10466000B8EFFFFFFFFFFFFFFFFFFF0000000000AC
:1046700000000000000000FFFFFFFFFFFFFFFFFF43
:10468000FF72000000000007669DDDDDDDDDCDFF6F
:10469000FFFFFFFFB7EFFFFFFFFFFFFFFFFFFF0081
:1046A0000000000000000000000000FFFFFFFFFF0F
:1046B000FFFFFFFFFFFE000000000127668CDDDD2D
:1046C000DDDDCDFFFFFFFFFEA8EFFFFFFFFFFFFFD8
:1046D000FFFFFF000000000000000000000000FFDE
:1046E000FFFFFFFFFFFFFFFFFFFF3000000001663D
:1046F000667CCDDDDDDDCEFFFFFFFFFE98EFFFFF27
:10470000FFFFFFFFFFFFFF0000000FF000FFFFF0C3
:10471000000000FFFFFFFFFFFFFFFFFFFFFFE200C2
:1047200000000076667CDDDDDDDDDDFFFFFFFFFDE7
:10473000A8EFFFFFFFFFFFFFFFFFFF000000FF00EC
:1047400000F000FF000000FFFFFFFFFFFFFFFFFF83
:10475000FFFFF60000000576667CCDDDDDDDDDFFC8
:10476000FFFFFFFDB8EFFFFFFFFFFFFFFFFFFF00B1
:104770000000F00000F0000F000000FFFFFFFFFF4F
:10478000FFFFFFFFFFFFFF4000000666666CDDDDF8
:10479000DDDDDDFFFFFFFFFDA8EFFFFFFFFFFFFFF8
:1047A000FFFFFF000000F0000FF0000F000000FF0F
:1047B000FFFFFFFFFFFFFFFFFFFFFFD20000376695
:1047C000666BDDDDDDDDDEFFFFFFFFFDA8FFFFFF28
:1047D000FFFFFFFFFFFFFF000000F0000F00000FD2
:1047E000000000FFFFFFFFFFFFFFFFFFFFFFFFF9DC
:1047F000100056666669CDDDDDDDCEFFFFFFFFFDF3
:1048000099FFFFFFFFFFFFFFFFFFFF000000F00029
:104810000F00000F000000FFFFFFFFFFFFFFFFFF83
:10482000FFFFFFFF400066666668BCDDDDDDCEFF92
:10483000FFFFFFED9AFFFFFFFFFFFFFFFFFFFF00FE
:104840000000FF00FF0000FF000000FFFFFFFFFF70
:10485000FFFFFFFFFFFFFFFFD40466666667BCDD56
:10486000DDDDCEFFFFFFFFED8BFFFFFFFFFFFFFF53
:10487000FFFFFF0000000FFFF0000FF0000000FF3F
:10488000FFFFFFFFFFFFFFFFFFFFFFFFFE05666665
:104890006666BCDDDDDDDEFFFFFFFFDD8CFFFFFFB9
:1048A000FFFFFFFFFFFFFF00000000FF00000F0001
:1048B000000000FFFFFFFFFFFFFFFFFFFFFFFFFF05
:1048C000FFE766666666BCDDDDDDDEFFFFFFFFDD60
:1048D0008DFFFFFFFFFFFFFFFFFFFF000000000055
:1048E00000000000000000FFFFFFFFFFFFFFFFFFD1
:1048F000FFFFFFFFFFFA66666666BCDDDDDDDEFFFB
:10490000FFFFFFDD9FFFFFFFFFFFFFFFFFFFFF0038
:104910000000F0000000000F000000FFFFFFFFFF9D
:10492000FFFFFFFFFFFFFFFFFFFD66666666BCDD62
:10493000DDDDDFFFFFFFFFDDAFFFFFFFFFFFFFFF5D
:10494000FFFFFF000000F0000F00000F000000FF5D
:10495000FFFFFFFFFFFFFFFFFFFFFFFFFFFF966669
:104960006666BDDDDDDDDFFFFFFFFFDEDFFFFFFF92
:10497000FFFFFFFFFFFFFF000000F0000F00000F30
:10498000000000FFFFFFFFFFFFFFFFFFFFFFFFFF34
:10499000FFFFD6666666BDDDDDDDDFFFFFFFFFDE04
:1049A000EFFFFFFFFFFFFFFFFFFFFF000000F00032
:1049B0000F00000F000000FFFFFFFFFFFFFFFFFFE2
:1049C000FFFFFFFFFFFFF8666666BDDDDDDCEFFF82
:1049D000FFFFFFDFFFFFFFFFFFFFFFFFFFFFFF0006
:1049E0000000F0000F00000F000000FFFFFFFFFFBE
:1049F000FFFFFFFFFFFFFFFFFFFFFC677666BDDDE8
:104A0000DDDCEFFFFFFFFFDFFFFFFFFFFFFFFFFF2B
:104A1000FFFFFF000000F0000F00000F000000FF8C
:104A2000FFFFFFFFFFFFFFFFFFFFFFFFFFFFFF860F
:104A30007666BCDDDDDCEFFFFFFFFEEFFFFFFFFF73
:104A4000FFFFFFFFFFFFFF000000F0000F00000F5F
:104A5000000000FFFFFFFFFFFFFFFFFFFFFFFFFF63
:104A6000FFFFFFB67666BCDDDDDCEFFFFFFFFDFF7D
:104A7000FFFFFFFFFFFFFFFFFFFFFF000000F00051
:104A80000F00000F000000FFFFFFFFFFFFFFFFFF11
:104A9000FFFFFFFFFFFFFFE77667CCDDDDDDEFFF08
:104AA000FFFFFDFFFFFFFFFFFFFFFFFFFFFFFF0017
:104AB0000000FFFFFFFFFFFF000000FFFFFFFFFF01
:104AC000FFFFFFFFFFFFFFFFFFFFFFF96668BCDD91
:104AD000DDDDEFFFFFFFEEFFFFFFFFFFFFFFFFFF4B
:104AE000FFFFFF000000FFFFFFFFFFFF000000FFD0
:104AF000FFFFFFFFFFFFFFFFFFFFFFFFFFFFFFFBCA
:104B0000676ACDDDDDDDEFFFFFFFDFFFFFFFFFFFAA
:104B1000FFFFFFFFFFFFFF000000000FFFFFF0009F
:104B2000000000FFFFFFFFFFFFFFFFFFFFFFFFFF92
:104B3000FFFFFFFE766CCDDDDDCEEFFFFFFFDFFF79
:104B4000FFFFFFFFFFFFFFFFFFFFFF00000000FF71
:104B5000FFFFFF00000000FFFFFFFFFFFFFFFFFF61
:104B6000FFFFFFFFFFFFFFFF868CCDDDDCCEEFFFF9
:104B7000FFFEEFFFFFFFFFFFFFFFFFFFFFFFFF0055
:104B800000000FF000000FF0000000FFFFFFFFFF2C
:104B9000FFFFFFFFFFFFFFFFFFFFFFFFB6ACDDDD05
:104BA000DCCEFFFFFFFDFFFFFFFFFFFFFFFFFFFF6B
:104BB000FFFFFF000000FF00000000FF000000FFFB
:104BC000FFFFFFFFFFFFFFFFFFFFFFFFFFFFFFFFF5
:104BD000E7CCDDDDDCDEFFFFFFEEFFFFFFFFFFFFC9
:104BE000FFFFFFFFFFFFFF000000F0000000000FCD
:104BF000000000FFFFFFFFFFFFFFFFFFFFFFFFFFC2
:104C0000FFFFFFFFFACCDDDDDCDEFFFFFFDFFFFF94
:104C1000FFFFFFFFFFFFFFFFFFFFFF000000F000AF
:104C20000000000F000000FFFFFFFFFFFFFFFFFF7E
:104C3000FFFFFFFFFFFFFFFFFCCCDDDDDCEEFFFF32
:104C4000FDEFFFFFFFFFFFFFFFFFFFFFFFFFFF0085
:104C50000000F0000000000F000000FFFFFFFFFF5A
:104C6000FFFFFFFFFFFFFFFFFFFFFFFFFFCCCDDDDB
:104C7000DCEFFFFFEEFFFFFFFFFFFFFFFFFFFFFF88
:104C8000FFFFFF000000FF00000000FF000000FF2A
:104C9000FFFFFFFFFFFFFFFFFFFFFFFFFFFFFFFF24
:104CA000FFFCCCCDCCEFFFEDEFFFFFFFFFFFFFFFE1
:104CB000FFFFFFFFFFFFFF0000000FF000000FF0FD
:104CC000000000FFFFFFFFFFFFFFFFFFFFFFFFFFF1
:104CD000FFFFFFFFFFFFCCCCCCEFFEEFFFFFFFFF9E
:104CE000FFFFFFFFFFFFFFFFFFFFFF00000000FFD0
:104CF000FFFFFF00000000FFFFFFFFFFFFFFFFFFC0
:104D0000FFFFFFFFFFFFFFFFFFFFFFCCCDEDDFFF4A
:104D1000FFFFFFFFFFFFFFFFFFFFFFFFFFFFFF00A2
:104D20000000000FFFFFF000000000FFFFFFFFFF8B
:104D3000FFFFFFFFFFFFFFFFFFFFFFFFFFFFFFFF83
:104D4000DDEFFFFFFFFFFFFFFFFFFFFFFFFFFFFFA5
:104D5000FFFFFF000000000000000000000000FF57
:104D6000FFFFFFFFFFFFFFFFFFFFFFFFFFFFFFFF53
:104D7000FFFFFFFFFFFFFFFFFFFFFFFFFFFFFFFF43
:104D8000FFFFFFFFFFFFFF000000FFFFFFFFFFFF30
:104D9000000000FFFFFFFFFFFFFFFFFFFFFFFFFF20
:104DA000FFFFFFFFFFFFFFFFFFFFFFFFFFFFFFFF13
:104DB000FFFFFFFFFFFFFFFFFFFFFF000000FFFF00
:104DC000FFFFFFFF000000FFFFFFFFFFFFFFFFFFF0
:104DD000FFFFFFFFFFFFFFFFFFFFFFFFFFFFFFFFE3
:104DE000FFFFFFFFFFFFFFFFFFFFFFFFFFFFFF00D2
:104DF000000000000F000000000000FFFFFFFFFFA9
:104E0000FFFFFFFFFFFFFFFFFFFFFFFFFFFFFFFFB2
:104E1000FFFFFFFFFFFFFFFFFFFFFFFFFFFFFFFFA2
:104E2000FFFFFF00000000000F000000000000FF77
:104E3000FFFFFFFFFFFFFFFFFFFFFFFFFFFFFFFF82
:104E4000FFFFFFFFFFFFFFFFFFFFFFFFFFFFFFFF72
:104E5000FFFFFFFFFFFFFF00000000000F0000004A
:104E6000000000FFFFFFFFFFFFFFFFFFFFFFFFFF4F
:104E7000FFFFFFFFFFFFFFFFFFFFFFFFFFFFFFFF42
:104E8000FFFFFFFFFFFFFFFFFFFFFF00000000002D
:104E90000F000000000000FFFFFFFFFFFFFFFFFF0C
:104EA000FFFFFFFFFFFFFFFFFFFFFFFFFFFFFFFF12
:104EB000FFFFFFFFFFFFFFFFFFFFFFFFFFFFFF0001
:104EC000000000000F000000000000FFFFFFFFFFD8
:104ED000FFFFFFFFFFFFFFFFFFFFFFFFFFFFFFFFE2
:104EE000FFFFFFFFFFFFFFFFFFFFFFFFFFFFFFFFD2
:104EF000FFFFFF00000000000F000000000000FFA7
:104F0000FFFFFFFFFFFFFFFFFFFFFFFFFFFFFFFFB1
:104F1000FFFFFFFFFFFFFFFFFFFFFFFFFFFFFFFFA1
:104F2000FFFFFFFFFFFFFF000000FFFFFFFFFFFF8E
:104F3000000000FFFFFFFFFFFFFFFFFFFFFFFFFF7E
:104F4000FFFC733359EFFFFFFFFFFFFFFFFFFFFF82
:104F5000FFFFFFFFFFFFFFFFFFFFFF000000FFFF5E
:104F6000FFFFFFFF000000FFFFFFFFFFFFFFFFFE4F
:104F7000BBBFFFFFFD3000000007FFFFFFFFFFFF8B
:104F8000FFFFFFFFFFFFFFFFFFFFFFFFFFFFFF0030
:104F9000000000F0000FFF00000000FFFFFFFFFF18
:104FA000FFFFFB3000007EFFC000000000002EFF6E
:104FB000FFFFFFFFFFFFFFFFFFFFFFFFFFFFFFFF01
:104FC000FFFFFF0000000FF000FFFFF0000000FFF8
:104FD000FFFFFFFFFFFF6000000002EF2000000066
:104FE000000002EFFFFFFFFFFFFFFFFFFFFFFFFFDC
:104FF000FFFFFFFFFFFFFF000000FF0000F000FFCA
:10500000000000FFFFFFFFFFFFF600000000003A76
:10501000000016775000006FFFFFFFFFFFFFFFFF4C
:10502000FFFFFFFFFFFFFFFFFFFFFF000000F0009B
:1050300000F0000F000000FFFFFFFFFFFFB00000C7
:10504000231000010008FFFFFE50000DFFFFFFFFCF
:10505000FFFFFFFFFFFFFFFFFFFFFFFFFFFFFF005F
:105060000000F0000FF0000F000000FFFFFFFFFF47
:10507000FF30004DFFFB0000009FFFFFFFF5000524
:10508000FFFFFFFFFFFFFFFFFFFFFFFFFFFFFFFF30
:10509000FFFFFF000000F0000F00000F000000FF06
:1050A000FFFFFFFFFD0004FFFFFFC00003FFFFFF46
:1050B000FFFF1001FFFFFFFFFFFFFFFFFFFFFFFFED
:1050C000FFFFFFFFFFFFFF000000F0000F00000FD9
:1050D000000000FFFFFFFFFFFA000DFFFFFFF500DC
:1050E00009FFFFFFFFFF9000EFFFFFFFFFFF0FFF34
:1050F000FFFFFFFFFFFFFFFFFFFFFF000000FF00BC
:10510000FF0000FF000000FFFFFFFFFFF7002FFF81
:10511000FFFFFC000BFFFFFFFFFFC000BFFFFFFF13
:10512000FFFFF00FFFFFFFFFFFFFFFFFFFFFFF008D
:1051300000000FFFF0000FF0000000FFFFFFFFFF77
:10514000F7003FFFFFFFFF000BFFFFFFFFFFF00037
:10515000BFFFFFFFFFFFFFF0FFFFFFFFFFFFFFFFAE
:10516000FFFFFF00000000FF00000F00000000FF35
:10517000FFFFFFFFF7002FFFFFFFFF000AFFFFFF0A
:10518000FFFFB000BFFFFFFFFFFFFFFF00000FFFAB
:10519000FFFFFFFFFFFFFF00000000000000000016
:1051A000000000FFFFFFFFFFF9000DFFFFFFFF778B
:1051B00039FFFFFFFFFF7000FFFFFFFFFFFFFFF062
:1051C000FFFFFFFFFFFFFFFFFFFFFF0000000000EA
:1051D00000000000000000FFFFFFFFFFFD0003FFD5
:1051E000FFFFFFFFFFFFFFFFFFFD0002FFFFFFFFCD
:1051F000FFFFF00FFFFFFFFFFFFFFFFFFFFFFF00BD
:105200000000000000000000000000FFFFFFFFFFA3
:10521000FF20004EFFFFFFFFFFFFFFFFFFC2000860
:10522000FFFFFFFFFFFF0FFFFFF00FFFFFFFFFFF7D
:10523000FFFFFF000000000000000000000000FF72
:10524000FFFFFFFFFFB0000059FFFFFFFFFFFFFF61
:10525000A500000EFFFFFFFFFFFFFFFF000FFFFF96
:10526000FFFFFFFFFFFFFF00000000F0000FFF0047
:10527000000000FFFFFFFFFFFFF5000000FFFFFF42
:10528000FFFFFFF0000000AFFFFFFFFFFFFFF00098
:10529000F0FFFFFFFFFFFFFFFFFFFF0000000FF029
:1052A00000FFFFF0000000FFFFFFFFFFFFFF5000C7
:1052B00002FFFFFFFFFFFFF3000009FFFFFFFFFFFB
:1052C000FFFF0FFFF0FFFFFFFFFFFFFFFFFFFF00EC
:1052D0000000FF0000F000FF000000FFFFFFFFFFE5
:1052E000FFFFFA1004FFFFFFFFFFFFF40001AFFF15
:1052F000FFFFFFFFFFFFF000F0FFFFFFFFFFFFFFDB
:10530000FFFFFF000000F00000F0000F000000FFB2
:10531000FFFFFFFFFFFFFFFC79FFFFFFFFFFFFF72E
:10532000049EFFFFFFFFFFFFFFFFFFFF000F0FFFC8
:10533000FFFFFFFFFFFFFF000000F0000FF0000F76
:10534000000000FFFFFFFFFFFFFFFFFFFFFFFFFF6A
:10535000FFFFFFFFFFFFFFFFFFFFFFFFFFFFFFFF5D
:10536000FFF00FFFFFFFFFFFFFFFFF000000F00057
:105370000F00000F000000FFFFFFFFFFFFFFFFFF18
:10538000FFFFFFFFFFFFFFFFFFFFFFFFFFFFFFFF2D
:10539000FFFFFFFFFFFF0FFFFFFFFFFFFFFFFF000C
:1053A0000000F0000F00000F000000FFFFFFFFFFF4
:1053B000FFFFFFFFFFFFFFFFFFFFFFFFFFFFFFFFFD
:1053C000FFFFFFFFFFFFFFFFFFFF0FFFFFFFFFFFDD
:1053D000FFFFFF000000FF00FF0000FF000000FFD4
:1053E000FFFFFFFFFFFFFFFFFFFFFFFFFFFFFFFFCD
:1053F000FFFFFFFFFFFFFFFFFFFFFFFFFFFF0FFFAD
:10540000FFFFFFFFFFFFFF0000000FFFF0000FF0A6
:10541000000000FFFFFFFFFFFFFFFFFFFFFFFFFF99
:10542000FFFFFFFFFFFFFFFFFFFFFFFFFFFF00008A
:1054300000000FFFFFFFFFFFFFFFFF000000F0FF76
:1054400000000F00000000FFFFFFFFFFF70000005B
:10545000000000000000000000000003FFFFFFFF4D
:10546000FFFFFFFFFFFFFFFFFFFFFFFFFFFFFF004B
:105470000000F00000000000000000FFFFFFFFFF41
:10548000F700000000000000000000000000000322
:10549000FFFFFFFFFFFFF000FFFFFFFFFFFFFFFF2A
:1054A000FFFFFF000000F00000000000000000FF10
:1054B000FFFFFFFFF90000000000000000000000F7
:1054C00000000003FFFFFFFFFFFF0FFF0FFFFFFFC5
:1054D000FFFFFFFFFFFFFF000000F00000000000E3
:1054E000000000FFFFFFFFFFFFB100000000000011
:1054F0000000000000000003FFFFFFFFFFFF0FFFA1
:105500000FFFFFFFFFFFFFFFFFFFFF000000FFFF98
:10551000FFFFFFFF000000FFFFFFFFFFFFFE200077
:105520000DFFFFFFFFFFFFFFFFFFFFFFFFFFFFFF7D
:10553000FFFF0FFF0FFFFFFFFFFFFFFFFFFFFF005A
:105540000000FFFFFFFFFFFF000000FFFFFFFFFF66
:10555000FFFFE20002FFFFFFFFFFFFFFFFFFFFFF74
:10556000FFFFFFFFFFFF0FFF0FFFFFFFFFFFFFFF2B
:10557000FFFFFF000000F00000000000000000FF3F
:10558000FFFFFFFFFFFFFE00007FFFFFFFFFFFFFAA
:10559000FFFFFFFFFFFFFFFFFFFF000000000FFF07
:1055A000FFFFFFFFFFFFFF000000F0000000000012
:1055B000000000FFFFFFFFFFFFFFFFB0000DFFFF38
:1055C000FFFFFFFFFFFFFFFFFFFFFFFFFFFFFFFFEB
:1055D000FFFFFFFFFFFFFFFFFFFFFF000000F000E6
:1055E00000000000000000FFFFFFFFFFFFFFFFF6CD
:1055F0000005FFFFFFFFFFFFFFFFFFFFFFFFFFFFB4
:10560000FFFFF00FF000FFFFFFFFFFFFFFFFFF00B6
:105610000000F00000000000000000FFFFFFFFFF9F
:10562000FFFFFFFE1000DFFFFFFFFFFFFFFFFFFF99
:10563000FFFFFFFFFFFF0FFF0FFF0FFFFFFFFFFF4A
:10564000FFFFFF00000000FFF000000F000000FF60
:10565000FFFFFFFFFFFFFFFF90006FFFFFFFFFFF58
:10566000FFFFFFFFFFFFFFFFFFFF0FFF0FFF0FFF1A
:10567000FFFFFFFFFFFFFF0000000FFFFF0000FF25
:10568000000000FFFFFFFFFFFFFFFFFFFBBBCFFF9F
:10569000FFFFFFFFFFFFFFFFFFFFFFFFFFFF0FFF0A
:1056A0000FFF0FFFFFFFFFFFFFFFFF000000FF00E6
:1056B0000FF0FFF0000000FFFFFFFFFFFFFFFFFF05
:1056C000FFFFFFFFFFFFFFFFFFFFFFFFFFFFFFFFEA
:1056D000FFFF0FFF0FFF0FFFFFFFFFFFFFFFFF00A9
:1056E0000000F00000FFFF00000000FFFFFFFFFFD1
:1056F000FFFFFFFFFFFFFFFFFFFFFFFFFFFFFFFFBA
:10570000FFFFFFFFFFFFF000FF00FFFFFFFFFFFFB6
:10571000FFFFFF000000F00000FF0000000000FF9E
:10572000FFFFFFFFFFFFFFFFFFFFFFFFFFFFFFFF89
:10573000FFFFFFFFFFFFFFFFFFFFFFFFFFFFFFFF79
:10574000FFFFFFFFFFFFFF000000F00000F0000080
:10575000000000FFFFFFFFFFFFFFFFFFFFFFFFFF56
:10576000FFFFFFFFFFF30003FFFFFFFFFFFF00004E
:1057700000000FFFFFFFFFFFFFFFFF000000F00032
:1057800000F00000000000FFFFFFFFFFFFFFFFFF32
:10579000FFFFFFFFFFFFFFFFFFF30003FFFFFFFF20
:1057A000FFFFFFFFFFFFFFFFFFFFFFFFFFFFFF0008
:1057B0000000F00000F00000000000FFFFFFFFFF0E
:1057C000FFFFFFFFFFFFFFFFFFFFFFFFFFF30003F0
:1057D000FFFFFFFFFFFFFF00000FFFFFFFFFFFFFC7
:1057E000FFFFFF000000FFFFFFFFFFFF000000FFC3
:1057F000FFFFFFFFFFFFFFFFFFFFFFFFFFFFFFFFB9
:10580000FFF30003FFFFFFFFFFFFF0FFFFF0FFFFCD
:10581000FFFFFFFFFFFFFF000000FFFFFFFFFFFF95
:10582000000000FFFFFFFFFFFFFFFFFFFFFFFFFF85
:10583000FFFFFFFFFFF97779FFFFFFFFFFFF0FFF7C
:10584000FFFF0FFFFFFFFFFFFFFFFF000000000F44
:10585000FFFFF000000000FFFFFFFFFFFFFFFFFF63
:10586000FFFFFFFFFFFFFFFFFFFFFFFFFFFFFFFF48
:10587000FFFF0FFFFFFF0FFFFFFFFFFFFFFFFF0017
:10588000000000FFFFFFFF00000000FFFFFFFFFF21
:10589000FFFFFF9400015BFFFFFFFFFFFFFF00031F
:1058A000FFFFFFFFFFFF0FFFFFFF0FFFFFFFFFFFE8
:1058B000FFFFFF0000000FF000000FF0000000FFEE
:1058C000FFFFFFFFFFFFC2000000003CFFFFFFFFE4
:1058D000FFFF0003FFFFFFFFFFFF0FFFFFFF0FFFB3
:1058E000FFFFFFFFFFFFFF000000FF00000000FFC1
:1058F000000000FFFFFFFFFFFFFC000000000000B2
:105900009FFFFFFFFFFF0003FFFFFFFFFFFF000000
:1059100000000FFFFFFFFFFFFFFFFF000000F00090
:105920000000000F000000FFFFFFFFFFFFE100008D
:105930000000000006FFFFFFFFFF0003FFFFFFFF67
:10594000FFFFFFFFFFFFFFFFFFFFFFFFFFFFFF0066
:105950000000F0000000000F000000FFFFFFFFFF4D
:10596000FF700005BFE93000005FFFFFFFFF00038D
:10597000FFFFFFFFFFFFFFFFFFFFFFFFFFFFFFFF37
:10598000FFFFFF000000F0000000000F000000FF1C
:10599000FFFFFFFFFF00009FFFFFFA000007FFFF70
:1059A000FFFF0003FFFFFFFFFFFFFF00000FFFFFF0
:1059B000FFFFFFFFFFFFFF000000FF00000000FFF0
:1059C000000000FFFFFFFFFFFB0006FFFFFFFFD20D
:1059D00000009FFFFFFF0003FFFFFFFFFFFFF0FF3F
:1059E000FFF0FFFFFFFFFFFFFFFFFF0000000FF0D2
:1059F00000000FF0000000FFFFFFFFFFF8000DFFA9
:105A0000FFFFFFFE20000AFFFFFF0003FFFFFFFF75
:105A1000FFFF0FFFFFFF0FFFFFFFFFFFFFFFFF0075
:105A2000000000FFFFFFFF00000000FFFFFFFFFF7F
:105A3000F7002FFFFFFFFFFFE20000CFFFFF000393
:105A4000FFFFFFFFFFFF0FFFFFFF0FFFFFFFFFFF46
:105A5000FFFFFF000000000FFFFFF000000000FF4D
:105A6000FFFFFFFFF7003FFFFFFFFFFFFE00000EFD
:105A7000FFFF0003FFFFFFFFFFFF0FFFFFFF0FFF11
:105A8000FFFFFFFFFFFFFF00000000FFF00000002E
:105A9000000000FFFFFFFFFFF7002FFFFFFFFFFFEA
:105AA000FFC00002EFFF0003FFFFFFFFFFFF0FFF3C
:105AB000FFFF0FFFFFFFFFFFFFFFFF0000000FFFD3
:105AC000FF000000000000FFFFFFFFFFF8000EFFD7
:105AD000FFFFFFFFFFFA00004FFF0003FFFFFFFF84
