:020000040800F2
:10000000281B00204D0900082105000823050008D1
:10001000270500082B0500082F0500080000000038
:100020000000000000000000000000003305000890
:1000300035050008000000003705000839050008F4
:1000400067090008670900086709000867090008D0
:1000500067090008670900086709000867090008C0
:1000600067090008670900086709000867090008B0
:1000700067090008670900086709000867090008A0
:100080006709000867090008670900086709000890
:100090006709000867090008670900086709000880
:1000A0006709000867090008670900086709000870
:1000B0006709000867090008670900086709000860
:1000C0006709000867090008670900086709000850
:1000D00067090008C10800086709000867090008E7
:1000E0006709000867090008670900086709000830
:1000F0006709000867090008670900086709000820
:10010000670900086709000867090008670900080F
:1001100067090008670900086709000867090008FF
:1001200067090008670900086709000867090008EF
:1001300000F002F800F03AF80AA090E8000C8244BF
:100140008344AAF10107DA4501D100F02FF8AFF29C
:10015000090EBAE80F0013F0010F18BFFB1A43F0A5
:100160000103184788A80000A8A80000103A24BF7F
:1001700078C878C1FAD8520724BF30C830C144BF0C
:1001800004680C607047000000230024002500264E
:10019000103A28BF78C1FBD8520728BF30C148BFEA
:1001A0000B6070471FB51FBD10B510BD02F02EFBD0
:1001B0001146FFF7F7FF00F009F802F04CFB03B41B
:1001C000FFF7F2FF03BC00F021FB00000EB500F0CA
:1001D000A3FA00F015FB01F001FC79E101F021FA2E
:1001E00001F086FA01F071FA022000F0F4FA01F051
:1001F00018FA0022B749084601F0A9FA01F065FA99
:10020000022000F0E8FA01F00CFA0122B249084697
:1002100001F09DFA01F059FA022000F0DCFA01F039
:1002200000FA0122AD49084601F091FA01F04DFAB9
:10023000022000F0D0FA01F0F4F90222A7490846A2
:1002400001F085FA0322A549084601F080FA01F081
:10025000E8F90020A2490A464023CDE90021029096
:100260000246202101F04AFB01209E499C4A40237E
:10027000CDE90021029000222021104601F03EFB32
:1002800001209949974A4023CDE90021029000229C
:100290002021104601F032FB01209449924A40236C
:1002A000CDE90021029000222021104601F026FB1A
:1002B00001208F498D4A4023CDE900210290002280
:1002C0002021104601F01AFB01F0ABF901F010FA01
:1002D00001F0FBF9022000F07EFAFF204FF4877353
:1002E000C82211460090834801F020FC814801F0AB
:1002F0005AFC01F096F9FF2001F010FD01200346A1
:1003000000220A210090052001F03DFD012002237A
:10031000002219210090052001F035FD0120032362
:10032000002228210090052001F02DFD012004234A
:10033000002237210090052001F025FD0120002139
:1003400000913C234622CDE901100A21142001F03E
:100350006CFD0120002100913C231422CDE9011005
:100360000A21462001F061FD0120002100913C237B
:100370004622CDE901100A21142001F0D4FD01200C
:100380000022CDE900203C2382220A210290552040
:1003900001F0C9FD012000210B461922CDE9001012
:1003A00078211E2001F018FE012000900023192260
:1003B00078210190642001F00FFE00224D4908468B
:1003C00001F0C5F901F081F9022000F004FA01F012
:1003D00028F9FF2001F0A2FC0020FF21464B47A294
:1003E000CDE90010014601F077FF0020FF21474BC7
:1003F00042A2CDE900100A2101F06EFF0020FF218A
:10040000434B3EA2CDE90010192101F065FF002009
:10041000FF21404B39A2CDE900102D2101F05CFFF6
:100420000020FF213C4B35A2CDE90010502101F006
:1004300053FF304801F0C3F801F047F9022000F003
:10044000CAF901F0EEF8FF2001F068FC0020FF215E
:10045000294B324ACDE90010014602F083F8002012
:10046000FF212A4B2D4ACDE900100A2102F07AF82B
:100470000020FF21264B294ACDE90010192102F066
:1004800071F80020FF21234B244ACDE900102D21D3
:1004900002F068F80020FF211F4B204ACDE9001030
:1004A000462102F05FF800221249084601F04FF998
:1004B00001F00BF9022000F08EF901F0B2F801F022
:1004C00017F901F002F9022000F085F900BFFEE7FC
:1004D00084E600006C310008F44400087C580008F1
:1004E0006C2800086C2900086C2A00086C2B000896
:1004F0006C2C00085C00002034000020476F6F6403
:1005000020446973706C6179000000003C00002099
:10051000440000204C0000205400002015CD5B0753
:10052000704700BFFEE700BFFEE700BFFEE700BF69
:10053000FEE7704770477047704700000CB5002019
:10054000019000906B48006840F480306949086071
:1005500000BF6848006800F4003000900198401C1B
:100560000190009818B90198B0F5A06FF1D16148D9
:10057000006810F4003F02D00120009001E000204C
:1005800000900098012842D15B48006840F01000BC
:10059000594908600846006820F0030008600846D2
:1005A000006840F0020008605248406851494860C5
:1005B0000846406848600846406840F480604860EB
:1005C0000846406820F47C1048600846406840F4C3
:1005D000E81048600846006840F08070086000BF7E
:1005E0004448006810F0007FFAD04248406820F08C
:1005F0000300404948600846406840F002004860F7
:1006000000BF3C48406800F00C000828F9D10CBD40
:1006100010B5FFF793FF10BD10B53648006840F0E5
:1006200001003449086008464068344908403149AF
:10063000486008460068324908402E49086008466C
:10064000006820F4802008600846406820F4FE001E
:1006500048604FF41F008860FFF7DAFF4FF000603A
:100660002849086010BD10B5002100200022214B50
:100670005B6803F00C0121B1042906D0082928D1B8
:1006800007E0214B214C236027E01F4B1F4C2360C8
:1006900023E0184B5B6803F47010164B5B6803F49F
:1006A0008032022303EB904022B9194B4343174C8D
:1006B00023600DE00F4B5B6813F4003F04D0144B34
:1006C0004343124C236003E00F4B43430F4C236022
:1006D00003E00D4B0D4C236000BF00BF054B5B6872
:1006E000C3F303130B4CE15C084B1B68CB40074C76
:1006F000236010BD00100240002002400000FFF8FF
:10070000FFFFF6FE08ED00E000127A000000002076
:1007100000093D000400002010B56FF0040000F057
:1007200085F9334800683349B0FBF1F0324908706D
:100730000846007800EB4001C1EBC0104FF6FF7196
:1007400001EAC0002D49088010BD01462A4A1278EE
:100750004A434FF0E0235A6100229A611A46126917
:1007600042F001021A6100BF4FF0E022106910F060
:10077000010F02D010F4803FF6D04FF0E022126952
:1007800022F001024FF0E0231A6100229A617047C3
:1007900001461A4A12884A434FF0E0235A61002268
:1007A0009A611A46126942F001021A6100BF4FF0C5
:1007B000E022106910F0010F02D010F4803FF6D053
:1007C0004FF0E022126922F001024FF0E0231A619B
:1007D00000229A61704730B50446002505E04FF4C9
:1007E0007A70FFF7D5FF681C85B2A542F7DB30BDF4
:1007F0000000002000127A001400002016000020E3
:1008000010B54FF4A06000F0C1F810BD014600BF64
:10081000704700BF494A128812F0400FFAD0C2B2A6
:10082000464B1B1D1A80704710B586B00446012147
:1008300044F2050000F02EFC4FF40070ADF81400F7
:1008400003208DF8160018208DF8170005A93C48E4
:1008500000F06AF94FF48060ADF8140004208DF8C0
:10086000170005A9364800F05FF925208DF8000033
:1008700003208DF801008DF8020001208DF803009F
:10088000684600F088F801940020ADF80800ADF843
:100890000A00ADF80C00ADF810000C20ADF80E0009
:1008A00001A9264800F0A1FC012240F2255123486D
:1008B00000F033FD0121214800F023FD06B010BDFA
:1008C00010B540F225511D4800F00CFE10B31B4836
:1008D00000F088FDC4B21B48008810F4004F2BD1F3
:1008E0001848008810F4804F0CD00A2C03D0002048
:1008F0001449088020E01348008840F40040114962
:10090000088019E00D2C06D10E48008840F4804084
:100910000C49088010E00B480088C0F30D000A491C
:100920000C5408480088401C064908800846008886
:10093000C72801DD0020088010BD000000380140FC
:100940000008014018000020E413002009488047F7
:1009500009480047FEE7FEE7FEE7FEE7FEE7FEE7A1
:10096000FEE7FEE7FEE7FEE704480549054A064BB9
:100970007047000019060008310100082815002002
:10098000281B002028170020281700203149014388
:10099000314A1160704770B5002100230F22C478DE
:1009A0000CB32D4C246804F4E064C4F5E064210A1F
:1009B000C1F10403CA40447804FA03F18478144076
:1009C00021430901254C0678A155047804F01F0540
:1009D0000124AC4005786D114FF0E02606EB85054B
:1009E000C5F8004109E0047804F01F050124AC407B
:1009F0001B4D0678761145F8264070BD194A0A400D
:100A00000243154B1B1F1A60704739B1124A121D61
:100A100012680243104B1B1D1A6006E00E4A121D9D
:100A2000126882430C4B1B1D1A607047042808D1C2
:100A30004FF0E021096941F004014FF0E02211611B
:100A400007E04FF0E021096921F004014FF0E022B6
:100A5000116170470000FA050CED00E000E400E0D1
:100A600080E100E080FFFF1F10B50446CA488442C1
:100A700008D10121042000F027FB0021042000F010
:100A800023FB46E0C548844208D10121082000F03C
:100A90001BFB0021082000F017FB3AE0C04884420D
:100AA00008D10121102000F00FFB0021102000F0E0
:100AB0000BFB2EE0BB48844208D10121202000F02E
:100AC00003FB0021202000F0FFFA22E0B648844218
:100AD00008D10121402000F0F7FA0021402000F069
:100AE000F3FA16E0B148844208D10121802000F0D9
:100AF000EBFA0021802000F0E7FA0AE0AC488442DB
:100B000007D10121801500F0DFFA0021A01500F0C7
:100B1000DBFA10BD10B50121084600F0D5FA00211E
:100B2000012000F0D1FA10BD2DE9F0410246002568
:100B30000026002000230024002791F803C00CF0B9
:100B40000F0591F803C01CF0100F03D091F802C0FC
:100B50004CEA050591F800C0BCF1000F31D01468D3
:100B600000202BE04FF0010C0CFA00F3B1F800C0AC
:100B70000CEA03069E4220D183004FF00F0C0CFAC2
:100B800003F7BC4305FA03FC4CEA040491F803C0E4
:100B9000BCF1280F06D14FF0010C0CFA00FCC2F892
:100BA00014C00AE091F803C0BCF1480F05D14FF022
:100BB000010C0CFA00FCC2F810C0401C0828D1D36C
:100BC0001460B1F800C0BCF1FF0F34DD54680020A0
:100BD0002EE000F1080C4FF0010808FA0CF3B1F810
:100BE00000C00CEA03069E4221D183004FF00F0C97
:100BF0000CFA03F7BC4305FA03FC4CEA040491F831
:100C000003C0BCF1280F05D100F1080C08FA0CF85C
:100C1000C2F8148091F803C0BCF1480F07D100F16D
:100C2000080C4FF0010808FA0CF8C2F81080401CBC
:100C30000828CED35460BDE8F0814FF6FF710180E3
:100C4000022181700421C170704702460020936820
:100C50000B4201D0012000E0002070470146886867
:100C600080B2704702460020D3680B4201D00120B9
:100C700000E0002070470146C86880B270470161FB
:100C80007047416170470AB1016100E041617047FE
:100C9000C16070474FF480320A4382618161826192
:100CA00082698269704702460020424B18684FF6FD
:100CB0008073184040EA021008433E4B18607047AA
:100CC0003D49C8617047F0B50A4600230024002161
:100CD000002500F00046B6F1004F02D1354EF16913
:100CE00001E0344E7168C0F3034583B200F440164E
:100CF000B6F5401F08D121F070612E4E766826F0BF
:100D000070662C4F7E6012E000F48016B6F5801FEE
:100D100006D1032606FA05F4A14341F0706106E00E
:100D2000460D360103FA06F6B14341F0706122B177
:100D3000460D360103FA06F6314300F00046B6F1DF
:100D4000004F02D11B4EF16101E01A4E7160F0BDFF
:100D500030B500228B071C0F0F2303FA04F2154B4A
:100D600008338C1053F824309343124C08348D1000
:100D700044F8253023468C1053F824308C07240F78
:100D800000FA04F423430B4C08348D1044F825304A
:100D900030BD0A490860704700080140000C01405E
:100DA000001001400014014000180140001C0140E7
:100DB000002001400000014000002042DC002042F1
:100DC000DD48006840F00100DB49086008464068E3
:100DD000DA490840D849486008460068D8490840C0
:100DE000D54908600846006820F48020086008465D
:100DF000406820F4FE0048604FF41F008860704790
:100E0000CD49096821F48031CB4A11601146096847
:100E100021F480211160B0F5803F03D0B0F5802F20
:100E20000ED106E0C449096841F48031C24A11601C
:100E300007E0C149096841F4A021BF4A116000E000
:100E400000BF00BF704710B50146002200230020FC
:100E50004A11012A02D1B84C236806E0022A02D1C5
:100E6000B54C236A01E0B44C636A01F01F0201240F
:100E700094401C4201D0012000E0002010BD38B594
:100E8000002000900024002500BF3120FFF7DBFF89
:100E900005460098401C00900098B0F5A06F01D066
:100EA000002DF2D03120FFF7CEFF08B1012400E081
:100EB0000024204638BD014600209F4A106820F0DB
:100EC000F80040EAC100106070479E490860704712
:100ED00002460020984B586820F47C1042EA010337
:100EE0001843954B5860704796490866704701460D
:100EF0000020914A506820F003000843506070477A
:100F00008D48406800F00C007047014600208A4A76
:100F1000506820F0F0000843506070470146002000
:100F2000854A506820F4E0600843506070470146ED
:100F30000020814A506820F4605040EAC1005060AF
:100F4000704729B17C4A527A02437B4B5A7204E0C3
:100F5000794A527A8243784B5A7270477A490860CC
:100F6000704701460020744A506820F4404008430E
:100F7000506070470021754A11706F4A82F8201046
:100F8000012802D0042808D103E001216F4A117022
:100F900004E005216D4A117000E000BF00BF7047FA
:100FA0006B49086070476449096A0143624A1162EB
:100FB0007047674944390860704730B50021002206
:100FC000002400235C4D6D6805F00C0121B104295B
:100FD00005D0082923D105E05E4D056022E05D4D76
:100FE00005601FE0544D6D6805F47012524D6D6838
:100FF00005F48034022505EB92421CB9564D554349
:1010000005600BE04C4D6D6815F4003F03D0524D68
:101010005543056002E04F4D5543056002E04D4DDC
:10102000056000BF00BF444D6D6805F0F00109097F
:101030004A4D6B5C0568DD4045603F4D6D6805F4C9
:10104000E061090A454D6B5C4568DD4085603A4DBD
:101050006D6805F46051C90A404D6B5C4568DD4020
:10106000C560354D6D6805F44041890B3C4D6B5CA6
:10107000C568B5FBF3F5056130BD29B12E4A52694B
:1010800002432D4B5A6104E02B4A526982432A4B9A
:101090005A61704729B1284A92690243264B9A61E6
:1010A00004E0254A92698243234B9A61704729B133
:1010B000214AD2690243204BDA6104E01E4AD26918
:1010C00082431D4BDA61704729B11B4AD268024343
:1010D000194BDA6004E0184AD2688243164BDA6092
:1010E000704729B1144A12690243134B1A6104E094
:1010F000114A12698243104B1A61704714494039F2
:10110000086070470F49C86470470B49C871704741
:101110000948406A40F080700749486270470146BC
:101120000020054A92680A4201D0012000E0002018
:101130007047014988727047001002400000FFF8B4
:10114000FFFFF6FE00004242D8004242201002405B
:101150008004424200127A0000093D002000002075
:101160003000002010B50446FB48844209D101211B
:101170008803FFF7A9FF00214FF48040FFF7A4FF89
:1011800032E0F648844209D101214804FFF7A9FF63
:1011900000214FF40030FFF7A4FF25E0F04884421F
:1011A00009D101218804FFF79CFF00214FF4802022
:1011B000FFF797FF18E0EB48844209D10121C804EA
:1011C000FFF78FFF00214FF40020FFF78AFF0BE0AD
:1011D000E548844208D101210805FFF782FF00217C
:1011E0004FF48010FFF77DFF10BD2DE9F04786B06A
:1011F00005460E460024A24600BFA1460027B0893E
:1012000000B100BF2F462C8A4CF6FF700440F088D6
:1012100004432C82AC894EF6F3100440B088318927
:101220000843718908430443AC81AC8A4FF6FF4000
:101230000440B0890443AC8201A8FFF7BEFEC64853
:10124000874202D1DDF810A001E0DDF80CA0A889EA
:1012500010F4004F08D00AEBCA0000EB0A10316806
:101260004900B0FBF1F807E00AEBCA0000EB0A10F6
:1012700031688900B0FBF1F86420B8FBF0F004019C
:101280002009642101FB1089A88910F4004F08D0BF
:10129000322000EBC900B0FBF1F000F0070004437E
:1012A00008E0322000EB09106421B0FBF1F000F0FF
:1012B0000F0004432C8106B0BDE8F0874FF41651AF
:1012C000016000218180C18001810C2141810021C8
:1012D0008181704710B502460020108A4FF2FF034B
:1012E00018400B884C8823438C882343CC882343A5
:1012F0001843108210BD0021018041808180C1808F
:10130000704721B1828942F40052828104E08289CF
:101310004DF6FF731A4082817047F0B503460024F2
:10132000002600250020A1F510676A3F00D100BF0C
:101330001846C1F3421401F01F06012707FA06F50B
:10134000012C01D10C3004E0022C01D1103000E05E
:1013500014301AB107682F43076002E00768AF43F3
:101360000760F0BD1AB1838A0B43838202E0838A4F
:101370008B4383827047028A4FF6F0731A400282D1
:10138000028A0A430282704782894FF2FF731A4031
:10139000828182890A438281704721B1828942F029
:1013A0000202828104E082894FF6FD731A40828135
:1013B0007047028A4FF6DF731A400282028A0A439C
:1013C0000282704721B1028A42F48042028204E024
:1013D000028A4BF6FF731A4002827047C1F308027B
:1013E0008280704701468888C0F308007047818971
:1013F00041F0010181817047028BD2B20283028BDE
:1014000042EA012202837047028B02F47F42028388
:10141000028B0A430283704721B1828A42F0200284
:10142000828204E0828A4FF6DF731A40828270471C
:1014300021B1828A42F01002828204E0828A4FF651
:10144000EF731A408282704721B1828A42F008020B
:10145000828204E0828A4FF6F7731A4082827047D4
:1014600021B1828942F40042828103E08289C2F381
:101470000E028281704721B1828A42F40062828228
:1014800004E0828A4FF2FF731A4082827047828A98
:101490004FF6FB731A408282828A0A438282704727
:1014A00021B1828A42F00202828204E0828A4FF6EF
:1014B000FD731A408282704702460020B1F5007F1A
:1014C00000D100BF13880B4201D0012000E00020B2
:1014D000704701F40072B2F5007F00D100BFCA432B
:1014E0000280704770B502460024002300250020CA
:1014F000A1F510666A3E00D100BFC1F3421501F0AC
:101500001F03012606FA03F3012D02D19689334009
:1015100006E0022D02D1168A334001E0968A33405C
:101520000C12012606FA04F41688344013B10CB1EB
:10153000012000E0002070BD10B500220023A1F5BD
:1015400010646A3C00D100BF0A1201249440A3B287
:10155000DC43048010BD000000380140004400401E
:1015600000480040004C00400050004006E042F6B9
:10157000E06100BF0A00A1F10101FBD10200A0F16E
:101580000100F4D1704710B54FF48041FA48FFF7DD
:1015900078FB0A20FFF7EAFF4FF48041F648FFF797
:1015A0006EFB0A20FFF7E2FF10BD10B500BF4FF43D
:1015B0000051F148FFF749FB0028F8D010BD2DE994
:1015C000F041074619264FF0C808102000F07AFABB
:1015D000002508E0002403E0002000F08BFA641CE2
:1015E000B442F9D36D1C4545F4D3132000F06AFAD8
:1015F00000250AE0002405E005FB0641785C00F0C8
:1016000079FA641CB442F7D36D1C4545F2D312201D
:1016100000F058FA0120FFF7A9FFFFF7C6FFBDE869
:10162000F08110B5FFF7AFFF6420FFF79FFF0020A8
:1016300000F048FADF2000F05DFA0E2000F05AFAC0
:101640004D2000F03FFA552000F054FAAA2000F097
:1016500039FA0F2000F04EFAE92000F033FA0220A8
:1016600000F048FAB62000F02DFA112000F042FAFE
:10167000F32000F027FA0A2000F03CFA612000F085
:1016800021FAC82000F036FA002000F033FAC82012
:1016900000F030FA602000F015FA002000F02AFA7D
:1016A000502000F00FFA972000F024FAE32000F019
:1016B00009FA002000F01EFA042000F003FA64206A
:1016C000FFF754FFFFF771FF10BD10B5502000F079
:1016D000F9F9F72000F00EFA022000F0F3F9FFF715
:1016E00064FF072000F0EEF9A52000F003FA10BD1A
:1016F00070B5002528E0102000F0E4F9002403E094
:10170000002000F0F7F9641C41F288308442F7D3DE
:101710000220FFF72BFF132000F0D4F9002403E090
:10172000FF2000F0E7F9641C41F288308442F7D3CF
:101730000220FFF71BFF122000F0C4F96420FFF71E
:1017400015FFFFF732FF6D1C022DD4D370BD2DE9BC
:10175000F04106460F46154605BB102000F0B2F9D1
:10176000002403E0FF2000F0C5F9641C41F288303A
:101770008442F7D30220FFF7F9FE132000F0A2F90C
:10178000002403E0385D00F0B5F9641C41F28830B4
:101790008442F7D30220FFF7E9FE67E0012D20D154
:1017A000102000F08FF9002403E0305D00F0A2F972
:1017B000641C41F288308442F7D30220FFF7D6FE42
:1017C000132000F07FF9002403E0385D00F092F967
:1017D000641C41F288308442F7D30220FFF7C6FE32
:1017E00044E0022D20D1102000F06CF9002403E029
:1017F000305D00F07FF9641C41F288308442F7D3F9
:101800000220FFF7B3FE132000F05CF9002403E090
:10181000FF2000F06FF9641C41F288308442F7D356
:101820000220FFF7A3FE21E0032D1FD1102000F0BE
:1018300049F9002403E0FF2000F05CF9641C41F248
:1018400088308442F7D30220FFF790FE132000F087
:1018500039F9002403E0FF2000F04CF9641C41F248
:1018600088308442F7D30220FFF780FE122000F078
:1018700029F96420FFF77AFEFFF797FEBDE8F081B3
:1018800010B5202000F01EF9002404E03B49085D5B
:1018900000F030F9641C2A2CF8D3212000F012F952
:1018A000002404E03649085D00F024F9641C2A2C69
:1018B000F8D3222000F006F9002404E03149085D45
:1018C00000F018F9641C2A2CF8D3232000F0FAF851
:1018D000002404E02C49085D00F00CF9641C2A2C5B
:1018E000F8D3242000F0EEF8002404E02749085D36
:1018F00000F000F9641C2A2CF8D310BD2DE9F05F2C
:1019000005460E4617469846DDE90AAB002000F072
:10191000D9F8FF2000F0EEF80E2000F0EBF8FFF70A
:10192000AFFF912000F0CEF8902000F0CBF8E8B2A5
:1019300000F0E0F8711EC8B200F0DCF8002000F002
:10194000D9F8F8B200F0D6F8002000F0D3F808F08B
:10195000FF0000F0CFF8012000F0CCF8701BA8EBDE
:10196000070148434FEAD009102000F0ABF80C986B
:10197000A8B9002410E0000000180140046C000821
:101980003C6C0008666C00089E6C0008D66C000871
:10199000FF2000F0AFF8641C4C45F9D308E00024A8
:1019A00004E01AF8040000F0A5F8641C4C45F8D3D4
:1019B000132000F087F8002404E01BF8040000F076
:1019C00099F8641C4C45F8D3122000F07BF8642091
:1019D000FFF7CCFDFFF7E9FDBDE8F09F08B5012159
:1019E0006020FFF757FB4FF4E060ADF800001020D7
:1019F0008DF8030002208DF8020069464948FFF780
:101A000093F84FF44040ADF8000010208DF803002B
:101A100002208DF8020069464348FFF785F84FF42D
:101A20000050ADF8000048208DF8030002208DF82A
:101A3000020069463C48FFF777F84FF48050ADF854
:101A4000000010208DF8030002208DF80200694686
:101A50003548FFF769F808BD00BF0100A0F1010299
:101A6000D0B2FAD1704770B504460120FFF7F4FFF9
:101A7000002524E04FF400712A48FFF702F9012005
:101A8000FFF7EAFF14F0800F05D04FF4806125487E
:101A9000FFF7F5F804E04FF480612248FFF7F1F812
:101AA0006006040E0120FFF7D7FF4FF400711D48B8
:101AB000FFF7E5F80120FFF7CFFF681CC5B2082D3E
:101AC000D8DB70BD10B504460120FFF7C5FF4FF409
:101AD00080711448FFF7D5F84FF400411248FFF722
:101AE000D0F82046FFF7BFFF4FF480710D48FFF795
:101AF000C6F810BD10B504460120FFF7ADFF4FF446
:101B000080710848FFF7BDF84FF400410648FFF721
:101B1000B6F82046FFF7A7FF4FF480710148FFF7A2
:101B2000AEF810BD00140140001801402DE9F0414D
:101B30000646069F0020F94C206020460660018181
:101B4000428187810C464FEAE17C01EB5C7C4FEAE5
:101B5000EC0CB1EBCC0C07D10D464FEAE57C05EB64
:101B60005C7C4FEAEC0C08E008464FEAE17C01EBB4
:101B70005C7C4FEAEC0C0CF1010CDFF8A083A8F8B8
:101B800012C040468282C3810020444620820BB1AD
:101B9000B42B03D1E1488180C28002E0DF4882801B
:101BA000C180BDE8F081DD490860704730B15A2836
:101BB00004D0B42802D0B0F5877F01D1D749C881BD
:101BC000704728B1012803D0022801D0032801D191
:101BD000D249088270472DE9F04103460C4617466A
:101BE000CE4EB6889E4203DBCC4EF688A64201DA82
:101BF000BDE8F081C94EF6893EB15A2E08D0B42E08
:101C00000DD0B6F5877F1CD114E01846214619E0A7
:101C1000C24E3689361B761EB0B2194612E0BF4E50
:101C20003689F61A761EB0B2BC4E7689361B761E01
:101C3000B1B207E02046B94E7689F61A761EB1B2E7
:101C400000E0D5E700BFB54E368A36B1012E05D08B
:101C5000022E09D0032E18D10CE017E0AF4E3689C2
:101C6000361A761EB0B211E0AC4E7689761A761E20
:101C7000B1B20BE0A94E3689361A761EB0B2A74E25
:101C80007689761A761EB1B200E0B1E700BFA34EA6
:101C90003689864203DBA14E76898E4200DAA7E7B9
:101CA00006464FEAE07C00EB5C7C4FEAEC0CDFF888
:101CB0006C82B8F8128001FB08C2984E3668B55C99
:101CC000AFB906464FEAE07C00EB5C7C4FEAEC0CD7
:101CD000A0EBCC084FF0800C4CFA08FC25EA0C0C69
:101CE000DFF83882D8F8008008F802C014E0064611
:101CF0004FEAE07C00EB5C7C4FEAEC0CA0EBCC08FC
:101D00004FF0800C4CFA08FC4CEA050CDFF80C8212
:101D1000D8F8008008F802C000BF69E730B5024675
:101D2000002110E0002008E07C4C648A01FB0403E1
:101D30007A4D2D68EA54441CA0B2784C648A8442DF
:101D4000F2DC4C1CA1B2754CA48A8C42EADC30BD9A
:101D50002DE9F04706460F4690469946DDF820A04B
:101D60003D460CE0344606E0524629462046FFF741
:101D700032FF601C84B24445F6DB681C85B24D45D9
:101D8000F0DBBDE8F0872DE9F0470746884691462D
:101D90001C46DDF820A061488088B84203DB5F481C
:101DA000C088404501DABDE8F087BAF1010F24D1BF
:101DB00000251DE0002614E007EB0500001B03D4FE
:101DC00008EB0600001B00D50FE008EB0602121B13
:101DD00091B27A19121B90B24A46FFF7FCFE701CB2
:101DE00006B26000401EB042E6DC00BF681C05B2CF
:101DF0006000401EA842DDDC15E0002511E0002651
:101E00000BE008EB0602521E91B27A19521E90B2F4
:101E10004A46FFF7E0FE701C06B2A642F1DB681CE2
:101E200005B2A542EBDB00BFBDE72DE9F04F85B061
:101E300004460D4616461F4638488088A0420BDBF4
:101E40003648C088A84207DB34488088B04203DBAC
:101E50003248C088B84202DA05B0BDE8F08FA0462B
:101E6000AA46301B01D4301B00E0A01B8346781B20
:101E7000002801DC781B00E0E81B0490B44201DA82
:101E8000012001E04FF0FF300390BD4201DA012054
:101E900001E04FF0FF30029004980BEB00090020A6
:101EA000019000BF0198401CC0B201900F9801281A
:101EB00011D10321019890FBF1F201FB120050B9FE
:101EC00001200090FF2251464046109BFFF75BFF28
:101ED0000020019007E00120009051464046109BF1
:101EE0000E9AFFF750FF4FEA49010498814208DB40
:101EF000B04500D114E004988144039840441FFA8F
:101F000080F84FEA49005845CCDCBA4500D107E0DB
:101F1000D944029850441FFA80FAC3E7AC14002059
:101F200000BF00BF98E72DE9FE4F81460F4692465D
:101F30009846DDE90DB50C9CFE48808848450BDBD2
:101F4000FC48C088B84207DBFA488088504503DB6C
:101F5000F848C088404501DABDE8FE8FBBF1000FAC
:101F600010D03E460BE00020334652463146CDE9C4
:101F7000010500944846FFF758FF701C86B246459D
:101F8000F1DB27E000203B4652463946CDE901050A
:101F900000944846FFF749FF002043464A46394629
:101FA000CDE9010500944846FFF73FFF00203B467E
:101FB00052464146CDE9010500945046FFF735FFF2
:101FC000002043464A464146CDE90105009450466B
:101FD000FFF72BFF00BFBFE72DE9F84F05460E4680
:101FE00092469B46D3488088A84203DBD148C088EC
:101FF000B04201DCBDE8F88F00240FFA8AF7032015
:10200000A0EB4A000FFA80F90A98012877D172E014
:10201000A0465BE0012006EB080291B22A1900906D
:1020200090B201235A46FFF7AEFE012006EB0802EC
:1020300091B22A1B009090B201235A46FFF7A3FEEB
:102040000120321991B2A5EB0802009090B2012351
:102050005A46FFF798FE0120321B91B2A5EB080209
:10206000009090B201235A46FFF78DFE0120A6EBA7
:10207000080291B22A1B009090B201235A46FFF742
:1020800082FE0120A6EB080291B22A19009090B2BC
:1020900001235A46FFF777FE0120321B91B205EB70
:1020A0000802009090B201235A46FFF76CFE01200F
:1020B000321991B205EB0802009090B201235A4602
:1020C000FFF761FE08F101000FFA80F8B845A1DDC5
:1020D000B9F1000F05DAA000801D48440FFA80F91D
:1020E00007E0E01B80000A3048440FFA80F9781EB0
:1020F00007B2601C04B2BC428ADD66E0FFE762E022
:102100000120F21991B22A19009090B25A460B9B05
:10211000FFF739FE0120F21991B22A1B009090B20C
:102120005A460B9BFFF72FFE0120321991B2EA1B92
:10213000009090B25A460B9BFFF725FE0120321B00
:1021400091B2EA1B009090B25A460B9BFFF71BFE20
:102150000120F21B91B22A1B009090B25A460B9BB1
:10216000FFF711FE0120F21B91B22A19009090B2E4
:102170005A460B9BFFF707FE0120321B91B2EA196A
:10218000009090B25A460B9BFFF7FDFD01203219DB
:1021900091B2EA19009090B25A460B9BFFF7F3FDFB
:1021A000B9F1000F05DAA000801D48440FFA80F94C
:1021B00007E0E01B80000A3048440FFA80F9781EDF
:1021C00007B2601C04B2BC429ADD00BF12E72DE9E1
:1021D000F04F0746884692461D4656488088B842CA
:1021E00003DB5448C088404501DABDE8F08FA98878
:1021F000CA1701EB5272D2100846CB1701EB53738A
:10220000DB10B1EBC30301D0012300E00023134432
:10221000AAF12002B5F806C002FB0CF203FB02FB98
:10222000286800EB0B09002651E0002440E00998E3
:10223000FF2814D1E11704EB5171C910A4EBC102BE
:102240008021114199F80020114225D008EB0602A7
:1022500091B23A1990B20A9AFFF7BDFC1CE0E1175F
:1022600004EB5171C910A4EBC1028021114199F80E
:102270000020114208D008EB060291B23A1990B240
:102280000A9AFFF7A8FC07E008EB060291B23A1998
:1022900090B2099AFFF79FFCE11704EB5171C91046
:1022A000A4EBC101072901D109F10109601C84B225
:1022B000A888A042BBDCA888C11700EB5171C910E7
:1022C000B0EBC10101D009F10109701C86B2E888A8
:1022D000B042AADC00BF88E72DE9FC4F04460E4659
:1022E00017461D46DDE90BABA046B1461148808874
:1022F000A04203DB0F48C088B04201DABDE8FC8F82
:1023000022E0A88840440B498988884204DDA04621
:10231000E88848441FFA80F9E88848440549C98894
:10232000884201DDA046B146CDE900AB3A782B46A4
:10233000494601E0AC1400204046FFF748FF7F1CEF
:10234000A88840441FFA80F838780028D9D100BF07
:10235000D4E72DE9FF4F1D46DDF80890DDF8008039
:10236000DDF804A0F7E099F800007F2875DC00276D
:1023700069E053207843296811F8100099F800109B
:1023800088425FD153207843296801EB400000F177
:10239000020B002652E0002442E00D98FF2815D1E0
:1023A000E11704EB5171C910A4EBC1028021114166
:1023B0009BF80020114228D00AEB060291B208EBEC
:1023C000040290B20E9AFFF706FC1EE0E11704EB40
:1023D0005171C910A4EBC102802111419BF800206A
:1023E000114209D00AEB060291B208EB040290B246
:1023F0000E9AFFF7F0FB08E00AEB060291B208EB39
:10240000040290B20D9AFFF7E6FBE11704EB51715D
:10241000C910A4EBC101072901D10BF1010B641C08
:102420002889A042B9DC2889C11700EB5171C91075
:10243000B0EBC10101D00BF1010B761C6889B042F1
:10244000A9DC03E07F1CA888B84292DC00BF09F138
:102450000109E88880447EE0FFE7002773E053200D
:102460007843296811F8100099F80010884269D162
:1024700053207843296801EB4000407899F8011017
:1024800088425FD153207843296801EB400000F176
:10249000020B002652E0002442E00D98FF2815D1DF
:1024A000E11704EB5171C910A4EBC1028021114165
:1024B0009BF80020114228D00AEB060291B208EBEB
:1024C000040290B20E9AFFF786FB1EE0E11704EBC0
:1024D0005171C910A4EBC102802111419BF8002069
:1024E000114209D00AEB060291B208EB040290B245
:1024F0000E9AFFF770FB08E00AEB060291B208EBB8
:10250000040290B20D9AFFF766FBE11704EB5171DC
:10251000C910A4EBC101072901D10BF1010B641C07
:102520002889A042B9DC2889C11700EB5171C91074
:10253000B0EBC10101D00BF1010B761C6889B042F0
:10254000A9DC03E07F1CA888B84288DC00BF09F141
:1025500002092889804499F8000000287FF403AF1D
:10256000BDE8FF8F2DE9F04FADF5037D06460F4620
:1025700015469946DDF834B2DDF830A20024A046B5
:102580004FF4807143A800F016F94FF4807103A84E
:1025900000F011F943A8029082488088B04203DB22
:1025A0008048C088B84203DA0DF5037DBDE8F08F9E
:1025B0000CE00A2095FBF0F100FB1150303003A92C
:1025C0000855601C04B20A2095FBF0F5002DF0D1EF
:1025D0000BE0601E03A9085C43A901F8080008F19C
:1025E00001000FFA80F8601E04B2002CF1DC4B46AB
:1025F000CDE900AB39463046029AFFF76DFE00BFC9
:10260000D2E72DE9FF4F85B0054690469A46DDE9B1
:10261000126765A207CA02AB07C3BAF8044098F86C
:1026200004000A2190FBF1F002A911F80090534632
:102630004A46CDE9006728460699FFF7C8FD98F895
:1026400004000A2190FBF1F201FB120002A911F82B
:102650000090291988B253464A46CDE90067069989
:10266000FFF7B5FDA146E11704EB91712A1902EBC2
:10267000A101A34604EBDB7201EB620188B2534671
:102680003A22CDE900670699FFF7A1FD98F8050009
:102690000A2190FBF1F002A911F800B004EBD97106
:1026A00005EB440202EB610188B253465A46CDE97C
:1026B00000670699FFF78BFD98F805000A2190FB4B
:1026C000F1F201FB120002A911F800B004EBD9717C
:1026D00004EB44022A4402EB610188B253465A4695
:1026E000CDE900670699FFF772FD04EBD97105EBA0
:1026F000840202EB6101A346E21704EB9272A1EBA4
:10270000A20188B253463A22CDE900670699FFF745
:102710005EFD98F806000A2190FBF1F002A911F87D
:10272000009004EB8401294488B253464A46CDE91F
:1027300000670699FFF74BFD98F806000A2190FB09
:10274000F1F201FB120002A911F8009004EB440120
:1027500005EB410188B253464A46CDE90067069928
:10276000FFF735FD09B0BDE8F08F30B50246002314
:10277000002111E0002009E00A4C648A01FB0403F7
:10278000D45C084D2D68EC54441CA0B2054C648AFE
:102790008442F1DC4C1CA1B2024CA48A8C42E9DCDC
:1027A00030BD0000AC1400203031323334353637C0
:1027B0003839000070474FF0000200B513469446C8
:1027C0009646203922BFA0E80C50A0E80C50B1F189
:1027D0002001BFF4F7AF090728BFA0E80C5048BF9D
:1027E0000CC05DF804EB890028BF40F8042B08BF3B
:1027F000704748BF20F8022B11F0804F18BF00F837
:10280000012B70477047704770477047754600F05E
:1028100029F8AE4605006946534620F00700854674
:1028200018B020B5FEF7A0F8BDE820404FF0000634
:102830004FF000074FF000084FF0000B21F00701A8
:10284000AC46ACE8C009ACE8C009ACE8C009ACE8EB
:10285000C0098D4670470446AFF300802046FDF75F
:10286000AEFC000000487047C4140020FFFFFFFFCB
:10287000FFFFFFFFFFFFFFFFFFFFFFFFFFFFFFFF68
:10288000FFFFFFFFFFFFFFFFFFFFFFFFFFFFFFFF58
:10289000FFFFFFFFFFFFFFF7FFFFFFF7FFFFFFF760
:1028A000FFFFFFE7FF000007FF000007FF800007B2
:1028B000FFDFFFE7FFDFFFF7FFDFFFF7FFDFFFF7D8
:1028C000FFFFFFFFFFFFFFFFFFFFFFFFFFFFFFFF18
:1028D000FFFFFFFFFFFFFFFFFFFFFFFFFFFFFFFF08
:1028E000FFFFFFFFFFFFFFFFFFFFFFFFFFFFFFFFF8
:1028F000FFFFFFFFFFFFFFFFFFFFFFFFFFFFFFFFE8
:10290000FFFFFFFFFFFFFFFFFFFFFFFFFFFC01FFD8
:10291000FFE0003FFFC0001FFF87FF0FFF1FFFC743
:10292000FF3FFFE7FF7FFFF7FF7FFFF7FF3FFFE777
:10293000FF1FFFC7FF83FE0FFFC0001FFFE0003F28
:10294000FFFC01FFFFFFFFFFFFFFFFFFFFFFFFFF98
:10295000FFFFFFFFFFFFFFFFFFFFFFFFFFFFFFFF87
:10296000FFFFFFFFFFFFFFFFFFFFFFFFFFFFFFFF77
:10297000FFFFFFFFFFFFFFFFFFFFFFFFFFFFFFFF67
:10298000FFFFFFFFFFFFFFFFFFFFFFFFFFFFFFFF57
:10299000FFE0FE1FFF807E07FF803FC7FF1F1FE78E
:1029A000FF3FCFE7FF7FE7E7FF7FF3E7FF7FF9E731
:1029B000FF7FFCE7FF3FFE67FF99FF27FFC1FF870F
:1029C000FFE1FFC7FFFFFFFFFFFFFFFFFFFFFFFF6D
:1029D000FFFFFFFFFFFFFFFFFFFFFFFFFFFFFFFF07
:1029E000FFFFFFFFFFFFFFFFFFFFFFFFFFFFFFFFF7
:1029F000FFFFFFFFFFFFFFFFFFFFFFFFFFFFFFFFE7
:102A0000FFFFFFFFFFFFFFFFFFFFFFFFFFFFFFFFD6
:102A1000FFFFFFFFFFFFFFF7FFFFFFF7FFFFFFF7DE
:102A2000FFFFFFE7FF000007FF000007FF80000730
:102A3000FFDFFFE7FFDFFFF7FFDFFFF7FFDFFFF756
:102A4000FFFFFFFFFFFFFFFFFFFFFFFFFFFFFFFF96
:102A5000FFFFFFFFFFFFFFFFFFFFFFFFFFFFFFFF86
:102A6000FFFFFFFFFFFFFFFFFFFFFFFFFFFFFFFF76
:102A7000FFFFFFFFFFFFFFFFFFFFFFFFFFFFFFFF66
:102A8000FFFFFFFFFFFFFFFFFFFFFFFFFFFFFFFF56
:102A9000FFFFF87FFFE1E01FFF80C00FFF804FCFF7
:102AA000FF1E1FE7FF3F1FF7FF7FBFF7FF7FBFF747
:102AB000FF7FBFF7FF3FFFE7FF83FE0FFF83FE0FA0
:102AC000FFC3FE1FFFFFFFFFFFFFFFFFFFFFFFFF33
:102AD000FFFFFFFFFFFFFFFFFFFFFFFFFFFFFFFF06
:102AE000FFFFFFFFFFFFFFFFFFFFFFFFFFFFFFFFF6
:102AF000FFFFFFFFFFFFFFFFFFFFFFFFFFFFFFFFE6
:102B0000FFFFFFFFFFFFFFFFFFFFFFFFFFFFFFFFD5
:102B1000FFE0FE1FFF807E07FF803FC7FF1F1FE70C
:102B2000FF3FCFE7FF7FE7E7FF7FF3E7FF7FF9E7AF
:102B3000FF7FFCE7FF3FFE67FF99FF27FFC1FF878D
:102B4000FFE1FFC7FFFFFFFFFFFFFFFFFFFFFFFFEB
:102B5000FFFFFFFFFFFFFFFFFFFFFFFFFFFFFFFF85
:102B6000FFFFFFFFFFFFFFFFFFFFFFFFFFFFFFFF75
:102B7000FFFFFFFFFFFFFFFFFFFFFFFFFFFFFFFF65
:102B8000FFFFFFFFFFFFFFFFFFFFFFFFFFFFFDFB5B
:102B9000FFFFFDFBFFFFFDFBFF000003FF00000345
:102BA000FF000003FF800003FFE3FDFBFFF0FDFBE0
:102BB000FFFC7DFBFFFE1DFFFFFF8DFFFFFFE1FF21
:102BC000FFFFF1FFFFFFFDFFFFFFFFFFFFFFFFFF25
:102BD000FFFFFFFFFFFFFFFFFFFFFFFFFFFFFFFF05
:102BE000FFFFFFFFFFFFFFFFFFFFFFFFFFFFFFFFF5
:102BF000FFFFFFFFFFFFFFFFFFFFFFFFFFFFFFFFE5
:102C0000FFFFFFFFFFFFFFFFFFFFFFFFFFFFFFFFD4
:102C1000FFFFF87FFFE1E01FFF80C00FFF804FCF75
:102C2000FF1E1FE7FF3F1FF7FF7FBFF7FF7FBFF7C5
:102C3000FF7FBFF7FF3FFFE7FF83FE0FFF83FE0F1E
:102C4000FFC3FE1FFFFFFFFFFFFFFFFFFFFFFFFFB1
:102C5000FFFFFFFFFFFFFFFFFFFFFFFFFFFFFFFF84
:102C6000FFFFFFFFFFFFFFFFFFFFFFFFFFFFFFFF74
:102C7000FFFFFFFFFFFFFFFFFFFFFFFFFFFFFFFF64
:102C8000FFFFFFFFFFFFFFFFFFFFFFFFFFFFFFFF54
:102C9000FF3FE07FFF3F801FFF3F000FFF3E3F8F62
:102CA000FF3E7FE7FF3EFFF7FF3EFFF7FF3EFFF7E8
:102CB000FF3E7FF7FF073FF7FF001E67FFF81E0F7D
:102CC000FFFFFE1FFFFFFFFFFFFFFFFFFFFFFFFFF5
:102CD000FFFFFFFFFFFFFFFFFFFFFFFFFFFFFFFF04
:102CE000FFFFFFFFFFFFFFFFFFFFFFFFFFFFFFFFF4
:102CF000FFFFFFFFFFFFFFFFFFFFFFFFFFFFFFFFE4
:102D0000FFFFFFFFFFFFFFFFFFFFFFFFFFFFFDFBD9
:102D1000FFFFFDFBFFFFFDFBFF000003FF000003C3
:102D2000FF000003FF800003FFE3FDFBFFF0FDFB5E
:102D3000FFFC7DFBFFFE1DFFFFFF8DFFFFFFE1FF9F
:102D4000FFFFF1FFFFFFFDFFFFFFFFFFFFFFFFFFA3
:102D5000FFFFFFFFFFFFFFFFFFFFFFFFFFFFFFFF83
:102D6000FFFFFFFFFFFFFFFFFFFFFFFFFFFFFFFF73
:102D7000FFFFFFFFFFFFFFFFFFFFFFFFFFFFFFFF63
:102D8000FFFFFFFFFFFFFFFFFFFFFFFFFFFFE07FF2
:102D9000FFCFC01FFF8F800FFF0F1FCFFF7F3FE7C9
:102DA000FF7F7FF7FF7F7FF7FF3F7FF7FF3F3FE723
:102DB000FF9F9FC7FFC38F0FFFE0001FFFF0003F83
:102DC000FFFE00FFFFFFFFFFFFFFFFFFFFFFFFFF13
:102DD000FFFFFFFFFFFFFFFFFFFFFFFFFFFFFFFF03
:102DE000FFFFFFFFFFFFFFFFFFFFFFFFFFFFFFFFF3
:102DF000FFFFFFFFFFFFFFFFFFFFFFFFFFFFFFFFE3
:102E0000FFFFFFFFFFFFFFFFFFFFFFFFFFFFFFFFD2
:102E1000FF3FE07FFF3F801FFF3F000FFF3E3F8FE0
:102E2000FF3E7FE7FF3EFFF7FF3EFFF7FF3EFFF766
:102E3000FF3E7FF7FF073FF7FF001E67FFF81E0FFB
:102E4000FFFFFE1FFFFFFFFFFFFFFFFFFFFFFFFF73
:102E5000FFFFFFFFFFFFFFFFFFFFFFFFFFFFFFFF82
:102E6000FFFFFFFFFFFFFFFFFFFFFFFFFFFFFFFF72
:102E7000FFFFFFFFFFFFFFFFFFFFFFFFFFFFFFFF62
:102E8000FFFFFFFFFFFFFFFFFFFFFFFFFFFFFFFF52
:102E9000FF3FFFFFFF1FFFFFFF07FFFFFF21FFFFB8
:102EA000FF387FFFFF3E0FFFFF3F8007FF3FF00728
:102EB000FF3FFE07FF1FFFFFFF0FFFFFFF03FFFFA7
:102EC000FFC3FFFFFFFFFFFFFFFFFFFFFFFFFFFF4E
:102ED000FFFFFFFFFFFFFFFFFFFFFFFFFFFFFFFF02
:102EE000FFFFFFFFFFFFFFFFFFFFFFFFFFFFFFFFF2
:102EF000FFFFFFFFFFFFFFFFFFFFFFFFFFFFFFFFE2
:102F0000FFFFFFFFFFFFFFFFFFFFFFFFFFFFE07F70
:102F1000FFCFC01FFF8F800FFF0F1FCFFF7F3FE747
:102F2000FF7F7FF7FF7F7FF7FF3F7FF7FF3F3FE7A1
:102F3000FF9F9FC7FFC38F0FFFE0001FFFF0003F01
:102F4000FFFE00FFFFFFFFFFFFFFFFFFFFFFFFFF91
:102F5000FFFFFFFFFFFFFFFFFFFFFFFFFFFFFFFF81
:102F6000FFFFFFFFFFFFFFFFFFFFFFFFFFFFFFFF71
:102F7000FFFFFFFFFFFFFFFFFFFFFFFFFFFFFFFF61
:102F8000FFFFFFFFFFFFFFFFFFFFFFFFFFFFFFFF51
:102F9000FFE1F83FFFC0F01FFF80600FFF1E03CF6F
:102FA000FF3F87E7FF7F8FF7FF7F9FF7FF7F1FF7C9
:102FB000FF3E1FF7FF1C0FE7FF8047CFFFC0E00F6A
:102FC000FFE1F01FFFFFF83FFFFFFFFFFFFFFFFFE5
:102FD000FFFFFFFFFFFFFFFFFFFFFFFFFFFFFFFF01
:102FE000FFFFFFFFFFFFFFFFFFFFFFFFFFFFFFFFF1
:102FF000FFFFFFFFFFFFFFFFFFFFFFFFFFFFFFFFE1
:10300000FFFFFFFFFFFFFFFFFFFFFFFFFFFFFFFFD0
:10301000FF3FFFFFFF1FFFFFFF07FFFFFF21FFFF36
:10302000FF387FFFFF3E0FFFFF3F8007FF3FF007A6
:10303000FF3FFE07FF1FFFFFFF0FFFFFFF03FFFF25
:10304000FFC3FFFFFFFFFFFFFFFFFFFFFFFFFFFFCC
:10305000FFFFFFFFFFFFFFFFFFFFFFFFFFFFFFFF80
:10306000FFFFFFFFFFFFFFFFFFFFFFFFFFFFFFFF70
:10307000FFFFFFFFFFFFFFFFFFFFFFFFFFFFFFFF60
:10308000FFFFFFFFFFFFFFFFFFFFFFFFFFFFFFFF50
:10309000FFF803FFFFE0007FFFC0003FFF8F8C1FA2
:1030A000FF3FCF8FFF7FE7C7FF7FF7E7FF7FF7F790
:1030B000FF7FF7F7FF3FE7F7FF8FC787FF800F8F8F
:1030C000FFC01F8FFFF03FFFFFFFFFFFFFFFFFFF6E
:1030D000FFFFFFFFFFFFFFFFFFFFFFFFFFFFFFFF00
:1030E000FFFFFFFFFFFFFFFFFFFFFFFFFFFFFFFFF0
:1030F000FFFFFFFFFFFFFFFFFFFFFFFFFFFFFFFFE0
:10310000FFFFFFFFFFFFFFFFFFFFFFFFFFFFFFFFCF
:10311000FFE1F83FFFC0F01FFF80600FFF1E03CFED
:10312000FF3F87E7FF7F8FF7FF7F9FF7FF7F1FF747
:10313000FF3E1FF7FF1C0FE7FF8047CFFFC0E00FE8
:10314000FFE1F01FFFFFF83FFFFFFFFFFFFFFFFF63
:10315000FFFFFFFFFFFFFFFFFFFFFFFFFFFFFFFF7F
:10316000FFFFFFFFFFFFFFFFFFFFFFFFFFFFFFFF6F
:10317000FFFFFFFFFFFFFFFFFFFFFFFFFFFFFFFF5F
:10318000FFFFFFFFFFFFFFFFFFFFFFFFFFFFFFFF4F
:10319000FFFFFFFFFFFFFFFFFFFFFFFFFFFFFFFF3F
:1031A000FFFFFFFFFFFFFFFFFFFFFFFFFFFFFFFF2F
:1031B000FFFFFFFFFFFFFFFFFFFFFFFFFFFFFFFF1F
:1031C000FFFFFFFFFFFFFFFFFFFFFFFFFFFFFFFF0F
:1031D000FFFFFFFFFFFFFFFFFFFFFFFFFFFFFFFFFF
:1031E000FFFFFFFFFFFFFFFFFFFFFFFFFFFFFFFFEF
:1031F000FFFFFFFFFFFFFFFFFFFFFFFFFFFFFFFFDF
:10320000FFFFFFFFFFFFFFFFFFFFFFFFFFFFFFFFCE
:10321000FFFFFFFFFFFFFFFFFFFFFFFFFFFFFFFFBE
:10322000FFFFFFFFFFFFFFFFFFFFFFFFFFFFFFFFAE
:10323000FFFFFFFFFFFFFFFFFFFFFFFFFFFFFFFF9E
:10324000FFFFFFFFFFFFFFFFFFFFFFFFFFFFFFFF8E
:10325000FFFFFFFFFFFFFFFFFFFFFFFFFFFFFFFF7E
:10326000FFFFFFFFFFFFFFFFFFFFFFFFFFFFFFFF6E
:10327000FFFFFFFFFFFFFFFFFFFFFFFFFFFFFFFF5E
:10328000FFFFFFFFFFFFFFFFFFFFFFFFFFFFFFFF4E
:10329000FFFFFFFFFFFFFFFFFFFFFFFFFFFFFFFF3E
:1032A000FFFFFFFFFFFFFFFFFFFFFFFFFFFFFFFF2E
:1032B000FFFFFFFFFFFFFFFFFFFFFFFFFFFFFFFF1E
:1032C000FFFFFFFFFFFFFFFFFFFFFFFFFFFFFFFF0E
:1032D000FFFFFFFFFFFFFFFFFFFFFFFFFFFFFFFFFE
:1032E000FFFFFFFFFFFFFFFFFFFFFFFFFFFFFFFFEE
:1032F000FFFFFFFFFFFFFFFFFFFFFFFFFFFFFFFFDE
:10330000FFFFFFFFFFFFFFFFFFFFFFFFFFFFFFFFCD
:10331000FFFFFFFFFFFFFFFFFFFFFFFFFFFFFFFFBD
:10332000FFFFFFFFFFFFFFFFFFFFFFFFFFFFFFFFAD
:10333000FFFFFFFFC19FFFFFFFFFFFFFFFFFFFFF3B
:10334000FFFFFFFFFFFFFFFFFFFFFFFFFF0187FF03
:10335000FFFFFFFFFFFFFFFFFFFFFFFFFFFFFFFF7D
:10336000FFFFFFFFFFFF01C3FFFFFFFFFFFFFFFFA7
:10337000FFFFFFFFFFFFFFFFFFFFFFFFFFFFFE1944
:10338000F3FFFFFFFFFFFFFFFFFFFFFFFFFFFFFF59
:10339000FFFFFFFFFFFFFFFE79F3FFFFFFFFFFFFD0
:1033A000FFFFFFFFFFFFFFFFFFFFFFFFFFFFFFFF2D
:1033B000FE79F3FFFFFFFFFFFFFFFFFFFFFFFFFFB0
:1033C000FFFFFFFFFFFFFFFFFFFE39E3FFFFFFFFF0
:1033D000FFFFFFFFFFFFFFFFFFFFFFFFFFFFFFFFFD
:1033E000FFFFFE19C3FFFFFFFFFFFFFFFFFFFFFF10
:1033F000FFFFFFFFFFFFFFFFFFFFFFFF0007FFFFD4
:10340000FFFFFFFFFFFFFFFFFFFFFFFFFFFFFFFFCC
:10341000FFFFFFFFFF800FFFFFFFFFFFFFFFFFFF2B
:10342000FFFFFFFFFFFFFFFFFFFFFFFFFFFFE03F8B
:10343000FFFFFFFFFFFFFFFFFFFFFFFFFFFFFFFF9C
:10344000FFFFFFFFFFFFFFFFFFFFFFFFFFFFFFF09B
:103450000FF1FFFFFFFFFFFFFFFFFFFFFFFFFFFF7A
:10346000FFFFFFFFFFFFFFFFF00FF0FFFFFFFFFF7A
:10347000FFFFFFFFFFFFFFFFFFFFFFFFFFFFFFFF5C
:10348000FFF0FFFC7FFFFFFFFFFFFFFFFFFFFFFFDE
:10349000FFFFFFFFFFFFFFFFFFFFE3FFFE3FFFFF19
:1034A000FFFFFFFFFFFFFFFFFFFFFF1FFFFFFFFF0C
:1034B000FFFFFFE7FFFE3FFFFFFFFFFFFFFFFFFFF5
:1034C000FFFFFFFE1FFFFFFFFFFFFFFFE7FFFF1FE5
:1034D000FFFFFFFFFFFFFFFFFFFFFFFFFE1FFFFFDD
:1034E000FFFFFFFFFFC7FFFF1FFFFFFFFFFFFFFF04
:1034F000FFFFFFFFFFFE3FF3FFFFFFFFFFFFC7FFE1
:10350000FF1FFFFFFFFFFFFFFFFFFFFFFFFFFF1F8B
:10351000F3FFFFFFFFFFFFC7FFFF1FFFFFFFFFFFDF
:10352000FFFFFFFFFFFFFFFF0FF3FFFFFFFFFFFFA7
:10353000C7FFFF1FFFFFFFFFFFFFFFFFFFFFFFFFB3
:10354000FC0003FFFFFFFFFFFFE3FFFE3FFFFFFF66
:10355000FFFFFFFFFFFFFFFFFFFC0003FFFFFFFF79
:10356000FFFFE0FFF83FFFFFFFFFFFFFFFFFFFFF51
:10357000FFFFFE0003FFFFFFFFFFFFF03FE07FFFC5
:10358000FFFFFFFFFFFFFFFFFFFFFFFE7FF3FFFFD8
:10359000FFFFFFFFF80000FFFFFFFFFFFFFFFFFF40
:1035A000FFFFFFFFFE7FF3FFFFFFFFFFFFFE0003B4
:1035B000FFFFFFFFFFFFFFFFFFFFFFFFFFFE7FF3A8
:1035C000FFFFFFFFFFFFE1C01FFFFFFFFFFFFFFF48
:1035D000FFFFFFFFFFFFFFFFFFFFFFFFFFFFFFC03A
:1035E000FFFFFFFFFFFFFFFFFFFFFFFFFFFFFFFFEB
:1035F000FFFFFFFFFFFFFFFFCC7FFFFFFFFFFFFF8E
:10360000FFFFFFFFFFFFFFFFFFFFFFFFFFFFFFFFCA
:10361000FFCC7FFFFFFFFFFFFFFFFFFFFFFFFFFF6D
:10362000FFFFFFE7FFFFFFFFFFFFC0FFFFFFFFFF01
:10363000FFFFFFFFFFFFFFFFFFFFFC0007FFFFFF94
:10364000FFFFFFE1FFFFFFFFFFFFFFFFFFFFFFFFA8
:10365000FFFFFFFC0003FFFFFFFFFFFFFFFFFFFF78
:10366000FFFFFFFFFFFFFFFFFFFFFFFFFE0003FF66
:10367000FFFFFFFFFFFFFFFFFFFFFFFFFFFFFFFF5A
:10368000FFFFFFFFFFFE7FC7FFFFFFFFFFFFFFFF03
:10369000FFFFFFFFFFFFFFFFFFFFFFFFFFFFFFFF3A
:1036A000E3FFFFFFFFFFFFFFFFFFFFFFFFFFFFFF46
:1036B000FFFFFFFFFFFFFFFFFFF3FFFFFFFFFFFF26
:1036C000FFFFFFFFFFFFFFFFFFFFFFFFFFFFFFFF0A
:1036D000FFFFE3FFFFFFFFFFFFFF800FFFFFFFFF85
:1036E000FFFFFFFFFFFFFFFFFFFC0003FFFFFFFFE8
:1036F000FFFFFC0001FFFFFFFFFFFFFFFFFFFFFFDA
:10370000FFFFFC0003FFFFFFFFFFFFF00000FFFFD4
:10371000FFFFFFFFFFFFFFFFFFFFFFFE000FFFFFA9
:10372000FFFFFFFFF07FF07FFFFFFFFFFFFFFFFFC7
:10373000FFFFFFFFFE7FFFFFFFFFFFFFFFE3FFFE37
:103740003FFFFFFFFFFFFFFFFFFFFFFFFFFFFFFF49
:10375000FFFFFFFFFFFFE7FFFF3FFFFFFFFFFFFF51
:10376000FFFFFFFFFFFFFFFFFFFFFFFFFFFFFFE781
:10377000FFFF3FFFFFFFFFFFFFFFFFFFFFFFFFFF19
:10378000FFFFFFFFFFFFFFFFE1FFFC3FFFFFFFFF2A
:10379000FFFFFFFFFFFFFFFFFFFF8FFFFFFFFFFFA9
:1037A000FFF03FF07FFFFFFFFFFFFFFFFFFFFFFF87
:1037B000FFFE7F87FFFFFFFFFFFFF80000FFFFFF17
:1037C000FFFFFFFFFFFFFFFFFFFFFE7FE3FFFFFFA6
:1037D000FFFFFFFC0001FFFFFFFFFFFFFFFFFFFFF9
:1037E000FFFFFFFE7FF3FFFFFFFFFFFFFF800FFFE5
:1037F000FFFFFFFFFFFFFFFFFFFFFFFFFE7FE3FF76
:10380000FFFFFFFFFFFFFFFFFFFFFFFFFFFFFFFFC8
:10381000FFFFFFFFFFC00003FFFFFFFFFFFFFFFFF2
:10382000FFFFFFFFFFFFFFFFFFFFFFFFFFFFC000E6
:1038300003FFFFFFFFFFFFFFFFFFFFFFFFFFFFFF94
:10384000FFFFFFFFFFFFFFF8000FFFFFFFFFFFFF7E
:10385000FFFFFFFFFFFFFFFFFFFFFFFFFFFFFFFF78
:10386000FC7FFFFFFFFFFFFFFFFFFFFFFFFFFFFFEB
:10387000FFFFFFFFFFFFFFFFFFFE7FFFFFFFFFFFD9
:10388000FFFFFFFFFFFFFFFFFFFFFFFFFFFFFFFF48
:10389000FFFFFE7FFFFFFFFFFFFFFFFFFFFFFFFFB9
:1038A000FFFFFFFFFFFFFFFFFFFFFFFFFFFFFFFF28
:1038B000FFFFFFFFFFFFFFFFFFFFFFFFFFFFFFFF18
:1038C000FFFFFFFFFFFFFFFFFFFFFFFFFFFFFFFF08
:1038D000FFFFFFFFFFFFFFFFFFFFFFFFFFFFFFFFF8
:1038E000FFFFFFFFFFFFFFFFFFFFFFFFFFFFFFFFE8
:1038F000FFFFFFFFFFFFFFFFC7FFFFFFFFFFFFFF10
:10390000FFFC3FFFFFFFFFFFFFFFFFFFFFFFFFFF8A
:10391000FFC3FFFFFFFFFFFFFFFFF83FFFFFFFFFBA
:10392000FFFFFFFFFFFFFFFFFF8003FFFFFFFFFF22
:10393000FFFFFFF83FFFFFFFFFFFFFFFFFFFFFFF5E
:10394000FFFF0003FFFFFFFFFFFFFFFFF83FFFFF49
:10395000FFFFFFFFFFFFFFFFFFFFFE0007FFFFFF6F
:10396000FFFFFFFFFFFFFFFFFFFFFFFFFFFFFFFF67
:10397000FFFFFFFE33E7FFFFFFFFFFFFFFFFFFFF3C
:10398000FFFFFFFFFFFFFFFFFFFFFFFFFE73E3FFF0
:10399000FFFFFFFFFFFFFFFFFFFFFFFFFFFFFFFF37
:1039A000FFFFFFFFFFFE71F3FFFFFFFFFFFFFFFFC2
:1039B000FFFFFFFFFFFFFFFFFFFFFFFFFFFFFE39DE
:1039C000F3FFFFFFFFFFFFE3FC03FFFFFFFFFFFF2E
:1039D000FFFFFFFFFFFFFFFE08E3FFFFFFFFFFFF0B
:1039E000E3F000FFFFFFFFFFFFFFFFFFFFFFFFFF11
:1039F000FF0803FFFFFFFFFFFFE3E0007FFFFFFF84
:103A0000FFFFFFFFFFFFFFFFFFFF8C07FFFFFFFF31
:103A1000FFFFE3E1F83FFFFFFFFFFFFFFFFFFFFFB7
:103A2000FFFFFFFE0FFFFFFFFFFFFFE3E7FE3FFF8C
:103A3000FFFFFFFFFFFFFFFFFFFFFFFFFFFFFFFF96
:103A4000FFFFFFFFE3E7FF3FFFFFFFFFFFFFFFFF7A
:103A5000FFFFFFFFFFFFFFFFFFFFFFFFFFE3E3FFAE
:103A60003FFFFFFFFFFFFFFFFFFFFFFFFFFFFFFF26
:103A7000FFFFFFFFFFFFE031FF3FFFFFFFFFFFFF03
:103A8000FFFFFFFFFFFFFF1FFFFFFFFFFFFFFFE045
:103A900000C23FFFFFFFFFFFFFFFFFFFFFFFFFFE33
:103AA0001FFFFFFFFFFFFFFFFF80C07FFFFFFFFF44
:103AB000FFFFFFFFFFFFFFFFFE1FFFFFFFFFFFFFF7
:103AC000FFFFFFC0FFFFFFFFFFFFFFFFFFFFFFFF45
:103AD000FFFE3FF3FFFFFFFFFFFFFFFFFFFFFFFFC3
:103AE000FFFFFFFFFFFFFFFFFFFFFF1FF3FFFFFFD2
:103AF000FFFFFFFFFFFFFFFFFFFFFFFFFFFFFFFFD6
:103B0000FFFFFFFF0FF3FFFFFFFFFFFFFFFFFFFFC1
:103B1000FFFFFFFFFFFFFFFFFFFFFFFFFC0003FFB3
:103B2000FFFFFFFFFFFFFFFFFFFFFFFFFFFFFFFFA5
:103B3000FFFFFFFFFFFC0003FFFFFFFFFFFFFFFF93
:103B4000FFFFFFFFFFFFFFFFFFFFFFFFFFFFFE0085
:103B500003FFFFFFFFFFFFFC0FE07FFFFFFFFFFF03
:103B6000FFFFFFFFFFFFFFFE7FF3FFFFFFFFFFFFF2
:103B7000F003E03FFFFFFFFFFFFFFFFFFFFFFFFF3F
:103B8000FE7FF3FFFFFFFFFFFFF001FC3FFFFFFFA2
:103B9000FFFFFFFFFFFFFFFFFFFE7FF3FFFFFFFFC2
:103BA000FFFFE1E07E3FFFFFFFFFFFFFFFFFFFFFA3
:103BB000FFFFFFFFFFFFFFFFFFFFFFE3FC3E3FFFB5
:103BC000FFFFFFFFFFFFFFFFFFFFFFFFFFFFFFFF05
:103BD000FFFFFFFFE7FE1E3FFFFFFFFFFFFFFFFFAF
:103BE000FFFFFFFFFFFFFFFFFFFFFFFFFFE7FF8E6E
:103BF0003FFFFFFFFFFFFFFFFFFFFFFFFFFFC19F33
:103C0000FFFFFFFFFFFFE3FFC23FFFFFFFFFFFFFDD
:103C1000FFFFFFFFFFFFFF0187FFFFFFFFFFFFF138
:103C20001FE03FFFFFFFFFFFFFFFFFFFFFFFFFFF63
:103C300001C3FFFFFFFFFFFFF01FF83FFFFFFFFF84
:103C4000FFFFFFFFFFFFFFFFFE19F3FFFFFFFFFF77
:103C5000FFFC1FFC3FFFFFFFFFFFFFFFFFFFFFFF1A
:103C6000FFFE79F3FFFFFFFFFFFFFFFFFFFFFFFFF7
:103C7000FFFFFFFFFFFFFFFFFFFFFE79F3FFFFFFE7
:103C8000FFFFFFFFFFFFFFFFFFFFFFFFFFFFFFFF44
:103C9000FFFFFFFE39E3FFFFFFFFFFFFFFFFFFFF17
:103CA000FFFFFFFFFFFFFFFFFFFFFFFFFE19C3FF47
:103CB000FFFFFFFFFFFFFFFFFFFFFFFFFFFFFFFF14
:103CC000FFFFFFFFFFFF0007FFFFFFFFFFFFFFFFFB
:103CD000FFFFFFFFFFFFFFFFFFFFFFFFFFFFFF8073
:103CE0000FFFFFFFFFFFFFFFFFFFFFFFFFFFFFFFD4
:103CF000FFFFFFFFFFFFFFFFE03FFFFFFFFFFFFFB3
:103D0000FFFFFFFFFFFFFFFFFFFFFFFFFFFFFFFFC3
:103D1000FFFFFFFFFFFFFFFFFFFFFFFFFFFFFFFFB3
:103D2000FFFFFFFFFFFFFFFFFFFFFFFFFFFFFFFFA3
:103D3000FFFFFFFFFFFFFFFFFFFFFFFFFFFFFFFF93
:103D4000FFFFFFFFFFFFFFFFFFFFFFFFFFFFFFFF83
:103D5000FFFFFFFFFFFFFFFFFFFFFFFFFFFFFFFF73
:103D6000FFFFFFFFFFFFFFFFFFFFFFFFFFFFFFFF63
:103D7000FFFFFFFFFFC03FFFFFFFFFFFFFFFFFFF52
:103D8000FFFFFFFFFFFFFFFFFFFFFFFFFFFF000F32
:103D9000FFFFFFFFFFFFFFFFFFFFFFFFFFFFFFFF33
:103DA000FFFFFFFFFFFFFF0007FFFFFFFFFFFFFF1A
:103DB000FFFFFFFFFFFFFFFFFFFFFFFFFFFFFFFE14
:103DC0001FC3FFFFFFFFFFFFFFFFFFFFFFFFFFFF1F
:103DD000FFFFFFFFFFFFFFFFFE7FE3FFFFFFFFFF90
:103DE000FFFFFFFFFFFFFFFFFFFFFFFFFFFFFFFFE3
:103DF000FFFE7FF3FFFFFFFFFFFFFFFFFFFFFFFF60
:103E0000FFFFFFFFFFFFFFFFFFFFFE3FF39FFFFFEF
:103E1000FFFFFFFFFFFFFFFFFFFFFFFFFFFFFFFFB2
:103E2000FFFFFFFF1FE39FFFFFFFFFFFFFFFFFFFFE
:103E3000FFFFFFFFFFFFFFFFFFFFFFFFFC00001F73
:103E4000FFFFFFFFFFFFFFFFFFFFFFFFFFFFFFFF82
:103E5000FFFFFFFFFFFC00001FFFFFFFFFFFFFFF53
:103E6000FFFFFFFFFFFFFFFFFFFFFFFFFFFFFE0062
:103E7000001FFFFFFFFFFFFFFFFFFFFFFFFFFFFF31
:103E8000FFFFFFFFFFFFFFFE7FFF9FFFFFFFFFFF23
:103E9000FFFFFFFFFFFFFFFFFFFFFFFFFFFFFFFF32
:103EA000FE7FFF9FFFFFFFFFFFFFFFFFFFFFFFFF03
:103EB000FFFFFFFFFFFFFFFFFFFFFFF3FFFFFFFF1E
:103EC000FFFFFFFFFFFFFFFFFFFFFFFFFFFFFFFF02
:103ED000FFFFFF0003FFFFFFFFFFFFFFFFFFFFFFED
:103EE000FFFFFFFFFFFFFFFFFFFFFFFE0003FFFFDE
:103EF000FFFFFFFFFFFFFFFFFFFFFFFFFFFFFFFFD2
:103F0000FFFFFFFFFE0003FFFFFFFFFFFFFFFFFFBD
:103F1000FFFFFFFFFFFFFFFFFFFFFFFFFFFE7FFF32
:103F2000FFFFFFFFFFFFFFFFFFFFFFFFFFFFFFFFA1
:103F3000FFFFFFFFFFFFFE3FF3FFFFFFFFFFFFFF5E
:103F4000FFFFFFFFFFFFFFFFFFFFFFFFFFFFFFFF81
:103F50000003FFFFFFFFFFFFFFFFFFFFFFFFFFFF6C
:103F6000FFFFFFFFFFFFFFFFFE0003FFFFFFFFFF5D
:103F700039C73CE7FFFFFFFFFFFFFFFFFFFFFFFF2A
:103F8000FFFE0003FFFFFFFFFE39C73CE7FFFFFF17
:103F9000FFFFFFFFFFFFFFFFFFFFFE7FFFFFFFFFB2
:103FA000FFFE39C73CE7FFFFFFFFFFFFFFFFFFFFFB
:103FB000FFFFFFFE3FF3FFFFFFFFFE39C73CE7FFB8
:103FC000F03FFFFFFFFFFFFFFFFFFFFFFC0003FFCE
:103FD000FFFFFFFE39C73CE7FF8003FFFFFFFFFF46
:103FE000FFFFFFFFFFFC0003FFFFFFFFFE39C73CA1
:103FF000E7FE07C0FFFFFFFFFFFFFFFFFFFFFE0021
:1040000003FFFFFFFFFE39C73CE7F83FF87FFFFFE4
:10401000FFFFFFFFFFFFFFFE7FF3FFFFFFFFFF3903
:10402000C73CE7F0FFFE3FFFFFFFFFFFFFFFFFFF83
:10403000FFFFFFFFFFFFFFFFFFFFFFFFE3F03F1F5B
:10404000FFFFFFFFFFFFFFFFFFFFFFFFFFFFFFFF80
:10405000FFFFFFFFFFC7C0078FFFFFFFFFFFFFFF4F
:10406000FFFFFFC19FFFFFFFFFFFFFFFFFFF8F006D
:1040700003C7FFFFFFFFFFFFFFFFFFFF0187FFFFFA
:10408000FFFF00000000001E0001E7FFFFFFFFFF31
:10409000FFFFFFFFFF01C3FFFFFFFE000000000066
:1040A0001C0000F3FFFFFFFFFFFFFFFFFFFE19F300
:1040B000FFFFFFF83FFFFFFFFFFC000071FFFFFF66
:1040C000FFFFFFFFFFFFFE79F3FFFFFFF87FFFFF1A
:1040D000FFFFF8000070FFFFFFFFFFFFFFFFFFFE85
:1040E00079F3FFFFFFF0FFFFE0000000000038FF62
:1040F000FFFFFFFFFFFFFFFFFE39E3FFFFFFE1FFD1
:10410000FFE0000000000038FFFFFFFFFFFFFFFFA0
:10411000FFFE19C3FFFFFFE1FFFFC000000000002A
:1041200038FFFFFFFFFFFFFFFFFFFF0007FFFFFF5D
:10413000E1FFFFC0000000000038FFFFFFFFFFFFAE
:10414000FFFFFFFF800FFFFFFFE1FFFFC000000048
:10415000000038FFFFFFFFFFFFFFFFFFFFE03FFF13
:10416000FFFFE0FFFFFFFFFFF0000038FFFFFFFF52
:10417000FFFFFFFFFFFFFFFFFFFFFFF87FFFFFFFD6
:10418000FFF8000070FFFFFFFFFFFFFFFFFFFFFFD3
:10419000FFFFFFFFFC3FFFFFFFFFF8000071FFFF85
:1041A000FFFFFFFFFFFFFFFFFFFFFFFFFFFE00001E
:1041B0000000001C0000F3FFFFFFFFFFFFFFFFFFF9
:1041C00087FFFFFFFFFFFF80000000001E0001E7E8
:1041D000FFFFFFFFFFFFFFFFFE07FFFFFFFFFFFFE8
:1041E000FFFFFFFFFFCF0003C7FFFFFFFFFFFFFF42
:1041F000FFFE3FFFFFFFFFFFFFFFFFFFFFFFC78047
:10420000078FFFFFFFFFFFFFFFFFFE7FFFFFFFFFA7
:10421000FFFFFFFFFFFFFFE3F03F1FFFFFFFFFFF79
:10422000FFFFFFFE7FFFF3FFFFFFFFFFFFFFFFFF2B
:10423000F0FFFE3FFFFFFFFFFFFFFFFFFE00000359
:10424000FFFFFFFFFFFFFFFFFFF83FF07FFFFFFFD4
:10425000FFFFFFFFFFFE000003FFFFFFFFFFFFFF69
:10426000FFFFFC07C0FFFFFFFFFFFFFFFFFFFE0098
:104270000003FFFFFFFFFFFFFFFFFFFF8001FFFFC6
:10428000FFFFFFFFFFFFFFFE7FFFF3FFFFFFFFFFCB
:10429000FFFFFFFFFFE01FFFFFFFFFFFFFFFFFFF2D
:1042A000FE7FFFFFFFFFFFFFFFFFFFFFFFFFFFFF9F
:1042B000FFFFFFFFFFFFFFFFFFFE1FFFFFFFFFFFEF
:1042C000FFFFFFFFFFFFFFFFFFFFFFFFFFFFFFFFFE
:1042D000FFFFFE07FFFFFFFFFFFFFFFFFFFFFFFFE7
:1042E000FFFFFFFFFFFFFFFFFFFFFFFF87FFFFFF56
:1042F000FFFFFFFFFFFFFFFFFFFFFFFFFFFFFFFFCE
:10430000FFFFFFFFFFFFFFFFFFFFFFFFFFFFFFFFBD
:10431000FFFFFFFFFFFFFFFFFFFFFFFFFFFFFFFFAD
:10432000FFFFFFFFFFFFFFFFFFFFFFFFFFFFFFFF9D
:10433000FFFFFFFFFFFFFFFFFFFFFFFFFFFFFFFF8D
:10434000FFFFFFFFFFFFFFFFFFFFFFFFFFFFFFFF7D
:10435000FFFFFFFFFFFFFFFFFFFFFFFFFFFFFFFF6D
:10436000FFFFFFFFFFFFFFFFFFFFFFFFFFFFFFFF5D
:10437000FFFFFFFFFFFFFFFFFFFFFFFFFFFFFFFF4D
:10438000FFFFFFFFFFFFFFFFFFFFFFFFFFFFFFFF3D
:10439000FFFFFFFFFFFFFFFFFFFFFFFFFFFFFFFF2D
:1043A000FFFFFFFFFFFFFFFFFFFFFFFFFFFFFFFF1D
:1043B000FFFFFFFFFFFFFFFFFFFFFFFFFFFFFFFF0D
:1043C000FFFFFFFFFFFFFFFFFFFFFFFFFFFFFFFFFD
:1043D000FFFFFFFFFFFFFFFFFFFFFFFFFFFFFFFFED
:1043E000FFFFFFFFFFFFFFFFFFFFFFFFFFFFFFFFDD
:1043F000FFFFFFFFFFFFFFFFFFFFFFFFFFFFFFFFCD
:10440000FFFFFFFFFFFFFFFFFFFFFFFFFFFFFFFFBC
:10441000FFFFFFFFFFFFFFFFFFFFFFFFFFFFFFFFAC
:10442000FFFFFFFFFFFFFFFFFFFFFFFFFFFFFFFF9C
:10443000FFFFFFFFFFFFFFFFFFFFFFFFFFFFFFFF8C
:10444000FFFFFFFFFFFFFFFFFFFFFFFFFFFFFFFF7C
:10445000FFFFFFFFFFFFFFFFFFFFFFFFFFFFFFFF6C
:10446000FFFFFFFFFFFFFFFFFFFFFFFFFFFFFFFF5C
:10447000FFFFFFFFFFFFFFFFFFFFFFFFFFFFFFFF4C
:10448000FFFFFFFFFFFFFFFFFFFFFFFFFFFFFFFF3C
:10449000FFFFFFFFFFFFFFFFFFFFFFFFFFFFFFFF2C
:1044A000FFFFFFFFFFFFFFFFFFFFFFFFFFFFFFFF1C
:1044B000FFFFFFFFFFFFFFFFFFFFFFFFFFFFFFFF0C
:1044C000FFFFFFFFFFFFFFFFFFFFFFFFFFFFFFFFFC
:1044D000FFFFFFFFFFFFFFFFFFFFFFFFFFFFFFFFEC
:1044E000FFFFFFFFFFFFFFFFFFFFFFFFFFFFFFFFDC
:1044F000FFFFFFFF000000000000000000000000C0
:1045000000000000000000000000000000000000AB
:10451000000000000000000000000000000000009B
:10452000000000000000000000000000000000008B
:10453000000000000000000000000000000000007B
:104710000000200000000000000000000000000079
:1047200000000000000000000000003C000000004D
:104730000000000000000000000000000000000079
:10474000000000003F8000000000000000000000AA
:10475000000000000000000000000000003FE0003A
:104760000000000000000000000000000000000049
:104770000000000000003FF8000000000000000002
:104780000000000000000000000000000000000F1A
:10479000FF0000000000000000000000000000001A
:1047A000000000000000000001FFC0000000000049
:1047B00000000000000000000000000000000000F9
:1047C00000003FF8000000000000000000000000B2
:1047D00000000000000000000000000FFC000000CE
:1047E00000000000000000000000000000000000C9
:1047F00000000007FFFF00000000000000000000B4
:104800000000000000000000000000003FFFFF80EB
:104810000000000000000000000000000000000098
:1048200000000000003FFFFF8000000000000000CB
:1048300000000000000000000000000000003FF049
:1048400007800000000000000000000000000000E1
:10485000000000000000003F000780000000000092
:104860000000000000000000000000000000000048
:104870002000078000000000000000000000000091
:1048800000000000000000000000000180000000A7
:104890000000000000000000000000000000000018
:1048A0000000000000000000000000000000000008
:1048B00000000000000000000000000000000000F8
:1048C00000000000000000000000000000000000E8
:1048D000000000000FFC400000000000000000008D
:1048E000000000000000000000000000001FFFC0EA
:1048F000000000000000000000003FFFFFFFFFFF7E
:10490000FFFFFFFF80003FFFC0000000000000002D
:104910000000002000000000000000000080003FB8
:10492000FFC00000000000000000000020000000A8
:1049300000000000000080003DFFC00000000000FB
:1049400000000000002000000000000000000080C7
:104950000038C70000000000000000000000200038
:104960000000000000000000800038E3800000002C
:104970000000000000000020000000000000000017
:104980000080003CE1C000000000000000000000CA
:104990002000000000000000000080003EF3C00086
:1049A00000000000000000000020000000000000E7
:1049B00000000080001EFFC000000000000000009A
:1049C00000002000000000000000000080001E7FAA
:1049D000C0000000000000000000002000000000F7
:1049E00000000000008000067FC000000000000002
:1049F0000000000020000000000000000000800017
:104A0000003F8000000000000000000000200000C7
:104A10000000000000000080000002000000000014
:104A20000000000000002000000000000000000066
:104A3000803E000000000000000000000000002098
:104A4000000000000000000000803FFF00000000A8
:104A50000000000000000000200000000000000036
:104A60000000803FFFFC000000000000000000008C
:104A7000002000001FFFFFFFFFF800803FFFFFC086
:104A8000000000000000000000002000001FFFFFE9
:104A9000FFFFF800801FFFFFC000000000000000C3
:104AA0000000002000001FFFFFFFFFF80080007FD4
:104AB000FFC0000000000000000000002000001FF8
:104AC000FFFFFFFFF8008000003FC0000000000073
:104AD00000000000002000001FFFFFFFFFF8008023
:104AE000000000C0000000000000000000002000E6
:104AF000001FFFFFFFFFF800800000000000000023
:104B0000000000000000002000001FFFFFFFFFF872
:104B100000800007F000000000000000000000001E
:104B20002000001FFFFFFFFFF80080001FFE0000B5
:104B30000000000000000000002000001FFFFFFF39
:104B4000FFF80080003FFF000000000000000000B0
:104B500000002000001FFFFFFFFFF80080003FFF64
:104B600080000000000000000000002000001FF88E
:104B700000001FF80080003FFFC0000000000000A0
:104B8000000000002000001FF800001FF800800057
:104B90003E0FC000000000000000000000200000E8
:104BA0001FF800001FF80080003E07C00000000052
:104BB0000000000000002000001FF800001FF800A7
:104BC00080001E03C0000000000000000000002064
:104BD00000001FF800001FF80080000E03C0000056
:104BE00000000000000000002000001FF800001F6F
:104BF000F80080003F87C0000000000000000000B7
:104C0000002000001FF800001FF80080003FFF0098
:104C1000000000000000000000002000001FF8005D
:104C2000001FF80080003FFFFC00000000000000B3
:104C30000000002000001FF800001FF80080003F67
:104C4000FFFF800000000000000000002000001FA7
:104C5000F800001FF80080003FFFFF800000000008
:104C600000000000002000001FF800001FF8008076
:104C700000003FFF80000000000000000000200056
:104C8000001FF800001FF80080000000FF800000F7
:104C9000000000000000002000001FF800001FF8C6
:104CA0000080000000000000000000000000000084
:104CB0002000001FF800001FF80080000E00000018
:104CC0000000000000000000002000001FF80000AD
:104CD0001FF80080001E3E000000000000000000E1
:104CE00000002000001FF800001FF80080003E7F39
:104CF00080000000000000000000002000001FF8FD
:104D000000001FF80080003EFF800000000000004F
:104D1000000000002000001FF800001FF8008000C5
:104D200038FFC0000000000000000000002000006C
:104D30001FF800001FF800800038FFC000000000CE
:104D40000000000000002000001FF800001FF80015
:104D5000800039F1C00000000000000000000020C9
:104D600000001FF8000000000080003FF1C00000BC
:104D700000000000000000002003FE00001FF800FB
:104D8000000080001FF1C0000000000000000000D3
:104D9000002003FE00001FF800000080001FF7C085
:104DA000000000000000000000002003FE00001FC3
:104DB000F800000080000FE7C000000000000000C5
:104DC0000000002003FE00001FF800000080000724
:104DD000C780000000000000000000002003FE006B
:104DE000001FF80000008000000700000000000025
:104DF00000000000002003FE00001FF800000080FB
:104E0000000000000000000000000000000020037F
:104E1000FE00001FF8000000803E000000000000BF
:104E2000000000000000002003FE00001FF800004A
:104E300000803E3FC00000000000000000000000B5
:104E40002003FE00001FF8000000803E3FFF00002E
:104E50000000000000000000002003FE00001FF81A
:104E60001FF800803E3FFFC000000000000000006F
:104E700000002003FE00001FF81FF800800E3FFF17
:104E8000C0000000000000000000002003FE000041
:104E90001FF81FF80080000FFFC000000000000096
:104EA000000000002003FE00001FF81FF800800033
:104EB000001FC0000000000000000000002003FEF2
:104EC00000001FF81FF80080000000000000000034
:104ED0000000000000002003FE00001FF81FF80083
:104EE00080000000000000000000FFFFFFFFFFDF68
:104EF000FC01FFFFE007E007FF7FFFFFFFFFFFFF71
:104F0000FFFFFFFFFFFFFFFFDFFC01FFFFE007E008
:104F100007FF7FFF001FFFFFFFFFFFFFFFFFFFFFF8
:104F2000FFDFFC01FFFFE007E007FF7FFC0007FF5A
:104F3000FFFFFFFFFFFFFFFFFFFFDFFC01FFFFE0C1
:104F400007E007FF7FF80003FFFFFFFFFFFFFFFF02
:104F5000FFFFFFDFFC01FFFFE007E007FF7FF0003E
:104F600001FFFFFFFFFFFFFFFFFFFFFFDFFC000070
:104F7000000007E007FF7FF07FC07FFFFFFFFFFF1C
:104F8000FFFFFFFFFFDFFC0000000007E007FF7FDF
:104F9000F0E0603FFFFFFFFFFFFFFFFFFFFFDFFCD1
:104FA0000000000007E007FF7FF080103FFFFFFFD9
:104FB000FFFFFFFFFFFFFFDFFC0000000007E0072F
:104FC000FF7FF08F083FFFFFFFFFFFFFFFFFFFFFA7
:104FD000DFFC0000000007E007FF7FF09FC43FFFF9
:104FE000FFFFFFFFFFFFFFFFFFDFFC0000000007E8
:104FF000E007FF7FF09FE43FFFFFFFFFFFFFFFFFA2
:10500000FFFFDFFC0000000007E007FF7FF09FE4E8
:105010003FFFFFFFFFFFFFFFFFFFFFDFFC00000080
:105020000007E007FF7FF09FE43FFFFFFFFFFFFF68
:10503000FFFFFFFFDFFC0000000007E007FF7FF03D
:1050400007E43FFFFFFFFFFFFFFFFFFFFFDFFC0065
:1050500000000007E007FF7FF000E43FFFFFFFFFD5
:10506000FFFFFFFFFFFFDFFFFFFFFFFFFFE007FF87
:105070007FF000043FFFFFFFFFFFFFFFFFFFFFDFA9
:10508000FFFFFFFFFFFFE007FF7FF000003FFFFF94
:10509000FFFFFFFFFFFFFFFFDFFFFFFFFFFFFFE05F
:1050A00007FF7FFF80003FFFFFFFFFFFFFFFFFFFC6
:1050B000FFDFFFFFFFFFFFFFE007FF7FFFFC003F79
:1050C000FFFFFFFFFFFFFFFFFFFFDFFFFFFFFFFF10
:1050D000FFE007FF7FFFFFE03FFFFFFFFFFFFFFF56
:1050E000FFFFFFDFFFFFFFFFFFFFE007FF7FFFFF87
:1050F000FFFFFFFFFFFFFFFFFFFFFFFFDFFFFFFFE0
:10510000FFFFFFE007FF7FFFFE1FFFFFFFFFFFFF27
:10511000FFFFFFFFFFDFFFFFFFFFFFFFE007FF7F56
:10512000FFF803FFFFFFFFFFFFFFFFFFFFFFDFFFB2
:10513000FFFFFFFFFFE007FF7FFFF000FFFFFFFF24
:10514000FFFFFFFFFFFFFFDFFFFFE00000000007A2
:10515000FF7FFFE0007FFFFFFFFFFFFFFFFFFFFF7D
:10516000DFFFFFE00000000007FF7FFFE0007FFFA0
:10517000FFFFFFFFFFFFFFFFFFDFFFFFE00000007B
:105180000007FF7FFFE1F83FFFFFFFFFFFFFFFFF8B
:10519000FFFFDFFFFFE00000000007FF7FFFE3FEEF
:1051A0003FFFFFFFFFFFFFFFFFFFFFDFFFFFE0000D
:1051B00000000007FF7FFFE3FF1FFFFFFFFFFFFF70
:1051C000FFFFFFFFDFFFFFE00000000007FF7FFFA2
:1051D000E3FF1FFFFFFFFFFFFFFFFFFFFFDFFFFFFB
:1051E000E00000000007FF7FFFE1FF1FFFFFFFFF60
:1051F000FFFFFFFFFFFFDFFFFFE00000000007FFF2
:105200007FFFE0FF1FFFFFFFFFFFFFFFFFFFFFDF4D
:10521000FFFFE00000000007FF7FFFF07E1FFFFFA1
:10522000FFFFFFFFFFFFFFFFDFFFFFE000000000C9
:1052300007FF7FFFF0001FFFFFFFFFFFFFFFFFFFE4
:10524000FFDFFFFFE00000000007FF7FFFF8003FE7
:10525000FFFFFFFFFFFFFFFFFFFFDFFFFFE000009B
:10526000000007FF7FFFFE003FFFFFFFFFFFFFFF84
:10527000FFFFFFDFFFFFFFFFFFFFFFFFFF7FFFFFDE
:1052800000FFFFFFFFFFFFFFFFFFFFFFDFFFFFFF4D
:10529000FFFFFFFFFFFF7FFFFFFFFFFFFFFFFFFF9E
:1052A000FFFFFFFFFFDFFFFFFFFFFFFFFFFFFF7FAE
:1052B000FFFFFFFFFFFFFFFFFFFFFFFFFFFFDFFF1E
:1052C000FFFFFFFFFFFFFFFF7FFFFC0FFFFFFFFF61
:1052D000FFFFFFFFFFFFFFDFFFFFFFFFFFFFFFFFFE
:1052E000FF7FFFF801FFFFFFFFFFFFFFFFFFFFFF53
:1052F000DFFFFFFFFFFFFFFFFFFF7FFFF000FFFF6C
:10530000FFFFFFFFFFFFFFFFFFDFFFFFFFFFFFFFCD
:10531000FFFFFF7FFFE0007FFFFFFFFFFFFFFFFFBB
:10532000FFFFDFFFFFFFFFFFFFFFFFFF7FFFE0E06B
:105330003FFFFFFFFFFFFFFFFFFFFFDFFFFFFFFF5D
:10534000FFFFFFFFFF7FFFE3FC3FFFFFFFFFFFFFCC
:10535000FFFFFFFFDFFFFFFFFFFFFFFFFFFF7FFFFD
:10536000E3FE1FFFFFFFFFFFFFFFFFFFFFDFFFFF6A
:10537000FFFFFFFFFFFFFF7FFFE3FF1FFFFFFFFFB9
:10538000FFFFFFFFFFFFDFFFFFFFFFFFFFFFFFFF4D
:105390007FFFE3FF1FFFFFFFFFFFFFFFFFFFFFDFB9
:1053A000FFFFFFFFFFFFFFFFFF7FFFE1FF1FFFFF8B
:1053B000FFFFFFFFFFFFFFFFDFFFFFFFFFFFFFFF1D
:1053C000FFFF7FFFE0FE1FFFFFFFFFFFFFFFFFFF6D
:1053D000FFDFFFFFFFFFFFFFFFFFFF7FFFF01C1F4F
:1053E000FFFFFFFFFFFFFFFFFFFFDFFFFFFFFFFFED
:1053F000FFFFFFFF7FFFF8001FFFFFFFFFFFFFFF23
:10540000FFFFFFDFFFFFFFFFFFFFFFFFFF7FFFFC4F
:10541000003FFFFFFFFFFFFFFFFFFFFFDFFFFFFF7B
:10542000FFFFFFFFFFFF7FFFFE007FFFFFFFFFFF8C
:10543000FFFFFFFFFFC00000000000000000007F32
:10544000FFFF80FFFFFFFFFFFFFFFFFFFFFFFFFFEB
:10545000FFFFFFFFFFFFFFFFFFFFFFFFFFFFFFFF5C
:10546000FFFFFFFFFFFFFFFFFFFFFFFFFFFFFFFF4C
:10547000FFFFFFFFFFFFFFFFFFFFFFFFFFFFFFFF3C
:10548000FFFFFFFFFFFFFFFFFFFFFFFF1E7FFFFF8D
:10549000FFFFFFFFFFFFFFFFFFFFFFFFFFFFFFFF1C
:1054A000FFFFFFFFFE1E07FFFFFFFFFFFFFFFFFFE6
:1054B000FFFFFFFFFFFFFFFFFFFFFFFFFFFC1E00DF
:1054C000FFFFFFFFFFFFFFFFFFFFFFFFFFFFFFFFEC
:1054D000FFFFFFFFFFFFF80E007FFFFFFFFFFFFF53
:1054E000FFFFFFFFFFFFFFFFFFFFFFFFFFFFFFF8D3
:1054F0003E007FFFFFFFFFFFFFFFFFFFFFFFFFFFFC
:10550000FFFFFFFFFFFFFFFFF87E203FFFFFFFFFD2
:10551000FFFFFFFFFFFFFFFFFFFFFFFFFFFFFFFF9B
:10552000FFF87E3C3FFFFFFFFFFFFFFFFFFFFFFF96
:10553000FFFFFFFFFFFFFFFFFFFFF8FE3E3FFFFF04
:10554000FFFFFFFFFFFFFFFFFFFFFFFFFFFFFFFF6B
:10555000FFFFFFF8FE3E1FFFFFFFFFFFFFFFFFFF04
:10556000FFFFFFFFFFFFFFFFFFFFFFFFF8FE3E1FF4
:10557000FFFFFFFFFFFFFFFFFFFFFFFFFFFFFFFF3B
:10558000FFFFFFFFFFF87FFF1FFFFFFFFFFFFFFF92
:10559000FFFFFFFFFFFFFFFFFFFFFFFFFFFFF87FA2
:1055A000FF1FFFFFFFFFFFFFFFFFFFFFFFFFFFFFEB
:1055B000FFFFFFFFFFFFFFF87FFF1FFFFFFFFFFF62
:1055C000FFFFFFFFFFFFFFFFFFFFFFFFFFFFFFFFEB
:1055D000FC3FFE1FFFFFFFFFFFFFFFFFFFFFFFFF7F
:1055E000FFFFFFFFFFFFFFFFFFFC1FFE1FFFFFFF8F
:1055F000FFFFFFFFFFFFFFFFFFFFFFFFFFFFFFFFBB
:10560000FFFFFE07FC3FFFFFFFFFFFFFFFFFFFFF66
:10561000FFFFFFFFFFFFFFFFFFFFFFFF00603FFFF8
:10562000FFFFFFFFFFFFFFFFFFFFFFFFFFFFFFFF8A
:10563000FFFFFFFFFF80003FFFFFFFFFFFFFFFFFB8
:10564000FFFFFFFFFFFFFFFFFFFFFFFFFFFFC000A8
:105650007FFFFFFFFFFFFFFFFFFFFFFFFFFFFFFFDA
:10566000FFFFFFFFFFFFFFF800FFFFFFFFFFFFFF50
:10567000FFFFFFFFFFFFFFFFFFFFFFFFFFFFFFFF3A
:10568000FE07FFFFFFFFFFFFFFFFFFFFFFFFFFFF23
:10569000FFFFFFFFFFFFFFFFFFFFFFFFFFFFFFFF1A
:1056A000FFFFFFFFFFFFFFFFFFFFFFFFFFFFFFFF0A
:1056B000FFFFFFFFFFFFFFFFFFFFFFFFFFFFFFFFFA
:1056C000FFFFFFFFFFFFFFFFFFFFFFFFFFFFFFFFEA
:1058F000F0003FFFFFFFFFFFFFFFFFFFFFFFFFFF86
:10590000FFFFFFFFFFFFFF0003F0003FFFFFFFFF70
:10591000FFFFFFFFFFFFFFFFFFFFFFFFFFFFFFE0B6
:10592000000070003FFFFFFFFFFFFFFFFFFFFFFFD3
:10593000FFFFFFFFFFFFFFFF80000070003FFFFF42
:10594000FFFFFFFFFFFFFFFFFFFFFFFFFFFFFFFF67
:10595000FE00000000003FFFFFFFFFFFFFFFFFFF13
:10596000FFFFFFFFFFFFFFFFFFFC00000000003F05
:10597000FFFFFFFFFFFFFFFFFFFFFFFFFFFFFFFF37
:10598000FFFFF000000000003FFFFFFFFFFFFFFFF1
:10599000FFFFFFFFFFFFFFFFFFFFFFC00000000052
:1059A000003FFFFFFFFFFFFFFFFFFFFFFFFFFFFFC6
:1059B000FFFFFFFF8000000000003FFFFFFFFFFF31
:1059C000FFFFFFFFFFFFFFFFFFFFFFFFFE000000E5
:1059D0000000003FFFFFFFFFFFFFFFFFFFFFFFFF94
:1059E000FFFFFFFFFFF80000000000003FFFFFFF88
:1059F000FFFFFFFFFFFFFFFFFFFFFFFFFFFFF000C5
:105A000000000000003FFFFFFFFFFFFFFFFFFFFF61
:105A1000FFFFFFFFFFFFFFC00000000000003FFF8F
:105A2000FFFFFFFFFFFFFFFFFFFFFFFFFFFFFFFF86
:105A30000001F0000000003FFFFFFFFFFFFFFFFF3E
:105A4000FFFFFFFFFFFFFFFFFE0007F00000000069
:105A50003FFFFFFFFFFFFFFFFFFFFFFFFFFFFFFF16
:105A6000FFF8000FF0000000003FFFFFFFFFFFFF07
:105A7000FFFFFFFFFFFFFFFFFFFFE0003FF0000021
:105A800000003FFFFFFFFFFFFFFFFFFFFFFFFFFFE4
:105A9000FFFFFFC0007FF0000000003FFFFFFFFF9F
:105AA000FFFFFFFFFFFFFFFFFFFFFFFF0001FFF012
:105AB000000000003FFFFFFFFFFFFFFFFFFFFFFFB2
:105AC000FFFFFFFFFE0003FFF0000000003FFFFFAD
:105AD000FFFFFFFFFFFFFFFFFFFFFFFFFFF8000FCC
:105AE000FFF0000000003FFFFFFFFFFFFFFFFFFF91
:105AF000FFFFFFFFFFFFE0003FFFF0000000003F5F
:105B0000FFFFFFFFFFFFFFFFFFFFFFFFFFFFFFC0E4
:105B1000007FFFF0000000003FFFFFFFFFFFFFFFDF
:105B2000FFFFFFFFFFFFFFFF0001FFFFF00000008E
:105B3000003FFFFFFFFFFFFFFFFFFFFFFFFFFFFF34
:105B4000FC0007FFFFF0000000003FFFFFFFFFFF2A
:105B5000FFFFFFFFFFFFFFFFFFF8000FFFFFF00059
:105B60000000003FFFFFFFFFFFFFFFFFFFFFFFFF02
:105B7000FFFFE0003FFFFFF0000000003FFFFFFFDE
:105B8000FFFFFFFFFFFFFFFFFFFFFF80007FFFFF23
:105B9000F0000000003FFFFFFFFFFFFFFFFFFFFFE0
:105BA000FFFFFFFF0001FFFFFFF0000000003FFFCD
:105BB000FFFFFFFFFFFFFFFFFFFFFFFFFC0007FFEF
:105BC000FFFFF0000000003FFFFFFFFFFFFFFFFFB0
:105BD000FFFFFFFFFFF0000FFFFFFFF000000000DE
:105BE0007FFFFFFFFFFFFFFFFFFFFFFFFFFFF00053
:105BF0003FFFFFFFF000000001FC7FFFFFFFFFFF02
:105C0000FFFFFFFFFFFFFFE000FFFFFFFFF00000CF
:105C10000007C007FFFFFFFFFFFFFFFFFFFFFFFFC2
:105C2000C001FFFFFFFFF00000000F0001FFFFFFBA
:105C3000FFFFFFFFFFFFFFFFFFC007FFFFFFFFF0BA
:105C40000000001E00007FFFFFFFFFFFFFFFFFFFC0
:105C5000FFFFC01FFFFFFFFFF00000003C00003F00
:105C6000FFFFFFFFFFFFFFFFFFFFFFC03FFFFFFF43
:105C7000FFF00000003800001FFFFFFFFFFFFFFFE5
:105C8000FFFFFFFFC03FFFFFFFFFF00000007000BD
:105C9000001FFFFFFFFFFFFFFFFFFFFFFFC07FFFB2
:105CA000FFFFFFF00000006003800FFFFFFFFFFF1A
:105CB000FFFFFFFFFFFFC07FFFFFFFFFF0000000BF
:105CC000E00FE007FFFFFFFFFFFFFFFFFFFFFFC049
:105CD0007FFFFFFFFFF0000000C01FF807FFFFFF7E
:105CE000FFFFFFFFFFFFFFFFC07FFFFFFFFFF00091
:105CF0000001C03FFC07FFFFFFFFFFFFFFFFFFFFAB
:105D0000FFC07FFFFFFFFFF0000001C07FFC03FF2B
:105D1000FFFFFFFFFFFFFFFFFFFFC07FFFFFFFFF52
:105D2000F0000001C07FFC03FFFFFFFFFFFFFFFF4C
:105D3000FFFFFFC07FFFFFFFFFF0000001807FFE3D
:105D400003FFFFFFFFFFFFFFFFFFFFFFC07FFFFF1E
:105D5000FFFFF0000001807FFE03FFFFFFFFFFFF5A
:105D6000FFFFFFFFFFC07FFFFFFFFFF0000001808C
:105D70007FFE03FFFFFFFFFFFFFFFFFFFFFFC07F6F
:105D8000FFFFFFFFF0000001807FFC03FFFFFFFF2C
:105D9000FFFFFFFFFFFFFFC07FFFFFFFFFF00000DF
:105DA00001C07FFC03FFFFFFFFFFFFFFFFFFFFFFBF
:105DB000C07FFFFFFFFFF0000001C03FFC03FFFFBB
:105DC000FFFFFFFFFFFFFFFFFFC07FFFFFFFFFF0B1
:105DD000000000C01FF807FFFFFFFFFFFFFFFFFFEE
:105DE000FFFFC07FFFFFFFFFF0000000C00FE007D4
:105DF000FFFFFFFFFFFFFFFFFFFFFFC07FFFFFFF72
:105E0000FFF0000000E001800FFFFFFFFFFFFFFF3A
:105E1000FFFFFFFFC07FFFFFFFFFE00000007000FB
:105E2000000FFFFFFFFFFFFFFFFFFFFFFFC03FFF70
:105E3000FFFFFFC00000007000001FFFFFFFFFFF1B
:105E4000FFFFFFFFFFFFC000000000000000000098
:105E50003800003FFFFFFFFFFFFFFFFFFFFFFFC016
:105E60000000000000000000001C00007FFFFFFF9A
:105E7000FFFFFFFFFFFFFFFFC0000000000000006A
:105E800000000E0000FFFFFFFFFFFFFFFFFFFFFF0F
:105E9000FFC0000000000000000000078003FFFFBB
:105EA000FFFFFFFFFFFFFFFFFFFFC000000000003C
:105EB0000000000003E00FFFFFFFFFFFFFFFFFFFF9
:105EC000FFFFFFC000000000000000000000FFFF17
