:020000040800F2
:1000000020C30020390A00080F0600081106000866
:1000100015060008190600081D060008000000006B
:1000200000000000000000000000000021060008A1
:100030002306000800000000250600082706000827
:10004000530A0008530A0008530A0008530A00081C
:10005000530A0008530A0008530A0008530A00080C
:10006000530A0008530A0008530A0008530A0008FC
:10007000530A0008530A0008530A0008530A0008EC
:10008000530A0008530A0008530A0008530A0008DC
:10009000530A0008530A0008530A0008530A0008CC
:1000A000530A0008530A0008530A0008530A0008BC
:1000B000530A0008530A0008530A0008530A0008AC
:1000C000530A0008530A0008530A0008530A00089C
:1000D000530A0008AD090008530A0008530A000833
:1000E000530A0008530A0008530A0008530A00087C
:1000F000530A0008530A0008530A0008530A00086C
:10010000530A0008530A0008530A0008530A00085B
:10011000530A0008530A0008530A0008530A00084B
:10012000530A0008530A0008530A0008530A00083B
:1001300000F002F800F03AF80AA090E8000C8244BF
:100140008344AAF10107DA4501D100F02FF8AFF29C
:10015000090EBAE80F0013F0010F18BFFB1A43F0A5
:1001600001031847F41D0100141E0100103A24BFBA
:1001700078C878C1FAD8520724BF30C830C144BF0C
:1001800004680C607047000000230024002500264E
:10019000103A28BF78C1FBD8520728BF30C148BFEA
:1001A0000B6070471FB51FBD10B510BD02F076FA89
:1001B0001146FFF7F7FF00F009F802F094FA03B4D4
:1001C000FFF7F2FF03BC00F097FB00000EB500F054
:1001D00019FB00F08BFB01F049FB17E201F0A4FAD8
:1001E000FE4801F0F6FA01F0E1FA022000F069FBA6
:1001F00001F09AFA01F013FB01F0D8FA022000F0A6
:1002000060FBFF2000234FF4F0724FF44871009020
:10021000F34801F0D3FBF24801F00DFC01F084FA41
:10022000FF2001F0C3FC0120034600220A210090B8
:10023000052001F0F0FC012002230022192100908A
:10024000052001F0E8FC0120032300222821009072
:10025000052001F0E0FC012004230022372100905A
:10026000052001F0D8FC0120002100913C2346220A
:10027000CDE901100A21142001F01FFD0120002109
:1002800000913C231422CDE901100A21462001F0FF
:1002900014FD01200022CDE900203723AA220F21DE
:1002A0000290104601F009FD01200022CDE9002056
:1002B0002323BE2219460290962001F0FEFC012065
:1002C000002100913C234622CDE901100A2114208F
:1002D00001F071FD01200022CDE900203C238222A3
:1002E0000A210290552001F066FD012000210B46F5
:1002F0009622CDE900105100084601F0B5FD01201D
:10030000009000239622510001904FF4FA7001F002
:10031000ABFDB34801F0D4F901F048FA022000F037
:10032000D0FA01F001FAFF2001F040FC0020FF218B
:10033000AC4BADA2CDE90010014601F015FF002045
:10034000FF21AD4BA8A2CDE900100A2101F00CFF5E
:100350000020FF21A94BA4A2CDE90010192101F032
:1003600003FF0020FF21A64B9FA2CDE900102D2105
:1003700001F0FAFE0020FF21A24B9BA2CDE9001064
:10038000462101F0F1FE0020FF21964B96A2CDE917
:100390000010C821B42001F0E7FE0020FF21964B99
:1003A00091A2CDE90010D221B42001F0DDFE0020A1
:1003B000FF21924B8CA2CDE90010E121B42001F085
:1003C000D3FE0020FF218E4B87A2CDE90010F5213E
:1003D000B42001F0C9FE0020FF218A4B82A2CDE9A2
:1003E00000104FF48771B42001F0BEFE0020FF2101
:1003F0007C4B7DA2CDE900104FF4BE714FF4FA7032
:1004000001F0B2FE0020FF217B4B77A2CDE9001066
:100410004FF4C3714FF4FA7001F0A6FE0020FF21E3
:10042000764B71A2CDE9001040F295114FF4FA70AD
:1004300001F09AFE0020FF21714B6BA2CDE9001064
:1004400040F2A9114FF4FA7001F08EFE0020FF2156
:100450006C4B65A2CDE900104FF4E1714FF4FA70D6
:1004600001F082FE5E4801F02BF901F09FF90220B5
:1004700000F027FA01F058F9FF2001F097FB002067
:10048000FF21584B604ACDE90010014601F0B2FF50
:100490000020FF21584B5C4ACDE900100A2101F0F1
:1004A000A9FF0020FF21554B574ACDE90010192123
:1004B00001F0A0FF0020FF21514B534ACDE900106D
:1004C0002D2101F097FF0020FF214E4B4E4ACDE930
:1004D0000010462101F08EFF0020FF21414B4A4AC7
:1004E000CDE90010C821DC2001F084FF0020FF21AD
:1004F000414B454ACDE90010D221DC2001F07AFFC2
:100500000020FF213D4B404ACDE90010E121DC20D5
:1005100001F070FF0020FF21394B3B4ACDE900106C
:10052000F521DC2001F066FF0020FF21354B364A23
:10053000CDE900104FF48771DC2001F05BFF002053
:10054000FF21284B304ACDE900104FF4BE714FF423
:10055000FA7001F04FFF0020FF21274B2A4ACDE916
:1005600000104FF4C3714FF4FA7001F043FF002004
:10057000FF21224B244ACDE9001040F295114FF49F
:10058000FA7001F037FF0020FF211D4B1E4ACDE914
:10059000001040F2A9114FF4FA7001F02BFF002077
:1005A000FF21184B184ACDE900104FF4E1714FF4C8
:1005B000FA7001F01FFF0A4801F082F801F0F6F826
:1005C000022000F07EF901F0AFF801F028F901F007
:1005D000EDF8022000F075F900BFFEE7FC260008E8
:1005E0005C00002034000020476F6F642044697372
:1005F000706C6179000000003C0000204400002085
:100600004C0000205400002015CD5B07E6E5704744
:1006100000BFFEE700BFFEE700BFFEE700BFFEE74A
:1006200070477047704770470CB5002001900090EC
:100630006B48006840F480306949086000BF684832
:10064000006800F4003000900198401C0190009870
:1006500018B90198B0F5A06FF1D16148006810F4A5
:10066000003F02D00120009001E00020009000989F
:10067000012842D15B48006840F0100059490860E9
:100680000846006820F0030008600846006840F053
:100690000200086052484068514948600846406876
:1006A00048600846406840F48060486008464068FA
:1006B00020F47C1048600846406840F4E810486028
:1006C0000846006840F08070086000BF4448006839
:1006D00010F0007FFAD04248406820F00300404903
:1006E00048600846406840F00200486000BF3C484F
:1006F000406800F00C000828F9D10CBD10B5FFF7D8
:1007000093FF10BD10B53648006840F00100344931
:100710000860084640683449084031494860084646
:100720000068324908402E4908600846006820F4F5
:10073000802008600846406820F4FE0048604FF4BE
:100740001F008860FFF7DAFF4FF00060284908605B
:1007500010BD10B5002100200022214B5B6803F082
:100760000C0121B1042906D0082928D107E0214B2A
:10077000214C236027E01F4B1F4C236023E0184BC4
:100780005B6803F47010164B5B6803F4803202233D
:1007900003EB904022B9194B4343174C23600DE003
:1007A0000F4B5B6813F4003F04D0144B4343124CCF
:1007B000236003E00F4B43430F4C236003E00D4BDA
:1007C0000D4C236000BF00BF054B5B68C3F30313F0
:1007D0000B4CE15C084B1B68CB40074C236010BD01
:1007E00000100240002002400000FFF8FFFFF6FE6C
:1007F00008ED00E000127A000000002000093D0032
:100800000400002010B56FF0040000F085F93348B3
:1008100000683349B0FBF1F03249087008460078AF
:1008200000EB4001C1EBC0104FF6FF7101EAC000C0
:100830002D49088010BD01462A4A12784A434FF0DC
:10084000E0235A6100229A611A46126942F00102BD
:100850001A6100BF4FF0E022106910F0010F02D0C2
:1008600010F4803FF6D04FF0E022126922F001022E
:100870004FF0E0231A6100229A61704701461A4A3C
:1008800012884A434FF0E0235A6100229A611A46C7
:10089000126942F001021A6100BF4FF0E0221069B4
:1008A00010F0010F02D010F4803FF6D04FF0E0229C
:1008B000126922F001024FF0E0231A6100229A61CE
:1008C000704730B50446002505E04FF47A70FFF715
:1008D000D5FF681C85B2A542F7DB30BD00000020C3
:1008E00000127A00140000201600002010B54FF40A
:1008F000A06000F0C1F810BD014600BF704700BF06
:10090000494A128812F0400FFAD0C2B2464B1B1D62
:100910001A80704710B586B00446012144F20500E4
:1009200000F02EFC4FF40070ADF8140003208DF899
:10093000160018208DF8170005A93C4800F06AF948
:100940004FF48060ADF8140004208DF8170005A95D
:10095000364800F05FF925208DF8000003208DF85F
:1009600001008DF8020001208DF80300684600F0B8
:1009700088F801940020ADF80800ADF80A00ADF841
:100980000C00ADF810000C20ADF80E0001A92648AF
:1009900000F0A1FC012240F22551234800F033FD74
:1009A0000121214800F023FD06B010BD10B540F232
:1009B00025511D4800F00CFE10B31B4800F088FDC7
:1009C000C4B21B48008810F4004F2BD1184800888F
:1009D00010F4804F0CD00A2C03D00020144908805A
:1009E00020E01348008840F400401149088019E0D5
:1009F0000D2C06D10E48008840F480400C49088038
:100A000010E00B480088C0F30D000A490C54084858
:100A10000088401C0649088008460088C72801DD78
:100A20000020088010BD000000380140000801408F
:100A300018000020DCBB0020094880470948004717
:100A4000FEE7FEE7FEE7FEE7FEE7FEE7FEE7FEE77E
:100A5000FEE7FEE704480549054A064B70470000DB
:100A6000050700083101000820BD002020C3002038
:100A700020BF002020BF002031490143314A1160CE
:100A8000704770B5002100230F22C4780CB32D4CA1
:100A9000246804F4E064C4F5E064210AC1F10403AD
:100AA000CA40447804FA03F18478144021430901D0
:100AB000254C0678A155047804F01F050124AC40AC
:100AC00005786D114FF0E02606EB8505C5F800416D
:100AD00009E0047804F01F050124AC401B4D0678A2
:100AE000761145F8264070BD194A0A400243154B5D
:100AF0001B1F1A60704739B1124A121D1268024357
:100B0000104B1B1D1A6006E00E4A121D126882432C
:100B10000C4B1B1D1A607047042808D14FF0E021D0
:100B2000096941F004014FF0E022116107E04FF044
:100B3000E021096921F004014FF0E02211617047C2
:100B40000000FA050CED00E000E400E080E100E0C8
:100B500080FFFF1F10B50446CA48844208D1012116
:100B6000042000F027FB0021042000F023FB46E0D6
:100B7000C548844208D10121082000F01BFB002158
:100B8000082000F017FB3AE0C048844208D1012158
:100B9000102000F00FFB0021102000F00BFB2EE0D6
:100BA000BB48844208D10121202000F003FB002132
:100BB000202000F0FFFA22E0B648844208D101214B
:100BC000402000F0F7FA0021402000F0F3FA16E090
:100BD000B148844208D10121802000F0EBFA0021C5
:100BE000802000F0E7FA0AE0AC48844207D10121F6
:100BF000801500F0DFFA0021A01500F0DBFA10BD2F
:100C000010B50121084600F0D5FA0021012000F0BE
:100C1000D1FA10BD2DE9F041024600250026002042
:100C200000230024002791F803C00CF00F0591F871
:100C300003C01CF0100F03D091F802C04CEA050568
:100C400091F800C0BCF1000F31D0146800202BE0F7
:100C50004FF0010C0CFA00F3B1F800C00CEA0306E7
:100C60009E4220D183004FF00F0C0CFA03F7BC43D7
:100C700005FA03FC4CEA040491F803C0BCF1280F08
:100C800006D14FF0010C0CFA00FCC2F814C00AE0C7
:100C900091F803C0BCF1480F05D14FF0010C0CFADC
:100CA00000FCC2F810C0401C0828D1D31460B1F871
:100CB00000C0BCF1FF0F34DD546800202EE000F1CD
:100CC000080C4FF0010808FA0CF3B1F800C00CEA68
:100CD00003069E4221D183004FF00F0C0CFA03F75C
:100CE000BC4305FA03FC4CEA040491F803C0BCF1D0
:100CF000280F05D100F1080C08FA0CF8C2F814808E
:100D000091F803C0BCF1480F07D100F1080C4FF077
:100D1000010808FA0CF8C2F81080401C0828CED34D
:100D20005460BDE8F0814FF6FF71018002218170AF
:100D30000421C17070470246002093680B4201D025
:100D4000012000E0002070470146886880B27047AB
:100D500002460020D3680B4201D0012000E00020B1
:100D600070470146C86880B27047016170474161B1
:100D700070470AB1016100E041617047C16070478E
:100D80004FF480320A4382618161826182698269A3
:100D9000704702460020424B18684FF68073184097
:100DA00040EA021008433E4B186070473D49C86155
:100DB0007047F0B50A46002300240021002500F00A
:100DC0000046B6F1004F02D1354EF16901E0344ED4
:100DD0007168C0F3034583B200F44016B6F5401FB6
:100DE00008D121F070612E4E766826F070662C4F87
:100DF0007E6012E000F48016B6F5801F06D103264F
:100E000006FA05F4A14341F0706106E0460D360193
:100E100003FA06F6B14341F0706122B1460D360186
:100E200003FA06F6314300F00046B6F1004F02D156
:100E30001B4EF16101E01A4E7160F0BD30B5002229
:100E40008B071C0F0F2303FA04F2154B08338C1089
:100E500053F824309343124C08348D1044F8253055
:100E600023468C1053F824308C07240F00FA04F426
:100E700023430B4C08348D1044F8253030BD0A490B
:100E80000860704700080140000C0140001001405C
:100E90000014014000180140001C014000200140E6
:100EA0000000014000002042DC002042DD480068D4
:100EB00040F00100DB49086008464068DA49084014
:100EC000D849486008460068D8490840D5490860B4
:100ED0000846006820F4802008600846406820F436
:100EE000FE0048604FF41F0088607047CD490968D4
:100EF00021F48031CB4A11601146096821F4802128
:100F00001160B0F5803F03D0B0F5802F0ED106E020
:100F1000C449096841F48031C24A116007E0C149FF
:100F2000096841F4A021BF4A116000E000BF00BF82
:100F3000704710B501460022002300204A11012A03
:100F400002D1B84C236806E0022A02D1B54C236ACC
:100F500001E0B44C636A01F01F02012494401C427A
:100F600001D0012000E0002010BD38B50020009025
:100F70000024002500BF3120FFF7DBFF0546009865
:100F8000401C00900098B0F5A06F01D0002DF2D069
:100F90003120FFF7CEFF08B1012400E000242046F5
:100FA00038BD014600209F4A106820F0F80040EA52
:100FB000C100106070479E490860704702460020DB
:100FC000984B586820F47C1042EA01031843954B73
:100FD0005860704796490866704701460020914A5C
:100FE000506820F003000843506070478D48406807
:100FF00000F00C007047014600208A4A506820F03B
:10100000F00008435060704701460020854A506850
:1010100020F4E06008435060704701460020814A98
:10102000506820F4605040EAC1005060704729B118
:101030007C4A527A02437B4B5A7204E0794A527AD4
:101040008243784B5A7270477A490860704701466C
:101050000020744A506820F44040084350607047B4
:101060000021754A11706F4A82F82010012802D0C1
:10107000042808D103E001216F4A117004E0052122
:101080006D4A117000E000BF00BF70476B490860F7
:1010900070476449096A0143624A116270476749AF
:1010A00044390860704730B5002100220024002335
:1010B0005C4D6D6805F00C0121B1042905D00829AB
:1010C00023D105E05E4D056022E05D4D05601FE027
:1010D000544D6D6805F47012524D6D6805F48034FE
:1010E000022505EB92421CB9564D554305600BE0B5
:1010F0004C4D6D6815F4003F03D0524D55430560CB
:1011000002E04F4D5543056002E04D4D056000BFC4
:1011100000BF444D6D6805F0F00109094A4D6B5C54
:101120000568DD4045603F4D6D6805F4E061090AE2
:10113000454D6B5C4568DD4085603A4D6D6805F452
:101140006051C90A404D6B5C4568DD40C560354D56
:101150006D6805F44041890B3C4D6B5CC568B5FB7F
:10116000F3F5056130BD29B12E4A526902432D4B7A
:101170005A6104E02B4A526982432A4B5A617047F4
:1011800029B1284A92690243264B9A6104E0254A14
:1011900092698243234B9A61704729B1214AD269EF
:1011A0000243204BDA6104E01E4AD26982431D4BA0
:1011B000DA61704729B11B4AD2680243194BDA60E1
:1011C00004E0184AD2688243164BDA60704729B1AE
:1011D000144A12690243134B1A6104E0114A12695E
:1011E0008243104B1A6170471449403908607047B8
:1011F0000F49C86470470B49C87170470948406A75
:1012000040F0807007494862704701460020054A57
:1012100092680A4201D0012000E000207047014995
:1012200088727047001002400000FFF8FFFFF6FED2
:1012300000004242D8004242201002408004424254
:1012400000127A0000093D0020000020300000203C
:1012500010B50446FB48844209D101218803FFF7F9
:10126000A9FF00214FF48040FFF7A4FF32E0F648C9
:10127000844209D101214804FFF7A9FF00214FF45E
:101280000030FFF7A4FF25E0F048844209D1012196
:101290008804FFF79CFF00214FF48020FFF797FFA1
:1012A00018E0EB48844209D10121C804FFF78FFF01
:1012B00000214FF40020FFF78AFF0BE0E54884424D
:1012C00008D101210805FFF782FF00214FF48010AB
:1012D000FFF77DFF10BD2DE9F04786B005460E46AD
:1012E0000024A24600BFA1460027B08900B100BF7C
:1012F0002F462C8A4CF6FF700440F08804432C8261
:10130000AC894EF6F3100440B088318908437189E6
:1013100008430443AC81AC8A4FF6FF400440B089D7
:101320000443AC8201A8FFF7BEFEC648874202D143
:10133000DDF810A001E0DDF80CA0A88910F4004F42
:1013400008D00AEBCA0000EB0A1031684900B0FB74
:10135000F1F807E00AEBCA0000EB0A1031688900D7
:10136000B0FBF1F86420B8FBF0F00401200964211F
:1013700001FB1089A88910F4004F08D0322000EB3F
:10138000C900B0FBF1F000F00700044308E0322090
:1013900000EB09106421B0FBF1F000F00F000443F2
:1013A0002C8106B0BDE8F0874FF416510160002192
:1013B0008180C18001810C214181002181817047A0
:1013C00010B502460020108A4FF2FF0318400B8828
:1013D0004C8823438C882343CC88234318431082B2
:1013E00010BD0021018041808180C180704721B102
:1013F000828942F40052828104E082894DF6FF73B3
:101400001A4082817047F0B503460024002600256B
:101410000020A1F510676A3F00D100BF1846C1F354
:10142000421401F01F06012707FA06F5012C01D12D
:101430000C3004E0022C01D1103000E014301AB15D
:1014400007682F43076002E00768AF430760F0BDFD
:101450001AB1838A0B43838202E0838A8B4383829F
:101460007047028A4FF6F0731A400282028A0A43DA
:101470000282704782894FF2FF731A40828182890B
:101480000A438281704721B1828942F0020282813F
:1014900004E082894FF6FD731A4082817047028A08
:1014A0004FF6DF731A400282028A0A4302827047B3
:1014B00021B1028A42F48042028204E0028A4BF6A1
:1014C000FF731A4002827047C1F30802828070479E
:1014D00001468888C0F308007047818941F0010106
:1014E00081817047028BD2B20283028B42EA0122D1
:1014F00002837047028B02F47F420283028B0A430D
:101500000283704721B1828A42F02002828204E085
:10151000828A4FF6DF731A408282704721B1828A35
:1015200042F01002828204E0828A4FF6EF731A4082
:101530008282704721B1828A42F00802828204E0EE
:10154000828A4FF6F7731A408282704721B18289EE
:1015500042F40042828103E08289C2F30E0282815A
:10156000704721B1828A42F40062828204E0828A5A
:101570004FF2FF731A4082827047828A4FF6FB73E4
:101580001A408282828A0A438282704721B1828A0B
:1015900042F00202828204E0828A4FF6FD731A4012
:1015A0008282704702460020B1F5007F00D100BF63
:1015B00013880B4201D0012000E00020704701F4A5
:1015C0000072B2F5007F00D100BFCA4302807047AD
:1015D00070B502460024002300250020A1F5106606
:1015E0006A3E00D100BFC1F3421501F01F0301267E
:1015F00006FA03F3012D02D19689334006E0022D4D
:1016000002D1168A334001E0968A33400C1201263B
:1016100006FA04F41688344013B10CB1012000E03E
:10162000002070BD10B500220023A1F510646A3CB3
:1016300000D100BF0A1201249440A3B2DC4304800D
:1016400010BD000000380140004400400048004048
:10165000004C00400050004006E042F6E06100BF50
:101660000A00A1F10101FBD10200A0F10100F4D1B7
:10167000704710B54FF480417B48FFF778FB0A2094
:10168000FFF7EAFF4FF480417748FFF76EFB0A202F
:10169000FFF7E2FF10BD10B500BF712000F05AF94E
:1016A0004FF400517048FFF746FB044604F0010078
:1016B00080F00104002CF0D1C820FFF7CDFF10BD51
:1016C0002DE9F041074664264FF4F078102000F031
:1016D00041F9002508E0002403E0002000F052F961
:1016E000641CB442F9D36D1C4545F4D3132000F0BB
:1016F00031F900250CE0002407E005FB0641795C88
:10170000C943C8B200F03EF9641CB442F5D36D1C65
:101710004545F0D3122000F01DF90120FFF79CFF92
:10172000FFF7B9FFBDE8F08110B5FFF7A2FF012078
:1017300000F010F9072000F025F9072000F022F949
:101740003F2000F01FF93F2000F01CF9042000F0BA
:1017500001F9FFF7A0FF002000F0FCF81F2000F0C7
:1017600011F9612000F0F6F8032000F00BF92020B9
:1017700000F008F9012000F005F9E02000F002F97E
:10178000152000F0E7F8002000F0FCF8502000F0F1
:10179000E1F8102000F0F6F8072000F0F3F86020E0
:1017A00000F0D8F8222000F0EDF810BD10B5502060
:1017B00000F0D0F8F72000F0E5F8022000F0CAF8B9
:1017C000FFF769FF072000F0C5F8A52000F0DAF860
:1017D00010BD70B50546102000F0BCF8002403E0F1
:1017E000FF2000F0CFF8641C4BF680308442F7D322
:1017F000132000F0AFF8002404E0287800F0C2F8CD
:101800006D1C641C4BF680308442F6D3122000F02D
:10181000A1F80120FFF720FFFFF73DFF70BD10B5D5
:10182000102000F097F8002403E0FF2000F0AAF851
:10183000641C4BF680308442F7D3132000F08AF802
:10184000002403E0002000F09DF8641C4BF680307B
:101850008442F7D3122000F07DF80120FFF7FCFE50
:10186000FFF719FF10BD00000018014008B5012165
:101870006020FFF785FC4FF4E060ADF80000102019
:101880008DF8030002208DF8020069464948FFF7F1
:10189000C1F94FF44040ADF8000010208DF803006E
:1018A00002208DF8020069464348FFF7B3F94FF470
:1018B0000050ADF8000048208DF8030002208DF89C
:1018C000020069463C48FFF7A5F94FF48050ADF897
:1018D000000010208DF8030002208DF802006946F8
:1018E0003548FFF797F908BD00BF0100A0F10102DC
:1018F000D0B2FAD1704770B504460120FFF7F4FF6B
:10190000002524E04FF400712A48FFF730FA012047
:10191000FFF7EAFF14F0800F05D04FF480612548EF
:10192000FFF723FA04E04FF480612248FFF71FFA23
:101930006006040E0120FFF7D7FF4FF400711D4829
:10194000FFF713FA0120FFF7CFFF681CC5B2082D7F
:10195000D8DB70BD10B504460120FFF7C5FF4FF47A
:1019600080711448FFF703FA4FF400411248FFF763
:10197000FEF92046FFF7BFFF4FF480710D48FFF7D7
:10198000F4F910BD10B504460120FFF7ADFF4FF488
:1019900080710848FFF7EBF94FF400410648FFF764
:1019A000E4F92046FFF7A7FF4FF480710148FFF7E5
:1019B000DCF910BD00140140001801402DE9F04190
:1019C0000646069F0020F94C2060204606600181F3
:1019D000428187810C464FEAE17C01EB5C7C4FEA57
:1019E000EC0CB1EBCC0C07D10D464FEAE57C05EBD6
:1019F0005C7C4FEAEC0C08E008464FEAE17C01EB26
:101A00005C7C4FEAEC0C0CF1010CDFF8A083A8F829
:101A100012C040468282C3810020444620820BB11E
:101A2000B42B03D1E1488180C28002E0DF4882808C
:101A3000C180BDE8F081DD490860704730B15A28A7
:101A400004D0B42802D0B0F5877F01D1D749C8812E
:101A5000704728B1012803D0022801D0032801D102
:101A6000D249088270472DE9F04103460C461746DB
:101A7000CE4EB6889E4203DBCC4EF688A64201DAF3
:101A8000BDE8F081C94EF6893EB15A2E08D0B42E79
:101A90000DD0B6F5877F1CD114E01846214619E019
:101AA000C24E3689361B761EB0B2194612E0BF4EC2
:101AB0003689F61A761EB0B2BC4E7689361B761E73
:101AC000B1B207E02046B94E7689F61A761EB1B259
:101AD00000E0D5E700BFB54E368A36B1012E05D0FD
:101AE000022E09D0032E18D10CE017E0AF4E368934
:101AF000361A761EB0B211E0AC4E7689761A761E92
:101B0000B1B20BE0A94E3689361A761EB0B2A74E96
:101B10007689761A761EB1B200E0B1E700BFA34E17
:101B20003689864203DBA14E76898E4200DAA7E72A
:101B300006464FEAE07C00EB5C7C4FEAEC0CDFF8F9
:101B40006C82B8F8128001FB08C2984E3668B55C0A
:101B5000AFB906464FEAE07C00EB5C7C4FEAEC0C48
:101B6000A0EBCC084FF0800C4CFA08FC25EA0C0CDA
:101B7000DFF83882D8F8008008F802C014E0064682
:101B80004FEAE07C00EB5C7C4FEAEC0CA0EBCC086D
:101B90004FF0800C4CFA08FC4CEA050CDFF80C8284
:101BA000D8F8008008F802C000BF69E730B50246E7
:101BB000002110E0002008E07C4C648A01FB040353
:101BC0007A4D2D68EA54441CA0B2784C648A844251
:101BD000F2DC4C1CA1B2754CA48A8C42EADC30BD0C
:101BE0002DE9F04706460F4690469946DDF820A0BD
:101BF0003D460CE0344606E0524629462046FFF7B3
:101C000032FF601C84B24445F6DB681C85B24D454A
:101C1000F0DBBDE8F0872DE9F0470746884691469E
:101C20001C46DDF820A061488088B84203DB5F488D
:101C3000C088404501DABDE8F087BAF1010F24D130
:101C400000251DE0002614E007EB0500001B03D46F
:101C500008EB0600001B00D50FE008EB0602121B84
:101C600091B27A19121B90B24A46FFF7FCFE701C23
:101C700006B26000401EB042E6DC00BF681C05B240
:101C80006000401EA842DDDC15E0002511E00026C2
:101C90000BE008EB0602521E91B27A19521E90B266
:101CA0004A46FFF7E0FE701C06B2A642F1DB681C54
:101CB00005B2A542EBDB00BFBDE72DE9F04F85B0D3
:101CC00004460D4616461F4638488088A0420BDB66
:101CD0003648C088A84207DB34488088B04203DB1E
:101CE0003248C088B84202DA05B0BDE8F08FA0469D
:101CF000AA46301B01D4301B00E0A01B8346781B92
:101D0000002801DC781B00E0E81B0490B44201DAF3
:101D1000012001E04FF0FF300390BD4201DA0120C5
:101D200001E04FF0FF30029004980BEB0009002017
:101D3000019000BF0198401CC0B201900F9801288B
:101D400011D10321019890FBF1F201FB120050B96F
:101D500001200090FF2251464046109BFFF75BFF99
:101D60000020019007E00120009051464046109B62
:101D70000E9AFFF750FF4FEA49010498814208DBB1
:101D8000B04500D114E004988144039840441FFA00
:101D900080F84FEA49005845CCDCBA4500D107E04D
:101DA000D944029850441FFA80FAC3E7A4BC00202B
:101DB00000BF00BF98E72DE9FE4F81460F469246CF
:101DC0009846DDE90DB50C9CFE48808848450BDB44
:101DD000FC48C088B84207DBFA488088504503DBDE
:101DE000F848C088404501DABDE8FE8FBBF1000F1E
:101DF00010D03E460BE00020334652463146CDE936
:101E0000010500944846FFF758FF701C86B246450E
:101E1000F1DB27E000203B4652463946CDE901057B
:101E200000944846FFF749FF002043464A4639469A
:101E3000CDE9010500944846FFF73FFF00203B46EF
:101E400052464146CDE9010500945046FFF735FF63
:101E5000002043464A464146CDE9010500945046DC
:101E6000FFF72BFF00BFBFE72DE9F84F05460E46F1
:101E700092469B46D3488088A84203DBD148C0885D
:101E8000B04201DCBDE8F88F00240FFA8AF7032086
:101E9000A0EB4A000FFA80F90A98012877D172E086
:101EA000A0465BE0012006EB080291B22A190090DF
:101EB00090B201235A46FFF7AEFE012006EB08025E
:101EC00091B22A1B009090B201235A46FFF7A3FE5D
:101ED0000120321991B2A5EB0802009090B20123C3
:101EE0005A46FFF798FE0120321B91B2A5EB08027B
:101EF000009090B201235A46FFF78DFE0120A6EB19
:101F0000080291B22A1B009090B201235A46FFF7B3
:101F100082FE0120A6EB080291B22A19009090B22D
:101F200001235A46FFF777FE0120321B91B205EBE1
:101F30000802009090B201235A46FFF76CFE012080
:101F4000321991B205EB0802009090B201235A4673
:101F5000FFF761FE08F101000FFA80F8B845A1DD36
:101F6000B9F1000F05DAA000801D48440FFA80F98E
:101F700007E0E01B80000A3048440FFA80F9781E21
:101F800007B2601C04B2BC428ADD66E0FFE762E093
:101F90000120F21991B22A19009090B25A460B9B77
:101FA000FFF739FE0120F21991B22A1B009090B27E
:101FB0005A460B9BFFF72FFE0120321991B2EA1B04
:101FC000009090B25A460B9BFFF725FE0120321B72
:101FD00091B2EA1B009090B25A460B9BFFF71BFE92
:101FE0000120F21B91B22A1B009090B25A460B9B23
:101FF000FFF711FE0120F21B91B22A19009090B256
:102000005A460B9BFFF707FE0120321B91B2EA19DB
:10201000009090B25A460B9BFFF7FDFD012032194C
:1020200091B2EA19009090B25A460B9BFFF7F3FD6C
:10203000B9F1000F05DAA000801D48440FFA80F9BD
:1020400007E0E01B80000A3048440FFA80F9781E50
:1020500007B2601C04B2BC429ADD00BF12E72DE952
:10206000F04F0746884692461D4656488088B8423B
:1020700003DB5448C088404501DABDE8F08FA988E9
:10208000CA1701EB5272D2100846CB1701EB5373FB
:10209000DB10B1EBC30301D0012300E000231344A4
:1020A000AAF12002B5F806C002FB0CF203FB02FB0A
:1020B000286800EB0B09002651E0002440E0099855
:1020C000FF2814D1E11704EB5171C910A4EBC10230
:1020D0008021114199F80020114225D008EB060219
:1020E00091B23A1990B20A9AFFF7BDFC1CE0E117D1
:1020F00004EB5171C910A4EBC1028021114199F880
:102100000020114208D008EB060291B23A1990B2B1
:102110000A9AFFF7A8FC07E008EB060291B23A1909
:1021200090B2099AFFF79FFCE11704EB5171C910B7
:10213000A4EBC101072901D109F10109601C84B296
:10214000A888A042BBDCA888C11700EB5171C91058
:10215000B0EBC10101D009F10109701C86B2E88819
:10216000B042AADC00BF88E72DE9FC4F04460E46CA
:1021700017461D46DDE90BABA046B14611488088E5
:10218000A04203DB0F48C088B04201DABDE8FC8FF3
:1021900022E0A88840440B498988884204DDA04693
:1021A000E88848441FFA80F9E88848440549C98806
:1021B000884201DDA046B146CDE900AB3A782B4616
:1021C000494601E0A4BC00204046FFF748FF7F1CC1
:1021D000A88840441FFA80F838780028D9D100BF79
:1021E000D4E72DE9FF4F1D46DDF80890DDF80080AB
:1021F000DDF804A0F7E099F800007F2875DC0027DF
:1022000069E053207843296811F8100099F800100C
:1022100088425FD153207843296801EB400000F1E8
:10222000020B002652E0002442E00D98FF2815D151
:10223000E11704EB5171C910A4EBC10280211141D7
:102240009BF80020114228D00AEB060291B208EB5D
:10225000040290B20E9AFFF706FC1EE0E11704EBB1
:102260005171C910A4EBC102802111419BF80020DB
:10227000114209D00AEB060291B208EB040290B2B7
:102280000E9AFFF7F0FB08E00AEB060291B208EBAA
:10229000040290B20D9AFFF7E6FBE11704EB5171CF
:1022A000C910A4EBC101072901D10BF1010B641C7A
:1022B0002889A042B9DC2889C11700EB5171C910E7
:1022C000B0EBC10101D00BF1010B761C6889B04263
:1022D000A9DC03E07F1CA888B84292DC00BF09F1AA
:1022E0000109E88880447EE0FFE7002773E053207F
:1022F0007843296811F8100099F80010884269D1D4
:1023000053207843296801EB4000407899F8011088
:1023100088425FD153207843296801EB400000F1E7
:10232000020B002652E0002442E00D98FF2815D150
:10233000E11704EB5171C910A4EBC10280211141D6
:102340009BF80020114228D00AEB060291B208EB5C
:10235000040290B20E9AFFF786FB1EE0E11704EB31
:102360005171C910A4EBC102802111419BF80020DA
:10237000114209D00AEB060291B208EB040290B2B6
:102380000E9AFFF770FB08E00AEB060291B208EB29
:10239000040290B20D9AFFF766FBE11704EB51714E
:1023A000C910A4EBC101072901D10BF1010B641C79
:1023B0002889A042B9DC2889C11700EB5171C910E6
:1023C000B0EBC10101D00BF1010B761C6889B04262
:1023D000A9DC03E07F1CA888B84288DC00BF09F1B3
:1023E00002092889804499F8000000287FF403AF8F
:1023F000BDE8FF8F2DE9F04FADF5037D06460F4692
:1024000015469946DDF834B2DDF830A20024A04626
:102410004FF4807143A800F016F94FF4807103A8BF
:1024200000F011F943A8029082488088B04203DB93
:102430008048C088B84203DA0DF5037DBDE8F08F0F
:102440000CE00A2095FBF0F100FB1150303003A99D
:102450000855601C04B20A2095FBF0F5002DF0D160
:102460000BE0601E03A9085C43A901F8080008F10D
:1024700001000FFA80F8601E04B2002CF1DC4B461C
:10248000CDE900AB39463046029AFFF76DFE00BF3A
:10249000D2E72DE9FF4F85B0054690469A46DDE923
:1024A000126765A207CA02AB07C3BAF8044098F8DE
:1024B00004000A2190FBF1F002A911F800905346A4
:1024C0004A46CDE9006728460699FFF7C8FD98F807
:1024D00004000A2190FBF1F201FB120002A911F89D
:1024E0000090291988B253464A46CDE900670699FB
:1024F000FFF7B5FDA146E11704EB91712A1902EB34
:10250000A101A34604EBDB7201EB620188B25346E2
:102510003A22CDE900670699FFF7A1FD98F805007A
:102520000A2190FBF1F002A911F800B004EBD97177
:1025300005EB440202EB610188B253465A46CDE9ED
:1025400000670699FFF78BFD98F805000A2190FBBC
:10255000F1F201FB120002A911F800B004EBD971ED
:1025600004EB44022A4402EB610188B253465A4606
:10257000CDE900670699FFF772FD04EBD97105EB11
:10258000840202EB6101A346E21704EB9272A1EB15
:10259000A20188B253463A22CDE900670699FFF7B7
:1025A0005EFD98F806000A2190FBF1F002A911F8EF
:1025B000009004EB8401294488B253464A46CDE991
:1025C00000670699FFF74BFD98F806000A2190FB7B
:1025D000F1F201FB120002A911F8009004EB440192
:1025E00005EB410188B253464A46CDE9006706999A
:1025F000FFF735FD09B0BDE8F08F30B50246002386
:10260000002111E0002009E00A4C648A01FB040368
:10261000D45C084D2D68EC54441CA0B2054C648A6F
:102620008442F1DC4C1CA1B2024CA48A8C42E9DC4D
:1026300030BD0000A4BC0020303132333435363791
:102640003839000070474FF0000200B51346944639
:102650009646203922BFA0E80C50A0E80C50B1F1FA
:102660002001BFF4F7AF090728BFA0E80C5048BF0E
:102670000CC05DF804EB890028BF40F8042B08BFAC
:10268000704748BF20F8022B11F0804F18BF00F8A8
:10269000012B70477047704770477047754600F0D0
:1026A00029F8AE4605006946534620F007008546E6
:1026B00018B020B5FEF7CEF9BDE820404FF0000677
:1026C0004FF000074FF000084FF0000B21F007011A
:1026D000AC46ACE8C009ACE8C009ACE8C009ACE85D
:1026E000C0098D4670470446AFF300802046FDF7D1
:1026F00066FD000000487047BCBC0020FFFFFFFFE4
:10270000FFFFFFFFFFFFFFFFFFFFFFFFFFFFFFFFD9
:10271000FFFFFFFFFFFFFFFFFFFFFFFFFFFFFFFFC9
:10272000FFFFFFFFFFFFFFFFFFFFFFFFFFFFFFFFB9
:10273000FFFFE000000000000000000000000000BB
:102740000000000000000000000000000000000089
:102750000000000000000000000003FFFFFFFFFF7B
:10276000FFFFFFFFFFFFFFFFFFFFFFFFFFFFFFFF79
:10277000FFFFFFFFFFFFFFFFFFFFFFFFFFFFFFFF69
:10278000FFFFFFFFFFFFFFFFFFFFFFFFFFFFFFFF59
:10279000FFFFFFFFFFFFE00000000000000000005F
:1027A0000000000000000000000000000000000029
:1027B000000000000000000000000000000003FF17
:1027C000FFFFFFFFFFFFFFFFFFFFFFFFFFFFFFFF19
:1027D000FFFFFFFFFFFFFFFFFFFFFFFFFFFFFFFF09
:1027E000FFFFFFFFFFFFFFFFFFFFFFFFFFFFFFFFF9
:1027F000FFFFFFFFFFFFFFFFFFFFE0000000000003
:1028000000000000000000000000000000000000C8
:1028100000000000000000000000000000000000B8
:10282000000003FFFFFFFFFFFFFFFFFFFFFFFFFFB2
:10283000FFFFFFFFFFFFFFFFFFFFFFFFFFFFFFFFA8
:10284000FFFFFFFFFFFFFFFFFFFFFFFFFFFFFFFF98
:10285000FFFFFFFFFFFFFFFFFFFFFFFFFFFFE000A6
:102860000000000000000000000000000000000068
:102870000000000000000000000000000000000058
:1028800000000000000003FFFFFFFFFFFFFFFFFF4E
:10289000FFFFFFFFFFFFFFFFFFFFFFFFFFFFFFFF48
:1028A000FFFFFFFFFFFFFFFFFFFFFFFFFFFFFFFF38
:1028B000FFFFFFFFFFFFFFFFFFFFFFFFFFFFFFFF28
:1028C000FFFFE0000000000000000000000000002A
:1028D00000000000000000000000000000000000F8
:1028E0000000000000000000000003FFFFFFFFFFEA
:1028F000FFFFFFFFFFFFFFFFFFFFFFFFFFFFFFFFE8
:10290000FFFFFFFFFFFFFFFFFFFFFFFFFFFFFFFFD7
:10291000FFFFFFFFFFFFFFFFFFFFFFFFFFFFFFFFC7
:10292000FFFFFFFFFFFFE0000000000000000000CD
:102930000000000000000000000000000000000097
:10294000000000000000000000000000000003FF85
:10295000FFFFFFFFFFFFFFFFFFFFFFFFFFFFFFFF87
:10296000FFFFFFFFFFFFFFFFFFFFFFFFFFFFFFFF77
:10297000FFFFFFFFFFFFFFFFFFFFFFFFFFFFFFFF67
:10298000FFFFFFFFFFFFFFFFFFFFE0000000000071
:102990000000000000000000000000000000000037
:1029A0000000000000000000000000000000000027
:1029B000000003FFFFFFFFFFFFFFFFFFFFFFFFFF21
:1029C000FFFFFFFFFFFFFFFFFFFFFFFFFFFFFFFF17
:1029D000FFFFFFFFFFFFFFFFFFFFFFFFFFFFFFFF07
:1029E000FFFFFFFFFFFFFFFFFFFFFFFFFFFFE00015
:1029F00000000000000000000000000000000000D7
:102A000000000000000000000000000000000000C6
:102A100000000000000003FFFFFFFFFFFFFFFFFFBC
:102A2000FFFFFFFFFFFFFFFFFFFFFFFFFFFFFFFFB6
:102A3000FFFFFFFFFFFFFFFFFFFFFFFFFFFFFFFFA6
:102A4000FFFFFFFFFFFFFFFFFFFFFFFFFFFFFFFF96
:102A5000FFFFE00000000000000000000000000098
:102A60000000000000000000000000000000000066
:102A70000000000000000000000003FFFFFFFFFF58
:102A8000FFFFFFFFFFFFFFFFFFFFFFFFFFFFFFFF56
:102A9000FFFFFFFFFFFFFFFFFFFFFFFFFFFFFFFF46
:102AA000FFFFFFFFFFFFFFFFFFFFFFFFFFFFFFFF36
:102AB000FFFFFFFFFFFFE00000000000000000003C
:102AC0000000000000000000000000000000000006
:102AD000000000000000000000000000000003FFF4
:102AE000FFFFFFFFFFFFFFFFFFFFFFFFFFFFFFFFF6
:102AF000FFFFFFFFFFFFFFFFFFFFFFFFFFFFFFFFE6
:102B0000FFFFFFFFFFFFFFFFFFFFFFFFFFFFFFFFD5
:102B1000FFFFFFFFFFFFFFFFFFFFE00000000000DF
:102B200000000000000000000000000000000000A5
:102B30000000000000000000000000000000000095
:102B4000000003FFFFFFFFFFFFFFFFFFFFFFFFFF8F
:102B5000FFFFFFFFFFFFFFFFFFFFFFFFFFFFFFFF85
:102B6000FFFFFFFFFFFFFFFFFFFFFFFFFFFFFFFF75
:102B7000FFFFFFFFFFFFFFFFFFFFFFFFFFFFE00083
:102B80000000000000000000000000000000000045
:102B90000000000000000000000000000000000035
:102BA00000000000000003FFFFFFFFFFFFFFFFFF2B
:102BB000FFFFFFFFFFFFFFFFFFFFFFFFFFFFFFFF25
:102BC000FFFFFFFFFFFFFFFFFFFFFFFFFFFFFFFF15
:102BD000FFFFFFFFFFFFFFFFFFFFFFFFFFFFFFFF05
:102BE000FFFFE00000000000000000000000000007
:102BF00000000000000000000000000000000000D5
:102C00000000000000000000000003FFFFFFFFFFC6
:102C1000FFFFFFFFFFFFFFFFFFFFFFFFFFFFFFFFC4
:102C2000FFFFFFFFFFFFFFFFFFFFFFFFFFFFFFFFB4
:102C3000FFFFFFFFFFFFFFFFFFFFFFFFFFFFFFFFA4
:102C4000FFFFFFFFFFFFE0000000000000000000AA
:102C50000000000000000000000000000000000074
:102C6000000000000000000000000000000003FF62
:102C7000FFFFFFFFFFFFFFFFFFFFFFFFFFFFFFFF64
:102C8000FFFFFFFFFFFFFFFFFFFFFFFFFFFFFFFF54
:102C9000FFFFFFFFFFFFFFFFFFFFFFFFFFFFFFFF44
:102CA000FFFFFFFFFFFFFFFFFFFFE000000000004E
:102CB0000000000000000000000000000000000014
:102CC0000000000000000000000000000000000004
:102CD000000003FFFFFFFFFFFFFFFFFFFFFFFFFFFE
:102CE000FFFFFFFFFFFFFFFFFFFFFFFFFFFFFFFFF4
:102CF000FFFFFFFFFFFFFFFFFFFFFFFFFFFFFFFFE4
:102D0000FFFFFFFFFFFFFFFFFFFFFFFFFFFFE000F1
:102D100000000000000000000000000000000000B3
:102D200000000000000000000000000000000000A3
:102D300000000000000003FFFFFFFFFFFFFFFFFF99
:102D4000FFFFFFFFFFFFFFFFFFFFFFFFFFFFFFFF93
:102D5000FFFFFFFFFFFFFFFFFFFFFFFFFFFFFFFF83
:102D6000FFFFFFFFFFFFFFFFFFFFFFFFFFFFFFFF73
:102D7000FFFFE00000000000000000000000000075
:102D80000000000000000000000000000000000043
:102D90000000000000000000000003FFFFFFFFFF35
:102DA000FFFFFFFFFFFFFFFFFFFFFFFFFFFFFFFF33
:102DB000FFFFFFFFFFFFFFFFFFFFFFFFFFFFFFFF23
:102DC000FFFFFFFFFFFFFFFFFFFFFFFFFFFFFFFF13
:102DD000FFFFFFFFFFFFE000000000000000000019
:102DE00000000000000000000000000000000000E3
:102DF000000000000000000000000000000003FFD1
:102E0000FFFFFFFFFFFFFFFFFFFFFFFFFFFFFFFFD2
:102E1000FFFFFFFFFFFFFFFFFFFFFFFFFFFFFFFFC2
:102E2000FFFFFFFFFFFFFFFFFFFFFFFFFFFFFFFFB2
:102E3000FFFFFFFFFFFFFFFFFFFFE00000000000BC
:102E40000000000000000000000000000000000082
:102E50000000000000000000000000000000000072
:102E6000000003FFFFFFFFFFFFFFFFFFFFFFFFFF6C
:102E7000FFFFFFFFFFFFFFFFFFFFFFFFFFFFFFFF62
:102E8000FFFFFFFFFFFFFFFFFFFFFFFFFFFFFFFF52
:102E9000FFFFFFFFFFFFFFFFFFFFFFFFFFFFE00060
:102EA0000000000000000000000000000000000022
:102EB0000000000000000000000000000000000012
:102EC00000000000000003FFFFFFFFFFFFFFFFFF08
:102ED000FFFFFFFFFFFFFFFFFFFFFFFFFFFFFFFF02
:102EE000FFFFFFFFFFFFFFFFFFFFFFFFFFFFFFFFF2
:102EF000FFFFFFFFFFFFFFFFFFFFFFFFFFFFFFFFE2
:102F0000FFFFE000000000000000000000000000E3
:102F100000000000000000000000000000000000B1
:102F20000000000000000000000003FFFFFFFFFFA3
:102F3000FFFFFFFFFFFFFFFFFFFFFFFFFFFFFFFFA1
:102F4000FFFFFFFFFFFFFFFFFFFFFFFFFFFFFFFF91
:102F5000FFFFFFFFFFFFFFFFFFFFFFFFFFFFFFFF81
:102F6000FFFFFFFFFFFFE000000000000000000087
:102F70000000000000000000000000000000000051
:102F8000000000000000000000000000000003FF3F
:102F9000FFFFFFFFFFFFFFFFFFFFFFFFFFFFFFFF41
:102FA000FFFFFFFFFFFFFFFFFFFFFFFFFFFFFFFF31
:102FB000FFFFFFFFFFFFFFFFFFFFFFFFFFFFFFFF21
:102FC000FFFFFFFFFFFFFFFFFFFFE000000000002B
:102FD0000000000000001F87C0000000000000008B
:102FE00000000000000000000000000000000000E1
:102FF000000003FFFFFFFFFFFFFFFFFFFFFFFFFFDB
:10300000FFFFFFFFFFFFFFFFFFFFFFFFFFFFFFFFD0
:10301000FFFFFFFFFFFFFFFFFFFFFFFFFFFFFFFFC0
:10302000FFFFFFFFFFFFFFFFFFFFFFFFFFFFE000CE
:10303000000000000000000000007FFFE0003FFFF4
:10304000E0001FFFFF0003FFFFFF80000000000003
:1030500000000000000003FFFFFFFFFFFFFFFFFF76
:10306000FFFFFFFFFFFFFFFFFFFFFFFFFFFFFFFF70
:10307000FFFFFFFFFFFFFFFFFFFFFFFFFFFFFFFF60
:10308000FFFFFFFFFFFFFFFFFFFFFFFFFFFFFFFF50
:10309000FFFFE00000000000000000000001FFFF53
:1030A000E0003FFFF0001FFFFF0003FFFFFFC00035
:1030B0000000000000000000000003FFFFFFFFFF12
:1030C000FFFFFFFFFFFFFFFFFFFFFFFFFFFFFFFF10
:1030D000FFFFFFFFFFFFFFFFFFFFFFFFFFFFFFFF00
:1030E000FFFFFFFFFFFFFFFFFFFFFFFFFFFFFFFFF0
:1030F000FFFFFFFFFFFFE0000000000000000000F6
:103100000001FFFFE0003FFFF0001FFFFF0003FF93
:10311000FFFFC0000000000000000000000003FFEF
:10312000FFFFFFFFFFFFFFFFFFFFFFFFFFFFFFFFAF
:10313000FFFFFFFFFFFFFFFFFFFFFFFFFFFFFFFF9F
:10314000FFFFFFFFFFFFFFFFFFFFFFFFFFFFFFFF8F
:10315000FFFFFFFFFFFFFFFFFFFFE0000000000099
:10316000000000000003FFFFE0003FFFF0001FFF32
:10317000FF0003FFFFFFC000000000000000000090
:10318000000003FFFFFFFFFFFFFFFFFFFFFFFFFF49
:10319000FFFFFFFFFFFFFFFFFFFFFFFFFFFFFFFF3F
:1031A000FFFFFFFFFFFFFFFFFFFFFFFFFFFFFFFF2F
:1031B000FFFFFFFFFFFFFFFFFFFFFFFFFFFFE0003D
:1031C00000000000000000000007FFFFE0003FFFDC
:1031D000F0001FFFFF0001FFFFFFC0000000000024
:1031E00000000000000003FFFFFFFFFFFFFFFFFFE5
:1031F000FFFFFFFFFFFFFFFFFFFFFFFFFFFFFFFFDF
:10320000FFFFFFFFFFFFFFFFFFFFFFFFFFFFFFFFCE
:10321000FFFFFFFFFFFFFFFFFFFFFFFFFFFFFFFFBE
:10322000FFFFE00000000000000000000007FE7F3C
:10323000E0003FFFF8000FFFFF00007FFF3FC000EE
:103240000000000000000000000003FFFFFFFFFF80
:10325000FFFFFFFFFFFFFFFFFFFFFFFFFFFFFFFF7E
:10326000FFFFFFFFFFFFFFFFFFFFFFFFFFFFFFFF6E
:10327000FFFFFFFFFFFFFFFFFFFFFFFFFFFFFFFF5E
:10328000FFFFFFFFFFFFE000000000000000000064
:10329000000FFE3FF0001FFFF80003FFFC00007F5F
:1032A000FF1FE0000000000000000000000003FF1E
:1032B000FFFFFFFFFFFFFFFFFFFFFFFFFFFFFFFF1E
:1032C000FFFFFFFFFFFFFFFFFFFFFFFFFFFFFFFF0E
:1032D000FFFFFFFFFFFFFFFFFFFFFFFFFFFFFFFFFE
:1032E000FFFFFFFFFFFFFFFFFFFFE0000000000008
:1032F00000000000000FFE3FF0000FFFF80003FF8A
:10330000F800007FFF1FE000000000000000000048
:10331000000003FFFFFFFFFFFFFFFFFFFFFFFFFFB7
:10332000FFFFFFFFFFFFFFFFFFFFFFFFFFFFFFFFAD
:10333000FFFFFFFFFFFFFFFFFFFFFFFFFFFFFFFF9D
:10334000FFFFFFFFFFFFFFFFFFFFFFFFFFFFE000AB
:103350000000000000000000000FFF1FF0001FFF32
:10336000F80003FFF800007FFF1FE00000000000EE
:1033700000000000000003FFFFFFFFFFFFFFFFFF53
:10338000FFFFFFFFFFFFFFFFFFFFFFFFFFFFFFFF4D
:10339000FFFFFFFFFFFFFFFFFFFFFFFFFFFFFFFF3D
:1033A000FFFFFFFFFFFFFFFFFFFFFFFFFFFFFFFF2D
:1033B000FFFFE0000000000000000000000FFF1F02
:1033C000F0001FFFF80003FFF800007FFF0FE00090
:1033D0000000000000000000000003FFFFFFFFFFEF
:1033E000FFFFFFFFFFFFFFFFFFFFFFFFFFFFFFFFED
:1033F000FFFFFFFFFFFFFFFFFFFFFFFFFFFFFFFFDD
:10340000FFFFFFFFFFFFFFFFFFFFFFFFFFFFFFFFCC
:10341000FFFFFFFFFFFFE0000000000000000000D2
:10342000000FFF0FF0001FFFF80003FFF800007F00
:10343000FF0FE0000000000000000000000003FF9C
:10344000FFFFFFFFFFFFFFFFFFFFFFFFFFFFFFFF8C
:10345000FFFFFFFFFFFFFFFFFFFFFFFFFFFFFFFF7C
:10346000FFFFFFFFFFFFFFFFFFFFFFFFFFFFFFFF6C
:10347000FFFFFFFFFFFFFFFFFFFFE0000000000076
:1034800000000000000FFF8FF0001FFFF80003FF97
:10349000F800007FFF0FE0000000000000000000C7
:1034A000000003FFFFFFFFFFFFFFFFFFFFFFFFFF26
:1034B000FFFFFFFFFFFFFFFFFFFFFFFFFFFFFFFF1C
:1034C000FFFFFFFFFFFFFFFFFFFFFFFFFFFFFFFF0C
:1034D000FFFFFFFFFFFFFFFFFFFFFFFFFFFFE0001A
:1034E0000000000000000000000FFF87F0001FFF39
:1034F000FC0003FFF800007FFF07E0000000000071
:1035000000000000000003FFFFFFFFFFFFFFFFFFC1
:10351000FFFFFFFFFFFFFFFFFFFFFFFFFFFFFFFFBB
:10352000FFFFFFFFFFFFFFFFFFFFFFFFFFFFFFFFAB
:10353000FFFFFFFFFFFFFFFFFFFFFFFFFFFFFFFF9B
:10354000FFFFE0000000000000000000000FFFC7C8
:10355000F8001FFFFC0003FFF800007FFF03E000FE
:103560000000000000000000000003FFFFFFFFFF5D
:10357000FFFFFFFFFFFFFFFFFFFFFFFFFFFFFFFF5B
:10358000FFFFFFFFFFFFFFFFFFFFFFFFFFFFFFFF4B
:10359000FFFFFFFFFFFFFFFFFFFFFFFFFFFFFFFF3B
:1035A000FFFFFFFFFFFFE000000000000000000041
:1035B000000FFFC7F8001FFFFC0003FFF800007FAB
:1035C000FF0000000000000000000000000003FFFA
:1035D000FFFFFFFFFFFFFFFFFFFFFFFFFFFFFFFFFB
:1035E000FFFFFFFFFFFFFFFFFFFFFFFFFFFFFFFFEB
:1035F000FFFFFFFFFFFFFFFFFFFFFFFFFFFFFFFFDB
:10360000FFFFFFFFFFFFFFFFFFFFE00000000000E4
:1036100000000000000FFFE3F8003FFFFC0003FF85
:10362000F800007FFF000000000000000000000024
:10363000000003FFFFFFFFFFFFFFFFFFFFFFFFFF94
:10364000FFFFFFFFFFFFFFFFFFFFFFFFFFFFFFFF8A
:10365000FFFFFFFFFFFFFFFFFFFFFFFFFFFFFFFF7A
:10366000FFFFFFFFFFFFFFFFFFFFFFFFFFFFE00088
:103670000000000000000000000FFFE1F8003FFF25
:10368000FC0003FFF800007FFF00000000000000C6
:1036900000000000000003FFFFFFFFFFFFFFFFFF30
:1036A000FFFFFFFFFFFFFFFFFFFFFFFFFFFFFFFF2A
:1036B000FFFFFFFFFFFFFFFFFFFFFFFFFFFFFFFF1A
:1036C000FFFFFFFFFFFFFFFFFFFFFFFFFFFFFFFF0A
:1036D000FFFFE0000000000000000000000FFFF00E
:1036E00000003FFFFC0003FFF800007FFF00000028
:1036F0000000000000000000000003FFFFFFFFFFCC
:10370000FFFFFFFFFFFFFFFFFFFFFFFFFFFFFFFFC9
:10371000FFFFFFFFFFFFFFFFFFFFFFFFFFFFFFFFB9
:10372000FFFFFFFFFFFFFFFFFFFFFFFFFFFFFFFFA9
:10373000FFFFFFFFFFFFE0000000000000000000AF
:10374000000FFFF000003FFFFC0003FFF800007FC8
:10375000FF0000000000000000000000000003FF68
:10376000FFFFFFFFFFFFFFFFFFFFFFFFFFFFFFFF69
:10377000FFFFFFFFFFFFFFFFFFFFFFFFFFFFFFFF59
:10378000FFFFFFFFFFFFFFFFFFFFFFFFFFFFFFFF49
:10379000FFFFFFFFFFFFFFFFFFFFE0000000000053
:1037A00000000000000FFFF800003FFFFE0003FFD5
:1037B000F800007FFF0F8000000000000000000004
:1037C000000003FFFFFFFFFFFFFFFFFFFFF0000010
:1037D000FFFFC0007FFFF83F03FFE0FFFC00FFF0AA
:1037E0007FFE0FFFFFFFFFFFFFFFFFFFFFFFFFFF5A
:1037F000FFFFFFFFFFFFFFFFFFFFFFFFFFFFE000F7
:103800000000000000000000000FFFFC00003FFF70
:10381000FE0003FFF800007FFF1FC0000000000053
:1038200000000000000003FFFFFFFFFFFFFFFFFF9E
:10383000FFF00000FFFFC0007FFFF83F03FFE0FF45
:10384000F0003FF07FFE0FFFFFFFFFFFFFFFFFFFD6
:10385000FFFFFFFFFFFFFFFFFFFFFFFFFFFFFFFF78
:10386000FFFFE00000000000000000000007FFFC78
:1038700000007FFFFE0003FFF800007FFF1FC00075
:103880000000000000000000000003FFFFFFFFFF3A
:10389000FFFFFFFFFFF00000FFFFC0007FFFF83FCA
:1038A00001FFE0FFC0001FF07FFE0FFFFFFFFFFFE3
:1038B000FFFFFFFFFFFFFFFFFFFFFFFFFFFFFFFF18
:1038C000FFFFFFFFFFFFE00000000000000000001E
:1038D0000007FFFE00007FFFFE0003FFF800007FEF
:1038E000FF1FC0000000000000000000000003FFF8
:1038F000FFFFFFFFFFFFFFFFFFF00000FFFF800063
:103900007FFFF83F01FFE0FF80000FF07FFE0FFF19
:10391000FFFFFFFFFFFFFFFFFFFFFFFFFFFFFFFFB7
:10392000FFFFFFFFFFFFFFFFFFFFE00000000000C1
:10393000000000000007FFFE00007F7FFE0003FF85
:10394000F800007FFF1FC000000000000000000022
:10395000000003FFFFFFFFFFFFFFFFFFFFF000017D
:10396000FFFF80007FFFF83F00FFE0FF000007F04F
:103970007FFE0FFFFFFFFFFFFFFFFFFFFFFFFFFFC8
:10398000FFFFFFFFFFFFFFFFFFFFFFFFFFFFE00065
:1039900000000000000000000003FFFF00007F7F28
:1039A000FE0003FFF800007FFF3FC00000000000A2
:1039B00000000000000003FFFFFFFFFFFFFFFFFF0D
:1039C000FFFFFF83FFFF83FFFFFFF83F007FE0FE65
:1039D00001FC03F07FFE0FFFFFFFFFFFFFFFFFFF74
:1039E000FFFFFFFFFFFFFFFFFFFFFFFFFFFFFFFFE7
:1039F000FFFFE00000000000000000000003FFFFE8
:103A000000007F7FFF0003FFF800007FFFFFC00082
:103A10000000000000000000000003FFFFFFFFFFA8
:103A2000FFFFFFFFFFFFFF07FFFF83FFFFFFF83FE1
:103A3000007FE0FE07FF03F07FFE0FFFFFFFFFFFA9
:103A4000FFFFFFFFFFFFFFFFFFFFFFFFFFFFFFFF86
:103A5000FFFFFFFFFFFFE00000000000000000008C
:103A60000003FFFF80007F7FFF0003FFF800007F5F
:103A7000FFFFC0000000000000000000000003FF86
:103A8000FFFFFFFFFFFFFFFFFFFFFE07FFFF87FFB7
:103A9000FFFFF83F003FE0FC0FFF81F07FFE0FFFCC
:103AA000FFFFFFFFFFFFFFFFFFFFFFFFFFFFFFFF26
:103AB000FFFFFFFFFFFFFFFFFFFFE0000000000030
:103AC000000000000001FFFF80007F3FFF0003FFB8
:103AD000F800007FFFFFC0000000000000000000B1
:103AE000000003FFFFFFFFFFFFFFFFFFFFFFFC0FD3
:103AF000FFFF07FFFFFFF83F001FE0FC0FFF81F013
:103B00007FFE0FFFFFFFFFFFFFFFFFFFFFFFFFFF36
:103B1000FFFFFFFFFFFFFFFFFFFFFFFFFFFFE000D3
:103B200000000000000000000001FFFFC000FE3F99
:103B3000FF0003FFF800007FFFFFC000000000004F
:103B400000000000000003FFFFFFFFFFFFFFFFFF7B
:103B5000FFFFFC0FFFFF0407FFFFF83F001FE0F827
:103B60001FFFC3F07FFE0FFFFFFFFFFFFFFFFFFF01
:103B7000FFFFFFFFFFFFFFFFFFFFFFFFFFFFFFFF55
:103B8000FFFFE00000000000000000000000FFFF59
:103B9000C000FE3FFF0003FFF800007FFFFFC000F2
:103BA0000000000000000000000003FFFFFFFFFF17
:103BB000FFFFFFFFFFFFF81FFFFF0001FFFFF83FC0
:103BC000040FE0F81FFFFFF07FFE0FFFFFFFFFFF76
:103BD000FFFFFFFFFFFFFFFFFFFFFFFFFFFFFFFFF5
:103BE000FFFFFFFFFFFFE0000000000000000000FB
:103BF0000000FFFFE000FE3FFF0003FFF800007F32
:103C0000FF3FC0000000000000000000000003FFB4
:103C1000FFFFFFFFFFFFFFFFFFFFF83FFFFF000079
:103C2000FFFFF83F0607E0F81FFFFFF000000FFF5F
:103C3000FFFFFFFFFFFFFFFFFFFFFFFFFFFFFFFF94
:103C4000FFFFFFFFFFFFFFFFFFFFE000000000009E
:103C50000000000000007FFFE000FE3FFF0003FFC8
:103C6000F800007FFF1FC0000000000000000000FF
:103C7000000003FFFFFFFFFFFFFFFFFFFFFFF03F1D
:103C8000FFFF00007FFFF83F0607E0F83FFFFFF06F
:103C900000000FFFFFFFFFFFFFFFFFFFFFFFFFFF22
:103CA000FFFFFFFFFFFFFFFFFFFFFFFFFFFFE00042
:103CB000000000000000000000003FFFF000FE3F99
:103CC000FF8003FFF800007FFF1FC000000000001E
:103CD00000000000000003FFFFFFFFFFFFFFFFFFEA
:103CE000FFFFF07FFFFE00003FFFF83F0703E0F813
:103CF0003FFFFFF000000FFFFFFFFFFFFFFFFFFF91
:103D0000FFFFFFFFFFFFFFFFFFFFFFFFFFFFFFFFC3
:103D1000FFFFE000000000000000000000003FFF87
:103D2000F000FE3FFF8003FFF800007FFF1FC00090
:103D30000000000000000000000003FFFFFFFFFF85
:103D4000FFFFFFFFFFFFE07FFFFE07F03FFFF83FB1
:103D50000781E0F83FFFFFF000000FFFFFFFFFFFCC
:103D6000FFFFFFFFFFFFFFFFFFFFFFFFFFFFFFFF63
:103D7000FFFFFFFFFFFFE000000000000000000069
:103D800000001FFFF801FE1FFF8003FFF800007F07
:103D9000FF1FC0000000000000000000000003FF43
:103DA000FFFFFFFFFFFFFFFFFFFFE0FFFFFE0FF83A
:103DB0003FFFF83F0781E0F83FFFFFF000000FFFF3
:103DC000FFFFFFFFFFFFFFFFFFFFFFFFFFFFFFFF03
:103DD000FFFFFFFFFFFFFFFFFFFFE000000000000D
:103DE0000000000000001FFFF801FC1FFF8003FF20
:103DF000F800007FFF0F80000000000000000000BE
:103E0000000003FFFFFFFFFFFFFFFFFFFFFFC0FFFB
:103E1000FFFFFFF81FFFF83F07C0E0F83FFFFFF08C
:103E20007FFE0FFFFFFFFFFFFFFFFFFFFFFFFFFF13
:103E3000FFFFFFFFFFFFFFFFFFFFFFFFFFFFE000B0
:103E4000000000000000000000000FFFF801FC1F50
:103E5000FF8003FFF800007FFF000000000000006B
:103E600000000000000003FFFFFFFFFFFFFFFFFF58
:103E7000FFFFC1FFFFFFFFFC1FFFF83F07E060F8F7
:103E80003FFFFFF07FFE0FFFFFFFFFFFFFFFFFFF82
:103E9000FFFFFFFFFFFFFFFFFFFFFFFFFFFFFFFF32
:103EA000FFFFE000000000000000000000000FFF26
:103EB000F801FC1FFF8003FFF800007FFF000000F7
:103EC0000000000000000000000003FFFFFFFFFFF4
:103ED000FFFFFFFFFFFFC1FFFFFFFFFC1FFFF83FDA
:103EE00007E060F81FFFE7F07FFE0FFFFFFFFFFF17
:103EF000FFFFFFFFFFFFFFFFFFFFFFFFFFFFFFFFD2
:103F0000FFFFFFFFFFFFE0000000000000000000D7
:103F1000000007FFF801FC1FFF8003FFF800007F8F
:103F2000FF0000000000000000000000000003FF90
:103F3000FFFFFFFFFFFFFFFFFFFF81FFFFFFFFFC12
:103F40001FFFF83F07F020F81FFFC0F07FFE0FFFB4
:103F5000FFFFFFFFFFFFFFFFFFFFFFFFFFFFFFFF71
:103F6000FFFFFFFFFFFFFFFFFFFFE000000000007B
:103F700000000000000003FFFC01FC1FFFC003FF66
:103F8000F800007FFF0000000000000000000000BB
:103F9000000003FFFFFFFFFFFFFFFFFFFFFF83FFA7
:103FA000FFFFFFFC1FFFF83F07F800FC1FFFC1F0F9
:103FB0007FFE0FFFFFFFFFFFFFFFFFFFFFFFFFFF82
:103FC000FFFFFFFFFFFFFFFFFFFFFFFFFFFFE0001F
:103FD0000000000000000000000003FFFC03FC1FC5
:103FE000FFC003FFF800007FFF000000000000009A
:103FF00000000000000003FFFFFFFFFFFFFFFFFFC7
:10400000FFFF83FFFFFE0FF81FFFF83F07F800FCDC
:104010000FFF81F07FFE0FFFFFFFFFFFFFFFFFFF9E
:10402000FFFFFFFFFFFFFFFFFFFFFFFFFFFFFFFFA0
:10403000FFFFE00000000000000000000007C1FFDB
:10404000FC03FFFFFFC003FFF800007FFF0000003C
:104050000000000000000000000003FFFFFFFFFF62
:10406000FFFFFFFFFFFF83FFFFFE0FF83FFFF83F5B
:1040700007FC00FC07FF01F07FFE0FFFFFFFFFFFC3
:10408000FFFFFFFFFFFFFFFFFFFFFFFFFFFFFFFF40
:10409000FFFFFFFFFFFFE000000000000000000046
:1040A000000FE1FFFC03FFFFFFC003FFF800007FEC
:1040B000FF0000000000000000000000000003FFFF
:1040C000FFFFFFFFFFFFFFFFFFFF03FFFFFE07F004
:1040D0003FFFF83F07FE00FE03FE03F07FFE0FFFE9
:1040E000FFFFFFFFFFFFFFFFFFFFFFFFFFFFFFFFE0
:1040F000FFFFFFFFFFFFFFFFFFFFE00000000000EA
:1041000000000000000FF0FFFC03FFFFFFC003FFF3
:10411000F800007FFF03F000000000000000000036
:10412000000003FFFFFFFFFFFFFFFFFFFFFF07FF91
:10413000FFFE01C03FFFF83F07FE00FF007803F0DD
:104140007FFE0FFFFFFFFFFFFFFFFFFFFFFFFFFFF0
:10415000FFFFFFFFFFFFFFFFFFFFFFFFFFFFE0008D
:104160000000000000000000000FF07FFC03FFFFD4
:10417000FFC003FFF83F007FFF07F00000000000D2
:1041800000000000000003FFFFFFFFFFFFFFFFFF35
:10419000FFFF07FFF03F00007FFFF83F07FF00FF32
:1041A000000007F07FFE0FFFFFFFFFFFFFFFFFFF95
:1041B000FFFFFFFFFFFFFFFFFFFFFFFFFFFFFFFF0F
:1041C000FFFFE00000000000000000000007F07F9B
:1041D000FC03FFFFFFE003FFF83F807FFF07F000D5
:1041E0000000000000000000000003FFFFFFFFFFD1
:1041F000FFFFFFFFFFFF07FFF03F8000FFFFF83FDB
:1042000007FF80FF80000FF07FFE0FFFFFFFFFFF23
:10421000FFFFFFFFFFFFFFFFFFFFFFFFFFFFFFFFAE
:10422000FFFFFFFFFFFFE0000000000000000000B4
:104230000007F83FFC03F80FFFE003FFF87F807FE3
:10424000FF07F0000000000000000000000003FF76
:10425000FFFFFFFFFFFFFFFFFFFF07FFF03FC00172
:10426000FFFFF83F07FF80FFC0001FF07FFE0FFF3A
:10427000FFFFFFFFFFFFFFFFFFFFFFFFFFFFFFFF4E
:10428000FFFFFFFFFFFFFFFFFFFFE0000000000058
:10429000000000000007F83FFC07F80FFFE003FFF5
:1042A000F87F007FFF0FF00000000000000000001A
:1042B000000003FFFFFFFFFFFFFFFFFFFFFF07FF00
:1042C000F03FE003FFFFF83F07FFC0FFF0007FF083
:1042D0007FFE0FFFFFFFFFFFFFFFFFFFFFFFFFFF5F
:1042E000FFFFFFFFFFFFFFFFFFFFFFFFFFFFE000FC
:1042F00000000000000000000007F83FFC07F80F76
:10430000FFE003FFF87F007FFF0FF00000000000D8
:1043100000000000000003FFFFFFFFFFFFFFFFFFA3
:10432000FFFF0FFFF83FFC1FFFFFF87F07FFE0FFD5
:10433000FE03FFF87FFE1FFFFFFFFFFFFFFFFFFFF2
:10434000FFFFFFFFFFFFFFFFFFFFFFFFFFFFFFFF7D
:10435000FFFFE00000000000000000000007FC1F5D
:10436000F807F007FFE003FFF8FF007FFF0FE00012
:104370000000000000000000000003FFFFFFFFFF3F
:10438000FFFFFFFFFFFFFFFFFFFFFFFFFFFFFFFF3D
:10439000FFFFFFFFFFFFFFFFFFFFFFFFFFFFFFFF2D
:1043A000FFFFFFFFFFFFFFFFFFFFFFFFFFFFFFFF1D
:1043B000FFFFFFFFFFFFE000000000000000000023
:1043C0000007FC1FF807F007FFF003FFF8FF007F6E
:1043D000FF1FE0000000000000000000000003FFDD
:1043E000FFFFFFFFFFFFFFFFFFFFFFFFFFFFFFFFDD
:1043F000FFFFFFFFFFFFFFFFFFFFFFFFFFFFFFFFCD
:10440000FFFFFFFFFFFFFFFFFFFFFFFFFFFFFFFFBC
:10441000FFFFFFFFFFFFFFFFFFFFE00000000000C6
:10442000000000000007FE1FF80FF80FFFF007FF65
:10443000F8FF00FFFF1FE000000000000000000088
:10444000000003FFFFFFFFFFFFFFFFFFFFFFFFFF76
:10445000FFFFFFFFFFFFFFFFFFFFFFFFFFFFFFFF6C
:10446000FFFFFFFFFFFFFFFFFFFFFFFFFFFFFFFF5C
:10447000FFFFFFFFFFFFFFFFFFFFFFFFFFFFE0006A
:1044800000000000000000000003FF1FF01FFC1FE1
:10449000FFF81FFFF9FF01FFFF3FE00000000000F1
:1044A00000000000000003FFFFFFFFFFFFFFFFFF12
:1044B000FFFFFFFFFFFFFFFFFFFFFFFFFFFFFFFF0C
:1044C000FFFFFFFFFFFFFFFFFFFFFFFFFFFFFFFFFC
:1044D000FFFFFFFFFFFFFFFFFFFFFFFFFFFFFFFFEC
:1044E000FFFFE00000000000000000000003FFBF2D
:1044F000F01FFE3FFFFC1FFFFFFF03FFFFFFE00079
:104500000000000000000000000003FFFFFFFFFFAD
:10451000FFFFFFFFFFFFFFFFFFFFFFFFFFFFFFFFAB
:10452000FFFFFFFFFFFFFFFFFFFFFFFFFFFFFFFF9B
:10453000FFFFFFFFFFFFFFFFFFFFFFFFFFFFFFFF8B
:10454000FFFFFFFFFFFFE000000000000000000091
:104550000003FFFFE01FFE3FFFFC1FFFFFFE03FF06
:10456000FFFFC0000000000000000000000003FF8B
:10457000FFFFFFFFFFFFFFFFFFFFFFFFFFFFFFFF4B
:10458000FFFFFFFFFFFFFFFFFFFFFFFFFFFFFFFF3B
:10459000FFFFFFFFFFFFFFFFFFFFFFFFFFFFFFFF2B
:1045A000FFFFFFFFFFFFFFFFFFFFE0000000000035
:1045B000000000000003FFFFC01FFE3FFFFC1FFFC5
:1045C000FFFE03FFFFFFC00000000000000000002E
:1045D000000003FFFFFFFFFFFFFFFFFFFFFFFFFFE5
:1045E000FFFFFFFFFFFFFFFFFFFFFFFFFFFFFFFFDB
:1045F000FFFFFFFFFFFFFFFFFFFFFFFFFFFFFFFFCB
:10460000FFFFFFFFFFFFFFFFFFFFFFFFFFFFE000D8
:1046100000000000000000000003FFFF801FFE3FBD
:10462000FFFC1FFFFFFE03FFFFFFC00000000000B4
:1046300000000000000003FFFFFFFFFFFFFFFFFF80
:10464000FFFFFFFFFFFFFFFFFFFFFFFFFFFFFFFF7A
:10465000FFFFFFFFFFFFFFFFFFFFFFFFFFFFFFFF6A
:10466000FFFFFFFFFFFFFFFFFFFFFFFFFFFFFFFF5A
:10467000FFFFE00000000000000000000003FFFF5B
:10468000001FFE1FFFF81FFFFFFE03FFFFFFC0001C
:104690000000000000000000000003FFFFFFFFFF1C
:1046A000FFFFFFFFFFFFFFFFFFFFFFFFFFFFFFFF1A
:1046B000FFFFFFFFFFFFFFFFFFFFFFFFFFFFFFFF0A
:1046C000FFFFFFFFFFFFFFFFFFFFFFFFFFFFFFFFFA
:1046D000FFFFFFFFFFFFE000000000000000000000
:1046E0000001F1FC000000000000000000000000DC
:1046F000000000000000000000000000000003FFB8
:10470000FFFFFFFFFFFFFFFFFFFFFFFFFFFFFFFFB9
:10471000FFFFFFFFFFFFFFFFFFFFFFFFFFFFFFFFA9
:10472000FFFFFFFFFFFFFFFFFFFFFFFFFFFFFFFF99
:10473000FFFFFFFFFFFFFFFFFFFFE00000000000A3
:104740000000000000000000000000000000000069
:104750000000000000000000000000000000000059
:10476000000003FFFFFFFFFFFFFFFFFFFFFFFFFF53
:10477000FFFFFFFFFFFFFFFFFFFFFFFFFFFFFFFF49
:10478000FFFFFFFFFFFFFFFFFFFFFFFFFFFFFFFF39
:10479000FFFFFFFFFFFFFFFFFFFFFFFFFFFFE00047
:1047A0000000000000000000000000000000000009
:1047B00000000000000000000000000000000000F9
:1047C00000000000000003FFFFFFFFFFFFFFFFFFEF
:1047D000FFFFFFFFFFFFFFFFFFFFFFFFFFFFFFFFE9
:1047E000FFFFFFFFFFFFFFFFFFFFFFFFFFFFFFFFD9
:1047F000FFFFFFFFFFFFFFFFFFFFFFFFFFFFFFFFC9
:10480000FFFFE000000000000000000000000000CA
:104810000000000000000000000000000000000098
:104820000000000000000000000003FFFFFFFFFF8A
:10483000FFFFFFFFFFFFFFFFFFFFFFFFFFFFFFFF88
:10484000FFFFFFFFFFFFFFFFFFFFFFFFFFFFFFFF78
:10485000FFFFFFFFFFFFFFFFFFFFFFFFFFFFFFFF68
:10486000FFFFFFFFFFFFE00000000000000000006E
:104870000000000000000000000000000000000038
:10488000000000000000000000000000000003FF26
:10489000FFFFFFFFFFFFFFFFFFFFFFFFFFFFFFFF28
:1048A000FFFFFFFFFFFFFFFFFFFFFFFFFFFFFFFF18
:1048B000FFFFFFFFFFFFFFFFFFFFFFFFFFFFFFFF08
:1048C000FFFFFFFFFFFFFFFFFFFFE0000000000012
:1048D00000000000000000000000000000000000D8
:1048E00000000000000000000000000000000000C8
:1048F000000003FFFFFFFFFFFFFFFFFFFFFFFFFFC2
:10490000FFFFFFFFFFFFFFFFFFFFFFFFFFFFFFFFB7
:10491000FFFFFFFFFFFFFFFFFFFFFFFFFFFFFFFFA7
:10492000FFFFFFFFFFFFFFFFFFFFFFFFFFFFE000B5
:104930000000000000000000000000000000000077
:104940000000000000000000000000000000000067
:1049500000000000000003FFFFFFFFFFFFFFFFFF5D
:10496000FFFFFFFFFFFFFFFFFFFFFFFFFFFFFFFF57
:10497000FFFFFFFFFFFFFFFFFFFFFFFFFFFFFFFF47
:10498000FFFFFFFFFFFFFFFFFFFFFFFFFFFFFFFF37
:10499000FFFFE00000000000000000000000000039
:1049A0000000000000000000000000000000000007
:1049B0000000000000000000000003FFFFFFFFFFF9
:1049C000FFFFFFFFFFFFFFFFFFFFFFFFFFFFFFFFF7
:1049D000FFFFFFFFFFFFFFFFFFFFFFFFFFFFFFFFE7
:1049E000FFFFFFFFFFFFFFFFFFFFFFFFFFFFFFFFD7
:1049F000FFFFFFFFFFFFE0000000000000000000DD
:104A000000000000000000000000000000000000A6
:104A1000000000000000000000000000000003FF94
:104A2000FFFFFFFFFFFFFFFFFFFFFFFFFFFFFFFF96
:104A3000FFFFFFFFFFFFFFFFFFFFFFFFFFFFFFFF86
:104A4000FFFFFFFFFFFFFFFFFFFFFFFFFFFFFFFF76
:104A5000FFFFFFFFFFFFFFFFFFFFE0000000000080
:104A60000000000000000000000000000000000046
:104A70000000000000000000000000000000000036
:104A8000000003FFFFFFFFFFFFFFFFFFFFFFFFFF30
:104A9000FFFFFFFFFFFFFFFFFFFFFFFFFFFFFFFF26
:104AA000FFFFFFFFFFFFFFFFFFFFFFFFFFFFFFFF16
:104AB000FFFFFFFFFFFFFFFFFFFFFFFFFFFFE00024
:104AC00000000000000000000000000000000000E6
:104AD00000000000000000000000000000000000D6
:104AE00000000000000003FFFFFFFFFFFFFFFFFFCC
:104AF000FFFFFFFFFFFFFFFFFFFFFFFFFFFFFFFFC6
:104B0000FFFFFFFFFFFFFFFFFFFFFFFFFFFFFFFFB5
:104B1000FFFFFFFFFFFFFFFFFFFFFFFFFFFFFFFFA5
:104B2000FFFFE000000000000000000000000000A7
:104B30000000000000000000000000000000000075
:104B40000000000000000000000003FFFFFFFFFF67
:104B5000FFFFFFFFFFFFFFFFFFFFFFFFFFFFFFFF65
:104B6000FFFFFFFFFFFFFFFFFFFFFFFFFFFFFFFF55
:104B7000FFFFFFFFFFFFFFFFFFFFFFFFFFFFFFFF45
:104B8000FFFFFFFFFFFFE00000000000000000004B
:104B90000000000000000000000000000000000015
:104BA000000000000000000000000000000003FF03
:104BB000FFFFFFFFFFFFFFFFFFFFFFFFFFFFFFFF05
:104BC000FFFFFFFFFFFFFFFFFFFFFFFFFFFFFFFFF5
:104BD000FFFFFFFFFFFFFFFFFFFFFFFFFFFFFFFFE5
:104BE000FFFFFFFFFFFFFFFFFFFFE00000000000EF
:104BF00000000000000000000000000000000000B5
:104C000000000000000000000000000000000000A4
:104C1000000003FFFFFFFFFFFFFFFFFFFFFFFFFF9E
:104C2000FFFFFFFFFFFFFFFFFFFFFFFFFFFFFFFF94
:104C3000FFFFFFFFFFFFFFFFFFFFFFFFFFFFFFFF84
:104C4000FFFFFFFFFFFFFFFFFFFFFFFFFFFFE00092
:104C50000000000000000000000000000000000054
:104C60000000000000000000000000000000000044
:104C700000000000000003FFFFFFFFFFFFFFFFFF3A
:104C8000FFFFFFFFFFFFFFFFFFFFFFFFFFFFFFFF34
:104C9000FFFFFFFFFFFFFFFFFFFFFFFFFFFFFFFF24
:104CA000FFFFFFFFFFFFFFFFFFFFFFFFFFFFFFFF14
:104CB000FFFFE00000000000000000000000000016
:104CC00000000000000000000000000000000000E4
:104CD0000000000000000000000003FFFFFFFFFFD6
:104CE000FFFFFFFFFFFFFFFFFFFFFFFFFFFFFFFFD4
:104CF000FFFFFFFFFFFFFFFFFFFFFFFFFFFFFFFFC4
:104D0000FFFFFFFFFFFFFFFFFFFFFFFFFFFFFFFFB3
:104D1000FFFFFFFFFFFFE0000000000000000000B9
:104D20000000000000000000000000000000000083
:104D3000000000000000000000000000000003FF71
:104D4000FFFFFFFFFFFFFFFFFFFFFFFFFFFFFFFF73
:104D5000FFFFFFFFFFFFFFFFFFFFFFFFFFFFFFFF63
:104D6000FFFFFFFFFFFFFFFFFFFFFFFFFFFFFFFF53
:104D7000FFFFFFFFFFFFFFFFFFFFE000000000005D
:104D80000000000000000000000000000000000023
:104D90000000000000000000000000000000000013
:104DA000000003FFFFFFFFFFFFFFFFFFFFFFFFFF0D
:104DB000FFFFFFFFFFFFFFFFFFFFFFFFFFFFFFFF03
:104DC000FFFFFFFFFFFFFFFFFFFFFFFFFFFFFFFFF3
:104DD000FFFFFFFFFFFFFFFFFFFFFFFFFFFFE00001
:104DE00000000000000000000000000000000000C3
:104DF00000000000000000000000000000000000B3
:104E000000000000000003FFFFFFFFFFFFFFFFFFA8
:104E1000FFFFFFFFFFFFFFFFFFFFFFFFFFFFFFFFA2
:104E2000FFFFFFFFFFFFFFFFFFFFFFFFFFFFFFFF92
:104E3000FFFFFFFFFFFFFFFFFFFFFFFFFFFFFFFF82
:104E4000FFFFE00000000000000000000000000084
:104E50000000000000000000000000000000000052
:104E60000000000000000000000003FFFFFFFFFF44
:104E7000FFFFFFFFFFFFFFFFFFFFFFFFFFFFFFFF42
:104E8000FFFFFFFFFFFFFFFFFFFFFFFFFFFFFFFF32
:104E9000FFFFFFFFFFFFFFFFFFFFFFFFFFFFFFFF22
:104EA000FFFFFFFFFFFFE000000000000000000028
:104EB00000000000000000000000000000000000F2
:104EC000000000000000000000000000000003FFE0
:104ED000FFFFFFFFFFFFFFFFFFFFFFFFFFFFFFFFE2
:104EE000FFFFFFFFFFFFFFFFFFFFFFFFFFFFFFFFD2
:104EF000FFFFFFFFFFFFFFFFFFFFFFFFFFFFFFFFC2
:104F0000FFFFFFFFFFFFFFFFFFFFE00000000000CB
:104F10000000000000000000000000000000000091
:104F20000000000000000000000000000000000081
:104F3000000003FFFFFFFFFFFFFFFFFFFFFFFFFF7B
:104F4000FFFFFFFFFFFFFFFFFFFFFFFFFFFFFFFF71
:104F5000FFFFFFFFFFFFFFFFFFFFFFFFFFFFFFFF61
:104F6000FFFFFFFFFFFFFFFFFFFFFFFFFFFFE0006F
:104F70000000000000000000000000000000000031
:104F80000000000000000000000000000000000021
:104F900000000000000003FFFFFFFFFFFFFFFFFF17
:104FA000FFF800001FFFFE00007FFF80FFFC0000F5
:104FB000FFC00000FC00007FFFFF00007FFE0FFE2F
:104FC000003FFC0000FFC1FFFFFF01FFC0FFFE0329
:104FD000FFFFE000000000000000000000000000F3
:104FE00000000000000000000000000000000000C1
:104FF0000000000000000000000003FFFFFFFFFFB3
:10500000FFFFFFFFFFF800001FFFFE00001FFF80F3
:10501000FFFC00003FC00000FC00001FFFFF00007D
:105020001FFE0FF8000FFC00003FC1FFFFFF01FF54
:10503000E07FFE07FFFFE00000000000000000002E
:105040000000000000000000000000000000000060
:10505000000000000000000000000000000003FF4E
:10506000FFFFFFFFFFFFFFFFFFF800001FFFFE0035
:10507000000FFF80FFFC00001FC00000FC00000FBD
:10508000FFFF000007FE0FF00007FC00001FC1FF3C
:10509000FFFF01FFE03FFC0FFFFFE000000000000A
:1050A0000000000000000000000000000000000000
:1050B00000000000000000000000000000000000F0
:1050C000000003FFFFFFFFFFFFFFFFFFFFF80000EF
:1050D0001FFFFE000007FF007FFC00000FC0000064
:1050E000FC000007FFFF000003FE0FE00003FC00D0
:1050F000000FC1FFFFFE00FFF03FF80FFFFFE000D1
:10510000000000000000000000000000000000009F
:10511000000000000000000000000000000000008F
:1051200000000000000003FFFFFFFFFFFFFFFFFF85
:10513000FFF800001FFFFE000007FF007FFC0000DB
:105140000FC00000FC000003FFFF000003FE0FE0A3
:105150000001FC00000FC1FFFFFE00FFF81FF81F59
:10516000FFFFE000000000000000007C00000000E5
:10517000000000000000000000000000000000002F
:105180000000000000000000000003FFFFFFFFFF21
:10519000FFFFFFFFFFF83FFFFFFFFE0FFE03FF00D3
:1051A0003FFC1FFC07C1FFFFFC1FFE03FFFF07FEC4
:1051B00001FE0FC07F81FC1FFC07C1FFFFFE007FC7
:1051C000F80FF03FFFFFE000000000000000007C4F
:1051D00000000000000000000000000000000000CF
:1051E000000000000000000000000000000003FFBD
:1051F000FFFFFFFFFFFFFFFFFFF83FFFFFFFFE0F77
:10520000FF03FE003FFC1FFE07C1FFFFFC1FFF0363
:10521000FFFF07FF80FE0FC1FFC0FC1FFE07C1FF9D
:10522000FFFC007FFC0FE03FFFFFE00000000000FC
:105230000000007C000000000000000000000000F2
:10524000000000000000000000000000000000005E
:10525000000003FFFFFFFFFFFFFFFFFFFFF83FFF1F
:10526000FFFFFE0FFF83FE083FFC1FFF07C1FFFF8C
:10527000FC1FFF83FFFF07FFC0FE0FC1FFC0FC1F25
:10528000FF07C1FFFFFC107FFE07E07FFFFFE0008C
:1052900000000000000001FF8000000007FC00008B
:1052A00000003FC0000000000000000000000000FF
:1052B00000000000000003FFFFFFFFFFFFFFFFFFF4
:1052C000FFF83FFFFFFFFE0FFF83FC081FFC1FFFDF
:1052D00007C1FFFFFC1FFF83FFFF07FFC0FE0FC1D9
:1052E000FFE0FC1FFF07C1FFFFF8103FFE03C0FFF8
:1052F000FFFFE0000000000000001FFFF0000000C2
:105300003FFFC0000001FFFC0000000000000000A3
:105310000000000000000000000003FFFFFFFFFF8F
:10532000FFFFFFFFFFF83FFFFFFFFE0FFF83FC1CA7
:105330001FFC1FFF07C1FFFFFC1FFF83FFFF07FFCD
:10534000E07E0FC1FFE0FC1FFF07C1FFFFF8383F01
:10535000FF03C1FFFFFFE0000000000000007FFF2F
:10536000FC000000FFFFF0000007FFFF000000004E
:10537000000000000000000000000000000003FF2B
:10538000FFFFFFFFFFFFFFFFFFF83FFFFFFFFE0FE5
:10539000FF83FC1C0FFC1FFF07C1FFFFFC1FFF0367
:1053A000FFFF07FFE07E0FC0FFFFFC1FFF07C1FFED
:1053B000FFF8381FFF8181FFFFFFE00000000000C1
:1053C0000001FFFFFE000001FFFFF800001FFFFFCC
:1053D000800000000000000000000000000000004D
:1053E000000003FFFFFFFFFFFFFFFFFFFFF83FFF8E
:1053F000FFFFFE0FFF03F81E0FFC1FFE07C1FFFF9C
:10540000FC1FF803FFFF07FFE07E0FE00FFFFC1F0C
:10541000FE07C1FFFFF03C1FFF8103FFFFFFE0001D
:10542000000000000003FFFFFF000003FFFFFC007F
:10543000003FFFFFC000000000000000000000006F
:1054400000000000000003FFFFFFFFFFFFFFFFFF62
:10545000FFF800003FFFFE0FFE03F83E0FFC1FFCAD
:1054600007C00001FC000007FFFF07FFF07E0FE010
:1054700000FFFC1FFC07C1FFFFF07C1FFFC007FF00
:10548000FFFFE000000000000007FFFFFF800007B3
:10549000FFFFFE00007FFFFFE000000000000000B3
:1054A0000000000000000000000003FFFFFFFFFFFE
:1054B000FFFFFFFFFFF800003FFFFE0FF807F83E79
:1054C00007FC1FF00FC00001FC000007FFFF07FFF3
:1054D000F07E0FF0001FFC1FF00FC1FFFFF07C0FEC
:1054E000FFE007FFFFFFE000000000000007FFFFF4
:1054F000FFC0000FFFFFFF0000FFFFFFF0000000F4
:10550000000000000000000000000000000003FF99
:10551000FFFFFFFFFFFFFFFFFFF800003FFFFE0060
:105520000007F03F07FC00000FC00001FC00000F67
:10553000FFFF07FFF07E0FFC0007FC00000FC1FF1C
:10554000FFE07E0FFFE00FFFFFFFE0000000000024
:10555000000FFF7FFFE0000FFE07FF0000FFF03F9E
:10556000F800000000000000000000000000000043
:10557000000003FFFFFFFFFFFFFFFFFFFFF800003A
:105580003FFFFE00000FF07F03FC00001FC0000182
:10559000FC00003FFFFF07FFF07E0FFF0001FC0053
:1055A000001FC1FFFFE0FE07FFF01FFFFFFFE0004D
:1055B00000000000000FFC7FFFE0001FF803FF80E9
:1055C00001FFC00FFC000000000000000000000010
:1055D00000000000000003FFFFFFFFFFFFFFFFFFD1
:1055E000FFF800003FFFFE00001FE00003FC00008A
:1055F0003FC00001FC0000FFFFFF07FFF07E0FFF30
:10560000F801FC00003FC1FFFFC00007FFF81FFFCB
:10561000FFFFE00000000000001FF87C7FE0001F9B
:10562000F000FF8001FF8007FC0000000000000088
:105630000000000000000000000003FFFFFFFFFF6C
:10564000FFFFFFFFFFF83FFFFC003E00003FE000D0
:1056500003FC00007FC1FFFFFC1FC07FFFFF07FFAF
:10566000E07E0FFFFF80FC00007FC1FFFFC000074E
:10567000FFF83FFFFFFFE00000000000001FF07C8C
:105680003FF0003FE000FF8003FF0003FE0000004A
:10569000000000000000000000000000000003FF08
:1056A000FFFFFFFFFFFFFFFFFFF83FFFFC003E0093
:1056B00003FFE00001FC0007FFC1FFFFFC1FE03F0C
:1056C000FFFF07FFE07E0FFFFFE0FC0007FFC1FFC9
:1056D000FFC00003FFF83FFFFFFFE00000000000F5
:1056E000001FF07C1FF0003FE0007F8003FE0003FE
:1056F000FE000000000000000000000000000000AC
:10570000000003FFFFFFFFFFFFFFFFFFFFF83FFF6A
:10571000FC003E0FFFFFC00001FC1FFFFFC1FFFFA9
:10572000FC1FF03FFFFF07FFE07E0F83FFE07C1FC1
:10573000FFFFC1FFFF800003FFF83FFFFFFFE00016
:1057400000000000001FE07C1FF0003FE0007F80B1
:1057500003FE0001FE000000000000000000000049
:1057600000000000000003FFFFFFFFFFFFFFFFFF3F
:10577000FFF83FFFFC003E0FFFFFC00000FC1FFFD3
:10578000FFC1FFFFFC1FF81FFFFF07FFE0FE0F83B5
:10579000FFF07C1FFFFFC1FFFF800001FFF83FFF0C
:1057A000FFFFE00000000000001FE07C0FF0003F62
:1057B000C0007F8003FC0001FF000000000000002B
:1057C0000000000000000000000003FFFFFFFFFFDB
:1057D000FFFFFFFFFFF83FFFFFFFFE0FFFFFC1FFCF
:1057E000C0FC1FFFFFC1FFFFFC1FF80FFFFF07FFFB
:1057F000C0FE0F83FFF07C1FFFFFC1FFFF83FF810F
:10580000FFF83FFFFFFFE00000000000001FE07C0A
:105810000F00003FC0007F8007FC0001FF00000078
:10582000000000000000000000000000000003FF76
:10583000FFFFFFFFFFFFFFFFFFF83FFFFFFFFE0F30
:10584000FFFF81FFE0FC1FFFFFC1FFFFFC1FFC0FFC
:10585000FFFF07FF80FE0F81FFE07C1FFFFFC1FFFE
:10586000FF03FFC1FFF83FFFFFFFE0000000000063
:10587000001FE07C0000003FE0007F8007FC00008C
:10588000FF00000000000000000000000000000019
:10589000000003FFFFFFFFFFFFFFFFFFFFF83FFFD9
:1058A000FFFFFE0FFFFF83FFE07C1FFFFFC1FFFF35
:1058B000FC1FFE07FFFF07FF01FE0FC0FFC0FC1F1C
:1058C000FFFFC1FFFF07FFC0FFF83FFFFFFFE00042
:1058D00000000000001FF07C0000003FE0007F801F
:1058E00007FC0000FF0000000000000000000000B6
:1058F00000000000000003FFFFFFFFFFFFFFFFFFAE
:10590000FFF83FFFFFFFFE0FFFFF03FFE07C1FFFDD
:10591000FFC1FFFFFC1FFE03FFFF07F801FE0FC0E2
:105920001F00FC1FFFFFC1FFFE07FFC0FFF83FFF86
:10593000FFFFE00000000000001FF07C0000001FDF
:10594000E000FF8007F80000FF00000000001FC01B
:1059500000003F8000000000000003FFFFFFFFFF8A
:10596000FFFFFFFFFFF800000FFFFE0FFFFF03FF29
:10597000F03C1FFFFFC000007C1FFF03FFFF000083
:1059800003FE0FE00001FC1FFFFFC0000607FFE061
:105990007FF83FFFFFFFE00000000000001FF87CE1
:1059A0000000001FF000FF8007F80000FF0000006B
:1059B0000000FFF80001FFF000000000000003FFFE
:1059C000FFFFFFFFFFFFFFFFFFF800000FFFFE0FCD
:1059D000FFFF07FFF03C1FFFFFC000007C1FFF819F
:1059E000FFFF000007FE0FF00001FC1FFFFFC000DB
:1059F000060FFFE07FF83FFFFFFFE0000000000020
:105A0000000FFE7C0000001FF801FF0007F80000F7
:105A1000FF8000000001FFFC0003FFF80000000011
:105A2000000003FFFFFFFFFFFFFFFFFFFFF8000085
:105A30000FFFFE0FFFFE07FFF83C1FFFFFC0000037
:105A40007C1FFF80FFFF00000FFE0FF80007FC1F08
:105A5000FFFFC000040FFFF07FF83FFFFFFFE000F3
:105A600000000000000FFFFC0000000FFE07FF0019
:105A700007FC0000FF8000000003FFFE0007FFFCA2
:105A800000000000000003FFFFFFFFFFFFFFFFFF1C
:105A9000FFF800000FFFFE0FFFFE07FFF81C1FFFBF
:105AA000FFC000007C1FFFC0FFFF00003FFE0FFE95
:105AB000000FFC1FFFFFC000040FFFF03FF83FFF87
:105AC000FFFFE000000000000007FFFC00000007EF
:105AD000FFFFFE0007FC0000FF8000000007FCFF46
