:020000040800F2
:1000000000040020DF0D0008ED0D0008EF0D0008D2
:10001000F10D0008F30D0008F50D000800000000C8
:10002000000000000000000000000000F70D0008C4
:10003000F90D000800000000FB0D0008FD0D000890
:10004000410E0008430E0008450E0008470E000848
:10005000490E00084B0E00084D0E00084F0E000818
:10006000510E0008530E0008550E0008570E0008E8
:10007000590E00085B0E00085D0E00085F0E0008B8
:10008000610E0008630E0008650E0008FF0D0008F1
:10009000FF0D0008FF0D0008FF0D00086F0E00089F
:1000A000710E0008730E0008750E0008770E000828
:1000B000790E00087B0E00087D0E00087F0E0008F8
:1000C000810E0008830E0008850E0008870E0008C8
:1000D000890E00088B0E00088D0E00088F0E000898
:1000E000910E0008930E0008950E0008970E000868
:1000F000990E00089B0E00089D0E00089F0E000838
:10010000A10E0008A30E0008A50E0008A70E000807
:10011000A90E0008AB0E0008AD0E0008AF0E0008D7
:10012000B10E0008B30E0008B50E0008B70E0008A7
:1001300000F002F800F03AF80AA090E8000C8244BF
:100140008344AAF10107DA4501D100F02FF8AFF29C
:10015000090EBAE80F0013F0010F18BFFB1A43F0A5
:10016000010318474489000064890000103A24BF45
:1001700078C878C1FAD8520724BF30C830C144BF0C
:1001800004680C607047000000230024002500264E
:10019000103A28BF78C1FBD8520728BF30C148BFEA
:1001A0000B6070471FB51FBD10B510BD01F0C1FB3E
:1001B0001146FFF7F7FF01F0FAF901F0DFFB03B496
:1001C000FFF7F2FF03BC01F0E3FB000010B50446AB
:1001D000C248844208D10121042000F017FB00210D
:1001E000042000F013FB46E0BD48844208D1012101
:1001F000082000F00BFB0021082000F007FB3AE08C
:10020000B848844208D10121102000F0FFFA0021F3
:10021000102000F0FBFA2EE0B348844208D10121FF
:10022000202000F0F3FA0021202000F0EFFA22E075
:10023000AE48844208D10121402000F0E7FA0021B5
:10024000402000F0E3FA16E0A948844208D10121D9
:10025000802000F0DBFA0021802000F0D7FA0AE0CD
:10026000A448844207D10121801500F0CFFA002173
:10027000A01500F0CBFA10BD10B50121084600F022
:10028000C5FA0021012000F0C1FA10BD2DE9F041AE
:10029000024600250026002000230024002791F8B4
:1002A00003C00CF00F0591F803C01CF0100F03D031
:1002B00091F802C04CEA050591F800C0BCF1000FAE
:1002C00031D0146800202BE04FF0010C0CFA00F341
:1002D000B1F800C00CEA03069E4220D183004FF023
:1002E0000F0C0CFA03F7BC4305FA03FC4CEA0404B8
:1002F00091F803C0BCF1280F06D14FF0010C0CFAA5
:1003000000FCC2F814C00AE091F803C0BCF1480F29
:1003100005D14FF0010C0CFA00FCC2F810C0401CD3
:100320000828D1D31460B1F800C0BCF1FF0F34DD50
:10033000546800202EE000F1080C4FF0010808FA84
:100340000CF3B1F800C00CEA03069E4221D18300F1
:100350004FF00F0C0CFA03F7BC4305FA03FC4CEA10
:10036000040491F803C0BCF1280F05D100F1080C7A
:1003700008FA0CF8C2F8148091F803C0BCF1480FD9
:1003800007D100F1080C4FF0010808FA0CF8C2F888
:100390001080401C0828CED35460BDE8F0814FF691
:1003A000FF710180022181700421C17070470246F3
:1003B000002093680B4201D0012000E0002070472C
:1003C0000146886880B2704702460020D3680B421D
:1003D00001D0012000E0002070470146C86880B2CB
:1003E000704701617047416170470AB1016100E0E7
:1003F00041617047C16070474FF480320A438261A7
:1004000081618261826982697047024600203A4BAD
:1004100018684FF68073184040EA02100843364BC4
:10042000186070473549C8617047F0B50A46002327
:10043000002400210025304E7168C0F3034583B2CB
:1004400000F44016B6F5401F08D121F070612A4E25
:10045000766826F07066284F7E6012E000F4801601
:10046000B6F5801F06D1032606FA05F4A14341F034
:10047000706106E0460D360103FA06F6B14341F01D
:10048000706122B1460D360103FA06F631431A4E69
:100490007160F0BD30B500228B071C0F0F2303FAEB
:1004A00004F2154B08338C1053F824309343124C4C
:1004B00008348D1044F8253023468C1053F824302E
:1004C0008C07240F00FA04F423430B4C08348D10DE
:1004D00044F8253030BD0A490860704700080140E3
:1004E000000C0140001001400014014000180140C0
:1004F000001C01400020014000000140000020429B
:10050000DC002042DD48006840F00100DB49086063
:1005100008464068DA490840D849486008460068FB
:10052000D8490840D54908600846006820F4802072
:1005300008600846406820F4FE0048604FF41F0041
:1005400088607047CD49096821F48031CB4A116039
:100550001146096821F480211160B0F5803F03D075
:10056000B0F5802F0ED106E0C449096841F480310E
:10057000C24A116007E0C149096841F4A021BF4A9D
:10058000116000E000BF00BF704710B501460022B7
:10059000002300204A11012A02D1B84C236806E04A
:1005A000022A02D1B54C236A01E0B44C636A01F01F
:1005B0001F02012494401C4201D0012000E00020D1
:1005C00010BD38B5002000900024002500BF312068
:1005D000FFF7DBFF05460098401C00900098B0F53F
:1005E000A06F01D0002DF2D03120FFF7CEFF08B16F
:1005F000012400E00024204638BD014600209F4A27
:10060000106820F0F80040EAC100106070479E4971
:100610000860704702460020984B586820F47C1010
:1006200042EA01031843954B5860704796490866A3
:10063000704701460020914A506820F003000843AB
:10064000506070478D48406800F00C0070470146CC
:1006500000208A4A506820F0F0000843506070473C
:1006600001460020854A506820F4E060084350604D
:10067000704701460020814A506820F4605040EAEB
:10068000C1005060704729B17C4A527A02437B4BCB
:100690005A7204E0794A527A8243784B5A72704710
:1006A0007A490860704701460020744A506820F477
:1006B00040400843506070470021754A11706F4AEE
:1006C00082F82010012802D0042808D103E001217B
:1006D0006F4A117004E005216D4A117000E000BFFF
:1006E00000BF70476B49086070476449096A01435D
:1006F000624A11627047674944390860704730B5F3
:1007000000210022002400235C4D6D6805F00C01DF
:1007100021B1042905D0082923D105E05E4D0560EB
:1007200022E05D4D05601FE0544D6D6805F47012C8
:10073000524D6D6805F48034022505EB92421CB9D8
:10074000564D554305600BE04C4D6D6815F4003F68
:1007500003D0524D5543056002E04F4D55430560AF
:1007600002E04D4D056000BF00BF444D6D6805F0CF
:10077000F00109094A4D6B5C0568DD4045603F4D5D
:100780006D6805F4E061090A454D6B5C4568DD4024
:1007900085603A4D6D6805F46051C90A404D6B5C47
:1007A0004568DD40C560354D6D6805F44041890BF5
:1007B0003C4D6B5CC568B5FBF3F5056130BD29B1F7
:1007C0002E4A526902432D4B5A6104E02B4A52696A
:1007D00082432A4B5A61704729B1284A92690243E1
:1007E000264B9A6104E0254A92698243234B9A6121
:1007F000704729B1214AD2690243204BDA6104E0F3
:100800001E4AD26982431D4BDA61704729B11B4AE7
:10081000D2680243194BDA6004E0184AD268824376
:10082000164BDA60704729B1144A12690243134B20
:100830001A6104E0114A12698243104B1A61704731
:1008400014494039086070470F49C86470470B4924
:10085000C87170470948406A40F080700749486293
:10086000704701460020054A92680A4201D00120E3
:1008700000E0002070470149887270470010024074
:100880000000FFF8FFFFF6FE00004242D80042429F
:10089000201002408004424200127A0000093D000C
:1008A000000000201000002001460020FD4A1068D2
:1008B00000F03800084310607047FA49096821F0D9
:1008C0000801F84A11601146096801431160704738
:1008D000F449096821F01001F24A116011460968D3
:1008E000014311607047F048EE494860EF484860A6
:1008F0007047EC48006940F08000EA4908617047A1
:100900000420E849C96811F0010F01D001200EE070
:10091000E449C96811F0040F01D0022007E0E14961
:10092000C96811F0100F01D0032000E004207047C7
:1009300008B500200090FF20009002E00098401EC3
:10094000009000980028F9D108BD70B50446042530
:10095000FFF7D6FF054605E0FFF7EAFFFFF7D0FFF8
:100960000546641E012D01D1002CF5D104B90525E1
:10097000284670BD70B50546042440F6FF70FFF7A9
:10098000E4FF0446042C19D1C648006940F0020077
:10099000C449086108464561006940F040000861AB
:1009A00040F6FF70FFF7D1FF0446052C06D0BD4886
:1009B000006941F6FD710840BA490861204670BDE2
:1009C00010B5042440F6FF70FFF7BFFF0446042C67
:1009D00018D1B448006940F00400B24908610846E3
:1009E000006940F04000086140F6FF70FFF7ADFF7E
:1009F0000446052C06D0AB48006941F6FB7108405F
:100A0000A8490861204610BD10B5042440F6FF70C7
:100A1000FFF79BFF0446042C3BD1A348A149886003
:100A2000A24888600846006940F020000861084636
:100A3000006940F04000086140F6FF70FFF785FF55
:100A40000446042C1CD19748006941F6DF71084028
:100A5000944908610846006940F010000861A5202B
:100A6000934908800F20FFF770FF0446052C10D033
:100A70008C48006941F6EF7108408A49086108E036
:100A8000052C06D08748006941F6EF71084085497A
:100A90000861204610BDF8B506460D460424002026
:100AA00000900F20FFF751FF0446042C28D17D4809
:100AB000006940F001007B49086135800F20FFF795
:100AC00044FF0446042C12D1B01C0090280C00995D
:100AD00008800F20FFF739FF0446052C10D071481D
:100AE000006941F6FE7108406E49086108E0052C76
:100AF00006D06C48006941F6FE71084069490861FA
:100B00002046F8BD70B505460E4604240F20FFF7B9
:100B10001CFF0446042C13D16248006940F0010018
:100B2000604908612E800F20FFF70FFF0446052C57
:100B300006D05C48006941F6FE71084059490861D9
:100B4000204670BD70B505460E4604240F20FFF701
:100B5000FCFE0446042C17D1534852498860534880
:100B600088600846006940F0100008612E800F2060
:100B7000FFF7EBFE0446052C06D04A48006941F613
:100B8000EF71084047490861204670BD2DE9F047E4
:100B900004464FF6FF763746B046B1460425E44397
:100BA000E6B2C4F30727C4F307484FEA14690F20DD
:100BB000FFF7CBFE0546042D40D13B4839498860FC
:100BC0003A4888600846006940F010000861FF2E2E
:100BD00006D03748083006800F20FFF7B6FE0546DE
:100BE000042D08D1FF2F06D031480A3007800F208E
:100BF000FFF7ABFE0546042D0AD1B8F1FF0F07D071
:100C00002B480C30A0F800800F20FFF79EFE054611
:100C1000042D0AD1B9F1FF0F07D025480E30A0F8F6
:100C200000900F20FFF791FE0546052D06D01D48C8
:100C3000006941F6EF7108401A4908612846BDE88D
:100C4000F08770B50546042440F6FF70FFF77DFE7F
:100C50000446042C49D1144812498860134888601E
:100C60000846006940F0200008610846006940F02D
:100C70004000086140F6FF70FFF767FE0446042C51
:100C80002AD10848006941F6DF710840054908612A
:100C90000846006940F0100008615DB10020044979
:100CA00008800AE00020024023016745AB89EFCDB0
:100CB00000F8FF1FA5204549088040F6FF70FFF7A8
:100CC00044FE0446052C10D04148006941F6EF71FE
:100CD00008403F49086108E0052C06D03C480069FF
:100CE00041F6DF7108403A490861204670BD2DE9A0
:100CF000F04105460E4617460424364834498860BC
:100D0000354888600F20FFF720FE0446042C19D1D7
:100D10002F48006940F010002D49086147F0F800A5
:100D2000304328432949891C08800F20FFF70DFE16
:100D30000446052C06D02648006941F6EF710840AC
:100D4000234908612046BDE8F0812148C069800838
:100D500070471F48006A704700201D49C96911F09B
:100D6000020F01D0012000E0002070470020184948
:100D7000096811F0200F01D0012000E00020704729
:100D800029B1134A12690243114B1A6104E0104A57
:100D9000126982430E4B1A617047014600200129F7
:100DA00008D10B4AD26912F0010F01D0012008E0EE
:100DB000002006E0064AD2680A4201D0012000E085
:100DC000002070470249C8607047000000F8FF1F0C
:100DD0000020024023016745AB89EFCD70470B48E7
:100DE00080470B4981F308880A480047FEE7FEE781
:100DF000FEE7FEE7FEE7FEE7FEE7FEE7FEE7FEE7CB
:100E000005480649064A074B70470000DD0D0008FB
:100E100078060020310100087800002078060020C4
:100E200078020020780200207047704700BFFEE77C
:100E300000BFFEE700BFFEE770477047704770478E
:100E400070477047704770477047704770477047EA
:100E500070477047704770477047704770477047DA
:100E600070477047704770477047704770477047CA
:100E700070477047704770477047704770477047BA
:100E800070477047704770477047704770477047AA
:100E9000704770477047704770477047704770479A
:100EA000704770477047704770477047704770478A
:100EB000704770477047704700E0401E0128FCD81B
:100EC00070470022002100BF05E0002200E0521C14
:100ED000FF2AFCD9491C8142F7D3704710B5002185
:100EE0000BE0002205E0002300E05B1CDE2BFCDBB6
:100EF000521CB2F57A6FF6DB491C8142F1D310BD6A
:100F000010B500BF712000F0C1FC4FF40051FB4848
:100F1000FFF74DFA044604F0010080F00104002CB4
:100F2000F0D1C820FFF7CDFF10BD10B5502000F064
:100F3000ADFCF72000F0C2FC022000F0A7FCFFF798
:100F4000DFFF072000F0A2FCA52000F0B7FC10BDD9
:100F500010B5122000F09AFC6420FFF7B2FFFFF7F3
:100F6000CFFF10BD10B5102000F090FC002403E06E
:100F7000FF2000F0A3FC641C40F648308442F7D305
:100F80000220FFF79EFF132000F080FC002403E006
:100F9000FF2000F093FC641C40F648308442F7D3F5
:100FA0000220FFF78EFF10BD10B59820D4490870BD
:100FB0000020D44908709820D349087000F09AFCAA
:100FC000062000F063FC172000F078FC172000F0EA
:100FD00075FC172000F072FC042000F057FCFFF7AE
:100FE0008FFF002000F052FC1F2000F067FC0D2056
:100FF00000F064FC612000F049FCC148007800F07A
:101000005DFCC048007800F059FCBF48007800F053
:1010100055FC502000F03AFC972000F04FFC10BD2A
:1010200010B5202000F032FC002404E0B749085D30
:1010300000F044FC641C2C2CF8D3212000F026FC8A
:10104000002404E0B249085D00F038FC641C2A2C3E
:10105000F8D3222000F01AFC002404E0AD49085D1A
:1010600000F02CFC641C2A2CF8D3232000F00EFC8A
:10107000002404E0A849085D00F020FC641C2A2C30
:10108000F8D3242000F002FC002404E0A349085D0A
:1010900000F014FC641C2A2CF8D310BD2DE9FE4F7F
:1010A0000746884692469B4600BF0D983844401E2E
:1010B000029000200190C146B8F1FF0F04DD4FEA15
:1010C0001920019009F0FF09002000900C9840447D
:1010D000461EFF2E02D9300A0090F6B2DDE90C015F
:1010E0004843C508822000F0D1FB082000F0E6FB51
:1010F000502000F0CBFB472000F0E0FBFFF790FF13
:10110000912000F0C3FB902000F0C0FBF8B200F08B
:10111000D5FB0299C8B200F0D1FB0199C8B200F02A
:10112000CDFB09F0FF0000F0C9FB0099C8B200F048
:10113000C5FBF0B200F0C2FB282000F0BFFB10207E
:1011400000F0A4FB0E9840B9002403E0002000F05A
:10115000B5FB641CAC42F9D30AE0002406E01AF89F
:101160000410C943C8B200F0A9FB641CAC42F6D31A
:10117000132000F08BFB0E9802280BD0002406E011
:101180001BF80410C943C8B200F098FB641CAC42C1
:10119000F6D307E0002403E0002000F08FFB641C7E
:1011A000AC42F9D3122000F071FB0A20FFF789FE50
:1011B000FFF7A6FEBDE8FE8F10B5982050490870D5
:1011C00000205049087098204F49087000F092FBA9
:1011D000012000F05BFB032000F070FB002000F01A
:1011E0006DFB2B2000F06AFB2B2000F067FB132027
:1011F00000F064FB062000F049FB172000F05EFBC6
:10120000172000F05BFB172000F058FB042000F0D3
:101210003DFBFFF775FE002000F038FBBF2000F01B
:101220004DFB302000F032FB3C2000F047FB6120FA
:1012300000F02CFB3248007800F040FB3148007889
:1012400000F03CFB3048007800F038FB822000F0D2
:101250001DFB122000F032FB502000F017FB9720FE
:1012600000F02CFB10BD2DE9F041102000F00EFB2A
:1012700000273AE00024002631E006EB87002849E9
:1012800011F8008008F0F005F02D02D144F00104BF
:1012900009E005B907E0A02D04DDF02D02DA44F0E5
:1012A000010400E000BF6006040E4FEA08704FEA38
:1012B000106808F0F005F02D02D144F0010409E0B7
:1012C00005B907E0A02D04DDF02D02DA44F0010499
:1012D00000E000BF032E01D06006040E761C042E31
:1012E000CBD3204600F0EAFA7F1C40F64830874214
:1012F000C0D3132000F0CAFA00274CE000180140C8
:10130000150000201600002017000020721A0008A7
:101310009E1A0008C81A0008F21A00081C1B0008D0
:1013200040520008002400262FE006EB8700FB490E
:1013300011F8008008F0F005F02D02D144F001040E
:1013400008E005B906E0A02D02DDF02D00DA01E08D
:1013500044F001046006040E4FEA08704FEA10687A
:1013600008F0F005F02D02D144F0010408E005B9C1
:1013700006E0A02D02DDF02D00DA01E044F00104CA
:10138000032E01D06006040E761C042ECDD3204619
:1013900000F094FA7F1C40F648308742C2D3BDE883
:1013A000F08110B5202000F071FA002404E0DC493F
:1013B000085D00F083FA641C2C2CF8D3212000F087
:1013C00065FA002404E0D749085D00F077FA641C50
:1013D0002A2CF8D3222000F059FA002404E0D24944
:1013E000085D00F06BFA641C2A2CF8D3232000F06F
:1013F0004DFA002404E0CD49085D00F05FFA641C5A
:101400002A2CF8D3242000F041FA002404E0C84933
:10141000085D00F053FA641C2A2CF8D3252000F054
:1014200035FA002404E0BF49085D00F047FA641C67
:101430002A2CF8D310BD10B50446A047FFF7B1FF22
:10144000122000F023FA6420FFF73BFDFFF758FD60
:1014500010BD70B50546102000F018FA002403E016
:10146000FF2000F02BFA641C40F648308442F7D38A
:10147000132000F00BFA002404E0287800F01EFA94
:101480006D1C641C40F648308442F6D370BD08B52C
:1014900001212020FFF7A0F94FF4E060ADF8000033
:1014A00002208DF8020010208DF803006946A14843
:1014B000FEF7ECFE01214020FFF78EF94FF440408B
:1014C000ADF8000002208DF8020010208DF8030016
:1014D00069469948FEF7DAFE4FF40050ADF8000077
:1014E00002208DF8020004208DF80300694692481E
:1014F000FEF7CCFE01214020FFF76EF94FF480503B
:10150000ADF8000002208DF8020010208DF80300D5
:1015100069468948FEF7BAFE08BD10B5FEF7F2FF2E
:101520004FF48030FFF70EF8FFF74BF8834908704F
:1015300008460078012805D14FF4E0110004FFF7B8
:1015400069F80DE00120FFF762F800BF2120FFF7E6
:101550001CF80028FAD04FF460110020FFF75AF869
:101560001020FFF7B5F90220FFF79EF90020FFF7E2
:101570006EF80020FFF77DF84FF48060FFF770F8F9
:101580000120FFF753F800BF3920FEF7FEFF0028C7
:10159000FAD00220FFF74DF800BFFFF753F80828F4
:1015A000FBD1012144F20500FFF716F910BD0EB57D
:1015B000FFF7B3FFFFF76BFF68E0FFF7F5FC60484C
:1015C000FFF747FFFFF7C4FCFFF7AFFC1E20FFF754
:1015D00085FCFFF7E9FCFFF7C5FCFFF7B9FCFFF757
:1015E000A4FCFFF7E9FDAFF28130FFF724FFFFF71E
:1015F0009CFC1E20FFF772FCFFF7D6FCFFF7B2FC45
:10160000FFF7A6FCFFF791FCFFF7D6FD002098211D
:1016100000914C4B1A46CDE901100146FFF73EFD03
:10162000012098210091484B464ACDE90110002144
:101630000846FFF733FD012098210091434B424AB1
:10164000CDE9011000210846FFF728FD012098216F
:1016500000913F4B3D4ACDE9011000210846FFF7BC
:101660001DFD012098210091364B394ACDE901102A
:1016700000210846FFF712FDFFF796FCFFF772FC0A
:10168000FFF766FCFFF751FC00BFFEE795E72DE989
:10169000F041102000F0FAF8002703E0FF2000F0EE
:1016A0000DF97F1C40F2D2208742F7D3002603E0D9
:1016B000FF2000F003F9761C40F2D2208642F7D3D7
:1016C000002503E0002000F0F9F86D1C40F2D22064
:1016D0008542F7D3002403E0002000F0EFF8641CFB
:1016E00040F2D2208442F7D3132000F0CFF8002438
:1016F00003E0FF2000F0E2F8641C40F2D2208442B4
:10170000F7D3002503E0002000F0D8F86D1C40F26C
:10171000D2208542F7D3002620E000004052000886
:10172000461B0008701B00089A1B0008C41B000819
:10173000EE1B0008001401400018014014000020B6
:10174000607F0008201C000868270008B0320008ED
:10175000F83D0008FF2000F0B1F8761C40F2D220DE
:101760008642F7D3002703E0002000F0A7F87F1C93
:1017700040F2D2208742F7D3BDE8F08110B5202097
:1017800000F084F8002404E01C49085D00F096F89D
:10179000641C2C2CF8D3212000F078F8002404E0FD
:1017A0001749085D00F08AF8641C2A2CF8D322201F
:1017B00000F06CF8002404E01249085D00F07EF8A7
:1017C000641C2A2CF8D3232000F060F8002404E0E5
:1017D0000D49085D00F072F8641C2A2CF8D324200F
:1017E00000F054F8002404E00849085D00F066F8B1
:1017F000641C2A2CF8D310BD704700009E19000805
:10180000CA190008F41900081E1A0008481A00082E
:1018100007E0002101E04A1CD1B20229FBDB421E95
:10182000D0B20028F5D1704770B504460120FFF70B
:10183000EFFF002527E04FF400712C48FEF7D3FDA1
:101840000120FFF7E5FF14F0800F05D04FF4806111
:101850002648FEF7C6FD04E04FF480612348FEF7FA
:10186000C2FD6006040E0120FFF7D2FF0120FFF742
:1018700023FB4FF400711D48FEF7B3FD0120FFF775
:10188000C7FF681CC5B2082DD5DB70BD10B5044676
:101890000120FFF7BDFF4FF480711448FEF7A3FD50
:1018A0004FF400411248FEF79EFD2046FFF7BCFFB3
:1018B0004FF480710D48FEF794FD10BD10B504463D
:1018C0000120FFF7A5FF4FF480710848FEF78BFD5C
:1018D0004FF400410648FEF784FD2046FFF7A4FFC1
:1018E0004FF480710148FEF77CFD10BD00140140EB
:1018F0000018014010B54FF400610B48FEF773FD6E
:101900004FF480410848FEF76EFD4FF47A70FFF700
:10191000D8FA4FF480410448FEF763FD4FF47A7023
:10192000FFF7CFFA10BD0000001801407047704764
:101930007047754600F028F8AE46050069465346E4
:1019400020F00700854618B020B5FFF759FABDE82A
:1019500020404FF000064FF000074FF000084FF016
:10196000000B21F00701AC46ACE8C009ACE8C009A7
:10197000ACE8C009ACE8C0098D4670470446AFF337
:1019800000802046FEF71BFC00487047180000202E
:1019900001491820ABBEFEE7260002007047000890
:1019A000000000026028280000010014000000016F
:1019B0000012120000010000000000000000000002
:1019C00000000000000000000000400800000002CD
:1019D000902828000001401400000001A01212000D
:1019E00000010000000000000000000000000000F6
:1019F00000000000401700000002900F0F000003DD
:101A0000400A01000001A00E0E00000200000000CC
:101A1000000000000000000000000000000080083E
:101A2000000000029028280000018014000000013E
:101A30005012120000010000000000000000000031
:101A40000000000000000000800800000002902854
:101A50002800000180140000000150121200000153
:101A60000000000000000000000000000000000076
:101A7000000000190100000100000000000000004B
:101A80000000000000000000000000000000000056
:101A9000000000000000000000000000000000192D
:101AA0000100000100000000000000000000000034
:101AB0000000000000000000000000000000000026
:101AC000000000000000000080190100000100007B
:101AD0000000000000000000000000000000000006
:101AE00000000000000000000000000000000000F6
:101AF000000040190100000100000000000000008B
:101B000000000000000000000000000000000000D5
:101B100000000000000000000000000000190100AB
:101B200000010000000000000000000000000000B4
:101B300000000000000000000000000000000000A5
:101B4000000000000000000A000000016014140002
:101B5000000100140000000100130A010001000050
:101B60000000000000000000000000000000000075
:101B7000400A0000000190141400000110140A0033
:101B80000001A0130100000100000000000000009F
:101B900000000000000000000000400A00000001FA
:101BA00090141400000100140A000001990C0103B4
:101BB0000401000000000000000000000000000020
:101BC00000000000400A0000000190141400000111
:101BD00000140A000001990B040401010000000038
:101BE0000000000000000000000000000000800A6B
:101BF0000000000190141400000120140A000001EC
:101C0000501301000001000000000000000000006F
:101C10000000000000000000C3810000000081C33C
:101C2000FFFFFFFFFFFFFFFFFFFFFFFFFFFFFFFFC4
:101C3000FFFFFFFFFFFFFFFFFFFFFFFFFFFFFFFFB4
:101C4000FFFFFFFFFFFFFFFFFFFFFFFFFFFFFFFFA4
:101C5000FFFFFFFFFFFFFFFFFFFFFFFFFFFFFFFF94
:101C6000FFFFFFFFFFFFFFFFFFFFFFFFFFFFFFFF84
:101C7000FFFFFFFFFFFFFFFFFFFFFFFFFFFFFFFF74
:101C8000FFFFFFFFFFFFFFFFFFFFFFFFFFFFFFFF64
:101C9000FFFFFFFFFFFFFFFFFFFFFFFFFFFFFFFF54
:101CA000FFFFFFFFFFFFFFFFFFFFFFFFFFFFFFFF44
:101CB000FFFFFFFFFFFFFFFFFFFFFFFFFFFFFFFF34
:101CC000FFFFFFFFFFFFFFFFFFFFFFFFFFFFFFFF24
:101CD000FFFFFFE00FFFFFFFFFFFFFFFFFFFFFFF23
:101CE000FFFFFFFFFFE000000FFFFFFFFFFFFFFF11
:101CF000FFFFFFFFFFFFFFFE000000007FFFFFFF71
:101D0000FFFFFFFFFFFFFFFFFFFFE00000000007F6
:101D1000FFFFFFFFFFFFFFFFFFFFFFFFFF000000D0
:101D2000000000FFFFFFFFFFFFFFFFFFFFFFFFFCC3
:101D30000000000000003FFFFFFFFFFFFFFFFFFF6D
:101D4000FFFFF000000000000007FFFFFFFFFFFFA4
:101D5000FFFFFFFFFF8000000000000001FFFFFF0A
:101D6000FFFFFFFFFFFFFFFE00000000000000007C
:101D70007FFFFFFFFFFFFFFFFFFFFC0000000000F1
:101D80000000003FFFFFFFFFFFFFFFFFFFF000002D
:101D90000000000000000FFFFFFFFFFFFFFFFFFF3D
:101DA000C0000000000000000003FFFFFFFFFFFF76
:101DB000FFFFFF800000000FF800000001FFFFFFA1
:101DC000FFFFFFFFFFFF00000007FFFFF000000024
:101DD0007FFFFFFFFFFFFFFFFC0000007FFFFFFF13
:101DE0000000003FFFFFFFFFFFFFFFF8000003FFC1
:101DF000FFFFFFE000001FFFFFFFFFFFFFFFF000FE
:101E0000001FFFFE3FFFFC00000FFFFFFFFFFFFF73
:101E1000FFE000007FFFFE3FFFFF000007FFFFFF26
:101E2000FFFFFFFFC00001FFFFFE3FFFFFC00001FB
:101E3000FFFFFFFFFFFFFF000007FFFFFE3FFFFF69
:101E4000F00000FFFFFFFFFFFFFE00001FFFFFFE8F
:101E50003FFFFFFC00007FFFFFFFFFFFFE00003F92
:101E6000FFFFFE3FFFFFFE00003FFFFFFFFFFFFC05
:101E70000000FCFFFFFE3FFFFFDF80001FFFFFFFB2
:101E8000FFFFF80001F8FFFFFE7FFFFF8FC0000F8C
:101E9000FFFFFFFFFFF00007F87FFFFFFFFFFF0FCF
:101EA000F0000FFFFFFFFFFFE0000FFC3FFFFFFF11
:101EB000FFFF0FF80007FFFFFFFFFFC0001FFC3F01
:101EC000FFFFFFFFFE1FFC0003FFFFFFFFFF80007F
:101ED0003FFE1FFFFFFFFFFC1FFE0001FFFFFFFF94
:101EE000FF80007FFE1FFFFFFFFFFC3FFF0000FFA2
:101EF000FFFFFFFF0000FFFF1FFFFFFFFFFE3FFF91
:101F00008000FFFFFFFFFE0001FFFFFFFFFFFFFF5D
:101F1000FFFFFFC0007FFFFFFFFE0003FFFFFFFF8B
:101F2000FFFFFFFFFFFFE0003FFFFFFFFC0007FF99
:101F3000FFFFFFFFFFFFFFFFFFF0003FFFFFFFF886
:101F4000000FFFFFFFFFFFFFFFFFFFFFF8000FFF86
:101F5000FFFFF8001FFFFFFFFFFFFFFFFFFFFFF87E
:101F60000007FFFFFFF0001FFFFFFFFFFFFFFFFF66
:101F7000FFFFFC0007FFFFFFF0003FFFFFFFFFFF39
:101F8000FFFFFFFFFFFE0003FFFFFFE0007FFFFFFB
:101F9000FFFFFFFFFFFFFFFFFF0003FFFFFFE0006A
:101FA0007FFFFFFFFFFFFFFFFFFFFFFF0001FFFFBE
:101FB000FFC000FFFFFFFFFFFFFFFFFFFFFFFF80EE
:101FC00000FFFFFFC001FFFFFFFFFFFFFFFFFFFF5D
:101FD000FFFF8000FFFFFF8001E7FFFFFFFFFFFF24
:101FE000FFFFFFFFF1C0007FFFFF8003C1FFFFFF86
:101FF000FFFFFFFFFFFFFFC1E0007FFFFF0003C007
:102000007FFFFFFFFFFFFFFFFFFF81E0007FFFFF7C
:102010000007F03FFFFFFFFFFFFFFFFFFF03F000A0
:102020003FFFFF0007F83FFFFFFFFFFFFFFFFFFF3E
:102030000FF0003FFFFE000FFE7FFFFFFFFFFFFFDF
:10204000FFFFFF3FF0001FFFFE000FFFFFFFFFFF3E
:10205000FFFFFFFFFFFFFFF8001FFFFE000FFFFF66
:10206000FFFFFFFFFFFFFFFFFFFFF8001FFFFC0068
:102070001FFFFFFFFFFFFFFFFFFFFFFFFFFC000F42
:10208000FFFC001FFFFFFFFFFFFFFFFFFFFFFFFF42
:10209000FC000FFFFC001FFFFFFFFFFFFFFFFFFF24
:1020A000FFFFFFFC000FFFF8003FFFFFFFFFFFFFF8
:1020B000FFFFFFFFFFFFFE0007FFF8003FFFFFFFEE
:1020C000FFFFFFFFFFFFFFFFFFFE0007FFF8003FDE
:1020D000FFFFFFFFFFFFFFFFFFFFFFFFFE0007FF08
:1020E000F8003FFFFFFFFFFFFFFFFFFFFFFFFFFEC7
:1020F0000007FFF0007FFFFFFFFFFFFFFFFFFFFF75
:10210000FFFFFF0003FFF0007FFFFFFFFFFFFFFF68
:10211000FFFFFFFFFFFF0003FFF0007FFFFFFFFF58
:10212000FFFFFFFFFFFFFFFFFF0003FFF0007FFF48
:10213000FFFFFFFFFFFFFFFFFFFFFFFF0003FFF0B9
:10214000007FFFFFFFFFFFFFFFFFFFFFFFFFFF001D
:1021500003FFF000FFFFFFFFFFFFFFFFFFFFFFFF99
:10216000FFFF0001FFF000FFFFFFFFFFFFFFFFFF8A
:10217000FFFFFFFFFF8001FFE000FFFFFFFFFFFF0A
:10218000FFFFFFFFFFFFFFFF8001FFE000FFFFFFFA
:10219000FFFFFFFC1FFFFFFFFFFFFF8001FFE000CD
:1021A000FFFFFFFFFFFFF80FFFFFFFFFFFFF8001B3
:1021B000FFE000FFFF800000000007FFFFFFFFFFC0
:1021C000FF8001FFE000F01F800000000007FFFF1C
:1021D000FFFFFC038001FFE000F00F800000000023
:1021E00007FFFFFFFFFC038001FFE000F00F80000E
:1021F00000000007FFFFFFFFFC038001FFE000F08D
:102200001F800000000007FFFFFFFFFC078001FFA9
:10221000E000FFFFFFFFFFFFF80FFFFFFFFFFFFFE3
:102220008001FFE000FFFFFFFFFFFFFC1FFFFFFF3C
:10223000FFFFFF8001FFE000FFFFFFFFFFFFFFFF49
:10224000FFFFFFFFFFFF8001FFE000FFFFFFFFFF39
:10225000FFFFFFFFFFFFFFFFFF8001FFF000FFFF19
:10226000FFFFFFFFFFFFFFFFFFFFFFFF8001FFF00A
:10227000007FFFFFFFFFFFFFFFFFFFFFFFFFFF00EC
:1022800001FFF0007FFFFFFFFFFFFFFFFFFFFFFFEA
:10229000FFFF0001FFF0007FFFFFFFFFFFFFFFFFD9
:1022A000FFFFFFFFFF0001FFF0007FFFFFFFFFFFC9
:1022B000FFFFFFFFFFFFFFFF0001FFF0007FFFFFB9
:1022C000FFFFFFFFFFFFFFFFFFFFFF0001FFF80021
:1022D0007FFFFFFFFFFFFFFFFFFFFFFFFFFE00038A
:1022E000FFF8003FFFFFFFFFFFFFFFFFFFFFFFFFC4
:1022F000FE0003FFF8003FFFFFFFFFFFFFFFFFFFB0
:10230000FFFFFFFE0003FFF8003FFFFFFFFFFFFF9F
:10231000FFFFFFFFFFFFFE0003FFF8003FFFFFFF8F
:10232000FFFFFFFFFFFFFFFFFFFC0003FFFC001F9D
:10233000FFFFFFFFFFFFFFFFFFFFFFFFFC0003FFAB
:10234000FC001FFFFFFFFFFFFFFFFFFFFFFFFFFC82
:102350000007FFFE001FFFFFFFFFFFFFFFFFFFFF64
:10236000FFFFF80007FFFE000FFFFFFFFFFFFFFF6B
:10237000FFFFFFFFFFF80007FFFE000FFFFFFFFF5B
:10238000FFFFFFFFFFFFFFFFF80007FFFE0007FC56
:102390003FFFFFFFFFFFFFFFFFFF1FF0000FFFFFEB
:1023A0000007F03FFFFFFFFFFFFFFFFFFF07F00009
:1023B0000FFFFF0003E03FFFFFFFFFFFFFFFFFFFF7
:1023C00001E0000FFFFF8003C0FFFFFFFFFFFFFFE3
:1023D000FFFFFFC1E0001FFFFF8001C3FFFFFFFF02
:1023E000FFFFFFFFFFFFE1C0001FFFFFC001FFFF76
:1023F000FFFFFFFFFFFFFFFFFFFFC0001FFFFFC04A
:1024000000FFFFFFFFFFFFFFFFFFFFFFFF80003F19
:10241000FFFFE000FFFFFFFFFFFFFFFFFFFFFFFFEA
:1024200080003FFFFFE0007FFFFFFFFFFFFFFFFF98
:10243000FFFFFF00007FFFFFF0003FFFFFFFFFFFF8
:10244000FFFFFFFFFFFE00007FFFFFF0003FFFFFE9
:10245000FFFFFFFFFFFFFFFFFE0000FFFFFFF80091
:102460001FFFFFFFFFFFFFFFFFFFFFFC0000FFFF5D
:10247000FFF8000FFFFFFFFFFFFFFFFFFFFFF80068
:1024800001FFFFFFFC0007FFFFFFFFFFFFFFFFFF54
:10249000FFF00001FFFFFFFC0007FFFFFFFFFFFF52
:1024A000FFFFFFFFE00003FFFFFFFE0003FFFFFF52
:1024B000FFFFFFFFFFFFFFE00003FFFFFFFF000143
:1024C000FFFFFFFFFFFFFFFFFFFFC00007FFFFFF52
:1024D000FF0000FFFF1FFFFFFFFFFC3FFF80000F1B
:1024E000FFFFFFFF80007FFE1FFFFFFFFFFC3FFF9E
:1024F00000000FFFFFFFFFC0003FFE3FFFFFFFFF99
:10250000FE1FFE00001FFFFFFFFFE0000FFC3FFF6C
:10251000FFFFFFFF1FF800003FFFFFFFFFE0000786
:10252000F87FFFFFFFFFFF0FF000003FFFFFFFFFFF
:10253000F00003F87FFFFFFFFFFF8FE000007FFF49
:10254000FFFFFFF80001F8FFFFFE3FFFFF8FC00015
:1025500000FFFFFFFFFFFC00007FFFFFFE3FFFFFCC
:10256000FF000001FFFFFFFFFFFE00003FFFFFFE37
:102570003FFFFFFE000003FFFFFFFFFFFF00000F14
:10258000FFFFFE3FFFFFF8000003FFFFFFFFFFFF1D
:10259000800003FFFFFE3FFFFFE0000007FFFFFF9B
:1025A000FFFFFFC00000FFFFFE3FFFFF8000000FA6
:1025B000FFFFFFFFFFFFE000003FFFFE3FFFFE00C9
:1025C00000001FFFFFFFFFFFFFF0000007FFFE3FBF
:1025D000FFF00000007FFFFFFFFFFFFFFC00000196
:1025E000FFFFFFFF80000000FFFFFFFFFFFFFFFE78
:1025F0000000001FFFFFFC00000001FFFFFFFFFFC6
:10260000FFFFFF00000000FFFF8000000003FFFF4E
:10261000FFFFFFFFFFFFC000000000000000000000
:1026200007FFFFFFFFFFFFFFFFE0000000000000CB
:102630000000001FFFFFFFFFFFFFFFFFF80000008B
:102640000000000000003FFFFFFFFFFFFFFFFFFE55
:10265000000000000000000000FFFFFFFFFFFFFF81
:10266000FFFFFF000000000000000001FFFFFFFF70
:10267000FFFFFFFFFFFFC00000000000000007FF9A
:10268000FFFFFFFFFFFFFFFFFFF000000000000063
:10269000001FFFFFFFFFFFFFFFFFFFFFFC00000029
:1026A000000000007FFFFFFFFFFFFFFFFFFFFFFFB6
:1026B00080000000000001FFFFFFFFFFFFFFFFFFA2
:1026C000FFFFFFE0000000000007FFFFFFFFFFFF2C
:1026D000FFFFFFFFFFFFFC00000000003FFFFFFFC8
:1026E000FFFFFFFFFFFFFFFFFFFF0000000001FFF4
:1026F000FFFFFFFFFFFFFFFFFFFFFFFFFFF00000F7
:10270000001FFFFFFFFFFFFFFFFFFFFFFFFFFFFFB8
:10271000FFC00007FFFFFFFFFFFFFFFFFFFFFFFFFF
:10272000FFFFFFFFFFFFFFFFFFFFFFFFFFFFFFFFB9
:10273000FFFFFFFFFFFFFFFFFFFFFFFFFFFFFFFFA9
:10274000FFFFFFFFFFFFFFFFFFFFFFFFFFFFFFFF99
:10275000FFFFFFFFFFFFFFFFFFFFFFFFFFFFFFFF89
:10276000FFFFFFFFFFFFFFFFFFFFFFFFFFFFFFFF79
:10277000FFFFFFFFFFFFFFFFFFFFFFFFFFFFFFFF69
:10278000FFFFFFFFFFFFFFFFFFFFFFFFFFFFFFFF59
:10279000FFFFFFFFFFFFFFFFFFFFFFFFFFFFFFFF49
:1027A000FFFFFFFFFFFFFFFFFFFFFFFFFFFFFFFF39
:1027B000FFFFFFFFFFFFFFFFFFFFFFFFFFFFFFFF29
:1027C000FFFFFFFFFFFFFFFFFFFFFFFFFFFFFFFF19
:1027D000FFFFFFFFFFFFFFFFFFFFFFFFFFFFFFFF09
:1027E000FFFFFFFFFFFFFFFFFFFFFFFFFFFFFFFFF9
:1027F000FFFFFFFFFFFFFFFFFFFFFFFFFFFFFFFFE9
:10280000FFFFFFFFFFFFFFFFFFFFFFFFFFFFFFFFD8
:10281000FFFFFFFFFFFFFFFFFFFFFFE00FFFFFFFD7
:10282000FFFFFFFFFFFFFFFFFFFFFFFFFFE00000D5
:102830000FFFFFFFFFFFFFFFFFFFFFFFFFFFFFFE99
:10284000000000007FFFFFFFFFFFFFFFFFFFFFFF14
:10285000FFFFE00000000007FFFFFFFFFFFFFFFF9B
:10286000FFFFFFFFFF000000000000FFFFFFFFFF72
:10287000FFFFFFFFFFFFFFFC0000000000003FFF25
:10288000FFFFFFFFFFFFFFFFFFFFF0000000000062
:102890000007FFFFFFFFFFFFFFFFFFFFFF800000BC
:1028A0000000000001FFFFFFFFFFFFFFFFFFFFFE33
:1028B00000000000000000007FFFFFFFFFFFFFFFA0
:1028C000FFFFFC00000000000000003FFFFFFFFFD3
:1028D000FFFFFFFFFFF000000000000000000FFFFF
:1028E000FFFFFFFFFFFFFFFFC00000000000000030
:1028F0000003FFFFFFFFFFFFFFFFFF800000000F4F
:10290000F800000001FFFFFFFFFFFFFFFFFF0000D7
:102910000007FFFFF00000007FFFFFFFFFFFFFFF4A
:10292000FC0000007FFFFFFF0000003FFFFFFFFFF4
:10293000FFFFFFF8000003FFFFFFFFE000001FFFA5
:10294000FFFFFFFFFFFFF000001FFFFE3FFFFC0047
:10295000000FFFFFFFFFFFFFFFE000007FFFFE3FD4
:10296000FFFF000007FFFFFFFFFFFFFFC00001FFA9
:10297000FFFE3FFFFFC00001FFFFFFFFFFFFFF0063
:102980000007FFFFFE3FFFFFF00000FFFFFFFFFF1C
:10299000FFFE00001FFFFFFE3FFFFFFC00007FFF68
:1029A000FFFFFFFFFE00003FFFFFFE3FFFFFFE00B7
:1029B000003FFFFFFFFFFFFC0000FCFFFFFE3FFFAB
:1029C000FFDF80001FFFFFFFFFFFF80001F8FFFFA0
:1029D000FE7FFFFF8FC0000FFFFFFFFFFFF000072C
:1029E000F87FFFFFFFFFFF0FF0000FFFFFFFFFFF6C
:1029F000E0000FFC3FFFFFFFFFFF0FF80007FFFFA6
:102A0000FFFFFFC0001FFC3FFFFFFFFFFE1FFC009A
:102A100003FFFFFFFFFF80003FFE1FFFFFFFFFFCE4
:102A20001FFE0001FFFFFFFFFF80007FFE1FFFFF73
:102A3000FFFFFC3FFF0000FFFFFFFFFF0000FFFF65
:102A40001FFFFC1FFFFE3FFF8000FFFFFFFFFE0098
:102A500001FFFFFFFFFC1FFFFFFFFFC0007FFFFF25
:102A6000FFFE0003FFFFFFFFFC1FFFFFFFFFE00073
:102A70003FFFFFFFFC0007FFFFFFFFFC1FFFFFFF03
:102A8000FFF0003FFFFFFFF8000FFFFFFFFFFC1FFD
:102A9000FFFFFFFFF8000FFFFFFFF8001FFFFFFF22
:102AA000FFFC1FFFFFFFFFF80007FFFFFFF0001F05
:102AB000FFFFFFFFFC1FFFFFFFFFFC0007FFFFFF03
:102AC000F0003FFFFFFFFFFC1FFFFFFFFFFE0003C3
:102AD000FFFFFFE0007FFFFFFFFFFC1FFFFFFFFF87
:102AE000FF0003FFFFFFE0007FFFFFFFFFFC1FFF72
:102AF000FFFFFFFF0001FFFFFFC000FFFFFFFFFF21
:102B0000FC1FFFFFFFFFFF8000FFFFFFC001FFFF73
:102B1000FFFFFFFC1FFFFFFFFFFF8000FFFFFF80A5
:102B200001E7FFFFFFFFFC1FFFFFFFFFF1C0007F7A
:102B3000FFFF8003C1FFFFFFFFFC1FFFFFFFFFC17F
:102B4000E0007FFFFF0003C07FFFFFFFFC1FFFFFD0
:102B5000FFFF81E0007FFFFF0007F03FFFFFFFFC6A
:102B60001FFFFFFFFF03F0003FFFFF0007F83FFFDD
:102B7000FFFFFC1FFFFFFFFF0FF0003FFFFE000FF6
:102B8000FE7FFFFFFFFC1FFFFFFFFF3FF0001FFF67
:102B9000FE000FFFFFFFFFFFFC1FFFFFFFFFFFF81F
:102BA000001FFFFE000FFFFFFFFFFFFC1FFFFFFFE7
:102BB000FFFFF8001FFFFC001FFFFFFFFFFFFC1FD0
:102BC000FFFFFFFFFFFC000FFFFC001FFFFFFFFFE9
:102BD000FFFC1FFFFFFFFFFFFC000FFFFC001FFFBC
:102BE000FFFFFFFFFC1FFFFFFFFFFFFC000FFFF8D1
:102BF000003FFFFFFFFFFFFC1FFFFFFFFFFFFE0087
:102C000007FFF8003FFFFFFFFFFFFC1FFFFFFFFF75
:102C1000FFFE0007FFF8003FFFFFFFFFFFFC1FFF65
:102C2000FFFFFFFFFE0007FFF8003FFFFFFFFFFF72
:102C3000FC1FFFFFFFFFFFFE0007FFF0007FFFFF0D
:102C4000FFFFFFFC1FFFFFFFFFFFFF0003FFF00080
:102C50007FFFFFFFFFFFFC1FFFFFFFFFFFFF0003E2
:102C6000FFF0007FFFFFFFFFFFFC1FFFFFFFFFFFE5
:102C7000FF0003FFF0007FFFFFFFFFFFFC1FFFFFD0
:102C8000FFFFFFFF0003FFF0007FFFFFFFFFFFFCE0
:102C90001FFFFFFFFFFFFF0003FFF000FFFFFFFF2D
:102CA000FFFFFC1FFFFFFFFFFFFF0001FFF000FF22
:102CB000FFFFFFFFFFFC1FFFFFFFFFFFFF8001FF84
:102CC000E000FFFFFFFFFFFFFC1FFFFFFFFFFFFF15
:102CD0008001FFE000FFFFFFFFFFFFFC1FFFFFFF82
:102CE000FFFFFF8001FFE000FFFFFFFFFFFFF80F86
:102CF000FFFFFFFFFFFF8001FFE000FFFFFFFFFF7F
:102D0000FFF007FFFFFFFFFFFF8001FFE000F01F64
:102D1000FFFFFFFFF007FFFFFFFFFC038001FFE065
:102D200000F00FFFFFFFFFF007FFFFFFFFFC038036
:102D300001FFE000F00FFFFFFFFFF007FFFFFFFFC5
:102D4000FC038001FFE000F01FFFFFFFFFF007FF23
:102D5000FFFFFFFC078001FFE000FFFFFFFFFFFF19
:102D6000F80FFFFFFFFFFFFF8001FFE000FFFFFF05
:102D7000FFFFFFFC1FFFFFFFFFFFFF8001FFE000E1
:102D8000FFFFFFFFFFFFFFFFFFFFFFFFFFFF8001D0
:102D9000FFE000FFFFFFFFFFFFFFFFFFFFFFFFFF61
:102DA000FF8001FFF000FFFFFFFFFFFFFFFFFFFFBE
:102DB000FFFFFFFF8001FFF0007FFFFFFFFFFFFF2E
:102DC000FFFFFFFFFFFFFF0001FFF0007FFFFFFF9E
:102DD000FFFFFFFFFFFFFFFFFFFF0001FFF0007F8E
:102DE000FFFFFFFFFFFFFFFFFFFFFFFFFF0001FFF0
:102DF000F0007FFFFFFFFFFFFFFFFFFFFFFFFFFF71
:102E00000001FFF0007FFFFFFFFFFFFFFFFFFFFF5D
:102E1000FFFFFF0001FFF8007FFFFFFFFFFFFFFF45
:102E2000FFFFFFFFFFFE0003FFF8003FFFFFFFFF74
:102E3000FFFFFFFFFFFFFFFFFE0003FFF8003FFF64
:102E4000FFFFFFFFFFFFFFFFFFFFFFFE0003FFF895
:102E5000003FFFFFFFFFFFFFFFFFFFFFFFFFFE0041
:102E600003FFF8003FFFFFFFFFFFFFFFFFFFFFFF34
:102E7000FFFC0003FFFC001FFFFFFFFFFFFFFFFF42
:102E8000FFFFFFFFFC0003FFFC001FFFFFFFFFFF32
:102E9000FFFFFFFFFFFFFFFC0007FFFE001FFFFF1C
:102EA000FFFFFFFFFFFFFFFFFFFFF80007FFFE0030
:102EB0000FFFFFFFFFFFFFFFFFFFFFFFFFF8000710
:102EC000FFFE000FFFFFFFFFFFFFFFFFFFFFFFFF02
:102ED000F80007FFFE0007FC3FFFFFFFFFFFFFFFBB
:102EE000FFFF1FF0000FFFFF0007F03FFFFFFFFF96
:102EF000FFFFFFFFFF07F0000FFFFF0003E03FFFB2
:102F0000FFFFFFFFFFFFFFFF01E0000FFFFF800358
:102F1000C0FFFFFFFFFFFFFFFFFFFFC1E0001FFF3C
:102F2000FF8001C3FFFFFFFFFFFFFFFFFFFFE1C0C7
:102F3000001FFFFFC001FFFFFFFFFFFFFFFFFFFFBD
:102F4000FFFFC0001FFFFFC000FFFFFFFFFFFFFFED
:102F5000FFFFFFFFFF80003FFFFFE000FFFFFFFFDD
:102F6000FFFFFFFFFFFFFFFF80003FFFFFE0007F4D
:102F7000FFFFFFFFFFFFFFFFFFFFFF00007FFFFFDF
:102F8000F0003FFFFFFFFFFFFFFFFFFFFFFE00001E
:102F90007FFFFFF0003FFFFFFFFFFFFFFFFFFFFF8F
:102FA000FE0000FFFFFFF8001FFFFFFFFFFFFFFF16
:102FB000FFFFFFFC0000FFFFFFF8000FFFFFFFFF18
:102FC000FFFFFFFFFFFFF80001FFFFFFFC0007FF0F
:102FD000FFFFFFFFFFFFFFFFFFF00001FFFFFFFC10
:102FE0000007FFFFFFFFFFFFFFFFFFFFE00003FF02
:102FF000FFFFFE0003FFFFFFFFFFFFFFFFFFFFE0FC
:103000000003FFFFFFFF0001FFFFFFFFFFFFFFFFC8
:10301000FFFFC00007FFFFFFFF0000FFFF1FFFFFD4
:10302000FFFFFC3FFF80000FFFFFFFFF80007FFEE0
:103030001FFFFFFFFFFC3FFF00000FFFFFFFFFC070
:10304000003FFE3FFFFFFFFFFE1FFE00001FFFFFD0
:10305000FFFFE0000FFC3FFFFFFFFFFF1FF8000036
:103060003FFFFFFFFFE00007F87FFFFFFFFFFF0FBD
:10307000F000003FFFFFFFFFF00003F87FFFFFFFBE
:10308000FFFF8FE000007FFFFFFFFFF80001F8FF68
:10309000FFFE3FFFFF8FC00000FFFFFFFFFFFC00B0
:1030A000007FFFFFFE3FFFFFFF000001FFFFFFFF6C
:1030B000FFFE00003FFFFFFE3FFFFFFE000003FF9B
:1030C000FFFFFFFFFF00000FFFFFFE3FFFFFF800C5
:1030D0000003FFFFFFFFFFFF800003FFFFFE3FFF36
:1030E000FFE0000007FFFFFFFFFFFFC00000FFFF42
:1030F000FE3FFFFF8000000FFFFFFFFFFFFFE0002C
:10310000003FFFFE3FFFFE0000001FFFFFFFFFFF2D
:10311000FFF0000007FFFE3FFFF00000007FFFFF11
:10312000FFFFFFFFFC000001FFFFFFFF800000002A
:10313000FFFFFFFFFFFFFFFE0000001FFFFFFC007F
:10314000000001FFFFFFFFFFFFFFFF00000000FF87
:10315000FF8000000003FFFFFFFFFFFFFFFFC00035
:10316000000000000000000007FFFFFFFFFFFFFF5F
:10317000FFE00000000000000000001FFFFFFFFF55
:10318000FFFFFFFFF80000000000000000003FFF0D
:10319000FFFFFFFFFFFFFFFE000000000000000038
:1031A00000FFFFFFFFFFFFFFFFFFFF000000000029
:1031B00000000001FFFFFFFFFFFFFFFFFFFFC00058
:1031C00000000000000007FFFFFFFFFFFFFFFFFF01
:1031D000FFF0000000000000001FFFFFFFFFFFFFE7
:1031E000FFFFFFFFFC000000000000007FFFFFFF6B
:1031F000FFFFFFFFFFFFFFFF80000000000001FF57
:10320000FFFFFFFFFFFFFFFFFFFFFFE000000000E9
:103210000007FFFFFFFFFFFFFFFFFFFFFFFFFC00B7
:10322000000000003FFFFFFFFFFFFFFFFFFFFFFF6A
:10323000FFFF0000000001FFFFFFFFFFFFFFFFFF98
:10324000FFFFFFFFFFF00000001FFFFFFFFFFFFF7A
:10325000FFFFFFFFFFFFFFFFFFC00007FFFFFFFFB4
:10326000FFFFFFFFFFFFFFFFFFFFFFFFFFFFFFFF6E
:10327000FFFFFFFFFFFFFFFFFFFFFFFFFFFFFFFF5E
:10328000FFFFFFFFFFFFFFFFFFFFFFFFFFFFFFFF4E
:10329000FFFFFFFFFFFFFFFFFFFFFFFFFFFFFFFF3E
:1032A000FFFFFFFFFFFFFFFFFFFFFFFFFFFFFFFF2E
:1032B000FFFFFFFFFFFFFFFFFFFFFFFFFFFFFFFF1E
:1032C000FFFFFFFFFFFFFFFFFFFFFFFFFFFFFFFF0E
:1032D000FFFFFFFFFFFFFFFFFFFFFFFFFFFFFFFFFE
:1032E000FFFFFFFFFFFFFFFFFFFFFFFFFFFFFFFFEE
:1032F000FFFFFFFFFFFFFFFFFFFFFFFFFFFFFFFFDE
:10330000FFFFFFFFFFFFFFFFFFFFFFFFFFFFFFFFCD
:10331000FFFFFFFFFFFFFFFFFFFFFFFFFFFFFFFFBD
:10332000FFFFFFFFFFFFFFFFFFFFFFFFFFFFFFFFAD
:10333000FFFFFFFFFFFFFFFFFFFFFFFFFFFFFFFF9D
:10334000FFFFFFFFFFFFFFFFFFFFFFFFFFFFFFFF8D
:10335000FFFFFFFFFFFFFFFFFFFFFFFFFFFFFFFF7D
:10336000FFFFFFE00FFFFFFFFFFFFFFFFFFFFFFF7C
:10337000FFFFFFFFFFE000000FFFFFFFFFFFFFFF6A
:10338000FFFFFFFFFFFFFFFE000000007FFFFFFFCA
:10339000FFFFFFFFFFFFFFFFFFFFE0000000000750
:1033A000FFFFFFFFFFFFFFFFFFFFFFFFFF0000002A
:1033B000000000FFFFFFFFFFFFFFFFFFFFFFFFFC1D
:1033C0000000000000003FFFFFFFFFFFFFFFFFFFC7
:1033D000FFFFF000000000000007FFFFFFFFFFFFFE
:1033E000FFFFFFFFFF8000000000000001FFFFFF64
:1033F000FFFFFFFFFFFFFFFE0000000000000000D6
:103400007FFFFFFFFFFFFFFFFFFFFC00000000004A
:103410000000003FFFFFFFFFFFFFFFFFFFF0000086
:103420000000000000000FFFFFFFFFFFFFFFFFFF96
:10343000C0000000000000000003FFFFFFFFFFFFCF
:10344000FFFFFF800000000FF800000001FFFFFFFA
:10345000FFFFFFFFFFFF00000007FFFFF00000007D
:103460007FFFFFFFFFFFFFFFFC0000007FFFFFFF6C
:103470000000003FFFFFFFFFFFFFFFF8000003FF1A
:10348000FFFFFFE000001FFFFFFFFFFFFFFFF00057
:10349000001FFFFE3FFFFC00000FFFFFFFFFFFFFCD
:1034A000FFE000007FFFFE3FFFFF000007FFFFFF80
:1034B000FFFFFFFFC00001FFFFFE3FFFFFC0000155
:1034C000FFFFFFFFFFFFFF000007FFFFFE3FFFFFC3
:1034D000F00000FFFFFFFFFFFFFE00001FFFFFFEE9
:1034E0003FFFFFFC00007FFFFFFFFFFFFE00003FEC
:1034F000FFFFFE3FFFFFFE00003FFFFFFFFFFFFC5F
:103500000000FCFFFFFE3FFFFFDF80001FFFFFFF0B
:10351000FFFFF80001F8FFFFFE7FFFFF8FC0000FE5
:10352000FFFFFFFFFFF00007F87FFFFFFFFFFF0F28
:10353000F0000FFFFFFFFFFFE0000FFC3FFFFFFF6A
:10354000FFFF0FF80007FFFFFFFFFFC0001FFC3F5A
:10355000FFFFFFFFFE1FFC0003FFFFFFFFFF8000D8
:103560003FFE1FFFFFFFFFFC1FFE0001FFFFFFFFED
:10357000FF80007FFE1FFFFFFFFFFC3FFF0000FFFB
:10358000FFFFFFFF0000FFFF1FFFFFFFFFFE3FFFEA
:103590008000FFFFFFFFFE0001FFFFFFFFFFFFFFB7
:1035A000FFFFFFC0007FFFFFFFFE0003FFFFFFFFE5
:1035B000FFFFFFFFFFFFE0003FFFFFFFFC0007FFF3
:1035C000FFFFFFFFFFFFFFFFFFF0003FFFFFFFF8E0
:1035D000000FFFFFFFFFFFFFFFFFFFFFF8000FFFE0
:1035E000FFFFF8001FFFFFFFFFFFFFFFFFFFFFF8D8
:1035F0000007FFFFFFF0001FFFFFFFFFFFFFFFFFC0
:10360000FFFFFC0007FFFFFFF0003FFFFFFFFFFF92
:10361000FFFFFFFFFFFE0003FFFFFFE0007FFFFF54
:10362000FFFFFFFFFFFFFFFFFF0003FFFFFFE000C3
:103630007FFFFFFFFFFFFFFFFFFFFFFF0001FFFF17
:10364000FFC000FFFFFFFFFFFFFFFFFFFFFFFF8047
:1036500000FFFFFFC001FFFFFFFFFFFFFFFFFFFFB6
:10366000FFFF8000FFFFFF8001E7FFFFFFFFFFFF7D
:10367000FFFFFFFFF1C0007FFFFF8003C1FFFFFFDF
:10368000FFFFFFFFFFFFFFC1E0007FFFFF0003C060
:103690007FFFFFFFFFFFFFFFFFFF81E0007FFFFFD6
:1036A0000007F03FFFFFFFFFFFFFFFFFFF03F000FA
:1036B0003FFFFF0007F83FFFFFFFFFFFFFFFFFFF98
:1036C0000FF0003FFFFE000FFE7FFFFFFFFFFFFF39
:1036D000FFFFFF3FF0001FFFFE000FFFFFFFFFFF98
:1036E000FFFFFFFFFFFFFFF8001FFFFE000FFFFFC0
:1036F000FFFFFFFFFFFFFFFFFFFFF8001FFFFC00C2
:103700001FFFFFFFFFFFFFFFFFFFFFFFFFFC000F9B
:10371000FFFC001FFFFFFFFFFFFFFFFFFFFFFFFF9B
:10372000FC000FFFFC001FFFFFFFFFFFFFFFFFFF7D
:10373000FFFFFFFC000FFFF8003FFFFFFFFFFFFF51
:10374000FFFFFFFFFFFFFE0007FFF8003FFFFFFF47
:10375000FFFFFFFFFFFFFFFFFFFE0007FFF8003F37
:10376000FFFFFFFFFFFFFFFFFFFFFFFFFE0007FF61
:10377000F8003FFFFFFFFFFFFFFFFFFFFFFFFFFE20
:103780000007FFF0007FFFFFFFFFFFFFFFFFFFFFCE
:10379000FFFFFF0003FFF0007FFFFFFFFFFFFFFFC2
:1037A000FFFFFFFFFFFF0003FFF0007FFFFFFFFFB2
:1037B000FFFFFFFFFFFFFFFFFF0003FFF0007FFFA2
:1037C000FFFFFFFFFFFFFFFFFFFFFFFF0003FFF013
:1037D000007FFFFFFFFFFFFFFFFFFFFFFFFFFF0077
:1037E00003FFF000FFFFFFFFFFFFFFFFFFFFFFFFF3
:1037F000FFFF0001FFF000FFFFFFFFFFFFFFFFFFE4
:10380000FFFFFFFFFF8001FFE000FFFFFFFFFFFF63
:10381000FFFFFFFFFFFFFFFF8001FFE000FFFFFF53
:10382000FFFFFFFC1FFFFFFFFFFFFF8001FFE00026
:10383000FFFFFFFFFFFFF80FFFFFFFFFFFFF80010C
:10384000FFE000FFFFFFFFFFFFF00000000000FFB0
:10385000FF8001FFE000F01FFFFFFFFFF00000000E
:103860000000FC038001FFE000F00FFFFFFFFFF00E
:103870000000000000FC038001FFE000F00FFFFFEC
:10388000FFFFF00000000000FC038001FFE000F0FB
:103890001FFFFFFFFFF00000000000FC078001FF9A
:1038A000E000FFFFFFFFFFFFF80FFFFFFFFFFFFF3D
:1038B0008001FFE000FFFFFFFFFFFFFC1FFFFFFF96
:1038C000FFFFFF8001FFE000FFFFFFFFFFFFFFFFA3
:1038D000FFFFFFFFFFFF8001FFE000FFFFFFFFFF93
:1038E000FFFFFFFFFFFFFFFFFF8001FFF000FFFF73
:1038F000FFFFFFFFFFFFFFFFFFFFFFFF8001FFF064
:10390000007FFFFFFFFFFFFFFFFFFFFFFFFFFF0045
:1039100001FFF0007FFFFFFFFFFFFFFFFFFFFFFF43
:10392000FFFF0001FFF0007FFFFFFFFFFFFFFFFF32
:10393000FFFFFFFFFF0001FFF0007FFFFFFFFFFF22
:10394000FFFFFFFFFFFFFFFF0001FFF0007FFFFF12
:10395000FFFFFFFFFFFFFFFFFFFFFF0001FFF8007A
:103960007FFFFFFFFFFFFFFFFFFFFFFFFFFE0003E3
:10397000FFF8003FFFFFFFFFFFFFFFFFFFFFFFFF1D
:10398000FE0003FFF8003FFFFFFFFFFFFFFFFFFF09
:10399000FFFFFFFE0003FFF8003FFFFFFFFFFFFFF9
:1039A000FFFFFFFFFFFFFE0003FFF8003FFFFFFFE9
:1039B000FFFFFFFFFFFFFFFFFFFC0003FFFC001FF7
:1039C000FFFFFFFFFFFFFFFFFFFFFFFFFC0003FF05
:1039D000FC001FFFFFFFFFFFFFFFFFFFFFFFFFFCDC
:1039E0000007FFFE001FFFFFFFFFFFFFFFFFFFFFBE
:1039F000FFFFF80007FFFE000FFFFFFFFFFFFFFFC5
:103A0000FFFFFFFFFFF80007FFFE000FFFFFFFFFB4
:103A1000FFFFFFFFFFFFFFFFF80007FFFE0007FCAF
:103A20003FFFFFFFFFFFFFFFFFFF1FF0000FFFFF44
:103A30000007F03FFFFFFFFFFFFFFFFFFF07F00062
:103A40000FFFFF0003E03FFFFFFFFFFFFFFFFFFF50
:103A500001E0000FFFFF8003C0FFFFFFFFFFFFFF3C
:103A6000FFFFFFC1E0001FFFFF8001C3FFFFFFFF5B
:103A7000FFFFFFFFFFFFE1C0001FFFFFC001FFFFCF
:103A8000FFFFFFFFFFFFFFFFFFFFC0001FFFFFC0A3
:103A900000FFFFFFFFFFFFFFFFFFFFFFFF80003F73
:103AA000FFFFE000FFFFFFFFFFFFFFFFFFFFFFFF44
:103AB00080003FFFFFE0007FFFFFFFFFFFFFFFFFF2
:103AC000FFFFFF00007FFFFFF0003FFFFFFFFFFF52
:103AD000FFFFFFFFFFFE00007FFFFFF0003FFFFF43
:103AE000FFFFFFFFFFFFFFFFFE0000FFFFFFF800EB
:103AF0001FFFFFFFFFFFFFFFFFFFFFFC0000FFFFB7
:103B0000FFF8000FFFFFFFFFFFFFFFFFFFFFF800C1
:103B100001FFFFFFFC0007FFFFFFFFFFFFFFFFFFAD
:103B2000FFF00001FFFFFFFC0007FFFFFFFFFFFFAB
:103B3000FFFFFFFFE00003FFFFFFFE0003FFFFFFAB
:103B4000FFFFFFFFFFFFFFE00003FFFFFFFF00019C
:103B5000FFFFFFFFFFFFFFFFFFFFC00007FFFFFFAB
:103B6000FF0000FFFF1FFFFFFFFFFC3FFF80000F74
:103B7000FFFFFFFF80007FFE1FFFFFFFFFFC3FFFF7
:103B800000000FFFFFFFFFC0003FFE3FFFFFFFFFF2
:103B9000FE1FFE00001FFFFFFFFFE0000FFC3FFFC6
:103BA000FFFFFFFF1FF800003FFFFFFFFFE00007E0
:103BB000F87FFFFFFFFFFF0FF000003FFFFFFFFF59
:103BC000F00003F87FFFFFFFFFFF8FE000007FFFA3
:103BD000FFFFFFF80001F8FFFFFE3FFFFF8FC0006F
:103BE00000FFFFFFFFFFFC00007FFFFFFE3FFFFF26
:103BF000FF000001FFFFFFFFFFFE00003FFFFFFE91
:103C00003FFFFFFE000003FFFFFFFFFFFF00000F6D
:103C1000FFFFFE3FFFFFF8000003FFFFFFFFFFFF76
:103C2000800003FFFFFE3FFFFFE0000007FFFFFFF4
:103C3000FFFFFFC00000FFFFFE3FFFFF8000000FFF
:103C4000FFFFFFFFFFFFE000003FFFFE3FFFFE0022
:103C500000001FFFFFFFFFFFFFF0000007FFFE3F18
:103C6000FFF00000007FFFFFFFFFFFFFFC000001EF
:103C7000FFFFFFFF80000000FFFFFFFFFFFFFFFED1
:103C80000000001FFFFFFC00000001FFFFFFFFFF1F
:103C9000FFFFFF00000000FFFF8000000003FFFFA8
:103CA000FFFFFFFFFFFFC00000000000000000005A
:103CB00007FFFFFFFFFFFFFFFFE000000000000025
:103CC0000000001FFFFFFFFFFFFFFFFFF8000000E5
:103CD0000000000000003FFFFFFFFFFFFFFFFFFEAF
:103CE000000000000000000000FFFFFFFFFFFFFFDB
:103CF000FFFFFF000000000000000001FFFFFFFFCA
:103D0000FFFFFFFFFFFFC00000000000000007FFF3
:103D1000FFFFFFFFFFFFFFFFFFF0000000000000BC
:103D2000001FFFFFFFFFFFFFFFFFFFFFFC00000082
:103D3000000000007FFFFFFFFFFFFFFFFFFFFFFF0F
:103D400080000000000001FFFFFFFFFFFFFFFFFFFB
:103D5000FFFFFFE0000000000007FFFFFFFFFFFF85
:103D6000FFFFFFFFFFFFFC00000000003FFFFFFF21
:103D7000FFFFFFFFFFFFFFFFFFFF0000000001FF4D
:103D8000FFFFFFFFFFFFFFFFFFFFFFFFFFF0000050
:103D9000001FFFFFFFFFFFFFFFFFFFFFFFFFFFFF12
:103DA000FFC00007FFFFFFFFFFFFFFFFFFFFFFFF59
:103DB000FFFFFFFFFFFFFFFFFFFFFFFFFFFFFFFF13
:103DC000FFFFFFFFFFFFFFFFFFFFFFFFFFFFFFFF03
:103DD000FFFFFFFFFFFFFFFFFFFFFFFFFFFFFFFFF3
:103DE000FFFFFFFFFFFFFFFFFFFFFFFFFFFFFFFFE3
:103DF000FFFFFFFFFFFFFFFFFFFFFFFFFFFFFFFFD3
:103E0000FFFFFFFFFFFFFFFFFFFFFFFFFFFFFFFFC2
:103E1000FFFFFFFFFFFFFFFFFFFFFFFFFFFFFFFFB2
:103E2000FFFFFFFFFFFFFFFFFFFFFFFFFFFFFFFFA2
:103E3000FFFFFFFFFFFFFFFFFFFFFFFFFFFFFFFF92
:103E4000FFFFFFFFFFFFFFFFFFFFFFFFFFFFFFFF82
:103E5000FFFFFFFFFFFFFFFFFFFFFFFFFFFFFFFF72
:103E6000FFFFFFFFFFFFFFFFFFFFFFFFFFFFFFFF62
:103E7000FFFFFFFFFFFFFFFFFFFFFFFFFFFFFFFF52
:103E8000FFFFFFFFFFFFFFFFFFFFFFFFFFFFFFFF42
:103E9000FFFFFFFFFFFFFFFFFFFFFFFFFFFFFFFF32
:103EA000FFFFFFFFFFFFFFFFFFFFFFE00FFFFFFF31
:103EB000FFFFFFFFFFFFFFFFFFFFFFFFFFE000002F
:103EC0000FFFFFFFFFFFFFFFFFFFFFFFFFFFFFFEF3
:103ED000000000007FFFFFFFFFFFFFFFFFFFFFFF6E
:103EE000FFFFE00000000007FFFFFFFFFFFFFFFFF5
:103EF000FFFFFFFFFF000000000000FFFFFFFFFFCC
:103F0000FFFFFFFFFFFFFFFC0000000000003FFF7E
:103F1000FFFFFFFFFFFFFFFFFFFFF00000000000BB
:103F20000007FFFFFFFFFFFFFFFFFFFFFF80000015
:103F30000000000001FFFFFFFFFFFFFFFFFFFFFE8C
:103F400000000000000000007FFFFFFFFFFFFFFFF9
:103F5000FFFFFC00000000000000003FFFFFFFFF2C
:103F6000FFFFFFFFFFF000000000000000000FFF58
:103F7000FFFFFFFFFFFFFFFFC00000000000000089
:103F80000003FFFFFFFFFFFFFFFFFF800000000FA8
:103F9000F800000001FFFFFFFFFFFFFFFFFF000031
:103FA0000007FFFFF00000007FFFFFFFFFFFFFFFA4
:103FB000FC0000007FFFFFFF0000003FFFFFFFFF4E
:103FC000FFFFFFF8000003FFFFFFFFE000001FFFFF
:103FD000FFFFFFFFFFFFF000001FFFFE3FFFFC00A1
:103FE000000FFFFFFFFFFFFFFFE000007FFFFE3F2E
:103FF000FFFF000007FFFFFFFFFFFFFFC00001FF03
:10400000FFFE3FFFFFC00001FFFFFFFFFFFFFF00BC
:104010000007FFFFFE3FFFFFF00000FFFFFFFFFF75
:10402000FFFE00001FFFFFFE3FFFFFFC00007FFFC1
:10403000FFFFFFFFFE00003FFFFFFE3FFFFFFE0010
:10404000003FFFFFFFFFFFFC0000FCFFFFFE3FFF04
:10405000FFDF80001FFFFFFFFFFFF80001F8FFFFF9
:10406000FE7FFFFF8FC0000FFFFFFFFFFFF0000785
:10407000F87FFFFFFFFFFF0FF0000FFFFFFFFFFFC5
:10408000E0000FFC3FFFFFFFFFFF0FF80007FFFFFF
:10409000FFFFFFC0001FFC3FFFFFFFFFFE1FFC00F4
:1040A00003FFFFFFFFFF80003FFE1FFFFFFFFFFC3E
:1040B0001FFE0001FFFFFFFFFF80007FFE1FFFFFCD
:1040C000FFFFFC3FFF0000FFFFFFFFFF0000FFFFBF
:1040D0001FFFFFFFFFFE3FFF8000FFFFFFFFFE000F
:1040E00001FFFFFFFFFFFFFFFFFFFFC0007FFFFF9C
:1040F000FFFE0003FFFFFFFFFFFFFFFFFFFFE000EA
:104100003FFFFFFFFC0007FFFFFFFFFFFFFFFFFF79
:10411000FFF0003FFFFFFFF8000FFFFFFFFFFFFF73
:10412000FFFFFFFFF8000FFFFFFFF8001FFFFFFF7B
:10413000FFFFFFFFFFFFFFF80007FFFFFFF0001F7B
:10414000FFFFFFFFFFFFFFFFFFFFFC0007FFFFFF79
:10415000F0003FFFFFFFFFFFFFFFFFFFFFFE000339
:10416000FFFFFFE0007FFFFFFFFFFFFFFFFFFFFFFD
:10417000FF0003FFFFFFE0007FFFFFFFFFFFFFFFE8
:10418000FFFFFFFF0001FFFFFFC000FFFFFFFFFF7A
:10419000FFFFFFFFFFFFFF8000FFFFFFC001FFFFEA
:1041A000FFFFFFFFFFFFFFFFFFFF8000FFFFFF801C
:1041B00001E7FFFFFFFFFFFFFFFFFFFFF1C0007FF1
:1041C000FFFF8003C1FFFFFFFFFFFFFFFFFFFFC1F6
:1041D000E0007FFFFF0003C07FFFFFFFFFFFFFFF47
:1041E000FFFF81E0007FFFFF0007F03FFFFFFFFFC1
:1041F000FFFFFFFFFF03F0003FFFFF0007F83FFF57
:10420000FFFFFFFFFFFFFFFF0FF0003FFFFE000F6C
:10421000FE7FFFFFFFFFFFFFFFFFFF3FF0001FFFDD
:10422000FE000FFFFFFFFFFFFFFFFFFFFFFFFFF895
:10423000001FFFFE000FFFFFFFFFFFFFFFFFFFFF5D
:10424000FFFFF8001FFFFC001FFFFFFFFFFFFFFF46
:10425000FFFFFFFFFFFC000FFFFC001FFFFFFFFF42
:10426000FFFFFFFFFFFFFFFFFC000FFFFC001FFF32
:10427000FFFFFFFFFFFFFFFFFFFFFFFC000FFFF847
:10428000003FFFFFFFFFFFFFFFFFFFFFFFFFFE00FD
:1042900007FFF8003FFFFFFFFFFFFFFFFFFFFFFFEC
:1042A000FFFE0007FFF8003FFFFFFFFFFFFFFFFFDC
:1042B000FFFFFFFFFE0007FFF8003FFFFFFFFFFFCC
:1042C000FFFFFFFFFFFFFFFE0007FFF0007FFFFF84
:1042D000FFFFFFFFFFFFFFFFFFFFFF0003FFF000F7
:1042E0007FFFFFFFFFFFFFFFFFFFFFFFFFFF000359
:1042F000FFF0007FFFFFFFFFFFFFFFFFFFFFFFFF5C
:10430000FF0003FFF0007FFFFFFFFFFFFFFFFFFF46
:10431000FFFFFFFF0003FFF0007FFFFFFFFFFFFF36
:10432000FFFFFFFFFFFFFF0003FFF000FFFFFFFFA6
:10433000FFFFFFFFFFFFFFFFFFFF0001FFF000FF98
:10434000FFFFFFFFFFFFFFFFFFFFFFFFFF8001FFFA
:10435000E000FFFFFFFFFFFFFFFFFFFFFFFFFFFF8B
:104360008001FFE000FFFFFFFFFFFFFC1FFFFFFFDB
:10437000FFFFFF8001FFE000FFFFFFFFFFFFF80FDF
:10438000FFFFFFFFFFFF8001FFE000FFFFFFFFFFD8
:10439000FFF007FFFFFFFFFFFF8001FFE000F01FBE
:1043A000FFFFFFFFF007FFFFFFFFFC038001FFE0BF
:1043B00000F00FFFFFFFFFF007FFFFFFFFFC038090
:1043C00001FFE000F00FFFFFFFFFF007FFFFFFFF1F
:1043D000FC038001FFE000F01FFFFFFFFFF007FF7D
:1043E000FFFFFFFC078001FFE000FFFFFFFFFFFF73
:1043F000F80FFFFFFFFFFFFF8001FFE000FFFFFF5F
:10440000FFFFFFFC1FFFFFFFFFFFFF8001FFE0003A
:10441000FFFFFFFFFFFFFC1FFFFFFFFFFFFF80010C
:10442000FFE000FFFFFFFFFFFFFC1FFFFFFFFFFF9D
:10443000FF8001FFF000FFFFFFFFFFFFFC1FFFFFFA
:10444000FFFFFFFF8001FFF0007FFFFFFFFFFFFC8A
:104450001FFFFFFFFFFFFF0001FFF0007FFFFFFFD7
:10446000FFFFFC1FFFFFFFFFFFFF0001FFF0007FCA
:10447000FFFFFFFFFFFC1FFFFFFFFFFFFF0001FF2C
:10448000F0007FFFFFFFFFFFFC1FFFFFFFFFFFFFAD
:104490000001FFF0007FFFFFFFFFFFFC1FFFFFFF9A
:1044A000FFFFFF0001FFF8007FFFFFFFFFFFFC1F82
:1044B000FFFFFFFFFFFE0003FFF8003FFFFFFFFFCE
:1044C000FFFC1FFFFFFFFFFFFE0003FFF8003FFFA1
:1044D000FFFFFFFFFC1FFFFFFFFFFFFE0003FFF8D2
:1044E000003FFFFFFFFFFFFC1FFFFFFFFFFFFE007E
:1044F00003FFF8003FFFFFFFFFFFFC1FFFFFFFFF71
:10450000FFFC0003FFFC001FFFFFFFFFFFFC1FFF7E
:10451000FFFFFFFFFC0003FFFC001FFFFFFFFFFF8B
:10452000FC1FFFFFFFFFFFFC0007FFFE001FFFFF58
:10453000FFFFFFFC1FFFFFFFFFFFF80007FFFE006C
:104540000FFFFFFFFFFFFC1FFFFFFFFFFFF800074C
:10455000FFFE000FFFFFFFFFFFFC1FFFFFFFFFFF3E
:10456000F80007FFFE0007FC3FFFFFFFFC1FFFFFF7
:10457000FFFF1FF0000FFFFF0007F03FFFFFFFFCF2
:104580001FFFFFFFFF07F0000FFFFF0003E03FFFEB
:10459000FFFFFC1FFFFFFFFF01E0000FFFFF800395
:1045A000C0FFFFFFFFFC1FFFFFFFFFC1E0001FFF79
:1045B000FF8001C3FFFFFFFFFC1FFFFFFFFFE1C004
:1045C000001FFFFFC001FFFFFFFFFFFC1FFFFFFFFA
:1045D000FFFFC0001FFFFFC000FFFFFFFFFFFC1F2A
:1045E000FFFFFFFFFF80003FFFFFE000FFFFFFFF37
:1045F000FFFC1FFFFFFFFFFF80003FFFFFE0007F8A
:10460000FFFFFFFFFC1FFFFFFFFFFF00007FFFFF1B
:10461000F0003FFFFFFFFFFC1FFFFFFFFFFE00005A
:104620007FFFFFF0003FFFFFFFFFFC1FFFFFFFFFCB
:10463000FE0000FFFFFFF8001FFFFFFFFFFC1FFF52
:10464000FFFFFFFC0000FFFFFFF8000FFFFFFFFF71
:10465000FC1FFFFFFFFFF80001FFFFFFFC0007FF4B
:10466000FFFFFFFC1FFFFFFFFFF00001FFFFFFFC4C
:104670000007FFFFFFFFFC1FFFFFFFFFE00003FF3E
:10468000FFFFFE0003FFFFFFFFFC1FFFFFFFFFE038
:104690000003FFFFFFFF0001FFFFFFFFFC1FFFFF05
:1046A000FFFFC00007FFFFFFFF0000FFFF1FFFFF2E
:1046B000FFFFFC3FFF80000FFFFFFFFF80007FFE3A
:1046C0001FFFFFFFFFFC3FFF00000FFFFFFFFFC0CA
:1046D000003FFE3FFFFFFFFFFE1FFE00001FFFFF2A
:1046E000FFFFE0000FFC3FFFFFFFFFFF1FF8000090
:1046F0003FFFFFFFFFE00007F87FFFFFFFFFFF0F17
:10470000F000003FFFFFFFFFF00003F87FFFFFFF17
:10471000FFFF8FE000007FFFFFFFFFF80001F8FFC1
:10472000FFFE3FFFFF8FC00000FFFFFFFFFFFC0009
:10473000007FFFFFFE3FFFFFFF000001FFFFFFFFC5
:10474000FFFE00003FFFFFFE3FFFFFFE000003FFF4
:10475000FFFFFFFFFF00000FFFFFFE3FFFFFF8001E
:104760000003FFFFFFFFFFFF800003FFFFFE3FFF8F
:10477000FFE0000007FFFFFFFFFFFFC00000FFFF9B
:10478000FE3FFFFF8000000FFFFFFFFFFFFFE00085
:10479000003FFFFE3FFFFE0000001FFFFFFFFFFF87
:1047A000FFF0000007FFFE3FFFF00000007FFFFF6B
:1047B000FFFFFFFFFC000001FFFFFFFF8000000084
:1047C000FFFFFFFFFFFFFFFE0000001FFFFFFC00D9
:1047D000000001FFFFFFFFFFFFFFFF00000000FFE1
:1047E000FF8000000003FFFFFFFFFFFFFFFFC0008F
:1047F000000000000000000007FFFFFFFFFFFFFFB9
:10480000FFE00000000000000000001FFFFFFFFFAE
:10481000FFFFFFFFF80000000000000000003FFF66
:10482000FFFFFFFFFFFFFFFE000000000000000091
:1048300000FFFFFFFFFFFFFFFFFFFF000000000082
:1048400000000001FFFFFFFFFFFFFFFFFFFFC000B1
:1048500000000000000007FFFFFFFFFFFFFFFFFF5A
:10486000FFF0000000000000001FFFFFFFFFFFFF40
:10487000FFFFFFFFFC000000000000007FFFFFFFC4
:10488000FFFFFFFFFFFFFFFF80000000000001FFB0
:10489000FFFFFFFFFFFFFFFFFFFFFFE00000000043
:1048A0000007FFFFFFFFFFFFFFFFFFFFFFFFFC0011
:1048B000000000003FFFFFFFFFFFFFFFFFFFFFFFC4
:1048C000FFFF0000000001FFFFFFFFFFFFFFFFFFF2
:1048D000FFFFFFFFFFF00000001FFFFFFFFFFFFFD4
:1048E000FFFFFFFFFFFFFFFFFFC00007FFFFFFFF0E
:1048F000FFFFFFFFFFFFFFFFFFFFFFFFFFFFFFFFC8
:10490000FFFFFFFFFFFFFFFFFFFFFFFFFFFFFFFFB7
:10491000FFFFFFFFFFFFFFFFFFFFFFFFFFFFFFFFA7
:10492000FFFFFFFFFFFFFFFFFFFFFFFFFFFFFFFF97
:10493000FFFFFFFFFFFFFFFFFFFFFFFFFFFFFFFF87
:10494000FFFFFFFFFFFFFFFFFFFFFFFFFFFFFFFF77
:10495000FFFFFFFFFFFFFFFFFFFFFFFFFFFFFFFF67
:10496000FFFFFFFFFFFFFFFFFFFFFFF7FFFFFFF767
:10497000FFFFFFF7FFFFFFE7FF000007FF00000753
:10498000FF800007FFDFFFE7FFDFFFF7FFDFFFF735
:10499000FFDFFFF7FFFFFFFFFFFFFFFFFFFFFFFF4F
:1049A000FFFFFFFFFFFFFFFFFFFFFFFFFFFFFFFF17
:1049B000FFFFFFFFFFFFFFFFFFFFFFFFFFFFFFFF07
:1049C000FFFFFFFFFFFFFFFFFFFFFFFFFFFFFFFFF7
:1049D000FFFFFFFFFFFFFFFFFFFFFFFFFFFFFFFFE7
:1049E000FFFC01FFFFE0003FFFC0001FFF87FF0F3C
:1049F000FF1FFFC7FF3FFFE7FF7FFFF7FF7FFFF7C7
:104A0000FF3FFFE7FF1FFFC7FF83FE0FFFC0001F31
:104A1000FFE0003FFFFC01FFFFFFFFFFFFFFFFFF85
:104A2000FFFFFFFFFFFFFFFFFFFFFFFFFFFFFFFF96
:104A3000FFFFFFFFFFFFFFFFFFFFFFFFFFFFFFFF86
:104A4000FFFFFFFFFFFFFFFFFFFFFFFFFFFFFFFF76
:104A5000FFFFFFFFFFFFFFFFFFFFFFFFFFFFFFFF66
:104A6000FFFFFFFFFFE0FE1FFF807E07FF803FC7C5
:104A7000FF1F1FE7FF3FCFE7FF7FE7E7FF7FF3E77A
:104A8000FF7FF9E7FF7FFCE7FF3FFE67FF99FF2706
:104A9000FFC1FF87FFE1FFC7FFFFFFFFFFFFFFFF32
:104AA000FFFFFFFFFFFFFFFFFFFFFFFFFFFFFFFF16
:104AB000FFFFFFFFFFFFFFFFFFFFFFFFFFFFFFFF06
:104AC000FFFFFFFFFFFFFFFFFFFFFFFFFFFFFFFFF6
:104AD000FFFFFFFFFFFFFFFFFFFFFFFFFFFFFFFFE6
:104AE000FFFFFFFFFFFFFFFFFFFFFFF7FFFFFFF7E6
:104AF000FFFFFFF7FFFFFFE7FF000007FF000007D2
:104B0000FF800007FFDFFFE7FFDFFFF7FFDFFFF7B3
:104B1000FFDFFFF7FFFFFFFFFFFFFFFFFFFFFFFFCD
:104B2000FFFFFFFFFFFFFFFFFFFFFFFFFFFFFFFF95
:104B3000FFFFFFFFFFFFFFFFFFFFFFFFFFFFFFFF85
:104B4000FFFFFFFFFFFFFFFFFFFFFFFFFFFFFFFF75
:104B5000FFFFFFFFFFFFFFFFFFFFFFFFFFFFFFFF65
:104B6000FFFFFFFFFFFFF87FFFE1E01FFF80C00FA7
:104B7000FF804FCFFF1E1FE7FF3F1FF7FF7FBFF7ED
:104B8000FF7FBFF7FF7FBFF7FF3FFFE7FF83FE0F0A
:104B9000FF83FE0FFFC3FE1FFFFFFFFFFFFFFFFFAF
:104BA000FFFFFFFFFFFFFFFFFFFFFFFFFFFFFFFF15
:104BB000FFFFFFFFFFFFFFFFFFFFFFFFFFFFFFFF05
:104BC000FFFFFFFFFFFFFFFFFFFFFFFFFFFFFFFFF5
:104BD000FFFFFFFFFFFFFFFFFFFFFFFFFFFFFFFFE5
:104BE000FFFFFFFFFFE0FE1FFF807E07FF803FC744
:104BF000FF1F1FE7FF3FCFE7FF7FE7E7FF7FF3E7F9
:104C0000FF7FF9E7FF7FFCE7FF3FFE67FF99FF2784
:104C1000FFC1FF87FFE1FFC7FFFFFFFFFFFFFFFFB0
:104C2000FFFFFFFFFFFFFFFFFFFFFFFFFFFFFFFF94
:104C3000FFFFFFFFFFFFFFFFFFFFFFFFFFFFFFFF84
:104C4000FFFFFFFFFFFFFFFFFFFFFFFFFFFFFFFF74
:104C5000FFFFFFFFFFFFFFFFFFFFFFFFFFFFFFFF64
:104C6000FFFFFDFBFFFFFDFBFFFFFDFBFF00000360
:104C7000FF000003FF000003FF800003FFE3FDFBD4
:104C8000FFF0FDFBFFFC7DFBFFFE1DFFFFFF8DFF27
:104C9000FFFFE1FFFFFFF1FFFFFFFDFFFFFFFFFF52
:104CA000FFFFFFFFFFFFFFFFFFFFFFFFFFFFFFFF14
:104CB000FFFFFFFFFFFFFFFFFFFFFFFFFFFFFFFF04
:104CC000FFFFFFFFFFFFFFFFFFFFFFFFFFFFFFFFF4
:104CD000FFFFFFFFFFFFFFFFFFFFFFFFFFFFFFFFE4
:104CE000FFFFFFFFFFFFF87FFFE1E01FFF80C00F26
:104CF000FF804FCFFF1E1FE7FF3F1FF7FF7FBFF76C
:104D0000FF7FBFF7FF7FBFF7FF3FFFE7FF83FE0F88
:104D1000FF83FE0FFFC3FE1FFFFFFFFFFFFFFFFF2D
:104D2000FFFFFFFFFFFFFFFFFFFFFFFFFFFFFFFF93
:104D3000FFFFFFFFFFFFFFFFFFFFFFFFFFFFFFFF83
:104D4000FFFFFFFFFFFFFFFFFFFFFFFFFFFFFFFF73
:104D5000FFFFFFFFFFFFFFFFFFFFFFFFFFFFFFFF63
:104D6000FFFFFFFFFF3FE07FFF3F801FFF3F000F80
:104D7000FF3E3F8FFF3E7FE7FF3EFFF7FF3EFFF71F
:104D8000FF3EFFF7FF3E7FF7FF073FF7FF001E677D
:104D9000FFF81E0FFFFFFE1FFFFFFFFFFFFFFFFFDC
:104DA000FFFFFFFFFFFFFFFFFFFFFFFFFFFFFFFF13
:104DB000FFFFFFFFFFFFFFFFFFFFFFFFFFFFFFFF03
:104DC000FFFFFFFFFFFFFFFFFFFFFFFFFFFFFFFFF3
:104DD000FFFFFFFFFFFFFFFFFFFFFFFFFFFFFFFFE3
:104DE000FFFFFDFBFFFFFDFBFFFFFDFBFF000003DF
:104DF000FF000003FF000003FF800003FFE3FDFB53
:104E0000FFF0FDFBFFFC7DFBFFFE1DFFFFFF8DFFA5
:104E1000FFFFE1FFFFFFF1FFFFFFFDFFFFFFFFFFD0
:104E2000FFFFFFFFFFFFFFFFFFFFFFFFFFFFFFFF92
:104E3000FFFFFFFFFFFFFFFFFFFFFFFFFFFFFFFF82
:104E4000FFFFFFFFFFFFFFFFFFFFFFFFFFFFFFFF72
:104E5000FFFFFFFFFFFFFFFFFFFFFFFFFFFFFFFF62
:104E6000FFFFE07FFFCFC01FFF8F800FFF0F1FCF1F
:104E7000FF7F3FE7FF7F7FF7FF7F7FF7FF3F7FF7F2
:104E8000FF3F3FE7FF9F9FC7FFC38F0FFFE0001F5C
:104E9000FFF0003FFFFE00FFFFFFFFFFFFFFFFFFF0
:104EA000FFFFFFFFFFFFFFFFFFFFFFFFFFFFFFFF12
:104EB000FFFFFFFFFFFFFFFFFFFFFFFFFFFFFFFF02
:104EC000FFFFFFFFFFFFFFFFFFFFFFFFFFFFFFFFF2
:104ED000FFFFFFFFFFFFFFFFFFFFFFFFFFFFFFFFE2
:104EE000FFFFFFFFFF3FE07FFF3F801FFF3F000FFF
:104EF000FF3E3F8FFF3E7FE7FF3EFFF7FF3EFFF79E
:104F0000FF3EFFF7FF3E7FF7FF073FF7FF001E67FB
:104F1000FFF81E0FFFFFFE1FFFFFFFFFFFFFFFFF5A
:104F2000FFFFFFFFFFFFFFFFFFFFFFFFFFFFFFFF91
:104F3000FFFFFFFFFFFFFFFFFFFFFFFFFFFFFFFF81
:104F4000FFFFFFFFFFFFFFFFFFFFFFFFFFFFFFFF71
:104F5000FFFFFFFFFFFFFFFFFFFFFFFFFFFFFFFF61
:104F6000FFFFFFFFFF3FFFFFFF1FFFFFFF07FFFFE9
:104F7000FF21FFFFFF387FFFFF3E0FFFFF3F80074E
:104F8000FF3FF007FF3FFE07FF1FFFFFFF0FFFFF81
:104F9000FF03FFFFFFC3FFFFFFFFFFFFFFFFFFFF59
:104FA000FFFFFFFFFFFFFFFFFFFFFFFFFFFFFFFF11
:104FB000FFFFFFFFFFFFFFFFFFFFFFFFFFFFFFFF01
:104FC000FFFFFFFFFFFFFFFFFFFFFFFFFFFFFFFFF1
:104FD000FFFFFFFFFFFFFFFFFFFFFFFFFFFFFFFFE1
:104FE000FFFFE07FFFCFC01FFF8F800FFF0F1FCF9E
:104FF000FF7F3FE7FF7F7FF7FF7F7FF7FF3F7FF771
:10500000FF3F3FE7FF9F9FC7FFC38F0FFFE0001FDA
:10501000FFF0003FFFFE00FFFFFFFFFFFFFFFFFF6E
:10502000FFFFFFFFFFFFFFFFFFFFFFFFFFFFFFFF90
:10503000FFFFFFFFFFFFFFFFFFFFFFFFFFFFFFFF80
:10504000FFFFFFFFFFFFFFFFFFFFFFFFFFFFFFFF70
:10505000FFFFFFFFFFFFFFFFFFFFFFFFFFFFFFFF60
:10506000FFFFFFFFFFE1F83FFFC0F01FFF80600F71
:10507000FF1E03CFFF3F87E7FF7F8FF7FF7F9FF77D
:10508000FF7F1FF7FF3E1FF7FF1C0FE7FF8047CF93
:10509000FFC0E00FFFE1F01FFFFFF83FFFFFFFFF42
:1050A000FFFFFFFFFFFFFFFFFFFFFFFFFFFFFFFF10
:1050B000FFFFFFFFFFFFFFFFFFFFFFFFFFFFFFFF00
:1050C000FFFFFFFFFFFFFFFFFFFFFFFFFFFFFFFFF0
:1050D000FFFFFFFFFFFFFFFFFFFFFFFFFFFFFFFFE0
:1050E000FFFFFFFFFF3FFFFFFF1FFFFFFF07FFFF68
:1050F000FF21FFFFFF387FFFFF3E0FFFFF3F8007CD
:10510000FF3FF007FF3FFE07FF1FFFFFFF0FFFFFFF
:10511000FF03FFFFFFC3FFFFFFFFFFFFFFFFFFFFD7
:10512000FFFFFFFFFFFFFFFFFFFFFFFFFFFFFFFF8F
:10513000FFFFFFFFFFFFFFFFFFFFFFFFFFFFFFFF7F
:10514000FFFFFFFFFFFFFFFFFFFFFFFFFFFFFFFF6F
:10515000FFFFFFFFFFFFFFFFFFFFFFFFFFFFFFFF5F
:10516000FFFFFFFFFFF803FFFFE0007FFFC0003FEE
:10517000FF8F8C1FFF3FCF8FFF7FE7C7FF7FF7E7D2
:10518000FF7FF7F7FF7FF7F7FF3FE7F7FF8FC7874F
:10519000FF800F8FFFC01F8FFFF03FFFFFFFFFFF5C
:1051A000FFFFFFFFFFFFFFFFFFFFFFFFFFFFFFFF0F
:1051B000FFFFFFFFFFFFFFFFFFFFFFFFFFFFFFFFFF
:1051C000FFFFFFFFFFFFFFFFFFFFFFFFFFFFFFFFEF
:1051D000FFFFFFFFFFFFFFFFFFFFFFFFFFFFFFFFDF
:1051E000FFFFFFFFFFE1F83FFFC0F01FFF80600FF0
:1051F000FF1E03CFFF3F87E7FF7F8FF7FF7F9FF7FC
:10520000FF7F1FF7FF3E1FF7FF1C0FE7FF8047CF11
:10521000FFC0E00FFFE1F01FFFFFF83FFFFFFFFFC0
:10522000FFFFFFFFFFFFFFFFFFFFFFFFFFFFFFFF8E
:10523000FFFFFFFFFFFFFFFFFFFFFFFFFFFFFFFF7E
:10524000FFFFFFFFFFFFFFFFFFFFFFFFFFFFFFFF6E
:10525000FFFFFFFFFFFFFFFFFFFFFFFFFFFFFFFF5E
:10526000FFFFFFFFFFFFFFFFFFFFFFFFFFFFFFFF4E
:10527000FFFFFFFFFFFFFFFFFFFFFFFFFFFFFFFF3E
:10528000FFFFFFFFFFFFFFFFFFFFFFFFFFFFFFFF2E
:10529000FFFFFFFFFFFFFFFFFFFFFFFFFFFFFFFF1E
:1052A000FFFFFFFFFFFFFFFFFFFFFFFFFFFFFFFF0E
:1052B000FFFFFFFFFFFFFFFFFFFFFFFFFFFFFFFFFE
:1052C000FFFFFFFFFFFFFFFFFFFFFFFFFFFFFFFFEE
:1052D000FFFFFFFFFFFFFFFFFFFFFFFFFFFFFFFFDE
:1052E000FFFFFFFFFFFFFFFFFFFFFFFFFFFFFFFFCE
:1052F000FFFFFFFFFFFFFFFFFFFFFFFFFFFFFFFFBE
:10530000FFFFFFFFFFFFFFFFFFFFFFFFFFFFFFFFAD
:10531000FFFFFFFFFFFFFFFFFFFFFFFFFFFFFFFF9D
:10532000FFFFFFFFFFFFFFFFFFFFFFFFFFFFFFFF8D
:10533000FFFFFFFFFFFFFFFFFFFFFFFFFFFFFFFF7D
:10534000FFFFFFFFFFFFFFFFFFFFFFFFFFFFFFFF6D
:10535000FFFFFFFFFFFFFFFFFFFFFFFFFFFFFFFF5D
:10536000FFFFFFFFFFFFFFFFFFFFFFFFFFFFFFFF4D
:10537000FFFFFFFFFFFFFF00000000000000000034
:1053800000FFFFFFFFFFFFFFFFFFFFFFFFFFFFFF2C
:10539000FFFFFFFFFFFFFFFFFFFFFFFFFFFFFFFF1D
:1053A000FFFFFFFFFFFFFFFFFFFFFFFFFFFFFFFF0D
:1053B000FFFFFFFFFFFFFFFFFFFFFFFFFFFFFFFFFD
:1053C000FFFFFF00000000000000000000FFFFFFE3
:1053D000FFFFFFFFFFFFFFFFFFFFFFFFFFFFFFFFDD
:1053E000FFFFFFFFFFFFFFFFFFFFFFFFFFFFFFFFCD
:1053F000FFFFFFFFFFFFFFFFFFFFFFFFFFFFFFFFBD
:10540000FFFFFFFFFFFFFFFFFFFFFFFFFFFFFF00AB
:10541000000000000000000000FFFFFFFFFFFFFF93
:10542000FFFFFFFFFFFFFFFFFFF000FFFFFFFFFF9A
:10543000FFFFFFFFFFFFFFFFFFFFFFFFFFFFFFFF7C
:10544000FFFFFFFFFFFFFFFFFFFFFFFFFFFF00FF6B
:10545000FFFFFFFFFFFFFFFFFFFFFF000000000057
:105460000000000000FFFFFFFFFFFFFFFFFFFFFF47
:10547000FFFFFFFFFFF000FFFFFFFFFFFFFFFFFF4A
:10548000FFFFFFFFFFFFFFFFFFFFFFFFFFFFFFFF2C
:10549000F00FFFFFFFFFFFFFFFFF00FFFFFFFFFF1A
:1054A000FFFFFFFFFFFFFF0000000FF00000000004
:1054B00000FFFFFFFFFFFFFFFFFFFFFFFFFFFFFFFB
:1054C000FFF000FFFFFFFFFFFFFFFFFFFFFFFFFFFA
:1054D000FFFFFFFFFFFFFFFFFFFFFFFFF000FFFFEA
:1054E000FFFFFFFFFFFF00FFFFFFFFFFFFFFFFFFCB
:1054F000FFFFFF0000000FFFFF00000000FFFFFFA5
:10550000FFFFFFFFFFF000000000000000000000B0
:105510000000FFFFFFFFFFFFFFFFFFFFFFFFFFFF99
:10552000FFFFFFFFFFFFFFFFF00000FFFFFFFFFF98
:10553000FFFF00FFFFFFFFFFFFFFFFFFFFFFFF0079
:105540000000000FFFFFF00000FFFFFFFFFFFFFF65
:10555000FFF0000000000000000000000000FFFF5E
:10556000FFFFFFFFFFFFFFFFFFFFFFFFFFFFFFFF4B
:10557000FFFFFFFFFFF0000FFFFFFFFFFFFF00FF38
:10558000FFFFFFFFFFFFFFFFFFFFFF000000000F17
:10559000FFFFFF0000FFFFFFFFFFFFFFFFFF000017
:1055A00000000000000000000000FFFFFFFFFFFF01
:1055B000FFF000000000000FFFFFFFFFFFFFFFFFF5
:1055C000FFFF00000FFFFFFFFFFF00FFFFFFFFFFD8
:1055D000FFFFFFFFFFFFFF0000000FFFFF000F00B6
:1055E00000FFFFFFFFFFFFFFFFFFF00000FFFFFFD7
:1055F000FFF000FFFFFFFFFFFFFFFFFFFFF00000D6
:1056000000000000FFFFFFFFFFFFFFFFFFFFFF00A5
:1056100000000000FFFF00FFFFFFFFFFFFFFFFFF95
:10562000FFFFFF0000000FF00000000000FFFFFF81
:10563000FFFFFFFFFFFFFF00000FFFFFFFF000FF76
:10564000FFFFFFFFFFFFFFFFFFFF00FFFF00FF0067
:105650000FFFFFFFFFFFFFFFFFFFFFF00000000055
:10566000FFFF00FFFFFFFFFFFFFFFFFFFFFFFF0048
:1056700000000F000000000000FFFFFFFFFFFFFF22
:10568000FFFFFFFF0000FFFFFFF000FFFFFFFFFF36
:10569000FFFFFFFFFFF00FFFFFF00FF00FFFFFFF17
:1056A000FFFFFFFFFFFFFF0000000000FFFF00FF04
:1056B000FFFFFFFFFFFFFFFFFFFFFF0000000FF0F6
:1056C0000000000000FFFFFFFFFFFFFFFFFFFFFFE5
:1056D000F00000FFFFF000FFFFFFFFFFFFFFFFFFF5
:1056E000FFF00FFFFFF00FF00FFFFFFFFFFFFFFFC7
:1056F000FFFF00000FFFFFFFFFFF00FFFFFFFFFFA7
:10570000FFFFFFFFFFFFFF0000000FFFFFFF000094
:1057100000FFFFFFFFFFFFFFFFFFFFFFFF00000F86
:10572000FFF000FFFFFFFFFFFFFFFFFFFFF00FFF96
:10573000FFF00FF00FFFFFFFFFFFFFFFFFF0000F75
:10574000FFFFFFFFFFFF00FFFFFFFFFFFFFFFFFF68
:10575000FFFFFF0000000FFFFFFF000000FFFFFF43
:10576000FFFFFFFFFFFFFFFFFFFF0000FFF000FF55
:10577000FFFFFFFFFFFFFFFFFFF000FFFF000FF045
:105780000FFFFFFFFFFFFFFFF00000FFFFFFFFFF26
:10579000FFFF00FFFFFFFFFFFFFFFFFFFFFFFF0017
:1057A000000000000000000000FFFFFFFFFFFFFF00
:1057B000FFFFFFFFFFFFF00000F000FFFFFFFFFF14
:1057C000FFFFFFFFFFFF00000000FF00FFFFFFFFE4
:1057D000FFFFFFFFF000FFFFFFFFFFFFFFFF00FFE6
:1057E000FFFFFFFFFFFFFFFFFFFFFF0000000F00B5
:1057F0000000000000FFFFFFFFFFFFFFFFFFFFFFB4
:10580000FFFFFF00000000FFFFFFFFFFFFFFFFFFA4
:10581000FFFFF000000FFF00FFFFFFFFFFFFFFFF94
:10582000F00FFFFFFFFFFFFFFFFF00FFFFFFFFFF86
:10583000FFFFFFFFFFFFFF0000000FF00000000070
:1058400000FFFFFFFFFFFFFFFFFFFFFFFFFFFFFF67
:10585000000000FFFFFFFFFFFFFFFFFFFFFFFFFF55
:10586000FFFFFFFFFFFFFFFFFFFFFFFFFFFFFFFF48
:10587000FFFFFFF0FFFF00FFFFFFFFFFFFFFFFFF46
:10588000FFFFFF0000000FFFFFFF000000FFFFFF12
:10589000FFFFFFFFFFFFFFFFFFFFFFFFF00000FF25
:1058A000FFFFFFFFFFFFFFFFFFF0FFFFFFFF0FFF07
:1058B000FFFFFFFFFFFFFFFFFFFFFFFFFFFF0000F6
:1058C000FFFF00FFFFFFFFFFFFFFFFFFFFFFFF00E6
:1058D00000000FFFFFFF000000FFFFFFFFFFFFFFC3
:1058E000FFFFFFFFFFFFFFFFFF0000FFFFFFFFFFC6
:1058F000FFFFFFFFFFF00FFFFF000FFFFFFFFFFFA6
:10590000FFFFFFFFFFFFFFFFF0000000FFFF00FFB2
:10591000FFFFFFFFFFFFFFFFFFFFFF000000000092
:105920000000000000FFFFFFFFFFFFFFFFFFFFFF82
:10593000FFFFFFFFFFFFFFFFFFFFFFFFFFFFFFFF77
:10594000FFF000FF00000FFFFFFFFFFFFFFFFFFF63
:10595000FFFFFFF00000000FFFFF00FFFFFFFFFF52
:10596000FFFFFFFFFFFFFF0000000000000000003E
:1059700000FFFFFFFFFFFFFFFFFFFFFFFFFFFFFF36
:10598000FFFFFFFFFFFFFFFFFFFFFFFFFFFF000025
:10599000000FFFFFFFFFFFFFFFFFFFFFFFFF000004
:1059A00000000FFFFFFF00FFFFFFFFFFFFFFFFFFF4
:1059B000FFFFFF00000000FFF0F0000000FFFFFF0E
:1059C000FFFFFFFFFFFFFFFFFFFFFFFF000000FFE4
:1059D000FFFFFFFFFFFFFFFFFFFFF0000FFFFFFFD5
:1059E000FFFFFFFFFFFFFFFFF00000000F000FFFB2
:1059F000FFFF00FFFFFFFFFFFFFFFFFFFFFFFF00B5
:105A000000000FFFF0FF000000FFFFFFFFFFFFFFA0
:105A1000FFF000FFFFFFFF0000000000FFFFFFFF9F
:105A2000FFFFFFFFFFFFFF00FFFFFFFFFFFFFFFF85
:105A3000FFFFFFFFF000000FFF000FFFFFFF00FF61
:105A4000FFFFFFFFFFFFFFFFFFFFFF0000000F0052
:105A5000F00F000000FFFFFFFFFFFFFFFFF000FF60
:105A6000FFFFF0000000000000FFFFFFFFFFFFF05E
:105A70000000000000000FFFFFFFFFFFFFFFFFFF20
:105A8000F000FFFFFF000FFFFFFF00FFFFFFFFFF22
:105A9000FFFFFFFFFFFFFF0000000F00F00F0000FF
:105AA00000FFFFFFFFFFFFFFFFF000FFFFFF000011
:105AB0000FFFFF0000FFFFFFFFFFFFF000000000EF
:105AC00000000FFFFFFFFFFFFFFFFFFFF000000FD1
:105AD000FF000FFFFFFF00FFFFFFFFFFFFFFFFFFC4
