:020000040800F2
:10000000680700206D0700084D0300084F03000833
:1000100053030008570300085B03000800000000BA
:100020000000000000000000000000005F03000866
:100030006103000800000000630300086503000876
:100040008707000887070008870700088707000858
:100050008707000887070008870700088707000848
:100060008707000887070008870700088707000838
:100070008707000887070008870700088707000828
:100080008707000887070008870700088707000818
:100090008707000887070008870700088707000808
:1000A00087070008870700088707000887070008F8
:1000B00087070008870700088707000887070008E8
:1000C00087070008870700088707000887070008D8
:1000D00087070008E106000887070008870700086F
:1000E00087070008870700088707000887070008B8
:1000F00087070008870700088707000887070008A8
:100100008707000887070008870700088707000897
:100110008707000887070008870700088707000887
:100120008707000887070008870700088707000877
:1001300000F002F800F03AF80AA090E8000C8244BF
:100140008344AAF10107DA4501D100F02FF8AFF29C
:10015000090EBAE80F0013F0010F18BFFB1A43F0A5
:100160000103184730D6030050D60300103A24BFCD
:1001700078C878C1FAD8520724BF30C830C144BF0C
:1001800004680C607047000000230024002500264E
:10019000103A28BF78C1FBD8520728BF30C148BFEA
:1001A0000B6070471FB51FBD10B510BD03F0E3FC19
:1001B0001146FFF7F7FF00F009F803F001FD03B463
:1001C000FFF7F2FF03BC00F031FA00001CB5002479
:1001D00000E0641C42F210708442FAD301F0A5FAE8
:1001E00001F078FA00F0AEF901F0FFFA01F0E3FB5C
:1001F00040204E490861142000F0E0F903F06BFC48
:1002000003F038FC02F014F9142000F0D7F902F0E2
:1002100007F903F057F9FF2002F065FB142000F006
:10022000CDF9142000F0CAF90220414908701020CD
:1002300002F09AFB142000F0C1F9102002F038FD02
:10024000142000F0BBF9082002F08EFB142000F00F
:10025000B5F9082002F02CFD142000F0AFF9FF20C2
:1002600002F041FB61E00120314908706820302133
:100270004FF496734FF4FA72CDE9001000212D4827
:1002800002F0D9FD682030214FF496734FF4FA72D2
:10029000CDE900100021284802F0CDFD6820302172
:1002A0004FF496734FF4FA72CDE900100021234801
:1002B00002F0C1FD682030214FF496734FF4FA72BA
:1002C000CDE9001000211E4802F0B5FD6820302164
:1002D0004FF496734FF4FA72CDE9001000211948DB
:1002E00002F0A9FD022012490870FF2002F0FBFA7B
:1002F000012000F086F94FF440704FF48061002334
:100300001A46CDE9001019460F4802F094FD03206B
:1003100000F077F9022006490870FF2002F0E3FAA6
:10032000022000F06EF900BFFEE79CE700100140DC
:100330000000002034540008544F0008744A00089C
:1003400094450008B4400008946C0008704700BF52
:10035000FEE700BFFEE700BFFEE700BFFEE7704715
:1003600070477047704700000CB500200190009066
:100370006B48006840F480306949086000BF6848F5
:10038000006800F4003000900198401C0190009833
:1003900018B90198B0F5A06FF1D16148006810F468
:1003A000003F02D00120009001E000200090009862
:1003B000012842D15B48006840F0100059490860AC
:1003C0000846006820F0030008600846006840F016
:1003D0000200086052484068514948600846406839
:1003E00048600846406840F48060486008464068BD
:1003F00020F47C1048600846406840F4E8104860EB
:100400000846006840F08070086000BF44480068FB
:1004100010F0007FFAD04248406820F003004049C5
:1004200048600846406840F00200486000BF3C4811
:10043000406800F00C000828F9D10CBD10B5FFF79A
:1004400093FF10BD10B53648006840F001003449F4
:100450000860084640683449084031494860084609
:100460000068324908402E4908600846006820F4B8
:10047000802008600846406820F4FE0048604FF481
:100480001F008860FFF7DAFF4FF00060284908601E
:1004900010BD10B5002100200022214B5B6803F045
:1004A0000C0121B1042906D0082928D107E0214BED
:1004B000214C236027E01F4B1F4C236023E0184B87
:1004C0005B6803F47010164B5B6803F48032022300
:1004D00003EB904022B9194B4343174C23600DE0C6
:1004E0000F4B5B6813F4003F04D0144B4343124C92
:1004F000236003E00F4B43430F4C236003E00D4B9D
:100500000D4C236000BF00BF054B5B68C3F30313B2
:100510000B4CE15C084B1B68CB40074C236010BDC3
:1005200000100240002002400000FFF8FFFFF6FE2E
:1005300008ED00E000127A000400002000093D00F0
:100540000800002010B56FF0040000F07FF9334878
:1005500000683349B0FBF1F0324908700846007872
:1005600000EB4001C1EBC0104FF6FF7101EAC00083
:100570002D49088010BD01462A4A12784A434FF09F
:10058000E0235A6100229A611A46126942F0010280
:100590001A6100BF4FF0E022106910F0010F02D085
:1005A00010F4803FF6D04FF0E022126922F00102F1
:1005B0004FF0E0231A6100229A61704701461A4AFF
:1005C00012884A434FF0E0235A6100229A611A468A
:1005D000126942F001021A6100BF4FF0E022106977
:1005E00010F0010F02D010F4803FF6D04FF0E0225F
:1005F000126922F001024FF0E0231A6100229A6191
:10060000704730B50446002505E04FF47A70FFF7D7
:10061000D5FF681C85B2A542F7DB30BD0400002081
:1006200000127A00180000201A000020014600BFC6
:10063000704700BF494A128812F0400FFAD0C2B288
:10064000464B1B1D1A80704710B586B00446012129
:1006500044F2050000F02EFC4FF40070ADF81400D9
:1006600003208DF8160018208DF8170005A93C48C6
:1006700000F06AF94FF48060ADF8140004208DF8A2
:10068000170005A9364800F05FF925208DF8000015
:1006900003208DF801008DF8020001208DF8030081
:1006A000684600F088F801940020ADF80800ADF825
:1006B0000A00ADF80C00ADF810000C20ADF80E00EB
:1006C00001A9264800F0A1FC012240F2255123484F
:1006D00000F033FD0121214800F023FD06B010BDDC
:1006E00010B540F225511D4800F00CFE10B31B4818
:1006F00000F088FDC4B21B48008810F4004F2BD1D5
:100700001848008810F4804F0CD00A2C03D0002029
:100710001449088020E01348008840F40040114943
:10072000088019E00D2C06D10E48008840F4804066
:100730000C49088010E00B480088C0F30D000A49FE
:100740000C5408480088401C064908800846008868
:10075000C72801DD0020088010BD000000380140DE
:10076000000801401C0000203C0000200948804790
:1007700009480047FEE7FEE7FEE7FEE7FEE7FEE783
:10078000FEE7FEE7FEE7FEE704480549054A064B9B
:10079000704700004504000831010008680100208E
:1007A00068070020680300206803002031490143E6
:1007B000314A1160704770B5002100230F22C478C0
:1007C0000CB32D4C246804F4E064C4F5E064210A01
:1007D000C1F10403CA40447804FA03F18478144058
:1007E00021430901254C0678A155047804F01F0522
:1007F0000124AC4005786D114FF0E02606EB85052D
:10080000C5F8004109E0047804F01F050124AC405C
:100810001B4D0678761145F8264070BD194A0A40EE
:100820000243154B1B1F1A60704739B1124A121D43
:1008300012680243104B1B1D1A6006E00E4A121D7F
:10084000126882430C4B1B1D1A607047042808D1A4
:100850004FF0E021096941F004014FF0E0221161FD
:1008600007E04FF0E021096921F004014FF0E02298
:10087000116170470000FA050CED00E000E400E0B3
:1008800080E100E080FFFF1F10B50446CA488442A3
:1008900008D10121042000F027FB0021042000F0F2
:1008A00023FB46E0C548844208D10121082000F01E
:1008B0001BFB0021082000F017FB3AE0C0488442EF
:1008C00008D10121102000F00FFB0021102000F0C2
:1008D0000BFB2EE0BB48844208D10121202000F010
:1008E00003FB0021202000F0FFFA22E0B6488442FA
:1008F00008D10121402000F0F7FA0021402000F04B
:10090000F3FA16E0B148844208D10121802000F0BA
:10091000EBFA0021802000F0E7FA0AE0AC488442BC
:1009200007D10121801500F0DFFA0021A01500F0A9
:10093000DBFA10BD10B50121084600F0D5FA002100
:10094000012000F0D1FA10BD2DE9F041024600254A
:100950000026002000230024002791F803C00CF09B
:100960000F0591F803C01CF0100F03D091F802C0DE
:100970004CEA050591F800C0BCF1000F31D01468B5
:1009800000202BE04FF0010C0CFA00F3B1F800C08E
:100990000CEA03069E4220D183004FF00F0C0CFAA4
:1009A00003F7BC4305FA03FC4CEA040491F803C0C6
:1009B000BCF1280F06D14FF0010C0CFA00FCC2F874
:1009C00014C00AE091F803C0BCF1480F05D14FF004
:1009D000010C0CFA00FCC2F810C0401C0828D1D34E
:1009E0001460B1F800C0BCF1FF0F34DD5468002082
:1009F0002EE000F1080C4FF0010808FA0CF3B1F8F2
:100A000000C00CEA03069E4221D183004FF00F0C78
:100A10000CFA03F7BC4305FA03FC4CEA040491F812
:100A200003C0BCF1280F05D100F1080C08FA0CF83E
:100A3000C2F8148091F803C0BCF1480F07D100F14F
:100A4000080C4FF0010808FA0CF8C2F81080401C9E
:100A50000828CED35460BDE8F0814FF6FF710180C5
:100A6000022181700421C170704702460020936802
:100A70000B4201D0012000E0002070470146886849
:100A800080B2704702460020D3680B4201D001209B
:100A900000E0002070470146C86880B270470161DD
:100AA0007047416170470AB1016100E041617047E0
:100AB000C16070474FF480320A4382618161826174
:100AC00082698269704702460020424B18684FF6DF
:100AD0008073184040EA021008433E4B186070478C
:100AE0003D49C8617047F0B50A4600230024002143
:100AF000002500F00046B6F1004F02D1354EF169F5
:100B000001E0344E7168C0F3034583B200F440162F
:100B1000B6F5401F08D121F070612E4E766826F0A0
:100B200070662C4F7E6012E000F48016B6F5801FD0
:100B300006D1032606FA05F4A14341F0706106E0F0
:100B4000460D360103FA06F6B14341F0706122B159
:100B5000460D360103FA06F6314300F00046B6F1C1
:100B6000004F02D11B4EF16101E01A4E7160F0BDE1
:100B700030B500228B071C0F0F2303FA04F2154B2C
:100B800008338C1053F824309343124C08348D10E2
:100B900044F8253023468C1053F824308C07240F5A
:100BA00000FA04F423430B4C08348D1044F825302C
:100BB00030BD0A490860704700080140000C014040
:100BC000001001400014014000180140001C0140C9
:100BD000002001400000014000002042DC002042D3
:100BE000DD48006840F00100DB49086008464068C5
:100BF000DA490840D849486008460068D8490840A2
:100C0000D54908600846006820F48020086008463E
:100C1000406820F4FE0048604FF41F008860704771
:100C2000CD49096821F48031CB4A11601146096829
:100C300021F480211160B0F5803F03D0B0F5802F02
:100C40000ED106E0C449096841F48031C24A1160FE
:100C500007E0C149096841F4A021BF4A116000E0E2
:100C600000BF00BF704710B50146002200230020DE
:100C70004A11012A02D1B84C236806E0022A02D1A7
:100C8000B54C236A01E0B44C636A01F01F020124F1
:100C900094401C4201D0012000E0002010BD38B576
:100CA000002000900024002500BF3120FFF7DBFF6B
:100CB00005460098401C00900098B0F5A06F01D048
:100CC000002DF2D03120FFF7CEFF08B1012400E063
:100CD0000024204638BD014600209F4A106820F0BD
:100CE000F80040EAC100106070479E4908607047F4
:100CF00002460020984B586820F47C1042EA010319
:100D00001843954B586070479649086670470146EE
:100D10000020914A506820F003000843506070475B
:100D20008D48406800F00C007047014600208A4A58
:100D3000506820F0F00008435060704701460020E2
:100D4000854A506820F4E0600843506070470146CF
:100D50000020814A506820F4605040EAC100506091
:100D6000704729B17C4A527A02437B4B5A7204E0A5
:100D7000794A527A8243784B5A7270477A490860AE
:100D8000704701460020744A506820F440400843F0
:100D9000506070470021754A11706F4A82F8201028
:100DA000012802D0042808D103E001216F4A117004
:100DB00004E005216D4A117000E000BF00BF7047DC
:100DC0006B49086070476449096A0143624A1162CD
:100DD0007047674944390860704730B500210022E8
:100DE000002400235C4D6D6805F00C0121B104293D
:100DF00005D0082923D105E05E4D056022E05D4D58
:100E000005601FE0544D6D6805F47012524D6D6819
:100E100005F48034022505EB92421CB9564D55432A
:100E200005600BE04C4D6D6815F4003F03D0524D4A
:100E30005543056002E04F4D5543056002E04D4DBE
:100E4000056000BF00BF444D6D6805F0F001090961
:100E50004A4D6B5C0568DD4045603F4D6D6805F4AB
:100E6000E061090A454D6B5C4568DD4085603A4D9F
:100E70006D6805F46051C90A404D6B5C4568DD4002
:100E8000C560354D6D6805F44041890B3C4D6B5C88
:100E9000C568B5FBF3F5056130BD29B12E4A52692D
:100EA00002432D4B5A6104E02B4A526982432A4B7C
:100EB0005A61704729B1284A92690243264B9A61C8
:100EC00004E0254A92698243234B9A61704729B115
:100ED000214AD2690243204BDA6104E01E4AD269FA
:100EE00082431D4BDA61704729B11B4AD268024325
:100EF000194BDA6004E0184AD2688243164BDA6074
:100F0000704729B1144A12690243134B1A6104E075
:100F1000114A12698243104B1A61704714494039D3
:100F2000086070470F49C86470470B49C871704723
:100F30000948406A40F0807007494862704701469E
:100F40000020054A92680A4201D0012000E00020FA
:100F50007047014988727047001002400000FFF896
:100F6000FFFFF6FE00004242D8004242201002403D
:100F70008004424200127A0000093D002400002053
:100F80003400002010B50446FB48844209D10121F9
:100F90008803FFF7A9FF00214FF48040FFF7A4FF6B
:100FA00032E0F648844209D101214804FFF7A9FF45
:100FB00000214FF40030FFF7A4FF25E0F048844201
:100FC00009D101218804FFF79CFF00214FF4802004
:100FD000FFF797FF18E0EB48844209D10121C804CC
:100FE000FFF78FFF00214FF40020FFF78AFF0BE08F
:100FF000E548844208D101210805FFF782FF00215E
:101000004FF48010FFF77DFF10BD2DE9F04786B04B
:1010100005460E460024A24600BFA1460027B0891F
:1010200000B100BF2F462C8A4CF6FF700440F088B8
:1010300004432C82AC894EF6F3100440B088318909
:101040000843718908430443AC81AC8A4FF6FF40E2
:101050000440B0890443AC8201A8FFF7BEFEC64835
:10106000874202D1DDF810A001E0DDF80CA0A889CC
:1010700010F4004F08D00AEBCA0000EB0A103168E8
:101080004900B0FBF1F807E00AEBCA0000EB0A10D8
:1010900031688900B0FBF1F86420B8FBF0F004017E
:1010A0002009642101FB1089A88910F4004F08D0A1
:1010B000322000EBC900B0FBF1F000F00700044360
:1010C00008E0322000EB09106421B0FBF1F000F0E1
:1010D0000F0004432C8106B0BDE8F0874FF4165191
:1010E000016000218180C18001810C2141810021AA
:1010F0008181704710B502460020108A4FF2FF032D
:1011000018400B884C8823438C882343CC88234386
:101110001843108210BD0021018041808180C18070
:10112000704721B1828942F40052828104E08289B1
:101130004DF6FF731A4082817047F0B503460024D4
:10114000002600250020A1F510676A3F00D100BFEE
:101150001846C1F3421401F01F06012707FA06F5ED
:10116000012C01D10C3004E0022C01D1103000E040
:1011700014301AB107682F43076002E00768AF43D5
:101180000760F0BD1AB1838A0B43838202E0838A31
:101190008B4383827047028A4FF6F0731A400282B3
:1011A000028A0A430282704782894FF2FF731A4013
:1011B000828182890A438281704721B1828942F00B
:1011C0000202828104E082894FF6FD731A40828117
:1011D0007047028A4FF6DF731A400282028A0A437E
:1011E0000282704721B1028A42F48042028204E006
:1011F000028A4BF6FF731A4002827047C1F308025D
:101200008280704701468888C0F308007047818952
:1012100041F0010181817047028BD2B20283028BBF
:1012200042EA012202837047028B02F47F4202836A
:10123000028B0A430283704721B1828A42F0200266
:10124000828204E0828A4FF6DF731A4082827047FE
:1012500021B1828A42F01002828204E0828A4FF633
:10126000EF731A408282704721B1828A42F00802ED
:10127000828204E0828A4FF6F7731A4082827047B6
:1012800021B1828942F40042828103E08289C2F363
:101290000E028281704721B1828A42F4006282820A
:1012A00004E0828A4FF2FF731A4082827047828A7A
:1012B0004FF6FB731A408282828A0A438282704709
:1012C00021B1828A42F00202828204E0828A4FF6D1
:1012D000FD731A408282704702460020B1F5007FFC
:1012E00000D100BF13880B4201D0012000E0002094
:1012F000704701F40072B2F5007F00D100BFCA430D
:101300000280704770B502460024002300250020AB
:10131000A1F510666A3E00D100BFC1F3421501F08D
:101320001F03012606FA03F3012D02D196893340EB
:1013300006E0022D02D1168A334001E0968A33403E
:101340000C12012606FA04F41688344013B10CB1CD
:10135000012000E0002070BD10B500220023A1F59F
:1013600010646A3C00D100BF0A1201249440A3B269
:10137000DC43048010BD0000003801400044004000
:1013800000480040004C00400050004010B50446AA
:10139000BE48844208D101218014FFF7A5FD002139
:1013A000A014FFF7A1FD16E0B948844208D101213D
:1013B0000014FFF7A6FD00212014FFF7A2FD0AE0AC
:1013C000B448844207D10121C013FFF79AFD0021E0
:1013D000E013FFF796FD10BD10B50022028802F45D
:1013E00041520B884C8823438C882343CC88234369
:1013F0000C8923434C8923438C892343CC89234381
:101400001A430280838B4FF2FF74234083830B8A3D
:10141000038210BD2DE9F04F85B005460C464FF014
:10142000000902274FF000084FF0010B0026B246DA
:10143000A88B4FF240010840A88302202884B5F809
:101440001C90A068022801D100BF38E0A08810B924
:101450004FF0010B01E04FF0020B8D48854200D1A7
:1014600000E000BF6846FFF7B8FCDDF800A0E088A8
:10147000B0F5007F0AD14FEA1A2000EB800040004F
:10148000A168B0FBF1F0401D86B20BE04FEA4B10B3
:10149000BAFBF0F000EB80004000A168B0FBF1F077
:1014A000401D86B20A20B6FBF0F606F00108A6EB56
:1014B0000800C0F34F074FF6FF7000EA0828022F1C
:1014C00001DBFF2F02DD02274FF00008E08840EA31
:1014D000080038432884A088A1890843618808430C
:1014E0002188084340F4006040EA0909A5F81C90EF
:1014F00005B0BDE8F08F0021018041808180C1806E
:10150000018141818181C1810721018270470021D0
:10151000018041808180C180022181600021818120
:10152000704721B1028842F04002028004E0028844
:101530004FF6BF731A400280704721B1828B42F48C
:101540008062828304E0828B4FF6FF331A408283ED
:10155000704730B5002400230C110125A540ABB223
:101560001AB185881D43858002E085889D4385806A
:1015700030BD1AB183880B43838002E083888B439C
:101580008380704781817047014688897047A1F543
:101590007E42FF3A04D0028842F48072028004E066
:1015A00002884FF6FF631A400280704721B182889B
:1015B00042F00402828004E082884FF6FB731A40F6
:1015C0008280704702884FF2FF731A4002800288BF
:1015D0000A4302807047018841F4805101807047BE
:1015E00021B1028842F40052028004E002884DF6E4
:1015F000FF731A400280704702460020012901D083
:10160000108B00E0908A70470146088A7047B1F558
:10161000804F04D1028842F48042028004E00288B4
:101620004BF6FF731A400280704702460020138970
:101630000B4201D0012000E000207047CA43028124
:101640007047F0B50246002000240023002501F079
:101650000F070126BE40B4B20B1101269E40B3B263
:10166000968806EA03051689264202D00DB10120AC
:1016700000E00020F0BD10B5002201F00F040123AE
:10168000A3409AB2D343038110BD00000030014053
:1016900000380040003C004001B502E00098401EC8
:1016A000009000980028F9D108BD00B5014604E07B
:1016B00041F20C70FFF7F0FF491E0029F8D100BD80
:1016C00000B5014603E0D948FFF7E6FF491E0029AF
:1016D000F9D100BD4020D6494861800048614000F2
:1016E00048611020D3490860C001D34908608010C8
:1016F0000860C000091F0860001108604001086010
:101700004FF04430CD490860091D08604FF4004097
:10171000C94908608010CA49086040100860C000CC
:10172000091F086040100860704708B5FEF78AFE80
:1017300001217C20FFF7BEFB1020ADF800008DF8E2
:10174000030003208DF802006946BA481038FFF7FD
:10175000FBF84FF44050ADF8000010208DF8030066
:1017600003208DF802006946B5481438FFF7ECF8FD
:101770004FF44040ADF8000014208DF80300032022
:101780008DF802006946AE481438FFF7DDF84020B6
:10179000ADF8000010208DF8030003208DF8020042
:1017A0006946A348FFF7D0F84FF43B40ADF800007E
:1017B00010208DF8030003208DF8020069469E4832
:1017C0001438FFF7C1F84FF48840ADF8000004204A
:1017D0008DF8030003208DF80200694696481438FE
:1017E000FFF7B2F8FFF776FF08BD00B585B001211D
:1017F0000420FFF75FFB01218803FFF75BFB4FF439
:101800008060ADF8100048208DF8130004A98948C5
:101810001038FFF799F84FF40070ADF8100003206E
:101820008DF8120018208DF8130004A98148103893
:10183000FFF78AF84FF4E13000900020ADF8040083
:10184000ADF80600ADF80800ADF80C000820ADF8C2
:101850000A0069467B48FFF7D8FB01217948FFF76A
:1018600060FC05B000BD10B5044621467548FFF781
:10187000C5FC00BF80217348FFF72EFD0028F9D07A
:1018800010BD10B5044603E014F8010BFFF7EBFFA1
:1018900020780028F8D110BD7CB5054630208DF8A1
:1018A000000078208DF80100C5F30334092C05DD14
:1018B00004F13700C0B28DF8020004E004F13000FA
:1018C000C0B28DF80200C5F30324092C05DD04F134
:1018D0003700C0B28DF8030004E004F13000C0B25C
:1018E0008DF80300C5F30314092C05DD04F137005E
:1018F000C0B28DF8040004E004F13000C0B28DF8ED
:10190000040005F00F04092C05DD04F13700C0B216
:101910008DF8050004E004F13000C0B28DF8050038
:1019200020208DF8060000208DF807006846FFF79C
:10193000A8FF7CBD1CB5044642F21070B4FBF0F069
:101940003030C0B28DF8000042F21070B4FBF0F1FC
:1019500000FB11404FF47A71B0FBF1F03030C0B2AF
:101960008DF801000846B4FBF0F100FB1140642142
:10197000B0FBF1F03030C0B28DF802006420B4FB4F
:10198000F0F100FB11400A21B0FBF1F030308DF88E
:1019900003000A20B4FBF0F100FB114030308DF859
:1019A000040020208DF8050000208DF80600684610
:1019B000FFF767FF1CBD00B587B001210803FFF7E3
:1019C00079FAE020ADF8040003208DF80600182015
:1019D0008DF8070001A917481038FEF7B5FF002061
:1019E000ADF808004FF48270ADF80A000020ADF8A1
:1019F0000C000220ADF80E000120ADF810004002EE
:101A0000ADF812000820ADF814000020ADF8160063
:101A10000720ADF8180002A90B48FFF7DDFC0121F3
:101A20000948FFF77EFD07B000BD00000024090053
:101A3000001001401008014014140140001801403A
:101A4000140C0140003801400030014002460021E2
:101A500005E0481CC1B2C82901DD002070476F486D
:101A6000008910F0020FF4D06C488281002105E05B
:101A7000481CC1B2C82901DD0020EFE76748008992
:101A800010F0010FF4D065488089C0B2E6E700B5D8
:101A900000231020624908609020FFF7D7FF002044
:101AA000FFF7D4FF0020FFF7D1FF0020FFF7CEFFA4
:101AB000FF20FFF7CBFF43EA0023FF20FFF7C6FF1D
:101AC000034310205649091F0860184600BD10B591
:101AD000002414E01020524908600520FFF7B6FFEB
:101AE000FF20FFF7B3FF044610204D49091F08608F
:101AF00014F0010F00D103E04AA0FFF7C2FEE9E7AE
:101B000000BF10BD2DE9F0410446E7B2C4F307263B
:101B1000C4F307451020424908600620FFF796FFEE
:101B200010203F49091F0860091D08605220FFF777
:101B30008DFF2846FFF78AFF3046FFF787FF3846BC
:101B4000FFF784FF10203649091F0860FFF7BFFF29
:101B50001020334908600420FFF778FF1020304937
:101B6000091F0860BDE8F0812DE9F04704460E46E4
:101B700004F0FF09C4F30728C4F3074710202849DD
:101B800008600620FFF762FF10202549091F086042
:101B9000091D08600220FFF759FF3846FFF756FF7E
:101BA0004046FFF753FF4846FFF750FF002504E08B
:101BB000705DFFF74BFF681C85B2FF2DF8DD10202C
:101BC0001749091F0860FFF782FF102014490860B9
:101BD0000420FFF73BFF10201149091F0860BDE8F2
:101BE000F087F0B503460F46DEB2C3F30725C3F313
:101BF000074410200A4908600320FFF727FF20460A
:101C0000FFF724FF2846FFF721FF3046FFF71EFFAE
:101C100010200349091F0860F0BD0000003001409A
:101C20001408014077000000704710B54FF40060C1
:101C3000FE4908601420FFF738FD4FF40060FB49AF
:101C4000091F086010BD06E0F8480C38006810F461
:101C5000806F00D000E0F7E700BF704700B54FF499
:101C60000050F24A1060FFF7EEFF4FF04430F04AA8
:101C70001060121D10605015EC4A121F10604010C9
:101C8000121D106010601060106010601060106015
:101C900010601060106010601060E5480830006847
:101CA00081B29015121F106040011060084600BDFF
:101CB00000B501464FF40050DC4A1060FFF7C3FF47
:101CC0004FF03330DA4A1060121D1060D8480C30E3
:101CD00001604015D54A121F1060C000121D10602F
:101CE000121F10604000106000BD00B501464FF4A7
:101CF0000050CE4A1060FFF7A6FF4FF03330CC4AB9
:101D00001060121D1060CA480C3001604015C74AAF
:101D10001060C0001060121F10604000106000BD15
:101D200010B504460B460020FFF7DFFF2046FFF703
:101D3000BFFF98B2FFF7BCFF180CFFF7B9FF10BD4B
:101D400030B505460B4614460120FFF7CEFF284666
:101D5000FFF7AEFF1846FFF7ABFF2046FFF7A8FFDF
:101D600030BD10B501F0A1FE0220FFF7BEFFFFF766
:101D70006AFF10BD00B50420FFF7B7FFFFF763FF50
:101D800000BD10B50520FFF7B0FFFFF75CFF01F0C5
:101D90009CFE01F08FFE10BD10B50620FFF7A5FFD9
:101DA000FFF751FF01F081FE10BD00B50720FFF7DE
:101DB0009CFF00BD70B506460C4615460820FFF78F
:101DC00094FF3046FFF774FF2046FFF771FF284667
:101DD000FFF76EFF1846FFF76BFF70BDF0B50646C4
:101DE0000C461546059F0920FFF77FFF3046FFF799
:101DF0005FFF2046FFF75CFF2846FFF759FF1846B4
:101E0000FFF756FF3846FFF753FFF0BDF0B5064623
:101E10000C461546059F0A20FFF767FF3046FFF77F
:101E200047FF2046FFF744FF2846FFF741FF1846CB
:101E3000FFF73EFF3846FFF73BFFF0BD00B5034616
:101E40000B20FFF752FF1846FFF732FF00BD10B519
:101E500003461020FFF749FF1846FFF729FFFFF759
:101E6000FDFE0446204610BD10B504460B46112069
:101E7000FFF73BFF2046FFF71BFF1846FFF718FF51
:101E800010BD00B503461120FFF72FFF1846FFF7DE
:101E90000FFF00BD00B51220FFF727FF00BD00B502
:101EA00003461320FFF721FF1846FFF701FF00BD8F
:101EB00000B51420FFF719FF00BD70B506460C46AB
:101EC00015461C20FFF711FF3046FFF7F1FE2046B4
:101ED000FFF7EEFE2846FFF7EBFE1846FFF7E8FE99
:101EE000FFF7B1FE70BD70B506460C4615461D20C5
:101EF000FFF7FBFE3046FFF7DBFE2046FFF7D8FE7C
:101F00002846FFF7D5FE1846FFF7D2FEFFF79BFEE7
:101F100070BD00B51E20FFF7E8FE00BD00B503460A
:101F20002020FFF7E2FE1846FFF7C2FE00BDF0B525
:101F300006460C461546059F2220FFF7D6FE304682
:101F4000FFF7B6FE2046FFF7B3FE2846FFF7B0FEC8
:101F50001846FFF7ADFE3846FFF7AAFEF0BD00B504
:101F60002320FFF7C2FE00BD00B52420FFF7BDFE11
:101F700000BD00B503462520FFF7B7FE98B2FFF776
:101F800097FE180CFFF794FE00BD00B52620FFF762
:101F9000ACFE00BD00B52820FFF7A7FE00BD00B5D0
:101FA0002920FFF7A2FEFFF74EFE00BD00B52A2054
:101FB000FFF79BFEFFF747FE00BD00B503462B2051
:101FC000FFF793FE1846FFF773FE00BD00B503460A
:101FD0003020FFF78AFE98B2FFF76AFE180CFFF771
:101FE00067FE00BD00B53220FFF77FFE00BD00B5E3
:101FF00003463320FFF779FE1846FFF759FE00BD70
:10200000F0B506460C461546059F3420FFF76DFED9
:102010003046FFF74DFE2046FFF74AFE2846FFF701
:1020200047FE1846FFF744FE384603E0141401400B
:1020300000180140FFF73CFEF0BD00B50346352017
:10204000FFF753FE1846FFF733FE00BDF0B5064616
:102050000C461546059F3620FFF747FE3046FFF732
:1020600027FE2046FFF724FE2846FFF721FE1846EC
:10207000FFF71EFE3846FFF71BFEF0BD00B5372008
:10208000FFF733FE00BD00B503463820FFF72DFEF5
:1020900098B2FFF70DFE180CFFF70AFE00BD00B561
:1020A00000BF0A20FFF7D3FE10F0240FF9D100BDC6
:1020B00010B50BE040F20620FFF7C9FE044614F00D
:1020C000080F00D103E0FEA0FFF7DBFBF2E700BF43
:1020D00010BD70B50446254645F48075294640F28A
:1020E0000220FFF7C1FEFFF7E3FF70BD10B500212E
:1020F00040F20220FFF7B8FEFFF7DAFF4FF400705E
:10210000FFF7A5FE0446E0B210BD10B501214FF463
:102110000270FFF7A9FE0520FFF7DBFFFFF7E6FFE0
:10212000044600214FF40270FFF79EFE204610BDCA
:1021300010B508E0FFF7E9FF10F0010F00D103E050
:10214000E0A0FFF79EFBF5E700BF10BD10B5012131
:102150004FF40270FFF788FE0620FFF7BAFF002158
:102160004FF40270FFF780FE10BD10B501214FF44F
:102170000270FFF779FE0420FFF7ABFF00214FF458
:102180000270FFF771FE10BD10B5FFF7DFFF0121F0
:102190004FF40270FFF768FEC720FFF79AFF002197
:1021A0004FF40270FFF760FEFFF7C2FFFFF7DDFF9D
:1021B00010BD2DE9F0410446E5B2C4F30726C4F38F
:1021C0000747FFF7C3FF01214FF40270FFF74CFEF2
:1021D0002020FFF77EFF3846FFF77BFF3046FFF7F2
:1021E00078FF2846FFF775FF00214FF40270FFF7D4
:1021F0003BFEFFF79DFFFFF7B8FFBDE8F0812DE93B
:10220000F04704460E46E7B2C4F30728C4F3074973
:10221000FFF79CFF01214FF40270FFF725FE02201B
:10222000FFF757FF4846FFF754FF4046FFF751FFBF
:102230003846FFF74EFF002504E0705DFFF749FFC9
:10224000681C85B2FF2DF8DD00214FF40270FFF706
:102250000BFEFFF76DFFFFF788FFBDE8F0872DE964
:10226000F04705460E461746B846012000EB1629F2
:10227000002411E094A0FFF704FB2046FFF75AFB6F
:1022800041462846FFF7BBFF08F5807805F58075C5
:1022900093A0FFF7F6FA641C4C45EBD3BDE8F0873A
:1022A0002DE9F04704460E46174604F0FF08C4F334
:1022B0000729C4F3074A01214FF40270FFF7D4FD48
:1022C0000320FFF706FF5046FFF703FF4846FFF7DE
:1022D00000FF4046FFF7FDFE82A0FFF7D2FA00257F
:1022E00003E0FFF703FF78556D1CB542F9D30021D9
:1022F0004FF40270FFF7B8FDBDE8F08770B582A01B
:10230000FFF7BFFA01214FF40270FFF7ADFD9020F7
:10231000FFF7DFFE0020FFF7DCFE0020FFF7D9FE0D
:102320000020FFF7D6FEFFF7E1FE0446FFF7DEFED2
:10233000054600214FF40270FFF796FD2046FFF797
:10234000ABFA2846FFF7A8FA65A0FFF79AFA70BD26
:102350002DE9F04172480088992804D07148FFF7B0
:1023600090FABDE8F08144F29E54250B2005000D43
:1023700000D06D1C6CA0FFF784FA200CFFF78CFADC
:102380002046FFF789FA70A0FFF77BFA2846FFF78F
:10239000D1FA53A0FFF775FA4FF44057002605E035
:1023A0003846FFF706FF07F58057761CAE42F7D395
:1023B0006FA0FFF766FA7B4A21464FF44050FFF7C3
:1023C0004EFF79A0FFF75DFA00BFCAE710B54FF4E2
:1023D0000170FFF73CFD5249088080A0FFF751FAD9
:1023E0004F480088FFF758FA3DA0FFF74AFA4C48DB
:1023F0000088992803D083A0FFF743FA10BD192164
:102400004FF40170FFF730FDFFF778FF00BFF5E7ED
:1024100000B5434801884FF40170FFF725FD00BD6A
:1024200010B5FFF7D3FFFFF793FFFFF7F1FF10BDE4
:102430002DE9F047FFF7F9FB0120FFF741F94FF4D1
:102440000170FFF704FD364908807AA0FFF719FAFA
:1024500033480088FFF720FA21A0FFF712FA30482E
:102460000088992807D005E07CA0FFF70AFA0A2027
:10247000FFF726F9F8E719214FF40170FFF7F4FC94
:10248000002700264FF40055002404E07E48005D3C
:10249000384487B2641CAC42F8D301214FF4027077
:1024A000FFF7E2FC0320FFF714FE0020FFF711FE08
:1024B0000020FFF70EFE0020FFF70BFE0024EAE0ED
:1024C0002D0000002B00000077726974696E672090
:1024D000737069666C61736820706167653A0000AB
:1024E0000D0A0000737461727420746F207265614C
:1024F0006420646174612066726F6D207468652069
:10250000666C6173680D0A006176745F7370695F51
:10251000666C6173685F726561645F69643A00004C
:102520003800002034D203086176745F77617665E5
:10253000666F726D5F757064617465202D3E2073E7
:10254000697A653A000000000D0A6176745F776170
:102550007665666F726D5F757064617465202D3E7F
:102560002065617261736520736563746F723A00F0
:102570000D0A6176745F77617665666F726D5F755F
:102580007064617465202D3E2077617665666F7298
:102590006D20777269746520626567696E202E2EE2
:1025A0002E0D0A00946C03086176745F776176657E
:1025B000666F726D5F757064617465202D3E207763
:1025C000617665666F726D2020777269746520662A
:1025D000696E69736820210D0A0D0A006176745FC7
:1025E00077617665666F726D5F7570646174652082
:1025F0002D3E203078303230342063757276616C35
:1026000075653A006176745F77617665666F726DA5
:102610005F757064617465202D3E20726561642071
:10262000307830323034206572726F7220210D0A9A
:10263000000000004156545F434F4E4649475F63D8
:102640006865636B202D3E20307830323034206353
:10265000757276616C75653A000000004156545FF2
:10266000434F4E4649475F636865636B202D3E20AC
:102670007265616420307830323034206572726F58
:102680007220210D0A00000032B20308FFF72EFD70
:10269000304486B2641CAC42F8D300214FF402707F
:1026A000FFF7E2FBEAA0FFF7ECF8280CFFF7F4F8DD
:1026B0002846FFF7F1F8EDA0FFF7E3F83046FFF703
:1026C000EBF8EDA0FFF7DDF83846FFF7E5F8EBA0F3
:1026D000FFF7D7F8BE420AD1E94801884FF40170EC
:1026E000FFF7C2FBE7A0FFF7CCF8BDE8F087C5F322
:1026F0000F382805000D03D008F101001FFA80F8FB
:10270000EBA0FFF7BEF84046FFF714F9E7A0FFF78C
:10271000B8F84FF00009002405E04846FFF749FDEE
:1027200009F58059641C4445F7D3EAA0FFF7A9F8DE
:10273000F44A29460020FFF792FDF3A0FFF7A1F825
:10274000002601214FF40270FFF78EFB0320FFF7F4
:10275000C0FC0020FFF7BDFC0020FFF7BAFC002002
:10276000FFF7B7FC002404E0FFF7C0FC304486B25A
:10277000641CAC42F8D300214FF40270FFF774FBE5
:10278000BE4207D005E0EBA0FFF77BF80A20FEF77A
:1027900097FFF8E7BA4801884FF40170FFF764FB30
:1027A000EFA0FFF76EF800BF9FE710B5FFF7D9FA6B
:1027B0003020FFF7B3FB4FF4AA70FFF762FBF6A0DF
:1027C000FFF75FF810BD70B504460E46002311E018
:1027D000E05C00F0F0054FF47F4000EA0525E05C86
:1027E000F02101EA0010284485B22846FFF760FA7C
:1027F000581C83B2B342EBDB70BD10B5FFF7AFFBE3
:10280000ED4909780802FFF7F2FB01F059F9FFF7EB
:10281000C1FBFFF7C4FB01F058F9FFF7B2FAE7A0DC
:10282000FFF72FF810BD2DE9F05F0446EAA0FFF78F
:1028300028F804F0FF0BC4F3072AC4F3074910205B
:10284000EF4908600320FFF701F94846FFF7FEF85B
:102850005046FFF7FBF85846FFF7F8F8FFF781FA04
:102860003020FFF75BFB4FF4AA70FFF70AFB00274D
:102870001CE04FF0000814E0FF20FFF7E7F80546E2
:1028800005F00F064FF4704000EA063605F0F00040
:10289000304486B23046FFF70BFA08F101001FFA08
:1028A00080F8B8F5007FE7DB781C87B2B7F5407F8A
:1028B000DFDB1020D249091F0860FFF750FBBE493B
:1028C00009780802FFF793FB01F0FAF8FFF762FBC3
:1028D000FFF765FB01F0F9F8FFF753FAC9A0FEF71F
:1028E000D0FFBDE8F09F2DE9F0410446CEA0FEF7F1
:1028F000C8FFFFF736FA3020FFF710FB4FF4AA703D
:10290000FFF7BFFA01F0B6F8002612E000270BE04F
:1029100025464FF47F4000EA0520204485B2284632
:10292000FFF7C6F9781C87B2B7F5007FF0DB701CA3
:1029300086B2B6F5407FE9DBFFF711FB9E490978C7
:102940000802FFF754FB01F0BBF8FFF723FBFFF78A
:1029500026FB01F0BAF801F09CF8FFF712FAB9A0D3
:10296000FEF78FFFBDE8F0812DE9F04704464FF4F4
:10297000407090FBF4F104FB110000F0FF0AB7A0D7
:10298000FEF77FFFFFF7EDF93020FFF7C7FA4FF4AE
:10299000AA70FFF776FA01F06DF84FF000080026F4
:1029A00026E04FF0000914E000250BE047464FF405
:1029B0007F4000EA0720404487B23846FFF778F9A5
:1029C000681C85B2B5F5007FF0DB09F101001FFA44
:1029D00080F9CAF5407090FBF4F04845E4DC601ED5
:1029E000FF2191FBF0F0404400F0FF08701C86B21C
:1029F000A642D6DB002611E000250AE0FF273802B8
:102A000000EA0720FF3087B23846FFF751F9681C0B
:102A100085B2B5F5007FF1DB701C86B25645EBDB65
:102A2000FFF79DFA644909780802FFF7E0FA01F020
:102A300047F8FFF7AFFAFFF7B2FA01F046F801F0F6
:102A400028F8FFF79EF990A0FEF71BFFBDE8F0877E
:102A50004156545F434F4E4649475F636865636B19
:102A6000202D3E2073697A653A0000002C206368AF
:102A700065636B73756D3A005B2000005D0D0A00A5
:102A8000380000204156545F434F4E4649475F632C
:102A90006865636B202D3E20636F6E6669672063F7
:102AA0006865636B73756D204F4B20210D0A000024
:102AB0004156545F434F4E4649475F636865636BB9
:102AC000202D3E2065617261736520736563746FAC
:102AD000723A00000D0A4156545F434F4E46494733
:102AE0005F636865636B202D3E20636F6E66696768
:102AF00020777269746520626567696E202E2E2EBC
:102B00000D0A000032B203084156545F434F4E464F
:102B100049475F636865636B202D3E20636F6E6677
:102B200069672077726974652066696E69736820C9
:102B3000210D0A004156545F434F4E4649475F639B
:102B40006865636B202D3E20636F6E666967207732
:102B500072697465206572726F7220210D0A00001F
:102B60004156545F434F4E4649475F636865636B08
:102B7000202D3E20636F6E666967207772697465E9
:102B800020616E6420636865636B73756D204F4BC5
:102B900020210D0A0D0A00006570645F6472617780
:102BA0005F7069635F7374617274207374617274AF
:102BB0002E2E2E0D0A000000000000206570645FBC
:102BC000647261775F7069635F73746172742065AA
:102BD0006E642E2E2E0D0A006570645F647261773C
:102BE0005F7069635F66726F6D5F737069666C6159
:102BF00073682073746172742E2E2E0D0A0000000B
:102C0000140801406570645F647261775F70696386
:102C10005F66726F6D5F737069666C617368206563
:102C20006E642E2E2E0D0A006570645F64726177EB
:102C30005F677261792073746172742E2E2E0D0A93
:102C4000000000006570645F647261775F677261A5
:102C50007920656E642E2E2E0D0A00006570645F6B
:102C6000647261775F677261795F6C6576656C5FCE
:102C7000686F72697A6F6E74616C207374617274BC
:102C80002E2E2E0D0A0000006570645F647261775D
:102C90005F677261795F6C6576656C5F686F72699A
:102CA0007A6F6E74616C20656E642E2E2E0D0A0094
:102CB0002DE9F04705464FF4007090FBF5F105FB58
:102CC000110000F0FF0AFEA0FEF7DBFDFFF749F858
:102CD0003020FFF723F94FF4AA70FFF7D2F800F085
:102CE000C9FE4FF0000937E0002400271EE04FF036
:102CF00000080DE026464FF47F4000EA06202044FD
:102D000086B23046FEF7D4FF08F101001FFA80F8C2
:102D1000CAF5007090FBF5F04045EBDC681EFF2122
:102D200091FBF0F02044C4B2781C87B2AF42DEDBE6
:102D300000270BE026464FF47F4000EA062020449F
:102D400086B23046FEF7B4FF781C87B25745F1DBF8
:102D500009F101001FFA80F9B9F5407FC4DBFFF7E4
:102D6000FEF8E14909780802FFF741F900F0A8FEF2
:102D7000FFF710F9FFF713F900F0A7FE00F089FE46
:102D8000FEF7FFFFD9A0FEF77CFDBDE8F0872DE937
:102D9000F84F04468A4693461D460A9EDDA0FEF77C
:102DA00070FDFEF7DEFF2B465A4651463020009656
:102DB000FFF7BDF84FF4AA70FFF763F800F05AFE72
:102DC0004FF0000819E04FF000090DE027464FF4DE
:102DD0007F4000EA0720204487B23846FEF768FFAC
:102DE00009F101001FFA80F905EBD571B9EB610F0C
:102DF000ECDB08F101001FFA80F8B045E3DBFFF7D8
:102E0000AEF8B9490096097808022B465A46514651
:102E1000FFF7F6F800F054FEFFF7BCF8FFF7BFF835
:102E200000F053FE00F035FEFEF7ABFFC1A0FEF749
:102E300028FDBDE8F88F2DE9FF4F81B00546884693
:102E4000DDE90EA9C2A0FEF71CFDFEF78AFF53467E
:102E5000CDF800904046DDE90312FFF768F84FF423
:102E6000AA70FFF70EF800F005FE0027B8F1300F4A
:102E700019D10AFB09F04608002411E038467F1CEE
:102E800015F800B038467F1C285C4FF47F4101EAFA
:102E9000002058441FFA80FB5846FEF709FF641CC7
:102EA000B442EBD338E0B8F1200F19D10AFB09F096
:102EB0008608002411E038467F1C15F800B038461B
:102EC0007F1C285C4FF47F4101EA002058441FFA20
:102ED00080FB5846FEF7ECFE641CB442EBD31BE0CB
:102EE000B8F1000F18D10AFB09F0C608002411E060
:102EF00038467F1C15F800B038467F1C285C4FF41C
:102F00007F4101EA002058441FFA80FB5846FEF733
:102F1000CFFE641CB442EBD3FFF721F87249CDF821
:102F20000090097808025346DDE90312FFF768F8BC
:102F300000F0C6FDFFF72EF8FFF731F800F0C5FDF1
:102F400000F0A7FDFEF71DFF8BA0FEF79AFC05B071
:102F5000BDE8F08F2DE9F84F04468A4693461D469A
:102F60000A9E8EA0FEF78DFC2B465A465146302015
:102F70000096FEF7DCFF4FF4AA70FEF782FF00F028
:102F800079FD4FF0000819E04FF000090DE02746E9
:102F90004FF47F4000EA0720204487B23846FEF70E
:102FA00087FE09F101001FFA80F905EBD571B9EB35
:102FB000610FECDB08F101001FFA80F8B045E3DB9C
:102FC000FEF7CDFF48490096097808022B465A467D
:102FD0005146FFF715F800F073FDFEF7DBFFFEF733
:102FE000E5FF77A0FEF74DFCBDE8F88FF8B5054684
:102FF0001E2601203C49087032240DE03220034691
:103000000246214600902846FFF7A4FF3046FEF70F
:103010004CFB04F1320084B240F2EE208442EDDB3E
:1030200064240EE03220034622464FF42F710090B4
:103030002846FFF78FFF3046FEF737FB04F13200DA
:1030400084B240F226208442ECDB40F28A240EE077
:10305000322003464FF4FA72214600902846FFF7CB
:1030600079FF3046FEF721FBA4F1320084B2002C38
:10307000EEDC4FF4E1740DE03220034622460146B7
:1030800000902846FFF766FF3046FEF70EFBA4F1DE
:10309000320084B2642CEFDC64240DE0322003465D
:1030A0009622214600902846FFF754FF3046FEF74F
:1030B000FCFA04F1320084B240F28A2084428FE0AC
:1030C0006570645F647261775F677261795F6C6578
:1030D00076656C5F766572746963616C2073746188
:1030E00072742E2E2E0D0A00000000206570645FA1
:1030F000647261775F677261795F6C6576656C5F3A
:10310000766572746963616C20656E642E2E2E0D77
:103110000A0000006570645F647261775F677261C6
:10312000795F706172742073746172742E2E2E0D2B
:103130000A0000006570645F647261775F677261A6
:10314000795F7061727420656E642E2E2E0D0A00F8
:103150006570645F647261775F7069635F706172EC
:10316000745F66726F6D5F726F6D207374617274DD
:103170002E2E2E0D0A0000006570645F6472617768
:103180005F7069635F706172745F66726F6D5F72AA
:103190006F6D20656E642E2E2E0D0A006570645FC3
:1031A000647261775F677261795F706172745F6C7E
:1031B00075742073746172742E2E2E0D0A00000037
:1031C0006570645F647261775F677261795F706177
:1031D00072745F6C757420656E642E2E2E0D0A005D
:1031E000FFF65CAF32200346C8224FF41671009000
:1031F0002846FFF7AFFE3046FEF757FA3220034667
:10320000FA224FF4167100902846FFF7A3FE3046CD
:10321000FEF74BFA322003464FF4967251000090AD
:103220002846FFF797FE3046FEF73FFA3220034666
:103230004FF4AF724FF4167100902846FFF78AFEE4
:103240003046FEF732FA32200346C2004FF41671C0
:1032500000902846FFF77EFE3046FEF726FA322021
:103260000346C20040F2262100902846FFF772FE76
:103270003046FEF71AFA32200346C2004FF4FA71C4
:1032800000902846FFF766FE3046FEF70EFA322021
:103290000346C2004FF4E17100902846FFF75AFE42
:1032A0003046FEF702FA32200346C2001146009073
:1032B0002846FFF74FFE3046FEF7F7F93220034667
:1032C000C2004FF4AF7100902846FFF743FE30462E
:1032D000FEF7EBF932200346C2004FF496710090DE
:1032E0002846FFF737FE3046FEF7DFF93220034667
:1032F000C200FA2100902846FFF72CFE3046FEF768
:10330000D4F932200346C200C82100902846FFF7B6
:1033100021FE3046FEF7C9F932200346C20096214D
:1033200000902846FFF716FE3046FEF7BEF9322021
:1033300003464FF4AF72962100902846FFF70AFE2D
:103340003046FEF7B2F9322003464FF496729621CA
:1033500000902846FFF7FEFD3046FEF7A6F9322022
:103360000346FA22962100902846FFF7F3FD3046E7
:10337000FEF79BF932200346FA22C8210090284626
:10338000FFF7E8FD3046FEF790F932200346FA22B7
:10339000114600902846FFF7DDFD3046FEF785F91F
:1033A00032200346FA224FF4967100902846FFF728
:1033B000D1FD3046FEF779F932200346FA224FF468
:1033C000AF7100902846FFF7C5FD3046FEF76DF956
:1033D00032200346FA22C10000902846FFF7BAFDCA
:1033E0003046FEF762F932200346FA224FF4E171CB
:1033F00000902846FFF7AEFD3046FEF756F9322022
:103400000346FA22510000902846FFF7A3FD3046FC
:10341000FEF74BF9322003464FF496724FF4FA71DF
:1034200000902846FFF796FD3046FEF73EF9322021
:1034300003464FF496724FF4E17100902846FFF76F
:1034400089FD3046FEF731F9322003464FF496727B
:10345000C10000902846FFF77DFD3046FEF725F9B4
:10346000322003464FF496724FF4AF710090284615
:10347000FFF770FD3046FEF718F9322003464FF48F
:103480009672114600902846FFF764FD3046FEF71D
:103490000CF9322003464FF49672FA210090284628
:1034A000FFF758FD3046FEF700F9322003464FF48F
:1034B0009672C82100902846FFF74CFD3046FEF773
:1034C000F4F8F8BD38B5FEF7B0FB0120FEF7F8F8C8
:1034D0004FF40170FEF7BBFC7C490880FEF75CFCF2
:1034E000842000234FF460724FF4407100904FF439
:1034F0008060FEF773FC76A0FEF7C3F97A48FEF70A
:10350000C0F940F20630FEF7A2FC0446FEF7C4F90B
:1035100075484830FEF7B5F94FF44070FEF797FC58
:103520000446FEF7B9F970489030FEF7AAF94FF457
:103530004370FEF78CFC0446FEF7AEF96A48DC30B7
:10354000FEF79FF940F20E30FEF781FC0446FEF7CD
:10355000A3F96648FEF795F94FF44C70FEF777FC37
:103560000446FEF799F9022042F604230A2240F6A7
:10357000042100900D20FEF749FC5C485430FEF712
:1035800080F940F20230FEF762FC0446FEF784F94F
:103590005648A430FEF775F94FF44170FEF757FC1A
:1035A0000446FEF779F95148FC30FEF76AF94FF40A
:1035B0004270FEF74CFC0446FEF76EF94C48FEF7ED
:1035C00060F940F20A30FEF742FC0446FEF764F967
:1035D00047485430FEF755F91820FEF738FC0446EA
:1035E000FEF75AF94FF44050FEF7F0FC41A0FEF709
:1035F00048F93F48A430FEF744F94FF45470FEF701
:1036000026FC0446FEF748F93948EC30FEF739F954
:1036100040F25230FEF71BFC0446FEF73DF94FF432
:103620000010FEF7A6FC3948FEF72BF94FF4A27004
:10363000FEF70DFC0446FEF72FF934484830FEF73C
:1036400020F94FF4A370FEF702FC0446FEF724F9BC
:103650004FF40010FEF717FD2C489430FEF711F9D7
:103660004FF44470FEF7F3FB0446FEF715F92748C4
:10367000E030FEF706F940F21230FEF7E8FB0446B0
:10368000FEF70AF93020FEF749FC21A0FEF7F9F811
:103690002448FEF7F6F84FF4A070FEF7D8FB044676
:1036A000FEF7FAF8AFF6FC30FEF7EBF800201E4903
:1036B0000870FF20FFF717F902201B490870FEF77A
:1036C00060FBAFF61840FEF7DCF838BD380000208C
:1036D000494E49545F445350455F43464720697300
:1036E0002073656E742100007CD20308A4D3030804
:1036F000F0D403080D0A52445F57464D5F494E46C9
:103700004F2069732073656E7421000024D603086E
:103710000D0A4C445F494D472069732073656E74F0
:103720002100000050D703080000002008B5052044
:10373000009002E00098401E009000980028F9D107
:1037400008BD00B54FF48040F449086040000860AF
:10375000FFF7ECFFFFF7EAFF4FF48040EF49091D48
:103760000860FFF7E3FF4FF40040EC49091D0860D3
:10377000FFF7DCFF00BD00B54FF48040E749091DAD
:1037800008604000091F0860FFF7D0FF4FF4804039
:10379000E2490860FFF7CAFFFFF7C8FF00BD70B538
:1037A000002400254FF48040DC490860FFF7BEFF8D
:1037B000FFF7BCFF4FF40040D8490860FFF7B6FFA1
:1037C0000FE0D6480838006810F4804F01D1012579
:1037D00008E0C82C03DDD2A0FEF753F802E0601C1D
:1037E000C4B2EEE700BF4FF40040CC49091D0860A9
:1037F000FFF79CFF284670BD00B54FF48040C749D5
:10380000091D08604000091F0860FFF78FFF4FF493
:103810000040C249091D08604010091F086000BD32
:1038200010B504468022002119E0144204D04FF460
:103830008040BA4B186004E04FF48040B74B1B1D2A
:1038400018604FF40040B54B1860FFF76FFF4FF45E
:103850000040B24B1B1D1860481CC1B25210082911
:10386000E3DB10BD00B5002100224FF48040AB4BDC
:10387000186000BF16E04FF40040A84B18604806DF
:10388000010EFFF753FFA5480838006810F4804F79
:1038900001D041F001014FF40040A04B1B1D186006
:1038A000501CC2B2082AE6DB084600BD70B50646C9
:1038B0000C461546FFF745FF3046FFF7B1FFFFF70F
:1038C0006EFF2046FFF7ACFFFFF769FF2846FFF7C2
:1038D000A7FFFFF764FFFFF74EFF70BD70B504460A
:1038E0000D46FFF72EFF2046FFF79AFFFFF757FF21
:1038F0002846FFF795FFFFF752FFFFF722FF44F03E
:103900000100FFF78DFFFFF74AFFFFF7ABFF064609
:10391000FFF731FF304670BD2DE9F04180460D467E
:1039200016461F46FFF70DFF4046FFF779FFFFF7EA
:1039300036FF2846FFF774FFFFF731FF002406E04B
:10394000385DFFF76DFFFFF72AFF601CC4B2B44279
:10395000F6DBFFF710FFBDE8F0812DE9F0410646E8
:103960000F4615469846FFF7ECFE3046FFF758FF26
:10397000FFF715FF3846FFF753FFFFF710FFFFF77C
:10398000E0FE46F00100FFF74BFFFFF708FF0024C1
:103990000AE0FFF767FF08F80400681EA04201D0A4
:1039A000FFF72AFF601CC4B2AC42F2DBFFF7E3FE74
:1039B000BDE8F08110B5B12422460921D020FFF7DF
:1039C00075FF002422460A21D020FFF76FFF4E2406
:1039D00022460B21D020FFF769FF842422460C21C8
:1039E000D020FFF763FF10BD70B504460A2094FB9A
:1039F000F0F0C5B22A460321D020FFF757FF0A2076
:103A000094FBF0F0C0F300252A460421D020FFF7F4
:103A10004DFF70BD10B523220221D020FFF746FFD5
:103A200010BD10B50821D020FFF758FF04462046EE
:103A300010BD1FB56B4610220021D020FFF78DFF6F
:103A400039A0FDF71EFF00240EE03EA0FDF719FF90
:103A50002046FDF721FF3DA0FDF713FF1DF80400F0
:103A6000FDF71AFF601CC4B2112CEEDB38A0FDF785
:103A700008FF1FBD10B54FF400403B4908600A2005
:103A8000FDF713FEFFF796FF4FF4FA60FFF7ACFF68
:103A900010BD4FF400502149091D08604010086016
:103AA000C0003149091D086070474FF480501B4920
:103AB000086070474FF480501849091D086070472E
:103AC0004FF400501549086070474FF400501349F7
:103AD000091D0860704710B54FF400402249091DC8
:103AE000086040100D490860400008608010091D02
:103AF0000860401008600A20FDF7D7FD4FF4004031
:103B0000194908600A20FDF7D0FDFFF753FF4FF475
:103B1000FA60FFF769FFFFF78CFF10BD100C014042
:103B20004E6F41636B0000007470732072656164B6
:103B300020726567207374617274202E2E2E0D0A18
:103B4000000000000D0A7265673A00002D3E00007B
:103B50000D0A747073207265616420726567206558
:103B60006E640D0A0D0A0000101401407047704782
:103B7000704770477047754600F028F8AE4605005C
:103B80006946534620F00700854618B020B5FCF77B
:103B9000FBFDBDE820404FF000064FF000074FF05E
:103BA00000084FF0000B21F00701AC46ACE8C0095B
:103BB000ACE8C009ACE8C009ACE8C0098D46704764
:103BC0000446AFF300802046FCF7F9FA004870473E
:103BD00004010020FFFFFFFFFFFFFFFFFFFFFFFFCC
:103BE000FFFFFFFFFFFFFFFFFFFFFFFFFFFFFFFFE5
:103BF000FFFFFFFFFFFFFFFFFFFFFFFFFFFFFFFFD5
:103C0000FFFFFFFFFFFFFFFFFFFFFFFFFFFFFFFFC4
:103C1000FFFFFFFFFFFFFFFFFFFFFFFFFFFFFFFFB4
:103C2000FFFFFFFFFFFFFFFFFFFFFFFFFFFFFFFFA4
:103C3000FFFFFFFFFFFFFFFFFFFFFFFFFFFFFFFF94
:103C4000FFFFFFFFFFFFFFFFFFFFFFFFFFFFFFFF84
:103C5000FFFFFFFFFFFFFFFFFFFFFFFFFFFFFFFF74
:103C6000FFFFFFFFFFFFFFFFFFFFFFFFFFFFFFFF64
:103C7000FFFFFFFFFFFFFFFFFFFFFFFFFFFFFFFF54
:103C8000FFFFFFFFFFFFFFFFFFFFFFFFFFFFFFFF44
:103C9000FFFFFFFFFFFFFFFF3F0000FCFFFFFFFFF5
:103CA000FFFFFFFF030000C0FFFFFFFFFFFFFF3F1D
:103CB00000F00F00FCFFFFFFFFFFFF0F00FCFF0005
:103CC000F0FFFFFFFFFFFF0300FFFF03C0FFFFFF49
:103CD000FFFFFF00C0FFFF0F00FFFFFFFFFF3F00E0
:103CE000F0FFFF0F00FCFFFFFFFF0F00FCFFFF3F97
:103CF00000F0FFFFFFFF0F00FCFFFF3F00F0FFFFA2
:103D0000FFFF0300FFFFFFFF00C0FFFFFFFF0000FA
:103D1000FFFFFFFF00C0FFFFFFFF00C0FFFFFFFF2F
:103D20000300FFFFFF3F00C0FFFFFFFF0300FFFF97
:103D3000FF3F00C0FFFFFFFF0300FCFFFF3F00F05D
:103D4000FFFFFFFF0300FCFFFF0F00F0FFFFFFFF7F
:103D50000F00F0FFFF0F00F0FFFFFFFF0F00F0FF6D
:103D6000FF0F00F0FFFFFFFF0F00F0FFFF0300F069
:103D7000FFFFFFFF0F00F0FFFF0300FCFFFFFFFF4F
:103D80000F00C0FFFF0300FCFFFFFFFF3F00C0FF6D
:103D9000FF0300FCFFFFFFFF3F00C0FFFF0300FC2D
:103DA000FFFFFFFF3F00C0FFFF0000FCFFFFFFFF22
:103DB0003F00C0FFFF0000FCFFFFFFFF3F00C0FF10
:103DC000FF0000FCFFFFFFFF3F0000FFFF0000FCC3
:103DD000FFFFFFFF3F0000FFFF0000FCFFFFFFFFB2
:103DE0003F0000FFFF0000FFFFFFFFFF3F0000FF5D
:103DF000FF0000FFFFFFFFFF3F0000FFFF0000FF8D
:103E0000FFFFFFFF3F0000FFFF0000FFFFFFFFFF7E
:103E10003F0000FFFF0000FFFFFFFFFF3F0000FF2C
:103E2000FF0000FFFFFFFFFF3F0000FFFF0000FF5C
:103E3000FFFFFFFF3F0000FFFF0000FFFFFFFFFF4E
:103E40003F0000FFFF0000FFFFFFFFFF3F0000FFFC
:103E5000FF0000FFFFFFFFFF3F0000FFFF0000FC2F
:103E6000FFFFFFFF3F0000FFFF0000FCFFFFFFFF21
:103E70003F0000FFFF0000FCFFFFFFFF3F00C0FF0F
:103E8000FF0000FCFFFFFFFF3F00C0FFFF0000FC42
:103E9000FFFFFFFF3F00C0FFFF0300FCFFFFFFFF2E
:103EA0003F00C0FFFF0300FCFFFFFFFF3F00C0FF1C
:103EB000FF0300FCFFFFFFFF3F00C0FFFF0300FC0C
:103EC000FFFFFFFF0F00C0FFFF0300F0FFFFFFFF3A
:103ED0000F00F0FFFF0F00F0FFFFFFFF0F00F0FFEC
:103EE000FF0F00F0FFFFFFFF0F00F0FFFF0F00F0DC
:103EF000FFFFFFFF0F00FCFFFF3F00F0FFFFFFFF92
:103F00000300FCFFFF3F00C0FFFFFFFF0300FCFFBB
:103F1000FF3F00C0FFFFFFFF0300FFFFFFFF00C0E8
:103F2000FFFFFFFF0300FFFFFFFF0000FFFFFFFF9A
:103F300000C0FFFFFFFF0300FFFFFFFF00C0FFFF08
:103F4000FFFF0300FCFFFF3F00F0FFFFFFFF0F003C
:103F5000FCFFFF3F00F0FFFFFFFF3F00F0FFFF0F00
:103F600000FCFFFFFFFFFF00C0FFFF0F00FFFFFF90
:103F7000FFFFFF03C0FFFF03C0FFFFFFFFFFFF0FB7
:103F800000FCFF00F0FFFFFFFFFFFF3F00F00F000E
:103F9000FCFFFFFFFFFFFFFF030000C0FFFFFFFF6D
:103FA000FFFFFFFF3F0000FCFFFFFFFFFFFFFFFFE2
:103FB000FFFFFFFFFFFFFFFFFFFFFFFFFFFFFFFF11
:103FC000FFFFFFFFFFFFFFFFFFFFFFFFFFFFFFFF01
:103FD000FFFFFFFFFFFFFFFFFFFFFFFFFFFFFFFFF1
:103FE000FFFFFFFFFFFFFFFFFFFFFFFFFFFFFFFFE1
:103FF000FFFFFFFFFFFFFFFFFFFFFFFFFFFFFFFFD1
:10400000FFFFFFFFFFFFFFFFFFFFFFFFFFFFFFFFC0
:10401000FFFFFFFFFFFFFFFFFFFFFFFFFFFFFFFFB0
:10402000FFFFFFFFFFFFFFFFFFFFFFFFFFFFFFFFA0
:10403000FFFFFFFFFFFFFFFFFFFFFFFFFFFFFFFF90
:10404000FFFFFFFFFFFFFFFFFFFFFFFFFFFFFFFF80
:10405000FFFFFFFFFFFFFFFFFFFFFFFFFFFFFFFF70
:10406000FFFFFFFFFFFFFFFFFFFFFFFFFFFFFFFF60
:10407000FFFFFFFFFFFFFFFFFFFFFFFFFFFFFFFF50
:10408000FFFFFFFFFFFFFFFFFFFFFFFFFFFFFFFF40
:10409000FFFFFFFFFFFFFFFFFFFFFFFFFFFFFFFF30
:1040A000FFFFFFFFFFFFFFFFFFFFFFFFFFFFFFFF20
:1040B000FFFFFFFFFFFFFFFFFFFFFFFFFFFFFFFF10
:1040C000FFFFFFFFFFFFFFFFFFFFFFFFFFFFFFFF00
:1040D000FFFFFFFFFFFFFFFFFFFFFFFFFFFFFFFFF0
:1040E000FFFFFFFFFFFFFFFFFFFFFFFFFFFFFFFFE0
:1040F000FFFFFFFFFFFFFFFFFFFFFFFFFFFFFFFFD0
:10410000FFFFFFFFFFFFFFFFFFFFFFFFFFFFFFFFBF
:10411000FFFFFFFFFFFFFFFFFFFFFFFFFFFFFFFFAF
:10412000FFFFFFFFFFFFFFFFFFFFFFFFFFFFFFFF9F
:10413000FFFFFFFFFFFFFFFFFFFFFFFFFFFFFFFF8F
:10414000FFFFFFFFFFFFFFFFFFFFFFFFFFFFFFFF7F
:10415000FFFFFFFFFFFFFFFFFFFFFFFFFFFFFFFF6F
:10416000FFFFFFFFFFFFFFFFFFFFFFFFFFFFFFFF5F
:10417000FFFFFFFFFFFFFFFFFFFF03FFFFFFFFFF4B
:10418000FFFFFFFFFFFF00FFFFFFFFFFFFFFFFFF3E
:10419000FF3F00FFFFFFFFFFFFFFFFFFFF0F00FFDD
:1041A000FFFFFFFFFFFFFFFFFF0300FFFFFFFFFF1A
:1041B000FFFFFFFF0F0000FFFFFFFFFFFFFF0F00EC
:1041C000000000FFFFFFFFFFFFFF0F00000000FFE8
:1041D000FFFFFFFFFFFFFFFF3F0000FFFFFFFFFFAD
:1041E000FFFFFFFFFF0000FFFFFFFFFFFFFFFFFFDD
:1041F000FF0300FFFFFFFFFFFFFFFFFFFF0300FFC5
:10420000FFFFFFFFFFFFFFFFFF0300FFFFFFFFFFB9
:10421000FFFFFFFFFF0300FFFFFFFFFFFFFFFFFFA9
:10422000FF0300FFFFFFFFFFFFFFFFFFFF0300FF94
:10423000FFFFFFFFFFFFFFFFFF0300FFFFFFFFFF89
:10424000FFFFFFFFFF0300FFFFFFFFFFFFFFFFFF79
:10425000FF0300FFFFFFFFFFFFFFFFFFFF0300FF64
:10426000FFFFFFFFFFFFFFFFFF0300FFFFFFFFFF59
:10427000FFFFFFFFFF0300FFFFFFFFFFFFFFFFFF49
:10428000FF0300FFFFFFFFFFFFFFFFFFFF0300FF34
:10429000FFFFFFFFFFFFFFFFFF0300FFFFFFFFFF29
:1042A000FFFFFFFFFF0300FFFFFFFFFFFFFFFFFF19
:1042B000FF0300FFFFFFFFFFFFFFFFFFFF0300FF04
:1042C000FFFFFFFFFFFFFFFFFF0300FFFFFFFFFFF9
:1042D000FFFFFFFFFF0300FFFFFFFFFFFFFFFFFFE9
:1042E000FF0300FFFFFFFFFFFFFFFFFFFF0300FFD4
:1042F000FFFFFFFFFFFFFFFFFF0300FFFFFFFFFFC9
:10430000FFFFFFFFFF0300FFFFFFFFFFFFFFFFFFB8
:10431000FF0300FFFFFFFFFFFFFFFFFFFF0300FFA3
:10432000FFFFFFFFFFFFFFFFFF0300FFFFFFFFFF98
:10433000FFFFFFFFFF0300FFFFFFFFFFFFFFFFFF88
:10434000FF0300FFFFFFFFFFFFFFFFFFFF0300FF73
:10435000FFFFFFFFFFFFFFFFFF0300FFFFFFFFFF68
:10436000FFFFFFFFFF0300FFFFFFFFFFFFFFFFFF58
:10437000FF0300FFFFFFFFFFFFFFFFFFFF0300FF43
:10438000FFFFFFFFFFFFFFFFFF0300FFFFFFFFFF38
:10439000FFFFFFFFFF0300FFFFFFFFFFFFFFFFFF28
:1043A000FF0300FFFFFFFFFFFFFFFFFFFF0300FF13
:1043B000FFFFFFFFFFFFFFFFFF0300FFFFFFFFFF08
:1043C000FFFFFFFFFF0300FFFFFFFFFFFFFFFFFFF8
:1043D000FF0300FFFFFFFFFFFFFFFFFFFF0300FFE3
:1043E000FFFFFFFFFFFFFFFFFF0300FFFFFFFFFFD8
:1043F000FFFFFFFFFF0300FFFFFFFFFFFFFFFFFFC8
:10440000FF0300FFFFFFFFFFFFFFFFFFFF0300FFB2
:10441000FFFFFFFFFFFFFFFFFF0300FFFFFFFFFFA7
:10442000FFFFFFFFFF0300FFFFFFFFFFFFFFFFFF97
:10443000FF0000FFFFFFFFFFFFFFFFFFFF0000FC8B
:10444000FFFFFFFFFFFFFFFFFF0000FCFFFFFFFF7D
:10445000FFFFFFFF3F0000F0FFFFFFFFFFFFFFFF39
:1044600003000000FFFFFFFFFFFF0F000000000040
:1044700000C0FFFFFFFF0F000000000000C0FFFFB3
:10448000FFFFFFFFFFFFFFFFFFFFFFFFFFFFFFFF3C
:10449000FFFFFFFFFFFFFFFFFFFFFFFFFFFFFFFF2C
:1044A000FFFFFFFFFFFFFFFFFFFFFFFFFFFFFFFF1C
:1044B000FFFFFFFFFFFFFFFFFFFFFFFFFFFFFFFF0C
:1044C000FFFFFFFFFFFFFFFFFFFFFFFFFFFFFFFFFC
:1044D000FFFFFFFFFFFFFFFFFFFFFFFFFFFFFFFFEC
:1044E000FFFFFFFFFFFFFFFFFFFFFFFFFFFFFFFFDC
:1044F000FFFFFFFFFFFFFFFFFFFFFFFFFFFFFFFFCC
:10450000FFFFFFFFFFFFFFFFFFFFFFFFFFFFFFFFBB
:10451000FFFFFFFFFFFFFFFFFFFFFFFFFFFFFFFFAB
:10452000FFFFFFFFFFFFFFFFFFFFFFFFFFFFFFFF9B
:10453000FFFFFFFFFFFFFFFFFFFFFFFFFFFFFFFF8B
:10454000FFFFFFFFFFFFFFFFFFFFFFFFFFFFFFFF7B
:10455000FFFFFFFFFFFFFFFFFFFFFFFFFFFFFFFF6B
:10456000FFFFFFFFFFFFFFFFFFFFFFFFFFFFFFFF5B
:10457000FFFFFFFFFFFFFFFFFFFFFFFFFFFFFFFF4B
:10458000FFFFFFFFFFFFFFFFFFFFFFFFFFFFFFFF3B
:10459000FFFFFFFFFFFFFFFFFFFFFFFFFFFFFFFF2B
:1045A000FFFFFFFFFFFFFFFFFFFFFFFFFFFFFFFF1B
:1045B000FFFFFFFFFFFFFFFFFFFFFFFFFFFFFFFF0B
:1045C000FFFFFFFFFFFFFFFFFFFFFFFFFFFFFFFFFB
:1045D000FFFFFFFFFFFFFFFFFFFFFFFFFFFFFFFFEB
:1045E000FFFFFFFFFFFFFFFFFFFFFFFFFFFFFFFFDB
:1045F000FFFFFFFFFFFFFFFFFFFFFFFFFFFFFFFFCB
:10460000FFFFFFFFFFFFFFFFFFFFFFFFFFFFFFFFBA
:10461000FFFFFFFFFFFFFFFFFFFFFFFFFFFFFFFFAA
:10462000FFFFFFFFFFFFFFFFFFFFFFFFFFFFFFFF9A
:10463000FFFFFFFFFFFFFFFFFFFFFFFFFFFFFFFF8A
:10464000FFFFFFFFFFFFFFFFFFFFFFFFFFFFFFFF7A
:10465000FFFFFFFFFFFFFFFF3F0000F0FFFFFFFF37
:10466000FFFFFFFF00000000FCFFFFFFFFFFFF0355
:1046700000FF0F00C0FFFFFFFFFFFF00F0FFFF0381
:1046800000FCFFFFFFFF0F00FFFFFF0F00F0FFFF29
:10469000FFFF03C0FFFFFF3F00C0FFFFFFFF00F071
:1046A000FFFFFFFF00C0FFFFFFFF00F0FFFFFFFF66
:1046B0000000FFFFFF3F00FCFFFFFFFF0300FFFFC5
:1046C000FF3F00FCFFFFFFFF0300FCFFFF0F00FCAC
:1046D000FFFFFFFF0300FCFFFF0F00FCFFFFFFFFDA
:1046E0000F00F0FFFF0F00FCFFFFFFFF0F00F0FFC8
:1046F000FF0300FCFFFFFFFF0F00F0FFFF0300F0D0
:10470000FFFFFFFF0F00F0FFFF0300F0FFFFFFFFC1
:104710000F00F0FFFF0300C0FFFFFFFF0F00F0FFDF
:10472000FF0300C0FFFFFFFF0F00F0FFFF0300C00B
:10473000FFFFFFFF0F00F0FFFF0F00C0FFFFFFFFB5
:104740000F00F0FFFF0F00C0FFFFFFFF0F00FCFF97
:10475000FFFF00F0FFFFFFFF0300FCFFFFFFFFFF75
:10476000FFFFFFFF0300FCFFFFFFFFFFFFFFFFFF57
:104770000300FFFFFFFFFFFFFFFFFFFF0000FFFF42
:10478000FFFFFFFFFFFFFFFF0000FFFFFFFFFFFF37
:10479000FFFFFF3F00C0FFFFFFFFFFFFFFFFFF3FE7
:1047A00000F0FFFFFFFFFFFFFFFFFF0F00F0FFFF25
:1047B000FFFFFFFFFFFFFF0F00FCFFFFFFFFFFFFFB
:1047C000FFFFFF0300FFFFFFFFFFFFFFFFFFFF00F3
:1047D000C0FFFFFFFFFFFFFFFFFF3F00F0FFFFFFF6
:1047E000FFFFFFFFFFFF3F00FCFFFFFFFFFFFFFF9B
:1047F000FFFF0F00FFFFFFFFFFFFFFFFFFFF03C0F3
:10480000FFFFFFFFFFFFFFFFFFFF00F0FFFFFFFFC6
:10481000FFFFFFFFFF3F00FCFFFFFFFFFFFFFFFF6A
:10482000FF0F00FFFFFFFFFFFFFFFFFFFF03C0FFC2
:10483000FFFFFFFFFFFFFFFFFF00F0FFFFFFFFFF96
:10484000FFFFFFFF3F00FCFFFFFFFFFFFFFFFFFF3A
:104850000F00FFFFFFFFFFFFFFFFFFFF03C0FFFF92
:10486000FFFFFFFFFFFFFFFF00F0FFFFFFFFFFFF66
:10487000FFFFFF3F00FCFFFFFFFFFFFFFFFFFF3FCA
:1048800000FFFFFFFFFFFFFFFFFFFF0FC0FFFFFF66
:10489000FFFFFFFFFFFFFF03F0FFFFFFFF3FC0FF32
:1048A000FFFFFF00FCFFFFFFFF3FC0FFFFFF3F00D8
:1048B000FFFFFFFFFF3FF0FFFFFF0F00FFFFFFFFC6
:1048C000FF0FF0FFFFFF03C0FFFFFFFFFF0FF0FF31
:1048D000FFFF03F0FFFFFFFFFF0FF0FFFFFF00FCF4
:1048E000FFFFFFFFFF03F0FFFF3F00FFFFFFFFFFA2
:1048F000FF03F0FFFF0FC0FFFFFFFFFFFF00F0FF10
:10490000FF0FC0FFFFFFFFFF3F00FCFFFF03F0FFB3
:10491000FFFFFFFF0300FCFFFF000000000000009E
:104920000000FCFFFF000000000000000000FCFF92
:10493000FF000000000000000000FCFFFF0000007E
:10494000000000000000FCFFFF000000000000006D
:104950000000FCFFFF000000000000000000FCFF62
:10496000FFFFFFFFFFFFFFFFFFFFFFFFFFFFFFFF57
:10497000FFFFFFFFFFFFFFFFFFFFFFFFFFFFFFFF47
:10498000FFFFFFFFFFFFFFFFFFFFFFFFFFFFFFFF37
:10499000FFFFFFFFFFFFFFFFFFFFFFFFFFFFFFFF27
:1049A000FFFFFFFFFFFFFFFFFFFFFFFFFFFFFFFF17
:1049B000FFFFFFFFFFFFFFFFFFFFFFFFFFFFFFFF07
:1049C000FFFFFFFFFFFFFFFFFFFFFFFFFFFFFFFFF7
:1049D000FFFFFFFFFFFFFFFFFFFFFFFFFFFFFFFFE7
:1049E000FFFFFFFFFFFFFFFFFFFFFFFFFFFFFFFFD7
:1049F000FFFFFFFFFFFFFFFFFFFFFFFFFFFFFFFFC7
:104A0000FFFFFFFFFFFFFFFFFFFFFFFFFFFFFFFFB6
:104A1000FFFFFFFFFFFFFFFFFFFFFFFFFFFFFFFFA6
:104A2000FFFFFFFFFFFFFFFFFFFFFFFFFFFFFFFF96
:104A3000FFFFFFFFFFFFFFFFFFFFFFFFFFFFFFFF86
:104A4000FFFFFFFFFFFFFFFFFFFFFFFFFFFFFFFF76
:104A5000FFFFFFFFFFFFFFFFFFFFFFFFFFFFFFFF66
:104A6000FFFFFFFFFFFFFFFFFFFFFFFFFFFFFFFF56
:104A7000FFFFFFFFFFFFFFFFFFFFFFFFFFFFFFFF46
:104A8000FFFFFFFFFFFFFFFFFFFFFFFFFFFFFFFF36
:104A9000FFFFFFFFFFFFFFFFFFFFFFFFFFFFFFFF26
:104AA000FFFFFFFFFFFFFFFFFFFFFFFFFFFFFFFF16
:104AB000FFFFFFFFFFFFFFFFFFFFFFFFFFFFFFFF06
:104AC000FFFFFFFFFFFFFFFFFFFFFFFFFFFFFFFFF6
:104AD000FFFFFFFFFFFFFFFFFFFFFFFFFFFFFFFFE6
:104AE000FFFFFFFFFFFFFFFFFFFFFFFFFFFFFFFFD6
:104AF000FFFFFFFFFFFFFFFFFFFFFFFFFFFFFFFFC6
:104B0000FFFFFFFFFFFFFFFFFFFFFFFFFFFFFFFFB5
:104B1000FFFFFFFFFFFFFFFFFFFFFFFFFFFFFFFFA5
:104B2000FFFFFFFFFFFFFFFFFFFFFFFFFFFFFFFF95
:104B3000FFFFFFFFFFFFFFFF0F0000FFFFFFFFFF73
:104B4000FFFFFF0F000000C0FFFFFFFFFFFFFF00A0
:104B5000C0FF0000FCFFFFFFFFFF3F00FFFF3F0023
:104B6000F0FFFFFFFFFF0FC0FFFFFF00C0FFFFFFD1
:104B7000FFFF03F0FFFFFF0300FFFFFFFFFF00F059
:104B8000FFFFFF0F00FCFFFFFF3F00F0FFFFFF0FE5
:104B900000F0FFFFFF3F00F0FFFFFF3F00F0FFFFCF
:104BA000FF0F00F0FFFFFF3F00C0FFFFFF0F00F00F
:104BB000FFFFFFFF00C0FFFFFF0F00F0FFFFFFFF41
:104BC0000000FFFFFF0F00C0FFFFFFFF0000FFFF1F
:104BD000FF0F00C0FFFFFFFF0000FFFFFF0F00C03F
:104BE000FFFFFFFF0000FFFFFF0F00C0FFFFFFFF01
:104BF0000000FFFFFF3F00F0FFFFFFFF0000FFFF8F
:104C0000FFFF00F0FFFFFFFF0000FFFFFFFFFFFFC0
:104C1000FFFFFFFF0000FFFFFFFFFFFFFFFFFFFFA2
:104C20000000FFFFFFFFFFFFFFFFFFFF00C0FFFFD0
:104C3000FFFFFFFFFFFFFF3F00C0FFFFFFFFFFFF82
:104C4000FFFFFF3F00C0FFFFFFFFFFFFFFFFFF3F32
:104C500000F0FFFFFFFFFFFFFFFFFF0F00FCFFFF64
:104C6000FFFFFFFFFFFFFF0300FCFFFFFFFFFFFF52
:104C7000FFFFFF0000FFFFFFFFFFFFFFFFFF3F0001
:104C8000C0FFFFFFFFFFFFFFFFFF0F00FCFFFFFF65
:104C9000FFFFFFFFFF3F00C0FFFFFFFFFFFFFFFF22
:104CA0000F0000FCFFFFFFFFFFFFFFFF0F0000C032
:104CB000FFFFFFFFFFFFFFFFFFFF0000FCFFFFFF05
:104CC000FFFFFFFFFFFF3F00C0FFFFFFFFFFFFFFF2
:104CD000FFFFFF0300FFFFFFFFFFFFFFFFFFFF0FCF
:104CE00000FCFFFFFFFFFFFFFFFFFF3F00F0FFFFA4
:104CF000FFFFFFFFFFFFFFFF00C0FFFFFFFFFFFF02
:104D0000FFFFFFFF0000FFFFFFFFFFFFFFFFFFFFB1
:104D10000300FFFFFFFFFFFFFFFFFFFF0300FCFF9C
:104D2000FFFFFFFFFFFFFFFF0F00FCFFFFFFFFFF85
:104D3000FFFFFFFF0F00F0FFFFFFFFFFFFFFFFFF81
:104D40000F00F0FFFFFFFFFFFFFFFFFF0F00F0FF6F
:104D5000FFFFFFFFFFFFFFFF0F00C0FFFFFFFFFF91
:104D6000FFFFFFFF0F00C0FFFFFFFFFFFFFFFFFF81
:104D70000F00C0FFFFFF00FCFFFFFFFF0F00C0FFA1
:104D8000FF3F00F0FFFFFFFF0F00C0FFFF0F00F02D
:104D9000FFFFFFFF0F00C0FFFF0300C0FFFFFFFF8B
:104DA0000F00F0FFFF0300C0FFFFFFFF0F00F0FF49
:104DB000FF0300C0FFFFFFFF0F00F0FFFF0300C075
:104DC000FFFFFFFF0F00F0FFFF0300F0FFFFFFFFFB
:104DD0000300FCFFFF0300F0FFFFFFFF0300FCFFE9
:104DE000FF0F00F0FFFFFFFF0300FFFFFF0F00F0CA
:104DF000FFFFFFFF00C0FFFFFF3F00F0FFFFFF3F8F
:104E000000F0FFFFFFFF00F0FFFFFF3F00F0FFFF9C
:104E1000FFFF03C0FFFFFF0F00FCFFFFFFFF0F00BE
:104E2000FFFFFF00C0FFFFFFFFFFFF00C0FF030009
:104E3000F0FFFFFFFFFFFF0F00000000FFFFFFFF7D
:104E4000FFFFFFFF030000FFFFFFFFFFFFFFFFFF6C
:104E5000FFFFFFFFFFFFFFFFFFFFFFFFFFFFFFFF62
:104E6000FFFFFFFFFFFFFFFFFFFFFFFFFFFFFFFF52
:104E7000FFFFFFFFFFFFFFFFFFFFFFFFFFFFFFFF42
:104E8000FFFFFFFFFFFFFFFFFFFFFFFFFFFFFFFF32
:104E9000FFFFFFFFFFFFFFFFFFFFFFFFFFFFFFFF22
:104EA000FFFFFFFFFFFFFFFFFFFFFFFFFFFFFFFF12
:104EB000FFFFFFFFFFFFFFFFFFFFFFFFFFFFFFFF02
:104EC000FFFFFFFFFFFFFFFFFFFFFFFFFFFFFFFFF2
:104ED000FFFFFFFFFFFFFFFFFFFFFFFFFFFFFFFFE2
:104EE000FFFFFFFFFFFFFFFFFFFFFFFFFFFFFFFFD2
:104EF000FFFFFFFFFFFFFFFFFFFFFFFFFFFFFFFFC2
:104F0000FFFFFFFFFFFFFFFFFFFFFFFFFFFFFFFFB1
:104F1000FFFFFFFFFFFFFFFFFFFFFFFFFFFFFFFFA1
:104F2000FFFFFFFFFFFFFFFFFFFFFFFFFFFFFFFF91
:104F3000FFFFFFFFFFFFFFFFFFFFFFFFFFFFFFFF81
:104F4000FFFFFFFFFFFFFFFFFFFFFFFFFFFFFFFF71
:104F5000FFFFFFFFFFFFFFFFFFFFFFFFFFFFFFFF61
:104F6000FFFFFFFFFFFFFFFFFFFFFFFFFFFFFFFF51
:104F7000FFFFFFFFFFFFFFFFFFFFFFFFFFFFFFFF41
:104F8000FFFFFFFFFFFFFFFFFFFFFFFFFFFFFFFF31
:104F9000FFFFFFFFFFFFFFFFFFFFFFFFFFFFFFFF21
:104FA000FFFFFFFFFFFFFFFFFFFFFFFFFFFFFFFF11
:104FB000FFFFFFFFFFFFFFFFFFFFFFFFFFFFFFFF01
:104FC000FFFFFFFFFFFFFFFFFFFFFFFFFFFFFFFFF1
:104FD000FFFFFFFFFFFFFFFFFFFFFFFFFFFFFFFFE1
:104FE000FFFFFFFFFFFFFFFFFFFFFFFFFFFFFFFFD1
:104FF000FFFFFFFFFFFFFFFFFFFFFFFFFFFFFFFFC1
:10500000FFFFFFFFFFFFFFFFFFFFFFFFFFFFFFFFB0
:10501000FFFFFFFFFFFFFFFFFFFFFFFFFFFFFFFFA0
:10502000FFFFFFFFFFFFFF03C0FFFFFFFFFFFFFFCB
:10503000FFFFFF03C0FFFFFFFFFFFFFFFFFFFF00BA
:10504000C0FFFFFFFFFFFFFFFFFFFF00C0FFFFFFED
:10505000FFFFFFFFFFFF3F00C0FFFFFFFFFFFFFF5E
:10506000FFFF0F00C0FFFFFFFFFFFFFFFFFF0F006D
:10507000C0FFFFFFFFFFFFFFFFFF0300C0FFFFFFB9
:10508000FFFFFFFFFFFF0000C0FFFFFFFFFFFFFF6D
:10509000FFFF0000C0FFFFFFFFFFFFFFFF3F00001B
:1050A000C0FFFFFFFFFFFFFFFF3FC000C0FFFFFF8C
:1050B000FFFFFFFFFF0FC000C0FFFFFFFFFFFFFF6D
:1050C000FF03F000C0FFFFFFFFFFFFFFFF03FC0037
:1050D000C0FFFFFFFFFFFFFFFF00FC00C0FFFFFF5F
:1050E000FFFFFFFF3F00FF00C0FFFFFFFFFFFFFFCD
:1050F0003FC0FF00C0FFFFFFFFFFFFFF0FC0FF002B
:10510000C0FFFFFFFFFFFFFF03F0FF00C0FFFFFF37
:10511000FFFFFFFF03F0FF00C0FFFFFFFFFFFFFFE8
:1051200000FCFF00C0FFFFFFFFFFFFFF00FFFF00CD
:10513000C0FFFFFFFFFFFF3F00FFFF00C0FFFFFFBB
:10514000FFFFFF0FC0FFFF00C0FFFFFFFFFFFF0FCC
:10515000F0FFFF00C0FFFFFFFFFFFF03F0FFFF00B6
:10516000C0FFFFFFFFFFFF00FCFFFF00C0FFFFFFCE
:10517000FFFFFF00FCFFFF00C0FFFFFFFFFF3F003E
:10518000FFFFFF00C0FFFFFFFFFF3FC0FFFFFF006B
:10519000C0FFFFFFFFFF0FC0FFFFFF00C0FFFFFFCB
:1051A000FFFF03F0FFFFFF00C0FFFFFFFFFF03FC57
:1051B000FFFFFF00C0FFFFFFFFFF00FCFFFFFF003E
:1051C000C0FFFFFFFF3F00FFFFFFFF00C0FFFFFF2B
:1051D000FF3FC0FFFFFFFF00C0FFFFFFFF0FC0FF4B
:1051E000FFFFFF00C0FFFFFFFF0FF0FFFFFFFF000B
:1051F000C0FFFFFFFF03F0FFFFFFFF00C0FFFFFF47
:10520000FF00FCFFFFFFFF00C0FFFFFFFF00FFFFED
:10521000FFFFFF00C0FFFFFF3F00FFFFFFFFFF009A
:10522000C0FFFFFF3F00000000000000000000FC86
:105230003F00000000000000000000FCFFFFFFFF37
:10524000FFFFFF00C0FFFFFFFFFFFFFFFFFFFF00AB
:10525000C0FFFFFFFFFFFFFFFFFFFF00C0FFFFFFDB
:10526000FFFFFFFFFFFFFF00C0FFFFFFFFFFFFFF8C
:10527000FFFFFF00C0FFFFFFFFFFFFFFFFFFFF007B
:10528000C0FFFFFFFFFFFFFFFFFFFF00C0FFFFFFAB
:10529000FFFFFFFFFFFFFF00C0FFFFFFFFFFFFFF5C
:1052A000FFFFFF00C0FFFFFFFFFFFFFFFFFFFF004B
:1052B000C0FFFFFFFFFFFFFFFFFFFF00C0FFFFFF7B
:1052C000FFFFFFFFFFFFFF00C0FFFFFFFFFFFFFF2C
:1052D000FFFFFF00C0FFFFFFFFFFFFFFFFFFFF001B
:1052E000C0FFFFFFFFFFFFFFFFFF3F0000FFFFFFCB
:1052F000FFFFFFFFFFFF3F0000FFFFFFFFFFFFFF7C
:10530000FFFF0F0000FCFFFFFFFFFFFF0F0000008B
:10531000000000FFFFFFFFFF0F000000000000FF84
:10532000FFFFFFFF0F000000000000FFFFFFFFFF77
:10533000FFFFFFFFFFFFFFFFFFFFFFFFFFFFFFFF7D
:10534000FFFFFFFFFFFFFFFFFFFFFFFFFFFFFFFF6D
:10535000FFFFFFFFFFFFFFFFFFFFFFFFFFFFFFFF5D
:10536000FFFFFFFFFFFFFFFFFFFFFFFFFFFFFFFF4D
:10537000FFFFFFFFFFFFFFFFFFFFFFFFFFFFFFFF3D
:10538000FFFFFFFFFFFFFFFFFFFFFFFFFFFFFFFF2D
:10539000FFFFFFFFFFFFFFFFFFFFFFFFFFFFFFFF1D
:1053A000FFFFFFFFFFFFFFFFFFFFFFFFFFFFFFFF0D
:1053B000FFFFFFFFFFFFFFFFFFFFFFFFFFFFFFFFFD
:1053C000FFFFFFFFFFFFFFFFFFFFFFFFFFFFFFFFED
:1053D000FFFFFFFFFFFFFFFFFFFFFFFFFFFFFFFFDD
:1053E000FFFFFFFFFFFFFFFFFFFFFFFFFFFFFFFFCD
:1053F000FFFFFFFFFFFFFFFFFFFFFFFFFFFFFFFFBD
:10540000FFFFFFFFFFFFFFFFFFFFFFFFFFFFFFFFAC
:10541000FFFFFFFFFFFFFFFFFFFFFFFFFFFFFFFF9C
:10542000FFFFFFFFFFFFFFFFFFFFFFFFFFFFFFFF8C
:10543000FFFFFFFFFFFFFFFFFFFFFFFFFFFFFFFF7C
:10544000FFFFFFFFFFFFFFFFFFFFFFFFFFFFFFFF6C
:10545000FFFFFFFFFFFFFFFFFFFFFFFFFFFFFFFF5C
:10546000FFFFFFFFFFFFFFFFFFFFFFFFFFFFFFFF4C
:10547000FFFFFFFFFFFFFFFFFFFFFFFFFFFFFFFF3C
:10548000FFFFFFFFFFFFFFFFFFFFFFFFFFFFFFFF2C
:10549000FFFFFFFFFFFFFFFFFFFFFFFFFFFFFFFF1C
:1054A000FFFFFFFFFFFFFFFFFFFFFFFFFFFFFFFF0C
:1054B000FFFFFFFFFFFFFFFFFFFFFFFFFFFFFFFFFC
:1054C000FFFFFFFFFFFFFFFFFFFFFFFFFFFFFFFFEC
:1054D000FFFFFFFFFFFFFFFFFFFFFFFFFFFFFFFFDC
:1054E000FFFFFFFFFFFFFFFFFFFFFFFFFFFFFFFFCC
:1054F000FFFFFFFFFFFFFFFFFFFFFFFFFFFFFFFFBC
:10550000FFFF0300000000000000F0FFFFFF0300AA
:10551000000000000000FCFFFFFF0300000000008F
:105520000000FCFFFFFF0300000000000000FCFF84
:10553000FFFF0300000000000000FCFFFFFF03FC72
:10554000FFFFFFFFFFFFFFFFFFFF03FCFFFFFFFF6A
:10555000FFFFFFFFFFFF03FCFFFFFFFFFFFFFFFF5A
:10556000FFFF03FCFFFFFFFFFFFFFFFFFFFF03FC49
:10557000FFFFFFFFFFFFFFFFFFFF03FCFFFFFFFF3A
:10558000FFFFFFFFFFFF03FCFFFFFFFFFFFFFFFF2A
:10559000FFFF03FCFFFFFFFFFFFFFFFFFFFF03FC19
:1055A000FFFFFFFFFFFFFFFFFFFF03FCFFFFFFFF0A
:1055B000FFFFFFFFFFFF03FCFFFFFFFFFFFFFFFFFA
:1055C000FFFF00FCFFFFFFFFFFFFFFFFFFFF00FCEF
:1055D000FFFFFFFFFFFFFFFFFFFF00FCFFFFFFFFDD
:1055E000FFFFFFFFFFFF00FCFFFFFFFFFFFFFFFFCD
:1055F000FFFF00FCFFFFFFFFFFFFFFFFFFFF00FFBC
:10560000FFFFFFFFFFFFFFFFFFFF00FFFFFFFFFFA9
:10561000FFFFFFFFFFFF00FFFF0000C0FFFFFFFFD6
:10562000FFFF00FF03000000FCFFFFFFFFFF003F44
:1056300000000000C0FFFFFFFFFF000F00000000A0
:1056400000FFFFFFFFFF000300FC3F0000FCFFFF27
:10565000FFFF0000F0FFFF0300F0FFFFFFFF00006F
:10566000FFFFFF0F00C0FFFFFFFF00C0FFFFFF3F76
:105670000000FFFFFFFF00F0FFFFFFFF0000FFFF44
:10568000FFFF00F0FFFFFFFF0000FCFFFFFF00FC3B
:10569000FFFFFFFF0300FCFFFFFF0FFFFFFFFFFF08
:1056A0000300F0FFFFFFFFFFFFFFFFFF0F00F0FF12
:1056B000FFFFFFFFFFFFFFFF0F00F0FFFFFFFFFFF8
:1056C000FFFFFFFF0F00F0FFFFFFFFFFFFFFFFFFE8
:1056D0000F00F0FFFFFFFFFFFFFFFFFF3F00C0FFD6
:1056E000FFFFFFFFFFFFFFFF3F00C0FFFFFFFFFFC8
:1056F000FFFFFFFF3F00C0FFFFFFFFFFFFFFFFFFB8
:105700003F00C0FFFFFFFFFFFFFFFFFF3F00C0FFA5
:10571000FFFFFFFFFFFFFFFF3F00C0FFFFFFFFFF97
:10572000FFFFFFFF3F00C0FFFFFF00FCFFFFFFFF89
:105730003F00C0FFFF0F00F0FFFFFFFF3F00F0FF43
:10574000FF0F00C0FFFFFFFF3F00F0FFFF0300C09F
:10575000FFFFFFFF3F00F0FFFF0300C0FFFFFFFF61
:105760000F00F0FFFF0300C0FFFFFFFF0F00F0FF7F
:10577000FF0300C0FFFFFFFF0F00FCFFFF0300F06F
:10578000FFFFFFFF0F00FCFFFF0300FCFFFFFFFF19
:105790000300FCFFFF0F00FCFFFFFFFF0300FFFF04
:1057A000FF0F00FCFFFFFFFF0300FFFFFF3F00FCB8
:1057B000FFFFFFFF00C0FFFFFF3F00FCFFFFFF3FB9
:1057C00000F0FFFFFFFF00F0FFFFFF3F00F0FFFFD3
:1057D000FFFF03C0FFFFFF0F00FCFFFFFFFF3F00C5
:1057E000FFFFFF0000FFFFFFFFFFFF0000FF0F00B4
:1057F000F0FFFFFFFFFFFF0F00000000FFFFFFFFB4
:10580000FFFFFFFF030000FCFFFFFFFFFFFFFFFFA5
:10581000FFFFFFFFFFFFFFFFFFFFFFFFFFFFFFFF98
:10582000FFFFFFFFFFFFFFFFFFFFFFFFFFFFFFFF88
:10583000FFFFFFFFFFFFFFFFFFFFFFFFFFFFFFFF78
:10584000FFFFFFFFFFFFFFFFFFFFFFFFFFFFFFFF68
:10585000FFFFFFFFFFFFFFFFFFFFFFFFFFFFFFFF58
:10586000FFFFFFFFFFFFFFFFFFFFFFFFFFFFFFFF48
:10587000FFFFFFFFFFFFFFFFFFFFFFFFFFFFFFFF38
:10588000FFFFFFFFFFFFFFFFFFFFFFFFFFFFFFFF28
:10589000FFFFFFFFFFFFFFFFFFFFFFFFFFFFFFFF18
:1058A000FFFFFFFFFFFFFFFFFFFFFFFFFFFFFFFF08
:1058B000FFFFFFFFFFFFFFFFFFFFFFFFFFFFFFFFF8
:1058C000FFFFFFFFFFFFFFFFFFFFFFFFFFFFFFFFE8
:1058D000FFFFFFFFFFFFFFFFFFFFFFFFFFFFFFFFD8
:1058E000FFFFFFFFFFFFFFFFFFFFFFFFFFFFFFFFC8
:1058F000FFFFFFFFFFFFFFFFFFFFFFFFFFFFFFFFB8
:10590000FFFFFFFFFFFFFFFFFFFFFFFFFFFFFFFFA7
:10591000FFFFFFFFFFFFFFFFFFFFFFFFFFFFFFFF97
:10592000FFFFFFFFFFFFFFFFFFFFFFFFFFFFFFFF87
:10593000FFFFFFFFFFFFFFFFFFFFFFFFFFFFFFFF77
:10594000FFFFFFFFFFFFFFFFFFFFFFFFFFFFFFFF67
:10595000FFFFFFFFFFFFFFFFFFFFFFFFFFFFFFFF57
:10596000FFFFFFFFFFFFFFFFFFFFFFFFFFFFFFFF47
:10597000FFFFFFFFFFFFFFFFFFFFFFFFFFFFFFFF37
:10598000FFFFFFFFFFFFFFFFFFFFFFFFFFFFFFFF27
:10599000FFFFFFFFFFFFFFFFFFFFFFFFFFFFFFFF17
:1059A000FFFFFFFFFFFFFFFFFFFFFFFFFFFFFFFF07
:1059B000FFFFFFFFFFFFFFFFFFFFFFFFFFFFFFFFF7
:1059C000FFFFFFFFFFFFFFFFFFFFFFFFFFFFFFFFE7
:1059D000FFFFFFFFFFFFFFFFFF3F0000FCFFFFFF98
:1059E000FFFFFFFF3F000000C0FFFFFFFFFFFFFFC3
:1059F0000300FF0F00FCFFFFFFFFFFFF00F0FF3F72
:105A000000F0FFFFFFFFFF0F00FFFF3F00C0FFFFA1
:105A1000FFFFFF03C0FFFF3F00C0FFFFFFFFFF00CE
:105A2000F0FFFF3F0000FFFFFFFF3F00FCFFFF3FD5
:105A30000000FFFFFFFF3F00FFFFFF3F0000FFFFF1
:105A4000FFFF0F00FFFFFF3F0000FFFFFFFF03C04E
:105A5000FFFFFF3F0000FFFFFFFF03C0FFFFFFFF4F
:105A60000000FFFFFFFF00C0FFFFFFFF03C0FFFFBD
:105A7000FFFF00F0FFFFFFFFFFFFFFFFFF3F00F012
:105A8000FFFFFFFFFFFFFFFFFF3F00F0FFFFFFFFF4
:105A9000FFFFFFFFFF0F00F0FFFFFFFFFFFFFFFF14
:105AA000FF0F00FCFFFFFFFFFFFFFFFFFF0F00FCEA
:105AB000FFFFFFFFFFFFFFFFFF0F00FCFFFFFFFFE8
:105AC000FFFFFFFFFF0300FCFFFFFFFFFFFFFFFFE4
:105AD000FF0300FCFFFFFFFFFFFFFFFFFF0300FCD2
