:020000040800F2
:10000000301E0020A10800087504000877040008CD
:100010007B0400087F04000883040008000000003F
:10002000000000000000000000000000870400083D
:1000300089040008000000008B0400088D040008FB
:10004000BB080008BB080008BB080008BB08000884
:10005000BB080008BB080008BB080008BB08000874
:10006000BB080008BB080008BB080008BB08000864
:10007000BB080008BB080008BB080008BB08000854
:10008000BB080008BB080008BB080008BB08000844
:10009000BB080008BB080008BB080008BB08000834
:1000A000BB080008BB080008BB080008BB08000824
:1000B000BB080008BB080008BB080008BB08000814
:1000C000BB080008BB080008BB080008BB08000804
:1000D000BB08000815080008BB080008BB0800089A
:1000E000BB080008BB080008BB080008BB080008E4
:1000F000BB080008BB080008BB080008BB080008D4
:10010000BB080008BB080008BB080008BB080008C3
:10011000BB080008BB080008BB080008BB080008B3
:10012000BB080008BB080008BB080008BB080008A3
:1001300000F002F800F03AF80AA090E8000C8244BF
:100140008344AAF10107DA4501D100F02FF8AFF29C
:10015000090EBAE80F0013F0010F18BFFB1A43F0A5
:1001600001031847E08D0000008E0000103A24BF04
:1001700078C878C1FAD8520724BF30C830C144BF0C
:1001800004680C607047000000230024002500264E
:10019000103A28BF78C1FBD8520728BF30C148BFEA
:1001A0000B6070471FB51FBD10B510BD02F09CF964
:1001B0001146FFF7F7FF00F009F802F0BAF903B4AF
:1001C000FFF7F2FF03BC00F0CBFA00000EB500F021
:1001D0004DFA00F0BFFA01F06FFA2EE101F0DAF902
:1001E0009649974801F019FA01F004FA022000F04C
:1001F0009CFA01F0CFF901F038FA01F0FBF9022086
:1002000000F093FAFF204FF4877398221146009074
:100210008C4801F0F9FAFF204FF4877398221146B9
:100220000090894801F0F0FA01F0B4F9854801F036
:1002300028FBFF2001F0E0FB0120034600220A21F9
:100240000090052001F00DFC01200223002219215D
:100250000090052001F005FC012003230022282145
:100260000090052001F0FDFB01200423002237212E
:100270000090052001F0F5FB0120002100913C23B6
:100280004622CDE901100A21142001F03CFC012096
:10029000002100913C231422CDE901100A214620BF
:1002A00001F031FC684801F0ECFAFF2001F0A4FBFA
:1002B0000120002100913C234622CDE901100A21B2
:1002C000142001F09EFC01200022CDE900203C23F7
:1002D00082220A210290552001F093FC0120002186
:1002E0000B461922CDE9001078211E2001F0E2FC16
:1002F000012000900023192278210190642001F050
:10030000D9FC51494F4801F00FF901F073F902206F
:1003100000F00BFA01F03EF94A4801F0B2FAFF2072
:1003200001F06AFB0020FF21484B49A2CDE90010F3
:10033000014601F03FFE0020FF21494B44A2CDE9D8
:1003400000100A2101F036FE0020FF21454B40A29B
:10035000CDE90010192101F02DFE3B4801F091FA82
:10036000FF2001F049FB0020FF213F4B38A2CDE9DF
:1003700000102D2101F01EFE0020FF213B4B34A276
:10038000CDE90010502101F015FE2F492D4801F054
:10039000CBF801F02FF9022000F0C7F901F0FAF8CC
:1003A000284801F06EFAFF2001F026FB0020FF2113
:1003B000264B2F4ACDE90010014601F041FF0020F5
:1003C000FF21274B2A4ACDE900100A2101F038FF0E
:1003D0000020FF21234B264ACDE90010192101F00E
:1003E0002FFF194801F04DFAFF2001F005FB002016
:1003F000FF211D4B1E4ACDE900102D2101F020FFE9
:100400000020FF21194B1A4ACDE90010462101F0C6
:1004100017FF0D490B4801F087F801F0EBF80220B7
:1004200000F083F901F0B6F801F01FF901F0E2F8ED
:10043000022000F07AF900BFFEE7CFE69030000816
:10044000482500085C000020A40B00203400002098
:10045000476F6F6420446973706C6179000000001D
:100460003C000020440000204C00002054000020EC
:1004700015CD5B07704700BFFEE700BFFEE700BF7A
:10048000FEE700BFFEE77047704770477047000007
:100490000CB50020019000906B48006840F480305B
:1004A0006949086000BF6848006800F400300090A7
:1004B0000198401C0190009818B90198B0F5A06F00
:1004C000F1D16148006810F4003F02D00120009093
:1004D00001E0002000900098012842D15B480068AC
:1004E00040F01000594908600846006820F00300F9
:1004F00008600846006840F0020008605248406802
:10050000514948600846406848600846406840F4E1
:10051000806048600846406820F47C1048600846C7
:10052000406840F4E81048600846006840F0807079
:10053000086000BF4448006810F0007FFAD04248CD
:10054000406820F00300404948600846406840F099
:100550000200486000BF3C48406800F00C000828DA
:10056000F9D10CBD10B5FFF793FF10BD10B536489B
:10057000006840F00100344908600846406834498A
:1005800008403149486008460068324908402E4911
:1005900008600846006820F480200860084640682B
:1005A00020F4FE0048604FF41F008860FFF7DAFF78
:1005B0004FF000602849086010BD10B500210020F0
:1005C0000022214B5B6803F00C0121B1042906D005
:1005D000082928D107E0214B214C236027E01F4B3D
:1005E0001F4C236023E0184B5B6803F47010164B1C
:1005F0005B6803F48032022303EB904022B9194B6D
:100600004343174C23600DE00F4B5B6813F4003F2E
:1006100004D0144B4343124C236003E00F4B43437D
:100620000F4C236003E00D4B0D4C236000BF00BF57
:10063000054B5B68C3F303130B4CE15C084B1B6871
:10064000CB40074C236010BD001002400020024048
:100650000000FFF8FFFFF6FE08ED00E000127A0050
:100660000000002000093D000400002010B56FF0DC
:10067000040000F085F9334800683349B0FBF1F01D
:10068000324908700846007800EB4001C1EBC01009
:100690004FF6FF7101EAC0002D49088010BD0146E8
:1006A0002A4A12784A434FF0E0235A6100229A61A5
:1006B0001A46126942F001021A6100BF4FF0E022AF
:1006C000106910F0010F02D010F4803FF6D04FF007
:1006D000E022126922F001024FF0E0231A610022A9
:1006E0009A61704701461A4A12884A434FF0E02344
:1006F0005A6100229A611A46126942F001021A6197
:1007000000BF4FF0E022106910F0010F02D010F48A
:10071000803FF6D04FF0E022126922F001024FF044
:10072000E0231A6100229A61704730B50446002523
:1007300005E04FF47A70FFF7D5FF681C85B2A5423B
:10074000F7DB30BD0000002000127A00140000200A
:100750001600002010B54FF4A06000F0C1F810BDE5
:10076000014600BF704700BF494A128812F0400F8F
:10077000FAD0C2B2464B1B1D1A80704710B586B026
:100780000446012144F2050000F02EFC4FF40070F5
:10079000ADF8140003208DF8160018208DF817000E
:1007A00005A93C4800F06AF94FF48060ADF81400E8
:1007B00004208DF8170005A9364800F05FF92520C0
:1007C0008DF8000003208DF801008DF80200012053
:1007D0008DF80300684600F088F801940020ADF819
:1007E0000800ADF80A00ADF80C00ADF810000C20C0
:1007F000ADF80E0001A9264800F0A1FC012240F24C
:100800002551234800F033FD0121214800F023FD4C
:1008100006B010BD10B540F225511D4800F00CFE89
:1008200010B31B4800F088FDC4B21B48008810F4C8
:10083000004F2BD11848008810F4804F0CD00A2CA0
:1008400003D000201449088020E01348008840F4B9
:1008500000401149088019E00D2C06D10E4800888F
:1008600040F480400C49088010E00B480088C0F339
:100870000D000A490C5408480088401C06490880AD
:1008800008460088C72801DD0020088010BD000050
:10089000003801400008014018000020EC1600203C
:1008A0000948804709480047FEE7FEE7FEE7FEE704
:1008B000FEE7FEE7FEE7FEE7FEE7FEE70448054940
:1008C000054A064B704700006D050008310100081D
:1008D00030180020301E0020301A0020301A00206E
:1008E00031490143314A1160704770B5002100233E
:1008F0000F22C4780CB32D4C246804F4E064C4F5D2
:10090000E064210AC1F10403CA40447804FA03F107
:100910008478144021430901254C0678A1550478B8
:1009200004F01F050124AC4005786D114FF0E0265E
:1009300006EB8505C5F8004109E0047804F01F05C1
:100940000124AC401B4D0678761145F8264070BD59
:10095000194A0A400243154B1B1F1A60704739B1F0
:10096000124A121D12680243104B1B1D1A6006E04A
:100970000E4A121D126882430C4B1B1D1A607047F1
:10098000042808D14FF0E021096941F004014FF03B
:10099000E022116107E04FF0E021096921F0040134
:1009A0004FF0E022116170470000FA050CED00E005
:1009B00000E400E080E100E080FFFF1F10B5044686
:1009C000CA48844208D10121042000F027FB0021FD
:1009D000042000F023FB46E0C548844208D10121F1
:1009E000082000F01BFB0021082000F017FB3AE074
:1009F000C048844208D10121102000F00FFB0021E3
:100A0000102000F00BFB2EE0BB48844208D10121EE
:100A1000202000F003FB0021202000F0FFFA22E05C
:100A2000B648844208D10121402000F0F7FA0021A5
:100A3000402000F0F3FA16E0B148844208D10121C9
:100A4000802000F0EBFA0021802000F0E7FA0AE0B5
:100A5000AC48844207D10121801500F0DFFA002163
:100A6000A01500F0DBFA10BD10B50121084600F01A
:100A7000D5FA0021012000F0D1FA10BD2DE9F04196
:100A8000024600250026002000230024002791F8BC
:100A900003C00CF00F0591F803C01CF0100F03D039
:100AA00091F802C04CEA050591F800C0BCF1000FB6
:100AB00031D0146800202BE04FF0010C0CFA00F349
:100AC000B1F800C00CEA03069E4220D183004FF02B
:100AD0000F0C0CFA03F7BC4305FA03FC4CEA0404C0
:100AE00091F803C0BCF1280F06D14FF0010C0CFAAD
:100AF00000FCC2F814C00AE091F803C0BCF1480F32
:100B000005D14FF0010C0CFA00FCC2F810C0401CDB
:100B10000828D1D31460B1F800C0BCF1FF0F34DD58
:100B2000546800202EE000F1080C4FF0010808FA8C
:100B30000CF3B1F800C00CEA03069E4221D18300F9
:100B40004FF00F0C0CFA03F7BC4305FA03FC4CEA18
:100B5000040491F803C0BCF1280F05D100F1080C82
:100B600008FA0CF8C2F8148091F803C0BCF1480FE1
:100B700007D100F1080C4FF0010808FA0CF8C2F890
:100B80001080401C0828CED35460BDE8F0814FF699
:100B9000FF710180022181700421C17070470246FB
:100BA000002093680B4201D0012000E00020704734
:100BB0000146886880B2704702460020D3680B4225
:100BC00001D0012000E0002070470146C86880B2D3
:100BD000704701617047416170470AB1016100E0EF
:100BE00041617047C16070474FF480320A438261AF
:100BF0008161826182698269704702460020424BAE
:100C000018684FF68073184040EA021008433E4BC4
:100C1000186070473D49C8617047F0B50A46002327
:100C200000240021002500F00046B6F1004F02D15B
:100C3000354EF16901E0344E7168C0F3034583B26B
:100C400000F44016B6F5401F08D121F070612E4E19
:100C5000766826F070662C4F7E6012E000F48016F5
:100C6000B6F5801F06D1032606FA05F4A14341F02C
:100C7000706106E0460D360103FA06F6B14341F015
:100C8000706122B1460D360103FA06F6314300F0D9
:100C90000046B6F1004F02D11B4EF16101E01A4E41
:100CA0007160F0BD30B500228B071C0F0F2303FAD3
:100CB00004F2154B08338C1053F824309343124C34
:100CC00008348D1044F8253023468C1053F8243016
:100CD0008C07240F00FA04F423430B4C08348D10C6
:100CE00044F8253030BD0A490860704700080140CB
:100CF000000C0140001001400014014000180140A8
:100D0000001C014000200140000001400000204282
:100D1000DC002042DD48006840F00100DB4908604B
:100D200008464068DA490840D849486008460068E3
:100D3000D8490840D54908600846006820F480205A
:100D400008600846406820F4FE0048604FF41F0029
:100D500088607047CD49096821F48031CB4A116021
:100D60001146096821F480211160B0F5803F03D05D
:100D7000B0F5802F0ED106E0C449096841F48031F6
:100D8000C24A116007E0C149096841F4A021BF4A85
:100D9000116000E000BF00BF704710B5014600229F
:100DA000002300204A11012A02D1B84C236806E032
:100DB000022A02D1B54C236A01E0B44C636A01F007
:100DC0001F02012494401C4201D0012000E00020B9
:100DD00010BD38B5002000900024002500BF312050
:100DE000FFF7DBFF05460098401C00900098B0F527
:100DF000A06F01D0002DF2D03120FFF7CEFF08B157
:100E0000012400E00024204638BD014600209F4A0E
:100E1000106820F0F80040EAC100106070479E4959
:100E20000860704702460020984B586820F47C10F8
:100E300042EA01031843954B58607047964908668B
:100E4000704701460020914A506820F00300084393
:100E5000506070478D48406800F00C0070470146B4
:100E600000208A4A506820F0F00008435060704724
:100E700001460020854A506820F4E0600843506035
:100E8000704701460020814A506820F4605040EAD3
:100E9000C1005060704729B17C4A527A02437B4BB3
:100EA0005A7204E0794A527A8243784B5A727047F8
:100EB0007A490860704701460020744A506820F45F
:100EC00040400843506070470021754A11706F4AD6
:100ED00082F82010012802D0042808D103E0012163
:100EE0006F4A117004E005216D4A117000E000BFE7
:100EF00000BF70476B49086070476449096A014345
:100F0000624A11627047674944390860704730B5DA
:100F100000210022002400235C4D6D6805F00C01C7
:100F200021B1042905D0082923D105E05E4D0560D3
:100F300022E05D4D05601FE0544D6D6805F47012B0
:100F4000524D6D6805F48034022505EB92421CB9C0
:100F5000564D554305600BE04C4D6D6815F4003F50
:100F600003D0524D5543056002E04F4D5543056097
:100F700002E04D4D056000BF00BF444D6D6805F0B7
:100F8000F00109094A4D6B5C0568DD4045603F4D45
:100F90006D6805F4E061090A454D6B5C4568DD400C
:100FA00085603A4D6D6805F46051C90A404D6B5C2F
:100FB0004568DD40C560354D6D6805F44041890BDD
:100FC0003C4D6B5CC568B5FBF3F5056130BD29B1DF
:100FD0002E4A526902432D4B5A6104E02B4A526952
:100FE00082432A4B5A61704729B1284A92690243C9
:100FF000264B9A6104E0254A92698243234B9A6109
:10100000704729B1214AD2690243204BDA6104E0DA
:101010001E4AD26982431D4BDA61704729B11B4ACF
:10102000D2680243194BDA6004E0184AD26882435E
:10103000164BDA60704729B1144A12690243134B08
:101040001A6104E0114A12698243104B1A61704719
:1010500014494039086070470F49C86470470B490C
:10106000C87170470948406A40F08070074948627B
:10107000704701460020054A92680A4201D00120CB
:1010800000E000207047014988727047001002405C
:101090000000FFF8FFFFF6FE00004242D800424287
:1010A000201002408004424200127A0000093D00F4
:1010B000200000203000002010B50446FB48844288
:1010C00009D101218803FFF7A9FF00214FF48040D7
:1010D000FFF7A4FF32E0F648844209D10121480419
:1010E000FFF7A9FF00214FF40030FFF7A4FF25E030
:1010F000F048844209D101218804FFF79CFF0021B8
:101100004FF48020FFF797FF18E0EB48844209D1A5
:101110000121C804FFF78FFF00214FF40020FFF7E3
:101120008AFF0BE0E548844208D101210805FFF75A
:1011300082FF00214FF48010FFF77DFF10BD2DE9E5
:10114000F04786B005460E460024A24600BFA146E1
:101150000027B08900B100BF2F462C8A4CF6FF70E3
:101160000440F08804432C82AC894EF6F31004400E
:10117000B08831890843718908430443AC81AC8A43
:101180004FF6FF400440B0890443AC8201A8FFF74A
:10119000BEFEC648874202D1DDF810A001E0DDF8AE
:1011A0000CA0A88910F4004F08D00AEBCA0000EB8D
:1011B0000A1031684900B0FBF1F807E00AEBCA00F9
:1011C00000EB0A1031688900B0FBF1F86420B8FB2D
:1011D000F0F004012009642101FB1089A88910F4B2
:1011E000004F08D0322000EBC900B0FBF1F000F056
:1011F0000700044308E0322000EB09106421B0FB33
:10120000F1F000F00F0004432C8106B0BDE8F08738
:101210004FF41651016000218180C18001810C21B1
:10122000418100218181704710B502460020108A5B
:101230004FF2FF0318400B884C8823438C882343CC
:10124000CC8823431843108210BD002101804180C7
:101250008180C180704721B1828942F4005282812D
:1012600004E082894DF6FF731A4082817047F0B521
:1012700003460024002600250020A1F510676A3FE0
:1012800000D100BF1846C1F3421401F01F06012728
:1012900007FA06F5012C01D10C3004E0022C01D133
:1012A000103000E014301AB107682F43076002E0E5
:1012B0000768AF430760F0BD1AB1838A0B4383828E
:1012C00002E0838A8B4383827047028A4FF6F07371
:1012D0001A400282028A0A430282704782894FF2D0
:1012E000FF731A40828182890A438281704721B14B
:1012F000828942F00202828104E082894FF6FD7306
:101300001A4082817047028A4FF6DF731A400282C8
:10131000028A0A430282704721B1028A42F4804263
:10132000028204E0028A4BF6FF731A400282704781
:10133000C1F308028280704701468888C0F3080024
:101340007047818941F0010181817047028BD2B2DF
:101350000283028B42EA012202837047028B02F46D
:101360007F420283028B0A430283704721B1828A43
:1013700042F02002828204E0828A4FF6DF731A4034
:101380008282704721B1828A42F01002828204E098
:10139000828A4FF6EF731A408282704721B1828AA7
:1013A00042F00802828204E0828A4FF6F7731A4004
:1013B0008282704721B1828942F40042828103E037
:1013C0008289C2F30E028281704721B1828A42F47F
:1013D0000062828204E0828A4FF2FF731A408282A6
:1013E0007047828A4FF6FB731A408282828A0A43D0
:1013F0008282704721B1828A42F00202828204E036
:10140000828A4FF6FD731A4082827047024600209E
:10141000B1F5007F00D100BF13880B4201D001203D
:1014200000E00020704701F40072B2F5007F00D1A7
:1014300000BFCA430280704770B5024600240023F3
:1014400000250020A1F510666A3E00D100BFC1F35F
:10145000421501F01F03012606FA03F3012D02D104
:101460009689334006E0022D02D1168A334001E00E
:10147000968A33400C12012606FA04F4168834408A
:1014800013B10CB1012000E0002070BD10B50022A6
:101490000023A1F510646A3C00D100BF0A120124A8
:1014A0009440A3B2DC43048010BD0000003801402A
:1014B0000044004000480040004C00400050004004
:1014C00006E042F6E06100BF0A00A1F10101FBD194
:1014D0000200A0F10100F4D1704710B54FF4804133
:1014E0007448FFF778FB0A20FFF7EAFF4FF48041CA
:1014F0007048FFF76EFB0A20FFF7E2FF10BD10B542
:1015000000BF712000F04CF94FF400516948FFF71B
:1015100046FB044604F0010080F00104002CF0D1E9
:10152000C820FFF7CDFF10BD2DE9F04707468846DC
:1015300013264FF09809102000F032F900250AE038
:10154000002405E005FB0641785C00F041F9641CCD
:10155000B442F7D36D1C4D45F2D3132000F020F9AF
:1015600000250BE0002406E005FB064118F8010009
:1015700000F02EF9641CB442F6D36D1C4D45F1D336
:10158000122000F00DF90120FFF79AFFFFF7B7FFD7
:10159000BDE8F08710B5FFF7A0FF062000F000F9C6
:1015A000172000F015F9172000F012F9172000F0AD
:1015B0000FF9042000F0F4F8FFF7A1FF002000F07D
:1015C000EFF80F2000F004F90D2000F001F9612080
:1015D00000F0E6F8982000F0FBF8002000F0F8F8A2
:1015E000982000F0F5F8502000F0DAF8772000F0AD
:1015F000EFF810BD10B5502000F0D2F8F72000F041
:10160000E7F8022000F0CCF8FFF779FF072000F0A0
:10161000C7F8A52000F0DCF810BD70B505460E46F1
:10162000102000F0BDF8002404E0287800F0D0F885
:101630006D1C641C40F648308442F6D3132000F041
:10164000AFF8002404E0307800F0C2F8761C641C87
:1016500040F648308442F6D3122000F0A1F8012071
:10166000FFF72EFFFFF74BFF70BD10B5102000F005
:1016700097F8002403E0FF2000F0AAF8641C40F66D
:1016800048308442F7D3132000F08AF8002403E0A6
:10169000FF2000F09DF8641C40F648308442F7D3E8
:1016A000122000F07DF80120FFF70AFFFFF727FF67
:1016B00010BD00000018014008B501216020FFF7AF
:1016C00093FC4FF4E060ADF8000010208DF80300AB
:1016D00002208DF8020069464948FFF7CFF94FF420
:1016E0004040ADF8000010208DF8030002208DF876
:1016F000020069464348FFF7C1F94FF40050ADF8C6
:10170000000048208DF8030002208DF80200694691
:101710003C48FFF7B3F94FF48050ADF800001020BB
:101720008DF8030002208DF8020069463548FFF766
:10173000A5F908BD00BF0100A0F10102D0B2FAD1A5
:10174000704770B504460120FFF7F4FF002524E040
:101750004FF400712A48FFF73EFA0120FFF7EAFF35
:1017600014F0800F05D04FF480612548FFF731FA5F
:1017700004E04FF480612248FFF72DFA6006040E62
:101780000120FFF7D7FF4FF400711D48FFF721FA42
:101790000120FFF7CFFF681CC5B2082DD8DB70BD54
:1017A00010B504460120FFF7C5FF4FF480711448BF
:1017B000FFF711FA4FF400411248FFF70CFA2046E8
:1017C000FFF7BFFF4FF480710D48FFF702FA10BD1D
:1017D00010B504460120FFF7ADFF4FF480710848B3
:1017E000FFF7F9F94FF400410648FFF7F2F92046F8
:1017F000FFF7A7FF4FF480710148FFF7EAF910BD2A
:1018000000140140001801402DE9F0410646069FF2
:101810000020F94C206020460660018142818781CA
:101820000C464FEAE17C01EB5C7C4FEAEC0CB1EB3F
:10183000CC0C07D10D464FEAE57C05EB5C7C4FEA0A
:10184000EC0C08E008464FEAE17C01EB5C7C4FEAD7
:10185000EC0C0CF1010CDFF8A083A8F812C0404694
:101860008282C3810020444620820BB1B42B03D175
:10187000E1488180C28002E0DF488280C180BDE80B
:10188000F081DD490860704730B15A2804D0B4288F
:1018900002D0B0F5877F01D1D749C881704728B100
:1018A000012803D0022801D0032801D1D24908829F
:1018B00070472DE9F04103460C461746CE4EB688D8
:1018C0009E4203DBCC4EF688A64201DABDE8F081E9
:1018D000C94EF6893EB15A2E08D0B42E0DD0B6F5B9
:1018E000877F1CD114E01846214619E0C24E368984
:1018F000361B761EB0B2194612E0BF4E3689F61A74
:10190000761EB0B2BC4E7689361B761EB1B207E0A9
:101910002046B94E7689F61A761EB1B200E0D5E7B8
:1019200000BFB54E368A36B1012E05D0022E09D041
:10193000032E18D10CE017E0AF4E3689361A761E0A
:10194000B0B211E0AC4E7689761A761EB1B20BE0D9
:10195000A94E3689361A761EB0B2A74E7689761A07
:10196000761EB1B200E0B1E700BFA34E36898642D1
:1019700003DBA14E76898E4200DAA7E706464FEADE
:10198000E07C00EB5C7C4FEAEC0CDFF86C82B8F892
:10199000128001FB08C2984E3668B55CAFB90646A6
:1019A0004FEAE07C00EB5C7C4FEAEC0CA0EBCC084F
:1019B0004FF0800C4CFA08FC25EA0C0CDFF838825A
:1019C000D8F8008008F802C014E006464FEAE07C30
:1019D00000EB5C7C4FEAEC0CA0EBCC084FF0800CE9
:1019E0004CFA08FC4CEA050CDFF80C82D8F80080B1
:1019F00008F802C000BF69E730B50246002110E0D8
:101A0000002008E07C4C648A01FB04037A4D2D68B9
:101A1000EA54441CA0B2784C648A8442F2DC4C1C28
:101A2000A1B2754CA48A8C42EADC30BD2DE9F047A6
:101A300006460F4690469946DDF820A03D460CE04C
:101A4000344606E0524629462046FFF732FF601C26
:101A500084B24445F6DB681C85B24D45F0DBBDE839
:101A6000F0872DE9F0470746884691461C46DDF889
:101A700020A061488088B84203DB5F48C0884045A9
:101A800001DABDE8F087BAF1010F24D100251DE08D
:101A9000002614E007EB0500001B03D408EB06004A
:101AA000001B00D50FE008EB0602121B91B27A1959
:101AB000121B90B24A46FFF7FCFE701C06B2600093
:101AC000401EB042E6DC00BF681C05B26000401E4C
:101AD000A842DDDC15E0002511E000260BE008EB54
:101AE0000602521E91B27A19521E90B24A46FFF770
:101AF000E0FE701C06B2A642F1DB681C05B2A542EE
:101B0000EBDB00BFBDE72DE9F04F85B004460D4685
:101B100016461F4638488088A0420BDB3648C088EE
:101B2000A84207DB34488088B04203DB3248C088D3
:101B3000B84202DA05B0BDE8F08FA046AA46301BD5
:101B400001D4301B00E0A01B8346781B002801DC79
:101B5000781B00E0E81B0490B44201DA012001E0A8
:101B60004FF0FF300390BD4201DA012001E04FF059
:101B7000FF30029004980BEB00090020019000BF99
:101B80000198401CC0B201900F98012811D1032187
:101B9000019890FBF1F201FB120050B90120009076
:101BA000FF2251464046109BFFF75BFF002001904B
:101BB00007E00120009051464046109B0E9AFFF727
:101BC00050FF4FEA49010498814208DBB04500D13B
:101BD00014E004988144039840441FFA80F84FEAC7
:101BE00049005845CCDCBA4500D107E0D9440298F9
:101BF00050441FFA80FAC3E7B417002000BF00BFAB
:101C000098E72DE9FE4F81460F4692469846DDE95A
:101C10000DB50C9CFE48808848450BDBFC48C0880D
:101C2000B84207DBFA488088504503DBF848C08893
:101C3000404501DABDE8FE8FBBF1000F10D03E46F3
:101C40000BE00020334652463146CDE901050094B1
:101C50004846FFF758FF701C86B24645F1DB27E087
:101C600000203B4652463946CDE9010500944846DE
:101C7000FFF749FF002043464A463946CDE90105B2
:101C800000944846FFF73FFF00203B46524641463E
:101C9000CDE9010500945046FFF735FF002043468B
:101CA0004A464146CDE9010500945046FFF72BFF17
:101CB00000BFBFE72DE9F84F05460E4692469B460A
:101CC000D3488088A84203DBD148C088B04201DCF9
:101CD000BDE8F88F00240FFA8AF70320A0EB4A0032
:101CE0000FFA80F90A98012877D172E0A0465BE0EC
:101CF000012006EB080291B22A19009090B201234C
:101D00005A46FFF7AEFE012006EB080291B22A1BED
:101D1000009090B201235A46FFF7A3FE012032192A
:101D200091B2A5EB0802009090B201235A46FFF74A
:101D300098FE0120321B91B2A5EB0802009090B2F0
:101D400001235A46FFF78DFE0120A6EB080291B24F
:101D50002A1B009090B201235A46FFF782FE012011
:101D6000A6EB080291B22A19009090B201235A46BC
:101D7000FFF777FE0120321B91B205EB08020090BD
:101D800090B201235A46FFF76CFE0120321991B23E
:101D900005EB0802009090B201235A46FFF761FE5E
:101DA00008F101000FFA80F8B845A1DDB9F1000F84
:101DB00005DAA000801D48440FFA80F907E0E01B17
:101DC00080000A3048440FFA80F9781E07B2601C80
:101DD00004B2BC428ADD66E0FFE762E00120F2194E
:101DE00091B22A19009090B25A460B9BFFF739FE28
:101DF0000120F21991B22A1B009090B25A460B9B17
:101E0000FFF72FFE0120321991B2EA1B009090B229
:101E10005A460B9BFFF725FE0120321B91B2EA1BAD
:101E2000009090B25A460B9BFFF71BFE0120F21B5D
:101E300091B22A1B009090B25A460B9BFFF711FEFD
:101E40000120F21B91B22A19009090B25A460B9BC6
:101E5000FFF707FE0120321B91B2EA19009090B201
:101E60005A460B9BFFF7FDFD0120321991B2EA198A
:101E7000009090B25A460B9BFFF7F3FDB9F1000FAB
:101E800005DAA000801D48440FFA80F907E0E01B46
:101E900080000A3048440FFA80F9781E07B2601CAF
:101EA00004B2BC429ADD00BF12E72DE9F04F0746AD
:101EB000884692461D4656488088B84203DB5448FF
:101EC000C088404501DABDE8F08FA988CA1701EB48
:101ED0005272D2100846CB1701EB5373DB10B1EBF3
:101EE000C30301D0012300E000231344AAF1200220
:101EF000B5F806C002FB0CF203FB02FB286800EBFE
:101F00000B09002651E0002440E00998FF2814D175
:101F1000E11704EB5171C910A4EBC10280211141FA
:101F200099F80020114225D008EB060291B23A1927
:101F300090B20A9AFFF7BDFC1CE0E11704EB517167
:101F4000C910A4EBC1028021114199F8002011426F
:101F500008D008EB060291B23A1990B20A9AFFF73C
:101F6000A8FC07E008EB060291B23A1990B2099A70
:101F7000FFF79FFCE11704EB5171C910A4EBC101FD
:101F8000072901D109F10109601C84B2A888A04287
:101F9000BBDCA888C11700EB5171C910B0EBC101BF
:101FA00001D009F10109701C86B2E888B042AADCB0
:101FB00000BF88E72DE9FC4F04460E4617461D4634
:101FC000DDE90BABA046B14611488088A04203DB97
:101FD0000F48C088B04201DABDE8FC8F22E0A88833
:101FE00040440B498988884204DDA046E88848447B
:101FF0001FFA80F9E88848440549C988884201DD0C
:10200000A046B146CDE900AB3A782B46494601E0FF
:10201000B41700204046FFF748FF7F1CA8884044C3
:102020001FFA80F838780028D9D100BFD4E72DE90D
:10203000FF4F1D46DDF80890DDF80080DDF804A0B4
:10204000F7E099F800007F2875DC002769E053204D
:102050007843296811F8100099F8001088425FD180
:1020600053207843296801EB400000F1020B002661
:1020700052E0002442E00D98FF2815D1E11704EB4F
:102080005171C910A4EBC102802111419BF80020BD
:10209000114228D00AEB060291B208EB040290B27A
:1020A0000E9AFFF706FC1EE0E11704EB5171C91010
:1020B000A4EBC102802111419BF80020114209D0FC
:1020C0000AEB060291B208EB040290B20E9AFFF7F7
:1020D000F0FB08E00AEB060291B208EB040290B2B2
:1020E0000D9AFFF7E6FBE11704EB5171C910A4EB61
:1020F000C101072901D10BF1010B641C2889A04201
:10210000B9DC2889C11700EB5171C910B0EBC101CE
:1021100001D00BF1010B761C6889B042A9DC03E009
:102120007F1CA888B84292DC00BF09F10109E88849
:1021300080447EE0FFE7002773E05320784329685E
:1021400011F8100099F80010884269D153207843A3
:10215000296801EB4000407899F8011088425FD16E
:1021600053207843296801EB400000F1020B002660
:1021700052E0002442E00D98FF2815D1E11704EB4E
:102180005171C910A4EBC102802111419BF80020BC
:10219000114228D00AEB060291B208EB040290B279
:1021A0000E9AFFF786FB1EE0E11704EB5171C91090
:1021B000A4EBC102802111419BF80020114209D0FB
:1021C0000AEB060291B208EB040290B20E9AFFF7F6
:1021D00070FB08E00AEB060291B208EB040290B231
:1021E0000D9AFFF766FBE11704EB5171C910A4EBE0
:1021F000C101072901D10BF1010B641C2889A04200
:10220000B9DC2889C11700EB5171C910B0EBC101CD
:1022100001D00BF1010B761C6889B042A9DC03E008
:102220007F1CA888B84288DC00BF09F10209288910
:10223000804499F8000000287FF403AFBDE8FF8FC9
:102240002DE9F04FADF5037D06460F46154699463C
:10225000DDF834B2DDF830A20024A0464FF48071DE
:1022600043A800F016F94FF4807103A800F011F9AB
:1022700043A8029082488088B04203DB8048C0882F
:10228000B84203DA0DF5037DBDE8F08F0CE00A20BB
:1022900095FBF0F100FB1150303003A90855601C8C
:1022A00004B20A2095FBF0F5002DF0D10BE0601E82
:1022B00003A9085C43A901F8080008F101000FFA1E
:1022C00080F8601E04B2002CF1DC4B46CDE900AB77
:1022D00039463046029AFFF76DFE00BFD2E72DE97E
:1022E000FF4F85B0054690469A46DDE9126765A224
:1022F00007CA02AB07C3BAF8044098F804000A21E1
:1023000090FBF1F002A911F8009053464A46CDE93E
:10231000006728460699FFF7C8FD98F804000A21CF
:1023200090FBF1F201FB120002A911F800902919AB
:1023300088B253464A46CDE900670699FFF7B5FDD6
:10234000A146E11704EB91712A1902EBA101A34602
:1023500004EBDB7201EB620188B253463A22CDE90D
:1023600000670699FFF7A1FD98F805000A2190FB88
:10237000F1F002A911F800B004EBD97105EB4402A9
:1023800002EB610188B253465A46CDE900670699CF
:10239000FFF78BFD98F805000A2190FBF1F201FB95
:1023A000120002A911F800B004EBD97104EB440249
:1023B0002A4402EB610188B253465A46CDE90067D0
:1023C0000699FFF772FD04EBD97105EB840202EB6D
:1023D0006101A346E21704EB9272A1EBA20188B25D
:1023E00053463A22CDE900670699FFF75EFD98F85B
:1023F00006000A2190FBF1F002A911F8009004EB0D
:102400008401294488B253464A46CDE900670699BB
:10241000FFF74BFD98F806000A2190FBF1F201FB53
:10242000120002A911F8009004EB440105EB4101F0
:1024300088B253464A46CDE900670699FFF735FD55
:1024400009B0BDE8F08F30B502460023002111E04D
:10245000002009E00A4C648A01FB0403D45C084DA7
:102460002D68EC54441CA0B2054C648A8442F1DC13
:102470004C1CA1B2024CA48A8C42E9DC30BD0000A5
:10248000B417002030313233343536373839000054
:1024900070474FF0000200B5134694469646203927
:1024A00022BFA0E80C50A0E80C50B1F12001BFF40D
:1024B000F7AF090728BFA0E80C5048BF0CC05DF873
:1024C00004EB890028BF40F8042B08BF704748BFC1
:1024D00020F8022B11F0804F18BF00F8012B704735
:1024E0007047704770477047754600F029F8AE4650
:1024F00005006946534620F00700854618B020B510
:10250000FEF7DCF9BDE820404FF000064FF0000771
:102510004FF000084FF0000B21F00701AC46ACE88B
:10252000C009ACE8C009ACE8C009ACE8C0098D46F8
:1025300070470446AFF300802046FDF740FE0000E0
:1025400000487047CC170020FFFFFFFFFCFFFFFF94
:10255000FFFFFFFFFFFFFFFFFFFFFFFFFFFFFFFC8E
:10256000FFFFFFFFFFFFFFFFFFFFFFFFFFFFFFFF7B
:10257000FFFFFCFFFFFFFFFFFFFFFFFFFFFFFFFF6E
:10258000FFFFFFFFFFFCFFFFFFFFFFFFFFFFFFFF5E
:10259000FFFFFFFFFFFFFFFFFCFFFFFFFFFFFFFF4E
:1025A000FFFFFFFFFFFFFFFFFFF83FFCFFFFFFFF05
:1025B000FFFFFFFFFFFFFFFFFFFFFFFFC7C7FCFF9E
:1025C000FFFFFFFFFFFFFFFFFFFFFFFFFFFFFFBC5E
:1025D0007BFCFFFFFFFFFFFFFFFFFFFFFFFFFFFF92
:1025E000FFFF67CDFCFFFFFFFFFFFFFFFFF00000D5
:1025F000007FFFFFFF5C75FCFFFFFFFFFFFFFFFF9A
:10260000F00000007FFFFFFEF7DEFCFFFFFFFFFF93
:10261000FFFFFFF1FFFFF87FFFFFFEBFEAFCFFFFB8
:10262000FFFFFFFFFFFFF1FFFFE27FFFFFFDEFEF87
:102630007CFFFFFFFFFFFFFFFFF0FFFFC67FFFFFF5
:10264000FFFEFFFCFFFFFFFFFFFFFFFFF27FFF8E9C
:102650007FFFFFFFFC7FFCFFFFFFFFFFFFFFFFF29D
:102660007FFF3E7FFFFFF800003CFFFFFFFFFFFF03
:10267000FFFFF33FFE7E7FFFFFFDFFFF7CFFFFFFBD
:10268000FFFFFFFFFFF39FF8FE7FFFFFFCFFFE7CD5
:10269000FFFFFFFFFFFFFFFFF39FF1FE7FFFFFFE46
:1026A0007FFCFCFFFFFFFFFFFFFFFFF3CFE3FE7F99
:1026B000FFFFFF3FF9FCFFFFFFFFFFFFFFFFF3E717
:1026C000CFFE7FFFFFFFCFE7FCFFFFFFFFFFFFFF16
:1026D000FFF3E71FFE7FFFFFFFF7DFFCFFFFFFFFBA
:1026E000FFFFFFFFF3F23FFE7FFFFFFFF7DFFCFF7F
:1026F000FFFFFFFFFFFFFFF3F07FFE7FFFFFFFF70E
:10270000DFFCFFFFFFFFFFFFFFFFF3F9FFFE7FFF8F
:10271000FFFFF01FFCFFFFFFFFFFFFFFFFF3FCFFCA
:10272000FE7FFFFFFFF7DFFCFFFFFFFFFFFFFFFF65
:10273000F3FCFFFE7FFFFFFFF7DFFCFFFFFFFFFF64
:10274000FFFFFFF3FE7FFE7FFFFFFFF01FFCFFFF99
:10275000FFFFFFFFFFFFF3FF3FFE7FFFFFFFFFFFD6
:10276000FCFFFFFFFFFFFFFFFFF3FF3FFE7FFFFFC9
:10277000FFFFFFFCFFFFFFFFFFFFFFFFF3FF9FFED9
:102780007FFFFFFFFFFFFCFFFFFFFFFFFFFFFFF3E8
:10279000FFCFFE7FFFFFFFFFFFFCFFFFFFFFFFFFFD
:1027A000FFFFF3FF9FFE7FFFFFFFFFFFFCFFFFFF29
:1027B000FFFFFFFFFFF3FF3FFE7FFFFFFFFFFFFC79
:1027C000FFFFFFFFFFFF04FFF3FF3FFE7FFFFFFF61
:1027D000FFFFFCFFFFFFFFFFFE72FFF3FE7FFE7FA8
:1027E000FFFFFFFFFFFCFFFFFFFFFFFEF37FF3FC98
:1027F000FFFE7FFFFFFFFFFFFCFFFFFFFFFFFE95D8
:102800007FF3FCFFFE7FFFFFFFFFFFFCFFFFFFFFEB
:10281000FFFE917FF3F9FFFE7FFFFFFFFFFFFCFF4D
:10282000FFFFFFFFFEFF7FF3F07FFE7FFFFFFFFF55
:10283000FFFCFFFFFFFFFFFF7E7FF3F23FFE7FFF06
:10284000FFFFFFFFFCFFFFFFFFFFFE00FFF3E71F9F
:10285000FE7FFFFFFFFFFFFCFFFFFFFFFFF8817F11
:10286000F3E78FFE7FFFFFFFFFFFFCFFFFFFFFFF90
:10287000FBFF7FF3CFE7FE7FFFFFFFFFFFFCFFFFC4
:10288000FFFFFFFBFF7FF39FF1FE7FFFFFFFFFFFD7
:10289000FCFFFFFFFFFFF880FFF39FF8FE7FFFFFC5
:1028A000FFFFFFFCFFFFFFFFFFFC007FF33FFC7E0D
:1028B0007FFFFFFFFFFFFCFFFFFFFFFFFAFF7FF23D
:1028C0007FFF3E7FFFFFFFFFFFFCFFFFFFFFFFFAE1
:1028D000FF7FF27FFF8E7FFFFFFFFFFFFCFFFFFF09
:1028E000FFFFF800FFF0FFFFC67FFFFFFFFFFFFCC9
:1028F000FFFFFFFFFFFF807FF0FFFFE27FFFFFFF93
:10290000FFFFFCFFFFFFFFFFFF7F7FF1FFFFF87F6F
:10291000FFFFFFFFFFFCFFFFFFFFFFFEFF7FF00059
:1029200000007FFFFFFFFFFFFCFFFFFFFFFFFE80B8
:102930007FF00000007FFFFFFFFFFFFCFFFFFFFFB6
:10294000FFF8C07FFFFFFFFFFFFFFFFFFFFFFCFF60
:10295000FFFFFFFFFBFF7FFFFFFFFFFFFFFFFFFF0B
:10296000FFFCFFFFFFFFFFFBFF7FFFFFFFFFFFFFFE
:10297000FFFFFFFFFCFFFFFFFFFFF8007FFFFFFFF0
:10298000FFFFFFFFFFFFFFFCFFFFFFFFFFFB07FF56
:10299000FFFFFFFFFFFFFFFFFFFFFCFFFFFFFFFF4A
:1029A000FBF87FFFFFFFFFFFFFFFFFFFFFFCFFFFC5
:1029B000FFFFFFF8FF7FFFFFFFFFFFFFFFFFFFFFAE
:1029C000FCFFFFFFFFFFFE1F7FFFFFFFFFFFFFFF7B
:1029D000FFFFFFFCFFFFFFFFFFF9FC7FFFFFFFFF93
:1029E000FFFFFFFFFFFFFCFFFFFFFFFFFBE3FFFF1A
:1029F000FFFFFFFFFFFFFFFFFFFCFFFFFFFFFFFBEE
:102A0000E1FFFFFFFFFFFFFFFFFFFFFFFCFFFFFFF7
:102A1000FFFFF9FC7FFFFFFFFFFFFFFFFFFFFFFC52
:102A2000FFFFFFFFFFFE1F7FFFFFFFFFFFFFFFFF17
:102A3000FFFFFCFFFFFFFFFFF87F7FFFFFFFFFFFB0
:102A4000FFFFFFFFFFFCFFFFFFFFFFFBFCFFFFFFA0
:102A5000FFFFFFFFFFFFFFFFFCFFFFFFFFFFFB810B
:102A6000FFFFFFFFFFFFFFFFFFFFFFFCFFFFFFFF79
:102A7000FFF87FFFFFFFFFFFFFFFFFFFFFFFFCFFF0
:102A8000FFFFFFFFFFFFFFFFFFFF3FFFFFFFFFFF16
:102A9000FFFCFFFFFFFFFFFFFFFFFFFFFF0FFFFF39
:102AA000FFFFFFFFFCFFFFFFFFFFFFFFFFFFFFFF39
:102AB000C1FFFFFFFFFFFFFCFFFFFFFC1FFFFFFF4A
:102AC000FFFFFFC0FFFFFFFFFFFFFCFFFFFFF81F3F
:102AD000FFFFFFFFFFFF0EFFFFFFFFFFFFFCFFFFFA
:102AE000FFFBFFFFFFFFFFFFFF3FFFFFFFFFFFFFBA
:102AF000FCFFFFFFF9FFFFFFFFFFFFFFFFFFFFFFEF
:102B0000FFFFFFFCFFFFFFE01FFFFFFFFFFFFF8353
:102B1000FFFFFFFFFFFFFCFFFFFFE01FFFFFFFFFC7
:102B2000FFFF03FFFFFFFFFFFFFCFFFFFFFFFFFFB4
:102B3000FFFFFFFFFF53FFFFFFFFFFFFFCFFFFFF54
:102B4000FDBFFFFFFFFFFFFF5BFFFFFFFFFFFFFC7E
:102B5000FFFFFFF99FFFFFFFFFFFFF03FFFFFFFFE7
:102B6000FFFFFCFFFFFFFBDFFFFFFFFFFFFFA7FFF4
:102B7000FFFFFFFFFFFCFFFFFFFBDFFFFFFFFFFF8C
:102B8000FFFFFFFFFFFFFFFFFCFFFFFFF81FFFFF3F
:102B9000FFFFFFFC03FFFFFFFFFFFFFCFFFFFFFC4A
:102BA0003FFFFFFFFFFFFC03FFFFFFFFFFFFFCFFF7
:102BB000FFFFFFFFFFFFFFFFFFFFFFFFFFFFFFFF25
:102BC000FFFCFFFFFFFC1FFFFFFFFFFFFF87FFFF73
:102BD000FFFFFFFFFCFFFFFFF81FFFFFFFFFFFFFEF
:102BE00003FFFFFFFFFFFFFCFFFFFFFBFFFFFFFFF8
:102BF000FFFFFF7BFFFFFFFFFFFFFCFFFFFFFBFF70
:102C0000FFFFFFFFFFFF33FFFFFFFFFFFFFCFFFFA3
:102C1000FFF81FFFFFFFFFFFFF00FFFFFFFFFFFFAA
:102C2000FCFFFFFFF81FFFFFFFFFFFFF00FFFFFF9D
:102C3000FFFFFFFCFFFFFFFFFFFFFFFFFFFFFFFFA7
:102C4000FFFFFFFFFFFFFCFFFFFFE81FFFFFFFFF8E
:102C5000FFFFB7FFFFFFFFFFFFFCFFFFFFE81FFFC6
:102C6000FFFFFFFFFF23FFFFFFFFFFFFFCFFFFFF53
:102C7000FFFFFFFFFFFFFFFF4BFFFFFFFFFFFFFC1B
:102C8000FFFFFFFFFFFFFFFFFFFFFF5BFFFFFFFFF8
:102C9000FFFFFCFFFFFFFFFFFFFFFFFFFFFF13FF33
:102CA000FFFFFFFFFFFCFFFFFFFFFFFFFFFFFFFF37
:102CB000FFB7FFFFFFFFFFFFFCFFFFFFF8FFFFFF76
:102CC000FFFFFFFFFFFFFFFFFFFFFFFCFFFFFFF81E
:102CD000FFFFFFFFFFFFFD03FFFFFFFFFFFFFCFF05
:102CE000FFC0000FFFFFFFFFFFFD03FFFFFFFFFF20
:102CF000FFFCFFFFC0000FFFFFFFFFFFFFFFFFFF15
:102D0000FFFFFFFFFCFFFFC0000FFFFFFFFFFFFF04
:102D10000FFFFFFFFFFFFFFCFFFFE078FFFFFFFF5C
:102D2000FFFFFE07FFFFFFFFFFFFFCFFFFF038FF85
:102D3000FFFFFFFFFFFCF3FFFFFFFFFFFFFCFFFFB5
:102D4000FC08FFFFFFFFFFFFFDFBFFFFFFFFFFFF93
:102D5000FCFFFFFE00FFFFBEFFFFFFFDFBFFFFFFCD
:102D6000FFFFFFFCFFFFFF80FFFF98FFFFFFFC035B
:102D7000FFFFFFFFFFFFFCFFFFFFE0FFFFC1FFFFC3
:102D8000FFFC03FFFFFFFFFFFFFCFFFFFFF0FFFF64
:102D9000E7FFFFFFFFFFFFFFFFFFFFFFFCFFFFFF5E
:102DA000FFFFFC00FFFFFFFFFFFFFFFFFFFFFFFC38
:102DB000FFFFFFFFFFFC00FFFFFFFFFFFFFFFFFF25
:102DC000FFFFFCFFFFFFC0FFFFFFFFFFFFFFFFFF55
:102DD000FFFFFFFFFFFCFFFFC7803FFFFFFFFFFF7D
:102DE000FFFFFFFFFFFFFFFFFCFFFFC7001FFFDD2F
:102DF000FFFFFFFC03FFFFFFFFFFFFFCFFFFC61FFE
:102E00000FFF9CFFFFFFFC03FFFFFFFFFFFFFCFF27
:102E1000FFC63F8FFFBEFFFFFFFF33FFFFFFFFFF38
:102E2000FFFCFFFFC63F8FFFBEFFFFFFFF7BFFFFE3
:102E3000FFFFFFFFFCFFFFC63F8FFF80FFFFFFFF8D
:102E400003FFFFFFFFFFFFFCFFFFC63F8FFFC1FF38
:102E5000FFFFFF87FFFFFFFFFFFFFCFFFFC01F0F0C
:102E6000FFFFFFFFFFFFFFFFFFFFFFFFFFFCFFFF75
:102E7000C00C1FFFFFFFFFFFFF87FFFFFFFFFFFFEC
:102E8000FCFFFFF00C3FFFC0FFFFFFFF03FFFFFF52
:102E9000FFFFFFFCFFFFFF8C7FFF80FFFFFFFF7B3B
:102EA000FFFFFFFFFFFFFCFFFFFFFFFFFFB4FFFF80
:102EB000FFFF7BFFFFFFFFFFFFFCFFFFFFFFFFFFA9
:102EC000B6FFFFFFFF03FFFFFFFFFFFFFCFFFFFF5A
:102ED000FFFFFF90FFFFFFFF87FFFFFFFFFFFFFCEC
:102EE000FFFFFFFFFFFFD9FFFFFFFFFFFFFFFFFF18
:102EF000FFFFFCFFFFFFFF8FFFFFFFFFFFFF87FFCD
:102F0000FFFFFFFFFFFCFFFFFFFF8FFFFFFFFFFF44
:102F1000FF03FFFFFFFFFFFFFCFFFFFFFF8FFC0032
:102F2000FFFFFFFF7BFFFFFFFFFFFFFCFFFFFFFF38
:102F3000FFFC00FFFFFFFF7BFFFFFFFFFFFFFCFF2A
:102F4000FFFFFFFFFFFFFFFFFFFF03FFFFFFFFFF8D
:102F5000FFFCFFFFFFFFFFFFFFFFFFFFFF87FFFFFC
:102F6000FFFFFFFFFCFFFFFFFFFFFE21FFFFFFFF53
:102F7000FFFFFFFFFFFFFFFCFFFFFFFFFFFC00FF66
:102F8000FFFFFF4FFFFFFFFFFFFFFCFFFFFFFFFF04
:102F9000FDDEFFFFFFFE47FFFFFFFFFFFFFCFFFF20
:102FA000C0000FFDDEFFFFFFFCD3FFFFFFFFFFFFB1
:102FB000FCFFFFC0000FFDDEFFFFFFFDDBFFFFFF9B
:102FC000FFFFFFFCFFFFC0000FFDDEFFFFFFFDFB6B
:102FD000FFFFFFFFFFFFFCFFFFF0FFFFFC00FFFF15
:102FE000FFFCF3FFFFFFFFFFFFFCFFFFF87FFFFC8D
:102FF00000FFFFFFFE07FFFFFFFFFFFFFCFFFFF8E3
:103000007FFFFFFFFFFFFFFF0FFFFFFFFFFFFFFC43
:10301000FFFFFC7FFFFFFFFFFFFFFFFFFFFFFFFF43
:10302000FFFFFCFFFFFFFFFFFFFFFFFFFFFFFFFFB3
:10303000FFFFFFFFFFFCFFFFFFFFFFFFFFFFFFFFA3
:10304000FFFFFFFFFFFFFFFFFCFFFFFFFFFFFFFF93
:10305000FFFFFFFFFFFFFFFFFFFFFFFCFFFFFFFF83
:10306000FFFFFFFFFFFFFFFFFFFFFFFFFFFFFCFF73
:10307000FFFFFFFFFFFFFFFFFFFFFFFFFFFFFFFF60
:10308000FFFCFFFFFFFFFFFFFFFFFFFFFFFFFFFF53
:10309000FFFFFFFFFFFFFFFFFFFFFFFFFFFFFFFF40
:1030A000FFFFFFFFFFFFFFFFFFFFFFFFFFFFFFFF30
:1030B000FFFFFFFFFFFFFFFFFFFFFFFFFFFFFFFF20
:1030C000FFFFFFFFFFFFFFFFFFFFFFFFFFFFFFFF10
:1030D000FFFFFFFFFFFFFFFFFFFFFFFFFFFFFFFF00
:1030E000FFFFFFFFF3FFFFFFFFFFFFFFFFFFFFFFFC
:1030F000FFFFFFFFFFFFFFF3DFFFFFFFFFFFFFFF0C
:10310000FFFFFFFFFFFFFFFFFFFFF01FFFFFFFFFBE
:10311000FFFFFFFFFFFFFFFFFFFFFFFFFFF01FFFAE
:10312000FFFFFFFFFFFFFFFFFFFFFFFFFFFFFFFFAF
:10313000F7DFFFFFFFFFFFFFFFFFFFFFFFFFFFFFC7
:10314000FFFFFFFFFFFFFFFFFFFFFFFFFFFFFFFF8F
:10315000FFFFFFFFFFFFF83FFFFFFFFE000007FF3D
:10316000FFFFFFFFFFFFFFFFFFF01FFFFFFFFE005E
:10317000001DFFFFFFFFFFFFFFFFFFFFF7DFFFFF68
:10318000FFFF000039FFFFFFFFFFFFFFFFFFFFF022
:103190001FFFFFFFFD800071FFFFFFFFFFFFFFFF2D
:1031A000FFFFF83FFFFFFFFD8000C1FFFFFFFFFFB4
:1031B000FFFFFFFFFFFFFFFFFFFFFCC00181FFFFDD
:1031C000FFFFFFFFFFFFFFFFFFDFFFFFFFFC6007C9
:1031D00001FFFFFFFFFFFFFFFFFFFF801FFFFFFF5C
:1031E000FC600E01FFFFFFFFFFFFFFFFFFFF801FDF
:1031F000FFFFFFFC301C01FFFFFFFFFFFFFFFFFF92
:10320000FFBFDFFFFFFFFC183001FFFFFFFFFFFFE5
:10321000FFFFFFFFFFFFFFFFFFFC18E001FFFFFFC5
:10322000FFFFFFFFFFFFFFFFFFFFFFFFFC0DC001E0
:10323000FFFFFFFFFFFFFFFFFFFFF83FFFFFFFFC68
:103240000F8001FFFFFFFFFFFFFFFFFFFFF01FFFEA
:10325000FFFFFC060001FFFFFFFFFFFFFFFFFFFF77
:10326000F7DFFFFFFFFC030001FFFFFFFFFFFFFF92
:10327000FFFFFFF01FFFFFFFFC030001FFFFFFFF49
:10328000FFFFFFFFFFFFF83FFFFFFFFC018001FF93
:10329000FFFFFFFFFFFFFFFFFFFFFFFFFFFFFC0040
:1032A000C001FFFFFFFFFFFFFFFFFFFF9FBFFFFF0B
:1032B000FFFC00C001FFFFFFFFFFFFFFFFFFFF9FBD
:1032C0009FFFFFFFFC006001FFFFFFFFFFFFFFFF0D
:1032D000FFFF9F9FFFFFFFFC003001FFFFFFFFFF8D
:1032E000FFFFFFFFFF801FFFFFFFFC006001FFFFEC
:1032F000FFFFFFFFFFFFFFFFE03FFFFFFFFC00C0FE
:1033000001FFFFFFFFFFFFFFFFFFFFFFFFFFFFFFCB
:10331000FC00C001FFFFFFFFFFFFFFFFFFFFFFFFFC
:10332000FFFFFFFC018001FFFFFFFFFFFFFFFFFF2B
:10333000FFFFFFFFFFFFFC030001FFFFFFFFFFFF99
:10334000FFFFFFFFFFFFFFFFFFFC030001FFFFFF89
:10335000FFFFFFFFFFFFFFFFFFFFFFFFFC06000176
:10336000FFFFFFFFFFFFFFFFFFFFFFFFFFFFFFFC70
:103370000F8001FFFFFFFFFFFFFFFFFFFFFFFFFFCA
:10338000FFFFFC0DC001FFFFFFFFFFFFFFFFFFFF7F
:10339000F9DFFFFFFFFC18E001FFFFFFFFFFFFFF6A
:1033A000FFFFFFF1DFFFFFFFFC187001FFFFFFFFD2
:1033B000FFFFFFFFFFFFF59FFFFFFFFC301801FF3E
:1033C000FFFFFFFFFFFFFFFFFFF01FFFFFFFFC609E
:1033D0000E01FFFFFFFFFFFFFFFFFFFFF83FFFFFB3
:1033E000FFFC600701FFFFFFFFFFFFFFFFFFFFFF85
:1033F000FFFFFFFFFCC00381FFFFFFFFFFFFFFFF99
:10340000FFFFF9DFFFFFFFFD8000C1FFFFFFFFFFB0
:10341000FFFFFFFFFFF1DFFFFFFFFD800071FFFFF8
:10342000FFFFFFFFFFFFFFFFF59FFFFFFFFF000014
:1034300039FFFFFFFFFFFFFFFFFFFFF01FFFFFFF51
:10344000FF00001DFFFFFFFFFFFFFFFFFFFFF83F33
:10345000FFFFFFFE000007FFFFFFFFFFFFFFFFFF73
:10346000FFFFFFFFFFFFFFFFFFFFFFFFFFFFFFFF6C
:10347000FFFFFFFFF3FFFFFFFFFFFFFFFFFFFFFF68
:10348000FFFFFFFFFFFFFFF3DFFFFFFFFFFFFFFF78
:10349000FFFFFFFFFFFFFFFFFFFFF01FFFFFFFFF2B
:1034A000FFFFFFFFFFFFFFFFFFFFFFFFFFF01FFF1B
:1034B000FFFFFFFFFFFFFFFFFFFFFFFFFFFFFFFF1C
:1034C000F7DFFFFFFFFFFFFFFFFFFFFFFFFFFFFF34
:1034D000FFFFFFFFDFFFFFFFFFFFFFFFFFFFFFFF1C
:1034E000FFFFFFFFFFFFF01FFFFFFFFFFFFFFFFFDB
:1034F000FFFFFFFFFFFFFFFFFFF01FFFFFFFFFFFCB
:10350000FFFFFFFFFFFFFFFFFFFFFFFF87FFFFFF43
:10351000FFFFFFFFFFFFFFFFFFFFFFFFFFFFFF803A
:103520001FFFFFFFFFFFFFFFFFFFFFFFFFFFFFFF8B
:10353000FFFFBFDFFFFFFFFFFFFFFFFFFFFFFFFFFB
:10354000FFFFFFFFFFBFFFFFFFFFFFFFFFFFFFFFCB
:10355000FFFFFFFFFFFFFFFFBFDFFFFFFFFFFFFFDB
:10356000FFFFFFFFFFFFFFFFFFFFFF801FFFFFFFCA
:10357000FFFFFFFFFFFFFFFFFFFFFFFFFFFF801FBA
:10358000FFFFFFFFFFFFFFFFFFFFFC0003FFFFFF49
:10359000FF9FDFFFFFFFFFFFFFFFFFFFFFFC0003B9
:1035A000FFFFFFFF9FFFFFFFFFFFFFFFFFFFFFFF8B
:1035B000FC0003FFFFFFFFFFFFFFFFFFFFFFFFFF19
:1035C000FFFFFFFC0003FFFFFFFFFFFFFFFFFFFF09
:1035D000FFFFFFFFFFFFC3FFFC3FFFFFFFFFFFFFFA
:1035E000FFFFFFFFFFFFFFFFFFC3FFFC3FFFFFFFEA
:1035F000FFFFFFFFFFFFFFFFFFFFFFFFC3FFFC3FDA
:10360000FFFFFFFFFFFFFFFFFFFFFFFFFFFFFFC306
:10361000FFFC3FFFFFFFFFFFFFFFFFFFFFFFFFFF7D
:10362000FFFFC3FFFC3FFFFFFFFFFFFFFFFFFFFFA9
:10363000FFFFFFFFFFC3FFFC3FFFFFFFFFFFFFFF99
:10364000FFFFFFFFFFFFFFFFC3FFFC3FFFFFFFFF89
:10365000FFFC00FFFFFFFFFFFFFFFFC3FFFC3FFF7B
:10366000FFFFFFFFFC00FFFFFFFFFFFFFFFFFC006E
:1036700003FFFFFFFFFFFFFF9EFFFFFFFFFFFFFFB7
:10368000FFFC0003FFFFFFFFFFFFFFBEFFFFFFFF89
:10369000FFFFFFFFFC0003FFFFFFFFFFFFFF80FFB7
:1036A000FFFFFFFFFFFFFFFC0003FFFFFFFFFFFF28
:1036B000FFC1FFFFFFFFFFFFFFFFFFFFFFFFFFFF58
:1036C000FFFFFFFFFFFFFFFFFFFFFFFFFFFFFFFF0A
:1036D000FFFFFFFFFFFFFFFFFFFFFFFFFFFFFFFFFA
:1036E000FFFFFFFFFFFFFFFFFFFFC5FFFFFFFFFF24
:1036F000FFFFFFFFFFFFFFFFFFFFFFFFFF84FFFF55
:10370000FFFFFFFFFFFFFC0003FFFFFFFFFFFFFFC7
:10371000B6FFFFFFFFFFFFFFFFFC0003FFFFFFFF00
:10372000FFFFFFB6FFFFFFFFFFFFFFFFFC0003FFF0
:10373000FFFFFFFFFFFF80FFFFFFFFFFFFFFFFFC1B
:103740000003FFFFFFFFFFFFFFC1FFFFFFFFFFFFC2
:10375000FFFFC3FFFC3FFFFFFFFFFFFFFFFFFFFF78
:10376000FFFFFFFFFFC3FFFC3FFFFFFFFFFFFFFF68
:10377000FFE1EFFFFFFFFFFFC3FFFC3FFFFFFFFF86
:10378000FFFE1EFFC0EFFFFFFFFFFFC3FFFC3FFF79
:10379000FFFFFFFFFC08FFDE2FFFFFFFFFFFC3FF60
:1037A000FC3FFFFFFFFFFFFDE1FFDF0FFFFFFFFF1C
:1037B000FFC3FFFC3FFFFFFFFFFFFDE7FFC7CFFF9A
:1037C000FFFFFFFFC3FFFC3FFFFFFFFFFFFDEFFF1A
:1037D000E7EFFFFFFFFFFFC3FFFC3FFFFFFFFFFF20
:1037E000FDEFFFFFFFFFFFFFFFFFFC0003FFFFFFF9
:1037F000FFFFFFFC00FFFFFFFFFFFFFFFFFC0003D9
:10380000FFFFFFFFFFFFFC00FFDC1FFFFFFFFFFFCD
:10381000FC0003FFFFFFFFFFFFFFFFFFD80FFFFFCD
:10382000FFFFFFFC0003FFFFFFFFFFFFFFFFFFDBCA
:10383000EFFFFFFFFFFFFFFFFFFFFFFFFFFFFFFFA8
:10384000FFFFCBEFFFFFFFFFFFFFFFFFFFFFFFFFCC
:10385000FFFFFFFFFFC18FFFFFFFFFFFFFFFFFFF26
:10386000FFFFFFFFFFFFFFFFF19FFFFFFFFFFFFFD6
:10387000FFFFFFFFFFFFFFFFFFFFFFFFFFFFFFFF58
:10388000FFFFFFC3FC3FFFFFFFFFFFFFFFFFFFFF47
:10389000FFFFFFFFFFFFC3FC3FFFFFFFFFFFFFFF37
:1038A000FFFFFFFFFFFFFFFFFFC3FC3FFFFFFFFF27
:1038B000FFFFFFFFFFFFFFFFFFFFFFFFC3FC3FFF17
:1038C000FFFFFFFFFFFFFFC00FFFFFFFFFFFFFFF37
:1038D000FFFFFFFFFFFFFFFFFFFFC00FFFFFFFFF27
:1038E000FFFFFFFFFFFFFFFFFFFFFFFFFFE7FFFF00
:1038F000FFFFFFFFFFFFFFFFFFFFFFFFFFFFFFFFD8
:10390000F7FFFFFFFFFFFFFFFFFFFFFFFFFFFFFFCF
:10391000FFFFFFFFFFFFFFFFFFFFFC0003FFFFFFB5
:10392000FFFFFFFFFFFFF7EFFFFFFFFFFFFC0003BD
:10393000FFFFFFFFFFFFFFFFFFF18FFFFFFFFFFF15
:10394000FC0003FFFFFFFFFFFFFFFFFFF81FFFFF6C
:10395000FFFFFFFC0003FFFFFFFFFFFFFFFFFFF87C
:103960001FFFFFFFFFFFC3FFFC3FFFFFFFFFFFFF46
:10397000FFFFF18FFFFFFFFFFFC3FFFC3FFFFFFFD4
:10398000FFFFFFFFFFF7EFFFFFFFFFFFC3FFFC3F5E
:10399000FFFFFFFFFFFFFFFFFFFFFFFFFFFFFFC373
:1039A000FFFC3FFFFFFFFFFFFFFFFFE1EFFFFFFF18
:1039B000FFFFC3FFFC3FFFFFFFFFFFFFFFFFC0EF65
:1039C000FFFFFFFFFFC3FFFC3FFFFFFFFFFFFFFF06
:1039D000FFDE2FFFFFFFFFFFC3FFFC3FFFFFFFFFE7
:1039E000FFFFFFFFDF0FFFFFFFFFFFC3FFFC3FFFF6
:1039F000FFFFFFFFFFFFFFC7CFFFFFFFFFFFFC0041
:103A000003FFFFFFFFFFFFFFFFFFE7EFFFFFFFFFEA
:103A1000FFFC0003FFFFFFFFFFFFFFFFFFFFFFFFB4
:103A2000FFFFFFFFFC0003FFFFFFFFFFFFFFFFFFA4
:103A3000FFFFFFFFFFFFFFFC0003FFFFFFFFFFFF94
:103A4000FFFFFFDC1FFFFFFFFFFFFFFFFFFFFFFF89
:103A5000FFFFFFFFFFFFD80FFFFFFFFFFFFFFFFF8D
:103A6000FFFFFFFFFFFFFFFFFFDBEFFFFFFFFFFF9A
:103A7000FFFFFFFFFFFFFFFFFFFFFFFFCBEFFFFF9A
:103A8000FFFFFFFFFFFFFFFFFFFFFFFFFFFFFFC184
:103A90008FFFFFFFFFFFC000003FFFFFFFFFFFFFA3
:103AA000FFFFF19FFFFFFFFFFFC000003FFFFFFF91
:103AB000FFFFFFFFFFFFFFFFFFFFFFFFC000003F13
:103AC000FFFFFFFFFFFFFFFFFFFFFFFFFFFFFFC045
:103AD00000003FFFFFFFFFFFFFFFFFFFFFFFFFFFB4
:103AE000FFFFFC3FFFFFFFFFFFFFFFFFFFFFFFFFA9
:103AF000FFFFFFFFFFFC3FFFFFFFFFFFFFFFFFFF99
:103B0000FFC00FFFFFFFFFFFFC3FFFFFFFFFFFFFB7
:103B1000FFFFFFFFC00FFFFFFFFFFFFC3FFFFFFFA7
:103B2000FFFFFFFFFFFFFFE7FFFFFFFFFFFFFFFFBD
:103B3000FFFFFFFFFFFFFFFFFFFFF7FFFFFFFFFF9D
:103B4000FFFFFFFFFFFFFFFFFFFFFFFFFFFFFFFF85
:103B5000FFFFFFFFFFFFFFFFFFFFFFFFFFFFFFFF75
:103B6000FFFFFFFFFFFFFFFFFFFFFFFFFFFFFFFF65
:103B7000FFFFFFFFFFFFFFFFFFFFFFFFFFFFFFFF55
:103B8000FFFFFFFFFFFFFFFFFFFFFFFFFFFFFFFF45
:103B9000FFFFFFFFFFFFFFFFFFFFFFFFFFFFFFFF35
:103BA000FFFFFFFFFFFFFFFFFFFFFFFFFFFFFFFF25
:103BB000FFFFFFFFFFFFFFFFFFFFFFFFFFFFFFFF15
:103BC000FFFFFFFFFFFFFFFFFFFFFFFFFFFFFFFF05
:103BD000FFFFFFFFFFFFFFFFFFFFFFFFFFFFFFFFF5
:103BE000FFFFFFFFFFFFFF8000007FFFFFFFFFFFE2
:103BF000FFFFFFFFFFFFFFFFFFFF8000807FFFFF52
:103C0000FFFFFFFFFFFFFFFFFFFFFFFFFF803F8082
:103C10007FFFFFFFFFFFFFFFFFFFFFFFFFFFFFFF34
:103C2000803F807FFFFFFFFFFFFFFFFFFFFFFFFFE2
:103C3000FFFFFF8030807FFFFFFFFFFFFFFFFFFFE1
:103C4000FFFFFFBFFFFF803F807FFFFFFFFFFFFF02
:103C5000FFFFFFFFFFFF9FFFFF803F807FFFFFFF12
:103C6000FFFFFFFFFFFFFFFFFF80FFFF8030807F30
:103C7000FFFFFFFFFFFFFFFFFFFFFFFF80FFFF8052
:103C80003F807FFFFFFFFFFFFFFFFFFFFFFFFFFF03
:103C9000FFFF803F807FFFFFFFFFFFFFFFFFFFFF72
:103CA000FFFFFFFFFF8020807FFFFFFFFFFFFFFF81
:103CB000FFFFFFFFFFC5FFFF8000007FFFFFFFFF4B
:103CC000FFFFFFFFFFFFFFFF84FFFF8000007FFF7C
:103CD000FFFFFFFFFFFFFFFFFFFFFFB6FFFF801F9C
:103CE000007FFFFFFFFFFFFFFFFFFFFFFFFFB6FFAC
:103CF000FF803F807FFFFFFFFFFFFFFFFFFFFFFF12
:103D0000FF80FFFF8031807FFFFFFFFFFFFFFFFF8E
:103D1000FFFFFFFFC1FFFF8031807FFFFFFFFFFF3D
:103D2000FFFFFFFFFFFFFFFFFFFF803F807FFFFFE1
:103D3000FFFFFFFFFFFFFFFFFFFFFFFFFF801F00F1
:103D40007FFFFFFFFFFFFFFFFFFFFFFFFFC1FFFF41
:103D50008000007FFFFFFFFFFFFFFFFFFFFFFFFF70
:103D600080FFFF8000007FFFFFFFFFFFFFFFFFFFDF
:103D7000FFFFFFBEFFFF8010807FFFFFFFFFFFFF01
:103D8000FFFFFFFFFFFF9CFFFF8030807FFFFFFFF3
:103D9000FFFFFFFFFFFFFFFFFF801FFF8021807FEE
:103DA000FFFFFFFFFFFFFFFFFFFFFFFF801FFF8001
:103DB0003F807FFFFFFFFFFFFFFFFFFFFFFFFFFFD2
:103DC000FFFF801F007FFFFFFFFFFFFFFFFFFFFFE1
:103DD000FFFFFFFFFF8000007FFFFFFFFFFFFFFFF0
:103DE000FFFFFFFFFFC0FFFF8000007FFFFFFFFF1F
:103DF000FFFFFFFFFFFFFFFF80FFFF8000807FFFCF
:103E0000FFFFFFFFFFFFFFFFFFFFFFB4FFFF80008B
:103E1000807FFFFFFFFFFFFFFFFFFFFFFFFFB6FFFA
:103E2000FF8000007FFFFFFFFFFFFFFFFFDFFFFFBF
:103E3000FF90FFFF8000007FFFFFFFFFFFFFFFE31A
:103E40001FFFFFFFD9FFFF8020007FFFFFFFFFFF65
:103E5000FFFFC03FFFFFFFFFFFFF803C007FFFFF32
:103E6000FFFFFFFFFFDCFFFFFFFFFFFFFF803F00C3
:103E70007FFFFFFFFFFFFFFFDDFFFFFFFFC1FFFF32
:103E80008003E07FFFFFFFFFFFFFFFC01FFFFFFF7B
:103E900080FFFF803FF07FFFFFFFFFFFFFFFC01F9E
:103EA000FFFFFFBEFFFF803C107FFFFFFFFFFFFF14
:103EB000FFFFFFFFFFFF9CFFFF8020007FFFFFFF52
:103EC000FFFFFFFFFFFFFFFFFF801FFF8000807FDE
:103ED000FFFFFFFFFFFFFFDDDFFFFFFF801FFF8012
:103EE0003F807FFFFFFFFFFFFFFFDDDFFFFFFFFFE3
:103EF000FFFF803F807FFFFFFFFFFFFFFFDDDFFF52
:103F0000FFFFFFFFFF8024807FFFFFFFFFFFFFFF1A
:103F1000DDDFFFFFFFF7FFFF8037807FFFFFFFFF41
:103F2000FFFFFFC01FFFFFFFF7FFFF8013807FFF32
:103F3000FFFFFFFFFFFFC01FFFFFFFF7FFFF800036
:103F4000007FFFFFFFFFFFFFFFFFFFFFFFFFF7FF08
:103F5000FF8000807FFFFFFFFFFFFFFFFFFFFFFFEE
:103F6000FFFFFFFF81FF807FFFFFFFFFFFFFFFE3FA
:103F7000FFFFFFFDDEFFFF81FF807FFFFFFFFFFFF1
:103F8000FFFFC1FFFFFFFDDEFFFF8100807FFFFF1E
:103F9000FFFFFFFFFFDDFFFFFFFDDEFFFF800000F3
:103FA0007FFFFFFFFFFFFFFFDDFFFFFFFDDEFFFFE6
:103FB0008000007FFFFFFFFFFFFFFFC01FFFFFFD2F
:103FC000DEFFFF801F007FFFFFFFFFFFFFFFC01F1F
:103FD000FFFFFC00FFFF803F807FFFFFFFFFFFFF31
:103FE000FFFFFFFFFFFC00FFFF8020807FFFFFFF40
:103FF000FFFFFFFFFF9FFFFFFFFFFFFF8031907F6D
:10400000FFFFFFFFFFFFFFFC1FFFFFFFFFFFFF8022
:104010003FF07FFFFFFFFFFFFFFFE07FFFFFFFFF9E
:10402000FFFF803FF07FFFFFFFFFFFFFFFC6FFFFA7
:10403000FFFFFFFFFF8020107FFFFFFFFFFFFFFF5D
:10404000C6FFFFFFFFFFFFFF8000007FFFFFFFFFB6
:10405000FFFFFFE07FFFFFFFFFFFFF8013007FFFF9
:10406000FFFFFFFFFFFFFC1FFFFFFFD1FFFF8037B8
:10407000807FFFFFFFFFFFFFFFFF9FFFFFFF90FF1E
:10408000FF8024807FFFFFFFFFFFFFFFFFFFFFFF99
:10409000FFB6FFFF803D807FFFFFFFFFFFFFFFE3D5
:1040A000FFFFFFFFA6FFFF8019007FFFFFFFFFFF5D
:1040B000FFFFC1FFFFFFFF84FFFF8000007FFFFFC6
:1040C000FFFFFFFFFFDDFFFFFFFFCDFFFF80008051
:1040D0007FFFFFFFFFFFFFFFDDFFFFFFFFFFFFFF92
:1040E00080BF807FFFFFFFFFFFFFFFC01FFFFFFFBD
:1040F000BFFFFF80BF807FFFFFFFFFFFFFFFC01FED
:10410000FFFFFF9FFFFF8020807FFFFFFFFFFFFF7C
:10411000FFFFFFFFFFFF80FFFF8000007FFFFFFF2B
:10412000FFFFFFFFFEFFFFFFFF80FFFF8000807F9C
:10413000FFFFFFFFFFFFFFFEFFFFFFFFFFFFFF810E
:10414000FF807FFFFFFFFFFFFFFFFEFFFFFFFFFF7F
:10415000FFFF81FF807FFFFFFFFFFFFFFFFEFFFFED
:10416000FFFFC1FFFF8131807FFFFFFFFFFFFFFFE8
:10417000FFFFFFFFFF80FFFF8020807FFFFFFFFF2B
:10418000FFFFFFDDDFFFFFFFBEFFFF803F807FFF00
:10419000FFFFFFFFFFFFDDDFFFFFFFBEFFFF801F11
:1041A000007FFFFFFFFFFFFFFFDDDFFFFFFF80FF5F
:1041B000FF8000007FFFFFFFFFFFFFFFDDDFFFFF4E
:1041C000FFC1FFFF8000007FFFFFFFFFFFFFFFC079
:1041D0001FFFFFFFFFFFFF8004007FFFFFFFFFFFC8
:1041E000FFFFC01FFFFFFFFFFFFF8004007FFFFFF7
:1041F000FFFFFFFFFFFFFFFFFFFC00FFFF8004004A
:104200007FFFFFFFFFFFFFFFFFFFFFFFFC00FFFF40
:104210008000007FFFFFFFFFFFFFFFFFFFFFFFFFAB
:10422000FFFFFF8000807FFFFFFFFFFFFFFFFFFF1B
:10423000FFFFFFFFFFFF81FF807FFFFFFFFFFFFF0B
:10424000FFFFFFFFFFFFC1FFFF81FF807FFFFFFF39
:10425000FFFFFFFFFFFFFFFFFF80FFFF8131807F38
:10426000FFFFFFFFFFFFFFC01FFFFFFFBEFFFF803D
:1042700020807FFFFFFFFFFFFFFFC01FFFFFFFBE8C
:10428000FFFF803F807FFFFFFFFFFFFFFFFDFFFF7E
:10429000FFFF80FFFF801F007FFFFFFFFFFFFFFF8B
:1042A000FDFFFFFFFFC1FFFF8000007FFFFFFFFF5B
:1042B000FFFFFFFDFFFFFFFFFFFFFF8000007FFF0D
:1042C000FFFFFFFFFFFFC01FFFFFFFFFFFFF801F7C
:1042D000007FFFFFFFFFFFFFFFC01FFFFFFF7BFF10
:1042E000FF803F807FFFFFFFFFFFFFFFFFFFFFFF1C
:1042F000FC79FFFF8031807FFFF80000001FFFFF87
:10430000FFFFFFFCFCFFFF8031807FFFF800000013
:104310001FFFE73FFFFFFDFEFFFF803F807FFFF8AD
:104320000000001FFFC71FFFFFFDFEFFFF801F00F3
:104330007FFFF80000001FFFCF9FFFFFFCFCFFFF87
:104340008000007FFFF80000001FFFDFDFFFFFFE9F
:1043500001FFFF8000007FFFF80000001FFFCF9FDC
:10436000FFFFFF03FFFF801F007FFFF803FFFC1F1D
:10437000FFE03FFC7BFFFFFFFF803F807FFFF803F4
:10438000FFFC1FFFF07FF81BFFFFFFFF8031807FE6
:10439000FFF803FFFC1FFFFFFFFB8BFFFFFFFF800A
:1043A00031807FFFF803FFFC1FFFFFFFF8E3FFFFF3
:1043B000FFFF803F807FFFF803C03C1FFFC01FFC52
:1043C000F3FFFFFFFF801F007FFFF803C03C1FFFCC
:1043D000C01FFFFFFFFFFFFF8000007FFFF803C04B
:1043E0003C1FFFFE3FFB87FFC5FFFF8000007FFFF4
:1043F000F803C03C1FFFF8FFFB03FF84FFFF802092
:10440000E07FFFF803C03C1FFFE1FFF97BFFB6FF31
:10441000FF803CF07FFFF803C03C1FFFC01FF82364
:10442000FFB6FFFF803E907FFFF803C03C1FFFC038
:104430001FFE27FF80FFFF8022907FFFF803C03C14
:104440001FFFFFFFFFFFFFC1FFFF803FF07FFFF86F
:10445000780F001FFFFFFFFFFFFFFFFFFF801DE042
:104460007FFFF8780F001FFFC01FF803FFFFFFFF5B
:104470008000007FFFF8780F001FFFC01FF803FFC8
:10448000C5FFFF8000007FFFF8780F001FFFFFFFD0
:10449000FCFFFF84FFFF8000807FFFF8780F3C1F48
:1044A000FFFFFFFEFFFFB6FFFF8000807FFFF87871
:1044B0000F3C1FFFFFFFFFFFFFB6FFFF8000007FE5
:1044C000FFF8780F3C1FFFFFFFFEFBFF80FFFF8020
:1044D00020007FFFF8780F3C1FFFFFFFFE23FFC186
:1044E000FFFF803E007FFFF87FFF3C1FFFFF7FFF45
:1044F0008FFFFFFFFF803F807FFFF87FFF3C1FFFA4
:10450000C01FFF8FFFBFFFFF800F807FFFF87FFF7F
:104510003C1FFFC01FFE23FF9FFFFF803E007FFF69
:10452000F87FFF3C1FFFE37FFEFBFF80FFFF803E25
:10453000007FFFF800003C1FFFF87FFFFFFF80FFB8
:10454000FF800F807FFFF800003C1FFFFE7FFC7B99
:10455000FFFFFFFF803F807FFFF800003C1FFFFF51
:10456000FFF81BFFFFFFFF803E007FFFF803FFFC0B
:104570001FFFDC3FFB8BFFC0FFFF8020007FFFF8A9
:1045800003FFFC1FFFD81FF8E3FF80FFFF80200020
:104590007FFFF803FFFC1FFFCBDFFCF3FFBFFFFF34
:1045A000803E007FFFF803FFFC1FFFC11FFFFFFFDE
:1045B0009FFFFF803F807FFFF803FFFC1FFFF13F5D
:1045C000FB87FC00FFFF800F807FFFF80000001FCB
:1045D000FFFFFFFB03FC00FFFF803E007FFFF800B2
:1045E00000001FFFFFDFF97BFFFFFFFF803E007F22
:1045F000FFF80000001FFFFFDFF823FDFFFFFF8033
:104600000F807FFFF80000001FFFFFFFFE27FDFF68
:10461000FFFF803F807FFFF80000001FFFFFFFFFCC
:10462000FFFDFFFFFF803E007FFFF80000001FFF3F
:10463000FFFFFFFFFC00FFFF8020007FFFFFFFFF69
:10464000FFFFFFC01FF803FC00FFFF8020007FFF7B
:10465000FFFFFFFFFFFFC01FF803FDFFFFFF803ECE
:10466000007FFFFFFFFFFFFFFFE7FFFCFFFDFFFFF6
:10467000FF803F807FFFFFFFFFFFFFFFF7FFFEFF91
:10468000FDFFFFFF800F807FFFFFFFFFFFFFFFFFAA
:10469000FFFFFFFFFFFFFF803E007FFFFFFFFFFFE9
:1046A000FFFFFFFFFFFFFFFFFFFF803E007FFFFFD9
:1046B000FFFFFFFFFFFFFFFFFFFFFFFFFF800F80F8
:1046C0007FFFFFFFFFFFFFFFFFFFFFFFFFFFFFFF7A
:1046D000803F807FFFFFFFFFFFFFFFFFFFFFFFFF28
:1046E000FFFFFF803E007FFFFFFFFFFFFFFFFFFF99
:1046F000FFFFFFFFFFFF8020007FFFFFFFFFFFFFA7
:10470000FFFFFFFFFFFFFFFFFF8000007FFFFFFFB6
:10471000FFFFFFFFFFFFFFFFFFFFFFFF8000007FA6
:104720000000000000000000000000000000007F0A
:10473000FFFF8000000000000000000000000000FB
:1047400000007FFFFF80000000000000000000006C
:1047500000000000007FFFFF80000000000000005C
:1047600000000000000000007FFFFF80000000004C
:1047700000000000000000000000007FFFFF80003C
:1047800000000000000000000000004000007FFF6B
:10479000FF8000000000000000000000000060003A
:1047A000007FFFFF8000000000000000000000000C
:1047B000007F00007FFFFF8000000000000000007D
:1047C000000000007F00007FFFFF8000000000006D
:1047D000000000000000000000007FFFFF800000DC
:1047E000000000000000000000000000007FFFFF4C
:1047F000800000000000000000000000003A0000FF
:104800007FFFFF80000000000000000000000000AB
:104810007B00007FFFFF8000000000000000000020
:104820000000004900007FFFFF80000000078000BB
:104830000000000000004900007FFFFF8000000032
:104840001F80000000000000007F00007FFFFF804D
:104850000000003F80000000000000003E00007FDC
:10486000FFFF800000007F820000000000000000C9
:1048700000007FFFFF800000007F86000000000036
:1048800000000000007FFFFF80000000FF8F00009D
:1048900000000000003E00007FFFFF80000000FBE2
:1048A0009F000000000000007F00007FFFFF8000ED
:1048B0000000FB9F000000000000004100007FFF9F
:1048C000FF80000000FB9F0000000000000063006C
:1048D000007FFFFF80000000FC3F000000000000A0
:1048E000007FE0007FFFFF80000000FFFF0000006E
:1048F000000000007FE0007FFFFF800000007FFEDF
:10490000000000000000000000007FFFFF800000AA
:10491000007FFE000000000000000000007FFFFF9D
:10492000800000003FFC000000000000003F00008D
:104930007FFFFF800000001FF80000000000000063
:104940007F00007FFFFF8000000007E00000000004
:104950000000004B00007FFFFF800000000000000F
:104960000000000000004900007FFFFF8000000001
:104970000000000000200000006F00007FFFFF80AB
:1049800000003FFFFF00001CE00000002600007F49
:10499000FFFF8000003FFFFF00003FC0000000005D
:1049A00000007FFFFF8000003FFFFF0000230000AA
:1049B00000000000007FFFFF8000003FFFFF0000BD
:1049C00022000000003E00007FFFFF8000003FFF4C
:1049D000FF00003FE00000007F00007FFFFF80003D
:1049E000003FFFFF00003FE00000004100007FFFAC
:1049F000FF800000000000000000000000006300D5
:104A0000007FFFFF800000000000000000000000A9
:104A1000007FE0007FFFFF80000000000000002218
:104A2000200000007FE0007FFFFF8000000007FF04
:104A3000000022200000000000007FFFFF80000037
:104A4000001FFF000022200000000000007FFFFF89
:104A5000800000003FFF000022200000000800004E
:104A60007FFFFF800000007FFF00003FE0000000AC
:104A70000800007FFFFF800000007FFF00003FE094
:104A80000000000800007FFFFF80000000FFFF0023
:104A90000000000000000800007FFFFF8000000011
:104AA000FE00000000000000000000007FFFFF800B
:104AB000000000FC3F00001C000000022100007FFD
:104AC000FFFF80000000FC3F00003E0000000221CC
:104AD00000007FFFFF80000000FE7F00002200003A
:104AE00000022100007FFFFF80000000FFFF0000A8
:104AF00022000000022100007FFFFF800000007FF5
:104B0000FE00003FE00000022100007FFFFF800068
:104B100000007FFE00003FE0000003FF00007FFF79
:104B2000FF800000003FFC00000000000003FF00C9
:104B3000007FFFFF800000001FF800000060000001
:104B4000000000007FFFFF8000000007E00000037E
:104B5000E00000000000007FFFFF80000000000078
:104B600000001F800000000000007FFFFF800000A9
:104B7000000000000039000000000000007FFFFF7F
:104B80008000003F03E0000039000000000000004A
:104B90007FFFFF8000003F0FF800001F8000000033
:104BA0000000007FFFFF8000003F9FFC000003E04B
:104BB0000000002E00007FFFFF8000003FFFFE008E
:104BC0000000600000006F00007FFFFF8000003FDA
:104BD000FFFE000000000000004900007FFFFF8092
:104BE00000001FFFFF00001C000000005900007FB4
:104BF000FFFF8000001FFFFF00003E000000007B61
:104C000000007FFFFF8000000FFE7F0000220000F9
:104C100000003200007FFFFF80000007FC3F000023
:104C200022000000000000007FFFFF80000001F074
:104C30003F00003FE00000004000007FFFFF8000D9
:104C40000000003F00003FE00000006000007FFF28
:104C5000FF800000000000000000000000007F0056
:104C6000007FFFFF80000000000000000100000046
:104C7000007F00007FFFFF800000000000000001B7
:104C8000000000000000007FFFFF80000000000027
:104C9000000001000000000000007FFFFF80000016
:104CA000000000000001000000003E00007FFFFF48
:104CB000800000000000000000000000007F0000F5
:104CC0007FFFFF80000000000000002220000000A5
:104CD0004100007FFFFF8000000000000000222054
:104CE0000000004100007FFFFF8000000000000086
:104CF0000022200000007F00007FFFFF80000000F6
:104D00000000000022200000003E00007FFFFF8026
:104D1000000000000000003FE00000000000007FF5
:104D2000FFFF80000000000000003FE000000000E6
:104D300000007FFFFF800000000000000000000076
:104D40000003FF00007FFFFF800000000000000064
:104D50000000000003FF00007FFFFF800000000054
:104D600000000000000000000000007FFFFF800046
:104D700000000000000000000000000000007FFFB5
:104D8000FF800000000000000000000000003E0066
:104D9000007FFFFF80000000000000000000000016
:104DA000007F00007FFFFF80000000000000003F48
:104DB000E00000004100007FFFFF800000000000D5
:104DC00000003FE00000004100007FFFFF80000086
:104DD000000000000002000000007F00007FFFFFD5
:104DE000800000000000000002000000003E000003
:104DF0007FFFFF80000000000000000200000000B4
:104E00000000007FFFFF80000000000000003FE086
:104E10000000000000007FFFFF8000000000000095
:104E2000003FE00000008400007FFFFF80000000E2
:104E30000000000000000000038600007FFFFF80EC
:104E40000007FFFFFFE00000000000030300007FF9
:104E5000FFFF800007FFFFFFE00018C00000020115
:104E600000007FFFFF800007FFFFFFE00038E00049
:104E700000020100007FFFFF800007FFFFFFE0004E
:104E800030600000030300007FFFFF800007FFFF8A
:104E9000FFE0002020000001FE00007FFFFF8000F7
:104EA00007FFFFFFE0003060000000FC00007FFF14
:104EB000FF800007FFFFFFE0001FC0038400000029
:104EC000007FFFFF800007FFFFFFE0000F8007E487
:104ED000000000007FFFFF800007FFFFFFE00000F1
:104EE000000474000000007FFFFF800007FFFFFF49
:104EF000E0000000071C000000007FFFFF800007AB
:104F0000FFFFFFE0003FE0030C000000007FFFFF19
:104F1000800007FFFFFFE0003FE00000000000000E
:104F20007FFFFF800007FFFFFFE00001C004780063
:104F30003A00007FFFFF800007FFFFFFE00007004F
:104F400004FC007B00007FFFFF800007FFFFFFE005
:104F5000001E000684004900007FFFFF800007FF5D
:104F6000FFFFE0003FE007DC004900007FFFFF801B
:104F70000007FFFFFFE0003FE001D8007F00007F57
:104F8000FFFF800007FFFFFFE00000000000003E81
:104F900000007FFFFF800007FFFFFFE00000000030
:104FA00000000000007FFFFF800007FFFFFFE00020
:104FB0003FE007FC000000007FFFFF800007FFFFCD
:104FC000FFE0003FE007FC003A00007FFFFF8000A9
:104FD00007FFFFFFE00000000300007B00007FFFF1
:104FE000FF800007FFFFFFE0000000010000490014
:104FF000007FFFFF800007FFFFFFE00000000000D0
:10500000004900007FFFFF800007FFFFFFE0000076
:10501000000104007F00007FFFFF800007FFFFFF0B
:10502000E000000001DC003E00007FFFFF80000781
:10503000FFFFFFE00000800070000000007FFFFF26
:10504000800007FFFFFFE0003FE00070004000002D
:105050007FFFFF800007FFFFFFE0003FE001DC0073
:105060006000007FFFFF800007FFFFFFE0001C8063
:105070000104007F00007FFFFF800007FFFFFFE0CB
:105080000007800000007F00007FFFFF800007FF17
:10509000FFFFE00001800384000000007FFFFF802D
:1050A0000007FFFFFFE000000007E4000000007FB2
:1050B000FFFF800007FFFFFFE00023C00474003FF4
:1050C00000007FFFFF800007FFFFFFE00027E007F1
:1050D0001C007F00007FFFFF800007FFFFFFE00054
:1050E0003420030C004000007FFFFF800007FFFF1B
:1050F000FFE0003EE00000006000007FFFFF800056
:1051000007FFFFFFE0000EC0047803FF00007FFFF1
:10511000FF800007FFFFFFE000000004FC03FF002A
:10512000007FFFFF800007FFFFFFE00000200684F4
:10513000000000007FFFFF800007FFFFFFE000008E
:105140002007DC020000007FFFFF800007FFFFFF59
:10515000E000000001D8020000007FFFFF80000790
:10516000FFFFFFE00000000000020000007FFFFFE3
:10517000800007FFFFFFE0000000000003FF0000C9
:105180007FFFFF80000000000000003FE007FC03FD
:10519000FF00007FFFFF80000000000000003FE0F4
:1051A00007FC020000007FFFFF80000000000000FD
:1051B0000018000300020000007FFFFF80000000D5
:1051C0000000000008000100020000007FFFFF80D7
:1051D0000000000000000000000000000000007F50
:1051E000FFFF800000000000000000000000000041
:1051F00000007FFFFF8000000000000000000000B2
:1052000000000000007FFFFF8000000000000000A1
:1052100000000000000000007FFFFF800000000091
:1052200000000000000000000000007FFFFF800081
:1052300000000000000000000000000000007FFFF0
:10524000FF800000000000000000000000000000DF
:10525000007FFFFF80000000000000000000000051
:10526000000000007FFFFF80000000000000000041
:1052700020202020002000005050000000000000EE
:105280002850F850F850A000203060301060200006
:1052900020201860101000000038206050780000B6
:1052A00020202000000000001020202020201000DE
:1052B00040202020202040002070205000000000CE
:1052C000002020F820200000000000001020200016
:1052D000000000700000000000000000002000003E
:1052E00010202020404080002050505050200000CE
:1052F0006020202020F80000205020204070000076
:10530000205010201060000010305078103800003D
:10531000704060105020000030406050506000002D
:1053200070501020202000002050205050200000FD
:1053300030505030106000000000200000200000BD
:105340000000100010200000001020C020100000FD
:105350000070007000000000004020182040000095
:1053600020501020002000003048485848403800A5
:105370006020507088D80000F048704848F0000065
:105380007050404040300000F048484848F000006D
:10539000F848604048F80000F848604040E00000ED
:1053A0007040405850300000E848784848E8000015
:1053B0007020202020700000381010505020000075
:1053C000D850607050D80000E040404048F80000DD
:1053D000D8D8D8A888D80000D868685858E80000FD
:1053E0003048484848300000F048487040E000002D
:1053F0003048484848301800F048487048E80000F5
:105400007050201050700000F8A82020207000007C
:10541000D848484848300000D888485050300000EC
:10542000D888A8A8A8500000D850202050D8000044
:10543000D88850202070000078481020487800005C
:1054400030202020202030008040402020201000EC
:10545000602020202020600020205000000000005C
:1054600000000000000000F8201000000000000014
:105470000000301070780000C040704848F0000014
:10548000000070404070000018083848483800009C
:10549000000070704030000010207020207000006C
:1054A0000000384848380830C040704848E80000DC
:1054B000200060202070000020007010101010707C
:1054C000C040587050D8000060202020207000009C
:1054D0000000D0A8A8A800000000F04848C80000BC
:1054E00000003048483000000000F048487040E0BC
:1054F0000000384848380818000078202070000064
:1055000000003020106000000040F04048300000F3
:105510000000D848483800000000C848303000007B
:105520000000D8A8A8500000000048303048000013
:105530000000D850502020600000785028780000EB
:10554000102020602020100020202020202020007B
:1055500040202030202040000000002850000000A3
:10556000000000000000000000000000001010100B
:105570001010000010000000006C484800000000FF
:1055800000000000001414287C287C2850500000E3
:1055900000103840403848701010000000205020A3
:1055A0000C70081408000000000000182020544867
:1055B0003400000000101010100000000000000077
:1055C000000808101010101010080800002020100B
:1055D000101010101020200000107C10282800004F
:1055E000000000000000101010FE1010100000005D
:1055F0000000000000000018103020000000000033
:10560000007C0000000000000000000000000030EE
:1056100030000000000404080810102020400000A2
:105620000038444444444444380000000030101022
:10563000101010107C0000000038440408102044B2
:105640007C000000003844041804044438000000C2
:10565000000C141424447E040E000000003C2020A2
:105660003804044438000000001C204078444444BE
:1056700038000000007C44040808081010000000F6
:10568000003844443844444438000000003844445E
:10569000443C04087000000000000030300000307E
:1056A0003000000000000018180000183020000032
:1056B00000000C10608060100C0000000000000072
:1056C0007C007C00000000000000C02018041820AE
:1056D000C000000000001824040810003000000082
:1056E0003844444C54544C40443800000030102896
:1056F00028287C44EE00000000F8444478444444E8
:10570000F8000000003C44404040404438000000A5
:1057100000F0484444444448F000000000FC445079
:1057200070504044FC000000007E222838282020D1
:1057300070000000003C4440404E444438000000EB
:1057400000EE44447C444444EE000000007C101011
:10575000101010107C000000003C08080848484861
:105760003000000000EE444850704844E60000005D
:1057700000702020202024247C00000000EE6C6CAF
:1057800054544444EE00000000EE64645454544CFD
:10579000EC00000000384444444444443800000015
:1057A000007824242438202070000000003844446D
:1057B00044444444381C000000F8444444784844BD
:1057C000E200000000344C4038040464580000003B
:1057D00000FE9210101010103800000000EE44443B
:1057E000444444443800000000EE44442828281073
:1057F0001000000000EE44445454545428000000AB
:1058000000C6442810102844C600000000EE4428BA
:105810002810101038000000007C440810102044AC
:105820007C0000000038202020202020202038008C
:105830000040202020101008080800000038080848
:105840000808080808083800001010284400000064
:10585000000000000000000000000000000000FE4A
:1058600000100800000000000000000000000038E8
:10587000443C44443E00000000C04058644444445A
:10588000F80000000000003C4440404438000000A4
:10589000000C04344C4444443E0000000000003836
:1058A000447C40403C000000001C207C2020202044
:1058B0007C000000000000364C4444443C043800A6
:1058C00000C0405864444444EE00000000100070E2
:1058D000101010107C000000001000780808080864
:1058E0000808700000C0405C48705048DC000000B0
:1058F00000301010101010107C000000000000E8B4
:1059000054545454FE000000000000D86444444441
:10591000EE00000000000038444444443800000019
:10592000000000D8644444447840E00000000036A1
:105930004C4444443C040E000000006C3020202005
:105940007C0000000000003C443804447800000063
:105950000000207C202020221C000000000000CC41
:105960004444444C36000000000000EE4444282823
:1059700010000000000000EE4454545428000000C1
:10598000000000CC48303048CC000000000000EEA1
:1059900044242818101078000000007C481020448F
:1059A0007C000000000810101010201010100800DB
:1059B0000010101010101010101000000020101017
:1059C00010100810101020000000000000245800E3
:1059D00000000000000000000000000000000000C7
:1059E00000000000000000000000000000000000B7
:1059F0000000000000000C000C000C000C000C006B
:105A00000C000C000C0000000C0000000000000066
:105A100000000000000000001DC01DC008800880BC
:105A200008800000000000000000000000000000EE
:105A30000000000000000D800D800D800D803FC033
:105A40001B003FC01B001B001B001B0000000000D0
:105A50000000000004001F803180318038001E00EB
:105A60000F000380318031803F00040004000000FB
:105A700000000000000018002400240018C0078067
:105A80001E00318002400240018000000000000042
:105A900000000000000000000F00180018001800AF
:105AA0000C001D80370033001D8000000000000046
:105AB00000000000000000000700070002000200D4
:105AC00002000000000000000000000000000000D4
:105AD0000000000000000300030006000E000C00A0
