:020000040800F2
:1000000000040020DF0D0008ED0D0008EF0D0008D2
:10001000F10D0008F30D0008F50D000800000000C8
:10002000000000000000000000000000F70D0008C4
:10003000F90D000800000000FB0D0008FD0D000890
:10004000410E0008430E0008450E0008470E000848
:10005000490E00084B0E00084D0E00084F0E000818
:10006000510E0008530E0008550E0008570E0008E8
:10007000590E00085B0E00085D0E00085F0E0008B8
:10008000610E0008630E0008650E0008FF0D0008F1
:10009000FF0D0008FF0D0008FF0D00086F0E00089F
:1000A000710E0008730E0008750E0008770E000828
:1000B000790E00087B0E00087D0E00087F0E0008F8
:1000C000810E0008830E0008850E0008870E0008C8
:1000D000890E00088B0E00088D0E00088F0E000898
:1000E000910E0008930E0008950E0008970E000868
:1000F000990E00089B0E00089D0E00089F0E000838
:10010000A10E0008A30E0008A50E0008A70E000807
:10011000A90E0008AB0E0008AD0E0008AF0E0008D7
:10012000B10E0008B30E0008B50E0008B70E0008A7
:1001300000F002F800F03AF80AA090E8000C8244BF
:100140008344AAF10107DA4501D100F02FF8AFF29C
:10015000090EBAE80F0013F0010F18BFFB1A43F0A5
:1001600001031847F444000014450000103A24BF6E
:1001700078C878C1FAD8520724BF30C830C144BF0C
:1001800004680C607047000000230024002500264E
:10019000103A28BF78C1FBD8520728BF30C148BFEA
:1001A0000B6070471FB51FBD10B510BD01F0DDFB22
:1001B0001146FFF7F7FF01F008FA01F0FBFB03B46B
:1001C000FFF7F2FF03BC01F0FFFB000010B504468F
:1001D000C248844208D10121042000F017FB00210D
:1001E000042000F013FB46E0BD48844208D1012101
:1001F000082000F00BFB0021082000F007FB3AE08C
:10020000B848844208D10121102000F0FFFA0021F3
:10021000102000F0FBFA2EE0B348844208D10121FF
:10022000202000F0F3FA0021202000F0EFFA22E075
:10023000AE48844208D10121402000F0E7FA0021B5
:10024000402000F0E3FA16E0A948844208D10121D9
:10025000802000F0DBFA0021802000F0D7FA0AE0CD
:10026000A448844207D10121801500F0CFFA002173
:10027000A01500F0CBFA10BD10B50121084600F022
:10028000C5FA0021012000F0C1FA10BD2DE9F041AE
:10029000024600250026002000230024002791F8B4
:1002A00003C00CF00F0591F803C01CF0100F03D031
:1002B00091F802C04CEA050591F800C0BCF1000FAE
:1002C00031D0146800202BE04FF0010C0CFA00F341
:1002D000B1F800C00CEA03069E4220D183004FF023
:1002E0000F0C0CFA03F7BC4305FA03FC4CEA0404B8
:1002F00091F803C0BCF1280F06D14FF0010C0CFAA5
:1003000000FCC2F814C00AE091F803C0BCF1480F29
:1003100005D14FF0010C0CFA00FCC2F810C0401CD3
:100320000828D1D31460B1F800C0BCF1FF0F34DD50
:10033000546800202EE000F1080C4FF0010808FA84
:100340000CF3B1F800C00CEA03069E4221D18300F1
:100350004FF00F0C0CFA03F7BC4305FA03FC4CEA10
:10036000040491F803C0BCF1280F05D100F1080C7A
:1003700008FA0CF8C2F8148091F803C0BCF1480FD9
:1003800007D100F1080C4FF0010808FA0CF8C2F888
:100390001080401C0828CED35460BDE8F0814FF691
:1003A000FF710180022181700421C17070470246F3
:1003B000002093680B4201D0012000E0002070472C
:1003C0000146886880B2704702460020D3680B421D
:1003D00001D0012000E0002070470146C86880B2CB
:1003E000704701617047416170470AB1016100E0E7
:1003F00041617047C16070474FF480320A438261A7
:1004000081618261826982697047024600203A4BAD
:1004100018684FF68073184040EA02100843364BC4
:10042000186070473549C8617047F0B50A46002327
:10043000002400210025304E7168C0F3034583B2CB
:1004400000F44016B6F5401F08D121F070612A4E25
:10045000766826F07066284F7E6012E000F4801601
:10046000B6F5801F06D1032606FA05F4A14341F034
:10047000706106E0460D360103FA06F6B14341F01D
:10048000706122B1460D360103FA06F631431A4E69
:100490007160F0BD30B500228B071C0F0F2303FAEB
:1004A00004F2154B08338C1053F824309343124C4C
:1004B00008348D1044F8253023468C1053F824302E
:1004C0008C07240F00FA04F423430B4C08348D10DE
:1004D00044F8253030BD0A490860704700080140E3
:1004E000000C0140001001400014014000180140C0
:1004F000001C01400020014000000140000020429B
:10050000DC002042DD48006840F00100DB49086063
:1005100008464068DA490840D849486008460068FB
:10052000D8490840D54908600846006820F4802072
:1005300008600846406820F4FE0048604FF41F0041
:1005400088607047CD49096821F48031CB4A116039
:100550001146096821F480211160B0F5803F03D075
:10056000B0F5802F0ED106E0C449096841F480310E
:10057000C24A116007E0C149096841F4A021BF4A9D
:10058000116000E000BF00BF704710B501460022B7
:10059000002300204A11012A02D1B84C236806E04A
:1005A000022A02D1B54C236A01E0B44C636A01F01F
:1005B0001F02012494401C4201D0012000E00020D1
:1005C00010BD38B5002000900024002500BF312068
:1005D000FFF7DBFF05460098401C00900098B0F53F
:1005E000A06F01D0002DF2D03120FFF7CEFF08B16F
:1005F000012400E00024204638BD014600209F4A27
:10060000106820F0F80040EAC100106070479E4971
:100610000860704702460020984B586820F47C1010
:1006200042EA01031843954B5860704796490866A3
:10063000704701460020914A506820F003000843AB
:10064000506070478D48406800F00C0070470146CC
:1006500000208A4A506820F0F0000843506070473C
:1006600001460020854A506820F4E060084350604D
:10067000704701460020814A506820F4605040EAEB
:10068000C1005060704729B17C4A527A02437B4BCB
:100690005A7204E0794A527A8243784B5A72704710
:1006A0007A490860704701460020744A506820F477
:1006B00040400843506070470021754A11706F4AEE
:1006C00082F82010012802D0042808D103E001217B
:1006D0006F4A117004E005216D4A117000E000BFFF
:1006E00000BF70476B49086070476449096A01435D
:1006F000624A11627047674944390860704730B5F3
:1007000000210022002400235C4D6D6805F00C01DF
:1007100021B1042905D0082923D105E05E4D0560EB
:1007200022E05D4D05601FE0544D6D6805F47012C8
:10073000524D6D6805F48034022505EB92421CB9D8
:10074000564D554305600BE04C4D6D6815F4003F68
:1007500003D0524D5543056002E04F4D55430560AF
:1007600002E04D4D056000BF00BF444D6D6805F0CF
:10077000F00109094A4D6B5C0568DD4045603F4D5D
:100780006D6805F4E061090A454D6B5C4568DD4024
:1007900085603A4D6D6805F46051C90A404D6B5C47
:1007A0004568DD40C560354D6D6805F44041890BF5
:1007B0003C4D6B5CC568B5FBF3F5056130BD29B1F7
:1007C0002E4A526902432D4B5A6104E02B4A52696A
:1007D00082432A4B5A61704729B1284A92690243E1
:1007E000264B9A6104E0254A92698243234B9A6121
:1007F000704729B1214AD2690243204BDA6104E0F3
:100800001E4AD26982431D4BDA61704729B11B4AE7
:10081000D2680243194BDA6004E0184AD268824376
:10082000164BDA60704729B1144A12690243134B20
:100830001A6104E0114A12698243104B1A61704731
:1008400014494039086070470F49C86470470B4924
:10085000C87170470948406A40F080700749486293
:10086000704701460020054A92680A4201D00120E3
:1008700000E0002070470149887270470010024074
:100880000000FFF8FFFFF6FE00004242D80042429F
:10089000201002408004424200127A0000093D000C
:1008A000000000201000002001460020FD4A1068D2
:1008B00000F03800084310607047FA49096821F0D9
:1008C0000801F84A11601146096801431160704738
:1008D000F449096821F01001F24A116011460968D3
:1008E000014311607047F048EE494860EF484860A6
:1008F0007047EC48006940F08000EA4908617047A1
:100900000420E849C96811F0010F01D001200EE070
:10091000E449C96811F0040F01D0022007E0E14961
:10092000C96811F0100F01D0032000E004207047C7
:1009300008B500200090FF20009002E00098401EC3
:10094000009000980028F9D108BD70B50446042530
:10095000FFF7D6FF054605E0FFF7EAFFFFF7D0FFF8
:100960000546641E012D01D1002CF5D104B90525E1
:10097000284670BD70B50546042440F6FF70FFF7A9
:10098000E4FF0446042C19D1C648006940F0020077
:10099000C449086108464561006940F040000861AB
:1009A00040F6FF70FFF7D1FF0446052C06D0BD4886
:1009B000006941F6FD710840BA490861204670BDE2
:1009C00010B5042440F6FF70FFF7BFFF0446042C67
:1009D00018D1B448006940F00400B24908610846E3
:1009E000006940F04000086140F6FF70FFF7ADFF7E
:1009F0000446052C06D0AB48006941F6FB7108405F
:100A0000A8490861204610BD10B5042440F6FF70C7
:100A1000FFF79BFF0446042C3BD1A348A149886003
:100A2000A24888600846006940F020000861084636
:100A3000006940F04000086140F6FF70FFF785FF55
:100A40000446042C1CD19748006941F6DF71084028
:100A5000944908610846006940F010000861A5202B
:100A6000934908800F20FFF770FF0446052C10D033
:100A70008C48006941F6EF7108408A49086108E036
:100A8000052C06D08748006941F6EF71084085497A
:100A90000861204610BDF8B506460D460424002026
:100AA00000900F20FFF751FF0446042C28D17D4809
:100AB000006940F001007B49086135800F20FFF795
:100AC00044FF0446042C12D1B01C0090280C00995D
:100AD00008800F20FFF739FF0446052C10D071481D
:100AE000006941F6FE7108406E49086108E0052C76
:100AF00006D06C48006941F6FE71084069490861FA
:100B00002046F8BD70B505460E4604240F20FFF7B9
:100B10001CFF0446042C13D16248006940F0010018
:100B2000604908612E800F20FFF70FFF0446052C57
:100B300006D05C48006941F6FE71084059490861D9
:100B4000204670BD70B505460E4604240F20FFF701
:100B5000FCFE0446042C17D1534852498860534880
:100B600088600846006940F0100008612E800F2060
:100B7000FFF7EBFE0446052C06D04A48006941F613
:100B8000EF71084047490861204670BD2DE9F047E4
:100B900004464FF6FF763746B046B1460425E44397
:100BA000E6B2C4F30727C4F307484FEA14690F20DD
:100BB000FFF7CBFE0546042D40D13B4839498860FC
:100BC0003A4888600846006940F010000861FF2E2E
:100BD00006D03748083006800F20FFF7B6FE0546DE
:100BE000042D08D1FF2F06D031480A3007800F208E
:100BF000FFF7ABFE0546042D0AD1B8F1FF0F07D071
:100C00002B480C30A0F800800F20FFF79EFE054611
:100C1000042D0AD1B9F1FF0F07D025480E30A0F8F6
:100C200000900F20FFF791FE0546052D06D01D48C8
:100C3000006941F6EF7108401A4908612846BDE88D
:100C4000F08770B50546042440F6FF70FFF77DFE7F
:100C50000446042C49D1144812498860134888601E
:100C60000846006940F0200008610846006940F02D
:100C70004000086140F6FF70FFF767FE0446042C51
:100C80002AD10848006941F6DF710840054908612A
:100C90000846006940F0100008615DB10020044979
:100CA00008800AE00020024023016745AB89EFCDB0
:100CB00000F8FF1FA5204549088040F6FF70FFF7A8
:100CC00044FE0446052C10D04148006941F6EF71FE
:100CD00008403F49086108E0052C06D03C480069FF
:100CE00041F6DF7108403A490861204670BD2DE9A0
:100CF000F04105460E4617460424364834498860BC
:100D0000354888600F20FFF720FE0446042C19D1D7
:100D10002F48006940F010002D49086147F0F800A5
:100D2000304328432949891C08800F20FFF70DFE16
:100D30000446052C06D02648006941F6EF710840AC
:100D4000234908612046BDE8F0812148C069800838
:100D500070471F48006A704700201D49C96911F09B
:100D6000020F01D0012000E0002070470020184948
:100D7000096811F0200F01D0012000E00020704729
:100D800029B1134A12690243114B1A6104E0104A57
:100D9000126982430E4B1A617047014600200129F7
:100DA00008D10B4AD26912F0010F01D0012008E0EE
:100DB000002006E0064AD2680A4201D0012000E085
:100DC000002070470249C8607047000000F8FF1F0C
:100DD0000020024023016745AB89EFCD70470B48E7
:100DE00080470B4981F308880A480047FEE7FEE781
:100DF000FEE7FEE7FEE7FEE7FEE7FEE7FEE7FEE7CB
:100E000005480649064A074B70470000DD0D0008FB
:100E100080060020310100088000002080060020AC
:100E200080020020800200207047704700BFFEE76C
:100E300000BFFEE700BFFEE770477047704770478E
:100E400070477047704770477047704770477047EA
:100E500070477047704770477047704770477047DA
:100E600070477047704770477047704770477047CA
:100E700070477047704770477047704770477047BA
:100E800070477047704770477047704770477047AA
:100E9000704770477047704770477047704770479A
:100EA000704770477047704770477047704770478A
:100EB000704770477047704700E0401E0128FCD81B
:100EC00070470022002100BF05E0002200E0521C14
:100ED000FF2AFCD9491C8142F7D3704710B5502036
:100EE00000F0F0FCF72000F005FD022000F0EAFC25
:100EF000072000F0E7FCA52000F0FCFC10BD10B5B9
:100F000000BF712000F0DEFC4FF40051F948FFF7FC
:100F10004EFA044604F0010080F00104002CF0D1E8
:100F2000C820FFF7CEFF10BD10B5122000F0CAFC9C
:100F30006420FFF7C6FFFFF7E2FF10BD10B51020D9
:100F400000F0C0FC002403E0FF2000F0D3FC641C90
:100F500040F648308442F7D3132000F0B3FC00245D
:100F600003E0FF2000F0C6FC641C40F648308442D9
:100F7000F7D310BD10B59820DF4908700020DF4975
:100F800008709820DE49087000F0D0FC062000F0C0
:100F900099FC172000F0AEFC172000F0ABFC1720E6
:100FA00000F0A8FC042000F08DFCFFF7A8FF002053
:100FB00000F088FC1F2000F09DFC0D2000F09AFC42
:100FC000612000F07FFCCC48007800F093FCCB4817
:100FD000007800F08FFCCA48007800F08BFC5020AD
:100FE00000F070FC972000F085FC10BD10B50024C7
:100FF00009E0C449095DC943C8B200F07BFC022086
:10100000FFF75FFF641CFF2CF3D910BD10B500245F
:1010100009E0BD49095DC943C8B200F06BFC02207C
:10102000FFF74FFF641CFF2CF3D910BD10B5202033
:1010300000F048FC002404E0B449085D00F05AFCCC
:10104000641C2C2CF8D3212000F03CFC002404E08C
:10105000AF49085D00F04EFC641C2A2CF8D3222016
:1010600000F030FC002404E0AA49085D00F042FCD6
:10107000641C2A2CF8D3232000F024FC002404E074
:10108000A549085D00F036FC641C2A2CF8D3242006
:1010900000F018FC002404E0A049085D00F02AFCE0
:1010A000641C2A2CF8D310BD2DE9F047074688466A
:1010B00014461D46DDE9089A822000F003FC082052
:1010C00000F018FC502000F0FDFB472000F012FC5F
:1010D000FFF7ACFF912000F0F5FB902000F0F2FB51
:1010E000F8B200F007FCA8F10101C8B200F002FC60
:1010F0002646E11704EB1161C1F3072000F0FAFB6B
:10110000E11704EB11610912A4EB0121C8B200F050
:10111000F1FB2E46E91705EB1161C1F3072000F042
:10112000E9FBE91705EB11610912A5EB0121491E45
:10113000C8B200F0DFFB282000F0DCFB102000F03C
:10114000C1FBC847132000F0BDFBD047122000F0C0
:10115000B9FB0A20FFF7B5FEFFF7D1FEBDE8F08727
:1011600010B5002409E06E49095DC943C8B200F01A
:10117000C1FB0220FFF7A5FE641CFF2CF3D910BDB4
:1011800010B5002409E06749095DC943C8B200F001
:10119000B1FB0220FFF795FE641CFF2CF3D910BDB4
:1011A00010B5002409E06049095DC943C8B200F0E8
:1011B000A1FB0220FFF785FE641CFF2CF3D910BDB4
:1011C00010B5002403E0002000F094FB641CFF2C09
:1011D000F9D910BD10B5982047490870002047493B
:1011E000087098204649087000F0A0FB012000F02C
:1011F00069FB032000F07EFB002000F07BFB2B202E
:1012000000F078FB2B2000F075FB032000F072FB50
:10121000062000F057FB172000F06CFB172000F0B1
:1012200069FB172000F066FB042000F04BFBFFF782
:1012300066FE002000F046FBBF2000F05BFB0D20A7
:1012400000F058FB302000F03DFB3C2000F052FB4A
:10125000612000F037FB2848007800F04BFB27485E
:10126000007800F047FB2648007800F043FB82201E
:1012700000F028FB122000F03DFB502000F022FB84
:10128000972000F037FB10BD10B5202000F01AFBAE
:10129000002404E02549085D00F02CFB641C2C2C84
:1012A000F8D3212000F00EFB002404E02049085D63
:1012B00000F020FB641C2A2CF8D3222000F002FB53
:1012C000002404E01B49085D00F014FB641C2A2C78
:1012D000F8D3232000F0F6FA002404E01649085D54
:1012E00000F008FB641C2A2CF8D3242000F0EAFA52
:1012F000002428E0001801401C0000201D000020F0
:101300001E0000207E1F00087E1E0008AA1A00088A
:10131000D61A0008001B00082A1B0008541B0008EE
:101320007E1D00087E1C00087E1B0008D6190008E0
:10133000021A00082C1A0008561A0008F849085D1D
:1013400000F0D8FA641C2A2CF8D310BD2DE9F04126
:1013500005460E46174607BB102000F0B3FA0024DE
:1013600003E0FF2000F0C6FA641C40F648308442D7
:10137000F7D30220FFF7A5FD132000F0A3FA002405
:1013800003E0305D00F0B6FA641C40F64830844259
:10139000F7D30220FFF795FD42E0012F20D1102066
:1013A00000F090FA002403E0285D00F0A3FA641C2A
:1013B00040F648308442F7D30220FFF782FD132025
:1013C00000F080FA002403E0305D00F093FA641C22
:1013D00040F648308442F7D30220FFF772FD1FE049
:1013E000102000F06FFA002403E0285D00F082FA7C
:1013F000641C40F648308442F7D30220FFF761FDB9
:10140000132000F05FFA002403E0FF2000F072FADE
:10141000641C40F648308442F7D30220FFF751FDA8
:10142000FFF732FF122000F04DFA6420FFF749FD6C
:10143000FFF765FDBDE8F08110B5102000F042FA1D
:10144000002403E0002000F055FA641C40F6483008
:101450008442F7D30220FFF734FD132000F032FA64
:10146000002403E0FF2000F045FA641C40F64830F9
:101470008442F7D30220FFF724FD10BD10B50446C7
:10148000FFF702FFA047122000F01CFA6420FFF7CC
:1014900018FDFFF734FDA047122000F013FA642076
:1014A000FFF70FFDFFF72BFD10BD08B50121202030
:1014B000FFF792F94FF4E060ADF8000002208DF8DC
:1014C000020010208DF8030069469648FEF7DEFE04
:1014D00001214020FFF780F94FF44840ADF80000AB
:1014E00002208DF8020010208DF8030069468E4816
:1014F000FEF7CCFE4FF40050ADF8000002208DF84E
:10150000020004208DF8030069468748FEF7BEFEFE
:101510004FF48050ADF8000002208DF8020010203A
:101520008DF8030069468048FEF7B0FE20217E4812
:10153000FEF757FF08BD10B5FEF7E4FF4FF480300B
:10154000FFF700F8FFF73DF8784908700846007883
:10155000012805D14FF4E0110004FFF75BF80DE01E
:101560000120FFF754F800BF2120FFF70EF80028F4
:10157000FAD04FF460110020FFF74CF81020FFF76D
:10158000A7F90220FFF790F90020FFF760F800208C
:10159000FFF76FF84FF48060FFF762F80120FFF764
:1015A00045F800BF3920FEF7F0FF0028FAD00220EE
:1015B000FFF73FF800BFFFF745F80828FBD10121EE
:1015C00044F20500FFF708F910BD1CB5FFF7B3FFA3
:1015D000FFF76BFFFFF7FEFDAFF2A310FFF74EFF23
:1015E000FFF77CFCFFF7F6FD002251490846FFF7A4
:1015F000ADFEFFF773FC4CF25030FFF762FCFFF7D3
:10160000E9FD01224B494A48FFF7A0FEFFF766FCBF
:10161000FFF7E0FDAFF27740AFF25B4140230022DD
:10162000CDE9001020211046FFF73EFDAFF2AF409C
:10163000AFF2934140230022CDE900102021104653
:10164000FFF732FDAFF2E740AFF2CB41402300227B
:10165000CDE9001020211046FFF726FDAFF25360C0
:10166000AFF2035140230022CDE9001020211046A3
:10167000FFF71AFDAFF28B60AFF26F6140230022DB
:10168000CDE9001020211046FFF70EFDFFF772FC98
:10169000FFF754FCFFF748FCFFF720FC00201CBDBF
:1016A00010B5102000F00EF9002403E0002000F037
:1016B00021F9641C40F648308442F7D30220FFF73A
:1016C00000FC132000F0FEF8002404E01849085D37
:1016D00000F010F9641C40F648308442F6D3022032
:1016E000FFF7EFFB10BD10B5102000F0EBF8002461
:1016F00003E0002000F0FEF8641C40F6483084420D
:10170000F7D3132000F0DEF8002404E00949085D57
:1017100000F0F0F8641C40F648308442F6D310BD67
:10172000801A000800140140001801401500002034
:101730007E240008C62F000810B5002403E0002016
:1017400000F0D8F8641C40F648308442F7D310BD4E
:1017500010B5002406E03549095DC943C8B200F060
:10176000C9F8641C40F648308442F4D310BD10B56B
:10177000002406E02E49095DC943C8B200F0BAF85A
:10178000641C40F648308442F4D310BD10B50024E8
:1017900006E02849095DC943C8B200F0ABF8641CF3
:1017A00040F648308442F4D310BD10B5002409E05F
:1017B0002149095DC943C8B200F09CF80220FFF737
:1017C00080FB641CFF2CF3D910BD10B5002409E088
:1017D0001A49095DC943C8B200F08CF80220FFF72E
:1017E00070FB641CFF2CF3D910BD10B5002409E078
:1017F0001349095DC943C8B200F07CF80220FFF725
:1018000060FB641CFF2CF3D910BD10B5002409E067
:101810000C49095DC943C8B200F06CF80220FFF71B
:1018200050FB641CFF2CF3D910BD70477E240008C8
:10183000C62F00080E3B00087E2000087E2100080D
:101840007E2200087E23000807E0002101E04A1CF8
:10185000D1B20229FBDB421ED0B20028F5D170477D
:1018600070B504460120FFF7EFFF002527E04FF495
:1018700000712C48FEF7B7FD0120FFF7E5FF14F0DB
:10188000800F05D04FF480612648FEF7AAFD04E0E2
:101890004FF480612348FEF7A6FD6006040E012088
:1018A000FFF7D2FF0120FFF707FB4FF400711D483F
:1018B000FEF797FD0120FFF7C7FF681CC5B2082D92
:1018C000D5DB70BD10B504460120FFF7BDFF4FF416
:1018D00080711448FEF787FD4FF400411248FEF76F
:1018E00082FD2046FFF7BCFF4FF480710D48FEF7E4
:1018F00078FD10BD10B504460120FFF7A5FF4FF499
:1019000080710848FEF76FFD4FF400410648FEF76E
:1019100068FD2046FFF7A4FF4FF480710148FEF7F1
:1019200060FD10BD001401400018014010B54FF4D7
:1019300000610B48FEF757FD4FF480410848FEF761
:1019400052FD4FF47A70FFF7BCFA4FF4804104481F
:10195000FEF747FD4FF47A70FFF7B3FA10BD0000B1
:1019600000180140704770477047754600F028F82E
:10197000AE4605006946534620F00700854618B07C
:1019800020B5FFF73DFABDE820404FF000064FF0CC
:1019900000074FF000084FF0000B21F00701AC46A4
:1019A000ACE8C009ACE8C009ACE8C009ACE8C009C3
:1019B0008D4670470446AFF300802046FEF7FFFBDC
:1019C000004870472000002001491820ABBEFEE708
:1019D000260002007047000807000001000A0F01FE
:1019E00000010000000000000000000000000000F6
:1019F00000000000000000000000000000000000E7
:101A00000000500807000001200A0F01000100003B
:101A100000000000000000000000000000000000C6
:101A2000000000000000000000000000100A050097
:101A300000012805060E0101000000000000000062
:101A40000000000000000000000000000000000096
:101A500000000000000080050A0000011405060EC9
:101A60000101000000000000000000000000000074
:101A70000000000000000000000000000000000066
:101A8000A00807000001100A0F010001000000007B
:101A90000000000000000000000000000000000046
:101AA0000000000000000000000000010E00000126
:101AB0000000000000000000000000000000000026
:101AC0000000000000000000000000000000000016
:101AD00000000000000000010E00000100000000F6
:101AE00000000000000000000000000000000000F6
:101AF00000000000000000000000000000000000E6
:101B000020010E00000100000000000000000000A5
:101B100000000000000000000000000000000000C5
:101B20000000000000000000000010010E00000195
:101B300000000000000000000000000000000000A5
:101B40000000000000000000000000000000000095
:101B50000000000000010E00000100000000000075
:101B60000000000000000000000000000000000075
:101B70000000000000000000000000000000FFFF67
:101B8000FFFFFFFFFFFFFFFFFFFFFFFFFFFFFFFF65
:101B9000FFFFFFFFFFFFFFFFFFFFFFFFFFFFFFFF55
:101BA000FFFFFFFFFFFFFFFFFFF7FFFFFFF7FFFF55
:101BB000FFF7FFFFFFE7FF000007FF000007FF80C0
:101BC0000007FFDFFFE7FFDFFFF7FFDFFFF7FFDFC4
:101BD000FFF7FFFFFFFFFFFFFFFFFFFFFFFFFFFF1D
:101BE000FFFFFFFFFFFFFFFFFFFFFFFFFFFFFFFF05
:101BF000FFFFFFFFFFFFFFFFFFFFFFFFFFFFFFFFF5
:101C0000FFFFFFFFFFFFFFFFFFFFFFFFFFFFFFFFE4
:101C1000FFFFFFFFFFFFFFFFFFFFFFFFFFFFFFFCD7
:101C200001FFFFE0003FFFC0001FFF87FF0FFF1F06
:101C3000FFC7FF3FFFE7FF7FFFF7FF7FFFF7FF3F94
:101C4000FFE7FF1FFFC7FF83FE0FFFC0001FFFE07E
:101C5000003FFFFC01FFFFFFFFFFFFFFFFFFFFFF54
:101C6000FFFFFFFFFFFFFFFFFFFFFFFFFFFFFFFF84
:101C7000FFFFFFFFFFFFFFFFFFFFFFFFFFFFFFFF74
:101C8000FFFFFFFFFFFFFFFFFFFFFFFFFFFFFFFF64
:101C9000FFFFFFFFFFFFFFFFFFFFFFFFFFFFFFFF54
:101CA000FFFFFFE0FE1FFF807E07FF803FC7FF1F93
:101CB0001FE7FF3FCFE7FF7FE7E7FF7FF3E7FF7F08
:101CC000F9E7FF7FFCE7FF3FFE67FF99FF27FFC1B2
:101CD000FF87FFE1FFC7FFFFFFFFFFFFFFFFFFFFE2
:101CE000FFFFFFFFFFFFFFFFFFFFFFFFFFFFFFFF04
:101CF000FFFFFFFFFFFFFFFFFFFFFFFFFFFFFFFFF4
:101D0000FFFFFFFFFFFFFFFFFFFFFFFFFFFFFFFFE3
:101D1000FFFFFFFFFFFFFFFFFFFFFFFFFFFFFFFFD3
:101D2000FFFFFFFFFFFFFFFFFFF7FFFFFFF7FFFFD3
:101D3000FFF7FFFFFFE7FF000007FF000007FF803E
:101D40000007FFDFFFE7FFDFFFF7FFDFFFF7FFDF42
:101D5000FFF7FFFFFFFFFFFFFFFFFFFFFFFFFFFF9B
:101D6000FFFFFFFFFFFFFFFFFFFFFFFFFFFFFFFF83
:101D7000FFFFFFFFFFFFFFFFFFFFFFFFFFFFFFFF73
:101D8000FFFFFFFFFFFFFFFFFFFFFFFFFFFFFFFF63
:101D9000FFFFFFFFFFFFFFFFFFFFFFFFFFFFFFFF53
:101DA000FFFFFFFFF87FFFE1E01FFF80C00FFF8014
:101DB0004FCFFF1E1FE7FF3F1FF7FF7FBFF7FF7FDC
:101DC000BFF7FF7FBFF7FF3FFFE7FF83FE0FFF83F4
:101DD000FE0FFFC3FE1FFFFFFFFFFFFFFFFFFFFF21
:101DE000FFFFFFFFFFFFFFFFFFFFFFFFFFFFFFFF03
:101DF000FFFFFFFFFFFFFFFFFFFFFFFFFFFFFFFFF3
:101E0000FFFFFFFFFFFFFFFFFFFFFFFFFFFFFFFFE2
:101E1000FFFFFFFFFFFFFFFFFFFFFFFFFFFFFFFFD2
:101E2000FFFFFFE0FE1FFF807E07FF803FC7FF1F11
:101E30001FE7FF3FCFE7FF7FE7E7FF7FF3E7FF7F86
:101E4000F9E7FF7FFCE7FF3FFE67FF99FF27FFC130
:101E5000FF87FFE1FFC7FFFFFFFFFFFFFFFFFFFF60
:101E6000FFFFFFFFFFFFFFFFFFFFFFFFFFFFFFFF82
:101E7000FFFFFFFFFFFFFFFFFFFFFFFFFFFFFFFF72
:101E8000FFFFFFFFFFFFFFFFFFFFFFFFFFFFFFFF62
:101E9000FFFFFFFFFFFFFFFFFFFFFFFFFFFFFFFF52
:101EA000FDFBFFFFFDFBFFFFFDFBFF000003FF004D
:101EB0000003FF000003FF800003FFE3FDFBFFF0D2
:101EC000FDFBFFFC7DFBFFFE1DFFFFFF8DFFFFFF06
:101ED000E1FFFFFFF1FFFFFFFDFFFFFFFFFFFFFF40
:101EE000FFFFFFFFFFFFFFFFFFFFFFFFFFFFFFFF02
:101EF000FFFFFFFFFFFFFFFFFFFFFFFFFFFFFFFFF2
:101F0000FFFFFFFFFFFFFFFFFFFFFFFFFFFFFFFFE1
:101F1000FFFFFFFFFFFFFFFFFFFFFFFFFFFFFFFFD1
:101F2000FFFFFFFFF87FFFE1E01FFF80C00FFF8092
:101F30004FCFFF1E1FE7FF3F1FF7FF7FBFF7FF7F5A
:101F4000BFF7FF7FBFF7FF3FFFE7FF83FE0FFF8372
:101F5000FE0FFFC3FE1FFFFFFFFFFFFFFFFFFFFF9F
:101F6000FFFFFFFFFFFFFFFFFFFFFFFFFFFFFFFF81
:101F7000FFFFFFFFFFFFFFFFFFFFFFFFFFFFFFFF71
:101F8000FFFFFFFFFFFFFFFFFFFFFFFFFFFFFFFF61
:101F9000FFFFFFFFFFFFFFFFFFFFFFFFFFFFFFFF51
:101FA000FFFFFF3FE07FFF3F801FFF3F000FFF3E2F
:101FB0003F8FFF3E7FE7FF3EFFF7FF3EFFF7FF3E0D
:101FC000FFF7FF3E7FF7FF073FF7FF001E67FFF8B1
:101FD0001E0FFFFFFE1FFFFFFFFFFFFFFFFFFFFFC3
:101FE000FFFFFFFFFFFFFFFFFFFFFFFFFFFFFFFF01
:101FF000FFFFFFFFFFFFFFFFFFFFFFFFFFFFFFFFF1
:10200000FFFFFFFFFFFFFFFFFFFFFFFFFFFFFFFFE0
:10201000FFFFFFFFFFFFFFFFFFFFFFFFFFFFFFFFD0
:10202000FDFBFFFFFDFBFFFFFDFBFF000003FF00CB
:102030000003FF000003FF800003FFE3FDFBFFF050
:10204000FDFBFFFC7DFBFFFE1DFFFFFF8DFFFFFF84
:10205000E1FFFFFFF1FFFFFFFDFFFFFFFFFFFFFFBE
:10206000FFFFFFFFFFFFFFFFFFFFFFFFFFFFFFFF80
:10207000FFFFFFFFFFFFFFFFFFFFFFFFFFFFFFFF70
:10208000FFFFFFFFFFFFFFFFFFFFFFFFFFFFFFFF60
:10209000FFFFFFFFFFFFFFFFFFFFFFFFFFFFFFFF50
:1020A000E07FFFCFC01FFF8F800FFF0F1FCFFF7F8D
:1020B0003FE7FF7F7FF7FF7F7FF7FF3F7FF7FF3F20
:1020C0003FE7FF9F9FC7FFC38F0FFFE0001FFFF099
:1020D000003FFFFE00FFFFFFFFFFFFFFFFFFFFFFCF
:1020E000FFFFFFFFFFFFFFFFFFFFFFFFFFFFFFFF00
:1020F000FFFFFFFFFFFFFFFFFFFFFFFFFFFFFFFFF0
:10210000FFFFFFFFFFFFFFFFFFFFFFFFFFFFFFFFDF
:10211000FFFFFFFFFFFFFFFFFFFFFFFFFFFFFFFFCF
:10212000FFFFFF3FE07FFF3F801FFF3F000FFF3EAD
:102130003F8FFF3E7FE7FF3EFFF7FF3EFFF7FF3E8B
:10214000FFF7FF3E7FF7FF073FF7FF001E67FFF82F
:102150001E0FFFFFFE1FFFFFFFFFFFFFFFFFFFFF41
:10216000FFFFFFFFFFFFFFFFFFFFFFFFFFFFFFFF7F
:10217000FFFFFFFFFFFFFFFFFFFFFFFFFFFFFFFF6F
:10218000FFFFFFFFFFFFFFFFFFFFFFFFFFFFFFFF5F
:10219000FFFFFFFFFFFFFFFFFFFFFFFFFFFFFFFF4F
:1021A000FFFFFF3FFFFFFF1FFFFFFF07FFFFFF21B5
:1021B000FFFFFF387FFFFF3E0FFFFF3F8007FF3F1E
:1021C000F007FF3FFE07FF1FFFFFFF0FFFFFFF03AB
:1021D000FFFFFFC3FFFFFFFFFFFFFFFFFFFFFFFF4B
:1021E000FFFFFFFFFFFFFFFFFFFFFFFFFFFFFFFFFF
:1021F000FFFFFFFFFFFFFFFFFFFFFFFFFFFFFFFFEF
:10220000FFFFFFFFFFFFFFFFFFFFFFFFFFFFFFFFDE
:10221000FFFFFFFFFFFFFFFFFFFFFFFFFFFFFFFFCE
:10222000E07FFFCFC01FFF8F800FFF0F1FCFFF7F0B
:102230003FE7FF7F7FF7FF7F7FF7FF3F7FF7FF3F9E
:102240003FE7FF9F9FC7FFC38F0FFFE0001FFFF017
:10225000003FFFFE00FFFFFFFFFFFFFFFFFFFFFF4D
:10226000FFFFFFFFFFFFFFFFFFFFFFFFFFFFFFFF7E
:10227000FFFFFFFFFFFFFFFFFFFFFFFFFFFFFFFF6E
:10228000FFFFFFFFFFFFFFFFFFFFFFFFFFFFFFFF5E
:10229000FFFFFFFFFFFFFFFFFFFFFFFFFFFFFFFF4E
:1022A000FFFFFFE1F83FFFC0F01FFF80600FFF1E40
:1022B00003CFFF3F87E7FF7F8FF7FF7F9FF7FF7F0A
:1022C0001FF7FF3E1FF7FF1C0FE7FF8047CFFFC040
:1022D000E00FFFE1F01FFFFFF83FFFFFFFFFFFFFF1
:1022E000FFFFFFFFFFFFFFFFFFFFFFFFFFFFFFFFFE
:1022F000FFFFFFFFFFFFFFFFFFFFFFFFFFFFFFFFEE
:10230000FFFFFFFFFFFFFFFFFFFFFFFFFFFFFFFFDD
:10231000FFFFFFFFFFFFFFFFFFFFFFFFFFFFFFFFCD
:10232000FFFFFF3FFFFFFF1FFFFFFF07FFFFFF2133
:10233000FFFFFF387FFFFF3E0FFFFF3F8007FF3F9C
:10234000F007FF3FFE07FF1FFFFFFF0FFFFFFF0329
:10235000FFFFFFC3FFFFFFFFFFFFFFFFFFFFFFFFC9
:10236000FFFFFFFFFFFFFFFFFFFFFFFFFFFFFFFF7D
:10237000FFFFFFFFFFFFFFFFFFFFFFFFFFFFFFFF6D
:10238000FFFFFFFFFFFFFFFFFFFFFFFFFFFFFFFF5D
:10239000FFFFFFFFFFFFFFFFFFFFFFFFFFFFFFFF4D
:1023A000FFFFFFF803FFFFE0007FFFC0003FFF8F4C
:1023B0008C1FFF3FCF8FFF7FE7C7FF7FF7E7FF7FD0
:1023C000F7F7FF7FF7F7FF3FE7F7FF8FC787FF803C
:1023D0000F8FFFC01F8FFFF03FFFFFFFFFFFFFFFCB
:1023E000FFFFFFFFFFFFFFFFFFFFFFFFFFFFFFFFFD
:1023F000FFFFFFFFFFFFFFFFFFFFFFFFFFFFFFFFED
:10240000FFFFFFFFFFFFFFFFFFFFFFFFFFFFFFFFDC
:10241000FFFFFFFFFFFFFFFFFFFFFFFFFFFFFFFFCC
:10242000FFFFFFE1F83FFFC0F01FFF80600FFF1EBE
:1024300003CFFF3F87E7FF7F8FF7FF7F9FF7FF7F88
:102440001FF7FF3E1FF7FF1C0FE7FF8047CFFFC0BE
:10245000E00FFFE1F01FFFFFF83FFFFFFFFFFFFF6F
:10246000FFFFFFFFFFFFFFFFFFFFFFFFFFFFFFFF7C
:10247000FFFFFFFFFFFFFFFFFFFFFFFFFFFFFFFF6C
:10248000FFFFFFFFFFFFFFFFFFFFFFFFFFFFFFFF5C
:10249000FFFFFFFFFFFFFFFFFFFFFFFFFFFFFFFF4C
:1024A000FFFFFFFFFFFFFFFFFFFFFFFFFFFFFFFF3C
:1024B000FFFFFFFFFFFFFFFFFFFFFFFFFFFFFFFF2C
:1024C000FFFFFFFFFFFFFFFFFFFFFFFFFFFFFFFF1C
:1024D000FFFFFFFFFFFFFFFFFFFFFFFFFFFFFFFF0C
:1024E000FFFFFFFFFFFFFFFFFFFFFFFFFFFFFFFFFC
:1024F000FFFFFFFFFFFFFFFFFFFFFFFFFFFFFFFFEC
:10250000FFFFFFFFFFFFFFFFFFFFFFFFFFFFFFFFDB
:10251000FFFFFFFFFFFFFFFFFFFFFFFFFFFFFFFFCB
:10252000FFFFFFFFFFFFFFFFFFFFFFFFFFFFFFFFBB
:10253000FFFFFFFFFFFFFFFFFFFFFFFFFFFFFFFFAB
:10254000FFFFFFFFFFFFFFFFFFFFFFFFFFFFFFFF9B
:10255000FFFFFFFFFFFFFFFFFFFFFFFFFFFFFFFF8B
:10256000FFFFFFFFFFFFFFFFFFFFFFFFFFFFFFFF7B
:10257000FFFFFFFFFFFFFFFFFFFFFFFFFFFFFFFF6B
:10258000FFFFFFFFFFFFFFFFFFFFFFFFFFFFFFFF5B
:10259000FFFFFFFFFFFFFFFFFFFFFFFFFFFFFFFF4B
:1025A000FFFFFFFFFFFFFFFFFFFF00000FFFFFFF29
:1025B000FFFFFFFFFFFFFFF0000000000700000F1C
:1025C000FFFFFFFFFFFFFFFFFFFFF000000000071E
:1025D00000008FFFFFFFFFFFFFFFFFFFFFFFFFFF79
:1025E000FFFFFF06008FFFFFFFFFFFFFFFFFFFFF63
:1025F000F0000000000706008FFFFFFFFFFFFFFF56
:10260000FFFFFFFFFFFFFFFFFF07008FFFFFFFFF41
:10261000FFFFFFFFFFF7FFFFFFFFFFFF00CC8FFF74
:10262000FFFFFFFFFFFFFFFFE7FFFFFFFFFFFF00D1
:10263000FC8FFFFFFFFFFFFFFFFFFFEFFFFFFFFF2D
:10264000FFFF01FC8FFFFFFFFFFFFFFFFFFFE81F02
:10265000FFFFFFFFFF07CC8FFFFFFFFFFFFFFFFF25
:10266000FFE380000000000707808FFFFFFFFFFFF0
:10267000FFFFFFE3FE0FFFFFFFFFFF06008FFFFFDF
:10268000FFFFFFFFFFFFC060000000000007060023
:102690008FFFFFFFFFFFFFFFFC004007FFFFFFFF73
:1026A000FF000C8FFFFFFFFFFFFFFFFE0000000099
:1026B00000000007000C8FFFFFFFFFFFFFFFFF8000
:1026C00000000000000007007C8FFFFFFFFFFFFFFE
:1026D000F8FFC00000000000000703EC8FFFFFFFC1
:1026E000FFFFFFF07FC0000FFFFFFFFFFF070C8F12
:1026F000FFFFFFFFFFFFE03FE0000FFFFFFFFFFFD7
:10270000070C8FFFFFFFFFFFFFE01FE00F800000BF
:1027100000000707EC8FFFFFFFFFFFFFF00FC00F68
:1027200080000000000700FC8FFFFFFFFFFFFFF8A5
:10273000078000000000000007000C8FFFFFFFFF74
:10274000FFFFF00F10000FFFFFFFFFFF000C8FFFD8
:10275000FFFFFFFFFFE01FF8000FFFFFFFFFFF007D
:10276000008FFFFFFFFFFFFFE03FF8001FFFFFFFAD
:10277000FFFF003C8FFFFFFFFFFFFFF07FF800002F
:102780000000000007003C8FFFFFFFFFFFFFF8FF86
:10279000F000000000000007000C8FFFFFFFFFFFAC
:1027A000FFFFFFF2180FFFFFFFFFFF000C8FFFFF7F
:1027B000FFFFFFFFFFFFE73F0FFFFFFFFFFF060CDD
:1027C0008FFFFFFFFFFFFFFFFFFFFFE8000000009C
:1027D00007060C8FFFFFFFFFFFFFFFFFFFFFDFFF7D
:1027E000FFFFFFFF07FC8FFFFFFFFFFFFFFFFFFF64
:1027F000C09FFFFFFFFFFF07FC8FFFFFFFFFFFFFF3
:10280000FFFFFFDF3FFFFFFFFFFF060C8FFFFFFF14
:10281000FFFFFFFFFFFFDFF0000000000700008F59
:10282000FFFFFFFFFFFFFFFFFFC3F00000000007F7
:1028300001008FFFFFFFFFFFFFFFFFFFFBF0000026
:1028400000000707808FFFFFFFFFFFFFFFFFFFFF75
:10285000FFFFFFFFFFFF07C08FFFFFFFFFFFFFFF2F
:10286000FFFFFFF0000000000707C08FFFFFFFFF22
:10287000FFFFFFFFFFFFF0000000000706C08FFF13
:10288000FFFFFFFFFFFFFFFFFFFFFFFFFFFFFF0651
:10289000CC8FFFFFFFFFFFFFFFFFFFFFFFFFFFFFEB
:1028A000FFFF07FC8FFFFFFFFFFFFFFFFFFFFFFFA3
:1028B000FFFFFFFFFF07FC8FFFFFFFFFFFFFFFFF93
:1028C000FFFFF00000000007060C8FFFFFFFFFFF77
:1028D000FFFFFFFFFFFFFFFFFFFFFF00008FFFFF76
:1028E000FFFFFFFFFFFFFFFFFFFFFFFFFFFF0000F6
:1028F0008FFFFFFFFFFFFFFFFFFFFFF00000000063
:102900000707788FFFFFFFFFFFFFFFFFFFFFF000CC
:102910000000000706FC8FFFFFFFFFFFFFFFFFFF28
:10292000FFFFFFFFFFFFFF06EC8FFFFFFFFFFFFF33
:10293000FFFFFFFFFFFFFFFFFFFF06EC8FFFFFFF23
:10294000FFFFFFFFFFFFFFFFFFFFFFFFFF06EC8F13
:10295000FFFFFFFFFFFFFFFFFFFFF000000000078A
:1029600007EC8FFFFFFFFFFFFFFFFFFFFFF00000FF
:1029700000000707CC8FFFFFFFFFFFFFFFFFFFFFF8
:10298000FFFFFFFFFFFF019C8FFFFFFFFFFFFFFF28
:10299000FFFFFFFFFFFFFFFFFF00008FFFFFFFFFB5
:1029A000FFFFFFFFFFFFF00000000007060C8FFF96
:1029B000FFFFFFFFFFFFFFFFFFFFFFFFFFFFFF071F
:1029C000FC8FFFFFFFFFFFFFFFFFFFFFFFFFFFFF8A
:1029D000FFFF07FC8FFFFFFFFFFFFFFFFFFFFFF081
:1029E0000000000007060C8FFFFFFFFFFFFFFFFF47
:1029F000FFFFFFFFFFFFFFFF00008FFFFFFFFFFF55
:102A0000FFFFFFFFFFF0000000000700F08FFFFF57
:102A1000FFFFFFFFFFFFFFFFFFFFFFFFFFFF03F8C9
:102A20008FFFFFFFFFFFFFBFFFFFFFF00000000071
:102A30000707FC8FFFFFFFFFFFFFBFFFFEFFFFFF4A
:102A4000FFFFFFFF071C8FFFFFFFFFFFFF3FFFF8A8
:102A5000FFFFFFFFFFFFFF060C8FFFFFFFFFFFFEE3
:102A60003FFFC000000000000007060C8FFFFFFFC3
:102A7000FFFFFE3FFC00FFFFFFFFFFFFFF07FC8F94
:102A8000FFFFFFFFFFFC3F8000FFFFFFFFFFFFFF97
:102A900007FC8FFFFFFFFFFFFC000000FFFFFFFFB1
:102AA000FFFFFF060C8FFFFFFFFFFFFFFF8000FF10
:102AB000FFFFFFFFFFFF00008FFFFFFFFFFFFFFF94
:102AC000FC00FFFFFFFFFFFFFF00008FFFFFFFFF86
:102AD000FFFFFFFFC00000000000000700008FFFA5
:102AE000FFDFFFFFFFBFFFF800000000000007004E
:102AF000008FFFFF9FFFFFFE3FFFFEFFFFFFFFFF77
:102B0000FFFF00008FFFFF1FFFFFF8000000000025
:102B1000000000000700F08FFFFF1FFFFF80000094
:102B2000000000000000000703F88FFFFE1FFFFEFB
:102B3000000000000000000000000707FC8FFFFC01
:102B40001FFFF8003FFFFFFFFFFFFFFFFFFF071C16
:102B50008FFFFC1FFFC0003C01FFFFFFFFFFFFFFD7
:102B6000FF060C8FFFF81FFE00003049FFE0000059
:102B700000000007060C8FFFF81FF800003349FF24
:102B8000C000000000000707FC8FFFF800000000F5
:102B90002001FF87FFFFFFFFFFFF07FC8FFFFFFF05
:102BA000F800002001FF8FFFFFFFFFFFFF060C8FE3
:102BB000FFFFFFFE00003349FF8700000000000711
:102BC00000008FFFFFFFFFC0003049FF80000000C2
:102BD00000000701F08FFFFFFFFFF8003C01FFE05E
:102BE00000000000000703F88FFFFFFFFFFF003F1A
:102BF000FFFFFFFFFFFFFFFFFF07FC8FFFFFFFFF50
:102C0000FFE000000000000000000007070C8FFF3D
:102C1000FFFFFFFFF80000000000000000000706B3
:102C20000C8FFFFFFFFFFFFE3FFF7FFFFFFFFFFF58
:102C3000FFFF071C8FFFFFFFFFFFFFBFF07FFFFFBE
:102C4000FFFFFFFFFF07FC8FFFFFFFFFFFFFFF807E
:102C5000000000000000000703F88FFFFFFFFFFFE8
:102C6000FFFC00000000000000000701F08FFFFFE4
:102C7000FFFFFFFFBF800000000000000007000012
:102C80008FFFFFFFFFFFFFBFF878FFFFFFFFFFFF92
:102C9000FF01F08FFFFFFFFFFFFF3FFF40FFFFFF40
:102CA000FFFFFFFF03F88FFFFFFFFFFFFE3FFF80E7
:102CB0000000000000000707FC8FFFFFFFFFFFFE82
:102CC0003FF80000000000000007070C8FFFFFFF27
:102CD000FFFFFC3FC00000000000000007060C8F53
:102CE000FFFFFFFFFFFC000000FFFFFFFFFFFFFFF4
:102CF000071C8FFFFFFFFFFFFFFFC000FFFFFFFF6D
:102D0000FFFFFF07FC8FFFFFFFFFFFFFFFF800FF44
:102D1000FFFFFFFFFFFF03F88FFFFFFFFFFFFFFF36
:102D2000FF800000000000000701F08FFFFFFFFFA1
:102D3000FFFFFFFFC0FFFFFFFFFFFFFF00008FFF50
:102D4000FFFFFFFFFFFFFFF8FFF00000000007009C
:102D5000008FFFFFFFFFFFFFFFEFFFFFF00000000E
:102D6000000700608FFFFFFFFFFFFFFFCFFFFE7038
:102D70000000000007077C8FFFFFFFFFFFFFFF8FB2
:102D8000FFF87FFFFFFFFFFF03788FFFFFFFFFFFCD
:102D9000FFFF8FFFC0000000000007066C8FFFFFE1
:102DA000FFFFFFFFFF0FFE007FFFFFFFFFFF066C2F
:102DB0008FFFFFFFFFFFFFFF0FF8007FFFFFFFFF09
:102DC000FF060C8FFFFFFFFFFFFFFE0000007FFFED
:102DD000FFFFFFFF071C8FFFFFFFFFFFFFFE00004D
:102DE0000000000000000707FC8FFFFFFFFFFFFF50
:102DF000FFFFF80000000000000703F88FFFFFFF4F
:102E0000FFFFFFFFFFFF007FFFFFFFFFFF01F08FCE
:102E1000FFFFFFFFFFFFFFFFFFE0000000000007D4
:102E200000000FFFFFFFFFFFFFFFFFFFFC000000A0
:102E300000000700000FFFFFFFFFFFFFFFFFFFFE87
:102E40007FFFFFFFFFFF00000FFFFFFFFFFFFFFF00
:102E5000FFFFFFFFFFFFFFFFFFFFFFFFFFFFFFFF82
:102E6000FFFFFFFFFFFFFFFFFFFFFFFFFFFFFFFF72
:102E7000FFFFFFFFFFFFFFFFFFFFFFFFFFFFFFFF62
:102E8000FFFFFFFFFFFFFFFFFFFFFFFFFFFFFFFF52
:102E9000FFFFFFFFFFFFFFFFFFFFFFFFFFFFFFFF42
:102EA000FFFFFFFFFFFFFFFFFFFFFFFFFFFFFFFF32
:102EB000FFFFFFFFFFFFFFFFFFFFFFFFFFFFFFFF22
:102EC000FFFFFFFFFFFFFFFFFFFFFFFFFFFFFFFF12
:102ED000FFFFFFFFFFFFFFFFFFFFFFFFFFFFFFFF02
:102EE000FFFFFFFFFFFFFFFFFFFFFFFFFFFFFFFFF2
:102EF000FFFFFFFFFFFFFFFFFFFFFFFFFFFFFFFFE2
:102F0000FFFFFFFFFFFFFFFFFFFFFFFFFFFFFFFFD1
:102F1000FFFFFFFFFFFFFFFFFFFFFFFFFFFFFFFFC1
:102F2000FFFFFFFFFFFFFFFFFFFFFFFFFFFFFFFFB1
:102F3000FFFFFFFFFFFFFFFFFFFFFFFFFFFFFFFFA1
:102F4000FFFFFFFFFFFFFFFFFFFFFFFFFFFFFFFF91
:102F5000FFFFFFFFFFFFFFFFFFFFFFFFFFFFFFFF81
:102F6000FFFFFFFFFFFFFFFFFFFFFFFFFFFFFFFF71
:102F7000FFFFFFFFFFFFFFFFFFFFFFFFFFFFFFFF61
:102F8000FFFFFFFFFFFFFFFFFFFFFFFFFFFFFFFF51
:102F9000FFFFFFFFFFFFFFFFFFFFFFFFFFFFFFFF41
:102FA000FFFFFFFFFFFFFFFFFFFFFFFFFFFFFFFF31
:102FB000FFFFFFFFFFFFFFFFFFFFFFFFFFFFFFFF21
:102FC000FFFFFFFFFFFFFFFFFFFFFFFFFFFFFFFF11
:102FD000FFFFFFFFFF8000003FFFFFFFFFFFFFFF3E
:102FE000FFFFFFFFFFFFFFFF8000803FFFFFFFFFAE
:102FF000FFFFFFFFFFFFFFFFFFFFFF803F803FFF5F
:10300000FFFFFFFFFFFFFFFFFFFFFFFFFFFF803F0F
:10301000803FFFFFFFFFFFFFFFFFFFFFFFFFFFFFFF
:10302000FF8030803FFFFFFFFFFFFFFFFFFFFFFF3D
:10303000FFFFFFFF803F803FFFFFFFFFFFFFFFFF1E
:10304000FFFFFFFFFFFFFF803F803FFFFFFFFFFF0E
:10305000FFFFFFFFFFFFFFFFFFFF8030803FFFFF0D
:10306000FFFFFFFFFFFFFFFFFFFF81FFFF803F80AC
:103070003FFFFFFFFFFFFFFFFFFFFFFFFF01FFFF1E
:10308000803F803FFFFFFFFFFFFFFFFFFFFFFFFFCE
:103090007FFFFF8020803FFFFFFFFFFFFFFFFFFF5D
:1030A000FFFFFF3FFFFF8000003FFFFFFFFFFFFF2D
:1030B000FFFFFFFFFFF801FFFF8000003FFFFFFF62
:1030C000FFFFFFFFFFFFFFFFF801FFFF801F003F33
:1030D000FFFFFFFFFFFFFFFFFFFFFFFFFFFFFF807F
:1030E0003F803FFFFFFFFFFFFFFFFFFFFFFFFFB33B
:1030F000FFFF8031803FFFFFFFFFFFFFFFFFFFFF6C
:10310000FFFF21FFFF8031803FFFFFFFFFFFFFFF39
:10311000FFFFFFFFFF65FFFF803F803FFFFFFFFFD7
:10312000FFFFFFFFFFFFFFFF4DFFFF801F003FFF7F
:10313000FFFFFFFFFFFFFFFFFFFFFF09FFFF800013
:10314000003FFFFFFFFFFFFFFFFFFFFFFFFF9BFFB2
:10315000FF8000003FFFFFFFFFFFFFFFFFFFFFFFBC
:10316000FFFFFFFF8010803FFFFFFFFFFFFFFFFF1C
:10317000FFFFFFFF8BFFFF8030803FFFFFFFFFFF60
:10318000FFFFFFFFFFFFFF09FFFF8021803FFFFFE1
:10319000FFFFFFFFFFFFFFFFFFFF6DFFFF803F808F
:1031A0003FFFFFFFFFFFFFFFFFDFFFFFFF69FFFFA5
:1031B000801F003FFFFFFFFFFFFFFFE39FFFFFFFB9
:1031C00001FFFF8000003FFFFFFFFFFFFFFFC13F48
:1031D000FFFFFF83FFFF8000003FFFFFFFFFFFFFB8
:1031E000FFDC7FFFFFFFFFFFFF8000803FFFFFFF4F
:1031F000FFFFFFFFDCFFFFFFFF7FFFFF8000803F3F
:10320000FFFFFFFFFFFFFFDDFFFFFFFF7FFFFF80EF
:1032100000003FFFFFFFFFFFFFFFC01FFFFFFF0199
:10322000FFFF8000003FFFFFFFFFFFFFFFC01FFF0A
:10323000FFFF01FFFF8020003FFFFFFFFFFFFFFFB9
:10324000FFFFFFFFFFFFFFFF803C003FFFFFFFFF8F
:10325000FFFFFFFFFFFFFFFB7FFFFF803F003FFF00
:10326000FFFFFFFFFFFFDDDFFFFFF801FFFF800330
:10327000E03FFFFFFFFFFFFFFFDDDFFFFFFC01FF80
:10328000FF803FF03FFFFFFFFFFFFFFFDDDFFFFF9E
:10329000FF7FFFFF803C103FFFFFFFFFFFFFFFDDD1
:1032A000DFFFFFFF8BFFFF8020003FFFFFFFFFFFDF
:1032B000FFFFC01FFFFFFF09FFFF8000803FFFFFF0
:1032C000FFFFFFFFFFC01FFFFFFF6DFFFF803F807D
:1032D0003FFFFFFFFFFFFFFFFFFFFFFFFF69FFFF54
:1032E000803F803FFFFFFFFFFFFFFFFFFFFFFFFF6C
:1032F00001FFFF8024803FFFFFFFFFFFFFFFE3FF91
:10330000FFFFFF83FFFF8037803FFFFFFFFFFFFFCF
:10331000FFC1FFFFFFFFFFFFFF8013803FFFFFFFA5
:10332000FFFFFFFFDDFFFFFFFC3DFFFF8000003FD1
:10333000FFFFFFFFFFFFFFDDFFFFFFF801FFFF8043
:1033400000803FFFFFFFFFFFFFFFC01FFFFFFBC32A
:10335000FFFF81FF803FFFFFFFFFFFFFFFC01FFF59
:10336000FFFBCFFFFF81FF803FFFFFFFFFFFFFFF5E
:10337000FFFFFFFFF801FFFF8100803FFFFFFFFF1E
:10338000FFFFFFFF9FFFFFF801FFFF8000003FFFEF
:10339000FFFFFFFFFFFFFC1FFFFFFFFFFFFF80009E
:1033A000003FFFFFFFFFFFFFFFE07FFFFFFFFFFF8B
:1033B000FF801F003FFFFFFFFFFFFFFFC6FFFFFF74
:1033C000FFFFFFFF803F803FFFFFFFFFFFFFFFC6C4
:1033D000FFFFFFFFFFFFFF8020803FFFFFFFFFFF9A
:1033E000FFFFE07FFFFFFFFFFFFF8031903FFFFF08
:1033F000FFFFFFFFFFFC1FFFFFFFFFFFFF803FF00E
:103400003FFFFFFFFFFFFFFFFF9FFFFFFFFFFFFFEC
:10341000803FF03FFFFFFFFFFFFFFFFFFFFFFFF8D1
:1034200001FFFF8020103FFFFFFFFFFFFFFFE3FFD3
:10343000FFFFF801FFFF8000003FFFFFFFFFFFFFDE
:10344000FFC1FFFFFFFFFFFFFF8013003FFFFFFFF4
:10345000FFFFFFFFDDFFFFFFFF81FFFF8037803FA2
:10346000FFFFFFFFFFFFFFDDFFFFFFFF01FFFF800B
:1034700024803FFFFFFFFFFFFFFFC01FFFFFFF593B
:10348000FFFF803D803FFFFFFFFFFFFFFFC01FFFEB
:10349000FFFF4DFFFF8019003FFFFFFFFFFFFFFF12
:1034A000FFFFFFFFFF21FFFF8000003FFFFFFFFF47
:1034B000FFFFFFFFFFFFFFFFB3FFFF8000803FFF25
:1034C000FFFFFFFFFFFFFEFFFFFFFFFFFFFF80BFCC
:1034D000803FFFFFFFFFFFFFFFFEFFFFFFFFFFFF3C
:1034E000FF80BF803FFFFFFFFFFFFFFFFEFFFFFFEB
:1034F000F901FFFF8020803FFFFFFFFFFFFFFFFE7E
:10350000FFFFFFF901FFFF8000003FFFFFFFFFFF0C
:10351000FFFFFFFFFFFFFFFFFFFF8000803FFFFF78
:10352000FFFFFFFFFFDDDFFFFFFF7DFFFF81FF806C
:103530003FFFFFFFFFFFFFFFDDDFFFFFFC01FFFF9E
:1035400081FF803FFFFFFFFFFFFFFFDDDFFFFFFC8D
:1035500001FFFF8131803FFFFFFFFFFFFFFFDDDF46
:10356000FFFFFF7FFFFF8020803FFFFFFFFFFFFF88
:10357000FFC01FFFFFFF7FFFFF803F803FFFFFFF78
:10358000FFFFFFFFC01FFFFFFF7FFFFF801F003F08
:10359000FFFFFFFFFFFFFFFFFFFFFFFF01FFFF80B8
:1035A00000003FFFFFFFFFFFFFFFFFFFFFFFFF01E7
:1035B000FFFF8000003FFFFFFFFFFFFFFFFFFFFF58
:1035C000FFFFFFFFFF8004003FFFFFFFFFFFFFFF44
:1035D000FFFFFFFFFF81FFFF8004003FFFFFFFFFB2
:1035E000FFFFFFFFFFFFFFFF01FFFF8004003FFF22
:1035F000FFFFFFFFFFFFFFFFFFFFFF59FFFF8000FF
:10360000003FFFFFFFFFFFFFFFC01FFFFFFF4DFF5A
:10361000FF8000803FFFFFFFFFFFFFFFC01FFFFF96
:10362000FF21FFFF81FF803FFFFFFFFFFFFFFFFD47
:10363000FFFFFFFFB3FFFF81FF803FFFFFFFFFFFA3
:10364000FFFFFDFFFFFFFFFFFFFF8131803FFFFF17
:10365000FFFFFFFFFFFDFFFFFFFC3FFFFF8020801C
:103660003FFFFFFFFFFFFFFFC01FFFFFF81FFFFF30
:10367000803F803FFFFFFFFFFFFFFFC01FFFFFFBFB
:10368000DFFFFF801F003FFFFFFFFFFFFFFFFFFF88
:10369000FFFFFBDFFFFF8000003FFFFFFFFFFFFF9B
:1036A000FFFFFFFFFFF801FFFF8000003FFFFFFF6C
:1036B000FFFFFFFFE73FFFFFF801FFFF801F003F15
:1036C000FFFFFFFFFFFFFFC71FFFFFFFFFFFFF80A1
:1036D0003F803FFFFFFFFFFFFFFFDFDFFCF7FFFF44
:1036E000FFFF8031803FFFFFFFFFFFFFFFDFDFF8BD
:1036F00077FFFFFFFF8031803FFFFFFFFFFFFFFFEE
:10370000CF9FF337FFFFFFFF803F803FFFFFFFFFAB
:10371000FFFFFFE03FF797FFFFFFFF801F003FFF26
:10372000FFFFFFFFFFFFF07FF1C7FFFFFFFF8000FC
:10373000003FFFFFFFFFFFFFFFFFFFF9E7FF7DFFF8
:10374000FF8000003FFF00000003FFFFFFFFFFFFBF
:10375000FC01FFFF801F003FFF00000003FFFFC0D0
:103760001FF79FFC01FFFF803F803FFF0000000329
:10377000FFFFC01FF70FFF7FFFFF8031803FFF007B
:10378000000003FFFFFE3FF667FF7FFFFF803180F1
:103790003FFF00000003FFFFF8FFF2F7FF7FFFFF8E
:1037A000803F803FFF00000003FFFFE1FFF047FF85
:1037B00001FFFF801F003FFF007FFF83FFFFC01F4F
:1037C000FC4FFF01FFFF8000003FFF007FFF83FFF2
:1037D000FFC01FFFFFFFFFFFFF8000003FFF007FD4
:1037E000FF83FFFFFFFFFFFFFF83FFFF8020E03F1E
:1037F000FF007FFF83FFFFFFFFFFFFFF01FFFF8051
:103800003CF03FFF00780783FFFFC01FF007FF3940
:10381000FFFF803E903FFF00780783FFFFC01FF04F
:1038200007FF39FFFF8022903FFF00780783FFFFEB
:10383000FFFFF9FFFF01FFFF803FF03FFF00780728
:1038400083FFFFFFFFFDFFFF83FFFF801DE03FFFC2
:1038500000780783FFFFFFFFFFFFFFFFFFFF8000F0
:10386000003FFF00780783FFFFFFFFFDF7FF83FFA7
:10387000FF8000003FFF00780783FFFFFFFFFC474A
:10388000FF01FFFF8000803FFF00780783FFFFFFFD
:10389000FFFE0FFF3DFFFF8000803FFF0F01E003B1
:1038A000FFFFFF7FFE0FFF39FFFF8000003FFF0F8C
:1038B00001E003FFFFC01FFC47FF003FFF80200027
:1038C0003FFF0F01E003FFFFC01FFDF7FF003FFFB9
:1038D000803E003FFF0F01E003FFFFE37FFFFFFF9C
:1038E000FFFFFF803F803FFF0F01E783FFFFF87F6F
:1038F000FCF7FF83FFFF800F803FFF0F01E783FF8F
:10390000FFFE7FF877FF01FFFF803E003FFF0F01C2
:10391000E783FFFFFFFFF337FF3DFFFF803E003FE0
:10392000FF0F01E783FFFFDE7FF797FF39FFFF807F
:103930000F803FFF0FFFE783FFFFDC3FF1C7FF0072
:103940003FFF803F803FFF0FFFE783FFFFD99FF9D5
:10395000E7FF003FFF803E003FFF0FFFE783FFFFD1
:10396000CBDFFFFFFFFFFFFF8020003FFF0FFFE7E0
:1039700083FFFFC11FF79FFF01FFFF8020003FFF74
:1039800000000783FFFFF13FF70FFF01FFFF803EBD
:10399000003FFF00000783FFFFFFFFF667FFF9FF0F
:1039A000FF803F803FFF00000783FFFFFFDFF2F74C
:1039B000FFFDFFFF800F803FFF007FFF83FFFFFFC2
:1039C000DFF047FF01FFFF803E003FFF007FFF83E6
:1039D000FFFFFFFFFC4FFF03FFFF803E003FFF00A4
:1039E0007FFF83FFFFFFFFFFFFFFFFFFFF800F80D1
:1039F0003FFF007FFF83FFFFFFFFFFFFFDC3FFFFD0
:103A0000803F803FFF007FFF83FFFFFFFFFFFFF945
:103A1000C1FFFF803E003FFF00000003FFFFC01F0B
:103A2000F007FB9DFFFF8020003FFF00000003FF29
:103A3000FFC01FF007FB1DFFFF8020003FFF0000BD
:103A40000003FFFFE7FFF9FFF839FFFF803E003F6B
:103A5000FF00000003FFFFF7FFFDFFFC7BFFFF807F
:103A60003F803FFF00000003FFFFFFFFFFFFFFFF5E
:103A7000FFFF800F803FFF00000003FFFFFFFFFFFD
:103A8000FFFFFFFFFF803E003FFFFFFFFFFFFFFF45
:103A9000FFFFFFFFFFFFFFFF803E003FFFFFFFFF35
:103AA000FFFFFFFFFFFFFFFFFFFFFF800F803FFFD4
:103AB000FFFFFFFFFFFFFFFFFFFFFFFFFFFF803F55
:103AC000803FFFFFFFFFFFFFFFFFFFFFFFFFFFFF45
:103AD000FF803E003FFFFFFFFFFFFFFFFFFFFFFFF5
:103AE000FFFFFFFF8020003FFFFFFFFFFFFFFFFF03
:103AF000FFFFFFFFFFFFFF8000003FFFFFFFFFFF13
:103B0000FFFFFFFFFFFFFFFFFFFF8000003FFFFF02
:103B1000FFFFFFFFFFFFFFFFFFFCFFFFFFFFFFFFB8
:103B2000FFFFFFFFFFFFFFFFFFFFFFFFFCFFFFFFA8
:103B3000FFFFFFFFFFFFFFFFFFFFFFFFFFFFFFFC98
:103B4000FFFFFFFFFFFFFFFFFFFFFFFFFFFFFFFF85
:103B5000FFFFFCFFFFFFFFFFFFFFFFFFFFFFFFFF78
:103B6000FFFFFFFFFFFCFFFFFFFFFFFFFFFFFFFF68
:103B7000FFFFFFFFFFFFFFFFFCFFFFFFFFFFFFFF58
:103B8000FFFFFFFFFFFFFFFFFFFFFFFCFFFFFFFF48
:103B9000FFFFFFFFFFFFFFFFFFFFFFFFFFFFFCFF38
:103BA000FFFFFFFFFFFFFFFFFFFFFFFFFFFFFFFF25
:103BB000FFFCFFFFFFFFFFFFFFFFFFFFFFFFFFFF18
:103BC000FFFFFFFFFCFFFFFFFFFFFFFFFFFFFFFF08
:103BD000FFFFFFFFFFFFFFFCFFFFFFFFFFFFFFFFF8
:103BE000FFFFFFFFFFFFFFFFFFFFFCFFFFFFFFFFE8
:103BF000FFFFFFFFFFFFFFFFFFFFFFFFFFFCFFFFD8
:103C0000FC01FFFFFFFFFFFFFFFFFFFFFFFFFFFFC5
:103C1000FCFFFFF0007FFFFFFFFFFFFFFFFFFFFF45
:103C2000FFFFFFFCFFFFC1FE1FFFFFFFFFFFFFFFC6
:103C3000FFFFFFFFFFFFFCFFFE3FFFE3FFFFFFFF74
:103C4000FFFFFFFFFFFFFFFFFFFCFFFC7FFFF1FF18
:103C5000FFFFFFFFFFFFFFFFFFFFFFFFFCFFFCFF7A
:103C6000FFF9FFFFFFFFFFFFFFFFFFFFFFFFFFFC6D
:103C7000FFF9FFFFFCFFFFFFFFFFFFFFFFFFFFFF5D
:103C8000FFFFFCFFF3FFFFFC7FFFFFFFFFFFFFFFD6
:103C9000FFFFFFFFFFFCFFE3FFFFFE7FFFFFFFFFD4
:103CA000FFFFFFFE000000FFFCFFE7FFFFFF3FFFFD
:103CB000FFFFFFFFFFFFFE000000FFFCFFE6000725
:103CC000FF3FFFFFFFFFFFFFFFFE000000FFFCFFC5
:103CD000CE0F87FF9FFFFFFFFFFFFFFFFE0180006A
:103CE000FFFCFFCE0F83FF9FFFFFFFFFFFFFFFFEE5
:103CF000018000FFFCFFCE0F83FF9FFFFFFFFFFF50
:103D0000FFFFFE018000FFFCFF9E0F83E7CFFFFF58
:103D1000FFFFFFFFFFFE01C000FFFCFF9E0FC3E798
:103D2000CFFFFFFFFFFFFFFFFE01FF80FFFCFF9EB5
:103D30000FC7E7CFFFFFFFFFFFFFFFFE01FF80FF81
:103D4000FCFF9E0FC7E7CFFFFFFFFFFFFFFFFE0057
:103D50000000FFFCFF9E0FFFE7CFFFFFFFFFFFFF0D
:103D6000FFFE000000FFFCFF9E0FFFE7CFFFFFFFFD
:103D7000FFFFFFFFFE007E00FFFCFF9E0FFFE7CF6F
:103D8000FFFFFFFFFFFFFFFE00FF00FFFCFF9E0F96
:103D9000FFE7CFFFFFFFFFFFFFFFFE01DB80FFFC20
:103DA000FFDE0FFFFF9FFFFFFFDFFFFFFFFE019919
:103DB00080FFFCFFCE0003FF9FFFFFFFC7FFFFFF59
:103DC000FE019980FFFCFFCFFFC3FF1FFFFFFFE154
:103DD000FFFFFFFE01DB80FFFCFFE7FFC3FF3FFFAC
:103DE000FFFFF80FFFFFFE00FF00FFFCFFE3FFC334
:103DF000FE7FFFFFFFF80FFFFFFE007E00FFFCFFCE
:103E0000F3FFC3FC7FFFFFFFE1FFFFFFFE000000A9
:103E1000FFFCFFF9FFC3FCFFFFFFFFC7FFFFFFFE33
:103E2000000000FFFCFFF8FFC3F8FFFFFFFFDFFF0C
:103E3000FFFFFE01E000FFFCFFFE7FE7F1FFFFFF59
:103E4000FFFFFFFFFFFE01FC00FFFCFFFE1FFFC3A3
:103E5000FFFFFFFFFFCFFFFFFE003F00FFFCFFFF64
:103E60008FFF8FFFFFFFFFFF0FFFFFFE000FC0FF61
:103E7000FCFFFFE0007FFFFFFFFFFC3FFFFFFE00B6
:103E800007E0FFFCFFFFFC03FFFFFFFFFFE07FFFFA
:103E9000FFFE003F70FFFCFFFFFFFFFFFFFFFFFF84
:103EA000C37FFFFFFE01FC30FFFCFFFFFFFFFFFFB2
:103EB000FFFFFFC37FFFFFFE01E030FFFCFFFFFFBE
:103EC000FFFFFFFFFFFFE07FFFFFFE000000FFFCA2
:103ED000FFFFFFFFFFFFFFFFFFFC3FFFFFFE00FFB5
:103EE00080FFFCFFFFFFFFFFFFFFFFFFFF0FFFFF54
:103EF000FE01FF80FFFCFFFFFFFFFFFFFFFFFFFF53
:103F0000CFFFFFFE01B380FFFCFFFFFFFFFFFFFFBE
:103F1000FFFFFFEFFFFFFE01B980FFFCFFFFFFFF88
:103F2000FFFFFFFFFFFFEFFFFFFE019980FFFCFF98
:103F3000FFFC01FFFFFFFFFFFFEFFFFFFE01D98046
:103F4000FFFCFFFFF0003FFFFFFFFFFFEFFFFFFE63
:103F500000FF80FFFCFFFFC1FE0FFFFFFFFFC00F50
:103F6000FFFFFE006F00FFFCFFFF8FFFC7FFFFFF9B
:103F7000FFC00FFFFFFE000000FFFCFFFF7FFFF907
:103F8000FFFFFFFFFFFFFFFFFE000000FFFCFFFE43
:103F90007FFFF9FFFFFFFFFFFFFFFFFE0FFF80FF27
:103FA000FCFFFCFFFFFCFFFFFFFFE1FFFFFFFE0F39
:103FB000FF80FFFCFFF9FFFFFC7FFFFFFFC0FFFF5B
:103FC000FFFE000000FFFCFFF3FFFFFE7FFFFFFF8F
:103FD000DEFFFFFFFE000000FFFCFFF3FFFFFF3FDF
:103FE000FFFFFFDEFFFFFFFE007E00FFFCFFF30090
:103FF00003FF3FFFFFFFDEFFFFFFFE00FF00FFFCB0
:10400000FFE707C3FF9FFFFFFFDEFFFFFFFE01C3C8
:1040100080FFFCFFE707C1FF9FFFFFFFC00FFFFF0F
:10402000FE018180FFFCFFCF07C1F7DFFFFFFFC06C
:104030000FFFFFFE018180FFFCFFCF07C1F7CFFF1D
:10404000FFFFFFFFFFFFFE01C380FFFCFFCF07C1A3
:10405000F7CFFFFFFFFFFFFFFFFE01FFF0FFFCFFB9
:10406000CF07C1F7CFFFFFFFE71FFFFFFE01FFF004
:10407000FFFCFFCF07E3004FFFFFFFC60FFFFFFE70
:10408000000000FFFCFFCF07FF004FFFFFFFDEEF48
:10409000FFFFFE000000FFFCFFCF07FFF7CFFFFF91
:1040A000FFDCEFFFFFFE000000FFFCFFCF07FFF784
:1040B000CFFFFFFFDDEFFFFFFE000000FFFCFFCFA3
:1040C00007FFF7CFFFFFFFDDEFFFFFFE000000FF60
:1040D000FCFFEF07FFF79FFFFFFFC18FFFFFFE0011
:1040E0000000FFFCFFE707C7FF9FFFFFFFE39FFF05
:1040F000FFFE000000FFFCFFE70003FF9FFFFFFF44
:10410000FFFFFFFFFE000000FFFCFFE7FFC3FF1FF4
:10411000FFFFFFFFFFFFFFFE006600FFFCFFF3FF56
:10412000C1FF3FFFFFFFC00FFFFFFE00E700FFFCE6
:10413000FFF9FFC1FE7FFFFFFFC00FFFFFFE01C3BE
:1041400080FFFCFFF9FFC1FE7FFFFFFFFFFFFFFFC6
:10415000FE018180FFFCFFFCFFC1FCFFFFFFFFFFB2
:10416000FFFFFFFE018180FFFCFFFC7FC3F9FFFF23
:10417000FFFFF03FFFFFFE01C380FFFCFFFF7FE377
:10418000F9FFFFFFFFE01FFFFFFE00FF00FFFCFF46
:10419000FF8FFFC7FFFFFFFFCFCFFFFFFE007E00B7
:1041A000FFFCFFFFC1FE0FFFFFFFFFDFEFFFFFFE82
:1041B000000000FFFCFFFFF0003FFFFFFFFFDFEF0D
:1041C000FFFFFE000000FFFCFFFFFC01FFFFFFFF01
:1041D000FFDFEFFFFFFE000000FFFCFFFFFFFFFF20
:1041E000FFFFFFFFC00FFFFFFE0DFF80FFFCFFFF83
:1041F000FFFFFFFFFFFFFFC00FFFFFFE0DFF80FF70
:10420000FCFFFFFFFFFFFFFFFFFFFFFFFFFFFE00C1
:104210000000FFFCFFFFFFFFFFFFFFFFFFFFFFFFAF
:10422000FFFE00CF00FFFCFFFFFFFFFFFFFFFFFFD0
:10423000FFFFFFFFFE01DF80FFFCFFFFFFFFFFFF2F
:10424000FFFFFFFFFFFFFFFE019980FFFCFFFFFF65
:10425000FFFFFFFFFFFFFFFFFFFFFE019980FFFC55
:10426000FFFFFFFFFFFFFFFFFFFFFFFFFFFE0199C3
:1042700080FFFCFFFFFFFFFFFFFFFFFFFFFFFFFFD0
:10428000FE01FB80FFFCFFFFFFFFFFFFFFFFFFF0D2
:104290003FFFFFFE00F300FFFCFFFFFFFFFFFFFFFC
:1042A000FFFFE01FFFFFFE000000FFFCFFFFFFFF1E
:1042B000FFFFFFFFFFCFCFFFFFFE000000FFFCFF6F
:1042C000FFFFF9FFFFFFFFFFDFEFFFFFFE01FF80B2
:1042D000FFFCFFFFFFF8FFFFFFFFFFDFEFFFFFFE29
:1042E00001FF80FFFCFFFFFFF87FFFFFFFFFDFEF15
:1042F000FFFFFE000380FFFCFFFFFFF91FFFFFFF32
:10430000FFC00FFFFFFE000180FFFCFFFFFFF987EA
:10431000FFFFFFFFC00FFFFFFE000180FFFCFFFF5C
:10432000FFF9E1FFFFFFFFFFFFFFFFFE000180FF3E
:10433000FCFFFFF001F0FFFFFFFFFFFFFFFFFE01AB
:10434000FF80FFFCFFFFF001FC3FFFFFFFF03FFF9E
:10435000FFFE01FF00FFFCFFFFF3FFFF1FFFFFFF5A
:10436000E01FFFFFFE000000FFFCFFFFF3FFFFC7A1
:10437000FFFFFFCFCFFFFFFE000000FFFCFF0003A9
:10438000FFFFC3FFFFFFDFEFFFFFFE0FFF80FFFC1C
:10439000FF0003FFFF0FFFFFFFDFEFFFFFFE0FFF39
:1043A00080FFFCFF3FF3FFFE1FFFFFFFDFEFFFFF7C
:1043B000FE07C000FFFCFF3FF001F87FFFFFFFCFCB
:1043C000CFFFFFFE01F000FFFCFF3FF001F1FFFF18
:1043D000FFFFE01FFFFFFE007E00FFFCFF3FFFF935
:1043E000C3FFFFFFFFF03FFFFFFE001F80FFFCFF4A
:1043F000000FF90FFFFFFFFFFFFFFFFFFE000F8021
:10440000FFFCFF000FF81FFFFFFFFFF03FFFFFFE65
:10441000007E00FFFCFF3FCFF83FFFFFFFFFE01FE4
:10442000FFFFFE01F800FFFCFF3FCFF93FFFFFFF5A
:10443000FFCFCFFFFFFE07C000FFFCFF200FFF3FB5
:10444000FFFFFFFFDFEFFFFFFE0FFF80FFFCFF20FE
:104450000FFF3FFFFFFFFFDFEFFFFFFE0FFF80FFBC
:10446000FCFF200FFF3FFFFFFFFFDFEFFFFFFE001E
:104470000000FFFCFF200FFF3FFFFFFFFFCFCFFF3C
:10448000FFFE000000FFFCFF3FCFFF3FFFFFFFFFED
:10449000E01FFFFFFE000000FFFCFF3FCFFF3FFFDC
:1044A000FFFFFFF03FFFFFFE000000FFFCFF3FCFDC
:1044B000FF3FFFFFFFFFFFFFFFFFFE000000FFFCCD
:1044C000FF3FCFFF3FFFFFFFFFFFFFFFFFFFFFFFAC
:1044D000FFFFFCFF3FCFFF3FFFFFFFFFF63FFFFF68
:1044E000FFFFFFFFFFFCFF3FCFFF3FFFFFFFFFE6A8
:1044F0001FFFFFFFFFFFFFFFFCFF3FCFFF3FFFFF5F
:10450000FFFFCECFFFFFFFFFFFFFFFFCFF3FCFFF0F
:104510003FFFFFFFFFDEEFFFFFFFFFFFFFFFFCFF9F
:10452000000FFF3FFFFFFFFFDEEFFFFFFFFFFFFF7B
:10453000FFFCFF3FFFFF3FFFFFFFFFDFEFFFFFFF3E
:10454000FFFFFFFFFCFF3FFFFF3FFFFFFFFFCFCF5E
:10455000FFFFFFFFFFFFFFFCFF3FFFFF3FFFFFFFEE
:10456000FFE01FFFFFFFFFFFFFFFFCFF0000003F1A
:10457000FFFFFFFFF03FFFFFFFFFFFFFFFFCFF001C
:1045800000003FFFFFFFFFFFFFFFFFFFFFFFFFFFF9
:10459000FCFFFFFFFFFFFFFFFFFFFFFFFFFFFFFF2E
:1045A000FFFFFFFCFFFFFFFFFFFFFFFFFFFFFFFF1E
:1045B000FFFFFFFFFFFFFCFFFFFFFFFFFFFFFFFF0E
:1045C000FFFFFFFFFFFFFFFFFFFCFFFFFFFFFFFFFE
:1045D000FFFFFFFFFFFFFFFFFFFFFFFFFCFFFFFFEE
:1045E000FFFFFFFFFFFFFFFFFFFFFFFFFFFFFFFCDE
:1045F000FFFFFFFFFFFFFFFFFFFFFFFFFFFFFFFFCB
:10460000FFFFFCFFFFFFFFFFFFFFFFFFFFFFFFFFBD
:10461000FFFFFFFFFFFCFFFFFFFFFFFFFFFFFFFFAD
:10462000FFFFFFFFFFFFFFFFFCFFFFFFFFFFFFFF9D
:10463000FFFFFFFFFFFFFFFFFFFFFFFCFFFFFFFF8D
:10464000FFFFFFFFFFFFFFFFFFFFFFFFFFFFFCFF7D
:10465000FFFFFFFFFFFF000078460008000000207A
:10466000200000006C01000898460008200000208F
:104670006006000088010008000000000102030439
:1046800001020304060708090204060802000000EC
:08469000000000000000000022
:0400000508000131BD
:00000001FF
