:020000040800F2
:1000000038420020390900080D0500080F050008D6
:1000100013050008170500081B0500080000000074
:100020000000000000000000000000001F050008A4
:100030002105000800000000230500082505000830
:100040005309000853090008530900085309000820
:100050005309000853090008530900085309000810
:100060005309000853090008530900085309000800
:1000700053090008530900085309000853090008F0
:1000800053090008530900085309000853090008E0
:1000900053090008530900085309000853090008D0
:1000A00053090008530900085309000853090008C0
:1000B00053090008530900085309000853090008B0
:1000C00053090008530900085309000853090008A0
:1000D00053090008AD080008530900085309000837
:1000E0005309000853090008530900085309000880
:1000F0005309000853090008530900085309000870
:10010000530900085309000853090008530900085F
:10011000530900085309000853090008530900084F
:10012000530900085309000853090008530900083F
:1001300000F002F800F03AF80AA090E8000C8244BF
:100140008344AAF10107DA4501D100F02FF8AFF29C
:10015000090EBAE80F0013F0010F18BFFB1A43F0A5
:100160000103184758D6000078D60000103A24BF83
:1001700078C878C1FAD8520724BF30C830C144BF0C
:1001800004680C607047000000230024002500264E
:10019000103A28BF78C1FBD8520728BF30C148BFEA
:1001A0000B6070471FB51FBD10B510BD02F0D0F930
:1001B0001146FFF7F7FF00F009F802F0EEF903B47B
:1001C000FFF7F2FF03BC00F017FB00000EB500F0D4
:1001D00099FA00F00BFB01F0A3FA7DE1FF20002368
:1001E0004FF496724FF4C8710090BC4801F040FB88
:1001F000BA4801F07AFB01F015FAFF2001F030FC5B
:100200000120034600220A210090052001F05DFC38
:1002100001200223002219210090052001F055FC45
:1002200001200323002228210090052001F04DFC2D
:1002300001200423002237210090052001F045FC15
:100240000120002100913C234622CDE901100A2122
:10025000142001F08CFC0120002100913C23142289
:10026000CDE901100A21462001F081FC0120002285
:10027000CDE900203723AA220F210290104601F079
:1002800076FC01200022CDE900202323BE2219465E
:100290000290962001F06BFC0120002100913C238C
:1002A0004622CDE901100A21142001F0DEFC0120D4
:1002B0000022CDE900203C2382220A210290552011
:1002C00001F0D3FC012000210B466422CDE900108F
:1002D000C821962001F022FD012000900023642215
:1002E000C8210190FA2001F019FD7C4801F068F95D
:1002F00001F0B6F9022000F064FA01F093F9FF2052
:1003000001F0AEFB0020FF21754B76A2CDE9001075
:10031000014601F083FE0020FF21764B71A2CDE95A
:1003200000100A2101F07AFE0020FF21724B6DA21D
:10033000CDE90010192101F071FE0020FF216F4B63
:1003400068A2CDE900102D2101F068FE0020FF21F8
:100350006B4B64A2CDE90010462101F05FFE002046
:10036000FF215F4B5FA2CDE90010C821B42001F04E
:1003700055FE0020FF215F4B5AA2CDE90010D2218B
:10038000B42001F04BFE0020FF215B4B55A2CDE9CC
:100390000010E121B42001F041FE0020FF21574B65
:1003A00050A2CDE90010F521B42001F037FE002065
:1003B000FF21534B4BA2CDE900104FF48771B420BD
:1003C00001F02CFE454801F0FBF801F049F902204C
:1003D00000F0F7F901F026F9FF2001F041FB0020C1
:1003E000FF213F4B474ACDE90010014601F05CFF79
:1003F0000020FF213F4B434ACDE900100A2101F0C4
:1004000053FF0020FF213C4B3E4ACDE9001019214B
:1004100001F04AFF0020FF21384B3A4ACDE9001095
:100420002D2101F041FF0020FF21354B354ACDE958
:100430000010462101F038FF0020FF21284B314AEF
:10044000CDE90010C821DC2001F02EFF0020FF21A3
:10045000284B2C4ACDE90010D221DC2001F024FFEA
:100460000020FF21244B274ACDE90010E121DC20A8
:1004700001F01AFF0020FF21204B224ACDE9001095
:10048000F521DC2001F010FF0020FF211C4B1D4A4C
:10049000CDE900104FF48771DC2001F005FF0F4813
:1004A00001F08EF801F0DCF8022000F08AF901F08A
:1004B000B9F8154801F0E7F801F0D2F8022000F091
:1004C00080F901F0AFF801F004F901F0C9F8022059
:1004D00000F077F900BFFEE780E600005C00002036
:1004E00034000020476F6F6420446973706C617939
:1004F000000000003C000020440000204C000020D0
:100500005400002015CD5B07B0250008704700BFE0
:10051000FEE700BFFEE700BFFEE700BFFEE7704753
:1005200070477047704700000CB5002001900090A4
:100530006B48006840F480306949086000BF684833
:10054000006800F4003000900198401C0190009871
:1005500018B90198B0F5A06FF1D16148006810F4A6
:10056000003F02D00120009001E0002000900098A0
:10057000012842D15B48006840F0100059490860EA
:100580000846006820F0030008600846006840F054
:100590000200086052484068514948600846406877
:1005A00048600846406840F48060486008464068FB
:1005B00020F47C1048600846406840F4E810486029
:1005C0000846006840F08070086000BF444800683A
:1005D00010F0007FFAD04248406820F00300404904
:1005E00048600846406840F00200486000BF3C4850
:1005F000406800F00C000828F9D10CBD10B5FFF7D9
:1006000093FF10BD10B53648006840F00100344932
:100610000860084640683449084031494860084647
:100620000068324908402E4908600846006820F4F6
:10063000802008600846406820F4FE0048604FF4BF
:100640001F008860FFF7DAFF4FF00060284908605C
:1006500010BD10B5002100200022214B5B6803F083
:100660000C0121B1042906D0082928D107E0214B2B
:10067000214C236027E01F4B1F4C236023E0184BC5
:100680005B6803F47010164B5B6803F4803202233E
:1006900003EB904022B9194B4343174C23600DE004
:1006A0000F4B5B6813F4003F04D0144B4343124CD0
:1006B000236003E00F4B43430F4C236003E00D4BDB
:1006C0000D4C236000BF00BF054B5B68C3F30313F1
:1006D0000B4CE15C084B1B68CB40074C236010BD02
:1006E00000100240002002400000FFF8FFFFF6FE6D
:1006F00008ED00E000127A000000002000093D0033
:100700000400002010B56FF0040000F085F93348B4
:1007100000683349B0FBF1F03249087008460078B0
:1007200000EB4001C1EBC0104FF6FF7101EAC000C1
:100730002D49088010BD01462A4A12784A434FF0DD
:10074000E0235A6100229A611A46126942F00102BE
:100750001A6100BF4FF0E022106910F0010F02D0C3
:1007600010F4803FF6D04FF0E022126922F001022F
:100770004FF0E0231A6100229A61704701461A4A3D
:1007800012884A434FF0E0235A6100229A611A46C8
:10079000126942F001021A6100BF4FF0E0221069B5
:1007A00010F0010F02D010F4803FF6D04FF0E0229D
:1007B000126922F001024FF0E0231A6100229A61CF
:1007C000704730B50446002505E04FF47A70FFF716
:1007D000D5FF681C85B2A542F7DB30BD00000020C4
:1007E00000127A00140000201600002010B54FF40B
:1007F000A06000F0C1F810BD014600BF704700BF07
:10080000494A128812F0400FFAD0C2B2464B1B1D63
:100810001A80704710B586B00446012144F20500E5
:1008200000F02EFC4FF40070ADF8140003208DF89A
:10083000160018208DF8170005A93C4800F06AF949
:100840004FF48060ADF8140004208DF8170005A95E
:10085000364800F05FF925208DF8000003208DF860
:1008600001008DF8020001208DF80300684600F0B9
:1008700088F801940020ADF80800ADF80A00ADF842
:100880000C00ADF810000C20ADF80E0001A92648B0
:1008900000F0A1FC012240F22551234800F033FD75
:1008A0000121214800F023FD06B010BD10B540F233
:1008B00025511D4800F00CFE10B31B4800F088FDC8
:1008C000C4B21B48008810F4004F2BD11848008890
:1008D00010F4804F0CD00A2C03D00020144908805B
:1008E00020E01348008840F400401149088019E0D6
:1008F0000D2C06D10E48008840F480400C49088039
:1009000010E00B480088C0F30D000A490C54084859
:100910000088401C0649088008460088C72801DD79
:100920000020088010BD0000003801400008014090
:1009300018000020F43A0020094880470948004781
:10094000FEE7FEE7FEE7FEE7FEE7FEE7FEE7FEE77F
:10095000FEE7FEE704480549054A064B70470000DC
:100960000506000831010008383C0020384200200C
:10097000383E0020383E002031490143314A1160A1
:10098000704770B5002100230F22C4780CB32D4CA2
:10099000246804F4E064C4F5E064210AC1F10403AE
:1009A000CA40447804FA03F18478144021430901D1
:1009B000254C0678A155047804F01F050124AC40AD
:1009C00005786D114FF0E02606EB8505C5F800416E
:1009D00009E0047804F01F050124AC401B4D0678A3
:1009E000761145F8264070BD194A0A400243154B5E
:1009F0001B1F1A60704739B1124A121D1268024358
:100A0000104B1B1D1A6006E00E4A121D126882432D
:100A10000C4B1B1D1A607047042808D14FF0E021D1
:100A2000096941F004014FF0E022116107E04FF045
:100A3000E021096921F004014FF0E02211617047C3
:100A40000000FA050CED00E000E400E080E100E0C9
:100A500080FFFF1F10B50446CA48844208D1012117
:100A6000042000F027FB0021042000F023FB46E0D7
:100A7000C548844208D10121082000F01BFB002159
:100A8000082000F017FB3AE0C048844208D1012159
:100A9000102000F00FFB0021102000F00BFB2EE0D7
:100AA000BB48844208D10121202000F003FB002133
:100AB000202000F0FFFA22E0B648844208D101214C
:100AC000402000F0F7FA0021402000F0F3FA16E091
:100AD000B148844208D10121802000F0EBFA0021C6
:100AE000802000F0E7FA0AE0AC48844207D10121F7
:100AF000801500F0DFFA0021A01500F0DBFA10BD30
:100B000010B50121084600F0D5FA0021012000F0BF
:100B1000D1FA10BD2DE9F041024600250026002043
:100B200000230024002791F803C00CF00F0591F872
:100B300003C01CF0100F03D091F802C04CEA050569
:100B400091F800C0BCF1000F31D0146800202BE0F8
:100B50004FF0010C0CFA00F3B1F800C00CEA0306E8
:100B60009E4220D183004FF00F0C0CFA03F7BC43D8
:100B700005FA03FC4CEA040491F803C0BCF1280F09
:100B800006D14FF0010C0CFA00FCC2F814C00AE0C8
:100B900091F803C0BCF1480F05D14FF0010C0CFADD
:100BA00000FCC2F810C0401C0828D1D31460B1F872
:100BB00000C0BCF1FF0F34DD546800202EE000F1CE
:100BC000080C4FF0010808FA0CF3B1F800C00CEA69
:100BD00003069E4221D183004FF00F0C0CFA03F75D
:100BE000BC4305FA03FC4CEA040491F803C0BCF1D1
:100BF000280F05D100F1080C08FA0CF8C2F814808F
:100C000091F803C0BCF1480F07D100F1080C4FF078
:100C1000010808FA0CF8C2F81080401C0828CED34E
:100C20005460BDE8F0814FF6FF71018002218170B0
:100C30000421C17070470246002093680B4201D026
:100C4000012000E0002070470146886880B27047AC
:100C500002460020D3680B4201D0012000E00020B2
:100C600070470146C86880B27047016170474161B2
:100C700070470AB1016100E041617047C16070478F
:100C80004FF480320A4382618161826182698269A4
:100C9000704702460020424B18684FF68073184098
:100CA00040EA021008433E4B186070473D49C86156
:100CB0007047F0B50A46002300240021002500F00B
:100CC0000046B6F1004F02D1354EF16901E0344ED5
:100CD0007168C0F3034583B200F44016B6F5401FB7
:100CE00008D121F070612E4E766826F070662C4F88
:100CF0007E6012E000F48016B6F5801F06D1032650
:100D000006FA05F4A14341F0706106E0460D360194
:100D100003FA06F6B14341F0706122B1460D360187
:100D200003FA06F6314300F00046B6F1004F02D157
:100D30001B4EF16101E01A4E7160F0BD30B500222A
:100D40008B071C0F0F2303FA04F2154B08338C108A
:100D500053F824309343124C08348D1044F8253056
:100D600023468C1053F824308C07240F00FA04F427
:100D700023430B4C08348D1044F8253030BD0A490C
:100D80000860704700080140000C0140001001405D
:100D90000014014000180140001C014000200140E7
:100DA0000000014000002042DC002042DD480068D5
:100DB00040F00100DB49086008464068DA49084015
:100DC000D849486008460068D8490840D5490860B5
:100DD0000846006820F4802008600846406820F437
:100DE000FE0048604FF41F0088607047CD490968D5
:100DF00021F48031CB4A11601146096821F4802129
:100E00001160B0F5803F03D0B0F5802F0ED106E021
:100E1000C449096841F48031C24A116007E0C14900
:100E2000096841F4A021BF4A116000E000BF00BF83
:100E3000704710B501460022002300204A11012A04
:100E400002D1B84C236806E0022A02D1B54C236ACD
:100E500001E0B44C636A01F01F02012494401C427B
:100E600001D0012000E0002010BD38B50020009026
:100E70000024002500BF3120FFF7DBFF0546009866
:100E8000401C00900098B0F5A06F01D0002DF2D06A
:100E90003120FFF7CEFF08B1012400E000242046F6
:100EA00038BD014600209F4A106820F0F80040EA53
:100EB000C100106070479E490860704702460020DC
:100EC000984B586820F47C1042EA01031843954B74
:100ED0005860704796490866704701460020914A5D
:100EE000506820F003000843506070478D48406808
:100EF00000F00C007047014600208A4A506820F03C
:100F0000F00008435060704701460020854A506851
:100F100020F4E06008435060704701460020814A99
:100F2000506820F4605040EAC1005060704729B119
:100F30007C4A527A02437B4B5A7204E0794A527AD5
:100F40008243784B5A7270477A490860704701466D
:100F50000020744A506820F44040084350607047B5
:100F60000021754A11706F4A82F82010012802D0C2
:100F7000042808D103E001216F4A117004E0052123
:100F80006D4A117000E000BF00BF70476B490860F8
:100F900070476449096A0143624A116270476749B0
:100FA00044390860704730B5002100220024002336
:100FB0005C4D6D6805F00C0121B1042905D00829AC
:100FC00023D105E05E4D056022E05D4D05601FE028
:100FD000544D6D6805F47012524D6D6805F48034FF
:100FE000022505EB92421CB9564D554305600BE0B6
:100FF0004C4D6D6815F4003F03D0524D55430560CC
:1010000002E04F4D5543056002E04D4D056000BFC5
:1010100000BF444D6D6805F0F00109094A4D6B5C55
:101020000568DD4045603F4D6D6805F4E061090AE3
:10103000454D6B5C4568DD4085603A4D6D6805F453
:101040006051C90A404D6B5C4568DD40C560354D57
:101050006D6805F44041890B3C4D6B5CC568B5FB80
:10106000F3F5056130BD29B12E4A526902432D4B7B
:101070005A6104E02B4A526982432A4B5A617047F5
:1010800029B1284A92690243264B9A6104E0254A15
:1010900092698243234B9A61704729B1214AD269F0
:1010A0000243204BDA6104E01E4AD26982431D4BA1
:1010B000DA61704729B11B4AD2680243194BDA60E2
:1010C00004E0184AD2688243164BDA60704729B1AF
:1010D000144A12690243134B1A6104E0114A12695F
:1010E0008243104B1A6170471449403908607047B9
:1010F0000F49C86470470B49C87170470948406A76
:1011000040F0807007494862704701460020054A58
:1011100092680A4201D0012000E000207047014996
:1011200088727047001002400000FFF8FFFFF6FED3
:1011300000004242D8004242201002408004424255
:1011400000127A0000093D0020000020300000203D
:1011500010B50446FB48844209D101218803FFF7FA
:10116000A9FF00214FF48040FFF7A4FF32E0F648CA
:10117000844209D101214804FFF7A9FF00214FF45F
:101180000030FFF7A4FF25E0F048844209D1012197
:101190008804FFF79CFF00214FF48020FFF797FFA2
:1011A00018E0EB48844209D10121C804FFF78FFF02
:1011B00000214FF40020FFF78AFF0BE0E54884424E
:1011C00008D101210805FFF782FF00214FF48010AC
:1011D000FFF77DFF10BD2DE9F04786B005460E46AE
:1011E0000024A24600BFA1460027B08900B100BF7D
:1011F0002F462C8A4CF6FF700440F08804432C8262
:10120000AC894EF6F3100440B088318908437189E7
:1012100008430443AC81AC8A4FF6FF400440B089D8
:101220000443AC8201A8FFF7BEFEC648874202D144
:10123000DDF810A001E0DDF80CA0A88910F4004F43
:1012400008D00AEBCA0000EB0A1031684900B0FB75
:10125000F1F807E00AEBCA0000EB0A1031688900D8
:10126000B0FBF1F86420B8FBF0F004012009642120
:1012700001FB1089A88910F4004F08D0322000EB40
:10128000C900B0FBF1F000F00700044308E0322091
:1012900000EB09106421B0FBF1F000F00F000443F3
:1012A0002C8106B0BDE8F0874FF416510160002193
:1012B0008180C18001810C214181002181817047A1
:1012C00010B502460020108A4FF2FF0318400B8829
:1012D0004C8823438C882343CC88234318431082B3
:1012E00010BD0021018041808180C180704721B103
:1012F000828942F40052828104E082894DF6FF73B4
:101300001A4082817047F0B503460024002600256C
:101310000020A1F510676A3F00D100BF1846C1F355
:10132000421401F01F06012707FA06F5012C01D12E
:101330000C3004E0022C01D1103000E014301AB15E
:1013400007682F43076002E00768AF430760F0BDFE
:101350001AB1838A0B43838202E0838A8B438382A0
:101360007047028A4FF6F0731A400282028A0A43DB
:101370000282704782894FF2FF731A40828182890C
:101380000A438281704721B1828942F00202828140
:1013900004E082894FF6FD731A4082817047028A09
:1013A0004FF6DF731A400282028A0A4302827047B4
:1013B00021B1028A42F48042028204E0028A4BF6A2
:1013C000FF731A4002827047C1F30802828070479F
:1013D00001468888C0F308007047818941F0010107
:1013E00081817047028BD2B20283028B42EA0122D2
:1013F00002837047028B02F47F420283028B0A430E
:101400000283704721B1828A42F02002828204E086
:10141000828A4FF6DF731A408282704721B1828A36
:1014200042F01002828204E0828A4FF6EF731A4083
:101430008282704721B1828A42F00802828204E0EF
:10144000828A4FF6F7731A408282704721B18289EF
:1014500042F40042828103E08289C2F30E0282815B
:10146000704721B1828A42F40062828204E0828A5B
:101470004FF2FF731A4082827047828A4FF6FB73E5
:101480001A408282828A0A438282704721B1828A0C
:1014900042F00202828204E0828A4FF6FD731A4013
:1014A0008282704702460020B1F5007F00D100BF64
:1014B00013880B4201D0012000E00020704701F4A6
:1014C0000072B2F5007F00D100BFCA4302807047AE
:1014D00070B502460024002300250020A1F5106607
:1014E0006A3E00D100BFC1F3421501F01F0301267F
:1014F00006FA03F3012D02D19689334006E0022D4E
:1015000002D1168A334001E0968A33400C1201263C
:1015100006FA04F41688344013B10CB1012000E03F
:10152000002070BD10B500220023A1F510646A3CB4
:1015300000D100BF0A1201249440A3B2DC4304800E
:1015400010BD000000380140004400400048004049
:10155000004C00400050004006E042F6E06100BF51
:101560000A00A1F10101FBD10200A0F10100F4D1B8
:10157000704710B54FF480416848FFF778FB0A20A8
:10158000FFF7EAFF4FF480416448FFF76EFB0A2043
:10159000FFF7E2FF10BD10B500BF712000F034F975
:1015A0004FF400515D48FFF746FB044604F001008C
:1015B00080F00104002CF0D1C820FFF7CDFF10BD52
:1015C0002DE9F041074632264FF49678102000F0BE
:1015D0001BF9002508E0002403E0002000F02CF9AE
:1015E000641CB442F9D36D1C4545F4D3132000F0BC
:1015F0000BF900250AE0002405E005FB0641785CB4
:1016000000F01AF9641CB442F7D36D1C4545F2D3BF
:10161000122000F0F9F80120FFF79EFFFFF7BBFF53
:10162000BDE8F08110B5FFF7A4FF062000F0ECF84C
:10163000172000F001F9172000F0FEF8172000F045
:10164000FBF8042000F0E0F8FFF7A5FF002000F011
:10165000DBF81F2000F0F0F80D2000F0EDF810BDD1
:1016600010B5502000F0D0F8F72000F0E5F8022087
:1016700000F0CAF8FFF78FFF072000F0C5F8A5209B
:1016800000F0DAF810BD70B50546102000F0BCF887
:10169000002403E0FF2000F0CFF8641C43F69820FC
:1016A0008442F7D3132000F0AFF8002404E0287838
:1016B00000F0C2F86D1C641C43F698208442F6D3F7
:1016C000122000F0A1F80120FFF746FFFFF763FFAB
:1016D00070BD10B5102000F097F8002403E0FF2043
:1016E00000F0AAF8641C43F698208442F7D3132034
:1016F00000F08AF8002403E0FF2000F09DF8641C4D
:1017000043F698208442F7D3122000F07DF80120A0
:10171000FFF722FFFFF73FFF10BD00000018014058
:1017200008B501216020FFF7ABFC4FF4E060ADF895
:10173000000010208DF8030002208DF80200694699
:101740004948FFF7E7F94FF44040ADF8000010209A
:101750008DF8030002208DF8020069464348FFF728
:10176000D9F94FF40050ADF8000048208DF803007F
:1017700002208DF8020069463C48FFF7CBF94FF490
:101780008050ADF8000010208DF8030002208DF885
:10179000020069463548FFF7BDF908BD00BF0100EA
:1017A000A0F10102D0B2FAD1704770B50446012011
:1017B000FFF7F4FF002524E04FF400712A48FFF7FB
:1017C00056FA0120FFF7EAFF14F0800F05D04FF41E
:1017D00080612548FFF749FA04E04FF48061224810
:1017E000FFF745FA6006040E0120FFF7D7FF4FF41C
:1017F00000711D48FFF739FA0120FFF7CFFF681C81
:10180000C5B2082DD8DB70BD10B504460120FFF726
:10181000C5FF4FF480711448FFF729FA4FF40041D7
:101820001248FFF724FA2046FFF7BFFF4FF48071FC
:101830000D48FFF71AFA10BD10B504460120FFF756
:10184000ADFF4FF480710848FFF711FA4FF40041E3
:101850000648FFF70AFA2046FFF7A7FF4FF480710A
:101860000148FFF702FA10BD0014014000180140C2
:101870002DE9F0410646069F0020F94C20602046E5
:1018800006600181428187810C464FEAE17C01EBD1
:101890005C7C4FEAEC0CB1EBCC0C07D10D464FEA67
:1018A000E57C05EB5C7C4FEAEC0C08E008464FEA6F
:1018B000E17C01EB5C7C4FEAEC0C0CF1010CDFF8F5
:1018C000A083A8F812C040468282C381002044460B
:1018D00020820BB1B42B03D1E1488180C28002E0A9
:1018E000DF488280C180BDE8F081DD490860704733
:1018F00030B15A2804D0B42802D0B0F5877F01D186
:10190000D749C881704728B1012803D0022801D0E7
:10191000032801D1D249088270472DE9F0410346DE
:101920000C461746CE4EB6889E4203DBCC4EF68858
:10193000A64201DABDE8F081C94EF6893EB15A2EC1
:1019400008D0B42E0DD0B6F5877F1CD114E0184610
:10195000214619E0C24E3689361B761EB0B21946B2
:1019600012E0BF4E3689F61A761EB0B2BC4E7689AA
:10197000361B761EB1B207E02046B94E7689F61ABC
:10198000761EB1B200E0D5E700BFB54E368A36B15B
:10199000012E05D0022E09D0032E18D10CE017E03D
:1019A000AF4E3689361A761EB0B211E0AC4E76894B
:1019B000761A761EB1B20BE0A94E3689361A761E1B
:1019C000B0B2A74E7689761A761EB1B200E0B1E7C2
:1019D00000BFA34E3689864203DBA14E76898E4234
:1019E00000DAA7E706464FEAE07C00EB5C7C4FEAB2
:1019F000EC0CDFF86C82B8F8128001FB08C2984E3C
:101A00003668B55CAFB906464FEAE07C00EB5C7C1B
:101A10004FEAEC0CA0EBCC084FF0800C4CFA08FC21
:101A200025EA0C0CDFF83882D8F8008008F802C0EC
:101A300014E006464FEAE07C00EB5C7C4FEAEC0CDD
:101A4000A0EBCC084FF0800C4CFA08FC4CEA050CDB
:101A5000DFF80C82D8F8008008F802C000BF69E700
:101A600030B50246002110E0002008E07C4C648A7A
:101A700001FB04037A4D2D68EA54441CA0B2784C53
:101A8000648A8442F2DC4C1CA1B2754CA48A8C425C
:101A9000EADC30BD2DE9F04706460F4690469946F0
:101AA000DDF820A03D460CE0344606E052462946CB
:101AB0002046FFF732FF601C84B24445F6DB681C09
:101AC00085B24D45F0DBBDE8F0872DE9F0470746CC
:101AD000884691461C46DDF820A061488088B842BF
:101AE00003DB5F48C088404501DABDE8F087BAF102
:101AF000010F24D100251DE0002614E007EB0500AE
:101B0000001B03D408EB0600001B00D50FE008EB18
:101B10000602121B91B27A19121B90B24A46FFF7C5
:101B2000FCFE701C06B26000401EB042E6DC00BF46
:101B3000681C05B26000401EA842DDDC15E00025EF
:101B400011E000260BE008EB0602521E91B27A1952
:101B5000521E90B24A46FFF7E0FE701C06B2A64243
:101B6000F1DB681C05B2A542EBDB00BFBDE72DE948
:101B7000F04F85B004460D4616461F46384880880B
:101B8000A0420BDB3648C088A84207DB3448808877
:101B9000B04203DB3248C088B84202DA05B0BDE883
:101BA000F08FA046AA46301B01D4301B00E0A01BDA
:101BB0008346781B002801DC781B00E0E81B0490BA
:101BC000B44201DA012001E04FF0FF300390BD4242
:101BD00001DA012001E04FF0FF30029004980BEB96
:101BE00000090020019000BF0198401CC0B2019084
:101BF0000F98012811D10321019890FBF1F201FB0C
:101C0000120050B901200090FF2251464046109B1F
:101C1000FFF75BFF0020019007E001200090514694
:101C20004046109B0E9AFFF750FF4FEA4901049877
:101C3000814208DBB04500D114E004988144039848
:101C400040441FFA80F84FEA49005845CCDCBA45B9
:101C500000D107E0D944029850441FFA80FAC3E744
:101C6000BC3B002000BF00BF98E72DE9FE4F814636
:101C70000F4692469846DDE90DB50C9CFE488088DB
:101C800048450BDBFC48C088B84207DBFA4880882F
:101C9000504503DBF848C088404501DABDE8FE8FB7
:101CA000BBF1000F10D03E460BE0002033465246F9
:101CB0003146CDE9010500944846FFF758FF701CF6
:101CC00086B24645F1DB27E000203B4652463946C6
:101CD000CDE9010500944846FFF749FF002043463F
:101CE0004A463946CDE9010500944846FFF73FFFD3
:101CF00000203B4652464146CDE90105009450463E
:101D0000FFF735FF002043464A464146CDE901052D
:101D100000945046FFF72BFF00BFBFE72DE9F84FB7
:101D200005460E4692469B46D3488088A84203DB70
:101D3000D148C088B04201DCBDE8F88F00240FFA1A
:101D40008AF70320A0EB4A000FFA80F90A980128CD
:101D500077D172E0A0465BE0012006EB080291B269
:101D60002A19009090B201235A46FFF7AEFE0120D7
:101D700006EB080291B22A1B009090B201235A464A
:101D8000FFF7A3FE0120321991B2A5EB08020090E3
:101D900090B201235A46FFF798FE0120321B91B200
:101DA000A5EB0802009090B201235A46FFF78DFE82
:101DB0000120A6EB080291B22A1B009090B20123E9
:101DC0005A46FFF782FE0120A6EB080291B22A19BB
:101DD000009090B201235A46FFF777FE0120321B94
:101DE00091B205EB0802009090B201235A46FFF72A
:101DF0006CFE0120321991B205EB0802009090B2FE
:101E000001235A46FFF761FE08F101000FFA80F83E
:101E1000B845A1DDB9F1000F05DAA000801D4844E6
:101E20000FFA80F907E0E01B80000A3048440FFAFF
:101E300080F9781E07B2601C04B2BC428ADD66E0FD
:101E4000FFE762E00120F21991B22A19009090B2E6
:101E50005A460B9BFFF739FE0120F21991B22A1B5B
:101E6000009090B25A460B9BFFF72FFE01203219CB
:101E700091B2EA1B009090B25A460B9BFFF725FEE9
:101E80000120321B91B2EA1B009090B25A460B9B84
:101E9000FFF71BFE0120F21B91B22A1B009090B2AB
:101EA0005A460B9BFFF711FE0120F21B91B22A1933
:101EB000009090B25A460B9BFFF707FE0120321BA1
:101EC00091B2EA19009090B25A460B9BFFF7FDFDC4
:101ED0000120321991B2EA19009090B25A460B9B38
:101EE000FFF7F3FDB9F1000F05DAA000801D4844AB
:101EF0000FFA80F907E0E01B80000A3048440FFA2F
:101F000080F9781E07B2601C04B2BC429ADD00BFA3
:101F100012E72DE9F04F0746884692461D4656487F
:101F20008088B84203DB5448C088404501DABDE8E8
:101F3000F08FA988CA1701EB5272D2100846CB174E
:101F400001EB5373DB10B1EBC30301D0012300E0BD
:101F500000231344AAF12002B5F806C002FB0CF2DC
:101F600003FB02FB286800EB0B09002651E000246C
:101F700040E00998FF2814D1E11704EB5171C91012
:101F8000A4EBC1028021114199F80020114225D013
:101F900008EB060291B23A1990B20A9AFFF7BDFC1B
:101FA0001CE0E11704EB5171C910A4EBC1028021C0
:101FB000114199F80020114208D008EB060291B2B5
:101FC0003A1990B20A9AFFF7A8FC07E008EB06025C
:101FD00091B23A1990B2099AFFF79FFCE11704EB0E
:101FE0005171C910A4EBC101072901D109F10109FF
:101FF000601C84B2A888A042BBDCA888C11700EB93
:102000005171C910B0EBC10101D009F10109701C77
:1020100086B2E888B042AADC00BF88E72DE9FC4F11
:1020200004460E4617461D46DDE90BABA046B146F9
:1020300011488088A04203DB0F48C088B04201DA13
:10204000BDE8FC8F22E0A88840440B49898888427B
:1020500004DDA046E88848441FFA80F9E88848442F
:102060000549C988884201DDA046B146CDE900ABEB
:102070003A782B46494601E0BC3B00204046FFF73A
:1020800048FF7F1CA88840441FFA80F83878002851
:10209000D9D100BFD4E72DE9FF4F1D46DDF80890E8
:1020A000DDF80080DDF804A0F7E099F800007F2853
:1020B00075DC002769E053207843296811F8100087
:1020C00099F8001088425FD153207843296801EBCA
:1020D000400000F1020B002652E0002442E00D987F
:1020E000FF2815D1E11704EB5171C910A4EBC1020F
:1020F000802111419BF80020114228D00AEB0602F2
:1021000091B208EB040290B20E9AFFF706FC1EE0B3
:10211000E11704EB5171C910A4EBC10280211141F8
:102120009BF80020114209D00AEB060291B208EB9D
:10213000040290B20E9AFFF7F0FB08E00AEB0602E9
:1021400091B208EB040290B20D9AFFF7E6FBE1179B
:1021500004EB5171C910A4EBC101072901D10BF1A6
:10216000010B641C2889A042B9DC2889C11700EB47
:102170005171C910B0EBC10101D00BF1010B761CFC
:102180006889B042A9DC03E07F1CA888B84292DCD1
:1021900000BF09F10109E88880447EE0FFE70027DD
:1021A00073E053207843296811F8100099F8001063
:1021B000884269D153207843296801EB4000407878
:1021C00099F8011088425FD153207843296801EBC8
:1021D000400000F1020B002652E0002442E00D987E
:1021E000FF2815D1E11704EB5171C910A4EBC1020E
:1021F000802111419BF80020114228D00AEB0602F1
:1022000091B208EB040290B20E9AFFF786FB1EE033
:10221000E11704EB5171C910A4EBC10280211141F7
:102220009BF80020114209D00AEB060291B208EB9C
:10223000040290B20E9AFFF770FB08E00AEB060268
:1022400091B208EB040290B20D9AFFF766FBE1171A
:1022500004EB5171C910A4EBC101072901D10BF1A5
:10226000010B641C2889A042B9DC2889C11700EB46
:102270005171C910B0EBC10101D00BF1010B761CFB
:102280006889B042A9DC03E07F1CA888B84288DCDA
:1022900000BF09F102092889804499F8000000284C
:1022A0007FF403AFBDE8FF8F2DE9F04FADF5037D5F
:1022B00006460F4615469946DDF834B2DDF830A2E1
:1022C0000024A0464FF4807143A800F016F94FF4A3
:1022D000807103A800F011F943A802908248808819
:1022E000B04203DB8048C088B84203DA0DF5037DB5
:1022F000BDE8F08F0CE00A2095FBF0F100FB1150D7
:10230000303003A90855601C04B20A2095FBF0F593
:10231000002DF0D10BE0601E03A9085C43A901F871
:10232000080008F101000FFA80F8601E04B2002CCA
:10233000F1DC4B46CDE900AB39463046029AFFF757
:102340006DFE00BFD2E72DE9FF4F85B005469046F0
:102350009A46DDE9126765A207CA02AB07C3BAF85D
:10236000044098F804000A2190FBF1F002A911F84A
:10237000009053464A46CDE9006728460699FFF784
:10238000C8FD98F804000A2190FBF1F201FB12004D
:1023900002A911F80090291988B253464A46CDE99E
:1023A00000670699FFF7B5FDA146E11704EB9171AF
:1023B0002A1902EBA101A34604EBDB7201EB6201D7
:1023C00088B253463A22CDE900670699FFF7A1FD8E
:1023D00098F805000A2190FBF1F002A911F800B06D
:1023E00004EBD97105EB440202EB610188B253465C
:1023F0005A46CDE900670699FFF78BFD98F805006E
:102400000A2190FBF1F201FB120002A911F800B0C1
:1024100004EBD97104EB44022A4402EB610188B257
:1024200053465A46CDE900670699FFF772FD04EB63
:10243000D97105EB840202EB6101A346E21704EBBC
:102440009272A1EBA20188B253463A22CDE900670D
:102450000699FFF75EFD98F806000A2190FBF1F05F
:1024600002A911F8009004EB8401294488B2534674
:102470004A46CDE900670699FFF74BFD98F806003C
:102480000A2190FBF1F201FB120002A911F8009061
:1024900004EB440105EB410188B253464A46CDE9BD
:1024A00000670699FFF735FD09B0BDE8F08F30B53C
:1024B00002460023002111E0002009E00A4C648A52
:1024C00001FB0403D45C084D2D68EC54441CA0B2FD
:1024D000054C648A8442F1DC4C1CA1B2024CA48AF3
:1024E0008C42E9DC30BD0000BC3B0020303132338F
:1024F000343536373839000070474FF0000200B5E8
:10250000134694469646203922BFA0E80C50A0E816
:102510000C50B1F12001BFF4F7AF090728BFA0E8C4
:102520000C5048BF0CC05DF804EB890028BF40F890
:10253000042B08BF704748BF20F8022B11F0804FD2
:1025400018BF00F8012B70477047704770477047FD
:10255000754600F029F8AE4605006946534620F05E
:102560000700854618B020B5FEF7F4F9BDE8204015
:102570004FF000064FF000074FF000084FF0000B3F
:1025800021F00701AC46ACE8C009ACE8C009ACE8F2
:10259000C009ACE8C0098D4670470446AFF300801F
:1025A0002046FDF70CFE000000487047D43B002099
:1025B000000000000000000000000000000000001B
:1025C0000000000000000000000786703CC381E7A7
:1025D000CC3F07E610FF3786010CC381E603030EEC
:1025E000607B000000000000000000000000000010
:1025F00000000000000000000000000786703CC3DF
:1026000081E7CC3F07E610FF3786010CC381E60364
:10261000030E607B000000000000000000000000CE
:1026200000000000000000000000000000078670AD
:102630003CC381E7CC3F07E610FF3786010CC3811E
:10264000E603030E607B00000000000000000000B5
:102650000000000000000000000000000000000773
:1026600086703CC381E7CC3F07E610FF3786010C3C
:10267000C381E603030E607B000000000000000041
:10268000000000000000000000000000000000004A
:10269000000786703CC381E7CC3F07E610FF378612
:1026A000010CC381E603030E607B00000000000004
:1026B000000000000000000000000000000000001A
:1026C0000000000786703CC381E7CC3F07E610FF9F
:1026D0003786010CC381E603030E607B0000000017
:1026E00000000000000000000000000000000000EA
:1026F00000000000000786703CC381E7CC3F07E67E
:1027000010FF3786010CC381E603030E607B0000D7
:1027100000000000000000000000000000000000B9
:10272000000000000000000786703CC381E7CC3F3A
:1027300007E610FF3786010CC381E603030E607BBA
:102740000000000000000000000000000000000089
:102750000000000000000000000786703CC381E715
:10276000CC3F07E610FF3786010CC381E603030E5A
:10277000607B00000000000000000000000000007E
:1027800000000000000000000000000786703CC34D
:1027900081E7CC3F07E610FF3786010CC381E603D3
:1027A000030E607B0000000000000000000000003D
:1027B000000000000000000000000000000786701C
:1027C0003CC381E7CC3F07E610FF3786010CC3818D
:1027D000E603030E607B0000000000000000000024
:1027E00000000000000000000000000000000007E2
:1027F00086703CC381E7CC3F07E610FF3786010CAB
:10280000C381E603030E607B0000000000000000AF
:1028100000000000000000000000000000000000B8
:10282000000786703CC381E7CC3F07E610FF378680
:10283000010CC381E603030E607B00000000000072
:102840000000000000000000000000000000000088
:102850000000000786703CC381E7CC3F07E610FF0D
:102860003786010CC381E603030E607B0000000085
:102870000000000000000000000000000000000058
:1028800000000000000786703CC381E7CC3F07E6EC
:1028900010FF3786010CC381E603030E607B000046
:1028A0000000000000000000000000000000000028
:1028B000000000000000000786703CC381E7CC3FA9
:1028C00007E610FF3786010CC381E603030E607B29
:1028D00000000000000000000000000000000000F8
:1028E0000000000000000000000786703CC381E784
:1028F000CC3F07E610FF3786010CC381E603030EC9
:10290000607B0000000000000000000000000000EC
:1029100000000000000000000000000786703CC3BB
:1029200081E7CC3F07E610FF3786010CC381E60341
:10293000030E607B000000000000000000000000AB
:10294000000000000000000000000000000786708A
:102950003CC381E7CC3F07E610FF3786010CC381FB
:10296000E603030E607B0000000000000000000092
:102970000000000000000000000000000000000750
:1029800086703CC381E7CC3F07E610FF3786010C19
:10299000C381E603030E607B00000000000000001E
:1029A0000000000000000000000000000000000027
:1029B000000786703CC381E7CC3F07E610FF3786EF
:1029C000010CC381E603030E607B000000000000E1
:1029D00000000000000000000000000000000000F7
:1029E0000000000786703CC381E7CC3F07E610FF7C
:1029F0003786010CC381E603030E607B00000000F4
:102A000000000000000000000000000000000000C6
:102A100000000000000786703CC381E7CC3F07E65A
:102A200010FF3786010CC381E603030E607B0000B4
:102A30000000000000000000000000000000000096
:102A4000000000000000000786703CC381E7CC3F17
:102A500007E610FF3786010CC381E603030E607B97
:102A60000000000000000000000000000000000066
:102A70000000000000000000000786703CC381E7F2
:102A8000CC3F07E610FF3786010CC381E603030E37
:102A9000607B00000000000000000000000000005B
:102AA00000000000000000000000000786703CC32A
:102AB00081E7CC3F07E610FF3786010CC381E603B0
:102AC000030E607B0000000000000000000000001A
:102AD00000000000000000000000000000078670F9
:102AE0003CC381E7CC3F07E610FF3786010CC3816A
:102AF000E603030E607B0000000000000000000001
:102B000000000000000000000000000000000007BE
:102B100086703CC381E7CC3F07E610FF3786010C87
:102B2000C381E603030E607B00000000000000008C
:102B30000000000000000000000000000000000095
:102B4000000786703CC381E7CC3F07E610FF37865D
:102B5000010CC381E603030E607B0000000000004F
:102B60000000000000000000000000000000000065
:102B70000000000786703CC381E7CC3F07E610FFEA
:102B80003786010CC381E603030E607B0000000062
:102B90000000000000000000000000000000000035
:102BA00000000000000786703CC381E7CC3F07E6C9
:102BB00010FF3786010CC381E603030E607B000023
:102BC0000000000000000000000000000000000005
:102BD000000000000000000786703CC381E7CC3F86
:102BE00007E610FF3786010CC381E603030E607B06
:102BF00000000000000000000000000000000000D5
:102C00000000000000000000000786703CC381E760
:102C1000CC3F07E610FF3786010CC381E603030EA5
:102C2000607B0000000000000000000000000000C9
:102C300000000000000000000000000786703CC398
:102C400081E7CC3F07E610FF3786010CC381E6031E
:102C5000030E607B00000000000000000000000088
:102C60000000000000000000000000000007867067
:102C70003CC381E7CC3F07E610FF3786010CC381D8
:102C8000E603030E607B000000000000000000006F
:102C9000000000000000000000000000000000072D
:102CA00086703CC381E7CC3F07E610FF3786010CF6
:102CB000C381E603030E607B0000000000000000FB
:102CC0000000000000000000000000000000000004
:102CD000000786703CC381E7CC3F07E610FF3786CC
:102CE000010CC381E603030E607BFFFFFFFFFFFFC4
:102CF000FFFFFFFFFFFFFFFFFFFFFFFFFFFFFFFFE4
:102D0000FFFFFFFFFFFFFFFFFFFFFFFFFFFFFFFFD3
:102D1000FFFFFFFFFFFFFFFFFFFFFFFFFFFFFFFFC3
:102D2000FFFFFFFFFFFFFFFFFFFFFFFFFFFFFFFFB3
:1031A000FFFFFFFFC001E00FFF801FFF0003F000E3
:1031B0003E0007FFE000007FFFF00001FFFFE1FF9E
:1031C000FE00003F800001E00001FFFFFFFFFF81E4
:1031D000FFFFF807FFFFC001E007FF801FFC0000B2
:1031E00070003E0007FFE000007FFFF000007FFF5F
:1031F000C1FFFE00000F800001E000007FFFFFFF25
:10320000FF01FFFFE001FFFFC001E003FF801FF0AF
:10321000000030003E0007FFE000007FFFF00000EC
:103220003FFFC0FFFE000007800001E000003FFFFD
:10323000FFFFFE01FFFFC000FFFFF80FFC01FFF0E2
:10324000FFE00FE07E01FFC03FFFFC01C07FFFFEFB
:1032500003C01FFF80FFFFC07803F00701FC03805D
:103260001FFFFFFFFE01FFFFC0007FFFF80FFC0103
:10327000FFF0FFC03FF87F01FFC03FFFFC07FC7F6E
:10328000FFFE03E01FFF80FFFFC07C03F01FF1FC87
:1032900007E01FFFFFFFFC01FFFFC0003FFFF80F2B
:1032A000FC00FFF1FF80FFFC7F01FFE03FFFFC0718
:1032B000FCFFFFFE03F01FFF807FFFC07E03F01FB7
:1032C000F3FC07F01FFFFFFFF801FFFF81803FFFC6
:1032D000F80FFC007FF1FF00FFFC7F01FFE07FFFA4
:1032E000FC07FCFFFFFE03F01FFF007FFFC07E0115
:1032F000F01FF3FC07F01FFFFFFFF801FFFF87E05F
:103300003FFFF80FFC003FF1FF01FFFC7F01FFE0F2
:103310007FFFFC07FFFFFFFE03F01FFF003FFFC022
:103320007E03F01FFFFC07F01FFFFFFFF081FFFF90
:103330008FE03FFFF80FFC001FF1FE03FFFC7F0151
:10334000FFE07FFFFC07FFFFFFFE03F01FFE003FD3
:10335000FFC07F03F01FFFFC07F01FFFFFFFF1819D
:10336000FFFF8FF03FFFF80FFC001FF1FE03FFFF90
:10337000FF01FFE07FFFFC07F3FFFFFE03F01FFEEE
:10338000001FFFC07E03F01FCFFC07F01FFFFFFFF1
:10339000E181FFFF8FF03FFFF80FFC200FF1FE03EC
:1033A000FFFFFF01FFE07FFFFC07F1FFFFFE03F0DF
:1033B0001FFE301FFFC07E03F01FCFFC07F03FFF52
:1033C000FFFFE381FFFFFFE03FFFF80FFC3007F155
:1033D000FC03FFFFFF01FFE07FFFFC07F3FFFFFEA1
:1033E00003F03FFC301FFFC07E07F01FCFFC07E05B
:1033F0007FFFFFFFC781FFFFFFE07FFFF80FFC3873
:1034000003F1FC07FFFFFF0000007FFFFC07C3FF85
:10341000FFFE03C03FFC300FFFC07C07F01F0FFC16
:1034200007C0FFFFFFFFC781FFFFFFE07FFFF80F2F
:10343000FC3C01F1FC07FFFFFF0000007FFFFC00E8
:1034400003FFFFFE00007FF8780FFFC0000FF000C1
:103450000FFC0001FFFFFFFF8781FFFFFFE0FFFF81
:10346000F80FFC3E00F1FC07FFFFFF0000007FFFAC
:10347000FC0003FFFFFE0001FFF87807FFC0003FDC
:10348000F0000FFC0003FFFFFFFF8F81FFFFFFC075
:10349000FFFFF80FFC3E00F1FC07FFFFFF000000FC
:1034A0007FFFFC0003FFFFFE0207FFF8FC07FFC0E1
:1034B00040FFF0000FFC0403FFFFFFFF0F81FFFF41
:1034C000FF81FFFFF80FFC3F0071FC03FFFFFF01CE
:1034D000FFE07FFFFC07E3FC007E03FFFFF0FC033F
:1034E000FFC07FFFF01F8FFC0601FFFFFFFF1F8162
:1034F000FFFFFF83FFFFF80FFC3F8031FC03FFFF5E
:10350000FF01FFE07FFFFC07F3F8007E03FFFFF001
:103510000003FFC07FFFF01FCFFC0701FFFFFFFE8E
:1035200000003FFFFF07FFFFF80FFC3FC011FE0345
:10353000FFFFFF01FFE07FFFFC07F1F8007E03FFC4
:10354000FFE00003FFC07FFFF01FCFFC0700FFFF7D
:10355000FFFE00003FFFFE0FFFFFF80FFC3FE00102
:10356000FE03FFFFFF01FFE07FFFFC07FFF8007E87
:1035700003FFFFE00001FFC07FFFF01FFFFC07809B
:103580007FFFFFFE00003FFFFC1FFFFFF80FFC3F27
:10359000E001FE01FFFFFF01FFE07FFFFC07FFF0FE
:1035A00000FE03FFFFE00001FFC07FFFF01FFFFCF4
:1035B00007C07FFFFFFE00003FFFF83FFFFFF80F4F
:1035C000FC3FF001FF00FFFFFF01FFE07FFFFC0772
:1035D000FF3800FE03FFFFC3FF00FFC07FFFF01FA7
:1035E000FCFC07C03FFFFFFE7F01FFFFF07FFFFFF6
:1035F000F80FFC3FF801FF00FFFFFF01FFE07FFF36
:10360000FC07FE3FFFFE03FFFFC3FF00FFC07FFF7D
:10361000F01FF8FC07E01FFFFFFFFF81FE0FE0FF38
:10362000DFFFF80FFC3FFC01FF807FFFFF01FFE0A1
:103630003FFFFC07FE3FFFFE03FFFF87FF80FFC049
:103640007FFFF01FF8FC07E01FFFFFFFFF81FC0773
:10365000C0001FFFF80FFC3FFE01FF803FFF7F010E
:10366000FFE03FFFFC07FE3FFFFE03FFFF87FF80F9
:103670007FC07FFFF01FF8FC07F00FFFFFFFFF0187
:10368000FC0780001FFFF80FFC3FFF01FFC00FFC8D
:103690003F01FFC03FFFFC07FC3FFFFE03FFFF872A
:1036A000FFC07FC07FFFF01FF0FC07F807FFFFFFA0
:1036B000FE00FC0700001FFFF007F81FFF80FFE07F
:1036C00000007E00FFC03FFFFC00003FFFFC01FF49
:1036D000FE07FF803F803FFFF00000F803F803FF84
:1036E000FFFFF0003C0700001FFFC001E007FF8064
:1036F000FFF0000070003E0007FFF800003FFFF001
:10370000003FF800FE000E0007FFE00000E0007C34
:1037100001FFFFFFF0003C0F00001FFFC001E007AA
:10372000FFC0FFFC0001F0003E0007FFF000003F7B
:10373000FFF0003FF800FE000E0007FFC00000E0B1
:10374000007C01FFFFFFF7FFBF3FBFFF9FFFFFFFB1
:10375000FFFFFFF0FFFF800FFFFFFFFFFFFFFFFFF7
:10376000FFFFFFFFFFFFFFFFFFFFFFFFFFFFFFFF69
:10377000FFFFFFFFFFFFFFFFFFFFFFFFFFFFFFFF59
:10378000FFFFFFFFFFFFFFFFFFFFFFFFFFFFFFFF49
:10379000FFFFFFFFFFFFFFFFFFFFFFFFFFFFFFFF39
:103AF000FFFFFFFFFFFFFFFFFFFF000000000000D0
:103B000000000000000000000000000000000000B5
:103B100000000000000000000000000000000000A5
:103B20000000000000000000000000000000000095
:103B30000000000000000000000000000000000085
:103B40000000000000000000000000000000000075
:103B50000000000000000000000000000000000065
:103B60000000000000000000000000000000000055
:103B70000000000000000000000000000000000045
:103B80000000000000000000000000000000000035
:103B90000000000000000000000000000000000025
:103BA0000000000000000000000000000000000015
:103BB0000000000000000000000000000000000005
:103BC00000000000000000000000000000000000F5
:103BD00000000000000000000000000000000000E5
:103BE00000000000000000000000000000000000D5
:103BF00000000000000000000000000000000000C5
:103C000000000000000000000000000000000000B4
:103C10000000000000000000FFFC000000000000A9
:103C20000000000000000000000000000000000094
:103C30000000000000000000000000000000000084
:103C40000000000000000000000FFFFFC0000000A7
:103C50000000000000000000000000000000000064
:103C60000000000000000000000000000000000054
:103C700000000000000000000000003FFFFFF00017
:103C80000000000000000000000000000000000034
:103C90000000000000000000000000000000000024
:103CA00000000000000000000000000003F8000019
:103CB0007F00000000000000000000000000000085
:103CC00000000000000000000000000000000000F4
:103CD00000000000000000000000000000000FC015
:103CE00000000FC000000000000000000000000005
:103CF00000000000000000000000000000000000C4
:103D000000000000000000000000000000000000B3
:103D10001F00000003E000000000000000000000A1
:103D20000000000000000000000000000000000093
:103D30000000000000000000000000000000000083
:103D400000007C00000000F80000000000000000FF
:103D50000000000000000000000000000000000063
:103D60000000000000000000000000000000000053
:103D700000000001E001FFFE001E00000000000046
:103D80000000000000000000000000000000000033
:103D90000000000000000000000000000000000023
:103DA000000000000007800FFFFFC0078000000038
:103DB0000000000000000000000000000000000003
:103DC00000000000000000000000000000000000F3
:103DD000000000000000000E007FFFFFF801C0009F
:103DE00000000000000000000000000000000000D3
:103DF00000000000000000000000000000000000C3
:103E00000000000000000000001C01FFFFFFFE009A
:103E1000E0000000000000000000000000000000C2
:103E20000000000000000000000000000000000092
:103E300000000000000000000000003807FFFFFF46
:103E4000FF807000000000000000000000001C0067
:103E50000000000000000000000000000000000062
:103E600000000000000000000000000000F01FFF44
:103E7000FFFFFFE03C000000000000000000000029
:103E80001C00000000000000000000000000000016
:103E9000000000000000000000000000000001E041
:103EA0007FFFFFFFFFF81E00000000000000000081
:103EB00000001C00000000000000000000000000E6
:103EC00000000000000000000000000000000000F2
:103ED00003C0FFFFFFFFFFFC0F0000000000000019
:103EE000000000001C0000000000000000000000B6
:103EF0000000000000000000000FE00000000000D3
:103F000000000381FFFFFFFFFFFE0700000000002D
:103F10000000000000007F800000000000000000A2
:103F200000000000000000000000003FF8007FFFDC
:103F3000C00000000703FFFFFFFFFFFF038000003A
:103F40000000000000000001FFE000000000000091
:103F500000000000000000000000000000FFFC0066
:103F60007FFFC00000000E07FFFFFFFFFFFF81C0C3
:103F700000000000000000000003FFF0000000004F
:103F8000000000000000000000000000000001F838
:103F90007E007FFFC00000001C0FFFFFFFFFFFFF40
:103FA000C0E000000000000000000007DDF8000095
:103FB0000000000000000000000000000000000001
:103FC00001E03F007FFF80000000181FFFFFFFFFA0
:103FD000FFFFE060000000000000000000079CF808
:103FE00000000003FFF00000000000001F000000C0
:103FF000000003C01F00700000000000303FFFFF02
:10400000FFFFFFFFF0300000000000000000000F85
:104010001CF80000001FFFFC0000000000007F8073
:104020000000000003C01F80F00000000000707F4F
:10403000FFFFFFFFFFFFF838000000000000000056
:10404000000F1DF80000007FFFFF000000000001CE
:10405000FF800000000003C00F80F000000000009F
:1040600060FFFFFFFFFFFFFFFC18000000000000E3
:104070000000000F9DF8000000FFFFFFC0000000DF
:104080000007FF800000000007E00F80F000000044
:104090000000E0FFFFFFFFFFFFFFFC1C000000002F
:1040A00000000000000F9DF8000003FFFFFFE0008C
:1040B0000000001FFF800000000007E00F80E0000C
:1040C00000000000C1FFFFFFFFFFFFFFFE0C00002C
:1040D000000000000000000F9CF0000007FFFFFF41
:1040E000F800000000FFFF800000000003E00F80E8
:1040F000E00000000001C3FFFFFFFFFFFFFEFF0E17
:104100000000000000000000000FDC0000000FFFB6
:10411000FFFFFC00000003FFFF800000000003E041
:104120001F80E0000000000383FFFFFFFFFFFFF0A0
:10413000FF0700000000000000000007FC00000076
:104140001FFFFFFFFE0000000FFFFF8000000000C8
:1041500000C01F00E3F80000000387FFFFFFFFFF20
:10416000FE71FF8700000000000000000007FC0057
:1041700000001FFFFFFFFE0000003FFFFF80000068
:10418000000000001F00EFFC0000000307FFFFFF1E
:10419000FFFFFC71FF83000000000000000000032F
:1041A000FE0000003FFFFFFFFF0000007FFFFF80D9
:1041B0000000000000003E00FFFF000000070FFFAE
:1041C000FFFFFFFE0C23FFC3800000000000000083
:1041D0000001FF0000007FFFFFFFFF8000007FFF66
:1041E000FF800000000000007E00FFFF00000006CE
:1041F0000FFFFFFFFFF80C23FFC18000000000004D
:1042000000000000FF8000007FFFFFFFFF80000034
:104210003FFFFF800000000000007C00F81F8000CE
:1042200000071FFFFFFFFFF02E03FFE380000000E9
:104230000000000000007FC00000FFF803FFFFC087
:1042400000003E1FFF80000000000000F800F00F9B
:10425000C000000E1FFFFFFFEFF1FE07FFE1C000EF
:1042600000000000000000001FE00000FFE000FF71
:10427000FFC00000181FFF80000000000001F000D8
:10428000F00FC000000E1FFFFFFF87E1FE03FFE1FC
:10429000C00000000000000000001FF00000FF80D0
:1042A000003FFFE00000000FFF800000000000035F
:1042B000E0006007C000001C1FFFFFFF83E3FE005B
:1042C000FFE0E00000000000000000001FF000011F
:1042D000FF00001FFFE00000000FFF800000000053
:1042E0000007C0000007C000001C3FFFFFFF03E302
:1042F000FF107FF0E00000000000000000001DF84B
:104300000001FE00000FFFE00000000FFF80000032
:104310000000000F80000007C000001C3FFFF1FFFD
:1043200001E3FF183FF0C0000000000000000000A3
:104330001CF80001FC00000FFFE00000000FFF80F0
:1043400000000000001F00000007E000001C3FFF0D
:10435000F0FF10E1FF0C1FF0E00000000000000083
:1043600000071CF80003F8000007FFE00000000F42
:10437000FF8000000000003E00004007E000001841
:104380003FC078FF18E1FB0E3FF060000000000026
:104390000000000F9C7C0003F8000007FFE0000015
:1043A000000FFF8000000000003C0000F007C0008C
:1043B00000187F0038FF1870638FFFF8600000005E
:1043C00000000000001F9C7C0003F0000003FFE0E1
:1043D0000000000FFF800000000000780381F0075C
:1043E000C00000187F8438FF003001BFFFF8600074
:1043F000000000000000001F9C780003F000000394
:10440000FFE00000000FFF800000000000F00381CB
:10441000F007C00000187F8E387F003C03FFFFF8D4
:104420006000000000000000001F9C780003E00016
:104430000003FFE00000000FFF800000000001F01B
:104440000381F007C00000187F8C3C7F021F1FFF14
:10445000FFF86000000000000000001F1C78000151
:10446000E0000003FFE00000000FFF8000000000FC
:1044700003E00781F00FC00000187F803C7F1F0F12
:10448000FFFF87F86000000000000000001F1CF81C
:10449000000000000001FFE00000000FFF800000AE
:1044A0001C0003C01F81F00F800000187FC01C7E1D
:1044B0001F3FFFFC03F86000000000000000000F39
:1044C0009DF0000000000001FFE00000000FFF80F1
:1044D00000003E0007FFFF81F01F800000187FC230
:1044E0000C021FFFFF8C0FF86000000000000000AE
:1044F0000007FFE0000000000001FFE00000000FE7
:10450000FF8000003F0007FFFF00FC3F0000001895
:104510007FC78C003FFFF80C7FF8600000000000B0
:1045200000000003FFC0000000000001FFE00000E9
:10453000000FFF8000003F0007FFFF007FFE00002C
:1045400000187FC30E03FFFFC00C3FF8600000009F
:10455000000000000001FF00000000000003FFC099
:104560000000000FFF8000001E0007FFFF001FFC7F
:10457000000000187FE20E3FFFF8407C23F8600047
:1045800000000000000000001C000000000000030C
:10459000FFC00000000FFF8000000C0000000000C2
:1045A00007E0000000187FE01FFFFFB04C7E03F81B
:1045B000600000000000000000001C00000000007F
:1045C0000003FFC00000000FFF800000000000009B
:1045D00000000000000000183FE07FFFFE307C7EFE
:1045E00003F0600000000000000000001C0000005C
:1045F00000000003FF800000000FFF8000000000AB
:104600000000000000000000001C3FE7FFFFBE3874
:104610007C3E1FF0C00000000000000000001C00F5
:10462000000000000003FF800000000FFF8000007A
:1046300000000000000000000000001C3FFFFFFE23
:104640003E1C7E3E1FF0E000000000000000000065
:104650001C00000000000007FF800000000FFF802A
:10466000000000000000000000000000001C3FFFF0
:10467000FFC63F1C7E3F18F0E00000000000000075
:1046800000000000000000000007FF000000000F15
:10469000FF80000000000000000000000000001C7F
:1046A0003FFFFBC61F1C7E3F00F0E0000000000043
:1046B000000000000000000000000007FF000000F4
:1046C000000FFF800000000000000000000000005C
:1046D000000C1FFFE1C71C1C3E1F00E0C0000000D3
:1046E000000000000000000000000000000FFE00BD
:1046F0000000000FFF80000000000000000000002C
:104700000000000E1FF9E1C7000E3F1F0FE1C000BF
:104710000000000000000000000000000000000F8A
:10472000FC000000000FFF800000000000000000FF
:1047300000000000000E1FF1E0C7000E3F1FFFE168
:10474000C0000000000000000000000000000000A9
:10475000001FFC000000000FFF80000000000000B0
:1047600000000000000000060FF0E0C7038E0F1FDE
:10477000FFC18000000000000000000000000000F9
:104780000000001FF8000000000FFF800000000084
:10479000000000000000000000070FF8E0478F8CC9
:1047A0000FFFFFC3800000000000000000000000B9
:1047B00000000000003FF8000000000FFF80000034
:1047C00000000000000000000000000307F864473C
:1047D0008F860FFFFF830000000000000000000034
:1047E000000000000000003FF0000000000FFF800C
:1047F000000000000000000000000000000307FCB3
:1048000066078FC6FFFFFF83000000000000000066
:104810000000000000000000007FE0000000000F2A
:10482000FF80000000000000000000000000000306
:1048300083FC260787CFFFFFFF0700000000000072
:104840000000000000000000000000FFC0000000A9
:10485000000FFF80000000000000000000000000CA
:104860000001C3FE0707C7FFFFFFFF0E00000000A7
:1048700000000000000000000000000000FFC00079
:104880000000000FFF80000000000000000000009A
:1048900000000000C1FE0707CFFFFFFFFE0C000075
:1048A000000000000000000000000000000001FF08
:1048B00080000000000FFF800000000000000000EA
:1048C000000000000000E1FF0787FFFFFFFFFE1C64
:1048D00000000000000000000000000000000000D8
:1048E00003FF00000000000FFF8000000000000038
:1048F000000000000000000060FF078FFFFFFFFFC7
:10490000FC18000000000000000000000000000093
:10491000000007FE00000000000FFF800000000004
:1049200000000000000000000000607F87FFFFFF24
:10493000FFFFF81800000000000000000000000069
:104940000000000007FE00000000000FFF800000D4
:10495000000000000000000000000000303FCFFF1A
:10496000FFFFFFFFF030000000000000000000002B
:104970000000000000000FFC00000000000FFF809E
:104980000000000000000000000000000000183FD0
:10499000FFFFFFFFFFFFF0600000000000000000CD
:1049A00000000000000000001FF800000000000FE1
:1049B000FF80000000000000000000000000000078
:1049C0001C1FFFFFFFFFFFFFE0E0000000000000F2
:1049D000000000000000000000003FF000000000A8
:1049E000000FFF8000000000000000000000000039
:1049F00000000E0FFFFFFFFFFFFFC1C0000000001F
:104A00000000000000000000000000007FE0000047
:104A10000000000FFF800000000000000000000008
:104A2000000000000607FFFFFFFFFFFF818000007E
:104A30000000000000000000000000000000FFC0B7
:104A400000000000000FFF800000000000000000D8
:104A50000000000000000301FFFFFFFFFFFE030056
:104A60000000000000000000000000000000000046
:104A7000FF8000000000000FFF8000000000000029
:104A800000000000000000000380FFFFFFFFFFFCAC
:104A9000070000000000000000000000000000000F
:104AA0000001FF0000000000000FFF800000000078
:104AB0000000000000000000000001C07FFFFFFFB9
:104AC000FFF80E00000000000000000000000000E1
:104AD00000000003FE0000000000000FFF80000047
:104AE00000000000000000000000000000E01FFFC8
:104AF000FFFFFFE01C0000000000000000000000BD
:104B0000000000000007FE0000000000000FFF8012
:104B10000000000000000000000000000000007025
:104B20000FFFFFFFFFC03800000000000000000082
:104B3000000000000000000FFC0000000000000F5B
:104B4000FF800000000000000000000000000000E6
:104B5000001C03FFFFFFFF00E0000000000000005A
:104B60000000000000000000001FF800000000002E
:104B7000000FFF80000000000000000000000000A7
:104B80000000000E00FFFFFFFC01C000000000005D
:104B900000000000000000000000003FF0000000E6
:104BA0000000000FFF800000000000000000000077
:104BB000000000000007801FFFFFE00780000000EA
:104BC000000000000000000000000000007FE00086
:104BD000001E0000000FFF80000000000000000029
:104BE0000000000000000001E003FFFF001E0000C5
:104BF000000000000000000000000000000000FFB6
:104C0000C000003E0000000FFF8000000000000018
:104C100000000000000000000000F8000000007C20
:104C20000000000000000000000000000000000084
:104C300001FF8000003F0000000FFF800000000027
:104C40000000000000000000000000003F00000025
:104C500003F0000000000000000000000000000061
:104C6000000003FF0000007F0000000FFF80000035
:104C700000000000001C00000000000000000FC049
:104C800000000FC000000000000000000000000055
:104C90000000000007FE000001FE0000000FFF8082
:104CA000000000000000007C000000000000000088
:104CB00003F000003F0000000000000000000000C2
:104CC0000000000000000FFC000007FE0000000FC5
:104CD000FF8000000000000000FC00000000000059
:104CE000000000FF8007FC00000000000000000042
:104CF00000000000000000001FFFFFFFFFFE00009B
:104D0000000FFF800000000000000FFC000000000A
:104D100000000000000FFFFFC000000000000000C6
:104D2000000000000000000000003FFFFFFFFFFC4C
:104D30000000000FFF800000000000000FFC001FBB
:104D4000F80FF80000000001FFFE00000000000066
:104D50000000000000000000000000007FFFFFFFD7
:104D6000FFFC0000000FFF8000000000000007FCB7
:104D7000001FFE1FF80000000000000000000000FF
:104D80000000000000000000000000000000FFFF25
:104D9000FFFFFFF80000000FFF8000000000000090
:104DA00000FC00079F3C78000000000000000000AD
:104DB00000000000000000000000000000000001F2
:104DC000FFFFFFFFFFF80000001FFF800000000052
:104DD000000000FC00079F78380000000000000081
:104DE00000000000000000000000000000000000C3
:104DF0000003FFFFFFFFFFF80000003FFFC00000BF
:104E00000000000000FC00079F7818000000000070
:104E10000000000000000000000000000000000092
:104E20000000000FFFFFFFFFFFF000001FFFFFFF6C
:104E3000C0000000000000FC00079EF81000000009
:104E40000000000000000000000000000000000062
:104E500000000000000FFFFFFFFFFFF000001FFF3A
:104E6000FFFFC0000000000000FC0007FEF800008B
:104E70000000000000000000000000000000000032
:104E8000000000000000000FFFFFFFFFFFF0000028
:104E90001FFFFFFFC0000000000000FC0007FCF83F
:104EA0000000000000000000000000000000000002
:104EB0000000000000000000000FFFFFFFFFFFE008
:104EC00000001FFFFFFFC0000000000000FC000703
:104ED00080F80000000000000000FFFFFFFFFFFF60
:104EE000FFFFFFFF000000000000000FFFFFFFFFBB
:104EF000FFE000001FFFFFFFC0000000000000FCFB
:104F0000000780781800000000000000FFFFFFFF8E
:104F1000FFFFFFFFFFFF0000000000000007FFFF92
:104F2000FFFFFFC000000FFFFFFF80000000000038
:104F300000FC0007807C3800000000000000FFFF3C
:104F4000FFFFFFFFFFFFFFFF000000000000000069
:104F50000000000000000000000000000000000051
:104F600000000FFF8007803E70000000000000007E
:104F7000E00000E7FF8007000007000000000000DD
:104F80000000000000000000000000000000000021
:104F9000000000000FFFC01FE01FF0000000000035
:104FA0000000E00000E7FF800700000700000000AD
:104FB00000000000000000000000000000000000F1
:104FC0000000000000000FFF801FC00FC0000000A5
:104FD00000000000E00000E7FF800700000700007D
:104FE00000000000000000000000000000000000C1
:104FF00000000000000000000000000000000000B1
:10500000000000000000E00000E7FF80070000074C
:105010000000000000000000000000000000000090
:105020000000000000000000000000000000000080
:105030000000000000000000E1FFF8E7E079FF1F3A
:10504000FF870000000000000000000000000000DA
:105050000000000000000000000000000000000050
:1050600000000000000000000000E10078E0FE7990
:10507000FF1E01870000000000000000000000008B
:105080000000000000000000000000000000000020
:10509000000000000000000000000000E10078E0D7
:1050A000FE79FF1E018700000000000000000000E4
:1050B00000000000000000000000000000000000F0
:1050C0000000000000000000000000000000E100FF
:1050D00078E0FE79FF1E018700000000000000005C
:1050E00000000000000000000000000000000000C0
:1050F00000000000000000000000000000000000B0
:10510000E10078E01E01871E01870000000000001A
:10511000000000000000000000000000000000008F
:10512000000000000000000000000000000000007F
:105130000000E10078E01E01871E018700000000EA
:10514000000000000000000000000000000000005F
:10515000000000000000000000000000000000004F
:1051600000000000E10078E01E01871E01870000BA
:10517000000000000000000000000000000000002F
:10518000000000000000000000000000000000001F
:10519000000000000000E10078E01E01871E01878A
:1051A00000000000000000000000000000000000FF
:1051B00000000000000000000000000000000000EF
:1051C0000000000000000000E10078F81E787F1E5B
:1051D0000187000000000000000000000000000047
:1051E00000000000000000000000000000000000BF
:1051F00000000000000000000000E10078F81E78C8
:105200007F1E018700000000000000000000000079
:10521000000000000000000000000000000000008E
:10522000000000000000000000000000E1FFF8E0C6
:105230001FFF871FFF870000000000000000000024
:10524000000000000000000000000000000000005E
:105250000000000000000000000000000000E1FF6E
:10526000F8E01FFF871FFF8700000000000000001C
:10527000000000000000000000000000000000002E
:10528000000000000000000000000000000000001E
:10529000E1FFF8E01FFF871FFF870000000000000C
:1052A00000000000000000000000000000000000FE
:1052B00000000000000000000000000000000000EE
:1052C0000000E1FFF8E01FFF871FFF8700000000DC
:1052D00000000000000000000000000000000000CE
:1052E00000000000000000000000000000000000BE
:1052F00000000000E00000E71E79870000070000C2
:10530000000000000000000000000000000000009D
:10531000000000000000000000000000000000008D
:10532000000000000000E00000E71E798700000791
:10533000000000000000000000000000000000006D
:10534000000000000000000000000000000000005D
:105350000000000000000000E00000E71E79870068
:105360000007000000000000000000000000000036
:10537000000000000000000000000000000000002D
:1053800000000000000000000000FFFFFFFF01F828
:1053900007FFFFFF00000000000000000000000009
:1053A00000000000000000000000000000000000FD
:1053B000000000000000000000000000FFFFFFFFF1
:1053C00001F807FFFFFF00000000000000000000E0
:1053D00000000000000000000000000000000000CD
:1053E0000000000000000000000000000000FFFFBF
:1053F000FFFF01F807FFFFFF0000000000000000B2
:10540000000000000000000000000000000000009C
:10541000000000000000000000000000000000008C
:10542000E0FE00FF1E7E07E1800700000000000094
:10543000000000000000000000000000000000006C
:10544000000000000000000000000000000000005C
:105450000000E0FE00FF1E7E07E180070000000064
:10546000000000000000000000000000000000003C
:10547000000000000000000000000000000000002C
:1054800000000000FE1E071FFFF807FE1E7F000041
:10549000000000000000000000000000000000000C
:1054A00000000000000000000000000000000000FC
:1054B000000000000000FE1E071FFFF807FE1E7F11
:1054C0000000000FC1F81F03FE07FF01FE01FFCF20
:1054D000FF0381FCFE01F600000000000000000058
:1054E0000000000000000000FE1E071FFFF807FE7E
:1054F0001E7F0000001FC1FC7FC3FF87FF81FFE10B
:10550000FFEFFF8381FFFE03FE00000000000000AC
:1055100000000000000000000000FEE1F8001FF89D
:105520007FE1FFFF00000007E1F0F9E1F7C3C7806A
:1055300079F0F1EEF787C0F87C079E0000000000CC
:10554000000000000000000000000000FEE1F80084
:105550001FF87FE1FFFF00000007E3F0F0F0F3C366
:10556000C38078F8F0ECF387C07878078E000000ED
:105570000000000000000000000000000000FEE14C
:10558000F8001FF87FE1FFFF00000007F3F1E0F8EB
:10559000F3C3C7007878F1C8F187E0787807C63898
:1055A00000000000000000000000000000000000FB
:1055B000E11E7F00FE7800E0018700000007F7F1A0
:1055C000E0F8F7C3CE00787CF380F00FE07878073E
:1055D000F63C000000000000000000000000000099
:1055E0000000E11E7F00FE7800E001870000000659
:1055F000F6F3E0F8FF83FE00787CFF80F00DE078A2
:105600007807FC7C000000000000000000000000A3
:1056100000000000E11E7F00FE7800E0018700002E
:105620000006FEF3E0F8FF03FE00787CFF80F01D2B
:10563000F0787803FE380000000000000000000051
:10564000000000000000E11E7F00FE7800E00187FE
:10565000000000067CF1E0F8FF83C600787CF18052
:10566000F01FF0787804FE10000000000000000039
:105670000000000000000000E11FF8E7E181F801F0
:10568000E007000000067CF1E0F8FF83C680787C2C
:10569000F1A0F01FF878783C3F0000000000000007
:1056A00000000000000000000000E11FF8E7E181B9
:1056B000F801E007000000067CF1F0F0F7C3C180BC
:1056C0007878F060F0307878783E0F38000000008D
:1056D000000000000000000000000000E0007F0764
:1056E0001E7807E0007F0000000738F0F1E1F3E3E7
:1056F000E38078F0F8E0F0307C78787F1E7C000062
:105700000000000000000000000000000000E000B9
:105710007F071E7807E0007F0000001FFBFC7FE38F
:10572000F9FFFF81FFE1FFE3FCFCFFFFFFFFFE3C11
:105730000000000000000000000000000000000069
:10574000E0007F071E7807E0007F0000001F93FC49
:105750003F83F9FFFF81FF81FFE3FCFCFFFEFFFFBA
:10576000F838000000000000000000000000000009
:105770000000E0007F071E7807E0007F00000000C7
:105780000000000000000000000000000000000019
:105790000000000000000000000000000000000009
:1057A00000000000FF000000E000001F9FFF00005D
:1057B00000000000000000000000000000000000E9
:1057C00000000000000000000000000000000000D9
:1057D000000000000000FF000000E000001F9FFF2D
:1057E00000000000000000000000000000000000B9
:1057F00000000000000000000000000000000000A9
:105800000000000000000000FFE00707E1867FE1E4
:10581000E187000000000000000000000000000020
:105820000000000000000000000000000000000078
:1058300000000000000000000000FFE00707E18614
:105840007FE1E18700000000000000000000000090
:105850000000000000000000000000000000000048
:10586000000000000000000000000000E00078E7F9
:105870001E0600006007000000000000000000009D
:105880000000000000000000000000000000000018
:105890000000000000000000000000000000E00028
:1058A00078E71E060000600700000000000000000E
:1058B00000000000000000000000000000000000E8
:1058C00000000000000000000000000000000000D8
:1058D000E00078E71E0600006007000000000000FE
:1058E00000000000000000000000000000000000B8
:1058F00000000000000000000000000000000000A8
:105900000000E00078E71E060000600700000000CD
:105910000000000000000000000000000000000087
:105920000000000000000000000000000000000077
:1059300000000000FFFFFFE0FF8187FE1E7F0000E8
:105940000000000000000000000000000000000057
:105950000000000000000000000000000000000047
:10596000000000000000FFFFFFE0FF8187FE1E7FB8
:105970000000000000000000000000000000000027
:105980000000000000000000000000000000000017
:105990000000000000000000FFFFFFE0FF8187FE25
:1059A0001E7F00000000000000000000000000005A
:1059B00000000000000000000000000000000000E7
:1059C00000000000000000000000E00000FFFFFFFA
:1059D000871E7FFF000000000000000000000000A4
:1059E00000000000000000000000000000000000B7
:1059F000000000000000000000000000E00000FFC8
:105A0000FFFF871E7FFF0000000000000000000075
:105A10000000000000000000000000000000000086
:105A20000000000000000000000000000000E00096
:105A300000FFFFFF871E7FFF0000001FE31FFE38EF
:105A4000FFF1C7E007FC0FC01FC3FF0007FE07F010
:105A5000FF7FF3FC0070FF3E007FC1F83F83F00042
:105A6000E1FFF8E71E7987FE607F0000001FE79FD7
:105A7000FE3CFFF1C7E01FFC3FF07FE3FFC007FFE4
:105A800087F3FF7FFBFC00F0FF3E00FFC7FE3F8770
:105A9000F000E1FFF8E71E7987FE607F0000000755
:105AA00087863C3C33E3E3803E3C7C7878F0F1E051
:105AB00001E3C3E3C71E7CF000F03E1C01E1CF8F81
:105AC0000F87C000E1FFF8E71E7987FE607F0000C6
:105AD0000007C7C63E7C71E3E3803C1C787CF0780D
:105AE000F0F001E3E3E7C71E7CF001F81F1803C1E3
:105AF000CF0F8FC7C000E1FFF8E71E7987FE607FF8
:105B000000000003CFCE3E7E61F3E3007C1CF83D35
:105B1000F078F0F801E1F3E7E31E7CF001F81F30C4
:105B200003C0DF0F8FCFC000E10078E0E18180008B
:105B3000600700000003CFCC1E7E60F3F3007808FE
:105B4000F03DF07CF0F801E1F3E3FC1E7CF003FC97
:105B50000FF003C0DE078FCFC000E10078E0E181E5
:105B60008000600700000003EFEC1FFE60F6F60007
:105B70007800F03DF07CF07801E1F3E3FE1FF8F0EF
:105B8000037C07E007C01E078DFFC000E10078FF1F
:105B90001E7FF801800700000001F9FC1FDFC0FE36
:105BA000FE0078FFF03DF078F07BF1E1F3E1FF1FBC
:105BB000F0F0033C07C007C01E078DFBC000E100EA
:105BC00078FF1E7FF801800700000001F9F80FCF71
:105BD000C07E7E00787EF83DF078F0FBF1E1F3E6E0
:105BE0007F1E00F007FE03C003C01E078DFBC00030
:105BF000E10078F8E0000701FE7F00000001F9F8FD
:105C00000FCFC07C7C047C3CF87DF078F0FBF1E1A8
:105C1000E3E60F9E00F0661E03C043C0DF0F8CF367
:105C2000C000E10078F8E0000701FE7F00000000FE
:105C3000F0F80787807C7C1E3C3C7878F0F8F0F028
:105C400001E1E3E70F1E00F06E1F03C0F3E0CF0F8A
:105C50000CF3C000E10078F8E0000701FE7F0000CF
:105C60000000F0F00787803C3C1E3E3C3CF878F09A
:105C7000FBE001E7C3E78F1F00F8EE1F03C0F1FB55
:105C8000C79F1EF3E000E10078F8E0000701FE7F07
:105C900000000000F0F007878038381E1FFC1FE06E
:105CA0003FE3FFC007FF07F7FE7F83FFFF3FCFF013
:105CB000F0FF83FC3F6FF000E1FFF8E00187F8E0C0
:105CC000607F00000000606003030018180C07E00C
:105CD0000FC00F81FC0003F807F6F83F81FFFF3F7C
:105CE0008FE0603E01F83F07F000E1FFF8E0018738
:105CF000F8E0607F000000000000000000000000ED
:105D00000000000000000000000000000000000093
:105D1000000000000000000000000000E00000E7BC
:105D20001E0678FFE00700000000000000000000F1
:105D30000000000000000000000000000000000063
:105D40000000000000000000000000000000E00073
:105D500000E71E0678FFE0070000000000000000DA
:105D60000000000000000000000000000000000033
:105D70000000000000000000000000000000000023
:105D8000E00000E71E0678FFE007000000000000CA
:105D90000000000000000000000000000000000003
:105DA00000000000000000000000000000000000F3
:105DB0000000E00000E71E0678FFE007000000009A
:105DC00000000000000000000000000000000000D3
:105DD00000000000000000000000000000000000C3
:105DE00000000000FFFFFFFFFFFFFFFFFFFF0000BD
:105DF00000000000000000000000000000000000A3
:105E00000000000000000000000000000000000092
:105E1000000000000000FFFFFFFFFFFFFFFFFFFF8C
:105E20000000000000000000000000000000000072
:105E30000000000000000000000000000000000062
:105E40000000000000000000FFFFFFFFFFFFFFFF5A
:105E5000FFFF000000000000000000000000000044
:105E60000000000000000000000000000000000032
:105E70000000000000000000000000000000000022
:105E80000000000000000000000000000000000012
:105E90000000000000000000000000000000000002
:105EA00000000000000000000000000000000000F2
:105EB00000000000000000000000000000000000E2
:105EC00000000000000000000000000000000000D2
:105ED00000000000000000000000000000000000C2
:105EE00000000000000000000000000000000000B2
:105EF00000000000000000000000000000000000A2
:105F00000000000000000000000000000000000091
:105F10000000000000000000000000000000000081
:105F20000000000000000000000000000000000071
:105F30000000000000000000000000000000000061
:105F40000000000000000000000000000000000051
:105F50000000000000000000000000000000000041
:105F60000000000000000000000000000000000031
:105F70000000000000000000000000000000000021
:105F80000000000000000000000000000000000011
:105F90000000000000000000000000000000000001
:105FA00000000000000000000000000000000000F1
:105FB00000000000000000000000000000000000E1
:105FC00000000000000000000000000000000000D1
:105FD00000000000000000000000000000000000C1
:105FE00000000000000000000000000000000000B1
:105FF00000000000000000000000000000000000A1
:106000000000000000000000000000000000000090
:106010000000000000000000000000000000000080
:106020000000000000000000000000000000000070
:106030000000000000000000000000000000000060
:106040000000000000000000FFFFFFFFFFFFFFFF58
:10605000FFFFFFFFFFFFFFFFFFFFFFFFFFFFFFFF50
:10606000FFFFFFFFFFFFFFFFFFFFFFFFFFFFFFFF40
:10607000FFFFFFFFFFFFFFFFFFFFFFFFFFFFFFFF30
:10608000FFFFFFFFFFFFFFFFFFFFFFFFFFFFFFFF20
:1064D000FFE000FFFFFFFFFFFFFFFFFFFFFFFFFFEA
:1064E000FFFFFFFFFFFFFFFFFFFFFFFFFFFFFFFFBC
:1064F000FFFFFFFFFFFFFFFFFFFFFFFFFFFF0001A9
:10650000FFFFFF80001FFFFFFFFFFFFFFFFFFFFFF9
:10651000FFFFFFFFFFFFFFFFFFFFFFFFFFFFFFFF8B
:10652000FFFFFFFFFFFFFFFFFFFFFFFFFFFFFFFE7C
:106530000001FFFFFE00000FFFFFFFFFFFFFFFFF57
:10654000FFFFFFFFFFFFFFFFFFFFFFFFFFFFFFFF5B
:10655000FFFFFFFFFFFFFFFFFFFFFFFFFFFFFFFF4B
:10656000FFFE0001FFFFF8000003FFFFFFFFFFFF3A
:10657000FFFFFFFFFFFFFFFFFFFFFFFFFFFFFFFF2B
:10658000FFFFFFFFFFFFFFFFFFFFFFFFFFFFFFFF1B
:10659000FFFFFFFC0001FFFFF0000001FFFFFFFF16
:1065A000FFFFFFFFFFFFFFFFFF320C7CF7BE7C27E2
:1065B0000C7C24C83C9FD9CF9FD83DBC1B3FFFFF1C
:1065C000FFFFFFFFFFFC0001FFFFE0000000FFFFF7
:1065D000FFFFFFFFFFFFFFFFFFFFFF320C7CF7BE57
:1065E0007C270C7C24C83C9FD9CF9FD83DBC1B3F47
:1065F000FFFFFFFFFFFFFFF80001FFFFC0000000EB
:106600007FFFFFFFFFFFFFFFF03FFFFFFF320C7C2C
:10661000F7BE7C270C7C24C83C9FD9CF9FD83DBCBB
:106620001B3FFFFFFFFFFFFFFFF00001FFFF8000A8
:1066300000003FFFFFFE00FFFFFFE03FFFFFFF32D4
:106640000C7CF7BE7C270C7C24C83C9FD9CF9FD8FC
:106650003DBC1B3FFFFFFFFFFFFFFFF00001FFFFFF
:10666000800000001FFFFFF0003FFFFFE03FFFFF43
:10667000FF320C7CF7BE7C270C7C24C83C9FD9CF12
:106680009FD83DBC1B3FFFFFFFFFFFFFFFE0000166
:10669000FFFF000000001FFFFFE0000FFFFFC07FB3
:1066A000FFFFFF320C7CF7BE7C270C7C24C83C9F8C
:1066B000D9CF9FD83DBC1B3FFFFFFFFFFFFFFFE08F
:1066C0000001FFFE0003F8000FFFFFC00007FFFFFF
:1066D000C07FFFFFFF320C7CF7BE7C270C7C24C8F8
