:020000040800F2
:1000000080EA0020490900081D0500081F050008B6
:1000100023050008270500082B0500080000000044
:100020000000000000000000000000002F05000894
:100030003105000800000000330500083505000800
:1000400063090008630900086309000863090008E0
:1000500063090008630900086309000863090008D0
:1000600063090008630900086309000863090008C0
:1000700063090008630900086309000863090008B0
:1000800063090008630900086309000863090008A0
:100090006309000863090008630900086309000890
:1000A0006309000863090008630900086309000880
:1000B0006309000863090008630900086309000870
:1000C0006309000863090008630900086309000860
:1000D00063090008BD0800086309000863090008F7
:1000E0006309000863090008630900086309000840
:1000F0006309000863090008630900086309000830
:10010000630900086309000863090008630900081F
:10011000630900086309000863090008630900080F
:1001200063090008630900086309000863090008FF
:1001300000F002F800F03AF80AA090E8000C8244BF
:100140008344AAF10107DA4501D100F02FF8AFF29C
:10015000090EBAE80F0013F0010F18BFFB1A43F0A5
:1001600001031847180B0300380B0300103A24BF93
:1001700078C878C1FAD8520724BF30C830C144BF0C
:1001800004680C607047000000230024002500264E
:10019000103A28BF78C1FBD8520728BF30C148BFEA
:1001A0000B6070471FB51FBD10B510BD02F078FA87
:1001B0001146FFF7F7FF00F009F802F096FA03B4D2
:1001C000FFF7F2FF03BC00F01FFB00000EB500F0CC
:1001D000A1FA00F013FB01F063FB86E101F014FAD1
:1001E000C24801F024FB01F017FB022000F0F1FAF5
:1001F00001F00AFA01F037FB01F00EFB022000F0DB
:10020000E8FAFF2000234FF404724FF45C71009071
:10021000B74801F0D5FBB64801F00FFC01F078FAC1
:10022000FF2001F0C5FC0120034600220A210090B6
:10023000052001F0F2FC0120022300221921009088
:10024000052001F0EAFC0120032300222821009070
:10025000052001F0E2FC0120042300223721009058
:10026000052001F0DAFC0120002100913C23462208
:10027000CDE901100A21142001F021FD0120002107
:1002800000913C231422CDE901100A21462001F0FF
:1002900016FD01200022CDE900203723AA220F21DC
:1002A0000290104601F00BFD01200022CDE9002054
:1002B0002323BE2219460290962001F000FD012062
:1002C000002100913C234622CDE901100A2114208F
:1002D00001F073FD01200022CDE900203C238222A1
:1002E0000A210290552001F068FD012000210B46F3
:1002F0006422CDE90010C821962001F0B7FD01204D
:10030000009000236422C8210190FA2001F0AEFD84
:10031000774801F054F901F07FFA022000F059FA11
:1003200001F0F6F9FF2001F043FC0020FF21714BA2
:1003300071A2CDE90010014601F018FF0020FF2155
:10034000714B6DA2CDE900100A2101F00FFF0020D2
:10035000FF216E4B68A2CDE90010192101F006FFC4
:100360000020FF216A4B64A2CDE900102D2101F08D
:10037000FDFE0020FF21674B5FA2CDE90010462162
:1003800001F0F4FE0020FF215A4B5BA2CDE90010E2
:10039000C821B42001F0EAFE0020FF215A4B56A2EA
:1003A000CDE90010D221B42001F0E0FE0020FF21B1
:1003B000564B51A2CDE90010E121B42001F0D6FE48
:1003C0000020FF21524B4CA2CDE90010F521B420B2
:1003D00001F0CCFE0020FF214E4B47A2CDE90010DA
:1003E0004FF48771B42001F0C1FE414801F0E7F8F5
:1003F00001F012FA022000F0ECF901F089F9FF2077
:1004000001F0D6FB0020FF213A4B434ACDE9001012
:10041000014601F0F1FF0020FF213B4B3E4ACDE9B0
:1004200000100A2101F0E8FF0020FF21374B3A4A73
:10043000CDE90010192101F0DFFF0020FF21344B2E
:10044000354ACDE900102D2101F0D6FF0020FF2113
:10045000304B314ACDE90010462101F0CDFF00209C
:10046000FF21244B2C4ACDE90010C821DC2001F0EB
:10047000C3FF0020FF21244B274ACDE90010D221E1
:10048000DC2001F0B9FF0020FF21204B224ACDE9FA
:100490000010E121DC2001F0AFFF0020FF211C4B08
:1004A0001D4ACDE90010F521DC2001F0A5FF002058
:1004B000FF21184B184ACDE900104FF48771DC205A
:1004C00001F09AFF0A4801F07AF801F0A5F902203C
:1004D00000F07FF901F098F801F0C5F901F09CF9FE
:1004E000022000F076F900BFFEE777E6002700085B
:1004F0005C00002034000020476F6F642044697363
:10050000706C6179000000003C0000204400002075
:100510004C0000205400002015CD5B07704700BF41
:10052000FEE700BFFEE700BFFEE700BFFEE7704743
:1005300070477047704700000CB500200190009094
:100540006B48006840F480306949086000BF684823
:10055000006800F4003000900198401C0190009861
:1005600018B90198B0F5A06FF1D16148006810F496
:10057000003F02D00120009001E000200090009890
:10058000012842D15B48006840F0100059490860DA
:100590000846006820F0030008600846006840F044
:1005A0000200086052484068514948600846406867
:1005B00048600846406840F48060486008464068EB
:1005C00020F47C1048600846406840F4E810486019
:1005D0000846006840F08070086000BF444800682A
:1005E00010F0007FFAD04248406820F003004049F4
:1005F00048600846406840F00200486000BF3C4840
:10060000406800F00C000828F9D10CBD10B5FFF7C8
:1006100093FF10BD10B53648006840F00100344922
:100620000860084640683449084031494860084637
:100630000068324908402E4908600846006820F4E6
:10064000802008600846406820F4FE0048604FF4AF
:100650001F008860FFF7DAFF4FF00060284908604C
:1006600010BD10B5002100200022214B5B6803F073
:100670000C0121B1042906D0082928D107E0214B1B
:10068000214C236027E01F4B1F4C236023E0184BB5
:100690005B6803F47010164B5B6803F4803202232E
:1006A00003EB904022B9194B4343174C23600DE0F4
:1006B0000F4B5B6813F4003F04D0144B4343124CC0
:1006C000236003E00F4B43430F4C236003E00D4BCB
:1006D0000D4C236000BF00BF054B5B68C3F30313E1
:1006E0000B4CE15C084B1B68CB40074C236010BDF2
:1006F00000100240002002400000FFF8FFFFF6FE5D
:1007000008ED00E000127A000000002000093D0022
:100710000400002010B56FF0040000F085F93348A4
:1007200000683349B0FBF1F03249087008460078A0
:1007300000EB4001C1EBC0104FF6FF7101EAC000B1
:100740002D49088010BD01462A4A12784A434FF0CD
:10075000E0235A6100229A611A46126942F00102AE
:100760001A6100BF4FF0E022106910F0010F02D0B3
:1007700010F4803FF6D04FF0E022126922F001021F
:100780004FF0E0231A6100229A61704701461A4A2D
:1007900012884A434FF0E0235A6100229A611A46B8
:1007A000126942F001021A6100BF4FF0E0221069A5
:1007B00010F0010F02D010F4803FF6D04FF0E0228D
:1007C000126922F001024FF0E0231A6100229A61BF
:1007D000704730B50446002505E04FF47A70FFF706
:1007E000D5FF681C85B2A542F7DB30BD00000020B4
:1007F00000127A00140000201600002010B54FF4FB
:10080000A06000F0C1F810BD014600BF704700BFF6
:10081000494A128812F0400FFAD0C2B2464B1B1D53
:100820001A80704710B586B00446012144F20500D5
:1008300000F02EFC4FF40070ADF8140003208DF88A
:10084000160018208DF8170005A93C4800F06AF939
:100850004FF48060ADF8140004208DF8170005A94E
:10086000364800F05FF925208DF8000003208DF850
:1008700001008DF8020001208DF80300684600F0A9
:1008800088F801940020ADF80800ADF80A00ADF832
:100890000C00ADF810000C20ADF80E0001A92648A0
:1008A00000F0A1FC012240F22551234800F033FD65
:1008B0000121214800F023FD06B010BD10B540F223
:1008C00025511D4800F00CFE10B31B4800F088FDB8
:1008D000C4B21B48008810F4004F2BD11848008880
:1008E00010F4804F0CD00A2C03D00020144908804B
:1008F00020E01348008840F400401149088019E0C6
:100900000D2C06D10E48008840F480400C49088028
:1009100010E00B480088C0F30D000A490C54084849
:100920000088401C0649088008460088C72801DD69
:100930000020088010BD0000003801400008014080
:10094000180000203CE30020094880470948004780
:10095000FEE7FEE7FEE7FEE7FEE7FEE7FEE7FEE76F
:10096000FEE7FEE704480549054A064B70470000CC
:10097000150600083101000880E4002080EA00200C
:1009800080E6002080E6002031490143314A1160B1
:10099000704770B5002100230F22C4780CB32D4C92
:1009A000246804F4E064C4F5E064210AC1F104039E
:1009B000CA40447804FA03F18478144021430901C1
:1009C000254C0678A155047804F01F050124AC409D
:1009D00005786D114FF0E02606EB8505C5F800415E
:1009E00009E0047804F01F050124AC401B4D067893
:1009F000761145F8264070BD194A0A400243154B4E
:100A00001B1F1A60704739B1124A121D1268024347
:100A1000104B1B1D1A6006E00E4A121D126882431D
:100A20000C4B1B1D1A607047042808D14FF0E021C1
:100A3000096941F004014FF0E022116107E04FF035
:100A4000E021096921F004014FF0E02211617047B3
:100A50000000FA050CED00E000E400E080E100E0B9
:100A600080FFFF1F10B50446CA48844208D1012107
:100A7000042000F027FB0021042000F023FB46E0C7
:100A8000C548844208D10121082000F01BFB002149
:100A9000082000F017FB3AE0C048844208D1012149
:100AA000102000F00FFB0021102000F00BFB2EE0C7
:100AB000BB48844208D10121202000F003FB002123
:100AC000202000F0FFFA22E0B648844208D101213C
:100AD000402000F0F7FA0021402000F0F3FA16E081
:100AE000B148844208D10121802000F0EBFA0021B6
:100AF000802000F0E7FA0AE0AC48844207D10121E7
:100B0000801500F0DFFA0021A01500F0DBFA10BD1F
:100B100010B50121084600F0D5FA0021012000F0AF
:100B2000D1FA10BD2DE9F041024600250026002033
:100B300000230024002791F803C00CF00F0591F862
:100B400003C01CF0100F03D091F802C04CEA050559
:100B500091F800C0BCF1000F31D0146800202BE0E8
:100B60004FF0010C0CFA00F3B1F800C00CEA0306D8
:100B70009E4220D183004FF00F0C0CFA03F7BC43C8
:100B800005FA03FC4CEA040491F803C0BCF1280FF9
:100B900006D14FF0010C0CFA00FCC2F814C00AE0B8
:100BA00091F803C0BCF1480F05D14FF0010C0CFACD
:100BB00000FCC2F810C0401C0828D1D31460B1F862
:100BC00000C0BCF1FF0F34DD546800202EE000F1BE
:100BD000080C4FF0010808FA0CF3B1F800C00CEA59
:100BE00003069E4221D183004FF00F0C0CFA03F74D
:100BF000BC4305FA03FC4CEA040491F803C0BCF1C1
:100C0000280F05D100F1080C08FA0CF8C2F814807E
:100C100091F803C0BCF1480F07D100F1080C4FF068
:100C2000010808FA0CF8C2F81080401C0828CED33E
:100C30005460BDE8F0814FF6FF71018002218170A0
:100C40000421C17070470246002093680B4201D016
:100C5000012000E0002070470146886880B270479C
:100C600002460020D3680B4201D0012000E00020A2
:100C700070470146C86880B27047016170474161A2
:100C800070470AB1016100E041617047C16070477F
:100C90004FF480320A438261816182618269826994
:100CA000704702460020424B18684FF68073184088
:100CB00040EA021008433E4B186070473D49C86146
:100CC0007047F0B50A46002300240021002500F0FB
:100CD0000046B6F1004F02D1354EF16901E0344EC5
:100CE0007168C0F3034583B200F44016B6F5401FA7
:100CF00008D121F070612E4E766826F070662C4F78
:100D00007E6012E000F48016B6F5801F06D103263F
:100D100006FA05F4A14341F0706106E0460D360184
:100D200003FA06F6B14341F0706122B1460D360177
:100D300003FA06F6314300F00046B6F1004F02D147
:100D40001B4EF16101E01A4E7160F0BD30B500221A
:100D50008B071C0F0F2303FA04F2154B08338C107A
:100D600053F824309343124C08348D1044F8253046
:100D700023468C1053F824308C07240F00FA04F417
:100D800023430B4C08348D1044F8253030BD0A49FC
:100D90000860704700080140000C0140001001404D
:100DA0000014014000180140001C014000200140D7
:100DB0000000014000002042DC002042DD480068C5
:100DC00040F00100DB49086008464068DA49084005
:100DD000D849486008460068D8490840D5490860A5
:100DE0000846006820F4802008600846406820F427
:100DF000FE0048604FF41F0088607047CD490968C5
:100E000021F48031CB4A11601146096821F4802118
:100E10001160B0F5803F03D0B0F5802F0ED106E011
:100E2000C449096841F48031C24A116007E0C149F0
:100E3000096841F4A021BF4A116000E000BF00BF73
:100E4000704710B501460022002300204A11012AF4
:100E500002D1B84C236806E0022A02D1B54C236ABD
:100E600001E0B44C636A01F01F02012494401C426B
:100E700001D0012000E0002010BD38B50020009016
:100E80000024002500BF3120FFF7DBFF0546009856
:100E9000401C00900098B0F5A06F01D0002DF2D05A
:100EA0003120FFF7CEFF08B1012400E000242046E6
:100EB00038BD014600209F4A106820F0F80040EA43
:100EC000C100106070479E490860704702460020CC
:100ED000984B586820F47C1042EA01031843954B64
:100EE0005860704796490866704701460020914A4D
:100EF000506820F003000843506070478D484068F8
:100F000000F00C007047014600208A4A506820F02B
:100F1000F00008435060704701460020854A506841
:100F200020F4E06008435060704701460020814A89
:100F3000506820F4605040EAC1005060704729B109
:100F40007C4A527A02437B4B5A7204E0794A527AC5
:100F50008243784B5A7270477A490860704701465D
:100F60000020744A506820F44040084350607047A5
:100F70000021754A11706F4A82F82010012802D0B2
:100F8000042808D103E001216F4A117004E0052113
:100F90006D4A117000E000BF00BF70476B490860E8
:100FA00070476449096A0143624A116270476749A0
:100FB00044390860704730B5002100220024002326
:100FC0005C4D6D6805F00C0121B1042905D008299C
:100FD00023D105E05E4D056022E05D4D05601FE018
:100FE000544D6D6805F47012524D6D6805F48034EF
:100FF000022505EB92421CB9564D554305600BE0A6
:101000004C4D6D6815F4003F03D0524D55430560BB
:1010100002E04F4D5543056002E04D4D056000BFB5
:1010200000BF444D6D6805F0F00109094A4D6B5C45
:101030000568DD4045603F4D6D6805F4E061090AD3
:10104000454D6B5C4568DD4085603A4D6D6805F443
:101050006051C90A404D6B5C4568DD40C560354D47
:101060006D6805F44041890B3C4D6B5CC568B5FB70
:10107000F3F5056130BD29B12E4A526902432D4B6B
:101080005A6104E02B4A526982432A4B5A617047E5
:1010900029B1284A92690243264B9A6104E0254A05
:1010A00092698243234B9A61704729B1214AD269E0
:1010B0000243204BDA6104E01E4AD26982431D4B91
:1010C000DA61704729B11B4AD2680243194BDA60D2
:1010D00004E0184AD2688243164BDA60704729B19F
:1010E000144A12690243134B1A6104E0114A12694F
:1010F0008243104B1A6170471449403908607047A9
:101100000F49C86470470B49C87170470948406A65
:1011100040F0807007494862704701460020054A48
:1011200092680A4201D0012000E000207047014986
:1011300088727047001002400000FFF8FFFFF6FEC3
:1011400000004242D8004242201002408004424245
:1011500000127A0000093D0020000020300000202D
:1011600010B50446FB48844209D101218803FFF7EA
:10117000A9FF00214FF48040FFF7A4FF32E0F648BA
:10118000844209D101214804FFF7A9FF00214FF44F
:101190000030FFF7A4FF25E0F048844209D1012187
:1011A0008804FFF79CFF00214FF48020FFF797FF92
:1011B00018E0EB48844209D10121C804FFF78FFFF2
:1011C00000214FF40020FFF78AFF0BE0E54884423E
:1011D00008D101210805FFF782FF00214FF480109C
:1011E000FFF77DFF10BD2DE9F04786B005460E469E
:1011F0000024A24600BFA1460027B08900B100BF6D
:101200002F462C8A4CF6FF700440F08804432C8251
:10121000AC894EF6F3100440B088318908437189D7
:1012200008430443AC81AC8A4FF6FF400440B089C8
:101230000443AC8201A8FFF7BEFEC648874202D134
:10124000DDF810A001E0DDF80CA0A88910F4004F33
:1012500008D00AEBCA0000EB0A1031684900B0FB65
:10126000F1F807E00AEBCA0000EB0A1031688900C8
:10127000B0FBF1F86420B8FBF0F004012009642110
:1012800001FB1089A88910F4004F08D0322000EB30
:10129000C900B0FBF1F000F00700044308E0322081
:1012A00000EB09106421B0FBF1F000F00F000443E3
:1012B0002C8106B0BDE8F0874FF416510160002183
:1012C0008180C18001810C21418100218181704791
:1012D00010B502460020108A4FF2FF0318400B8819
:1012E0004C8823438C882343CC88234318431082A3
:1012F00010BD0021018041808180C180704721B1F3
:10130000828942F40052828104E082894DF6FF73A3
:101310001A4082817047F0B503460024002600255C
:101320000020A1F510676A3F00D100BF1846C1F345
:10133000421401F01F06012707FA06F5012C01D11E
:101340000C3004E0022C01D1103000E014301AB14E
:1013500007682F43076002E00768AF430760F0BDEE
:101360001AB1838A0B43838202E0838A8B43838290
:101370007047028A4FF6F0731A400282028A0A43CB
:101380000282704782894FF2FF731A4082818289FC
:101390000A438281704721B1828942F00202828130
:1013A00004E082894FF6FD731A4082817047028AF9
:1013B0004FF6DF731A400282028A0A4302827047A4
:1013C00021B1028A42F48042028204E0028A4BF692
:1013D000FF731A4002827047C1F30802828070478F
:1013E00001468888C0F308007047818941F00101F7
:1013F00081817047028BD2B20283028B42EA0122C2
:1014000002837047028B02F47F420283028B0A43FD
:101410000283704721B1828A42F02002828204E076
:10142000828A4FF6DF731A408282704721B1828A26
:1014300042F01002828204E0828A4FF6EF731A4073
:101440008282704721B1828A42F00802828204E0DF
:10145000828A4FF6F7731A408282704721B18289DF
:1014600042F40042828103E08289C2F30E0282814B
:10147000704721B1828A42F40062828204E0828A4B
:101480004FF2FF731A4082827047828A4FF6FB73D5
:101490001A408282828A0A438282704721B1828AFC
:1014A00042F00202828204E0828A4FF6FD731A4003
:1014B0008282704702460020B1F5007F00D100BF54
:1014C00013880B4201D0012000E00020704701F496
:1014D0000072B2F5007F00D100BFCA43028070479E
:1014E00070B502460024002300250020A1F51066F7
:1014F0006A3E00D100BFC1F3421501F01F0301266F
:1015000006FA03F3012D02D19689334006E0022D3D
:1015100002D1168A334001E0968A33400C1201262C
:1015200006FA04F41688344013B10CB1012000E02F
:10153000002070BD10B500220023A1F510646A3CA4
:1015400000D100BF0A1201249440A3B2DC430480FE
:1015500010BD000000380140004400400048004039
:10156000004C00400050004006E042F6E06100BF41
:101570000A00A1F10101FBD10200A0F10100F4D1A8
:10158000704710B54FF48041C448FFF778FB0A203C
:10159000FFF7EAFF4FF48041C048FFF76EFB0A20D7
:1015A000FFF7E2FF10BD10B506E04FF40051BB4855
:1015B000FFF749FB00B900E0F7E700BF10BD2DE9D8
:1015C000F04106466E274FF40478242000F0C9F954
:1015D00000250AE0002405E005FB0741705C00F0EF
:1015E000D5F9641CBC42F7D36D1C4545F2D32220CB
:1015F00000F0B7F9C72000F0C9F9202000F0B1F9D8
:10160000FFF7D1FFBDE8F08110B5FFF7BAFF122058
:1016100000F0A7F9FFF7C7FF462000F0A2F9F72076
:1016200000F0B4F9FFF7BFFF472000F09AF9F72068
:1016300000F0ACF9FFF7B7FF0C2000F092F9AE20F4
:1016400000F0A4F9C72000F0A1F9C32000F09EF932
:10165000C02000F09BF9402000F098F9012000F034
:1016600080F90F2000F092F9022000F08FF900209D
:1016700000F08CF9112000F074F9012000F086F9D7
:10168000442000F06EF9002000F080F9002000F006
:101690007DF96F2000F07AF9032000F077F94520FA
:1016A00000F05FF90F2000F071F9022000F06EF9F0
:1016B000002000F06BF9002000F068F93C2000F0F9
:1016C00050F9012000F062F9182000F04AF980205A
:1016D00000F05CF9222000F044F9B12000F056F946
:1016E000202000F03EF9FFF75EFF4E2000F039F9B0
:1016F000002000F04BF9002000F048F94F2000F0E6
:1017000030F90F2000F042F9022000F03FF910BD3F
:1017100010B5FFF736FF122000F023F9FFF743FF63
:10172000462000F01EF9F72000F030F9FFF73BFFEC
:10173000472000F016F9F72000F028F9FFF733FFF3
:101740000C2000F00EF9AE2000F020F9C72000F0C8
:101750001DF9C32000F01AF9C02000F017F940204D
:1017600000F014F9012000F0FCF8A72000F00EF9B9
:10177000022000F00BF9012000F008F9112000F020
:10178000F0F8012000F002F9442000F0EAF800200F
:1017900000F0FCF8002000F0F9F86F2000F0F6F8F7
:1017A000032000F0F3F8452000F0DBF8A72000F05C
:1017B000EDF8022000F0EAF8002000F0E7F8002041
:1017C00000F0E4F83C2000F0CCF8012000F0DEF856
:1017D000182000F0C6F8802000F0D8F8222000F091
:1017E000C0F8B12000F0D2F8202000F0BAF8FFF7DE
:1017F000DAFE4E2000F0B5F8002000F0C7F8002017
:1018000000F0C4F84F2000F0ACF8A72000F0BEF8BC
:10181000022000F0BBF810BD10B5102000F0A1F8B8
:10182000012000F0B3F86420FFF79EFE10BD70B5F4
:101830000446242000F095F8002504E0207800F00C
:10184000A5F8641C6D1C4EF2E0208542F6D32220E0
:1018500000F087F8C72000F099F8202000F081F808
:10186000FFF7A1FE70BD10B5242000F07AF8002427
:1018700003E0FF2000F08AF8641C4EF2E02084426E
:10188000F7D3222000F06DF8C72000F07FF8202069
:1018900000F067F8FFF787FE10BD00000018014058
:1018A00008B501216020FFF7F3FB4FF4E060ADF8CD
:1018B000000010208DF8030002208DF80200694618
:1018C0003D48FFF72FF94FF44040ADF800001020DD
:1018D0008DF8030002208DF8020069463748FFF7B3
:1018E00021F94FF40050ADF8000048208DF80300B6
:1018F00002208DF8020069463048FFF713F94FF4D3
:101900008050ADF8000010208DF8030002208DF803
:10191000020069462948FFF705F908BD70B504467D
:1019200000251BE04FF400712348FFF7A8F914F0DD
:10193000800F05D04FF480611F48FFF79EF904E047
:101940004FF480611C48FFF79AF96006040E4FF4CB
:1019500000711948FFF791F9681CC5B2082DE1DB49
:1019600070BD10B504464FF480711348FFF787F936
:101970004FF400411148FFF782F92046FFF7CEFFF0
:101980004FF480710C48FFF778F910BD10B504468C
:101990004FF480710848FFF772F94FF4004107488F
:1019A000FFF76BF92046FFF7B9FF4FF4807102484B
:1019B000FFF763F910BD000000140140001801405A
:1019C0002DE9F0410646069F0020F94C2060204694
:1019D00006600181428187810C464FEAE17C01EB80
:1019E0005C7C4FEAEC0CB1EBCC0C07D10D464FEA16
:1019F000E57C05EB5C7C4FEAEC0C08E008464FEA1E
:101A0000E17C01EB5C7C4FEAEC0C0CF1010CDFF8A3
:101A1000A083A8F812C040468282C38100204446B9
:101A200020820BB1B42B03D1E1488180C28002E057
:101A3000DF488280C180BDE8F081DD4908607047E1
:101A400030B15A2804D0B42802D0B0F5877F01D134
:101A5000D749C881704728B1012803D0022801D096
:101A6000032801D1D249088270472DE9F04103468D
:101A70000C461746CE4EB6889E4203DBCC4EF68807
:101A8000A64201DABDE8F081C94EF6893EB15A2E70
:101A900008D0B42E0DD0B6F5877F1CD114E01846BF
:101AA000214619E0C24E3689361B761EB0B2194661
:101AB00012E0BF4E3689F61A761EB0B2BC4E768959
:101AC000361B761EB1B207E02046B94E7689F61A6B
:101AD000761EB1B200E0D5E700BFB54E368A36B10A
:101AE000012E05D0022E09D0032E18D10CE017E0EC
:101AF000AF4E3689361A761EB0B211E0AC4E7689FA
:101B0000761A761EB1B20BE0A94E3689361A761EC9
:101B1000B0B2A74E7689761A761EB1B200E0B1E770
:101B200000BFA34E3689864203DBA14E76898E42E2
:101B300000DAA7E706464FEAE07C00EB5C7C4FEA60
:101B4000EC0CDFF86C82B8F8128001FB08C2984EEA
:101B50003668B55CAFB906464FEAE07C00EB5C7CCA
:101B60004FEAEC0CA0EBCC084FF0800C4CFA08FCD0
:101B700025EA0C0CDFF83882D8F8008008F802C09B
:101B800014E006464FEAE07C00EB5C7C4FEAEC0C8C
:101B9000A0EBCC084FF0800C4CFA08FC4CEA050C8A
:101BA000DFF80C82D8F8008008F802C000BF69E7AF
:101BB00030B50246002110E0002008E07C4C648A29
:101BC00001FB04037A4D2D68EA54441CA0B2784C02
:101BD000648A8442F2DC4C1CA1B2754CA48A8C420B
:101BE000EADC30BD2DE9F04706460F46904699469F
:101BF000DDF820A03D460CE0344606E0524629467A
:101C00002046FFF732FF601C84B24445F6DB681CB7
:101C100085B24D45F0DBBDE8F0872DE9F04707467A
:101C2000884691461C46DDF820A061488088B8426D
:101C300003DB5F48C088404501DABDE8F087BAF1B0
:101C4000010F24D100251DE0002614E007EB05005C
:101C5000001B03D408EB0600001B00D50FE008EBC7
:101C60000602121B91B27A19121B90B24A46FFF774
:101C7000FCFE701C06B26000401EB042E6DC00BFF5
:101C8000681C05B26000401EA842DDDC15E000259E
:101C900011E000260BE008EB0602521E91B27A1901
:101CA000521E90B24A46FFF7E0FE701C06B2A642F2
:101CB000F1DB681C05B2A542EBDB00BFBDE72DE9F7
:101CC000F04F85B004460D4616461F4638488088BA
:101CD000A0420BDB3648C088A84207DB3448808826
:101CE000B04203DB3248C088B84202DA05B0BDE832
:101CF000F08FA046AA46301B01D4301B00E0A01B89
:101D00008346781B002801DC781B00E0E81B049068
:101D1000B44201DA012001E04FF0FF300390BD42F0
:101D200001DA012001E04FF0FF30029004980BEB44
:101D300000090020019000BF0198401CC0B2019032
:101D40000F98012811D10321019890FBF1F201FBBA
:101D5000120050B901200090FF2251464046109BCE
:101D6000FFF75BFF0020019007E001200090514643
:101D70004046109B0E9AFFF750FF4FEA4901049826
:101D8000814208DBB04500D114E0049881440398F7
:101D900040441FFA80F84FEA49005845CCDCBA4568
:101DA00000D107E0D944029850441FFA80FAC3E7F3
:101DB00004E4002000BF00BF98E72DE9FE4F8146F4
:101DC0000F4692469846DDE90DB50C9CFE4880888A
:101DD00048450BDBFC48C088B84207DBFA488088DE
:101DE000504503DBF848C088404501DABDE8FE8F66
:101DF000BBF1000F10D03E460BE0002033465246A8
:101E00003146CDE9010500944846FFF758FF701CA4
:101E100086B24645F1DB27E000203B465246394674
:101E2000CDE9010500944846FFF749FF00204346ED
:101E30004A463946CDE9010500944846FFF73FFF81
:101E400000203B4652464146CDE9010500945046EC
:101E5000FFF735FF002043464A464146CDE90105DC
:101E600000945046FFF72BFF00BFBFE72DE9F84F66
:101E700005460E4692469B46D3488088A84203DB1F
:101E8000D148C088B04201DCBDE8F88F00240FFAC9
:101E90008AF70320A0EB4A000FFA80F90A9801287C
:101EA00077D172E0A0465BE0012006EB080291B218
:101EB0002A19009090B201235A46FFF7AEFE012086
:101EC00006EB080291B22A1B009090B201235A46F9
:101ED000FFF7A3FE0120321991B2A5EB0802009092
:101EE00090B201235A46FFF798FE0120321B91B2AF
:101EF000A5EB0802009090B201235A46FFF78DFE31
:101F00000120A6EB080291B22A1B009090B2012397
:101F10005A46FFF782FE0120A6EB080291B22A1969
:101F2000009090B201235A46FFF777FE0120321B42
:101F300091B205EB0802009090B201235A46FFF7D8
:101F40006CFE0120321991B205EB0802009090B2AC
:101F500001235A46FFF761FE08F101000FFA80F8ED
:101F6000B845A1DDB9F1000F05DAA000801D484495
:101F70000FFA80F907E0E01B80000A3048440FFAAE
:101F800080F9781E07B2601C04B2BC428ADD66E0AC
:101F9000FFE762E00120F21991B22A19009090B295
:101FA0005A460B9BFFF739FE0120F21991B22A1B0A
:101FB000009090B25A460B9BFFF72FFE012032197A
:101FC00091B2EA1B009090B25A460B9BFFF725FE98
:101FD0000120321B91B2EA1B009090B25A460B9B33
:101FE000FFF71BFE0120F21B91B22A1B009090B25A
:101FF0005A460B9BFFF711FE0120F21B91B22A19E2
:10200000009090B25A460B9BFFF707FE0120321B4F
:1020100091B2EA19009090B25A460B9BFFF7FDFD72
:102020000120321991B2EA19009090B25A460B9BE6
:10203000FFF7F3FDB9F1000F05DAA000801D484459
:102040000FFA80F907E0E01B80000A3048440FFADD
:1020500080F9781E07B2601C04B2BC429ADD00BF52
:1020600012E72DE9F04F0746884692461D4656482E
:102070008088B84203DB5448C088404501DABDE897
:10208000F08FA988CA1701EB5272D2100846CB17FD
:1020900001EB5373DB10B1EBC30301D0012300E06C
:1020A00000231344AAF12002B5F806C002FB0CF28B
:1020B00003FB02FB286800EB0B09002651E000241B
:1020C00040E00998FF2814D1E11704EB5171C910C1
:1020D000A4EBC1028021114199F80020114225D0C2
:1020E00008EB060291B23A1990B20A9AFFF7BDFCCA
:1020F0001CE0E11704EB5171C910A4EBC10280216F
:10210000114199F80020114208D008EB060291B263
:102110003A1990B20A9AFFF7A8FC07E008EB06020A
:1021200091B23A1990B2099AFFF79FFCE11704EBBC
:102130005171C910A4EBC101072901D109F10109AD
:10214000601C84B2A888A042BBDCA888C11700EB41
:102150005171C910B0EBC10101D009F10109701C26
:1021600086B2E888B042AADC00BF88E72DE9FC4FC0
:1021700004460E4617461D46DDE90BABA046B146A8
:1021800011488088A04203DB0F48C088B04201DAC2
:10219000BDE8FC8F22E0A88840440B49898888422A
:1021A00004DDA046E88848441FFA80F9E8884844DE
:1021B0000549C988884201DDA046B146CDE900AB9A
:1021C0003A782B46494601E004E400204046FFF7F8
:1021D00048FF7F1CA88840441FFA80F83878002800
:1021E000D9D100BFD4E72DE9FF4F1D46DDF8089097
:1021F000DDF80080DDF804A0F7E099F800007F2802
:1022000075DC002769E053207843296811F8100035
:1022100099F8001088425FD153207843296801EB78
:10222000400000F1020B002652E0002442E00D982D
:10223000FF2815D1E11704EB5171C910A4EBC102BD
:10224000802111419BF80020114228D00AEB0602A0
:1022500091B208EB040290B20E9AFFF706FC1EE062
:10226000E11704EB5171C910A4EBC10280211141A7
:102270009BF80020114209D00AEB060291B208EB4C
:10228000040290B20E9AFFF7F0FB08E00AEB060298
:1022900091B208EB040290B20D9AFFF7E6FBE1174A
:1022A00004EB5171C910A4EBC101072901D10BF155
:1022B000010B641C2889A042B9DC2889C11700EBF6
:1022C0005171C910B0EBC10101D00BF1010B761CAB
:1022D0006889B042A9DC03E07F1CA888B84292DC80
:1022E00000BF09F10109E88880447EE0FFE700278C
:1022F00073E053207843296811F8100099F8001012
:10230000884269D153207843296801EB4000407826
:1023100099F8011088425FD153207843296801EB76
:10232000400000F1020B002652E0002442E00D982C
:10233000FF2815D1E11704EB5171C910A4EBC102BC
:10234000802111419BF80020114228D00AEB06029F
:1023500091B208EB040290B20E9AFFF786FB1EE0E2
:10236000E11704EB5171C910A4EBC10280211141A6
:102370009BF80020114209D00AEB060291B208EB4B
:10238000040290B20E9AFFF770FB08E00AEB060217
:1023900091B208EB040290B20D9AFFF766FBE117C9
:1023A00004EB5171C910A4EBC101072901D10BF154
:1023B000010B641C2889A042B9DC2889C11700EBF5
:1023C0005171C910B0EBC10101D00BF1010B761CAA
:1023D0006889B042A9DC03E07F1CA888B84288DC89
:1023E00000BF09F102092889804499F800000028FB
:1023F0007FF403AFBDE8FF8F2DE9F04FADF5037D0E
:1024000006460F4615469946DDF834B2DDF830A28F
:102410000024A0464FF4807143A800F016F94FF451
:10242000807103A800F011F943A8029082488088C7
:10243000B04203DB8048C088B84203DA0DF5037D63
:10244000BDE8F08F0CE00A2095FBF0F100FB115085
:10245000303003A90855601C04B20A2095FBF0F542
:10246000002DF0D10BE0601E03A9085C43A901F820
:10247000080008F101000FFA80F8601E04B2002C79
:10248000F1DC4B46CDE900AB39463046029AFFF706
:102490006DFE00BFD2E72DE9FF4F85B0054690469F
:1024A0009A46DDE9126765A207CA02AB07C3BAF80C
:1024B000044098F804000A2190FBF1F002A911F8F9
:1024C000009053464A46CDE9006728460699FFF733
:1024D000C8FD98F804000A2190FBF1F201FB1200FC
:1024E00002A911F80090291988B253464A46CDE94D
:1024F00000670699FFF7B5FDA146E11704EB91715E
:102500002A1902EBA101A34604EBDB7201EB620185
:1025100088B253463A22CDE900670699FFF7A1FD3C
:1025200098F805000A2190FBF1F002A911F800B01B
:1025300004EBD97105EB440202EB610188B253460A
:102540005A46CDE900670699FFF78BFD98F805001C
:102550000A2190FBF1F201FB120002A911F800B070
:1025600004EBD97104EB44022A4402EB610188B206
:1025700053465A46CDE900670699FFF772FD04EB12
:10258000D97105EB840202EB6101A346E21704EB6B
:102590009272A1EBA20188B253463A22CDE90067BC
:1025A0000699FFF75EFD98F806000A2190FBF1F00E
:1025B00002A911F8009004EB8401294488B2534623
:1025C0004A46CDE900670699FFF74BFD98F80600EB
:1025D0000A2190FBF1F201FB120002A911F8009010
:1025E00004EB440105EB410188B253464A46CDE96C
:1025F00000670699FFF735FD09B0BDE8F08F30B5EB
:1026000002460023002111E0002009E00A4C648A00
:1026100001FB0403D45C084D2D68EC54441CA0B2AB
:10262000054C648A8442F1DC4C1CA1B2024CA48AA1
:102630008C42E9DC30BD000004E40020303132334C
:10264000343536373839000070474FF0000200B596
:10265000134694469646203922BFA0E80C50A0E8C5
:102660000C50B1F12001BFF4F7AF090728BFA0E873
:102670000C5048BF0CC05DF804EB890028BF40F83F
:10268000042B08BF704748BF20F8022B11F0804F81
:1026900018BF00F8012B70477047704770477047AC
:1026A000754600F029F8AE4605006946534620F00D
:1026B0000700854618B020B5FEF754F9BDE8204064
:1026C0004FF000064FF000074FF000084FF0000BEE
:1026D00021F00701AC46ACE8C009ACE8C009ACE8A1
:1026E000C009ACE8C0098D4670470446AFF30080CE
:1026F0002046FDF764FD0000004870471CE4002000
:10270000FFFFFFFFFFFFFFFFFFFFFFFFFFFFFFFFD9
:10271000FFFFFFFFFFFFFFFFFFFFFFFFFFFFFFFFC9
:10272000FFFFFFFFFFFFFFFFFFFFFFFFFFFFFFFFB9
:10273000FFFFFFFFFFFFFFFFFFFFFFFFFFFFFFFFA9
:10274000FFFFFFFFFFFFFFFFFFFFFFFFFFFFFFFF99
:10275000FFFFFFFFFFFFFFFFFFFFFFFFFFFFFFFF89
:10276000FFFFFFFFFFFFFFFFFFFFFFFFFFFFB77F41
:10277000FBBBFBBB77B3BBFEFFFFFFFFFFFFFFFF12
:10278000FFFFFFFFFFFFFFFFFFFFFFFFFFFFFFFF59
:10279000FFFFFFFFFFFFFFFFFFFFFFFFFFFFFFFF49
:1027A000FFFFFFFFFFFFFFFFFFFFFFFFFFFFFFFF39
:1027B000FFFFFFFFFFFFFFFFFFFFFFFFFFFFFFFF29
:1027C000FFFFFFFFFFFFFFFFFFFFFFFFFFFFFFFF19
:1027D000FFFFFFFFFFFFFFFFFFFFFFFDFFFFFFFF0B
:1027E000FFFFFFFFFFFFFFFFFFFFFFFFFFFFFFFFF9
:1027F000FFFFFFFFFFFFFFFFFFFFFFFFFFFFFFFFE9
:10280000FFFFFFFFFFFFFFFFFFFFFFFFFFFFFFFFD8
:10281000FFFFFFFFFFFFFFFFFFFFFFFFFFFFFFFFC8
:10282000FFFFFFFFFFFFFFFFFFFFFFFFFFFFFFFFB8
:10283000FFFFFFFFFFFFFFFFFFFFFFFFFFFFFFFFA8
:10284000FFFFFFFFFFFFFFFFFFFFFFFBDFFFFFFFBC
:10285000FFFFFFFFBABEDFFDBDFFFFFFFFBFF74D6C
:10286000B7B6D57FFFFFFFFFFBDB7FD9DFFFFEDFC2
:10287000FFFF7FFFFFFFFF6DFFFFFBFFFFFFFFFF7E
:10288000FFFFFFFFFFFFFFFFFFFFFFFFFFFFFFFF58
:10289000FFFFFFFFFFFFFFFF5ADFFFFFD6F752AD3D
:1028A000DEFAAF552AA554AA9552AA554AA9552A27
:1028B000A554AA9552AA554FA95F3FFFFFFFFFFFFE
:1028C000FFFFFFF7FBD7FFFFFB7B6DFA6FFFFFFFFB
:1028D000FFFEDBBD9F7EFFFFFFFFFFFFFFFCFD9BB9
:1028E000FFFFFFFFFFFFFFFFFFFFFFFFFFFFFFFFF8
:1028F000FFFFFFFFFFFFFFFFFFFFFFFFFFFFFFFFE8
:10290000FFFFFFFFFFFFFFFFFFFCA8880001A900FA
:1029100000000000000000000000000000000000B7
:10292000000000000003A95F3FFFFFFFFFFFFFFF64
:10293000FFF7FBD7FFFFFB7B6DFA6FFFFFFFFFFE8B
:10294000DBBD9F7EFFFFFFFFFFFFFFFCFD9BFFFF47
:10295000FFFFFFFFFFFFFFFFFFFFFFFFFFFFFFFF87
:10296000FFFFFFFFFFFFFFFFFFFFFFFFFFFFFFFF77
:10297000FFFFFFFFFFFFFFFCA8880001A900000088
:102980000000000000000000000000000000000047
:1029900000000003FFFFFFFFFFFFEEFFFFEFFFFF61
:1029A0006EFEBB54BFFFFF6FFFFFFFFFFFFFFFEF98
:1029B000FBDFFFFFFFFFFFFFFFFFEFFFFFFFFFFF5B
:1029C000FFFFFFFFFFFFFFFFFFFFFFFFFFFFFFFF17
:1029D000FFFFFFFFFFFFFFFFFFFFFFFFFFFFFFFF07
:1029E000FFFFFFFDBA80000012A8000800000000F1
:1029F00000000000000000000000000000000000D7
:102A00000007D7FFFFFFFFFFFFFFFFFDB556DDDB30
:102A1000FFFFF6EAADFFFFFFFFFFFFFFFFFFFFF342
:102A2000B7FFFFFFFEFFFFFFFFFFFFFFFFFFFFFFFF
:102A3000FFFFFFFFFFFFFFFFFFFFFFFFFFFFFFFFA6
:102A4000FFFFFFFFFFFFFFFFFFFFFFFFFFFFFFFE97
:102A5000A6C2654B576AA0000000000000000000FD
:102A60000000000000000000000000000000000561
:102A700096FFFFFFFFFFFFFFFFFFFFFFFFFFFFFFCF
:102A8000FFFFFFFFFFFFFFFFFFFFFFFFFFFFFFFF56
:102A9000FFFFFFFFFFFFFFFFFFFFFFFFFFFFFFFF46
:102AA000FFFFFFFFFFFFFFFFFFFFFFFFFFFFFFFF36
:102AB000FFFFFFFFFFFFFFFFFFFFFFFFFFFFDADF6B
:102AC000DEA4286A000000000000000000000000F2
:102AD0000000000000000000000000000003B6B786
:102AE000FFFFFFFFFFFFFFFFFFFFFFFFFFFFFFFFF6
:102AF000FFFFFFFFFFFFDB7FFFFFFFFFFFFFFFFF8A
:102B0000B7FFFFFFFFFFFFFFFFFFFFFFFFFFFFFF1D
:102B1000FFFFFFFFFFFFFFFFFFFFFFFFFFFFFFFFC5
:102B2000FFFFFFFFFFFFFFFFFFFFFFFEB7FBFA8B7B
:102B300042802200000000000000000000000000B1
:102B4000000000000000000000000007A96BFFFF6C
:102B5000FFFFFFFFFFFFFFFFFFFFFFFFFFFFFFFB89
:102B6000DB7FFFFFFFFFFFFFFFFFFFFFFED9FFFF40
:102B7000FFFFFFFFFFFFFFFFFFFFFFFFFFFFFFFF65
:102B8000FFFFFFFFFFFFFFFFFFFFFFFFFFFFFFFF55
:102B9000FFFFFFFFFFFFFFFFFFFFFD2EA57B5400A0
:102BA0000000000000000000000000000000000025
:102BB00000000000000000000003D6DFDFFFFFFF81
:102BC000FFFFFFFFFFFFFFFFFFFFFFFFFFFFFFFF15
:102BD000FFFFFFFFFFFFFFFFFFFFFFFFFFFFFFFF05
:102BE000FFFFFFFFFFFFFFFFFFFFFFFFFFFFFFFFF5
:102BF000FFFFFFFFFFFFFFFFFFFFFFFFFFFFFFFFE5
:102C0000FFFFFFFFFFFFFFFFAAD55A830000000070
:102C10005400000000000000000000000000000060
:102C2000000000000000000596AAFF7FFFAFFFFF35
:102C3000FFFFFFFFFFFFFFFFFFFFFFFFFFFFFFFFA4
:102C4000FFFFFFFFFFFFFFFFFFFFFFFFFFFFFFFF94
:102C5000FFFFFFFFFFFFFFFFFFFFFFFFFFFFFFFF84
:102C6000FFFFFFFFFFFFFFFFFFFFFFFFFFFFFFFF74
:102C7000FFFFFFFFFFF1252AA02800002000000031
:102C80000000000000000000000000000000000044
:102C9000000000000003A9552BFFFFFFFFFFFFFF0F
:102CA000FFFFFFFFFFFFFFFFFFFFFFFFFFFFFFFF34
:102CB000FFFFFFFFFFFFFFFFFFFFFFFFFFFFFFFF24
:102CC000FFFFFFFFFFFFFFFFFFFFFFFFFFFFFFFF14
:102CD000FFFFFFFFFFFFFFFFFFFFFFFFFFFFFFFF04
:102CE000FFFFFFD75AD5000340954C0000000000BD
:102CF00000000000000000000000000000000000D4
:102D00000000000396ABFFFFFFFFFFFFFFFFFFFF89
:102D1000FFFFFFFFFFFFFFFFFFFFFFFFFFFFFFFFC3
:102D2000FFFFFFFFFFFFFFFFFFFFFFFFFFFFFFFFB3
:102D3000FFFFFFFFFFFFFFFFFFFFFFFFFFFFFFFFA3
:102D4000FFFFFFFFFFFFFFFFFFFFFFFFFFFFFFFF93
:102D5000FFF9452A98540000000000000000000020
:102D60000000000000000000000000000000000063
:102D70000007B6DFFFFFFFFFFFFFFFFFFFFFFFFFC3
:102D8000FFFFFFFFFFFFFFFFFFFFFFFFFFFFFFFF53
:102D9000FFFFFFFFFFFFFFFFFFFFFFFFFFFFFFFF43
:102DA000FFFFFFFFFFFFFFFFFFFFFFFFFFFFFFFF33
:102DB000FFFFFFFFFFFFFFFFFFFFFFFFFFFFFFFF23
:102DC000DD255BA000000000000000000000000006
:102DD00000000000000000000000000000000003F0
:102DE000B6DFFFFFFFFFFFFFFFFFFFFFFFFFFFFF5C
:102DF000FFFFFFFFFFFFFFFFFFFFFFFFFFFFFFFFE3
:102E0000FFFFFFFFFFFFFFFFFFFFFFFFFFFFFFFFD2
:102E1000FFFFFFFFFFFFFFFFFFFFFFFFFFFFFFFFC2
:102E2000FFFFFFFFFFFFFFFFFFFFFFFFFFFFDD25AE
:102E30005BA0000000000000000000000000000097
:102E40000000000000000000000000000003EFFF91
:102E5000FFFFFFFFFFFFFFFFFFFFFFFFFFFFFFFF82
:102E6000FFFFFFFFFFFFFFFFFFFFFFFFFFFFFFFF72
:102E7000FFFFFFFFFFFFFFFFFFFFFFFFFFFFFFFF62
:102E8000FFFFFFFFFFFFFFFFFFFFFFFFFFFFFFFF52
:102E9000FFFFFFFFFFFFFFFFFFFFFFFFF7FFFD004B
:102EA0000000000000000000000000000000000022
:102EB000000000000000000000000005895FFFFF27
:102EC000FFFFFFFFFFFFFFFFFFFFFFFFFFFFFFFF12
:102ED000FFFFFFFFFFFFFFFFFFFFFFFFFFFFFFFF02
:102EE000FFFFFFFFFFFFFFFFFFFFFFFFFFFFFFFFF2
:102EF000FFFFFFFFFFFFFFFFFFFFFFFFFFFFFFFFE2
:102F0000FFFFFFFFFFFFFFFFFFEEBD3400000000EB
:102F100000000000000000000000000000000000B1
:102F20000000000000000000000391B6D55FFFFF25
:102F3000FFFFFFFFFFFFFFFFFFFFFFFFFFFFFFFFA1
:102F4000FFFFFFFFFFFFFFFFFFFFFFFFFFFFFFFF91
:102F5000FFFFFFFFFFFFFFFFFFFFFFFFFFFFFFFF81
:102F6000FFFFFFFFFFFFFFFFFFFFFFFFFFFFFFFF71
:102F7000FFFFFFFFFFFFFFD6B6C00000000000000C
:102F80000000000000000000000000000000000041
:102F90000000000000000003C6AFFFFFFFFFFFFFBF
:102FA000FFFFFFFFFFFFFFFFFFFFFFFFFFFFFFFF31
:102FB000FFFFFFFFFFFFFFFFFFFFFFFFFFFFFFFF21
:102FC000FFFFFFFFFFFFFFFFFFFFFFFFFFFFFFFF11
:102FD000FFFFFFFFFFFFFFFFFFFFFFFFFFFFFFFF01
:102FE000FFFFFFFFFFB0490000005200000000009B
:102FF00000000000000000000000000000000000D1
:1030000000000000000396AAD55FFFFFFFFFFFFF4F
:10301000FFFFFFFFFFFFFFFFFFFFFFFFFFFFFFFFC0
:10302000FFFFFFFFFFFFFFFFFFFFFFFFFFFFFFFFB0
:10303000FFFFFFFFFFFFFFFFFFFFFFFFFFFFFFFFA0
:10304000FFFFFFFFFFFFFFFFFFFFFFFFFFFFFFFF90
:10305000FFFFFD56DA0000AB00000000000000009A
:103060000000000000000000000000000000000060
:1030700000000003A8A52FFFFFFFFFFFFFFFFFFFDA
:10308000FFFFFFFFFFFFFFFFFFFFFFFFFFFFFFFF50
:10309000FFFFFFFFFFFFFFFFFFFFFFFFFFFFFFFF40
:1030A000FFFFFFFFFFFFFFFFFFFFFFFFFFFFFFFF30
:1030B000FFFFFFFFFFFFFFFFFFFFFFFFFFFFFFFF20
:1030C000FFEF552AA50000000000000000000000EE
:1030D00000000000000000000000000000000000F0
:1030E0000003811FFFFFFFFFFFFFFFFFFFFFFFFF49
:1030F000FFFFFFFFFFFFFFFFFFFFFFFFFFFFFFFFE0
:10310000FFFFFFFFFFFFFFFFFFFFFFFFFFFFFFFFCF
:10311000FFFFFFFFFFFFFFFFFFFFFFFFFFFFFFFFBF
:10312000FFFFFFFFFFFFFFFFFFFFFFFFFFFFFDFEB2
:10313000D536800000000000000000000000000004
:10314000000000000000000000000000000000037C
:10315000802BFFFFFFFFFFFFFFFFFFFFFFFFFFFFD2
:10316000FFFFFFFFFFFFFFFFFFFFFFFFFFFFFFFF6F
:10317000FFFFFFFFFFFFFFFFFFFFFFFFFFFFFFFF5F
:10318000FFFFFFFFFFFFFFFFFFFFFFFFFFFFFFFF4F
:10319000FFFFFFFFFFFFFFFFFFFFFFFFFFB115284E
:1031A000000000000000000000000000000000001F
:1031B000000000000000000000000000000381018A
:1031C0003FFFFFFFFFFFFFFFFFFFFFFFFFFFFFFFCF
:1031D000FFFFFFFFFFFFFFFFFFFFFFFFFFFFFFFFFF
:1031E000FFFFFFFFFFFFFFFFFFFFFFFFFFFFFFFFEF
:1031F000FFFFFFFFFFFFFFFFFFFFFFFFFFFFFFFFDF
:10320000FFFFFFFFFFFFFFFFFFFFFF56F50000007E
:10321000200000000000000000000000000000008E
:10322000000000000000000000000003966B3FFF5C
:10323000FFFFFFFFFFFFFFFFFFFFFFFFFFFFFFFF9E
:10324000FFFFFFFFFFFFFFFFFFFFFFFFFFFFFFFF8E
:10325000FFFFFFFFFFFFFFFFFFFFFFFFFFFFFFFF7E
:10326000FFFFFFFFFFFFFFFFFFFFFFFFFFFFFFFF6E
:10327000FFFFFFFFFFFFFFFFFE91000000000002C5
:10328000AC00000000000000000000000000000092
:1032900000000000000000000003966B3FFFFFFFEE
:1032A000FFFFFFFFFFFFFFFFFFFFFFFFFFFFFFFF2E
:1032B000FFFFFFFFFFFFFFFFFFFFFFFFFFFFFFFF1E
:1032C000FFFFFFFFFFFFFFFFFFFFFFFFFFFFFFFF0E
:1032D000FFFFFFFFFFFFFFFFFFFFFFFFFFFFFFFFFE
:1032E000FFFFFFFFFFFFFE91000000000002AC00A7
:1032F00000000000000000000000000000000000CE
:103300000000000000000003A156ED7FFFFFFFFF5B
:10331000FFFFFFFFFFFFFFFFFFFFFFFFFFFFFFFFBD
:10332000FFFFFFFFFFFFFFFFFFFFFFFFFFFFFFFFAD
:10333000FFFFFFFFFFFFFFFFFFFFFFFFFFFFFFFF9D
:10334000FFFFFFFFFFFFFFFFFFFFFFFFFFFFFFFF8D
:10335000FFFFFFFFFFA60000005400000000000078
:10336000000000000000000000000000000000005D
:10337000000000000003895FFFFFFFFFFFFFFFFF6A
:10338000FFFFFFFFFFFFFFFFFFFFFFFFFFFFFFFF4D
:10339000FFFFFFFFFFFFFFFFFFFFFFFFFFFFFFFF3D
:1033A000FFFFFFFFFFFFFFFFFFFFFFFFFFFFFFFF2D
:1033B000FFFFFFFFFFFFFFFFFFFFFFFFFFFFFFFF1D
:1033C000FFFFFFF028D57BA80000000000000000F0
:1033D00000000000000000000000000000000000ED
:1033E00000000003904DFFFFFFFFFFFFFFFFFFFF07
:1033F000FFFFFFFFFFFFFFFFFFFFFFFFFFFFFFFFDD
:10340000FFFFB7FFFFFFFFFFFFFFFFFFFFFFFFFF14
:10341000FFFFFFFFFFFFFFFFFFFFFFFFFFFFFFFFBC
:10342000FFFFFFFFFFFFFFFFFFFFFFFFFFFFFFFFAC
:10343000FFDFD32A80000000000000000000000031
:10344000000000000000000000000000000000007C
:1034500000038113FFFFFFFFFFFFFFFFFFFFFFFFE1
:10346000FFFFFFFFFFFFFFFFFFFFFFFFFFFFFFFD6E
:10347000FFFFFFFFFFFFFFFFFFFFFFFFFFFFFFFF5C
:10348000FFFFFFFFFFFFFFFFFFFFFFFFFFFFFFFF4C
:10349000FFFFFFFFFFFFFFFFFFFFFFFFFFFFFFB08B
:1034A0000AC400000000000000000000000000004E
:1034B0000000000000000000000000000000000309
:1034C00090453FFFFFFFFFFFFFFFFFFFFFFFFFFFF5
:1034D000FFFFFFFFFFFFFFFFFFFFFFFFFFFFFFFFFC
:1034E000FFFFFFFFFFFFFFFFFFFFFFFFFFFFFFFFEC
:1034F000FFFFFFFFFFFFFFFFFFFFFFFFFFFFFFFFDC
:10350000FFFFFFFFFFFFFFFFFFFFFFFFFD2FF5287E
:103510001AAB4000000000000000000000000000A6
:103520000000000000000000000000000003800810
:10353000CAE7FFFFFFFFFFFFFFF9BFFFFFFFFFFF2E
:10354000FFFFFFFFFFFFFFFFFFFFFFFFFFFFFFFF8B
:10355000FFFFFFFFFFFFFFFFFFFFFFFFFFFFFFFF7B
:10356000FFFFFFFFFFFFFFFFFFFFFFFFFFFFFFFF6B
:10357000FFFFFFFFFFFFFFFFFFFFFFF8AAD00000E4
:10358000000000000000000000000000000000003B
:10359000000000000000000000000003D9553FFFBC
:1035A000FFFFFFFFFFFFFFFFFFFFFFFFFFFFFFFF2B
:1035B000FFFFFFFFFFFFFFFFFFEFFFFFFFFFFFFF2B
:1035C000FFFFFFFFFFFFFFFFFFFFFFFFFFFFFFFF0B
:1035D000FFFFFFFFFFFFFFFFFFFFFFFFFFFFFFFFFB
:1035E000FFFFFFFFFFFFFFFFFFD9150000000000F6
:1035F00000000000000000000000000000000000CB
:103600000000000000000000000596ABFFFFFFFF78
:10361000FFFFFFFFFFFFFFFFFFFFFFFFFFFFFFFFBA
:10362000FFFFFFFFFFFFFBDDDFFFFFFFFFFFFFFFF0
:10363000FFFFFFFFFFFFFFFFFFFFFFFFFFFFFFFF9A
:10364000FFFFFFFFFFFFFFFFFFFFFFFFFFFFFFFF8A
:10365000FFFFFFFFFFFFFFFEA000000000000000D3
:10366000000000000000000000000000000000005A
:103670000000000000000003A02AF5FFFFFFFFFF8D
:10368000FFFFFFFFFFFFFFFFFFFFFFFFFFFFFFFF4A
:10369000FFFFFFFA96BFFFFFFFFFFFFFFFFFFFFFE8
:1036A000FFFFFFFFFFFFFFFFFFFFFFFFFFFFFFFF2A
:1036B000FFFFFFFFFFFFFFFFFFFFFFFFFFFFFFFF1A
:1036C000FFFFFFFFFDA000D400000000000000008D
:1036D00000000000000000000000000000000000EA
:1036E00000000000000389552FBFFFFFFFFFFFFF11
:1036F000FFFFFFFFFFFFFFFFFFFFFFFFFFFFFFFFDA
:10370000FFFFFFFFDA5FFFFFFFFFFFFFFFFFFFFF8E
:10371000FFFFFFFFFFFFFFFFFFFFFFFFFFFFFFFFB9
:10372000FFFFFFFFFFFFFFFFFFFFFFFFFFFFFFFFA9
:10373000FFFF4A49400000000000000000000000B8
:103740000000000000000000000000000000000079
:103750000000000389552FBFFFFFFFFFFFFFFFFFA2
:10376000FFFFFFFFFFFFFFFFFFFFFFFFFFFFFFFF69
:10377000FFFFDA5FFFFFFFFFFFFFFFFFFFFFFFFF1E
:10378000FFFFFFFFFFFFFFFFFFFFFFFFFFFFFFFF49
:10379000FFFFFFFFFFFFFFFFFFFFFFFFFFFFFFFF39
:1037A0004A49400000000000000000000000000046
:1037B0000000000000000000000000000000000009
:1037C000000396AF35FFFFFFFFFFFFFFFFFFFFFF87
:1037D000FFFFFFFFFFFFFFFFFFFFFFFFFFF777FF89
:1037E000FFFFFFFFFFFFFFFFFFFFFFFFFFFFFFFFE9
:1037F000FFFFFFFFFFFFFFFFFFFFFFFFFFFFFFFFD9
:10380000FFFFFFFFFFFFFFFFFFFFFFFFFFFFC916E7
:1038100000080000000000000000000000000000A0
:103820000000000000000000000000000000000395
:10383000A17DEFFFFFFFFFFFFFFFFFFFFFFFFFFF88
:10384000FFFFFFFFFFFFFFFFFFFFFFFFFFFFFFFF88
:10385000FFFFFFFFFFFFFFFFFFFFFFFFFFFFFFFF78
:10386000FFFFFFFFFFFFFFFFFFFFFFFFFFFFFFFF68
:10387000FFFFFFFFFFFFFFFFFFFFFFFD480000000E
:103880000020000000000000000000000000000018
:10389000000000000000000000000000000386ABF4
:1038A0002BFFFFFFFFFFFFFFFFFFFFDFFFFFFFFF1C
:1038B000FFFFFFFFFFFFFFFFFFFFFFFFFFFFFAFF1D
:1038C000FFFFFFFFFFFFFFFFFFFFFFFFFFFFFFFF08
:1038D000FFFFFFFFFFFFFFFFFFFFFFFFFFFFFFFFF8
:1038E000FFFFFFFFFFFFFFFFFFFB4D200000000079
:1038F00000000000000000000000000000000000C8
:103900000000000000000000000000039002281BDF
:10391000FFFFFFFFFFFFFFE9A8FBFFFFFFFFFFFF28
:10392000FFFFFFFFFFFFFFFFFFDFB782B5B7FFFF1E
:10393000FFFFFFFFFFFFFFFFFFFFFFFFFFFFFFFF97
:10394000FFFFFFFFFFFFFFFFFFFFFFFFFFFFFFFF87
:10395000FFFFFFFFFFFFFFFFFFEF40000000000041
:103960000000000000000000000000000000000057
:103970000000000000000000000380D5DBE5FFFF31
:10398000FFFFFFFFBED96FEFFEFFFFFFFFFFFFFF4F
:10399000FFFFFFFFFFFFFFFFFE7FBB5FFFFFFFFF9C
:1039A000FFFFFFFFFFFFFFFFFFFFFFFFFFFFFFFF27
:1039B000FFFFFFFFFFFFFFFFFFFFFFFFFFFFFFFF17
:1039C000FFFFFFFFFFFFFFD000000000000000002E
:1039D00000000000000000000000000000000000E7
:1039E0000000000000000003975D3705BFFFFFFFE8
:1039F000FFFFFFFFFD3D5AACFFFFFFFFFFFFFFFF93
:103A0000FFFFFFFFFFFFFFF576FFFFFFFFFFFFFF59
:103A1000FFFFFFFFFFFFFFFFFFFFFFFFFFFFFFFFB6
:103A2000FFFFFFFFFFFFFFFFFFFFFFFFFFFFFFFFA6
:103A3000FFFFFFFFFF00000000000000000000008B
:103A40000000000000000000000000000000000076
:103A500000000000000380132AFFEFFFFFFFFFFFBD
:103A6000FFFF7FEFFBFFFFFFFFFFFFFFFFFFFFFFFA
:103A7000FFFFFBF3FFBFFFFFFFFFFFFFFFFFFFFFA6
:103A8000FFFFFFFFFFFFFFFFFFFFFFFFFFFFFFFF46
:103A9000FFFFFFFFFFFFFFFFFFFFFFFFFFFFFFFF36
:103AA000FFFFFEA00000000000000000000000007A
:103AB0000000000000000000000000000000000006
:103AC00000000003D16EFAA6BFFFFFFFFFFFFFFF5C
:103AD000FFFFFFFFFFFFFFFFFFFFFFFFFFFFFFFEF7
:103AE000952EBBF7FFFFFFFFFFFFFFFFFFFFFFFF6D
:103AF000FFFFFFFFFFFFFFFFFFFFFFFFFFFFFFFFD6
:103B0000FFFFFFFFFFFFFFFFFFFFFFFFFFFFFFFFC5
:103B1000F580000000000000000000000000000030
:103B20000000000000000000000000000000000095
:103B3000000586AADB67FFFFFFFFFFFFFFFFFFFF18
:103B4000FFFFFFFFFFFFFFFFFFFFFFFFFFDDF7FFAF
:103B5000FE7FFFFFFFFFFFFFFFFFFFFFFFFFFFFFF6
:103B6000FFFFFFFFFFFFFFFFFFFFFFFFFFFFFFFF65
:103B7000FFFFFFFFFFFFFFFFFFFFFFFFFFFFFC0057
:103B80000000000000000000000000000000000035
:103B90000000000000000000000000000000000322
:103BA000A9052EFFFFFFFFFFFFFFFDD9FFFFFFFF6E
:103BB000FFFFFFFFFFFFFFFFFFFFECFFED7FADDF2C
:103BC000FFFFFFFFFFFFFFFFFFFFFFFFFFFFFFFF05
:103BD000FFFFFFFFFFFFFFFFFFFFFFFFFFFFFFFFF5
:103BE000FFFFFFFFFFFFFFFFFFFFFFFFFD000000E4
:103BF00000000000000000000000000000000000C5
:103C00000000000000000000000000000003A90503
:103C10002EFFFFFFFFFFFFFFFDD9FFFFFFFFFFFFAD
:103C2000FFFFFFFFFFFFFFFFECFFED7FADDFFFFFBB
:103C3000FFFFFFFFFFFFFFFFFFFFFFFFFFFFFFFF94
:103C4000FFFFFFFFFFFFFFFFFFFFFFFFFFFFFFFF84
:103C5000FFFFFFFFFFFFFFFFFFFFFD000000000071
:103C60000000000000000000000000000000000054
:103C7000000000000000000000000003802AF7FFA1
:103C8000FFFFFFFFFFFFFFFFFFEEFFFFFFFFFFFF55
:103C9000FFFFFFFFFFFFFFFEFAAD5A75B6F9FFFF0A
:103CA000FFFFFFFFFFFFFFFFFFFFFFFFFFFFFFFF24
:103CB000FFFFFFFFFFFFFFFFFFFFFFFFFFFFFFFF14
:103CC000FFFFFFFFFFFFFFFFB0000000000000004C
:103CD00000000000000000000000000000000000E4
:103CE00000000000000000000003A8812FFFFFFF7C
:103CF000FFFFFFFFFEB9FAFB5FFFFFFFFFFFFFFFC4
:103D0000FFFFFFFFFFEB6AA2ADAECFFFF7FFFFFFA4
:103D1000FFFFFFFFFFFFFFFFFFFFFFFFFFFFFFFFB3
:103D2000FFFFFFFFFFFFFFFFFFFFFFFFFFFFFFFFA3
:103D3000FFFFFFFFFFFFF400000000000000000095
:103D40000000000000000000000000000000000073
:103D50000000000000000003802A12FFFFFFFFFFA9
:103D6000FFFFFFFF5FDFFFFFFFFFFFFFFFFFFFFF23
:103D7000FFE7BF7DFFFEAA55FFFF5FFFFFFFFFFFCD
:103D8000FFFFFFFFFFFFFFFFFFFFFFFFFFFFFFFF43
:103D9000FFFFFFFFFFFFFFFFFFFFFFFFFFFFFFFF33
:103DA000FFFFFFFEC8000000000000000000000050
:103DB0000000000000000000000000000000000003
:103DC0000000000000039080E505FFFFFFFFFFFFFC
:103DD000FFDFEAFFFFFFFFFFFFFFFFFFFFFFFFFE29
:103DE000F7FFFFDDAA5D4BF9EADFFFFFFFFFFFFFF3
:103DF000FFFFFFFFFFFFFFFFFFFFFFFFFFFFFFFFD3
:103E0000FFFFFFFFFFFFFFFFFFFFFFFFFFFFFFFFC2
:103E1000FFFFC400000000000000000000000000E0
:103E20000000000000000000000000000000000092
:103E300000000003860A093BFFFFFFFFFFFFFBB600
:103E4000AB2DBFFFFFFFFFFFFFFFFFFFFFA6DCF56E
:103E5000EBFED7FBBFDFFFFFFFFFFFFFFFFFFFFF13
:103E6000FFFFFFFFFFFFFFFFFFFFFFFFFFFFFFFF62
:103E7000FFFFFFFFFFFFFFFFFFFFFFFFFFFFFFFF52
:103E800048A955001A000280000000000000000050
:103E90000000000000000000000000000000000022
:103EA000000390A0D5677FFFFFFFFFFDB77FFADE1D
:103EB000FFFFFFFFFFFFFFFFFFFFFFFFFFFF9EADC5
:103EC0005A554AFFFFFFE5FCFFFFFFFFFFFFFFFF23
:103ED000FFFFFFFFFFFFFFFFFFFFFFFFFFFFFFFFF2
:103EE000FFFFFFFFFFFFFFFFFFFFFFFFFFFFFF5091
:103EF00000000000000000000000000000000000C2
:103F000000000000000000000000000000000003AE
:103F1000860A02DFFFFFFFFFFFFFFDA9B7D5A5FF60
:103F2000FFFFFFFFFFFFFFFFFFFFEFBA95B2B7FFF5
:103F3000FFFFFFD75F6FFFFFFFFFFFFFFFFFFFFFE9
:103F4000FFFFFFFFFFFFFFFFFFFFFFFFFFFFFFFF81
:103F5000FFFFFFFFFFFFFFFFFFFFFFFFFEC60000A9
:103F60000000000000000000000000000000000051
:103F7000000000000000000000000000000390208E
:103F8000D422DFBFFFFFFFD5CAFFAEF57FBFFFFF23
:103F9000FFFFFFFFFFFFFFE55B76EB5355AAB54937
:103FA0005F3FFFFFFFFFFFFFFFFFFFFFFFFFFFFF81
:103FB000FFFFFFFFFFFFFFFFFFFFFFFFFFFFFFFF11
:103FC000FFFFFFFFFFFFFFFFFFFFFB694000000057
:103FD00000000000000000000000000000000000E1
:103FE000000000000000000000000003808B01467C
:103FF0006CF6FFFFFFFF7FA8FBF6C4EFFFFFFFFF9C
:10400000FFFFFFFFFFFFFFED9AA24A2A4ABFEAEF38
:10401000FFFFFFFFFFFFFFFFFFFFFFFFFFFFFFFFB0
:10402000FFFFFFFFFFFFFFFFFFFFFFFFFFFFFFFFA0
:10403000FFFFFFFFFFFFFFFFF6D6001000000000AC
:104040000000000000000000000000000000000070
:1040500000000000000000000003A6201A599BDFAA
:10406000FFFFFFFFF5B7AEED5FBF7FFFFFFFFFFF75
:10407000FFFFFFFFFFFF7D4C92548AA95DDA7ADFD4
:10408000FFFFFFFFFFFFFFFFFFFFFFFFFFFFFFFF40
:10409000FFFFFFFFFFFFFFFFFFFFFFFFFFFFFFFF30
:1040A000FFFFFFFFFFFFFD00000000000000000019
:1040B0000000000000000000000000000000000000
:1040C0000000000000000003A6201A599BDFFFFF3C
:1040D000FFFFF5B7AEED5FBF7FFFFFFFFFFFFFFF05
:1040E000FFFFFFFF7D4C92548AA95DDA7ADFFFFF64
:1040F000FFFFFFFFFFFFFFFFFFFFFFFFFFFFFFFFD0
:10410000FFFFFFFFFFFFFFFFFFFFFFFFFFFFFFFFBF
:10411000FFFFFFFFFD0000000000000000000000A6
:10412000000000000000000000000000000000008F
:104130000000000000038085215EB4FFFFFFFFF652
:104140008B6975DBFFFFFFFFFFFFFFFFFFFFFFFF37
:10415000FB7FEAD1244AB556ABEDE777FFFFFFFFBF
:10416000FFFFFFFFFFFFFFFFFFFFFFFFFFFFFFFF5F
:10417000FFFFFFFFFFFFFFFFFFFFFFFFFFFFFFFF4F
:10418000FFFF7500000000000000000000000000BC
:10419000000000000000000000000000000000001F
:1041A0000000000396100AA16F7FFFFFFFFD3AAEEB
:1041B000AF35BFFFFFFFFFFFFFFFFFFFFFFFFFD296
:1041C0006A52AA554AA9773B7FFFFFFFFFFFFFFF17
:1041D000FFFFFFFFFFFFFFFFFFFFFFFFFFFFFFFFEF
:1041E000FFFFFFFFFFFFFFFFFFFFFFFFFFFFFFFFDF
:1041F000CD4000C8000000000000000000000000EA
:1042000000000000000000000000000000000000AE
:1042100000038045201AABFFFFFFFFBB7556A8D7F0
:104220007EFFFFFFFFFFFFFFFFFFFFFF54AFFFF326
:1042300055AAB5576AD7FFFFFFFFFFFFFFFFFFFF3C
:10424000FFFFFFFFFFFFFFFFFFFFFFFFFFFFFFFF7E
:10425000FFFFFFFFFFFFFFFFFFFFFFFFFFFFFAA9C9
:10426000000000000000000000000000000000004E
:10427000000000000000000000000000000000033B
:10428000A9100AA2DFFFFFFFFFFDCD6EB50ADBD745
:10429000FFFFFFFFFFFFFFFFFFDAEBAA96AD55AA76
:1042A0004ADED5FABBFFFFFFFFFFFFFFFFFFFFFF67
:1042B000FFFFFFFFFFFFFFFFFFFFFFFFFFFFFFFF0E
:1042C000FFFFFFFFFFFFFFFFFFFFFFFFF7500000B3
:1042D00000000000000000000000000000000000DE
:1042E0000000000000000000000000000003804209
:1042F000D0022CD7FFFFFFFFFEA92AD4BABB577FFD
:10430000FFFFFFFFFFFFFFFFAC5A948C4992B5A956
:104310007FD7E6FFFFFFFFFFFFFFFFFFFFFFFFFF6E
:10432000FFFFFFFFFFFFFFFFFFFFFFFFFFFFFFFF9D
:10433000FFFFFFFFFFFFFFFFFFFFB90000000000CE
:10434000000000000000000000000000000000006D
:10435000000000000000000000000003A91402A5F6
:10436000EB7FFFFFFFFFFDB7690925D7697FFFFFDF
:10437000FFFFFFF7FFFD74D56B52AA554AAFD53A40
:10438000BFF7FFFFFFFFFFFFFFFFFFFFFFFFFFFF85
:10439000FFFFFFFFFFFFFFFFFFFFFFFFFFFFFFFF2D
:1043A000FFFFFFFFFFFFFFFFF429400000000000B8
:1043B00000000000000000000000000000000000FD
:1043C000000000000000000000038020D4002BB596
:1043D0009FFFFFFE8BA952D24493576AFFFFFFFF56
:1043E000FFFFFFFBAB5795AD52254AE9BFDFFFBF8B
:1043F000DFFFFFFFFFFFFFFFFFFFFFFFFFFFFFFFED
:10440000FFFFFFFFFFFFFFFFFFFFFFFFFFFFFFFFBC
:10441000FFFFFFFFFFF680400000000000000000EB
:10442000000000000000000000000000000000008C
:104430000000000000000003968500A554DEFFFF89
:10444000FE55F928A4249954AA97FFFFFFFFFFFF08
:10445000FDBFD4957B6D5449355F6DF7FAF777FF53
:10446000FFFFEFBFFFFFFFFFFFFFFFFFFFFFFFFFAC
:10447000FFFFFFFFFFFFFFFFFFFFFFFFFFFFFFFF4C
:10448000FFFFFFFFFD000000000000000000000033
:10449000000000000000000000000000000000001C
:1044A0000000000000038010150054B7FFFFFFFE5E
:1044B000B2410AC9224B2BFFFFFFFFFFFFFEDB6566
:1044C00054FB9AACAA554AA9DB3EBF7BB597FDAB1E
:1044D000BFFFFFFFFFFFFFFFFFFFFFFFFFFFFFFF2C
:1044E000FFFFFFFFFFFFFFFFFFFFFFFFFFFFFFFFDC
:1044F000FFFFB4000000000000000000000000000A
:1045000000000000000000000000000000000000AB
:1045100000000003A9452025B4FBFFFFFFFF7496B0
:10452000511244936E957FFFFFFFD977F76553577C
:104530006AAD55AAB556AFD5E5FF7FFEAFFE6BFB62
:10454000FFFFFFFFFFFFFFFFFFFFFFFFFFFFFFFF7B
:10455000FFFFFFFFFFFFFFFFFFFFFFFFFFFFFFFE6C
:10456000300000000000000000000000000000001B
:10457000000000000000000000000000000000003B
:104580000003A9452025B4FBFFFFFFFF74965112DD
:1045900044936E957FFFFFFFD977F76553576AAD58
:1045A00055AAB556AFD5E5FF7FFEAFFE6BFBFFFF0B
:1045B000FFFFFFFFFFFFFFFFFFFFFFFFFFFFFFFF0B
:1045C000FFFFFFFFFFFFFFFFFFFFFFFFFFFE3000CA
:1045D00000000000000000000000000000000000DB
:1045E00000000000000000000000000000000003C8
:1045F000801005402B929FFFFDD905288A24992B16
:1046000054EFFFFFFFFFFFDED55A944A9A912A55D7
:104610004AA9553B5EBFFFFFFED5DD77FFFFFFFFD9
:10462000FFFFFFFFFFFFFFFFFFFFFFFFFFFFFFFF9A
:10463000FFFFFFFFFFFFFFFFFFFFFFFEC0000000C7
:10464000000000000000000000000000000000006A
:104650000000000000000000000000000003A9426C
:10466000D005546EEF6DDBB3484154C92554AB9768
:10467000FFFFFFFFFEF5D55AAB5295224A554AA9D6
:10468000552ADBFF5FFFFFFE7BBFFFFFFFFFFFFF42
:10469000FFFFFFFFFFFFFFFFFFFCFFFFFFFFFFFF2D
:1046A000FFFFFFFFFFFFFFFFFFF50000000000001E
:1046B00000000000000000000000000000000000FA
:1046C00000000000000000000000000380140558F6
:1046D0000355FBFF75FEB5B621125AA8AEFFFFFFCA
:1046E000FFFFDFAF2AA55495694D55AAB556AAD646
:1046F000FFF7F7FFFFDFDFFFFFFFFFFFFFFFFFFF1A
:10470000FFFFFFFFFFFFFFF77FFFFFFFFFFFFFFF41
:10471000FFFFFFFFFFFFFFDE890000000000000039
:104720000000000000000000000000000000000089
:1047300000000000000000000003A940D00154DF89
:104740009FFFFFAEBAA94A24824BB59DFFFFFFFF32
:10475000F6FDFB2554AA125092554491552AA56C9A
:10476000A97BEFFFFFFFFFFFFFFFFFFFFFFFFFFF43
:10477000FFFFFFFFFFFCFFFFFFFFFFFFFFFFFFFF4C
:10478000FFFFFFFFFFF540400000000000000000B9
:104790000000000000000000000000000000000019
:1047A00000000000000000038015055A0435FFFFDB
:1047B000FFFBF76954C9249B557FFFFFFFFFFFF7FD
:1047C0002DE55355648D24528956A9288494EF65AC
:1047D0005D6A554F6FFFFFFFFFFFFFFFFFFFFFFF0A
:1047E000FFFFFFCB3FFFFFFFFFFFFFFFFFFFFFFFCD
:1047F000FFFFFFF485000000000000000000000043
:1048000000000000000000000000000000000000A8
:10481000000000000003A9402800ABDFFFFFEFFE0F
:10482000BA4655125DB75DEFFFFFFFFF7FAFFB5A42
:10483000A4AA895255954AA94A255AA4AAFFA2AA10
:104840004ACAFFFFFFFFFFFFFFFFFFFFFFFFFFFF62
:10485000FFF875FFFFFFFFFFFFFFFFFFFFFFFFFFF9
:10486000FFFEC80000000000000000000000000083
:104870000000000000000000000000000000000038
:1048800000000003801502A508DDFD5DFBD5B4A87E
:104890008224A56CAD7FFFFFFFFFE9552ADD54920E
:1048A000124CA9AAB55692CA5AAB556AFFEA7FFFC5
:1048B000FFFFFFFFFFFFFFFFFFFFFFFFFFFFFFF710
:1048C0005FFFFFFFFFFFFFFFFFFFFFFFFFFFFFE9AE
:1048D00000000000000000000000000000000000D8
:1048E00000000000000000000000000000000000C8
:1048F00000039140280034A777EF562D490154C991
:104900004510AAFFFFFFFECD5F56D55AAB25749127
:104910004A554AA9552ADA54AA9BB2AA554AFFFF1A
:10492000FFFFFFFFFFFFFFFFFFFFFFFFFFE895FF18
:10493000FFFFFFFFFFFFFFFFFFFFFFFFFFF6450049
:104940000000000000000000000000000000000067
:104950000000000000000000000000000000000354
:10496000800AC2A540486B7F7C623256091224AB94
:104970002B97FFFFFFFFF9BBFAA554AA952295AA32
:10498000B556AAD55ACB528A5FEDAAB5DFFFFFFF15
:10499000FFFFFFFFFFFFFFFFFFFFFFFB6A97FFFF28
:1049A000FFFFFFFFFFFFFFFFFFFFFDD2B000000092
:1049B00000000000000000000000000000000000F7
:1049C0000000000000000000000000000003A6201E
:1049D00014000B53EFFFF7D544A152254554A51AF7
:1049E000FFFFFFFFFFFFDFFAAB556A4C522A4AA9CF
:1049F000552AA7500515ED57B6B539FFFFFFFFFF44
:104A0000FFFFFFFFFFFFFFFFFFF42AEFFFFFFFFFA6
:104A1000FFFFFFFFFFFFFFFFFFB60AA0000000003F
:104A20000000000000000000000000000000000086
:104A3000000000000000000000000003A620140099
:104A40000B53EFFFF7D544A152254554A51AFFFF9C
:104A5000FFFFFFFFDFFAAB556A4C522A4AA9552ADD
:104A6000A7500515ED57B6B539FFFFFFFFFFFFFF54
:104A7000FFFFFFFFFFFFFFF42AEFFFFFFFFFFFFF36
:104A8000FFFFFFFFFFFFFFB60AA0000000000000CD
:104A90000000000000000000000000000000000016
:104AA00000000000000000000003808AC0A5504DF7
:104AB0007F7FFDAA891624C89924496BFFFFFFFF59
:104AC000FEEAF6A754AA9292A452B556AAD6BAAB59
:104AD000FAEEB3AA554FFFFFFFFFFFFFFFFFFFFFF7
:104AE000FFFFFFFFFFFC4004FFFFFFFFFFFFFFFF93
:104AF000FFFFFFFFFFF54000000000000000000086
:104B000000000000000000000000000000000000A5
:104B100000000000000000039620150024D7F7DFF6
:104B2000FBDAB2A149152248AA6AAF7FFFFFAF5650
:104B3000D55B5495152D49954AA95515FFEF7795E5
:104B4000AD6A554AAFFFFFFFFFFFFFFFFFFFFFFF0B
:104B5000FFFFFFFB000053FFFFFFFFFFFFFFFFFF13
:104B6000FFFFFFD400000000000000000000000074
:104B70000000000000000000000000000000000035
:104B800000000000000380852025482C9FB0365B84
:104B90000C16922244AB5495ADDBF7F576EAEAA504
:104BA00054A86252AA24B556AD355DACAD6A529593
:104BB000AAB57FFFFFFFFFFFFFFFFFFFFFFFFFFF24
:104BC000FFF450012FFFFFFFFFFFFFFFFFFFFFFF7D
:104BD000FFEB4000000000000000000000000000AB
:104BE00000000000000000000000000000000000C5
:104BF000000000039610054010C5006FE442B2A803
:104C000024D49954A56AB2D67F4FDEBFDAA5544AA0
:104C100094A2925549264925592BAA64ACAA554B12
:104C2000AF7FFFFFFFFFFFFFFFFFFFFFFFFFFFFB68
:104C3000A000BFFFFFFFFFFFFFFFFFFFFFFFFFFA27
:104C40000000000000000000000000000000000064
:104C50000000000000000000000000000000000054
:104C60000003804110054308EFBEADBC4441490933
:104C700022934915DD6FFFFD56AAD5592491090CE1
:104C800024293556AA2A85546AE96D54554AFFD716
:104C90003FFFFFFFFFFFFFFFFFFFFFFFFFFCA00045
:104CA0005FFFFFFFFFFFFFFFFFFFFFFFFDA004808F
:104CB00000000000000000000000000000000000F4
:104CC00000000000000000000000000000000003E1
:104CD00080040120142B1153FFD2CA9692D245248E
:104CE0005B6573DFEB7BA954D29AAB2A925149A53D
:104CF0004AA952D55A4B556AAD55AAB5FFFFFFFFD9
:104D0000FFFFFFFFFFFFFFFFFFFFFFFFC80053FF95
:104D1000FFFFFFFFFFFFFFFFFFFFF66D300000000A
:104D20000000000000000000000000000000000083
:104D300000000000000000000000000000039000E0
:104D40002402A05577FFBA65312824049854957A37
:104D5000AD75B6CEB9551525535564A2924A4A96FB
:104D6000552A99535A9552AA554AA97FFFFFFFFF2A
:104D7000FFFFFFFFFFFFFFFFFFFFA0000DFFFFFF93
:104D8000FFFFFFFFFFFFFFFFFFBA800000000000F2
:104D90000000000000000000000000000000000013
:104DA00000000000000000000000000386490158D8
:104DB00084806ED2EFAD4A4149292294A5775EFFE7
:104DC000FFF5D1552AA4A422090C259489214A1162
:104DD000228422922255AAB55FDBFFFFFFFFFFFF6F
:104DE000FFFFFFFFFFFFFFFFE00081FFFFFFFFFF6F
:104DF000FFFFFFFFFFFFFFED44900A0240000000AD
:104E000000000000000000000000000000000000A2
:104E1000000000000000000000039000080210A63F
:104E20009AB35A55459612C25D245D9553ABAFBEF9
:104E3000BF54D5594B5492514A294A56952A452B6D
:104E400055154C92554AA9FFFFFFFFFFFFFFFFFFDB
:104E5000FFFFFFFFFFFFF80902FFFFFFFFFFFFFF5C
:104E6000FFFFFFFFFFFFFA008010000000000000BE
:104E70000000000000000000000000000000000032
:104E8000000000000000000386922358430916AE7C
:104E9000D5A03420A414A548D77FDEFE757BD6A903
:104EA0002AA294A50AA292554AA96AD49A54AB6A36
:104EB000AD55AAB55EFFFFFFFFFFFFFFFFFFFFFF3E
:104EC000FFFFFFFFE00600FFFFFFFFFFFFFFFFFF09
:104ED000FFFFFFF6B55600000000000000000000D4
:104EE00000000000000000000000000000000000C2
:104EF00000000000000386922358430916AED5A097
:104F00003420A414A548D77FDEFE757BD6A92AA23B
:104F100094A50AA292554AA96AD49A54AB6AAD558F
:104F2000AAB55EFFFFFFFFFFFFFFFFFFFFFFFFFFD1
:104F3000FFFFE00600FFFFFFFFFFFFFFFFFFFFFF98
:104F4000FFF6B55600000000000000000000000061
:104F50000000000000000000000000000000000051
:104F6000000000039024C80294526091201541492A
:104F70000929452B557573ADD6B556AAD2A5284833
:104F8000900C244A84A94AC924B4AA955255AAB5BA
:104F900059DFFFFFFFFFFFFFFFFFFFFFFFFFFFFFE7
:104FA000F86A817FFFFFFFFFFFFFFFFFFFFFFFFFAB
:104FB000F50021008000000000000000000000005B
:104FC00000000000000000000000000000000000E1
:104FD0000003800002242C84ED624A680A205202F9
:104FE00099508A6AAF7FBBCAA9551522A49505516D
:104FF0004992492654D55954AA9552D5AAB56FFF5E
:10500000FFFFFFFFFFFFFFFFFFFFFFFFFFFFF015A9
:1050100000BFFFFFFFFFFFFFFFFFFFFFFFF74AA8F3
:105020008000000000000000000000000000000000
:10503000000000000000000000000000000000036D
:10504000808910818351125D5992B1568AD422AB66
:105050003595B2D656B5569525444B226822AA54AA
:105060008A48A92AA553256AAD55AAB556FFFFFF60
:10507000FFFFFFFFFFFFFFFFFFFFFFFFF00FD05F0E
:10508000FFFFFFFFFFFFFFFFFFFFFFDC4800000007
:105090000000000000000000000000000000000010
:1050A0000000000000000000000000000003880075
:1050B00004242C4576A2A62A420850214403449594
:1050C0005355D2B556AAD49A9454854C15AAB2A970
:1050D0004ACA9A54488552AA554ABFFFFFFFFFFFAC
:1050E000FFFFFFFFFFFFFFFFFFFFE07FC25FFFFF4C
:1050F000FFFFFFFFFFFFFFFFFDF282400000000007
:10510000000000000000000000000000000000009F
:10511000000000000000000000000003800020806C
:105120008098096EAA54B45082CA99542D16ADAA1B
:105130007ECAA9552AA554A96892A1954556A914D5
:10514000A48895692D55AAB556AF2FFFFFFFFFFF25
:10515000FFF77F577DFFFFFFE09FFC0BFFFFFFFF87
:10516000FFFFFFFFFFFF6E543008800000000000CB
:10517000000000000000000000000000000000002F
:1051800000000000000000000003804902222B22E2
:10519000975D59910087141022AB556AD35A554B2D
:1051A00057A9115A504205204A224A4892D299548E
:1051B000AA96AD52554AA97AFEBFFFFFFFFFFFE84E
:1051C0008000022067FFE01FF307FFFFFFFFFFFFE4
:1051D000FFFFFFFFF5C0800000000000000000009E
:1051E00000000000000000000000000000000000BF
:1051F000000000000000000391000040C44D74D284
:10520000B66A3528A9254548A49552D5D54956B53D
:105210002A9AA4956852945484912A255AAB0890EE
:105220005CAA4AB559BFEDFD6FFFFFFFFFC000004C
:1052300000001BFFF01FFC01BFFFFFFFFFFEAFFFE1
:10524000FFFDB59A00000000000000000000000013
:10525000000000000000000000000000000000004E
:10526000000000000003800008041B9A6BB3EA5999
:105270007261520898932B755D7FBDF777AAD5258B
:105280006BA8828121894AA9552AA504556BADAA2C
:105290005AB5576D3FFFFFFFFFFFFFF00000000012
:1052A00003FFE06FFF01FFFFFFFFFFFFFFFFFFFFB7
:1052B000DFD4080000000000000000000000000033
:1052C00000000000000000000000000000000000DE
:1052D00000000003860000052022EDBEBDC20D9631
:1052E00004D125244A956F5BEFBDD6DEE95DAB5551
:1052F00014524A554AA9552AA480000422000245A6
:10530000595FFFFFFFFFFFFFFFE00000000007FF06
:10531000F00FFE81FFFFFFFFFFFFFFFFFFFFFBAB73
:10532000720000000000000000000000000000000B
:10533000000000000000000000000000000000006D
:105340000003800201404B55976DEA7EFAB1690A6D
:105350004054956D52F7FDCEBF7BFFFB6B556AAD98
:10536000B5AA8AA9552AA500000000000000000087
:105370000B65B4B6EEBEEBE8000000001FFFE01FB7
:10538000FF003FFFFFFFFF7FFFFFFFFFFFFAB400BB
:10539000000000000000000000000000000000000D
:1053A00000000000000000000000000000000003FA
:1053B000800201404B55976DEA7EFAB1690A40546C
:1053C000956D52F7FDCEBF7BFFFB6B556AADB5AA5D
:1053D0008AA9552AA50000000000000000000B6506
:1053E000B4B6EEBEEBE8000000001FFFE01FFF00B8
:1053F0003FFFFFFFFF7FFFFFFFFFFFFAB40000004A
:10540000000000000000000000000000000000009C
:105410000000000000000000000000000003800009
:10542000200494D56C937DF78AAE92D55A946A95F0
:105430005FADAD7AA9D6D55AD4AA94A20448B4A92E
:10544000552AA50000000000000000000000000038
:10545000000000000000000000400006D1000D4BDD
:10546000574DD6C01350010DA000000000000000F1
:10547000000000100000000000000000000000001C
:1054800000000000000000000000000388520A2114
:105490004895F5ADD5A872812408005092956D7796
:1054A000FBCBA96ADD5AAB52690CA9954956AAD51E
:1054B0005A0000000000000000000000030000A1EE
:1054C000220000000000000000000C0000000000AE
:1054D0000000000000000000000000000000AA948E
:1054E000AD4201020600000000008800000000003C
:1054F000000000000000000000038100008203B2F1
:105500008A32B7BFB556A8D2A54B551552BDAF7F4D
:105510007FDDD55AAB556AAD55AAB296AAEAA4006A
:10552000000002000575DEEEFFFFFFFFFFFFFFFC3E
:105530000000000005FC800FD0000000000000010A
:105540000000000000000000000000000901000051
:10555000000020000100000000000000000000002A
:105560000000000000000003800000006C06754E83
:10557000AB80420005040090956D5EDBFAB556AB3A
:105580002AA554926940AA4AB529552AA50005952D
:1055900051B5DAB5FFFFFFFFFFFFFFFFFFF000008F
:1055A00000001FFFF017FF800FFBFFEF35444001A5
:1055B000600000000000000000000000000000008B
:1055C0000010C80000000000000000000000000003
:1055D00000000000000380000000004888B1606AFD
:1055E0008556A810A52BAA8B52B7BFCED6AADAA291
:1055F000AB25822D15924256A52AA494AA955355FF
:10560000B7FFFFFFFFFFFFFFFFFFFFE80000000005
:1056100007FFE06FFF403FFFFFFFFFFFFFFFFFFFC0
:10562000F65832404000000000100000000000006A
:10563000000000000000000000000000000000006A
:10564000000000038000004094A277835FD04800F0
:1056500011250253509AD2ADAD7556ACD49AA448D8
:105660001540A22AB4A9292AA554AA9552D5AAB6AA
:10567000FFFFFB7F7FFFFFFFFFE00000000001FF57
:10568000F01FFF81FFFFFFFFFFFFFFFFFFFFFFFF97
:10569000F6D9152A42482900000000000000000049
:1056A00000000000000000000000000000000000FA
:1056B0000003800000000004845EC00D8251420897
:1056C000248B2595535677BEE9252AA44895680D65
:1056D000144AB2964A12A494A564AD25AAB557AE51
:1056E000DFFFFFFFFFFFFFC000000000017FE01FA2
:1056F000FE007FFFFFFFFFFFFFFFFFFFFFEB4DA659
:10570000A800989080000000000006000000000043
:105710000000000000000000000000000000000386
:1057200080000000000009004A503000142141545C
:105730004A9A52BDB4CBB76AD55AAB2A8550A990C4
:10574000052091249924A91552AA554AA975F7FF55
:10575000FFFFFFFFFFA00000000000FFE01FF003BD
:10576000FFFFFFFFFFFFFFFFFFFFFE76B008020015
:1057700000002004001000000008000000000000ED
:105780000000000000000000000000000003800096
:1057900000000000004C9202444640CA1A28959628
:1057A000D2ABABBAA9552AA14855688D0225484904
:1057B0002AD522A8AA6A4C55AAB556AADABFFFFF75
:1057C000FFFFFFC00000000002FFD07F6003FFFF6B
:1057D000FFFFFFFFFFFFFFFFFFD5B52080C00000E8
:1057E00002000000000000000000000000000000B7
:1057F0000000000000000000000000038000000026
:1058000000006201244801101200A144A972AD55A4
:10581000A5354965115A14A005505449329644CA19
:1058200045548A9492AA254AA95735FFF7FFFFFFEE
:10583000FFFFFFFEFFF7FFFFE076E00BFFFFFFFF3C
:10584000FFFFFFFFFFFFFFBAB48914112100000022
:105850000000004200000000000000000000000006
:1058600000000000000000000003800000000000B5
:105870006201244801101200A144A972AD55A5355A
:105880004965115A14A005505449329644CA4554EA
:105890008A9492AA254AA95735FFF7FFFFFFFFFF19
:1058A000FFFEFFF7FFFFE076E00BFFFFFFFFFFFFCC
:1058B000FFFFFFFFFFBAB4891411210000000000B0
:1058C0000042000000000000000000000000000096
:1058D0000000000000000003800000000000002C19
:1058E00000000800802902180616B2D58A49992CB2
:1058F0002A04A005680281924528A910992B5A957F
:10590000514A4AB2A975EB7ABFFFFFFFFFFFFFFFC5
:10591000FFFFFFFF800B801FFFFFFFFFFFFFFFFF69
:10592000FFFFFBD7355040C0000000000000000022
:105930004000000000000000000000000000000027
:10594000000000000001800000000000000155A9D7
:10595000412622002564A965AEAA55B77752C059E1
:1059600004A802AC2A24885155255A54248922546B
:1059700054B75EAED6DFF4DFFFFFFFFFFFFFFFFF90
:10598000FFFFE00F803FFFFFFFFFFFFFFFFFFFFF75
:10599000EE54400112000208006000000000000008
:1059A000C000000000000000000000000000000037
:1059B00000000003800000000000000C0000040054
:1059C00008D24008128D53EBBAF556D42A8228012A
:1059D00014008049328802C800A35596ADA9ADBB1A
:1059E00057FDFDFFFFFFFFFFFFFFFFFFFFFFFFFF73
:1059F000D001003FFFFFFFFFFFFFFFFFFFFFFDD5CF
:105A0000B526401200400000000000000000000029
:105A10000000000000000000000000000000000086
:105A2000000380000000000000400000012151043C
:105A30009AD4A4156D5A574EEFB5D52444AA60AD3B
:105A400055AACD77FEFFFFBF6AEEEEAFBFFFFFFFA7
:105A5000FFFFFFFFFFFFFFFFFFFFFFFFFFFFA000B4
:105A6000007FFFFEF7FFFB7FFFFFFFFF6E50000090
:105A7000000040000000000000040000048000005E
:105A80000000000000000000000000000000000313
:105A90008000000000000012A80030080AD5255040
:105AA000AA932EABAB75594A105AA814852D55AD43
:105AB0004AA9552D5AEBFF9DFFDA7BBDFFFFFFFF83
:105AC000FFFFFFFFFFFFFFFFFFFFFFEF7000007F03
:105AD000FFF7DEABDFDAAF7FFFF2F6574A000800D0
