:020000040800F2
:10000000E812002051080008250400082704000811
:100010002B0400082F04000833040008000000002F
:10002000000000000000000000000000370400088D
:1000300039040008000000003B0400083D040008EB
:100040006B0800086B0800086B0800086B080008C4
:100050006B0800086B0800086B0800086B080008B4
:100060006B0800086B0800086B0800086B080008A4
:100070006B0800086B0800086B0800086B08000894
:100080006B0800086B0800086B0800086B08000884
:100090006B0800086B0800086B0800086B08000874
:1000A0006B0800086B0800086B0800086B08000864
:1000B0006B0800086B0800086B0800086B08000854
:1000C0006B0800086B0800086B0800086B08000844
:1000D0006B080008C50700086B0800086B080008DB
:1000E0006B0800086B0800086B0800086B08000824
:1000F0006B0800086B0800086B0800086B08000814
:100100006B0800086B0800086B0800086B08000803
:100110006B0800086B0800086B0800086B080008F3
:100120006B0800086B0800086B0800086B080008E3
:1001300000F002F800F03AF80AA090E8000C8244BF
:100140008344AAF10107DA4501D100F02FF8AFF29C
:10015000090EBAE80F0013F0010F18BFFB1A43F0A5
:10016000010318475C8200007C820000103A24BF23
:1001700078C878C1FAD8520724BF30C830C144BF0C
:1001800004680C607047000000230024002500264E
:10019000103A28BF78C1FBD8520728BF30C148BFEA
:1001A0000B6070471FB51FBD10B510BD02F07EF982
:1001B0001146FFF7F7FF00F009F802F09CF903B4CD
:1001C000FFF7F2FF03BC00F0A3FA00000EB500F049
:1001D00025FA00F097FA01F051FA09E101F0CEF9A1
:1001E000844801F0FFF901F0EAF9022000F075FA05
:1001F00001F0C4F901F01CFA01F0E1F9022000F06D
:100200006CFAFF204FF487739822114600907A48C9
:1002100001F0DCFA784801F016FB01F0AFF9FF209D
:1002200001F0CCFB0120034600220A2100900520AA
:1002300001F0F9FB01200223002219210090052082
:1002400001F0F1FB0120032300222821009005206A
:1002500001F0E9FB01200423002237210090052052
:1002600001F0E1FB0120002100913C234622CDE971
:1002700001100A21142001F028FC01200021009126
:100280003C231422CDE901100A21462001F01DFC77
:100290000120002100913C234622CDE901100A21D2
:1002A000142001F090FC01200022CDE900203C2325
:1002B00082220A210290552001F085FC01200021B4
:1002C0000B461922CDE9001078211E2001F0D4FC44
:1002D000012000900023192278210190642001F070
:1002E000CBFC454801F018F901F069F9022000F053
:1002F000F4F901F043F9FF2001F060FB0020FF2139
:100300003E4B3FA2CDE90010014601F035FE002032
:10031000FF213F4B3AA2CDE900100A2101F02CFE4B
:100320000020FF213B4B36A2CDE90010192101F03E
:1003300023FE0020FF21384B31A2CDE900102D21F2
:1003400001F01AFE0020FF21344B2DA2CDE9001050
:10035000502101F011FE284801F0DEF801F02FF9DC
:10036000022000F0BAF901F009F9FF2001F026FBA4
:100370000020FF21214B2A4ACDE90010014601F05F
:1003800041FF0020FF21224B254ACDE900100A2120
:1003900001F038FF0020FF211E4B214ACDE900105B
:1003A000192101F02FFF0020FF211B4B1C4ACDE932
:1003B00000102D2101F026FF0020FF21174B184AC5
:1003C000CDE90010462101F01DFF0B4801F0A4F813
:1003D00001F0F5F8022000F080F901F0CFF801F00B
:1003E00027F901F0ECF8022000F077F900BFFEE7F2
:1003F000F4E600000C2500085C000020340000201A
:10040000476F6F6420446973706C6179000000006D
:100410003C000020440000204C000020540000203C
:1004200015CD5B07704700BFFEE700BFFEE700BFCA
:10043000FEE700BFFEE77047704770477047000057
:100440000CB50020019000906B48006840F48030AB
:100450006949086000BF6848006800F400300090F7
:100460000198401C0190009818B90198B0F5A06F50
:10047000F1D16148006810F4003F02D001200090E3
:1004800001E0002000900098012842D15B480068FC
:1004900040F01000594908600846006820F0030049
:1004A00008600846006840F0020008605248406852
:1004B000514948600846406848600846406840F432
:1004C000806048600846406820F47C104860084618
:1004D000406840F4E81048600846006840F08070CA
:1004E000086000BF4448006810F0007FFAD042481E
:1004F000406820F00300404948600846406840F0EA
:100500000200486000BF3C48406800F00C0008282A
:10051000F9D10CBD10B5FFF793FF10BD10B53648EB
:10052000006840F0010034490860084640683449DA
:1005300008403149486008460068324908402E4961
:1005400008600846006820F480200860084640687B
:1005500020F4FE0048604FF41F008860FFF7DAFFC8
:100560004FF000602849086010BD10B50021002040
:100570000022214B5B6803F00C0121B1042906D055
:10058000082928D107E0214B214C236027E01F4B8D
:100590001F4C236023E0184B5B6803F47010164B6C
:1005A0005B6803F48032022303EB904022B9194BBD
:1005B0004343174C23600DE00F4B5B6813F4003F7F
:1005C00004D0144B4343124C236003E00F4B4343CE
:1005D0000F4C236003E00D4B0D4C236000BF00BFA8
:1005E000054B5B68C3F303130B4CE15C084B1B68C2
:1005F000CB40074C236010BD001002400020024099
:100600000000FFF8FFFFF6FE08ED00E000127A00A0
:100610000000002000093D000400002010B56FF02C
:10062000040000F085F9334800683349B0FBF1F06D
:10063000324908700846007800EB4001C1EBC01059
:100640004FF6FF7101EAC0002D49088010BD014638
:100650002A4A12784A434FF0E0235A6100229A61F5
:100660001A46126942F001021A6100BF4FF0E022FF
:10067000106910F0010F02D010F4803FF6D04FF057
:10068000E022126922F001024FF0E0231A610022F9
:100690009A61704701461A4A12884A434FF0E02394
:1006A0005A6100229A611A46126942F001021A61E7
:1006B00000BF4FF0E022106910F0010F02D010F4DB
:1006C000803FF6D04FF0E022126922F001024FF095
:1006D000E0231A6100229A61704730B50446002574
:1006E00005E04FF47A70FFF7D5FF681C85B2A5428C
:1006F000F7DB30BD0000002000127A00140000205B
:100700001600002010B54FF4A06000F0C1F810BD35
:10071000014600BF704700BF494A128812F0400FDF
:10072000FAD0C2B2464B1B1D1A80704710B586B076
:100730000446012144F2050000F02EFC4FF4007045
:10074000ADF8140003208DF8160018208DF817005E
:1007500005A93C4800F06AF94FF48060ADF8140038
:1007600004208DF8170005A9364800F05FF9252010
:100770008DF8000003208DF801008DF802000120A3
:100780008DF80300684600F088F801940020ADF869
:100790000800ADF80A00ADF80C00ADF810000C2010
:1007A000ADF80E0001A9264800F0A1FC012240F29C
:1007B0002551234800F033FD0121214800F023FD9D
:1007C00006B010BD10B540F225511D4800F00CFEDA
:1007D00010B31B4800F088FDC4B21B48008810F419
:1007E000004F2BD11848008810F4804F0CD00A2CF1
:1007F00003D000201449088020E01348008840F40A
:1008000000401149088019E00D2C06D10E480088DF
:1008100040F480400C49088010E00B480088C0F389
:100820000D000A490C5408480088401C06490880FD
:1008300008460088C72801DD0020088010BD0000A0
:10084000003801400008014018000020A40B0020DF
:100850000948804709480047FEE7FEE7FEE7FEE754
:10086000FEE7FEE7FEE7FEE7FEE7FEE70448054990
:10087000054A064B704700001D05000831010008BD
:10088000E80C0020E8120020E80E0020E80E00200E
:1008900031490143314A1160704770B5002100238E
:1008A0000F22C4780CB32D4C246804F4E064C4F522
:1008B000E064210AC1F10403CA40447804FA03F158
:1008C0008478144021430901254C0678A155047809
:1008D00004F01F050124AC4005786D114FF0E026AF
:1008E00006EB8505C5F8004109E0047804F01F0512
:1008F0000124AC401B4D0678761145F8264070BDAA
:10090000194A0A400243154B1B1F1A60704739B140
:10091000124A121D12680243104B1B1D1A6006E09A
:100920000E4A121D126882430C4B1B1D1A60704741
:10093000042808D14FF0E021096941F004014FF08B
:10094000E022116107E04FF0E021096921F0040184
:100950004FF0E022116170470000FA050CED00E055
:1009600000E400E080E100E080FFFF1F10B50446D6
:10097000CA48844208D10121042000F027FB00214D
:10098000042000F023FB46E0C548844208D1012141
:10099000082000F01BFB0021082000F017FB3AE0C4
:1009A000C048844208D10121102000F00FFB002133
:1009B000102000F00BFB2EE0BB48844208D101213F
:1009C000202000F003FB0021202000F0FFFA22E0AD
:1009D000B648844208D10121402000F0F7FA0021F6
:1009E000402000F0F3FA16E0B148844208D101211A
:1009F000802000F0EBFA0021802000F0E7FA0AE006
:100A0000AC48844207D10121801500F0DFFA0021B3
:100A1000A01500F0DBFA10BD10B50121084600F06A
:100A2000D5FA0021012000F0D1FA10BD2DE9F041E6
:100A3000024600250026002000230024002791F80C
:100A400003C00CF00F0591F803C01CF0100F03D089
:100A500091F802C04CEA050591F800C0BCF1000F06
:100A600031D0146800202BE04FF0010C0CFA00F399
:100A7000B1F800C00CEA03069E4220D183004FF07B
:100A80000F0C0CFA03F7BC4305FA03FC4CEA040410
:100A900091F803C0BCF1280F06D14FF0010C0CFAFD
:100AA00000FCC2F814C00AE091F803C0BCF1480F82
:100AB00005D14FF0010C0CFA00FCC2F810C0401C2C
:100AC0000828D1D31460B1F800C0BCF1FF0F34DDA9
:100AD000546800202EE000F1080C4FF0010808FADD
:100AE0000CF3B1F800C00CEA03069E4221D183004A
:100AF0004FF00F0C0CFA03F7BC4305FA03FC4CEA69
:100B0000040491F803C0BCF1280F05D100F1080CD2
:100B100008FA0CF8C2F8148091F803C0BCF1480F31
:100B200007D100F1080C4FF0010808FA0CF8C2F8E0
:100B30001080401C0828CED35460BDE8F0814FF6E9
:100B4000FF710180022181700421C170704702464B
:100B5000002093680B4201D0012000E00020704784
:100B60000146886880B2704702460020D3680B4275
:100B700001D0012000E0002070470146C86880B223
:100B8000704701617047416170470AB1016100E03F
:100B900041617047C16070474FF480320A438261FF
:100BA0008161826182698269704702460020424BFE
:100BB00018684FF68073184040EA021008433E4B15
:100BC000186070473D49C8617047F0B50A46002378
:100BD00000240021002500F00046B6F1004F02D1AC
:100BE000354EF16901E0344E7168C0F3034583B2BC
:100BF00000F44016B6F5401F08D121F070612E4E6A
:100C0000766826F070662C4F7E6012E000F4801645
:100C1000B6F5801F06D1032606FA05F4A14341F07C
:100C2000706106E0460D360103FA06F6B14341F065
:100C3000706122B1460D360103FA06F6314300F029
:100C40000046B6F1004F02D11B4EF16101E01A4E91
:100C50007160F0BD30B500228B071C0F0F2303FA23
:100C600004F2154B08338C1053F824309343124C84
:100C700008348D1044F8253023468C1053F8243066
:100C80008C07240F00FA04F423430B4C08348D1016
:100C900044F8253030BD0A4908607047000801401B
:100CA000000C0140001001400014014000180140F8
:100CB000001C0140002001400000014000002042D3
:100CC000DC002042DD48006840F00100DB4908609C
:100CD00008464068DA490840D84948600846006834
:100CE000D8490840D54908600846006820F48020AB
:100CF00008600846406820F4FE0048604FF41F007A
:100D000088607047CD49096821F48031CB4A116071
:100D10001146096821F480211160B0F5803F03D0AD
:100D2000B0F5802F0ED106E0C449096841F4803146
:100D3000C24A116007E0C149096841F4A021BF4AD5
:100D4000116000E000BF00BF704710B501460022EF
:100D5000002300204A11012A02D1B84C236806E082
:100D6000022A02D1B54C236A01E0B44C636A01F057
:100D70001F02012494401C4201D0012000E0002009
:100D800010BD38B5002000900024002500BF3120A0
:100D9000FFF7DBFF05460098401C00900098B0F577
:100DA000A06F01D0002DF2D03120FFF7CEFF08B1A7
:100DB000012400E00024204638BD014600209F4A5F
:100DC000106820F0F80040EAC100106070479E49AA
:100DD0000860704702460020984B586820F47C1049
:100DE00042EA01031843954B5860704796490866DC
:100DF000704701460020914A506820F003000843E4
:100E0000506070478D48406800F00C007047014604
:100E100000208A4A506820F0F00008435060704774
:100E200001460020854A506820F4E0600843506085
:100E3000704701460020814A506820F4605040EA23
:100E4000C1005060704729B17C4A527A02437B4B03
:100E50005A7204E0794A527A8243784B5A72704748
:100E60007A490860704701460020744A506820F4AF
:100E700040400843506070470021754A11706F4A26
:100E800082F82010012802D0042808D103E00121B3
:100E90006F4A117004E005216D4A117000E000BF37
:100EA00000BF70476B49086070476449096A014395
:100EB000624A11627047674944390860704730B52B
:100EC00000210022002400235C4D6D6805F00C0118
:100ED00021B1042905D0082923D105E05E4D056024
:100EE00022E05D4D05601FE0544D6D6805F4701201
:100EF000524D6D6805F48034022505EB92421CB911
:100F0000564D554305600BE04C4D6D6815F4003FA0
:100F100003D0524D5543056002E04F4D55430560E7
:100F200002E04D4D056000BF00BF444D6D6805F007
:100F3000F00109094A4D6B5C0568DD4045603F4D95
:100F40006D6805F4E061090A454D6B5C4568DD405C
:100F500085603A4D6D6805F46051C90A404D6B5C7F
:100F60004568DD40C560354D6D6805F44041890B2D
:100F70003C4D6B5CC568B5FBF3F5056130BD29B12F
:100F80002E4A526902432D4B5A6104E02B4A5269A2
:100F900082432A4B5A61704729B1284A9269024319
:100FA000264B9A6104E0254A92698243234B9A6159
:100FB000704729B1214AD2690243204BDA6104E02B
:100FC0001E4AD26982431D4BDA61704729B11B4A20
:100FD000D2680243194BDA6004E0184AD2688243AF
:100FE000164BDA60704729B1144A12690243134B59
:100FF0001A6104E0114A12698243104B1A6170476A
:1010000014494039086070470F49C86470470B495C
:10101000C87170470948406A40F0807007494862CB
:10102000704701460020054A92680A4201D001201B
:1010300000E00020704701498872704700100240AC
:101040000000FFF8FFFFF6FE00004242D8004242D7
:10105000201002408004424200127A0000093D0044
:10106000200000203000002010B50446FB488442D8
:1010700009D101218803FFF7A9FF00214FF4804027
:10108000FFF7A4FF32E0F648844209D10121480469
:10109000FFF7A9FF00214FF40030FFF7A4FF25E080
:1010A000F048844209D101218804FFF79CFF002108
:1010B0004FF48020FFF797FF18E0EB48844209D1F6
:1010C0000121C804FFF78FFF00214FF40020FFF734
:1010D0008AFF0BE0E548844208D101210805FFF7AB
:1010E00082FF00214FF48010FFF77DFF10BD2DE936
:1010F000F04786B005460E460024A24600BFA14632
:101100000027B08900B100BF2F462C8A4CF6FF7033
:101110000440F08804432C82AC894EF6F31004405E
:10112000B08831890843718908430443AC81AC8A93
:101130004FF6FF400440B0890443AC8201A8FFF79A
:10114000BEFEC648874202D1DDF810A001E0DDF8FE
:101150000CA0A88910F4004F08D00AEBCA0000EBDD
:101160000A1031684900B0FBF1F807E00AEBCA0049
:1011700000EB0A1031688900B0FBF1F86420B8FB7D
:10118000F0F004012009642101FB1089A88910F402
:10119000004F08D0322000EBC900B0FBF1F000F0A6
:1011A0000700044308E0322000EB09106421B0FB83
:1011B000F1F000F00F0004432C8106B0BDE8F08789
:1011C0004FF41651016000218180C18001810C2102
:1011D000418100218181704710B502460020108AAC
:1011E0004FF2FF0318400B884C8823438C8823431D
:1011F000CC8823431843108210BD00210180418018
:101200008180C180704721B1828942F4005282817D
:1012100004E082894DF6FF731A4082817047F0B571
:1012200003460024002600250020A1F510676A3F30
:1012300000D100BF1846C1F3421401F01F06012778
:1012400007FA06F5012C01D10C3004E0022C01D183
:10125000103000E014301AB107682F43076002E035
:101260000768AF430760F0BD1AB1838A0B438382DE
:1012700002E0838A8B4383827047028A4FF6F073C1
:101280001A400282028A0A430282704782894FF220
:10129000FF731A40828182890A438281704721B19B
:1012A000828942F00202828104E082894FF6FD7356
:1012B0001A4082817047028A4FF6DF731A40028219
:1012C000028A0A430282704721B1028A42F48042B4
:1012D000028204E0028A4BF6FF731A4002827047D2
:1012E000C1F308028280704701468888C0F3080075
:1012F0007047818941F0010181817047028BD2B230
:101300000283028B42EA012202837047028B02F4BD
:101310007F420283028B0A430283704721B1828A93
:1013200042F02002828204E0828A4FF6DF731A4084
:101330008282704721B1828A42F01002828204E0E8
:10134000828A4FF6EF731A408282704721B1828AF7
:1013500042F00802828204E0828A4FF6F7731A4054
:101360008282704721B1828942F40042828103E087
:101370008289C2F30E028281704721B1828A42F4CF
:101380000062828204E0828A4FF2FF731A408282F6
:101390007047828A4FF6FB731A408282828A0A4320
:1013A0008282704721B1828A42F00202828204E086
:1013B000828A4FF6FD731A408282704702460020EF
:1013C000B1F5007F00D100BF13880B4201D001208E
:1013D00000E00020704701F40072B2F5007F00D1F8
:1013E00000BFCA430280704770B502460024002344
:1013F00000250020A1F510666A3E00D100BFC1F3B0
:10140000421501F01F03012606FA03F3012D02D154
:101410009689334006E0022D02D1168A334001E05E
:10142000968A33400C12012606FA04F416883440DA
:1014300013B10CB1012000E0002070BD10B50022F6
:101440000023A1F510646A3C00D100BF0A120124F8
:101450009440A3B2DC43048010BD0000003801407A
:101460000044004000480040004C00400050004054
:1014700006E042F6E06100BF0A00A1F10101FBD1E4
:101480000200A0F10100F4D1704710B54FF4804183
:101490007948FFF778FB0A20FFF7EAFF4FF4804115
:1014A0007548FFF76EFB0A20FFF7E2FF4FF480411B
:1014B0007148FFF768FB0A20FFF7DAFF4FF480411D
:1014C0006D48FFF75EFB0A20FFF7D2FF4FF4804123
:1014D0006948FFF758FB0A20FFF7CAFF4FF4804125
:1014E0006548FFF74EFB0A20FFF7C2FF10BD10B59D
:1014F00000BF712000F036F94FF400515E48FFF74D
:1015000026FB044604F0010080F00104002CF0D119
:10151000C820FFF7ADFF10BD2DE9F04107461326A7
:101520004FF09808102000F01DF9002508E0002475
:1015300003E0002000F02EF9641CB442F9D36D1CC6
:101540004545F4D3132000F00DF900250AE00024EE
:1015500005E005FB0641785C00F01CF9641CB44210
:10156000F7D36D1C4545F2D3122000F0FBF80120A3
:10157000FFF77EFFFFF7BBFFBDE8F08110B5FFF777
:1015800084FF042000F0EEF8FFF7B1FF002000F028
:10159000E9F81F2000F0FEF8612000F0E3F8982041
:1015A00000F0F8F8002000F0F5F8982000F0F2F8CC
:1015B000502000F0D7F8972000F0ECF810BD10B5DF
:1015C000502000F0CFF8F72000F0E4F8022000F0FF
:1015D000C9F8FFF78CFF072000F0C4F8A52000F041
:1015E000D9F810BD70B50546102000F0BBF80024F6
:1015F00003E0FF2000F0CEF8641C40F6483084423F
:10160000F7D3132000F0AEF8002404E0287800F0AF
:10161000C1F86D1C641C40F648308442F6D3122099
:1016200000F0A0F80120FFF723FFFFF760FF70BD77
:1016300010B5102000F096F8002403E0FF2000F021
:10164000A9F8641C40F648308442F7D3132000F018
:1016500089F8002403E0FF2000F09CF8641C40F6A9
:1016600048308442F7D3122000F07CF80120FFF7C5
:10167000FFFEFFF73CFF10BD0018014008B5012137
:101680006020FFF789FC4FF4E060ADF80000102007
:101690008DF8030002208DF8020069464948FFF7E3
:1016A000C5F94FF44040ADF8000010208DF803005C
:1016B00002208DF8020069464348FFF7B7F94FF45E
:1016C0000050ADF8000048208DF8030002208DF88E
:1016D000020069463C48FFF7A9F94FF48050ADF885
:1016E000000010208DF8030002208DF802006946EA
:1016F0003548FFF79BF908BD00BF0100A0F10102CA
:10170000D0B2FAD1704770B504460120FFF7F4FF5C
:10171000002524E04FF400712A48FFF734FA012035
:10172000FFF7EAFF14F0800F05D04FF480612548E1
:10173000FFF727FA04E04FF480612248FFF723FA0D
:101740006006040E0120FFF7D7FF4FF400711D481B
:10175000FFF717FA0120FFF7CFFF681CC5B2082D6D
:10176000D8DB70BD10B504460120FFF7C5FF4FF46C
:1017700080711448FFF707FA4FF400411248FFF751
:1017800002FA2046FFF7BFFF4FF480710D48FFF7C4
:10179000F8F910BD10B504460120FFF7ADFF4FF476
:1017A00080710848FFF7EFF94FF400410648FFF752
:1017B000E8F92046FFF7A7FF4FF480710148FFF7D3
:1017C000E0F910BD00140140001801402DE9F0417E
:1017D0000646069F0020F94C2060204606600181E5
:1017E000428187810C464FEAE17C01EB5C7C4FEA49
:1017F000EC0CB1EBCC0C07D10D464FEAE57C05EBC8
:101800005C7C4FEAEC0C08E008464FEAE17C01EB17
:101810005C7C4FEAEC0C0CF1010CDFF8A083A8F81B
:1018200012C040468282C3810020444620820BB110
:10183000B42B03D1E1488180C28002E0DF4882807E
:10184000C180BDE8F081DD490860704730B15A2899
:1018500004D0B42802D0B0F5877F01D1D749C88120
:10186000704728B1012803D0022801D0032801D1F4
:10187000D249088270472DE9F04103460C461746CD
:10188000CE4EB6889E4203DBCC4EF688A64201DAE5
:10189000BDE8F081C94EF6893EB15A2E08D0B42E6B
:1018A0000DD0B6F5877F1CD114E01846214619E00B
:1018B000C24E3689361B761EB0B2194612E0BF4EB4
:1018C0003689F61A761EB0B2BC4E7689361B761E65
:1018D000B1B207E02046B94E7689F61A761EB1B24B
:1018E00000E0D5E700BFB54E368A36B1012E05D0EF
:1018F000022E09D0032E18D10CE017E0AF4E368926
:10190000361A761EB0B211E0AC4E7689761A761E83
:10191000B1B20BE0A94E3689361A761EB0B2A74E88
:101920007689761A761EB1B200E0B1E700BFA34E09
:101930003689864203DBA14E76898E4200DAA7E71C
:1019400006464FEAE07C00EB5C7C4FEAEC0CDFF8EB
:101950006C82B8F8128001FB08C2984E3668B55CFC
:10196000AFB906464FEAE07C00EB5C7C4FEAEC0C3A
:10197000A0EBCC084FF0800C4CFA08FC25EA0C0CCC
:10198000DFF83882D8F8008008F802C014E0064674
:101990004FEAE07C00EB5C7C4FEAEC0CA0EBCC085F
:1019A0004FF0800C4CFA08FC4CEA050CDFF80C8276
:1019B000D8F8008008F802C000BF69E730B50246D9
:1019C000002110E0002008E07C4C648A01FB040345
:1019D0007A4D2D68EA54441CA0B2784C648A844243
:1019E000F2DC4C1CA1B2754CA48A8C42EADC30BDFE
:1019F0002DE9F04706460F4690469946DDF820A0AF
:101A00003D460CE0344606E0524629462046FFF7A4
:101A100032FF601C84B24445F6DB681C85B24D453C
:101A2000F0DBBDE8F0872DE9F04707468846914690
:101A30001C46DDF820A061488088B84203DB5F487F
:101A4000C088404501DABDE8F087BAF1010F24D122
:101A500000251DE0002614E007EB0500001B03D461
:101A600008EB0600001B00D50FE008EB0602121B76
:101A700091B27A19121B90B24A46FFF7FCFE701C15
:101A800006B26000401EB042E6DC00BF681C05B232
:101A90006000401EA842DDDC15E0002511E00026B4
:101AA0000BE008EB0602521E91B27A19521E90B258
:101AB0004A46FFF7E0FE701C06B2A642F1DB681C46
:101AC00005B2A542EBDB00BFBDE72DE9F04F85B0C5
:101AD00004460D4616461F4638488088A0420BDB58
:101AE0003648C088A84207DB34488088B04203DB10
:101AF0003248C088B84202DA05B0BDE8F08FA0468F
:101B0000AA46301B01D4301B00E0A01B8346781B83
:101B1000002801DC781B00E0E81B0490B44201DAE5
:101B2000012001E04FF0FF300390BD4201DA0120B7
:101B300001E04FF0FF30029004980BEB0009002009
:101B4000019000BF0198401CC0B201900F9801287D
:101B500011D10321019890FBF1F201FB120050B961
:101B600001200090FF2251464046109BFFF75BFF8B
:101B70000020019007E00120009051464046109B54
:101B80000E9AFFF750FF4FEA49010498814208DBA3
:101B9000B04500D114E004988144039840441FFAF2
:101BA00080F84FEA49005845CCDCBA4500D107E03F
:101BB000D944029850441FFA80FAC3E76C0C002005
:101BC00000BF00BF98E72DE9FE4F81460F469246C1
:101BD0009846DDE90DB50C9CFE48808848450BDB36
:101BE000FC48C088B84207DBFA488088504503DBD0
:101BF000F848C088404501DABDE8FE8FBBF1000F10
:101C000010D03E460BE00020334652463146CDE927
:101C1000010500944846FFF758FF701C86B2464500
:101C2000F1DB27E000203B4652463946CDE901056D
:101C300000944846FFF749FF002043464A4639468C
:101C4000CDE9010500944846FFF73FFF00203B46E1
:101C500052464146CDE9010500945046FFF735FF55
:101C6000002043464A464146CDE9010500945046CE
:101C7000FFF72BFF00BFBFE72DE9F84F05460E46E3
:101C800092469B46D3488088A84203DBD148C0884F
:101C9000B04201DCBDE8F88F00240FFA8AF7032078
:101CA000A0EB4A000FFA80F90A98012877D172E078
:101CB000A0465BE0012006EB080291B22A190090D1
:101CC00090B201235A46FFF7AEFE012006EB080250
:101CD00091B22A1B009090B201235A46FFF7A3FE4F
:101CE0000120321991B2A5EB0802009090B20123B5
:101CF0005A46FFF798FE0120321B91B2A5EB08026D
:101D0000009090B201235A46FFF78DFE0120A6EB0A
:101D1000080291B22A1B009090B201235A46FFF7A5
:101D200082FE0120A6EB080291B22A19009090B21F
:101D300001235A46FFF777FE0120321B91B205EBD3
:101D40000802009090B201235A46FFF76CFE012072
:101D5000321991B205EB0802009090B201235A4665
:101D6000FFF761FE08F101000FFA80F8B845A1DD28
:101D7000B9F1000F05DAA000801D48440FFA80F980
:101D800007E0E01B80000A3048440FFA80F9781E13
:101D900007B2601C04B2BC428ADD66E0FFE762E085
:101DA0000120F21991B22A19009090B25A460B9B69
:101DB000FFF739FE0120F21991B22A1B009090B270
:101DC0005A460B9BFFF72FFE0120321991B2EA1BF6
:101DD000009090B25A460B9BFFF725FE0120321B64
:101DE00091B2EA1B009090B25A460B9BFFF71BFE84
:101DF0000120F21B91B22A1B009090B25A460B9B15
:101E0000FFF711FE0120F21B91B22A19009090B247
:101E10005A460B9BFFF707FE0120321B91B2EA19CD
:101E2000009090B25A460B9BFFF7FDFD012032193E
:101E300091B2EA19009090B25A460B9BFFF7F3FD5E
:101E4000B9F1000F05DAA000801D48440FFA80F9AF
:101E500007E0E01B80000A3048440FFA80F9781E42
:101E600007B2601C04B2BC429ADD00BF12E72DE944
:101E7000F04F0746884692461D4656488088B8422D
:101E800003DB5448C088404501DABDE8F08FA988DB
:101E9000CA1701EB5272D2100846CB1701EB5373ED
:101EA000DB10B1EBC30301D0012300E00023134496
:101EB000AAF12002B5F806C002FB0CF203FB02FBFC
:101EC000286800EB0B09002651E0002440E0099847
:101ED000FF2814D1E11704EB5171C910A4EBC10222
:101EE0008021114199F80020114225D008EB06020B
:101EF00091B23A1990B20A9AFFF7BDFC1CE0E117C3
:101F000004EB5171C910A4EBC1028021114199F871
:101F10000020114208D008EB060291B23A1990B2A3
:101F20000A9AFFF7A8FC07E008EB060291B23A19FB
:101F300090B2099AFFF79FFCE11704EB5171C910A9
:101F4000A4EBC101072901D109F10109601C84B288
:101F5000A888A042BBDCA888C11700EB5171C9104A
:101F6000B0EBC10101D009F10109701C86B2E8880B
:101F7000B042AADC00BF88E72DE9FC4F04460E46BC
:101F800017461D46DDE90BABA046B14611488088D7
:101F9000A04203DB0F48C088B04201DABDE8FC8FE5
:101FA00022E0A88840440B498988884204DDA04685
:101FB000E88848441FFA80F9E88848440549C988F8
:101FC000884201DDA046B146CDE900AB3A782B4608
:101FD000494601E06C0C00204046FFF748FF7F1C9B
:101FE000A88840441FFA80F838780028D9D100BF6B
:101FF000D4E72DE9FF4F1D46DDF80890DDF800809D
:10200000DDF804A0F7E099F800007F2875DC0027D0
:1020100069E053207843296811F8100099F80010FE
:1020200088425FD153207843296801EB400000F1DA
:10203000020B002652E0002442E00D98FF2815D143
:10204000E11704EB5171C910A4EBC10280211141C9
:102050009BF80020114228D00AEB060291B208EB4F
:10206000040290B20E9AFFF706FC1EE0E11704EBA3
:102070005171C910A4EBC102802111419BF80020CD
:10208000114209D00AEB060291B208EB040290B2A9
:102090000E9AFFF7F0FB08E00AEB060291B208EB9C
:1020A000040290B20D9AFFF7E6FBE11704EB5171C1
:1020B000C910A4EBC101072901D10BF1010B641C6C
:1020C0002889A042B9DC2889C11700EB5171C910D9
:1020D000B0EBC10101D00BF1010B761C6889B04255
:1020E000A9DC03E07F1CA888B84292DC00BF09F19C
:1020F0000109E88880447EE0FFE7002773E0532071
:102100007843296811F8100099F80010884269D1C5
:1021100053207843296801EB4000407899F801107A
:1021200088425FD153207843296801EB400000F1D9
:10213000020B002652E0002442E00D98FF2815D142
:10214000E11704EB5171C910A4EBC10280211141C8
:102150009BF80020114228D00AEB060291B208EB4E
:10216000040290B20E9AFFF786FB1EE0E11704EB23
:102170005171C910A4EBC102802111419BF80020CC
:10218000114209D00AEB060291B208EB040290B2A8
:102190000E9AFFF770FB08E00AEB060291B208EB1B
:1021A000040290B20D9AFFF766FBE11704EB517140
:1021B000C910A4EBC101072901D10BF1010B641C6B
:1021C0002889A042B9DC2889C11700EB5171C910D8
:1021D000B0EBC10101D00BF1010B761C6889B04254
:1021E000A9DC03E07F1CA888B84288DC00BF09F1A5
:1021F00002092889804499F8000000287FF403AF81
:10220000BDE8FF8F2DE9F04FADF5037D06460F4683
:1022100015469946DDF834B2DDF830A20024A04618
:102220004FF4807143A800F016F94FF4807103A8B1
:1022300000F011F943A8029082488088B04203DB85
:102240008048C088B84203DA0DF5037DBDE8F08F01
:102250000CE00A2095FBF0F100FB1150303003A98F
:102260000855601C04B20A2095FBF0F5002DF0D152
:102270000BE0601E03A9085C43A901F8080008F1FF
:1022800001000FFA80F8601E04B2002CF1DC4B460E
:10229000CDE900AB39463046029AFFF76DFE00BF2C
:1022A000D2E72DE9FF4F85B0054690469A46DDE915
:1022B000126765A207CA02AB07C3BAF8044098F8D0
:1022C00004000A2190FBF1F002A911F80090534696
:1022D0004A46CDE9006728460699FFF7C8FD98F8F9
:1022E00004000A2190FBF1F201FB120002A911F88F
:1022F0000090291988B253464A46CDE900670699ED
:10230000FFF7B5FDA146E11704EB91712A1902EB25
:10231000A101A34604EBDB7201EB620188B25346D4
:102320003A22CDE900670699FFF7A1FD98F805006C
:102330000A2190FBF1F002A911F800B004EBD97169
:1023400005EB440202EB610188B253465A46CDE9DF
:1023500000670699FFF78BFD98F805000A2190FBAE
:10236000F1F201FB120002A911F800B004EBD971DF
:1023700004EB44022A4402EB610188B253465A46F8
:10238000CDE900670699FFF772FD04EBD97105EB03
:10239000840202EB6101A346E21704EB9272A1EB07
:1023A000A20188B253463A22CDE900670699FFF7A9
:1023B0005EFD98F806000A2190FBF1F002A911F8E1
:1023C000009004EB8401294488B253464A46CDE983
:1023D00000670699FFF74BFD98F806000A2190FB6D
:1023E000F1F201FB120002A911F8009004EB440184
:1023F00005EB410188B253464A46CDE9006706998C
:10240000FFF735FD09B0BDE8F08F30B50246002377
:10241000002111E0002009E00A4C648A01FB04035A
:10242000D45C084D2D68EC54441CA0B2054C648A61
:102430008442F1DC4C1CA1B2024CA48A8C42E9DC3F
:1024400030BD00006C0C002030313233343536376B
:102450003839000070474FF0000200B5134694462B
:102460009646203922BFA0E80C50A0E80C50B1F1EC
:102470002001BFF4F7AF090728BFA0E80C5048BF00
:102480000CC05DF804EB890028BF40F8042B08BF9E
:10249000704748BF20F8022B11F0804F18BF00F89A
:1024A000012B70477047704770477047754600F0C2
:1024B00029F8AE4605006946534620F007008546D8
:1024C00018B020B5FEF7D2F9BDE820404FF0000665
:1024D0004FF000074FF000084FF0000B21F007010C
:1024E000AC46ACE8C009ACE8C009ACE8C009ACE84F
:1024F000C0098D4670470446AFF300802046FDF7C3
:102500005EFE000000487047840C0020FFFFFFFFC4
:10251000FFFFFFFFFFFFFFFCFFFFFFFFFFFFFFFFCE
:10252000FFFFFFFFFFFFFFFFFFFFFCFFFFFFFFFFBE
:10253000FFFFFFFFFFFFFFFFFFFFFFFFFFFCFFFFAE
:10254000FFFFFFFFFFFFFFFFFFFFFFFFFFFFFFFF9B
:10255000FCFFFFFFFFFFFFFFFFFFFFFFFFFFFFFF8E
:10256000FFFFFFFCFFFFFFFFFFFFFFFFFFFFFFFF7E
:10257000FFFFFFFFFFFFFCFFFFFFFFFFFFFFFFFF6E
:10258000FFFFFFFFFFFFFFFFFFFCFFFFFFFFFFFF5E
:10259000FFFFFFFFFFFFFFFFFFFFFFFFFCFFFFFF4E
:1025A000FFFFFFFFFFFFFFFFFFFFFFFFFFFFFFFC3E
:1025B000FFFFFFFFFFFFFFFFFFFFFFFFFFFFFFFF2B
:1025C000FFFFFCFFFFFFFFFFFFFFFFFFFFFFFFFF1E
:1025D000FFFFFFFFFFFCFFFFFFFFFFFFFFFFFFFF0E
:1025E000FFFFFFFFFFFFFFFFFCFFFFFFFFFFFFFFFE
:1025F000FFFFFFFFFFFFFFFFFFFFFFFCFFFFFC01EF
:10260000FFFFFFFFFFFFFFFFFFFFFFFFFFFFFCFFDD
:10261000FFF0007FFFFFFFFFFFFFFFFFFFFFFFFF58
:10262000FFFCFFFFC1FE1FFFFFFFFFFFFFFFFFFFDC
:10263000FFFFFFFFFCFFFE3FFFE3FFFFFFFFFFFF8A
:10264000FFFFFFFFFFFFFFFCFFFC7FFFF1FFFFFF2E
:10265000FFFFFFFFFFFFFFFFFFFFFCFFFCFFFFF996
:10266000FFFFFFFFFFFFFFFFFFFFFFFFFFFCFFF983
:10267000FFFFFCFFFFFFFFFFFFFFFFFFFFFFFFFF6D
:10268000FCFFF3FFFFFC7FFFFFFFFFFFFFFFFFFFEC
:10269000FFFFFFFCFFE3FFFFFE7FFFFFFFFFFFFFEA
:1026A000FFFE000000FFFCFFE7FFFFFF3FFFFFFF13
:1026B000FFFFFFFFFE000000FFFCFFE60007FF3FFB
:1026C000FFFFFFFFFFFFFFFE000000FFFCFFCE0F3C
:1026D00087FF9FFFFFFFFFFFFFFFFE018000FFFC62
:1026E000FFCE0F83FF9FFFFFFFFFFFFFFFFE018075
:1026F00000FFFCFFCE0F83FF9FFFFFFFFFFFFFFFE9
:10270000FE018000FFFCFF9E0F83E7CFFFFFFFFF6E
:10271000FFFFFFFE01C000FFFCFF9E0FC3E7CFFFDE
:10272000FFFFFFFFFFFFFE01FF80FFFCFF9E0FC7C3
:10273000E7CFFFFFFFFFFFFFFFFE01FF80FFFCFF72
:102740009E0FC7E7CFFFFFFFFFFFFFFFFE00000068
:10275000FFFCFF9E0FFFE7CFFFFFFFFFFFFFFFFE26
:10276000000000FFFCFF9E0FFFE7CFFFFFFFFFFF12
:10277000FFFFFE007E00FFFCFF9E0FFFE7CFFFFF85
:10278000FFFFFFFFFFFE00FF00FFFCFF9E0FFFE7C4
:10279000CFFFFFFFFFFFFFFFFE01DB80FFFCFFDE3F
:1027A0000FFFFF9FFFFFFFDFFFFFFFFE019980FF8D
:1027B000FCFFCE0003FF9FFFFFFFC7FFFFFFFE01EF
:1027C0009980FFFCFFCFFFC3FF1FFFFFFFE1FFFF6B
:1027D000FFFE01DB80FFFCFFE7FFC3FF3FFFFFFFC2
:1027E000F80FFFFFFE00FF00FFFCFFE3FFC3FE7FCB
:1027F000FFFFFFF80FFFFFFE007E00FFFCFFF3FF6F
:10280000C3FC7FFFFFFFE1FFFFFFFE000000FFFCB6
:10281000FFF9FFC3FCFFFFFFFFC7FFFFFFFE000044
:1028200000FFFCFFF8FFC3F8FFFFFFFFDFFFFFFF24
:10283000FE01E000FFFCFFFE7FE7F1FFFFFFFFFF6F
:10284000FFFFFFFE01FC00FFFCFFFE1FFFC3FFFFB9
:10285000FFFFFFCFFFFFFE003F00FFFCFFFF8FFFEA
:102860008FFFFFFFFFFF0FFFFFFE000FC0FFFCFF0A
:10287000FFE0007FFFFFFFFFFC3FFFFFFE0007E0E0
:10288000FFFCFFFFFC03FFFFFFFFFFE07FFFFFFEFA
:10289000003F70FFFCFFFFFFFFFFFFFFFFFFC37F55
:1028A000FFFFFE01FC30FFFCFFFFFFFFFFFFFFFF0C
:1028B000FFC37FFFFFFE01E030FFFCFFFFFFFFFFD4
:1028C000FFFFFFFFE07FFFFFFE000000FFFCFFFFB8
:1028D000FFFFFFFFFFFFFFFC3FFFFFFE00FF80FF4A
:1028E000FCFFFFFFFFFFFFFFFFFFFF0FFFFFFE01EA
:1028F000FF80FFFCFFFFFFFFFFFFFFFFFFFFCFFF9A
:10290000FFFE01B380FFFCFFFFFFFFFFFFFFFFFFA4
:10291000FFEFFFFFFE01B980FFFCFFFFFFFFFFFF9E
:10292000FFFFFFFFEFFFFFFE019980FFFCFFFFFCB1
:1029300001FFFFFFFFFFFFEFFFFFFE01D980FFFC5C
:10294000FFFFF0003FFFFFFFFFFFEFFFFFFE00FF75
:1029500080FFFCFFFFC1FE0FFFFFFFFFC00FFFFF67
:10296000FE006F00FFFCFFFF8FFFC7FFFFFFFFC0F0
:102970000FFFFFFE000000FFFCFFFF7FFFF9FFFFDE
:10298000FFFFFFFFFFFFFE000000FFFCFFFE7FFFD9
:10299000F9FFFFFFFFFFFFFFFFFE0FFF80FFFCFFC0
:1029A000FCFFFFFCFFFFFFFFE1FFFFFFFE0FFF80CB
:1029B000FFFCFFF9FFFFFC7FFFFFFFC0FFFFFFFEF3
:1029C000000000FFFCFFF3FFFFFE7FFFFFFFDEFFC5
:1029D000FFFFFE000000FFFCFFF3FFFFFF3FFFFFD4
:1029E000FFDEFFFFFFFE007E00FFFCFFF30003FFA2
:1029F0003FFFFFFFDEFFFFFFFE00FF00FFFCFFE7E2
:102A000007C3FF9FFFFFFFDEFFFFFFFE01C380FF45
:102A1000FCFFE707C1FF9FFFFFFFC00FFFFFFE01A5
:102A20008180FFFCFFCF07C1F7DFFFFFFFC00FFF73
:102A3000FFFE018180FFFCFFCF07C1F7CFFFFFFF43
:102A4000FFFFFFFFFE01C380FFFCFFCF07C1F7CFF1
:102A5000FFFFFFFFFFFFFFFE01FFF0FFFCFFCF07BF
:102A6000C1F7CFFFFFFFE71FFFFFFE01FFF0FFFCF5
:102A7000FFCF07E3004FFFFFFFC60FFFFFFE000081
:102A800000FFFCFFCF07FF004FFFFFFFDEEFFFFF60
:102A9000FE000000FFFCFFCF07FFF7CFFFFFFFDCCA
:102AA000EFFFFFFE000000FFFCFFCF07FFF7CFFFA7
:102AB000FFFFDDEFFFFFFE000000FFFCFFCF07FF81
:102AC000F7CFFFFFFFDDEFFFFFFE000000FFFCFF81
:102AD000EF07FFF79FFFFFFFC18FFFFFFE00000022
:102AE000FFFCFFE707C7FF9FFFFFFFE39FFFFFFE1E
:102AF000000000FFFCFFE70003FF9FFFFFFFFFFF59
:102B0000FFFFFE000000FFFCFFE7FFC3FF1FFFFF0A
:102B1000FFFFFFFFFFFE006600FFFCFFF3FFC1FFAA
:102B20003FFFFFFFC00FFFFFFE00E700FFFCFFF9C4
:102B3000FFC1FE7FFFFFFFC00FFFFFFE01C380FF4D
:102B4000FCFFF9FFC1FE7FFFFFFFFFFFFFFFFE015C
:102B50008180FFFCFFFCFFC1FCFFFFFFFFFFFFFFC9
:102B6000FFFE018180FFFCFFFC7FC3F9FFFFFFFF39
:102B7000F03FFFFFFE01C380FFFCFFFF7FE3F9FF93
:102B8000FFFFFFE01FFFFFFE00FF00FFFCFFFF8FC6
:102B9000FFC7FFFFFFFFCFCFFFFFFE007E00FFFC60
:102BA000FFFFC1FE0FFFFFFFFFDFEFFFFFFE000093
:102BB00000FFFCFFFFF0003FFFFFFFFFDFEFFFFF25
:102BC000FE000000FFFCFFFFFC01FFFFFFFFFFDF37
:102BD000EFFFFFFE000000FFFCFFFFFFFFFFFFFF16
:102BE000FFFFC00FFFFFFE0DFF80FFFCFFFFFFFF99
:102BF000FFFFFFFFFFC00FFFFFFE0DFF80FFFCFF89
:102C0000FFFFFFFFFFFFFFFFFFFFFFFFFE000000D2
:102C1000FFFCFFFFFFFFFFFFFFFFFFFFFFFFFFFEC8
:102C200000CF00FFFCFFFFFFFFFFFFFFFFFFFFFFE5
:102C3000FFFFFE01DF80FFFCFFFFFFFFFFFFFFFF45
:102C4000FFFFFFFFFFFE019980FFFCFFFFFFFFFF7B
:102C5000FFFFFFFFFFFFFFFFFE019980FFFCFFFF6B
:102C6000FFFFFFFFFFFFFFFFFFFFFFFE019980FF58
:102C7000FCFFFFFFFFFFFFFFFFFFFFFFFFFFFE0166
:102C8000FB80FFFCFFFFFFFFFFFFFFFFFFF03FFFA9
:102C9000FFFE00F300FFFCFFFFFFFFFFFFFFFFFF52
:102CA000E01FFFFFFE000000FFFCFFFFFFFFFFFF34
:102CB000FFFFFFCFCFFFFFFE000000FFFCFFFFFF85
:102CC000F9FFFFFFFFFFDFEFFFFFFE01FF80FFFCCB
:102CD000FFFFFFF8FFFFFFFFFFDFEFFFFFFE01FF3A
:102CE00080FFFCFFFFFFF87FFFFFFFFFDFEFFFFF2D
:102CF000FE000380FFFCFFFFFFF91FFFFFFFFFC087
:102D00000FFFFFFE000180FFFCFFFFFFF987FFFFC1
:102D1000FFFFC00FFFFFFE000180FFFCFFFFFFF978
:102D2000E1FFFFFFFFFFFFFFFFFE000180FFFCFF51
:102D3000FFF001F0FFFFFFFFFFFFFFFFFE01FF803D
:102D4000FFFCFFFFF001FC3FFFFFFFF03FFFFFFE36
:102D500001FF00FFFCFFFFF3FFFF1FFFFFFFE01F6E
:102D6000FFFFFE000000FFFCFFFFF3FFFFC7FFFFB8
:102D7000FFCFCFFFFFFE000000FFFCFF0003FFFFBF
:102D8000C3FFFFFFDFEFFFFFFE0FFF80FFFCFF0031
:102D900003FFFF0FFFFFFFDFEFFFFFFE0FFF80FFCF
:102DA000FCFF3FF3FFFE1FFFFFFFDFEFFFFFFE070C
:102DB000C000FFFCFF3FF001F87FFFFFFFCFCFFF18
:102DC000FFFE01F000FFFCFF3FF001F1FFFFFFFFFE
:102DD000E01FFFFFFE007E00FFFCFF3FFFF9C3FF87
:102DE000FFFFFFF03FFFFFFE001F80FFFCFF000F13
:102DF000F90FFFFFFFFFFFFFFFFFFE000F80FFFC4B
:102E0000FF000FF81FFFFFFFFFF03FFFFFFE007EF8
:102E100000FFFCFF3FCFF83FFFFFFFFFE01FFFFF7A
:102E2000FE01F800FFFCFF3FCFF93FFFFFFFFFCFA0
:102E3000CFFFFFFE07C000FFFCFF200FFF3FFFFF9B
:102E4000FFFFDFEFFFFFFE0FFF80FFFCFF200FFF04
:102E50003FFFFFFFFFDFEFFFFFFE0FFF80FFFCFFE5
:102E6000200FFF3FFFFFFFFFDFEFFFFFFE0000002F
:102E7000FFFCFF200FFF3FFFFFFFFFCFCFFFFFFE55
:102E8000000000FFFCFF3FCFFF3FFFFFFFFFE01F01
:102E9000FFFFFE000000FFFCFF3FCFFF3FFFFFFFF3
:102EA000FFF03FFFFFFE000000FFFCFF3FCFFF3FB2
:102EB000FFFFFFFFFFFFFFFFFE000000FFFCFF3FE3
:102EC000CFFF3FFFFFFFFFFFFFFFFFFFFFFFFFFF02
:102ED000FCFF3FCFFF3FFFFFFFFFF63FFFFFFFFF7E
:102EE000FFFFFFFCFF3FCFFF3FFFFFFFFFE61FFF9E
:102EF000FFFFFFFFFFFFFCFF3FCFFF3FFFFFFFFF95
:102F0000CECFFFFFFFFFFFFFFFFCFF3FCFFF3FFFE5
:102F1000FFFFFFDEEFFFFFFFFFFFFFFFFCFF000FE4
:102F2000FF3FFFFFFFFFDEEFFFFFFFFFFFFFFFFCA5
:102F3000FF3FFFFF3FFFFFFFFFDFEFFFFFFFFFFF51
:102F4000FFFFFCFF3FFFFF3FFFFFFFFFCFCFFFFF74
:102F5000FFFFFFFFFFFCFF3FFFFF3FFFFFFFFFE023
:102F60001FFFFFFFFFFFFFFFFCFF0000003FFFFF11
:102F7000FFFFF03FFFFFFFFFFFFFFFFCFF00000030
:102F80003FFFFFFFFFFFFFFFFFFFFFFFFFFFFCFF14
:102F9000FFFFFFFFFFFFFFFFFFFFFFFFFFFFFFFF41
:102FA000FFFCFFFFFFFFFFFFFFFFFFFFFFFFFFFF34
:102FB000FFFFFFFFFCFFFFFFFFFFFFFFFFFFFFFF24
:102FC000FFFFFFFFFFFFFFFCFFFFFFFFFFFFFFFF14
:102FD000FFFFFFFFFFFFFFFFFFFFFCFFFFFFFFFF04
:102FE000FFFFFFFFFFFFFFFFFFFFFFFFFFFCFFFFF4
:102FF000FFFFFFFFFFFFFFFFFFFFFFFFFFFFFFFFE1
:10300000FCFFFFFFFFFFFFFFFFFFFFFFFFFFFFFFD3
:10301000FFFFFFFCFFFFFFFFFFFFFFFFFFFFFFFFC3
:10302000FFFFFFFFFFFFFCFFFFFFFFFFFFFFFFFFB3
:10303000FFFFFFFFFFFFFFFFFFFCFFFFFFFFFFFFA3
:10304000FFFFFFFFFFFFFFFFFFFFFFFFFCFFFFFF93
:10305000FFFFFFFFFFFFFFFFFFFFFFFFFFFFFFFF80
:10306000FFFFFF8000003FFFFFFFFFFFFFFFFFFFAD
:10307000FFFFFFFFFFFF8000803FFFFFFFFFFFFF1D
:10308000FFFFFFFFFFFFFFFFFF803F803FFFFFFFCE
:10309000FFFFFFFFFFFFFFFFFFFFFFFF803F803FBE
:1030A000FFFFFFFFFFFFFFFFFFFFFFFFFFFFFF80AF
:1030B00030803FFFFFFFFFFFFFFFFFFFFFFFFFFF2E
:1030C000FFFF803F803FFFFFFFFFFFFFFFFFFFFF8E
:1030D000FFFFFFFFFF803F803FFFFFFFFFFFFFFF7E
:1030E000FFFFFFFFFFFFFFFF8030803FFFFFFFFF7D
:1030F000FFFFFFFFFFFFFFFF81FFFF803F803FFFDC
:10310000FFFFFFFFFFFFFFFFFFFFFF01FFFF803F0C
:10311000803FFFFFFFFFFFFFFFFFFFFFFFFF7FFF7E
:10312000FF8020803FFFFFFFFFFFFFFFFFFFFFFF4C
:10313000FF3FFFFF8000003FFFFFFFFFFFFFFFFF9C
:10314000FFFFFFF801FFFF8000003FFFFFFFFFFFD1
:10315000FFFFFFFFFFFFF801FFFF801F003FFFFFA2
:10316000FFFFFFFFFFFFFFFFFFFFFFFFFF803F802D
:103170003FFFFFFFFFFFFFFFFFFFFFFFFFB3FFFF6B
:103180008031803FFFFFFFFFFFFFFFFFFFFFFFFFDB
:1031900021FFFF8031803FFFFFFFFFFFFFFFFFFFA9
:1031A000FFFFFF65FFFF803F803FFFFFFFFFFFFF47
:1031B000FFFFFFFFFFFF4DFFFF801F003FFFFFFFEF
:1031C000FFFFFFFFFFFFFFFFFF09FFFF8000003F42
:1031D000FFFFFFFFFFFFFFFFFFFFFFFF9BFFFF80E2
:1031E00000003FFFFFFFFFFFFFFFFFFFFFFFFFFFAD
:1031F000FFFF8010803FFFFFFFFFFFFFFFFFFFFF8C
:10320000FFFF8BFFFF8030803FFFFFFFFFFFFFFFCF
:10321000FFFFFFFFFF09FFFF8021803FFFFFFFFF50
:10322000FFFFFFFFFFFFFFFF6DFFFF803F803FFFBE
:10323000FFFFFFFFFFFFFFDFFFFFFF69FFFF801FB3
:10324000003FFFFFFFFFFFFFFFE39FFFFFFF01FFC7
:10325000FF8000003FFFFFFFFFFFFFFFC13FFFFFB9
:10326000FF83FFFF8000003FFFFFFFFFFFFFFFDC4A
:103270007FFFFFFFFFFFFF8000803FFFFFFFFFFF9B
:10328000FFFFDCFFFFFFFF7FFFFF8000803FFFFFAE
:10329000FFFFFFFFFFDDFFFFFFFF7FFFFF8000005D
:1032A0003FFFFFFFFFFFFFFFC01FFFFFFF01FFFF0B
:1032B0008000003FFFFFFFFFFFFFFFC01FFFFFFF7A
:1032C00001FFFF8020003FFFFFFFFFFFFFFFFFFF29
:1032D000FFFFFFFFFFFF803C003FFFFFFFFFFFFFFF
:1032E000FFFFFFFFFFFB7FFFFF803F003FFFFFFF70
:1032F000FFFFFFFFDDDFFFFFF801FFFF8003E03F7F
:10330000FFFFFFFFFFFFFFDDDFFFFFFC01FFFF808F
:103310003FF03FFFFFFFFFFFFFFFDDDFFFFFFF7F0E
:10332000FFFF803C103FFFFFFFFFFFFFFFDDDFFFE0
:10333000FFFF8BFFFF8020003FFFFFFFFFFFFFFF2E
:10334000C01FFFFFFF09FFFF8000803FFFFFFFFF5F
:10335000FFFFFFC01FFFFFFF6DFFFF803F803FFFAC
:10336000FFFFFFFFFFFFFFFFFFFFFF69FFFF803F42
:10337000803FFFFFFFFFFFFFFFFFFFFFFFFF01FF9A
:10338000FF8024803FFFFFFFFFFFFFFFE3FFFFFF02
:10339000FF83FFFF8037803FFFFFFFFFFFFFFFC17D
:1033A000FFFFFFFFFFFFFF8013803FFFFFFFFFFFD7
:1033B000FFFFDDFFFFFFFC3DFFFF8000003FFFFF41
:1033C000FFFFFFFFFFDDFFFFFFF801FFFF80008031
:1033D0003FFFFFFFFFFFFFFFC01FFFFFFBC3FFFF1C
:1033E00081FF803FFFFFFFFFFFFFFFC01FFFFFFBCD
:1033F000CFFFFF81FF803FFFFFFFFFFFFFFFFFFFCA
:10340000FFFFF801FFFF8100803FFFFFFFFFFFFF8D
:10341000FFFF9FFFFFF801FFFF8000003FFFFFFF5E
:10342000FFFFFFFFFC1FFFFFFFFFFFFF8000003FCC
:10343000FFFFFFFFFFFFFFE07FFFFFFFFFFFFF80BA
:103440001F003FFFFFFFFFFFFFFFC6FFFFFFFFFF64
:10345000FFFF803F803FFFFFFFFFFFFFFFC6FFFF33
:10346000FFFFFFFFFF8020803FFFFFFFFFFFFFFF09
:10347000E07FFFFFFFFFFFFF8031903FFFFFFFFF77
:10348000FFFFFFFC1FFFFFFFFFFFFF803FF03FFF3D
:10349000FFFFFFFFFFFFFF9FFFFFFFFFFFFF803FDB
:1034A000F03FFFFFFFFFFFFFFFFFFFFFFFF801FF00
:1034B000FF8020103FFFFFFFFFFFFFFFE3FFFFFF45
:1034C000F801FFFF8000003FFFFFFFFFFFFFFFC18C
:1034D000FFFFFFFFFFFFFF8013003FFFFFFFFFFF26
:1034E000FFFFDDFFFFFFFF81FFFF8037803FFFFF12
:1034F000FFFFFFFFFFDDFFFFFFFF01FFFF802480D5
:103500003FFFFFFFFFFFFFFFC01FFFFFFF59FFFF50
:10351000803D803FFFFFFFFFFFFFFFC01FFFFFFF5A
:103520004DFFFF8019003FFFFFFFFFFFFFFFFFFF81
:10353000FFFFFF21FFFF8000003FFFFFFFFFFFFFB6
:10354000FFFFFFFFFFFFB3FFFF8000803FFFFFFF94
:10355000FFFFFFFFFEFFFFFFFFFFFFFF80BF803F7A
:10356000FFFFFFFFFFFFFFFEFFFFFFFFFFFFFF80EB
:10357000BF803FFFFFFFFFFFFFFFFEFFFFFFF901DF
:10358000FFFF8020803FFFFFFFFFFFFFFFFEFFFFE9
:10359000FFF901FFFF8000003FFFFFFFFFFFFFFF7C
:1035A000FFFFFFFFFFFFFFFF8000803FFFFFFFFFE8
:1035B000FFFFFFDDDFFFFFFF7DFFFF81FF803FFF9C
:1035C000FFFFFFFFFFFFDDDFFFFFFC01FFFF81FFCC
:1035D000803FFFFFFFFFFFFFFFDDDFFFFFFC01FF7D
:1035E000FF8131803FFFFFFFFFFFFFFFDDDFFFFFB8
:1035F000FF7FFFFF8020803FFFFFFFFFFFFFFFC037
:103600001FFFFFFF7FFFFF803F803FFFFFFFFFFFA8
:10361000FFFFC01FFFFFFF7FFFFF801F003FFFFF77
:10362000FFFFFFFFFFFFFFFFFFFF01FFFF80000025
:103630003FFFFFFFFFFFFFFFFFFFFFFFFF01FFFF58
:103640008000003FFFFFFFFFFFFFFFFFFFFFFFFFC7
:10365000FFFFFF8004003FFFFFFFFFFFFFFFFFFFB3
:10366000FFFFFF81FFFF8004003FFFFFFFFFFFFF21
:10367000FFFFFFFFFFFF01FFFF8004003FFFFFFF91
:10368000FFFFFFFFFFFFFFFFFF59FFFF8000003F2D
:10369000FFFFFFFFFFFFFFC01FFFFFFF4DFFFF808A
:1036A00000803FFFFFFFFFFFFFFFC01FFFFFFF2165
:1036B000FFFF81FF803FFFFFFFFFFFFFFFFDFFFFD9
:1036C000FFFFB3FFFF81FF803FFFFFFFFFFFFFFF13
:1036D000FDFFFFFFFFFFFFFF8131803FFFFFFFFF87
:1036E000FFFFFFFDFFFFFFFC3FFFFF8020803FFF4C
:1036F000FFFFFFFFFFFFC01FFFFFF81FFFFF803F1F
:10370000803FFFFFFFFFFFFFFFC01FFFFFFBDFFF4B
:10371000FF801F003FFFFFFFFFFFFFFFFFFFFFFFD7
:10372000FBDFFFFF8000003FFFFFFFFFFFFFFFFF0A
:10373000FFFFFFF801FFFF8000003FFFFFFFFFFFDB
:10374000FFFFE73FFFFFF801FFFF801F003FFFFF84
:10375000FFFFFFFFFFC71FFFFFFFFFFFFF803F804F
:103760003FFFFFFFFFFFFFFFDFDFFCF7FFFFFFFF74
:103770008031803FFFFFFFFFFFFFFFDFDFF877FFB4
:10378000FFFFFF8031803FFFFFFFFFFFFFFFCF9F65
:10379000F337FFFFFFFF803F803FFFFFFFFFFFFF8B
:1037A000FFE03FF797FFFFFFFF801F003FFFFFFF96
:1037B000FFFFFFFFF07FF1C7FFFFFFFF8000003F2B
:1037C000FFFFFFFFFFFFFFFFFFF9E7FF7DFFFF8028
:1037D00000003FFF00000003FFFFFFFFFFFFFC01B1
:1037E000FFFF801F003FFF00000003FFFFC01FF727
:1037F0009FFC01FFFF803F803FFF00000003FFFFB1
:10380000C01FF70FFF7FFFFF8031803FFF000000E8
:1038100003FFFFFE3FF667FF7FFFFF8031803FFF22
:1038200000000003FFFFF8FFF2F7FF7FFFFF803F7C
:10383000803FFF00000003FFFFE1FFF047FF01FFB3
:10384000FF801F003FFF007FFF83FFFFC01FFC4F73
:10385000FF01FFFF8000003FFF007FFF83FFFFC0ED
:103860001FFFFFFFFFFFFF8000003FFF007FFF8380
:10387000FFFFFFFFFFFFFF83FFFF8020E03FFF0010
:103880007FFF83FFFFFFFFFFFFFF01FFFF803CF093
:103890003FFF00780783FFFFC01FF007FF39FFFFDE
:1038A000803E903FFF00780783FFFFC01FF007FFB7
:1038B00039FFFF8022903FFF00780783FFFFFFFF63
:1038C000F9FFFF01FFFF803FF03FFF00780783FF14
:1038D000FFFFFFFDFFFF83FFFF801DE03FFF00783C
:1038E0000783FFFFFFFFFFFFFFFFFFFF8000003F99
:1038F000FF00780783FFFFFFFFFDF7FF83FFFF80D7
:1039000000003FFF00780783FFFFFFFFFC47FF0138
:10391000FFFF8000803FFF00780783FFFFFFFFFE6F
:103920000FFF3DFFFF8000803FFF0F01E003FFFF1F
:10393000FF7FFE0FFF39FFFF8000003FFF0F01E018
:1039400003FFFFC01FFC47FF003FFF8020003FFF39
:103950000F01E003FFFFC01FFDF7FF003FFF803EA8
:10396000003FFF0F01E003FFFFE37FFFFFFFFFFFCB
:10397000FF803F803FFF0F01E783FFFFF87FFCF7E9
:10398000FF83FFFF800F803FFF0F01E783FFFFFEF4
:103990007FF877FF01FFFF803E003FFF0F01E783C5
:1039A000FFFFFFFFF337FF3DFFFF803E003FFF0FAC
:1039B00001E783FFFFDE7FF797FF39FFFF800F806E
:1039C0003FFF0FFFE783FFFFDC3FF1C7FF003FFF33
:1039D000803F803FFF0FFFE783FFFFD99FF9E7FF9D
:1039E000003FFF803E003FFF0FFFE783FFFFCBDF7D
:1039F000FFFFFFFFFFFF8020003FFF0FFFE783FF78
:103A0000FFC11FF79FFF01FFFF8020003FFF000065
:103A10000783FFFFF13FF70FFF01FFFF803E003FED
:103A2000FF00000783FFFFFFFFF667FFF9FFFF803E
:103A30003F803FFF00000783FFFFFFDFF2F7FFFD3E
:103A4000FFFF800F803FFF007FFF83FFFFFFDFF05E
:103A500047FF01FFFF803E003FFF007FFF83FFFF26
:103A6000FFFFFC4FFF03FFFF803E003FFF007FFF93
:103A700083FFFFFFFFFFFFFFFFFFFF800F803FFF80
:103A8000007FFF83FFFFFFFFFFFFFDC3FFFF803FBE
:103A9000803FFF007FFF83FFFFFFFFFFFFF9C1FFB4
:103AA000FF803E003FFF00000003FFFFC01FF00744
:103AB000FB9DFFFF8020003FFF00000003FFFFC0D1
:103AC0001FF007FB1DFFFF8020003FFF00000003E9
:103AD000FFFFE7FFF9FFF839FFFF803E003FFF00DF
:103AE000000003FFFFF7FFFDFFFC7BFFFF803F802F
:103AF0003FFF00000003FFFFFFFFFFFFFFFFFFFF8F
:103B0000800F803FFF00000003FFFFFFFFFFFFFF6C
:103B1000FFFFFF803E003FFFFFFFFFFFFFFFFFFFB4
:103B2000FFFFFFFFFFFF803E003FFFFFFFFFFFFFA4
:103B3000FFFFFFFFFFFFFFFFFF800F803FFFFFFF43
:103B4000FFFFFFFFFFFFFFFFFFFFFFFF803F803F03
:103B5000FFFFFFFFFFFFFFFFFFFFFFFFFFFFFF80F4
:103B60003E003FFFFFFFFFFFFFFFFFFFFFFFFFFFE5
:103B7000FFFF8020003FFFFFFFFFFFFFFFFFFFFF72
:103B8000FFFFFFFFFF8000003FFFFFFFFFFFFFFF82
:103B9000FFFFFFFFFFFFFFFF8000003FFFFFFFFF72
:103BA000FFFFFFFFFFFFFFFFFFFFFFFFFFFFFFFF25
:103BB000FFFFFFFFFFFFFFFFFFFFFFFFFFFFFFFF15
:103BC000FFFFFFFFFFFFFFFFFFFFFFFFFFFFFFFF05
:103BD000FFFFFFFFFFFFFFFFFFFFFFFFFFFFFFFFF5
:103BE000FFFFFFFFFFFFFFFFFFFFFFFFFFFFFFFFE5
:103BF000FFFFFFFFFFFFFFFFFFFFFFFFFFFFFFFFD5
:103C0000FFFFFFFFFFFFFFFFFFFFFFFFFFFFFFFFC4
:103C1000FFFFFFFFFFFFFFFFFFFFFFFFFFFFFFFFB4
:103C2000FFFFFFFFFFFFFFFFFFFFFFFFFFFFFFFFA4
:103C3000FFFFFFFFFFFFFFFFFFFFFFFFFFFFFFFF94
:103C4000FFFFFFFFFFFFFFFFFFFFFFFFFFFFFFFF84
:103C5000FFFFFFFFFFFFFFFFFFFFFFFFFFFFFFFF74
:103C6000FFFFFFFFFFFFFFFFFFFFFFFFFFFFFFFF64
:103C7000FFFFFFFFFFFFFFFFFFFFFFFFFFFFFFFF54
:103C8000FFFFFFFFFFFFFFFFFFFFFFFFFFFFFFFF44
:103C9000FFFFFFFFFFFFFFFFFFFFFFFFFFFFFFFF34
:103CA000FFFFFFFFFFFFFFFFFFFFFFFFFFFFFFFF24
:103CB000FFFFFFFFFFFFFFFFFFFFFFFFFFFFFFFF14
:103CC000FFFFFFFFFFFFFFFF00000FFFFFFFFFFFF2
:103CD000FFFFFFFFFFF0000000000700000FFFFFE5
:103CE000FFFFFFFFFFFFFFFFF000000000070000E5
:103CF0008FFFFFFFFFFFFFFFFFFFFFFFFFFFFFFF44
:103D0000FF06008FFFFFFFFFFFFFFFFFFFFFF00039
:103D10000000000706008FFFFFFFFFFFFFFFFFFF10
:103D2000FFFFFFFFFFFFFF07008FFFFFFFFFFFFF0A
:103D3000FFFFFFF7FFFFFFFFFFFF00CC8FFFFFFF3D
:103D4000FFFFFFFFFFFFE7FFFFFFFFFFFF00FC8F0D
:103D5000FFFFFFFFFFFFFFFFFFEFFFFFFFFFFFFF83
:103D600001FC8FFFFFFFFFFFFFFFFFFFE81FFFFFCB
:103D7000FFFFFF07CC8FFFFFFFFFFFFFFFFFFFE30A
:103D800080000000000707808FFFFFFFFFFFFFFF9D
:103D9000FFE3FE0FFFFFFFFFFF06008FFFFFFFFFA8
:103DA000FFFFFFFFC06000000000000706008FFF5C
:103DB000FFFFFFFFFFFFFC004007FFFFFFFFFF00CB
:103DC0000C8FFFFFFFFFFFFFFFFE00000000000061
:103DD0000007000C8FFFFFFFFFFFFFFFFF800000C9
:103DE0000000000007007C8FFFFFFFFFFFFFF8FFD0
:103DF000C00000000000000703EC8FFFFFFFFFFF83
:103E0000FFF07FC0000FFFFFFFFFFF070C8FFFFFDA
:103E1000FFFFFFFFE03FE0000FFFFFFFFFFF070C8A
:103E20008FFFFFFFFFFFFFE01FE00F80000000009B
:103E30000707EC8FFFFFFFFFFFFFF00FC00F8000B1
:103E40000000000700FC8FFFFFFFFFFFFFF8078067
:103E500000000000000007000C8FFFFFFFFFFFFFC6
:103E6000F00F10000FFFFFFFFFFF000C8FFFFFFFA1
:103E7000FFFFFFE01FF8000FFFFFFFFFFF00008FB5
:103E8000FFFFFFFFFFFFE03FF8001FFFFFFFFFFF07
:103E9000003C8FFFFFFFFFFFFFF07FF800000000F6
:103EA000000007003C8FFFFFFFFFFFFFF8FFF0005F
:103EB000000000000007000C8FFFFFFFFFFFFFFF67
:103EC000FFF2180FFFFFFFFFFF000C8FFFFFFFFF48
:103ED000FFFFFFFFE73F0FFFFFFFFFFF060C8FFF16
:103EE000FFFFFFFFFFFFFFFFFFE8000000000706E6
:103EF0000C8FFFFFFFFFFFFFFFFFFFFFDFFFFFFF55
:103F0000FFFF07FC8FFFFFFFFFFFFFFFFFFFC09FCB
:103F1000FFFFFFFFFF07FC8FFFFFFFFFFFFFFFFF1C
:103F2000FFDF3FFFFFFFFFFF060C8FFFFFFFFFFFDD
:103F3000FFFFFFFFDFF0000000000700008FFFFF22
:103F4000FFFFFFFFFFFFFFC3F000000000070100BD
:103F50008FFFFFFFFFFFFFFFFFFFFBF000000000F0
:103F60000707808FFFFFFFFFFFFFFFFFFFFFFFFF40
:103F7000FFFFFFFF07C08FFFFFFFFFFFFFFFFFFFF8
:103F8000FFF0000000000707C08FFFFFFFFFFFFFEB
:103F9000FFFFFFFFF0000000000706C08FFFFFFFDC
:103FA000FFFFFFFFFFFFFFFFFFFFFFFFFF06CC8FBD
:103FB000FFFFFFFFFFFFFFFFFFFFFFFFFFFFFFFF11
:103FC00007FC8FFFFFFFFFFFFFFFFFFFFFFFFFFF6C
:103FD000FFFFFF07FC8FFFFFFFFFFFFFFFFFFFFF5C
:103FE000F00000000007060C8FFFFFFFFFFFFFFF40
:103FF000FFFFFFFFFFFFFFFFFF00008FFFFFFFFF3F
:10400000FFFFFFFFFFFFFFFFFFFFFFFF00008FFF2E
:10401000FFFFFFFFFFFFFFFFFFF0000000000707AB
:10402000788FFFFFFFFFFFFFFFFFFFFFF0000000A3
:10403000000706FC8FFFFFFFFFFFFFFFFFFFFFFFF3
:10404000FFFFFFFFFF06EC8FFFFFFFFFFFFFFFFFFC
:10405000FFFFFFFFFFFFFFFF06EC8FFFFFFFFFFFEC
:10406000FFFFFFFFFFFFFFFFFFFFFF06EC8FFFFFDC
:10407000FFFFFFFFFFFFFFFFF0000000000707EC5E
:104080008FFFFFFFFFFFFFFFFFFFFFF000000000BB
:104090000707CC8FFFFFFFFFFFFFFFFFFFFFFFFFC3
:1040A000FFFFFFFF019C8FFFFFFFFFFFFFFFFFFFF1
:1040B000FFFFFFFFFFFFFF00008FFFFFFFFFFFFF7E
:1040C000FFFFFFFFF00000000007060C8FFFFFFF5F
:1040D000FFFFFFFFFFFFFFFFFFFFFFFFFF07FC8F5B
:1040E000FFFFFFFFFFFFFFFFFFFFFFFFFFFFFFFFE0
:1040F00007FC8FFFFFFFFFFFFFFFFFFFFFF0000048
:10410000000007060C8FFFFFFFFFFFFFFFFFFFFF11
:10411000FFFFFFFFFFFF00008FFFFFFFFFFFFFFF1D
:10412000FFFFFFF0000000000700F08FFFFFFFFF20
:10413000FFFFFFFFFFFFFFFFFFFFFFFF03F88FFF02
:10414000FFFFFFFFFFBFFFFFFFF0000000000707BA
:10415000FC8FFFFFFFFFFFFFBFFFFEFFFFFFFFFF23
:10416000FFFF071C8FFFFFFFFFFFFF3FFFF8FFFF71
:10417000FFFFFFFFFF060C8FFFFFFFFFFFFE3FFF6C
:10418000C000000000000007060C8FFFFFFFFFFFCC
:10419000FE3FFC00FFFFFFFFFFFFFF07FC8FFFFF5D
:1041A000FFFFFFFC3F8000FFFFFFFFFFFFFF07FC5B
:1041B0008FFFFFFFFFFFFC000000FFFFFFFFFFFF7F
:1041C000FF060C8FFFFFFFFFFFFFFF8000FFFFFFD9
:1041D000FFFFFFFF00008FFFFFFFFFFFFFFFFC005F
:1041E000FFFFFFFFFFFFFF00008FFFFFFFFFFFFF4D
:1041F000FFFFC00000000000000700008FFFFFDF8E
:10420000FFFFFFBFFFF80000000000000700008F65
:10421000FFFF9FFFFFFE3FFFFEFFFFFFFFFFFFFFD0
:1042200000008FFFFF1FFFFFF800000000000000EC
:1042300000000700F08FFFFF1FFFFF80000000005D
:1042400000000000000703F88FFFFE1FFFFE0000C4
:1042500000000000000000000707FC8FFFFC1FFFAC
:10426000F8003FFFFFFFFFFFFFFFFFFF071C8FFF6F
:10427000FC1FFFC0003C01FFFFFFFFFFFFFFFF0629
:104280000C8FFFF81FFE00003049FFE00000000027
:104290000007060C8FFFF81FF800003349FFC0002D
:1042A000000000000707FC8FFFF80000000020015D
:1042B000FF87FFFFFFFFFFFF07FC8FFFFFFFF800F7
:1042C000002001FF8FFFFFFFFFFFFF060C8FFFFFA6
:1042D000FFFE00003349FF870000000000070000D8
:1042E0008FFFFFFFFFC0003049FF8000000000008B
:1042F0000701F08FFFFFFFFFF8003C01FFE0000027
:104300000000000703F88FFFFFFFFFFF003FFFFFE4
:10431000FFFFFFFFFFFFFF07FC8FFFFFFFFFFFE037
:1043200000000000000000000007070C8FFFFFFFE7
:10433000FFFFF800000000000000000007060C8FDF
:10434000FFFFFFFFFFFE3FFF7FFFFFFFFFFFFFFFBE
:10435000071C8FFFFFFFFFFFFFBFF07FFFFFFFFF87
:10436000FFFFFF07FC8FFFFFFFFFFFFFFF80000045
:1043700000000000000703F88FFFFFFFFFFFFFFCB6
:1043800000000000000000000701F08FFFFFFFFFAA
:10439000FFFFBF80000000000000000700008FFF4B
:1043A000FFFFFFFFFFBFF878FFFFFFFFFFFFFF01E9
:1043B000F08FFFFFFFFFFFFF3FFF40FFFFFFFFFF0B
:1043C000FFFF03F88FFFFFFFFFFFFE3FFF800000AE
:1043D000000000000707FC8FFFFFFFFFFFFE3FF814
:1043E0000000000000000007070C8FFFFFFFFFFF29
:1043F000FC3FC00000000000000007060C8FFFFF1C
:10440000FFFFFFFC000000FFFFFFFFFFFFFF071C97
:104410008FFFFFFFFFFFFFFFC000FFFFFFFFFFFF5A
:10442000FF07FC8FFFFFFFFFFFFFFFF800FFFFFF0D
:10443000FFFFFFFF03F88FFFFFFFFFFFFFFFFF807E
:104440000000000000000701F08FFFFFFFFFFFFFEB
:10445000FFFFC0FFFFFFFFFFFFFF00008FFFFFFF19
:10446000FFFFFFFFFFF8FFF0000000000700008FD4
:10447000FFFFFFFFFFFFFFEFFFFFF000000000075F
:1044800000608FFFFFFFFFFFFFFFCFFFFE70000008
:10449000000007077C8FFFFFFFFFFFFFFF8FFFF884
:1044A0007FFFFFFFFFFF03788FFFFFFFFFFFFFFF8F
:1044B0008FFFC0000000000007066C8FFFFFFFFFAA
:1044C000FFFFFF0FFE007FFFFFFFFFFF066C8FFF68
:1044D000FFFFFFFFFFFF0FF8007FFFFFFFFFFF065B
:1044E0000C8FFFFFFFFFFFFFFE0000007FFFFFFFBD
:1044F000FFFF071C8FFFFFFFFFFFFFFE0000000014
:10450000000000000707FC8FFFFFFFFFFFFFFFFF1A
:10451000F80000000000000703F88FFFFFFFFFFF17
:10452000FFFFFFFF007FFFFFFFFFFF01F08FFFFF97
:10453000FFFFFFFFFFFFFFE000000000000700009B
:104540000FFFFFFFFFFFFFFFFFFFFC000000000069
:104550000700000FFFFFFFFFFFFFFFFFFFFE7FFFD2
:10456000FFFFFFFF00000FFFFFFFFFFFFFFFFFFF49
:10457000FFFFFFFFFFFFFFFFFFFFFFFFFFFFFFFF4B
:10458000FFFFFFFFFFFFFFFFFFFFFFFFFFFFFFFF3B
:10459000FFFFFFFFFFFFFFFFFFFFFFFFFFFFFFFF2B
:1045A000FFFFFFFFFFFFFFFFFFFFFFFFFFFFFFFF1B
:1045B000FFFFFFFFFFFFFFFFFFFFFFFFFFFFFFFF0B
:1045C000FFFFFFFFFFFFFFFFFFFFFFFFFFFFFFFFFB
:1045D000FFFFFFFFFFFFFFFFFFFFFFFFFFFFFFFFEB
:1045E000FFFFFFFFFFFFFFFFFFFFFFFFFFFFFFFFDB
:1045F000FFFFFFFFFFFFFFFFFFFFFFFFFFFFFFFFCB
:10460000FFFFFFFFFFFFFFFFFFFFFFFFFFFFFFFFBA
:10461000FFFFFFFFFFFFFFFFFFFFFFFFFFFFFFFFAA
:10462000FFFFFFFFFFFFFFFFFFFFFFFFFFFFFFFF9A
:10463000FFFFFFFFFFFFFFFFFFFFFFFFFFFFFFFF8A
:10464000FFFFFFFFFFFFFFFFFFFFFFFFFFFFFFFF7A
:10465000FFFFFFFFFFFFFFFFFFFFFFFFFFFFFFFF6A
:10466000FFFFFFFFFFFFFFFFFFFFFFFFFFFFFFFF5A
:10467000FFFFFFFFFFFFFFFFFFFFFFFFFFFFFFFF4A
:10468000FFFFFFFFFFFFFFFFFFFFFFFFFFFFFFFF3A
:10469000FFFFFFFFFFFFFFFFFFFFFFFFFFFFFFFF2A
:1046A000FFFFFFFFFFFFFFFFFFFFFFFFFFFFFFFF1A
:1046B000FFFFFFFFFFFFFFFFFFFFFFFFFFFFFFFF0A
:1046C000FFFFFFFFFFFFFFFFFFFFFFFFFFFFFFFFFA
:1046D000FFFFFFFFFFFFFFFFFFFFFFFFFFFFFFFFEA
:1046E000FFFFFFFF0000000000000000202020204E
:1046F0000020000050500000000000002850F8503A
:10470000F850A00020306030106020002020186099
:104710001010000000382060507800002020200099
:104720000000000010202020202010004020202029
:10473000202040002070205000000000002020F8C1
:104740002020000000000000102020000000007069
:1047500000000000000000000020000010202020C9
:104760004040800020505050502000006020202009
:1047700020F8000020502020407000002050102021
:104780001060000010305078103800007040601049
:1047900050200000304060505060000070501020E9
:1047A0002020000020502050502000003050503079
:1047B0001060000000002000002000000000100039
:1047C00010200000001020C02010000000700070B9
:1047D0000000000000402018204000002050102061
:1047E0000020000030484858484038006020507091
:1047F00088D80000F048704848F0000070504040F1
:1048000040300000F048484848F00000F848604058
:1048100048F80000F848604040E000007040405810
:1048200050300000E848784848E800007020202018
:10483000207000003810105050200000D8506070D8
:1048400050D80000E040404048F80000D8D8D8A830
:1048500088D80000D868685858E8000030484848B0
:1048600048300000F048487040E0000030484848B8
:1048700048301800F048487048E800007050201098
:1048800050700000F8A8202020700000D848484848
:1048900048300000D888485050300000D888A8A878
:1048A000A8500000D850202050D80000D8885020B0
:1048B0002070000078481020487800003020202028
:1048C0002020300080404020202010006020202048
:1048D00020206000202050000000000000000000A8
:1048E000000000F820100000000000000000301060
:1048F00070780000C040704848F000000000704030
:1049000040700000180838484838000000007070F7
:104910004030000010207020207000000000384857
:1049200048380830C040704848E800002000602047
:10493000207000002000701010101070C0405870DF
:1049400050D8000060202020207000000000D0A877
:10495000A8A800000000F04848C800000000304847
:10496000483000000000F048487040E0000038483F
:10497000483808180000782020700000000030201F
:10498000106000000040F040483000000000D848AF
:10499000483800000000C848303000000000D8A8A7
:1049A000A850000000004830304800000000D850F7
:1049B00050202060000078502878000010202060EF
:1049C0002020100020202020202020004020203007
:1049D00020204000000000285000000000000000DF
:1049E0000000000000000000001010101010000077
:1049F00010000000006C48480000000000000000AB
:104A0000001414287C287C285050000000103840E6
:104A10004038487010100000002050200C7008141E
:104A20000800000000000018202054483400000056
:104A30000010101010000000000000000008081016
:104A40001010101010080800002020101010101076
:104A50001020200000107C1028280000000000001A
:104A60000000101010FE10101000000000000000E8
:104A7000000000181030200000000000007C000042
:104A800000000000000000000000003030000000C6
:104A9000000404080810102020400000003844449E
:104AA000444444443800000000301010101010102E
:104AB0007C00000000384404081020447C00000002
:104AC000003844041804044438000000000C141496
:104AD00024447E040E000000003C202038040444DE
:104AE00038000000001C2040784444443800000096
:104AF000007C4404080808101000000000384444FA
:104B0000384444443800000000384444443C04081D
:104B10007000000000000030300000303000000065
:104B200000000018180000183020000000000C10D1
:104B3000608060100C000000000000007C007C0021
:104B4000000000000000C02018041820C000000071
:104B50000000182404081000300000003844444CC1
:104B600054544C40443800000030102828287C441D
:104B7000EE00000000F8444478444444F80000008B
:104B8000003C4440404040443800000000F04844AD
:104B900044444448F000000000FC4450705040443D
:104BA000FC000000007E2228382820207000000031
:104BB000003C4440404E44443800000000EE444471
:104BC0007C444444EE000000007C101010101010D3
:104BD0007C000000003C08080848484830000000FD
:104BE00000EE444850704844E60000000070202069
:104BF000202024247C00000000EE6C6C54544444BB
:104C0000EE00000000EE64645454544CEC000000CC
:104C100000384444444444443800000000782424CC
:104C200024382020700000000038444444444444A8
:104C3000381C000000F8444444784844E200000076
:104C400000344C40380404645800000000FE921008
:104C5000101010103800000000EE44444444444456
:104C60003800000000EE44442828281010000000FE
:104C700000EE4444545454542800000000C6442814
:104C800010102844C600000000EE44282810101020
:104C900038000000007C4408101020447C00000014
:104CA0000038202020202020202038000040202014
:104CB0002010100808080000003808080808080834
:104CC0000808380000101028440000000000000010
:104CD0000000000000000000000000FE00100800BE
:104CE000000000000000000000000038443C444484
:104CF0003E00000000C0405864444444F8000000F6
:104D00000000003C4440404438000000000C0434E3
:104D10004C4444443E00000000000038447C4040C5
:104D20003C000000001C207C202020207C00000093
:104D3000000000364C4444443C04380000C0405855
:104D400064444444EE000000001000701010101085
:104D50007C000000001000780808080808087000AF
:104D600000C0405C48705048DC000000003010106B
:104D7000101010107C000000000000E8545454543F
:104D8000FE000000000000D864444444EE0000002F
:104D9000000000384444444438000000000000D8BB
:104DA000644444447840E000000000364C444444ED
:104DB0003C040E000000006C302020207C0000002D
:104DC0000000003C44380444780000000000207CCF
:104DD000202020221C000000000000CC4444444C51
:104DE00036000000000000EE4444282810000000B7
:104DF000000000EE4454545428000000000000CC91
:104E000048303048CC000000000000EE4424281850
:104E1000101078000000007C481020447C00000046
:104E200000081010101020101010080000101010B2
:104E3000101010101010000000201010101008109A
:104E400010102000000000000024580000000000A6
:104E50000000000000000000000000000000000052
:104E60000000000000000000000000000000000042
:104E700000000C000C000C000C000C000C000C00DE
:104E80000C0000000C00000000000000000000000A
:104E9000000000001DC01DC00880088008800000C0
:104EA0000000000000000000000000000000000002
:104EB00000000D800D800D800D803FC01B003FC0A5
:104EC0001B001B001B001B00000000000000000076
:104ED00004001F803180318038001E000F000380E5
:104EE000318031803F000400040000000000000019
:104EF000000018002400240018C007801E00318024
:104F0000024002400180000000000000000000009C
:104F1000000000000F001800180018000C001D8091
:104F2000370033001D80000000000000000000007A
:104F3000000000000700070002000200020000005D
:104F40000000000000000000000000000000000061
:104F500000000300030006000E000C000C000C0013
:104F60000C000E000600030003000000000000001B
:104F70000000180018000C000600060006000600DD
:104F8000060006000C001C001800000000000000D5
:104F90000000060006003FC03FC00F001F801980C0
:104FA0000000000000000000000000000000000001
:104FB0000000000000000400040004003F80040022
:104FC00004000400000000000000000000000000D9
:104FD00000000000000000000000000000000000D1
:104FE0000000060004000C0008000800000000009B
:104FF0000000000000000000000000003F800000F2
:1050000000000000000000000000000000000000A0
:105010000000000000000000000000000000000090
:1050200000000C000C000000000000000000000068
:1050300000C000C0018001800300030006000C00D6
:105040000C001800180030003000000000000000C4
:1050500000000E001B0031803180318031803180B2
:1050600031801B000E000000000000000000000066
:10507000000006003E0006000600060006000600CE
:10508000060006003FC00000000000000000000015
:1050900000000F00198031803180030006000C00F1
:1050A000180030003F8000000000000000000000F9
:1050B00000003F006180018003001F000380018029
:1050C000018061803F00000000000000000000003F
:1050D0000000070007000F000B001B001300330047
:1050E0003F8003000F80000000000000000000006F
:1050F00000001F801800180018001F001180018098
:10510000018021801F00000000000000000000005E
:10511000000007801C001800300037003980318003
:10512000318019800F000000000000000000000026
:1051300000007F0043000300060006000600060092
:105140000C000C000C00000000000000000000003B
:1051500000001F003180318031801F00318031809C
:10516000318031801F0000000000000000000000BE
:1051700000001E0033003180318033801D800180AB
:10518000030007003C0000000000000000000000D9
:1051900000000000000000000C000C0000000000F7
:1051A00000000C000C0000000000000000000000E7
:1051B00000000000000000000300030000000000E9
:1051C00000000600040008000800000000000000C5
:1051D0000000000000C00300040018006000180078
:1051E0000400030000C000000000000000000000F8
:1051F000000000000000000000007FC000007FC031
:10520000000000000000000000000000000000009E
:1052100000000000600018000400030000C003004C
:105220000400180060000000000000000000000002
:10523000000000001F0031803180018007000C0059
:105240000C0000000C000000000000000000000046
:1052500000000E0011002100210027002900290074
:105260002700200011000E000000000000000000D8
:10527000000000003F000F000900198019801F8006
:1052800030C030C079E000000000000000000000E5
:10529000000000007F003180318031803F0031808C
:1052A000318031807F00000000000000000000001D
:1052B000000000001F4030C06040600060006000DF
:1052C000604030801F00000000000000000000006F
:1052D000000000007F00318030C030C030C030C0DE
:1052E00030C031807F00000000000000000000009E
:1052F000000000007F803080308032003E003200AD
:10530000308030807F80000000000000000000003E
:10531000000000007FC03040304032003E003200CC
:10532000300030007C0000000000000000000000A1
:10533000000000001E80318060806000600067C057
:10534000618031801F0000000000000000000000AC
:10535000000000007BC03180318031803F8031808F
:10536000318031807BC000000000000000000000A0
:10537000000000003FC00600060006000600060010
:10538000060006003FC00000000000000000000012
:10539000000000001FC003000300030003006300BF
:1053A000630063003E0000000000000000000000F9
:1053B000000000007BC03180330036003C003E001E
:1053C0003300318079C000000000000000000000C0
:1053D000000000007E001800180018001800184097
:1053E000184018407FC000000000000000000000CE
:1053F00000000000E0E060C071C07BC06AC06EC009
:1054000064C060C0FBE0000000000000000000007D
:105410000000000073C0318039803D8035803780C6
:10542000338031807980000000000000000000001F
:10543000000000001F00318060C060C060C060C01C
:1054400060C031801F00000000000000000000006C
:10545000000000007F0031803180318031803F00CA
:10546000300030007E00000000000000000000005E
:10547000000000001F00318060C060C060C060C0DC
:1054800060C031801F000CC01F80000000000000C1
:10549000000000007F003180318031803E00330009
:1054A000318031807CE0000000000000000000003E
:1054B000000000001F803180318038001F00038011
:1054C000318031803F00000000000000000000003B
:1054D000000000007F804C804C804C800C000C0051
:1054E0000C000C003F000000000000000000000065
:1054F000000000007BC031803180318031803180FC
:10550000318031801F00000000000000000000001A
:10551000000000007BC0318031801B001B001B009D
:105520000A000E000E000000000000000000000055
:1055300000000000FBE060C064C06EC06EC02A8046
:105540003B803B8031800000000000000000000034
:10555000000000007BC031801B000E000E000E001A
:105560001B0031807BC00000000000000000000034
:105570000000000079E030C019800F00060006002E
:10558000060006001F800000000000000000000070
:10559000000000003F8021802300060004000C0072
:1055A000188030803F8000000000000000000000F4
:1055B0000000078006000600060006000600060040
:1055C000060006000600060007800000000000003C
:1055D00030003000180018000C000C00060003001A
:1055E00003000180018000C000C000000000000036
:1055F00000001E0006000600060006000600060069
:1056000006000600060006001E0000000000000064
:1056100004000A000A001100208020800000000021
:10562000000000000000000000000000000000007A
:10563000000000000000000000000000000000006A
:105640000000000000000000000000000000FFE07B
:10565000080004000200000000000000000000003C
:10566000000000000000000000000000000000003A
:1056700000000000000000001F00018001801F806A
:10568000318033801DC000000000000000000000D9
:1056900000007000300030003700398030C030C06A
:1056A00030C03980770000000000000000000000DA
:1056B00000000000000000001E803180608060005B
:1056C000608031801F00000000000000000000002A
:1056D00000000380018001801D8033806180618033
:1056E000618033801DC00000000000000000000049
:1056F00000000000000000001F00318060C07FC07B
:10570000600030C01F8000000000000000000000AA
:10571000000007E00C000C003F800C000C000C00A7
:105720000C000C003F8000000000000000000000A2
:1057300000000000000000001DC033806180618017
:10574000618033801D80018001801F000000000007
:105750000000700030003000370039803180318027
:10576000318031807BC0000000000000000000009C
:1057700000000600060000001E00060006000600ED
:10578000060006003FC0000000000000000000000E
:1057900000000600060000003F00030003000300B5
:1057A000030003000300030003003E0000000000AC
:1057B0000000700030003000378036003C003C00B4
:1057C0003600330077C00000000000000000000039
:1057D00000001E0006000600060006000600060087
:1057E000060006003FC000000000000000000000AE
:1057F00000000000000000007F8036C036C036C0C8
:1058000036C036C076E00000000000000000000056
:1058100000000000000000007700398031803180F6
:10582000318031807BC000000000000000000000DB
:1058300000000000000000001F00318060C060C058
:1058400060C031801F000000000000000000000068
:1058500000000000000000007700398030C030C038
:1058600030C039803700300030007C00000000007C
:1058700000000000000000001DC0338061806180D6
:10588000618033801D800180018007C0000000001E
:1058900000000000000000007B801CC01800180001
:1058A000180018007F000000000000000000000049
:1058B00000000000000000001F8031803C001F003D
:1058C000038031803F000000000000000000000065
:1058D00000001800180018007F00180018001800B9
:1058E000180018800F0000000000000000000000F9
:1058F00000000000000000007380318031803180A2
:10590000318033801DC00000000000000000000056
:1059100000000000000000007BC0318031801B00CF
:105920001B000E000E000000000000000000000040
:105930000000000000000000F1E060C064C06EC024
:105940003B803B8031800000000000000000000030
:1059500000000000000000007BC01B000E000E00D5
:105960000E001B007BC000000000000000000000D3
:10597000000000000000000079E030C019801980AC
:105980000B000F00060006000C003E0000000000A7
:1059900000000000000000003F80218003000E0096
:1059A000180030803F800000000000000000000070
:1059B000000006000C000C000C000C000C0018008D
:1059C0000C000C000C000C000600000000000000A1
:1059D000000006000600060006000600060006009D
:1059E0000600060006000600060000000000000099
:1059F00000000C000600060006000600060003007A
:105A000006000600060006000C0000000000000072
:105A100000000000000000000000180024800300C7
:105A20000000000000000000000000000000000076
:105A30000000000000000000000000000000000066
:105A40000000000000000000000000000000000056
:105A50000000000000000000000007000700070031
:105A60000700070007000700020002000000000016
:105A70000700070000000000000000000000000018
:105A8000000000001CE01CE01CE00840084008404A
:105A90000000000000000000000000000000000006
:105AA00000000000000000000CC00CC00CC00CC0C6
:105AB0000CC03FF03FF00CC00CC03FF03FF00CC0FA
:105AC0000CC00CC00CC00CC00000000000000000A6
:105AD0000300030007E00FE0186018001F000FC06C
