:020000040800F2
:100000006038002045090008190500081B05000894
:100010001F05000823050008270500080000000050
:100020000000000000000000000000002B05000898
:100030002D050008000000002F050008310500080C
:100040005F0900085F0900085F0900085F090008F0
:100050005F0900085F0900085F0900085F090008E0
:100060005F0900085F0900085F0900085F090008D0
:100070005F0900085F0900085F0900085F090008C0
:100080005F0900085F0900085F0900085F090008B0
:100090005F0900085F0900085F0900085F090008A0
:1000A0005F0900085F0900085F0900085F09000890
:1000B0005F0900085F0900085F0900085F09000880
:1000C0005F0900085F0900085F0900085F09000870
:1000D0005F090008B90800085F0900085F09000807
:1000E0005F0900085F0900085F0900085F09000850
:1000F0005F0900085F0900085F0900085F09000840
:100100005F0900085F0900085F0900085F0900082F
:100110005F0900085F0900085F0900085F0900081F
:100120005F0900085F0900085F0900085F0900080F
:1001300000F002F800F03AF80AA090E8000C8244BF
:100140008344AAF10107DA4501D100F02FF8AFF29C
:10015000090EBAE80F0013F0010F18BFFB1A43F0A5
:100160000103184790F30000B0F30000103A24BFD9
:1001700078C878C1FAD8520724BF30C830C144BF0C
:1001800004680C607047000000230024002500264E
:10019000103A28BF78C1FBD8520728BF30C148BFEA
:1001A0000B6070471FB51FBD10B510BD02F0E4F91C
:1001B0001146FFF7F7FF00F009F802F002FA03B466
:1001C000FFF7F2FF03BC00F01DFB00000EB500F0CE
:1001D0009FFA00F011FB01F0B7FA84E101F028FA70
:1001E000C14801F068FA01F053FA022000F0EFFA7A
:1001F00001F01EFA01F083FA01F04AFA022000F041
:10020000E6FAFF204FF487734FF4D072F02100908C
:10021000B64801F041FBB54801F07BFB01F008FA5C
:10022000FF2001F031FC0120034600220A2100904A
:10023000052001F05EFC012002230022192100901C
:10024000052001F056FC0120032300222821009004
:10025000052001F04EFC01200423002237210090EC
:10026000052001F046FC0120002100913C2346229C
:10027000CDE901100A21142001F08DFC012000219C
:1002800000913C231422CDE901100A21462001F0FF
:1002900082FC01200022CDE900203723AA220F2171
:1002A0000290104601F077FC01200022CDE90020E9
:1002B0002323BE2219460290962001F06CFC0120F7
:1002C000002100913C234622CDE901100A2114208F
:1002D00001F0DFFC01200022CDE900203C23822236
:1002E0000A210290552001F0D4FC012000210B4688
:1002F0005022CDE900109621084601F023FD01208F
:1003000000900023502296210190FA2001F01AFD5E
:10031000764801F05BF901F0BBF9022000F057FAD2
:1003200001F086F9FF2001F0AFFB0020FF21704BA8
:1003300070A2CDE90010014601F084FE0020FF21EB
:10034000704B6CA2CDE900100A2101F07BFE002069
:10035000FF216D4B67A2CDE90010192101F072FE5B
:100360000020FF21694B63A2CDE900102D2101F08F
:1003700069FE0020FF21664B5EA2CDE900104621F8
:1003800001F060FE0020FF21594B5AA2CDE9001078
:100390008221C82001F056FE0020FF21594B55A2B2
:1003A000CDE900108C21C82001F04CFE0020FF2177
:1003B000554B50A2CDE900109B21C82001F042FE10
:1003C0000020FF21514B4BA2CDE90010AF21C820E6
:1003D00001F038FE0020FF214D4B46A2CDE9001070
:1003E000C821084601F02EFE404801F0EFF801F068
:1003F0004FF9022000F0EBF901F01AF9FF2001F0AB
:1004000043FB0020FF213A4B424ACDE90010014650
:1004100001F05EFF0020FF213A4B3E4ACDE900107B
:100420000A2101F055FF0020FF21374B394ACDE961
:100430000010192101F04CFF0020FF21334B354AF9
:10044000CDE900102D2101F043FF0020FF21304BAA
:10045000304ACDE90010462101F03AFF0020FF218B
:10046000234B2C4ACDE900108221F02001F030FF0F
:100470000020FF21234B274ACDE900108C21F020DA
:1004800001F026FF0020FF211F4B224ACDE900107A
:100490009B21F02001F01CFF0020FF211B4B1D4A77
:1004A000CDE90010AF21F02001F012FF0020FF2164
:1004B000174B184ACDE90010C821F02001F008FFC1
:1004C0000A4801F083F801F0E3F8022000F07FF918
:1004D00001F0AEF801F013F901F0DAF8022000F0B3
:1004E00076F900BFFEE779E6D82500085C00002019
:1004F00034000020476F6F6420446973706C617929
:10050000000000003C000020440000204C000020BF
:100510005400002015CD5B07704700BFFEE700BF09
:10052000FEE700BFFEE700BFFEE770477047704779
:10053000704700000CB50020019000906B480068E7
:1005400040F480306949086000BF6848006800F4E2
:10055000003000900198401C0190009818B9019853
:10056000B0F5A06FF1D16148006810F4003F02D0EF
:100570000120009001E0002000900098012842D165
:100580005B48006840F01000594908600846006860
:1005900020F0030008600846006840F00200086090
:1005A00052484068514948600846406848600846DB
:1005B000406840F4806048600846406820F47C1041
:1005C00048600846406840F4E81048600846006803
:1005D00040F08070086000BF4448006810F0007F61
:1005E000FAD04248406820F003004049486008467D
:1005F000406840F00200486000BF3C48406800F09E
:100600000C000828F9D10CBD10B5FFF793FF10BD01
:1006100010B53648006840F00100344908600846CB
:10062000406834490840314948600846006832490A
:1006300008402E4908600846006820F480200860C1
:100640000846406820F4FE0048604FF41F008860B0
:10065000FFF7DAFF4FF000602849086010BD10B5C1
:10066000002100200022214B5B6803F00C0121B126
:10067000042906D0082928D107E0214B214C23600A
:1006800027E01F4B1F4C236023E0184B5B6803F4EB
:100690007010164B5B6803F48032022303EB90402A
:1006A00022B9194B4343174C23600DE00F4B5B6895
:1006B00013F4003F04D0144B4343124C236003E077
:1006C0000F4B43430F4C236003E00D4B0D4C236055
:1006D00000BF00BF054B5B68C3F303130B4CE15C29
:1006E000084B1B68CB40074C236010BD0010024034
:1006F000002002400000FFF8FFFFF6FE08ED00E0DA
:1007000000127A000000002000093D0004000020D3
:1007100010B56FF0040000F085F9334800683349E4
:10072000B0FBF1F0324908700846007800EB400158
:10073000C1EBC0104FF6FF7101EAC0002D490880DF
:1007400010BD01462A4A12784A434FF0E0235A610D
:1007500000229A611A46126942F001021A6100BF32
:100760004FF0E022106910F0010F02D010F4803F2A
:10077000F6D04FF0E022126922F001024FF0E023A0
:100780001A6100229A61704701461A4A12884A4348
:100790004FF0E0235A6100229A611A46126942F032
:1007A00001021A6100BF4FF0E022106910F0010F42
:1007B00002D010F4803FF6D04FF0E022126922F010
:1007C00001024FF0E0231A6100229A61704730B5B0
:1007D0000446002505E04FF47A70FFF7D5FF681C4A
:1007E00085B2A542F7DB30BD0000002000127A0080
:1007F000140000201600002010B54FF4A06000F097
:10080000C1F810BD014600BF704700BF494A1288B9
:1008100012F0400FFAD0C2B2464B1B1D1A8070472F
:1008200010B586B00446012144F2050000F02EFC0C
:100830004FF40070ADF8140003208DF81600182056
:100840008DF8170005A93C4800F06AF94FF4806064
:10085000ADF8140004208DF8170005A9364800F003
:100860005FF925208DF8000003208DF801008DF838
:10087000020001208DF80300684600F088F801941A
:100880000020ADF80800ADF80A00ADF80C00ADF896
:1008900010000C20ADF80E0001A9264800F0A1FCC4
:1008A000012240F22551234800F033FD0121214867
:1008B00000F023FD06B010BD10B540F225511D48D3
:1008C00000F00CFE10B31B4800F088FDC4B21B48BA
:1008D000008810F4004F2BD11848008810F4804F86
:1008E0000CD00A2C03D000201449088020E01348C3
:1008F000008840F400401149088019E00D2C06D111
:100900000E48008840F480400C49088010E00B48F5
:100910000088C0F30D000A490C5408480088401CA8
:100920000649088008460088C72801DD00200880A5
:1009300010BD0000003801400008014018000020F0
:100940001C3100200948804709480047FEE7FEE7C0
:10095000FEE7FEE7FEE7FEE7FEE7FEE7FEE7FEE76F
:1009600004480549054A064B704700001106000877
:10097000310100086032002060380020603400201F
:100980006034002031490143314A1160704770B52D
:10099000002100230F22C4780CB32D4C246804F4EA
:1009A000E064C4F5E064210AC1F10403CA4044785C
:1009B00004FA03F18478144021430901254C067898
:1009C000A155047804F01F050124AC4005786D1191
:1009D0004FF0E02606EB8505C5F8004109E00478F4
:1009E00004F01F050124AC401B4D0678761145F834
:1009F000264070BD194A0A400243154B1B1F1A605E
:100A0000704739B1124A121D12680243104B1B1D68
:100A10001A6006E00E4A121D126882430C4B1B1D21
:100A20001A607047042808D14FF0E021096941F0AD
:100A300004014FF0E022116107E04FF0E021096965
:100A400021F004014FF0E022116170470000FA0527
:100A50000CED00E000E400E080E100E080FFFF1F1B
:100A600010B50446CA48844208D10121042000F090
:100A700027FB0021042000F023FB46E0C548844208
:100A800008D10121082000F01BFB0021082000F004
:100A900017FB3AE0C048844208D10121102000F041
:100AA0000FFB0021102000F00BFB2EE0BB4884421E
:100AB00008D10121202000F003FB0021202000F0BC
:100AC000FFFA22E0B648844208D10121402000F01C
:100AD000F7FA0021402000F0F3FA16E0B148844212
:100AE00008D10121802000F0EBFA0021802000F0E5
:100AF000E7FA0AE0AC48844207D10121801500F0F2
:100B0000DFFA0021A01500F0DBFA10BD10B50121BD
:100B1000084600F0D5FA0021012000F0D1FA10BDFE
:100B20002DE9F04102460025002600200023002484
:100B3000002791F803C00CF00F0591F803C01CF0DA
:100B4000100F03D091F802C04CEA050591F800C0DF
:100B5000BCF1000F31D0146800202BE04FF0010CE5
:100B60000CFA00F3B1F800C00CEA03069E4220D153
:100B700083004FF00F0C0CFA03F7BC4305FA03FC9B
:100B80004CEA040491F803C0BCF1280F06D14FF0E1
:100B9000010C0CFA00FCC2F814C00AE091F803C082
:100BA000BCF1480F05D14FF0010C0CFA00FCC2F863
:100BB00010C0401C0828D1D31460B1F800C0BCF1AB
:100BC000FF0F34DD546800202EE000F1080C4FF0D8
:100BD000010808FA0CF3B1F800C00CEA03069E42C3
:100BE00021D183004FF00F0C0CFA03F7BC4305FA38
:100BF00003FC4CEA040491F803C0BCF1280F05D1B2
:100C000000F1080C08FA0CF8C2F8148091F803C03F
:100C1000BCF1480F07D100F1080C4FF0010808FAA9
:100C20000CF8C2F81080401C0828CED35460BDE8F0
:100C3000F0814FF6FF710180022181700421C170A3
:100C400070470246002093680B4201D0012000E06B
:100C5000002070470146886880B270470246002035
:100C6000D3680B4201D0012000E00020704701460C
:100C7000C86880B2704701617047416170470AB12E
:100C8000016100E041617047C16070474FF48032FC
:100C90000A4382618161826182698269704702468A
:100CA0000020424B18684FF68073184040EA02104B
:100CB00008433E4B186070473D49C8617047F0B526
:100CC0000A46002300240021002500F00046B6F16A
:100CD000004F02D1354EF16901E0344E7168C0F326
:100CE000034583B200F44016B6F5401F08D121F049
:100CF00070612E4E766826F070662C4F7E6012E092
:100D000000F48016B6F5801F06D1032606FA05F416
:100D1000A14341F0706106E0460D360103FA06F684
:100D2000B14341F0706122B1460D360103FA06F677
:100D3000314300F00046B6F1004F02D11B4EF16185
:100D400001E01A4E7160F0BD30B500228B071C0F18
:100D50000F2303FA04F2154B08338C1053F8243098
:100D60009343124C08348D1044F8253023468C10E0
:100D700053F824308C07240F00FA04F423430B4C5F
:100D800008348D1044F8253030BD0A49086070479A
:100D900000080140000C0140001001400014014017
:100DA00000180140001C01400020014000000140EB
:100DB00000002042DC002042DD48006840F00100D5
:100DC000DB49086008464068DA490840D84948606D
:100DD00008460068D8490840D549086008460068B8
:100DE00020F4802008600846406820F4FE00486037
:100DF0004FF41F0088607047CD49096821F48031A5
:100E0000CB4A11601146096821F480211160B0F5C8
:100E1000803F03D0B0F5802F0ED106E0C4490968A9
:100E200041F48031C24A116007E0C149096841F4C8
:100E3000A021BF4A116000E000BF00BF704710B59D
:100E400001460022002300204A11012A02D1B84C99
:100E5000236806E0022A02D1B54C236A01E0B44CB3
:100E6000636A01F01F02012494401C4201D001205A
:100E700000E0002010BD38B50020009000240025BF
:100E800000BF3120FFF7DBFF05460098401C0090B3
:100E90000098B0F5A06F01D0002DF2D03120FFF7FF
:100EA000CEFF08B1012400E00024204638BD0146F1
:100EB00000209F4A106820F0F80040EAC10010604E
:100EC00070479E490860704702460020984B58685A
:100ED00020F47C1042EA01031843954B5860704798
:100EE00096490866704701460020914A506820F0F4
:100EF00003000843506070478D48406800F00C00C4
:100F00007047014600208A4A506820F0F0000843EC
:100F10005060704701460020854A506820F4E06028
:100F200008435060704701460020814A506820F411
:100F3000605040EAC1005060704729B17C4A527A43
:100F400002437B4B5A7204E0794A527A8243784BCF
:100F50005A7270477A490860704701460020744A07
:100F6000506820F440400843506070470021754AA3
:100F700011706F4A82F82010012802D0042808D18D
:100F800003E001216F4A117004E005216D4A1170E0
:100F900000E000BF00BF70476B49086070476449BC
:100FA000096A0143624A116270476749443908601F
:100FB000704730B500210022002400235C4D6D688D
:100FC00005F00C0121B1042905D0082923D105E041
:100FD0005E4D056022E05D4D05601FE0544D6D687B
:100FE00005F47012524D6D6805F48034022505EB4E
:100FF00092421CB9564D554305600BE04C4D6D684F
:1010000015F4003F03D0524D5543056002E04F4DAB
:101010005543056002E04D4D056000BF00BF444DE3
:101020006D6805F0F00109094A4D6B5C0568DD400B
:1010300045603F4D6D6805F4E061090A454D6B5C04
:101040004568DD4085603A4D6D6805F46051C90A18
:10105000404D6B5C4568DD40C560354D6D6805F4FD
:101060004041890B3C4D6B5CC568B5FBF3F50561F0
:1010700030BD29B12E4A526902432D4B5A6104E01A
:101080002B4A526982432A4B5A61704729B1284A38
:1010900092690243264B9A6104E0254A9269824391
:1010A000234B9A61704729B1214AD2690243204BF0
:1010B000DA6104E01E4AD26982431D4BDA6170474F
:1010C00029B11B4AD2680243194BDA6004E0184A7E
:1010D000D2688243164BDA60704729B1144A12690C
:1010E0000243134B1A6104E0114A12698243104B08
:1010F0001A61704714494039086070470F49C86445
:1011000070470B49C87170470948406A40F08070C9
:1011100007494862704701460020054A92680A4222
:1011200001D0012000E0002070470149887270471B
:10113000001002400000FFF8FFFFF6FE00004242F0
:10114000D8004242201002408004424200127A003D
:1011500000093D00200000203000002010B50446AA
:10116000FB48844209D101218803FFF7A9FF002130
:101170004FF48040FFF7A4FF32E0F648844209D1E3
:1011800001214804FFF7A9FF00214FF40030FFF7C9
:10119000A4FF25E0F048844209D101218804FFF72B
:1011A0009CFF00214FF48020FFF797FF18E0EB48E9
:1011B000844209D10121C804FFF78FFF00214FF4B9
:1011C0000020FFF78AFF0BE0E548844208D10121A7
:1011D0000805FFF782FF00214FF48010FFF77DFF25
:1011E00010BD2DE9F04786B005460E460024A24604
:1011F00000BFA1460027B08900B100BF2F462C8A4E
:101200004CF6FF700440F08804432C82AC894EF603
:10121000F3100440B08831890843718908430443BE
:10122000AC81AC8A4FF6FF400440B0890443AC82E5
:1012300001A8FFF7BEFEC648874202D1DDF810A024
:1012400001E0DDF80CA0A88910F4004F08D00AEBEB
:10125000CA0000EB0A1031684900B0FBF1F807E062
:101260000AEBCA0000EB0A1031688900B0FBF1F804
:101270006420B8FBF0F004012009642101FB10890F
:10128000A88910F4004F08D0322000EBC900B0FB51
:10129000F1F000F00700044308E0322000EB0910F1
:1012A0006421B0FBF1F000F00F0004432C8106B084
:1012B000BDE8F0874FF41651016000218180C180A4
:1012C00001810C21418100218181704710B50246C6
:1012D0000020108A4FF2FF0318400B884C882343EC
:1012E0008C882343CC8823431843108210BD0021EF
:1012F000018041808180C180704721B1828942F4A0
:101300000052828104E082894DF6FF731A40828187
:101310007047F0B503460024002600250020A1F503
:1013200010676A3F00D100BF1846C1F3421401F0B4
:101330001F06012707FA06F5012C01D10C3004E045
:10134000022C01D1103000E014301AB107682F438D
:10135000076002E00768AF430760F0BD1AB1838AF7
:101360000B43838202E0838A8B4383827047028A25
:101370004FF6F0731A400282028A0A4302827047D3
:1013800082894FF2FF731A40828182890A438281E7
:10139000704721B1828942F00202828104E0828991
:1013A0004FF6FD731A4082817047028A4FF6DF7351
:1013B0001A400282028A0A430282704721B1028ADD
:1013C00042F48042028204E0028A4BF6FF731A4024
:1013D00002827047C1F30802828070470146888804
:1013E000C0F308007047818941F001018181704795
:1013F000028BD2B20283028B42EA0122028370473F
:10140000028B02F47F420283028B0A4302837047FD
:1014100021B1828A42F02002828204E0828A4FF661
:10142000DF731A408282704721B1828A42F0100233
:10143000828204E0828A4FF6EF731A4082827047FC
:1014400021B1828A42F00802828204E0828A4FF649
:10145000F7731A408282704721B1828942F40042B8
:10146000828103E08289C2F30E028281704721B13A
:10147000828A42F40062828204E0828A4FF2FF7321
:101480001A4082827047828A4FF6FB731A4082822A
:10149000828A0A438282704721B1828A42F0020224
:1014A000828204E0828A4FF6FD731A40828270477E
:1014B00002460020B1F5007F00D100BF13880B4227
:1014C00001D0012000E00020704701F40072B2F565
:1014D000007F00D100BFCA430280704770B502464A
:1014E0000024002300250020A1F510666A3E00D1EB
:1014F00000BFC1F3421501F01F03012606FA03F3F2
:10150000012D02D19689334006E0022D02D1168AC0
:10151000334001E0968A33400C12012606FA04F4A7
:101520001688344013B10CB1012000E0002070BDDA
:1015300010B500220023A1F510646A3C00D100BF61
:101540000A1201249440A3B2DC43048010BD0000C1
:10155000003801400044004000480040004C00407A
:101560000050004006E042F6E06100BF0A00A1F131
:101570000101FBD10200A0F10100F4D1704710B5C8
:101580004FF480416F48FFF778FB0A20FFF7EAFF2E
:101590004FF480416B48FFF76EFB0A20FFF7E2FF34
:1015A00010BD10B500BF712000F042F94FF400519A
:1015B0006448FFF746FB044604F0010080F0010494
:1015C000002CF0D1C820FFF7CDFF10BD2DE9F04170
:1015D00007461E264FF4D078102000F029F9002588
:1015E00008E0002403E0002000F03AF9641CB44253
:1015F000F9D36D1C4545F4D3132000F019F90025EB
:101600000AE0002405E005FB0641785C00F028F9BB
:10161000641CB442F7D36D1C4545F2D3122000F090
:1016200007F90120FFF79EFFFFF7BBFFBDE8F08140
:1016300010B5FFF7A4FF062000F0FAF8172000F01D
:101640000FF9172000F00CF91D2000F009F9042013
:1016500000F0EEF8FFF7A5FF002000F0E9F81F20EA
:1016600000F0FEF8612000F0E3F8F02000F0F8F858
:10167000012000F0F5F8A02000F0F2F8502000F072
:10168000D7F8232000F0ECF8072000F0E9F810BDAF
:1016900010B5502000F0CCF8F72000F0E1F802205F
:1016A00000F0C6F8FFF77DFF072000F0C1F8A52085
:1016B00000F0D6F810BD70B50546102000F0B8F85F
:1016C000002403E0FF2000F0CBF8641CB4F5435F76
:1016D000F8D3132000F0ACF8002404E0287800F0E0
:1016E000BFF86D1C641CB4F5435FF7D3122000F003
:1016F0009FF80120FFF736FFFFF753FF70BD10B5CD
:10170000102000F095F8002403E0FF2000F0A8F876
:10171000641CB4F5435FF8D3132000F089F800246B
:1017200003E0FF2000F09CF8641CB4F5435FF8D39D
:10173000122000F07DF80120FFF714FFFFF731FFC2
:1017400010BD00000018014008B501216020FFF71E
:101750009DFC4FF4E060ADF8000010208DF8030010
:1017600002208DF8020069464948FFF7D9F94FF485
:101770004040ADF8000010208DF8030002208DF8E5
:10178000020069464348FFF7CBF94FF40050ADF82B
:10179000000048208DF8030002208DF80200694601
:1017A0003C48FFF7BDF94FF48050ADF80000102021
:1017B0008DF8030002208DF8020069463548FFF7D6
:1017C000AFF908BD00BF0100A0F10102D0B2FAD10B
:1017D000704770B504460120FFF7F4FF002524E0B0
:1017E0004FF400712A48FFF748FA0120FFF7EAFF9B
:1017F00014F0800F05D04FF480612548FFF73BFAC5
:1018000004E04FF480612248FFF737FA6006040EC7
:101810000120FFF7D7FF4FF400711D48FFF72BFAA7
:101820000120FFF7CFFF681CC5B2082DD8DB70BDC3
:1018300010B504460120FFF7C5FF4FF4807114482E
:10184000FFF71BFA4FF400411248FFF716FA204643
:10185000FFF7BFFF4FF480710D48FFF70CFA10BD82
:1018600010B504460120FFF7ADFF4FF48071084822
:10187000FFF703FA4FF400410648FFF7FCF9204652
:10188000FFF7A7FF4FF480710148FFF7F4F910BD8F
:1018900000140140001801402DE9F0410646069F62
:1018A0000020F94C2060204606600181428187813A
:1018B0000C464FEAE17C01EB5C7C4FEAEC0CB1EBAF
:1018C000CC0C07D10D464FEAE57C05EB5C7C4FEA7A
:1018D000EC0C08E008464FEAE17C01EB5C7C4FEA47
:1018E000EC0C0CF1010CDFF8A083A8F812C0404604
:1018F0008282C3810020444620820BB1B42B03D1E5
:10190000E1488180C28002E0DF488280C180BDE87A
:10191000F081DD490860704730B15A2804D0B428FE
:1019200002D0B0F5877F01D1D749C881704728B16F
:10193000012803D0022801D0032801D1D24908820E
:1019400070472DE9F04103460C461746CE4EB68847
:101950009E4203DBCC4EF688A64201DABDE8F08158
:10196000C94EF6893EB15A2E08D0B42E0DD0B6F528
:10197000877F1CD114E01846214619E0C24E3689F3
:10198000361B761EB0B2194612E0BF4E3689F61AE3
:10199000761EB0B2BC4E7689361B761EB1B207E019
:1019A0002046B94E7689F61A761EB1B200E0D5E728
:1019B00000BFB54E368A36B1012E05D0022E09D0B1
:1019C000032E18D10CE017E0AF4E3689361A761E7A
:1019D000B0B211E0AC4E7689761A761EB1B20BE049
:1019E000A94E3689361A761EB0B2A74E7689761A77
:1019F000761EB1B200E0B1E700BFA34E3689864241
:101A000003DBA14E76898E4200DAA7E706464FEA4D
:101A1000E07C00EB5C7C4FEAEC0CDFF86C82B8F801
:101A2000128001FB08C2984E3668B55CAFB9064615
:101A30004FEAE07C00EB5C7C4FEAEC0CA0EBCC08BE
:101A40004FF0800C4CFA08FC25EA0C0CDFF83882C9
:101A5000D8F8008008F802C014E006464FEAE07C9F
:101A600000EB5C7C4FEAEC0CA0EBCC084FF0800C58
:101A70004CFA08FC4CEA050CDFF80C82D8F8008020
:101A800008F802C000BF69E730B50246002110E047
:101A9000002008E07C4C648A01FB04037A4D2D6829
:101AA000EA54441CA0B2784C648A8442F2DC4C1C98
:101AB000A1B2754CA48A8C42EADC30BD2DE9F04716
:101AC00006460F4690469946DDF820A03D460CE0BC
:101AD000344606E0524629462046FFF732FF601C96
:101AE00084B24445F6DB681C85B24D45F0DBBDE8A9
:101AF000F0872DE9F0470746884691461C46DDF8F9
:101B000020A061488088B84203DB5F48C088404518
:101B100001DABDE8F087BAF1010F24D100251DE0FC
:101B2000002614E007EB0500001B03D408EB0600B9
:101B3000001B00D50FE008EB0602121B91B27A19C8
:101B4000121B90B24A46FFF7FCFE701C06B2600002
:101B5000401EB042E6DC00BF681C05B26000401EBB
:101B6000A842DDDC15E0002511E000260BE008EBC3
:101B70000602521E91B27A19521E90B24A46FFF7DF
:101B8000E0FE701C06B2A642F1DB681C05B2A5425D
:101B9000EBDB00BFBDE72DE9F04F85B004460D46F5
:101BA00016461F4638488088A0420BDB3648C0885E
:101BB000A84207DB34488088B04203DB3248C08843
:101BC000B84202DA05B0BDE8F08FA046AA46301B45
:101BD00001D4301B00E0A01B8346781B002801DCE9
:101BE000781B00E0E81B0490B44201DA012001E018
:101BF0004FF0FF300390BD4201DA012001E04FF0C9
:101C0000FF30029004980BEB00090020019000BF08
:101C10000198401CC0B201900F98012811D10321F6
:101C2000019890FBF1F201FB120050B901200090E5
:101C3000FF2251464046109BFFF75BFF00200190BA
:101C400007E00120009051464046109B0E9AFFF796
:101C500050FF4FEA49010498814208DBB04500D1AA
:101C600014E004988144039840441FFA80F84FEA36
:101C700049005845CCDCBA4500D107E0D944029868
:101C800050441FFA80FAC3E7E431002000BF00BFD0
:101C900098E72DE9FE4F81460F4692469846DDE9CA
:101CA0000DB50C9CFE48808848450BDBFC48C0887D
:101CB000B84207DBFA488088504503DBF848C08803
:101CC000404501DABDE8FE8FBBF1000F10D03E4663
:101CD0000BE00020334652463146CDE90105009421
:101CE0004846FFF758FF701C86B24645F1DB27E0F7
:101CF00000203B4652463946CDE90105009448464E
:101D0000FFF749FF002043464A463946CDE9010521
:101D100000944846FFF73FFF00203B4652464146AD
:101D2000CDE9010500945046FFF735FF00204346FA
:101D30004A464146CDE9010500945046FFF72BFF86
:101D400000BFBFE72DE9F84F05460E4692469B4679
:101D5000D3488088A84203DBD148C088B04201DC68
:101D6000BDE8F88F00240FFA8AF70320A0EB4A00A1
:101D70000FFA80F90A98012877D172E0A0465BE05B
:101D8000012006EB080291B22A19009090B20123BB
:101D90005A46FFF7AEFE012006EB080291B22A1B5D
:101DA000009090B201235A46FFF7A3FE012032199A
:101DB00091B2A5EB0802009090B201235A46FFF7BA
:101DC00098FE0120321B91B2A5EB0802009090B260
:101DD00001235A46FFF78DFE0120A6EB080291B2BF
:101DE0002A1B009090B201235A46FFF782FE012081
:101DF000A6EB080291B22A19009090B201235A462C
:101E0000FFF777FE0120321B91B205EB080200902C
:101E100090B201235A46FFF76CFE0120321991B2AD
:101E200005EB0802009090B201235A46FFF761FECD
:101E300008F101000FFA80F8B845A1DDB9F1000FF3
:101E400005DAA000801D48440FFA80F907E0E01B86
:101E500080000A3048440FFA80F9781E07B2601CEF
:101E600004B2BC428ADD66E0FFE762E00120F219BD
:101E700091B22A19009090B25A460B9BFFF739FE97
:101E80000120F21991B22A1B009090B25A460B9B86
:101E9000FFF72FFE0120321991B2EA1B009090B299
:101EA0005A460B9BFFF725FE0120321B91B2EA1B1D
:101EB000009090B25A460B9BFFF71BFE0120F21BCD
:101EC00091B22A1B009090B25A460B9BFFF711FE6D
:101ED0000120F21B91B22A19009090B25A460B9B36
:101EE000FFF707FE0120321B91B2EA19009090B271
:101EF0005A460B9BFFF7FDFD0120321991B2EA19FA
:101F0000009090B25A460B9BFFF7F3FDB9F1000F1A
:101F100005DAA000801D48440FFA80F907E0E01BB5
:101F200080000A3048440FFA80F9781E07B2601C1E
:101F300004B2BC429ADD00BF12E72DE9F04F07461C
:101F4000884692461D4656488088B84203DB54486E
:101F5000C088404501DABDE8F08FA988CA1701EBB7
:101F60005272D2100846CB1701EB5373DB10B1EB62
:101F7000C30301D0012300E000231344AAF120028F
:101F8000B5F806C002FB0CF203FB02FB286800EB6D
:101F90000B09002651E0002440E00998FF2814D1E5
:101FA000E11704EB5171C910A4EBC102802111416A
:101FB00099F80020114225D008EB060291B23A1997
:101FC00090B20A9AFFF7BDFC1CE0E11704EB5171D7
:101FD000C910A4EBC1028021114199F800201142DF
:101FE00008D008EB060291B23A1990B20A9AFFF7AC
:101FF000A8FC07E008EB060291B23A1990B2099AE0
:10200000FFF79FFCE11704EB5171C910A4EBC1016C
:10201000072901D109F10109601C84B2A888A042F6
:10202000BBDCA888C11700EB5171C910B0EBC1012E
:1020300001D009F10109701C86B2E888B042AADC1F
:1020400000BF88E72DE9FC4F04460E4617461D46A3
:10205000DDE90BABA046B14611488088A04203DB06
:102060000F48C088B04201DABDE8FC8F22E0A888A2
:1020700040440B498988884204DDA046E8884844EA
:102080001FFA80F9E88848440549C988884201DD7B
:10209000A046B146CDE900AB3A782B46494601E06F
:1020A000E43100204046FFF748FF7F1CA8884044E9
:1020B0001FFA80F838780028D9D100BFD4E72DE97D
:1020C000FF4F1D46DDF80890DDF80080DDF804A024
:1020D000F7E099F800007F2875DC002769E05320BD
:1020E0007843296811F8100099F8001088425FD1F0
:1020F00053207843296801EB400000F1020B0026D1
:1021000052E0002442E00D98FF2815D1E11704EBBE
:102110005171C910A4EBC102802111419BF800202C
:10212000114228D00AEB060291B208EB040290B2E9
:102130000E9AFFF706FC1EE0E11704EB5171C9107F
:10214000A4EBC102802111419BF80020114209D06B
:102150000AEB060291B208EB040290B20E9AFFF766
:10216000F0FB08E00AEB060291B208EB040290B221
:102170000D9AFFF7E6FBE11704EB5171C910A4EBD0
:10218000C101072901D10BF1010B641C2889A04270
:10219000B9DC2889C11700EB5171C910B0EBC1013E
:1021A00001D00BF1010B761C6889B042A9DC03E079
:1021B0007F1CA888B84292DC00BF09F10109E888B9
:1021C00080447EE0FFE7002773E0532078432968CE
:1021D00011F8100099F80010884269D15320784313
:1021E000296801EB4000407899F8011088425FD1DE
:1021F00053207843296801EB400000F1020B0026D0
:1022000052E0002442E00D98FF2815D1E11704EBBD
:102210005171C910A4EBC102802111419BF800202B
:10222000114228D00AEB060291B208EB040290B2E8
:102230000E9AFFF786FB1EE0E11704EB5171C910FF
:10224000A4EBC102802111419BF80020114209D06A
:102250000AEB060291B208EB040290B20E9AFFF765
:1022600070FB08E00AEB060291B208EB040290B2A0
:102270000D9AFFF766FBE11704EB5171C910A4EB4F
:10228000C101072901D10BF1010B641C2889A0426F
:10229000B9DC2889C11700EB5171C910B0EBC1013D
:1022A00001D00BF1010B761C6889B042A9DC03E078
:1022B0007F1CA888B84288DC00BF09F10209288980
:1022C000804499F8000000287FF403AFBDE8FF8F39
:1022D0002DE9F04FADF5037D06460F4615469946AC
:1022E000DDF834B2DDF830A20024A0464FF480714E
:1022F00043A800F016F94FF4807103A800F011F91B
:1023000043A8029082488088B04203DB8048C0889E
:10231000B84203DA0DF5037DBDE8F08F0CE00A202A
:1023200095FBF0F100FB1150303003A90855601CFB
:1023300004B20A2095FBF0F5002DF0D10BE0601EF1
:1023400003A9085C43A901F8080008F101000FFA8D
:1023500080F8601E04B2002CF1DC4B46CDE900ABE6
:1023600039463046029AFFF76DFE00BFD2E72DE9ED
:10237000FF4F85B0054690469A46DDE9126765A293
:1023800007CA02AB07C3BAF8044098F804000A2150
:1023900090FBF1F002A911F8009053464A46CDE9AE
:1023A000006728460699FFF7C8FD98F804000A213F
:1023B00090FBF1F201FB120002A911F8009029191B
:1023C00088B253464A46CDE900670699FFF7B5FD46
:1023D000A146E11704EB91712A1902EBA101A34672
:1023E00004EBDB7201EB620188B253463A22CDE97D
:1023F00000670699FFF7A1FD98F805000A2190FBF8
:10240000F1F002A911F800B004EBD97105EB440218
:1024100002EB610188B253465A46CDE9006706993E
:10242000FFF78BFD98F805000A2190FBF1F201FB04
:10243000120002A911F800B004EBD97104EB4402B8
:102440002A4402EB610188B253465A46CDE900673F
:102450000699FFF772FD04EBD97105EB840202EBDC
:102460006101A346E21704EB9272A1EBA20188B2CC
:1024700053463A22CDE900670699FFF75EFD98F8CA
:1024800006000A2190FBF1F002A911F8009004EB7C
:102490008401294488B253464A46CDE9006706992B
:1024A000FFF74BFD98F806000A2190FBF1F201FBC3
:1024B000120002A911F8009004EB440105EB410160
:1024C00088B253464A46CDE900670699FFF735FDC5
:1024D00009B0BDE8F08F30B502460023002111E0BD
:1024E000002009E00A4C648A01FB0403D45C084D17
:1024F0002D68EC54441CA0B2054C648A8442F1DC83
:102500004C1CA1B2024CA48A8C42E9DC30BD000014
:10251000E431002030313233343536373839000079
:1025200070474FF0000200B5134694469646203996
:1025300022BFA0E80C50A0E80C50B1F12001BFF47C
:10254000F7AF090728BFA0E80C5048BF0CC05DF8E2
:1025500004EB890028BF40F8042B08BF704748BF30
:1025600020F8022B11F0804F18BF00F8012B7047A4
:102570007047704770477047754600F029F8AE46BF
:1025800005006946534620F00700854618B020B57F
:10259000FEF7E6F9BDE820404FF000064FF00007D7
:1025A0004FF000084FF0000B21F00701AC46ACE8FB
:1025B000C009ACE8C009ACE8C009ACE8C0098D4668
:1025C00070470446AFF300802046FDF7F8FD000099
:1025D00000487047FC310020FFFFFFFFFFFFFFFFB7
:1025E000FFFFFFFFFFFFFFFFFFFFFFFFFFFFFFFFFB
:1025F000FFFFFFFFFFFFFFFFFFFFFFFFFFFFFFFFEB
:10260000FFFFFFFFFFFFFFFFFFFFFFFFFFFFFFFFDA
:10261000FFFFFFFFFFFFFFFFFFFFFFFFFFFFFFFFCA
:10281000FFFFFFFFFFFFFFFFFFFFFFFFFFF81FFFAF
:10282000FFFFFFFFFFFFFFFFFFFFFFFFFFFFFFFFB8
:10283000FFFFFFFFFFF7FFFFFFFFFFF7FFFFFFFFB8
:10284000FFF7FFFFFFFFFFFFFFFFFFFFFFFFFFFFA0
:10285000FFFFFFF7FFFFFFFFFFF7FFFFFFFFFFF7A0
:10286000FFFFFFFFFFFFFFFFFFFFFFFFFFFFFFFF78
:10287000FFF7FFFFFFFFFFFBFFFFFFFFFFF7FFFF7C
:10288000FFFFFFFFFFFFFFFFFFFFFFFFFFFFFFF760
:10289000FFFFFFFFFFF01FFFFFFFFFF7FFFFFFFF3F
:1028A000FFFFFFFFFFFFFFFFFFFFFFFFFFF7FFFF40
:1028B000FFFFFFFFFFFFFFFFFFF7FFFFFFFFFFFF30
:1028C000FFFFFFFFFFFFFFFFFFFFFFF7FFFFFFFF20
:1028D000FFFFFFFFFFFFFFF7FFFFFFFFFFFFFFFF10
:1028E000FFFFFFFFFFFFFFFFFFF7FFFFFFFFFFF807
:1028F0003FFFFFFFFFF7FFFFFFFFFFFFFFFFFFFFB0
:10290000FFFFFFFFFFFFFFF7FFFFFFFFFFF7DFFF07
:10291000FFFFFFF7FFFFFFFFFFFFFFFFFFFFFFFFCF
:10292000FFFFFFFFFFF7FFFFFFFFFFF7DFFFFFFFE7
:10293000FFF7FFFFFFFFFFFFFFFFFFFFFFFFFFFFAF
:10294000FFFFFFF7FFFFFFFFFFF7DFFFFFFFFFF7CF
:10295000FFFFFFFFFFFFFFFFFFFFFFFFFFFFFFFF87
:10296000FFF7FFFFFFFFFFF83FFFFFFFFFF7FFFF4E
:10297000FFFFFFFFFFFFFFFFFFFFFFFFFFFFFFF76F
:10298000FFFFFFFFFFFFFFFFFFFFFFF7FFFFFFFF5F
:10299000FFFFFFFFFFFFFFFFFFFFFFFFFFF7FFFF4F
:1029A000FFFFFFB01FFFFFFFFFF7FFFFFFFFFFFF6E
:1029B000FFFFFFFFFFFFFFFFFFFFFFF7FFFFFFFF2F
:1029C000FFFFFFFFFFFFFFF7FFFFFFFFFFFFFFFF1F
:1029D000FFFFFFFFFFFFFFFFFFF7FFFFFE2FFFF7E8
:1029E000DFFFFFFFFFF7FFFFFFFFFFFFFFFE3FFFE0
:1029F000FFFFFFFFFFFFFFF7FFFFFDB7FFC01FFF58
:102A0000FFFFFFF7FFFFFFFFFFFFFFFE1FFFFFFFBF
:102A1000FFFFFFFFFFF7FFFFFDB7FFF7FFFFFFFF20
:102A2000FFF7FFFFFFFFFFFFFFFF87FFFFFFFFFF36
:102A3000FFFFFFF7FFFFFDB7FFF83FFFFFFFFFF7C7
:102A4000FFFFFFFFFFFFFFFFE1FFFFFFFFFFFFFFB4
:102A5000FFF7FFFFFE0FFFF7DFFFFFFFFFF7FFFFAF
:102A6000FFFFFFFFFFFFF87FFFFFFFFFFFFFFFF705
:102A7000FFFFFFFFFFF7DFFFFFFFFFF7FFFFFFFF96
:102A8000FFFFFFFE003FFFFFFFFFFFFFFFF7FFFF1E
:102A9000FFFFFFFBBFFFFFFFFFF7FFFFFFFFFFFF92
:102AA000FFFE031FFFFFFFFFFFFFFFF7FFFFE00732
:102AB000FFF003FFFFFFFFF7FFFFFFFFFFFFFFFF39
:102AC000FF9FFFFFFFFFFFFFFFF7FFFFFFFFFFFF7E
:102AD000FFFFFFFFFFF7FFFFFFFFFFFFFFFFFF9F6E
:102AE000FFFFFFFFFFFFFFF7FFFFFC01FFFFFFFFFF
:102AF000FFFFFFF7FFFFFFFFFFFFFFFFFFFFFFFFEE
:102B0000FFFFFFFFFFF7FFFFFEEEFFF81FFFFFFFD6
:102B1000FFF7FFFFFFFFFFFFFFFF00FFFFFFFFFFCC
:102B2000FFFFFFF7FFFFFDF6FFF7FFFFFFFFFFF7D8
:102B3000FFFFFFFFFFFFFFFE01FFFFFFFFFFFFFFA4
:102B4000FFF7FFFFFDF6FFF7FFFFFFFFFFF7FFFFB8
:102B5000FFFFFFFFFFFE69FFFFFFFFFFFFFFFFF724
:102B6000FFFFFE0DFFFBFFFFFFFFFFF7FFF8000079
:102B7000000001FE6DFFFFFFFFFFFFFFFFF7FFFFFC
:102B8000FFFFFFF81FFFFFFFFFF7FFF80000000047
:102B900001FE2CFFFFFFFFFFFFFFFFF7FFFFFE0718
:102BA000FFF7FFFFFFFFFFF7FFF80000000001FF46
:102BB00020FFFFFFFFFFFFFFFFF7FFFFFDFFFFF716
:102BC000FFFFFFFFFFF7FFF80000000001FFE1FF3C
:102BD000FFFFFFFFFFFFFFF7FFFFFDFFFFFBFFFF13
:102BE000FFFFFFF7FFF80000000001FFFFFFFFFFFE
:102BF000FFFFCFFFFFF7FFFFFEFFFFF01FFFFFFF0D
:102C0000FFF7FFF80000000001F1FFFFFFFFFFFFEB
:102C1000C7FFFFF7FFFFFC07FFFFFFFFFFFFFFF707
:102C2000FFF80000000001F007FFFFFFFFFFF3FFC8
:102C3000FFF7FFFFFFFFFFF01FFFFFFFFFF7FFF8AA
:102C40000000000001FE00FFFFFFFFFFF9FFFFF79C
:102C5000FFFFFE07FFFFDFFFFFFFFFF7FFF80000AA
:102C6000000001FFF0FFFFFFFFFFFC7FFFF7FFFF0A
:102C7000FDAFFFFFDFFFFFFFFFF7FFF8003FFFFFA4
:102C800001FFFFFFFFFFFFFFFE3FFFF7FFFFFDB765
:102C9000FFFFDFFFFFFFFFF7FFF8003FFFFF01FF30
:102CA0008FFFFFFFFFFFFF007FF7FFFFFDB7FFF084
:102CB0003FFFFFFFFFF7FFF8003FFFFF01FF03FFAC
:102CC000FFFFFFFFFF807FF7FFFFFECFFFFFFFFF4C
:102CD000FFFFFFF7FFF8003FFFFF01FE21FFFFFFAF
:102CE000FFFFFE1FFFF7FFFFFFFFFFFB3FFFFFFFA1
:102CF000FFF7FFF8003FFFFF01FE7CFFFFFFFFFF34
:102D0000FE7FFFF7FFFFFFFFFFF6DFFFFFFFFFF78D
:102D1000FFF8003FFFFF01FE7CFFFFFFFFFFF8FF12
:102D2000FFF7FFFFFFFFFFF6DFFFFFFFFFF7FFF8F3
:102D3000003E001F01FE3CFFFFFFFFFFF3FFFFF718
:102D4000FFFFFFFFFFF6DFFFFFFFFFF7FFF8003E8B
:102D5000001F01FE01FFFFFFFFFFC3FFFFF7FFFFA3
:102D6000FFFFFFF9BFFFFFFFFFF7FFF8003E001F67
:102D700001FF003FFFFFFFFFCFFFFFF7FFFFFC0159
:102D8000FFFFFFFFFFFFFFF7FFF8003E001F01FFFF
:102D9000E01FFFFFFFFFDFFF7FF7FFFFFEEEFFF803
:102DA0001FFFFFFFFFF7FFF8003E001F01FFFF9F1F
:102DB000FFFFFFFFFFFC7FF7FFFFFDF6FFF7FFFFC1
:102DC000FFFFFFF7FFF8003E001F01FFFFFFFFFFBF
:102DD000FFFFFFF07FF7FFFFFDF6FFF7FFFFFFFFAD
:102DE000FFF7FFF8003E001F01FF21FFFFFFFFFF7D
:102DF000FFE1FFF7FFFFFE0DFFFBFFFFFFFFFFF708
:102E0000FFF8003E001F01FE61FFFFFFFFFFFF0311
:102E1000FFF7FFFFFFFFFFF01FFFFFFFFFF7FFF8C8
:102E2000003E001F01FE44FFFFFFFFFFFE0FFFF704
:102E3000FFFFFE07FFFFFFFFFFFFFFF7FFF8003E6A
:102E4000001F01FE4CFFFFFFFFFFF00FFFF7FFFF2A
:102E5000FDFFFFFFFFFFFFFFFFF7FFF8003E001F32
:102E600001FE0CFFFFFFFFFFE1CFFFF7FFFFFDFFBC
:102E7000FFF83FFFFFFFFFF7FFF81F003E0001FFD5
:102E800009FFFFFFFFFFC7CFFFF7FFFFFEFFFFF7C1
:102E9000DFFFFFFFFFF7FFF81F003E0001FFF9FF14
:102EA000FFFFFFFFC3CFFFF7FFFFFC07FFF7DFFFC9
:102EB000FFFFFFF7FFF81F003E0001FFFFFFFFFFCE
:102EC000FFFFE0CFFFF7FFFFFFFFFFF7DFFFFFFF91
:102ED000FFF7FFF81F003E0001F27FFFFFFFFFFF3B
:102EE000F80FFFF7FFFFEC07FFF83FFFFFFFFFF7CB
:102EF000FFF81F003E0001F203FFFFFFFFFFFF0F7F
:102F0000FFF7FFFFFFFFFFFFFFFFFFFFFFF7FFF8E8
:102F10001F003E1F01FF01FFFFFFFFFFFF83FFF7C1
:102F2000FFFFFCFFFFFBBFFFFFFFFFF7FFF81F00E6
:102F30003E1F01FFF9FFFFFFFFFFFFE0FFF7FFFF6D
:102F4000FF1FFFF7DFFFFFFFFFF7FFF81F003E1F28
:102F500001FFFFFFFFFFFFFFFFF87FF7FFFFFFE726
:102F6000FFF7DFFFFFFFFFF7FFF81F003E1F01FE27
:102F70000FFFFFFFFFFFFFFE7FF7FFFFFF1FFFF7C2
:102F8000DFFFFFFFFFF7FFF81F003E1F01F807FFFD
:102F9000FFFFFFFFFFFE7FF7FFFFFCFFFFF83FFF94
:102FA000FFFFFFF7FFF81FFFFE1F01F8F3FFFFFF12
:102FB000FFFFFFFE7FF7FFFFFF1FFFFFFFFFFFFF8A
:102FC000FFF7FFF81FFFFE1F01F319FFFFFFFFFFD1
:102FD000FFFE7FF7FFFFFFE7FFFFFFFFFFFFFFF7AA
:102FE000FFF81FFFFE1F01F2ECFFFFFFFFFFFFFED8
:102FF0007FF7FFFFFF1FFFFFFFFFF03FFFF7FFF827
:103000001FFFFE1F01F2F4FFFFFFFFFFFFFE7FF730
:10301000FFFFFCFFFFF3FFFFEFFFFFF7FFF81FFFCE
:10302000FE1F01F2F4FFFFFFFFFFFFFE7FF7FFFF30
:10303000FE2FFFFC7FFFEFFFFFF7FFF80000001FF0
:1030400001F014FFFFFFFFFFFFFE7FF7FFFFFDB75B
:10305000FFFF9FFFF7FFFFF7FFF80000001F01F0E1
:1030600000FFFFFFFFFFFFFE7FF7FFFFFDB7FFFC45
:103070007FFFE03FFFF7FFF80000001F01FF80FF28
:10308000FFFFFFFFC0007FF7FFFFFDB7FFF3FFFF6C
:10309000FFFFFFF7FFF80000001F01FFFFFFFFFF2A
:1030A000FFFFC0007FF7FFFFFE0FFFFC7FFF603FC9
:1030B000FFF7FFF80000001F01FFFFFFFFFFFFFF0A
:1030C000FFFFFFF7FFFFFFFFFFFF9FFFFFFFFFF780
:1030D000FFF8003FFFFF01FF87FFFFFFFFFFFFFF3C
:1030E000FFF7FFFFEC07FFFC7FFFF03FFFF7FFF864
:1030F000003FFFFF01FF01FFFFFFFFFFF0FFFFF7B2
:10310000FFFFFCFFFFF3FFFFEFFFFFF7FFF8003FBC
:10311000FFFF01FE31FFFFFFFFFFE03FFFF7FFFF73
:10312000FF1FFFFFFFFFEFFFFFF7FFF8003FFFFF6D
:1031300001FE7DFFFFFFFFFFE73FFFF7FFFFFFE718
:10314000FFF83FFFF7FFFFF7FFF8003FFFFF01FE2B
:103150007CFFFFFFFFFFC71FFFF7FFFFFF1FFFF70A
:10316000DFFF003FFFF7FFF8003FFFFF01FF3CFFDD
:10317000FFFFFFFFCF9FFFF7FFFFFCFFFFF7DFFF22
:10318000FFFFFFF7FFF80000000001FF01FFFFFF56
:10319000FFFFCF9FFFF7FFFFFFFFFFF7DFFFEFBF4F
:1031A000FFF7FFF80000000001FF81FFFFFFFFFFB6
:1031B000CF9FFFF7FFFFFFFFFFF83FFF803FFFF7C5
:1031C000FFF80000000001FFFFFFFFFFFFFFCF9FA0
:1031D000FFF7FFFFFFFFFFFFFFFFEFFFFFF7FFF826
:1031E0000000000001FFFFFFFFFFFFFFCF9FFFF781
:1031F000FFFFFFFFFF801FFFFFFFFFF7FFF800004B
:10320000000001FF87FFFFFFFFFFCF9FFFF7FFFFDA
:10321000FE2FFFFFFFFFFFFFFFF7FFF8000000009A
:1032200001FF01FFFFFFFFFFCF9FFFF7FFFFFDB78C
:10323000FFFFFFFFFFFFFFF7FFF80000000001FEA8
:1032400071FFFFFFFFFFC0007FF7FFFFFDB7FFFF2C
:10325000FFFFFFFFFFF7FFF80000000001FE7CFF0B
:10326000FFFFFFFFC0007FF7FFFFFDB7FFFFFFFF7E
:10327000F03FFFF7FFF80000000001FE7CFFFFFFBA
:10328000FFFFFFFFFFF7FFFFFE0FFFF81FFFED7FC0
:10329000FFF7FFF80000000001FE3CFFFFFFFFFF0B
:1032A000FFFFFFF7FFFFFFFFFFF6BFFFEDBFFFF7D9
:1032B000FFFFFFFFFFFFFFFF01FFFFFFFFFFFFF328
:1032C000FFF7FFFFE007FFF6DFFFEDBFFFF7FFFFB0
:1032D000FFFFFFFFFFFF81FFFFFFFFFFF3C1FFF7CE
:1032E000FFFFFEF7FFF6DFFFF67FFFF7FFFFFFFFB1
:1032F000FFFFFFFFFFFFFFFFFFFFE388FFF7FFFF79
:10330000FDF7FFFB3FFFEFFFFFF7FFFFFFFFFFFFB3
:10331000FFFFFFFFFFFFFFFFE79C7FF7FFFFFDF7CA
:10332000FFFFFFFFF7FFFFF7FFFFFFFFFFFFFFFCC0
:10333000CFFFFFFFFFFFC79E7FF7FFFFFE0FFFF7E7
:10334000FFFFE03FFFF7FFFFFFFFFFFFFFF8C1FFB9
:10335000FFFFFFFFCFBE7FF7FFFFFFFFFFFBFFFF7A
:10336000FFFFFFF7FFFFFFFFFFFFFFF1C1FFFFFFC1
:10337000FFFFCFBE7FF7FFFFEC07FFF01FFFEFBFA0
:10338000FFF7FFFFFFFFFFFFFFF3D9FFFFFFFFFF87
:10339000CF3E7FF7FFFFFFFFFFFFFFFF803FFFF7FD
:1033A000FFFFFFFFFFFFFFF3DCFFFFFFFFFFCF3E4D
:1033B0007FF7FFFFE7FFFFF7DFFFEFFFFFF7FFFFFD
:1033C000FFFFFFFFFFF3FCFFFFFFFFFFCF3E7FF795
:1033D000FFFFF8FFFFC01FFFFFFFFFF7FFFFFFFF2B
:1033E000FFFFFFF1FCFFFFFFFFFFC67C7FF7FFFF42
:1033F000FF1FFFF7FFFF003FFFF7FFFFFFFFFFFF8C
:10340000FFF8F8FFFFFFFFFFE27CFFF7FFFFFFE79A
:10341000FF801FFFFFFFFFF7FFFFFFFFFFFFFFFC26
:1034200001FFFFFFFFFFF0F0FFF7FFFFFF1FFFFFB0
:10343000FFFF00FFFFF7FFFFFFFFFFFFFFFE03FFA0
:10344000FFFFFFFFFFF1FFF7FFFFF0FFFF807FFFB0
:10345000FF7FFFF7FFFFFFFFFFFFFFFFCFFFFFFF34
:10346000FFFFFFF7FFF7FFFFEFFFFFFFBFFFFFBF0C
:10347000FFF7FFFFFFFFFFFFFFFFFFFFFFFFFFFF64
:10348000FFFFFFF7FFFFF0FFFFFFDFFFFFBFFFF7CB
:10349000FFFFFFFFFFFFFFFFFFFFFFFFFFFFC0007A
:1034A0007FF7FFFFFF1FFFFFDFFFFFBFFFF7FFFFFC
:1034B000FFFFFFFFFFFFFFFFFFFFFFFFC0007FF7E2
:1034C000FFFFFFE7FFFFDFFFFF7FFFF7FFFFFFFFCC
:1034D000FFFFFFFFFFFFFFFFFFFFFFFFFFF7FFFF04
:1034E000FF1FFFFFBFFF00FFFFF7FFFFFFFFFFFF13
:1034F000FFFFFFFFFFFFFFFFFFFFFFF7FFFFF8FFEB
:10350000FF807FFFFFFFFFF7FFFFFFFFFFFFFFFFD2
:10351000FFFFFFFFFFFFFFFFFFF7FFFFE7FFFFFFDB
:10352000FFFFFFFFFFF7FFFFFFFFFFFFFFFFFFFFB3
:10353000FFFFFFFFFC07FFF7FFFFFFFFFFFFFFFF9E
:10354000FFFFFFF7FFFFFFFFFFFFFFFFFFFFFFFF93
:10355000FFFFF001FFF7FFFFFFFFFFFFFFFFFFFF90
:10356000FFF7FFFFFFFFFFFFFFFFFFFFFFFFFFFF73
:10357000F1E1FFF7FFFFFFFFFFFFFFFFFFFFFFF797
:10358000FFFFFFFFFFFFFFFFFFFFFFFFFFFFE3FC6A
:10359000FFF7FFFFFFFFFFFFFFFFFFFFFFF7FFFF4B
:1035A000FFFFFFFFFFFFFFFFFFFFFFFFC7FCFFF76E
:1035B000FFFFFFFFFFFFFFFFFFFFFFF7FFFFFFFF23
:1035C000FFFFFFFFFFFFFFFFFFFFCFFE7FF7FFFFC4
:1035D000FFFFFFFFFFFFFFFFFFF7FFFFFFFFFFFF03
:1035E000FFFFFFFFFFFFFFFFCFFE7FF7FFFFFFFFA4
:1035F000FFFFFFFFFFFFFFF7FFFFFFFFFFFFFFFFE3
:10360000FFFFFFFFFFFFCFFE7FF7FFFFFFFFFFFF83
:10361000FFFFFFFFFFF7FFFFFFFFFFFFFFFFFFFFC2
:10362000FFFFFFFFCFFE7FF7FFFFFFFFFFFFFFFF63
:10363000FFFFFFF7FFFFFFFFFFFFFFFFFFFFFFFFA2
:10364000FFFFCFFE7FF7FFFFFFFFFFFFFFFFFFFF43
:10365000FFF7FFFFFFFFFFFFFFFFFFFFFFFFFFFF82
:10366000CFFE7FF7F800000000000000000000001F
:10367000000000000000000000003FFFFFFFCFFE41
:103680007FF7FFFFFFFFFFFFFFFFFFFFFFF7FFFFDA
:10369000FFFFFFFFFFFFFFFFFFFFFFFFC0007FF700
:1036A000FFFFFFFFFFFFFFFFFFFFFFF7FFFFFFFF32
:1036B000FFFFFFFFFFFFFFFFFFFFC0007FF7FFFFE0
:1036C000FFFFFFFFFFFFFFFFFFF7FFFFFFFFFFFF12
:1036D000FFFFFFFFFFFFFFFFFFFFFFF7FFFFFFFF02
:1036E000FFFFFFFFFFFFFFF7FFFFFFFFFFFFFFFFF2
:1036F000FFFFFFFFFFFFFFFFFFF7FFFFFFFFFFFFE2
:10370000FFFFFFFFFFF7FFFFFFFFFFFFFFFFFFFFD1
:10371000FFFFFFFFFFFFFFF7FFFFFFFFFFFFFFFFC1
:10372000FFFFFFF7FFFFFFFFFFFFFFFFFFFFFFFFB1
:10373000FFFFFFFFFFF7FFFFFFFFFFFFFFFFFFFFA1
:10374000FFF7FFFFFFFFFFFFFFFFFFFFFFFFFFFF91
:10375000FFFFFFF7FFFFFFFFFFFFFFFFFFFFFFF789
:10376000FFFFFFFFFFFFFFFFFFFFFFFFFFFFFFFF69
:10377000FFF7FFFFFFFFFFFFFFFFFFFFFFF7FFFF69
:10378000FFFFFFFFFFFFFFFFFFFFFFFFFFFFFFF751
:10379000FFFFFFFFFFFFFFFFFFFFFFF7FFFFFFFF41
:1037A000FFFFFFFFFFFFFFFFFFFFFFFFFFF7FFFF31
:1037B000FFFFFFFFFFFFFFFFFFF7FFFFFFFFFFFF21
:1037C000FFFFFFFFFFFFFFFFF9FE7FF7FFFFFFFF98
:1037D000FFFFFFFFFFFFFFF7FFFFFFFFFFFFFFFF01
:1037E000FFFFFFFFFFFFE07C7FF7FFFFFFFFFFFF13
:1037F000FFFFFFFFFFF7FFFFFFFFFFFFFFFFFFFFE1
:10380000FFFFFFFFE670FFF7F80003FFFFFFFFFF7A
:10381000FFFFFFF7FFFFFFFFFFFFFFFFFFFFFFFFC0
:10382000FFFFC761FFF7F80003FFFFFFFFFFFFFF88
:10383000FFF7FFFFFFFFFFFFFFFFFFFFFFFFFFFFA0
:10384000CF07FFF7F80003FFFFFFFFFFFFFFFFF7C2
:10385000FFFFFFFFFFFFFFFFFFFFFFFFFFFFCF1F88
:10386000FFF7F80003FFFFFFFFFFFFFFFFF7FFFF7A
:10387000FFFFFFFFFFFFFFFFFFFFFFFFCF1FFFF770
:10388000F80003FFFFFFFFFFFFFFFFF7FFFFFFFF52
:10389000FFFFFFFFFFFFFFFFFFFFCF3FFFF7F80036
:1038A00003FFFFFFFFFFFFFFFFF7FFFFFFFFFFFF2C
:1038B000FFFFFFFFFFFFFFFFCF3FFFF7F80003FF12
:1038C000FFFFFFFFFFFFFFF7FFFFFFFFFFFFFFFF10
:1038D000FFFFFFFFFFFFCF3FFFF7F80003FFFFFFF2
:1038E000FFFFFFFFFFF7FFFFFFFFFFFFFFFFFFFFF0
:1038F000FFFFFFFFCF3FFFF7F80003FFFFFFFFFFD2
:10390000FFFFFFF7FFFFFFFFFFFFFFFFFFFFFFFFCF
:10391000FFFFCF3FFFF7F80003FFFFFFFFFFFFFFB1
:10392000FFF7FFFFFFFFFFFFFFFFFFFFFFFFFFFFAF
:10393000C0007FF7F80003FFFFFFFFFFFFFFFFF767
:10394000FFFFFFFFFFFFFFFFFFFFFFFFFFFFC000C5
:103950007FF7F80003FFFFFFFFFFFFFFFFF7FFFF09
:10396000FFFFFFFFFFFFFFFFFFFFFFFFFFFFFFF76F
:10397000F80003FFFFFFFFFFFFFFFFF7FFFFFFFF61
:10398000FFFFFFFFFFFFFFFFFFFFFFFFFFF7F80055
:1039900003FFFFFFFFFFFFFFFFF7FFFFFFFFFFFF3B
:1039A000FFFFFFFFFFFFFFFFFFFE7FF7F80003FFB2
:1039B000FFFFFFFFFFFFFFF7FFFFFFFFFFFFFFFF1F
:1039C000FFFFFFFFFFFFCF3E7FF7F80003FFFFFF82
:1039D000FFFFFFFFFFF7FFFFFFFFFFFFFFFFFFFFFF
:1039E000FFFFFFFFCF3E7FF7F80003FFFFFFFFE081
:1039F00000FFFFF7FFFFFFFFFFFFFFFFFFFFFFFFDE
:103A0000FFFFCF3E7FF7F80003FFFFFFFE00000F30
:103A1000FFF7FFFFFFFFFFFFFFFFFFFFFFFFFFFFBE
:103A2000CF3E7FF7F80003FFFFFFF8000003FFF72A
:103A3000FFFFFFFFFFFFFFFFFFFFFFFFFFFFCF3E87
:103A40007FF7F80003FFFFFFF0000001FFF7FFFF23
:103A5000FFFFFFFFFFFFFFFFFFFFFFFFCF3E7FF7EF
:103A6000F80003FFFFFFE0000000FFF7FFFFFFFF8C
:103A7000FFFFFFFFFFFFFFFFFFFFCF3E7FF7F800D5
:103A800003FFFFFFE00FFE00FFF7FFFFFFFFFFFF59
:103A9000FFFFFFFFFFFFFFFFCF3E7FF7F80003FFB1
:103AA000FFFFC07FFFC07FF7FFFFFFFFFFFFFFFFAC
:103AB000FFFFFFFFFFFFCF3E7FF7F80003FFFFFF91
:103AC000C0FFFFE07FF7FFFFFFFFFFFFFFFFFFFFEC
:103AD000FFFFFFFFCF3E7FF7F80003FFFFFFC1FFAF
:103AE000FFF07FF7FFFFFFFFFFFFFFFFFFFFFFFF7D
:103AF000FFFFC0007FF7F80003FFFFFFC1FFFFF0EB
:103B00007FF7FFFFFFFFFFFFFFFFFFFFFFFFFFFF4D
:103B1000C0007FF7F80003FFFFFFC1FFFFF07FF752
:103B2000FFFFFFFFFFFFFFFFFFFFFFFFFFFFFFFFA5
:103B3000FFF7F80003FFFFFFC1FFFFF07FF7FFFF74
:103B4000FFFFFFFFFFFFFFFFFFFFFFFFFFFFFFF78D
:103B5000F80003FFFFFFC0FFFFE07FF7FFFFFFFF5D
:103B6000FFFFFFFFFFFFFFFFFFFFFFFFFFF7F80073
:103B700003FFFFFFC07FFFC07FF7FFFFFFFFFFFFD7
:103B8000FFFFFFFFFFFFFFFFF07FFFF7F80003FFDE
:103B9000FFFFE00FFE00FFF7FFFFFFFFFFFFFFFF4C
:103BA000FFFFFFFFFFFFE03FFFF7F80003FFFFFF0E
:103BB000E0000000FFF7FFFFFFFFFFFFFFFFFFFF39
:103BC000FFFFFFFFC73FFFF7F80003FFFFFFF00015
:103BD0000001FFF7FFFFFFFFFFFFFFFFFFFFFFFFFA
:103BE000FFFFCF9FFFF7F80003FFFFFFF800000380
:103BF000FFF7FFFFFFFFFFFFFFFFFFFFFFFFFFFFDD
:103C0000CF9FFFF7F80003FFFFFFFE00000FFFF755
:103C1000FFFFFFFFFFFFFFFFFFFFFFFFFFFFCF9F44
:103C2000FFF7F80003FFFFFFFFE000FFFFF7FFFFD4
:103C3000FFFFFFFFFFFFFFFFFFFFFFFFCF9FFFF72C
:103C4000F80003FFFFFFFFFFFFFFFFF7FFFFFFFF8E
:103C5000FFFFFFFFFFFFFFFFFFFFCF9FFFF7F80012
:103C600003FFFFFFFFFFF01FFFF7FFFFFFFFFFFF57
:103C7000FFFFFFFFFFFFFFFFCF9FFFF7F80003FFEE
:103C8000FFFFFE07C007FFF7FFFFFFFFFFFFFFFF7C
:103C9000FFFFFFFFFFFFCF9FFFF7F80003FFFFFFCE
:103CA000F8038003FFF7FFFFFFFFFFFFFFFFFFFFAA
:103CB000FFFFFFFFCF9FFFF7F80003FFFFFFF001BB
:103CC0000001FFF7FFFFFFFFFFFFFFFFFFFFFFFF09
:103CD000FFFFC0007FF7F80003FFFFFFE0000000D8
:103CE000FFF7FFFFFFFFFFFFFFFFFFFFFFFFFFFFEC
:103CF000C0007FF7F80003FFFFFFE0000780FFF739
:103D0000FFFFFFFFFFFFFFFFFFFFFFFFFFFFFFFFC3
:103D1000FFF7F80003FFFFFFC0601FE07FF7FFFF22
:103D2000FFFFFFFFFFFFFFFFFFFFFFFFFFFC7FF72E
:103D3000F80003FFFFFFC0F01FE07FF7FFFFFFFF6A
:103D4000FFFFFFFFFFFFFFFFFFFFFFF07FF7F80020
:103D500003FFFFFFC1F83FF07FF7FFFFFFFFFFFF0B
:103D6000FFFFFFFFFFFFFFFFFFE1FFF7F80003FF8B
:103D7000FFFFC1F83FF07FF7FFFFFFFFFFFFFFFFEF
:103D8000FFFFFFFFFFFFFF03FFF7F80003FFFFFF49
:103D9000C1F83FF07FF7FFFFFFFFFFFFFFFFFFFFCF
:103DA000FFFFFFFFFC0FFFF7F80003FFFFFFC1F865
:103DB0003FF07FF7FFFFFFFFFFFFFFFFFFFFFFFF6A
:103DC000FFFFF84FFFF7F80003FFFFFFC0F01FE011
:103DD0007FF7FFFFFFFFFFFFFFFFFFFFFFFFFFFF7B
:103DE000E1CFFFF7F80003FFFFFFC0601FE07FF7A0
:103DF000FFFFFFFFFFFFFFFFFFFFFFFFFFFFC7CF3B
:103E0000FFF7F80003FFFFFFE0000780FFF7FFFF69
:103E1000FFFFFFFFFFFFFFFFFFFFFFFFC3CFFFF726
:103E2000F80003FFFFFFE0000000FFF7FFFFFFFFC8
:103E3000FFFFFFFFFFFFFFFFFFFFE0CFFFF7F800EF
:103E400003FFFFFFF0010001FFF7FFFFFFFFFFFF90
:103E5000FFFFFFFFFFFFFFFFF80FFFF7F80003FF73
:103E6000FFFFF8038003FFF7FFFFFFFFFFFFFFFFE8
:103E7000FFFFFFFFFFFFFE07FFF7F87FA3FFFFFF36
:103E8000FE07C007FFF7FFFFFFFFFFFFFFFFFFFF7A
:103E9000FFFFFFFFFF83FFF7F87FA3FFFFFFFFFF99
:103EA000E01FFFF7FFFFFFFFFFFFFFFFFFFFFFFF29
:103EB000FFFFFFF0FFF7F80003FFFFFFFFFFFFFF2B
:103EC000FFF7FFFFFFFFFFFFFFFFFFFFFFFFFFFF0A
:103ED000FFF87FF7F80003FFFFFFFFFFFFFFFFF78B
:103EE000FFFFFFFFFFFFFFFFFFFFFFFFFFFFFFFFE2
:103EF0007FF7F80003FFFFFFFFFFFFFFFFF7FFFF64
:103F0000FFFFFFFFFFFFFFFFFFFFFFFFE07FFFF768
:103F1000F80003FFFFFFFFFFFFFFFFF7FFFFFFFFBB
:103F2000FFFFFFFFFFFFFFFFFFFFE03FFFF7F8008E
:103F300003FFFFFFFFFFFFF07FF7FFFFFFFFFFFF24
:103F4000FFFFFFFFFFFFFFFFE73FFFF7F84003FF23
:103F5000FFFFFFFFFFF07FF7FFFFFFFFFFFFFFFF08
:103F6000FFFFFFFFFFFFCF9FFFF7F84003FFFFFFBB
:103F7000FFFFFFF07FF7FFFFFFFFFFFFFFFFFFFFE8
:103F8000FFFFFFFFCF9FFFF7F84003FFFFFFFFFF9B
:103F9000FFF07FF7FFFFFFFFFFFFFFFFFFFFFFFFC8
:103FA000FFFFCF9FFFF7F84003FFFFFFFFFFFFF08A
:103FB0007FF7FFFFFFFFFFFFFFFFFFFFFFFFFFFF99
:103FC000CF9FFFF7F87FE3FFFFFFFFFFFFFFFFF744
:103FD000FFFFFFFFFFFFFFFFFFFFFFFFFFFFCF9F81
:103FE000FFF7F87FE3FFFFFFFFFFFFFFFFF7FFFF94
:103FF000FFFFFFFFFFFFFFFFFFFFFFFFCF9FFFF769
:10400000F84003FFFFFFFFFFFFFFFFF7FFFFFFFF8A
:10401000FFFFFFFFFFFFFFFFFFFFCF9FFFF7F8400E
:1040200003FFFFFFFFC000FFFFF7FFFFFFFFFFFFE2
:10403000FFFFFFFFFFFFFFFFCF9FFFF7F84003FFEA
:10404000FFFFFE00001FFFF7FFFFFFFFFFFFFFFF67
:10405000FFFFFFFFFFFFC0007FF7F84003FFFFFFF8
:10406000FC000007FFF7FFFFFFFFFFFFFFFFFFFF61
:10407000FFFFFFFFC0007FF7F81083FFFFFFF8008E
:104080000003FFF7FFFFFFFFFFFFFFFFFFFFFFFF43
:10409000FFFFFFFFFFF7F830C3FFFFFFF000000155
:1040A000FFF7FFFFFFFFFFFFFFFFFFFFFFFFFFFF28
:1040B000FFFFFFF7F86063FFFFFFE03E0600FFF73A
:1040C000FFFFFFFFFFFFFFFFFFFFFFFFFFFFFFCF30
:1040D000FFF7F84023FFFFFFE0FF03C0FFF7FFFFFC
:1040E000FFFFFFFFFFFFFFFFFFFFFFFFFFCFFFF718
:1040F000F84023FFFFFFC0FF83E07FF7FFFFFFFFD4
:10410000FFFFFFFFFFFFFFFFFFFFFFCFFFF7F840BD
:1041100023FFFFFFC1FFC1F07FF7FFFFFFFFFFFF9E
:10412000FFFFFFFFFFFFFFFFFFCFFFF7F86063FF19
:10413000FFFFC1FFC1F07FF7FFFFFFFFFFFFFFFFA2
:10414000FFFFFFFFFFFFFFCFFFF7F830E3FFFFFFA9
:10415000C1FFC1F07FF7FFFFFFFFFFFFFFFFFFFF82
:10416000FFFFFFFFFFCFFFF7F83FC3FFFFFFC1FFD8
:10417000C1F07FF7FFFFFFFFFFFFFFFFFFFFFFFF24
:10418000FFFFFFFFFFF7F80F03FFFFFFC0FF81E016
:104190007FF7FFFFFFFFFFFFFFFFFFFFFFFFFFFFB7
:1041A000CFFE7FF7F80003FFFFFFC07F81C07FF7DE
:1041B000FFFFFFFFFFFFFFFFFFFFFFFFFFFFCF3E00
:1041C0007FF7F87F83FFFFFFE03E0300FFF7FFFF6D
:1041D000FFFFFFFFFFFFFFFFFFFFFFFFCF3E7FF768
:1041E000F87FC3FFFFFFE0000300FFF7FFFFFFFFC3
:1041F000FFFFFFFFFFFFFFFFFFFFCF3E7FF7F8004E
:1042000063FFFFFFF0000701FFF7FFFFFFFFFFFF66
:10421000FFFFFFFFFFFFFFFFCF3E7FF7F80023FF09
:10422000FFFFF8000F03FFF7FFFFFFFFFFFFFFFF98
:10423000FFFFFFFFFFFFCF3E7FF7F80023FFFFFFE9
:10424000FC001F1FFFF7FFFFFFFFFFFFFFFFFFFF48
:10425000FFFFFFFFCF3E7FF7F80023FFFFFFFF00C8
:104260007FFFFFF7FFFFFFFFFFFFFFFFFFFFFFFFE6
:10427000FFFFCF3E7FF7F80063FFFFFFFFFFFFFF69
:10428000FFF7FFFFFFFFFFFFFFFFFFFFFFFFFFFF46
:10429000CF3E7FF7F87FC3FFFFFFFFFFFFFFFFF772
:1042A000FFFFFFFFFFFFFFFFFFFFFFFFFFFFCF3E0F
:1042B0007FF7F87F83FFFFFFFFFFFFFFFFF7FFFFA1
:1042C000FFFFFFFFFFFFFFFFFFFFFFFFCF3E7FF777
:1042D000F80003FFFFFFFFFFFFFFFFF7FFFFFFFFF8
:1042E000FFFFFFFFFFFFFFFFFFFFC0007FF7F81F8B
:1042F00083FFFFFFFFFFFFFFFFF7FFFFFFFFFFFF52
:10430000FFFFFFFFFFFFFFFFC0007FF7F83FC3FF86
:10431000FFFFFFFFFFFFFFF7FFFFFFFFFFFFFFFFB5
:10432000FFFFFFFFFFFFFFFFFFF7F870E3FFFFFF57
:10433000FFFFFFFFFFF7FFFFFFFFFFFFFFFFFFFF95
:10434000FFFFFFFFFFFFFFF7F86063FFFFFFFFFFC7
:10435000FFFFFFF7FFFFFFFFFFFFFFFFFFFFFFFF75
:10436000FFFFFFFFFFF7F84023FFFFFFC000000043
:104370007FF7FFFFFFFFFFFFFFFFFFFFFFFFFFFFD5
:10438000FFFFFFF7F84023FFFFFFC00000007FF7AB
:10439000FFFFFFFFFFFFFFFFFFFFFFFFFFFFFFFF2D
:1043A000FFF7F84023FFFFFFC00000007FF7FFFF8B
:1043B000FFFFFFFFFFFFFFFFFFFFFFFFFFFFFFF715
:1043C000F84023FFFFFFC00000007FF7FFFFFFFF63
:1043D000FFFFFFFFFFFFFFFFFFFFFFFFFFF7F87F7C
:1043E000E3FFFFFFF00000007FF7FFFFFFFFFFFF8D
:1043F000FFFFFFFFFFFFFFFFFFFFFFF7F87FE3FF78
:10440000FFFFF81FFFFFFFF7FFFFFFFFFFFFFFFFAB
:10441000FFFFFFFFFFFFC0007FF7F80003FFFFFF74
:10442000FC0FFFFFFFF7FFFFFFFFFFFFFFFFFFFF97
:10443000FFFFFFFFC0007FF7F80F03FFFFFFFE0F36
:10444000FFFFFFF7FFFFFFFFFFFFFFFFFFFFFFFF84
:10445000FFFFFF3FFFF7F83FC3FFFFFFFE07FFFF30
:10446000FFF7FFFFFFFFFFFFFFFFFFFFFFFFFFFF64
:10447000FF3FFFF7F830C3FFFFFFFF07FFFFFFF726
:10448000FFFFFFFFFFFFFFFFFFFFFFFFFFFFFF3FFC
:10449000FFF7F86063FFFFFFFF83FFFFFFF7FFFFFA
:1044A000FFFFFFFFFFFFFFFFFFFFFFFFFF3FFFF7E4
:1044B000F84023FFFFFFFF83FFFFFFF7FFFFFFFF32
:1044C000FFFFFFFFFFFFFFFFFFFFFF3FFFF7F8408A
:1044D00023FFFFFFFFFFFFFFFFF7FFFFFFFFFFFFD0
:1044E000FFFFFFFFFFFFFFFFFF3FFFF7F84023FF46
:1044F000FFFFFFFFFFFFFFF7FFFFFFFFFFFFFFFFD4
:10450000FFFFFFFFFFFFFF3FFFF7F86063FFFFFFC5
:10451000FFFFFFFFFFF7FFFFFFFFFFFFFFFFFFFFB3
:10452000FFFFFFFFFF3FFFF7F830C3FFFFFFFFFF75
:10453000FFFFFFF7FFFFFFFFFFFFFFFFFFFFFFFF93
:10454000FFFFFF3FFFF7F83FC3FFFFFFFFFFFFFF46
:10455000FFF7FFFFFFFFFFFFFFFFFFFFFFFFFFFF73
:10456000FF3FFFF7F80F03FFFFFFFFFFFFFFFFF71E
:10457000FFFFFFFFFFFFFFFFFFFFFFFFFFFFC00089
:104580007FF7F80003FFFFFFFFFFFFFFFFF7FFEFDD
:10459000FFFFFFFFFFFFFFFFFFFFFFFFC0007FF7F1
:1045A000F83C23FFFFFFFFFFFFFFFFF7FFEFFFFFD9
:1045B000FFFFFFFFFFFFFFFFFFFFFFFFFFF7F87E9B
:1045C00063FFFFFFFFFFFFFFFFF7FFE7FFFFFFFFB7
:1045D000FFFFFFFFFFFFFFFFFFFFFFF7F862C3FFD3
:1045E000FFFFFFFFFFFFFFF7FFE01FFFFFFFFFFFE2
:1045F000FFFFFFFFFFFFFFF7FFF7F84383FFFFFF1A
:10460000FFFFFFFFFFF7FFE01FFF00FFFFFFFFFFC0
:10461000FFFFFFFFF9F1FFF7F84303FFFFFFFFFF85
:10462000FFFFFFF7FFFFFFFEFF7FFFFFFFFFFFFF23
:10463000FFFFE1F0FFF7F84203FFFFFFFFFFFFFF7F
:10464000FFF7FFF1BFFEFF7FFFFFFFFFFFFFFFFF51
:10465000E7FCFFF7F84203FFFFFFFFFFFFFFFFF755
:10466000FFE19FFEFF7FFFFFFFFFFFFFFFFFCFFC8C
:10467000FFF7F84203FFFFFFFFFFFFFFFFF7FFED2C
:10468000DFFEFF7FFFFFFFFFFFFFFFFFCFFE7FF794
:10469000F87FE3FFFFFFFFFFFFFFFFF7FFEDDFFF07
:1046A00000FFFFFFFFFFFFFFFFFFCFFE7FF7F87F59
:1046B000E3FFFFFFFFFFFFFFFFF7FFEDDFFFFDFF62
:1046C000FFFFFFFFFFFFFFFFCFFE7FF7F80003FFB5
:1046D000FFFFFFFFFFFFFFF7FFE01FFE007FFFFF71
:1046E000FFFFFFFFFFFFCFFE7FF7F83C03FFFFFF59
:1046F000FFFFFFFFFFF7FFF03FFF3DFFFFFFFFFF63
:10470000FFFFFFFFCFFE7FF7F87E03FFFFFFFFFFF6
:10471000FFFFFFF7FFFFFFFFCDFFFFFFFFFFFFFFE3
:10472000FFFFE7FC7FF7F86603FFFFFFFFFFFFFFD8
:10473000FFF7FFF03FFFF1FFFFFFFFFFFFFFFFFF6E
:10474000E7FCFFF7F84203FFFFFFFFFFFFFFFFF764
:10475000FFE01FFFFDFFFFFFFFFFFFFFFFFFE3F88D
:10476000FFF7F84203FFFFFFFFFFFFFFFFF7FFEF39
:10477000DFFFFFFFFFFFFFFFFFFFFFFFF0F1FFF78E
:10478000F84203FFFFFFFFFFFFFFFFF7FFEFDFFF31
:104790000F7FFFFFFFFFFFFFFFFFF803FFF7F84268
:1047A00003FFFFFFFFFFFEF1FFF7FFE79FFEF77F2D
:1047B000FFFFFFFFFFFFFFFFFF07FFF7F87FE3FFAC
:1047C000FFFFFFFFFCE0FFF7FFE003FEFB7FFFFFC3
:1047D000FFFFFFFFFFFFFFFFFFF7F87FE3FFFFFF94
:1047E000FFFFFDECFFF7FFE003FEFD7FFFFFFFFF94
:1047F000FFFFFFFFFFFFFFF7F80003FFFFFFFFFFD3
:10480000FC007FF7FFFFFFFEFE7FFFFFFFFFFFFFC4
:10481000FFFFC0007FF7F80003FFFFFFFFFFFC0072
:104820007FF7FFF01FFF7F7FFFFFFFFFFFFFFFFF0F
:10483000C0007FF7F80003FFFFFFFFFFFCDCFFF77E
:10484000FFE01FFFFFFFFFFFFFFFFFFFFFFFFFF87E
:10485000FFF7F80003FFFFFFFFFFFC18FFF7FFED76
:104860009FFFFFFFFFFFFFFFFFFFFFFFFFF1FFF7CE
:10487000F80003FFFFFFFFFFFE39FFF7FFEDDFFF4B
:10488000FFFFFFFFFFFFFFFFFFFFFFE7FFF7F860FE
:1048900003FFFFFFFFFFFFFFFFF7FFECDFFFDF7FFF
:1048A000FFFFFFFFFFFFFFFFFF8FFFF7F87C03FF16
:1048B000FFFFFFFFFFFFFFF7FFE61FFFE4FFFFFF24
:1048C000FFFFFFFFFFFFFF1FFFF7F81FC3FFFFFF03
:1048D000FFFFFFFFFFF7FFF63FFFFBFFFFFFFFFFBD
:1048E000FFFFFFFFFE3FFFF7F803E3FFFFFFFFFFC0
:1048F000FFFFFFF7FFFFFFFFE4FFFFFFFFFFFFFFEB
:10490000FFFFF8FFFFF7F801E3FFFFFFFFFFFFFFE7
:10491000FFF7FFF03FFFDF7FFFFFFFFFFFFFFFFF1E
:10492000F9FFFFF7F80783FFFFFFFFFFFFFFFFF728
:10493000FFE01FFFFFFFFFFFFFFFFFFFFFFFE3FFA2
:10494000FFF7F83E03FFFFFFFFFFFFFFFFF7FFEF5B
:10495000DFFFFFFFFFFFFFFFFFFFFFFFC0007FF74D
:10496000F87803FFFFFFFFFFFFFFFFF7FFEFDFFF19
:10497000FFFFFE2FFFFFFFFFFFFFC0007FF7F8786C
:1049800003FFFFFFFFFFFFFFFFF7FFE79FFFFFFFB3
:10499000FDB7FFFFFFFFFFFFFFFFFFF7F83E03FF3D
:1049A000FFFFFFFFFFFFFFF7FFE003FFFFFFFDB784
:1049B000FFFFFFFFFFFFFFFFFFF7F80783FFFFFF8A
:1049C000FFFFFFFFFFF7FFE003FF70FFFDB7FFFFF3
:1049D000FFFFFFFFFFFFFFF7F801E3FFFFFFFFFF10
:1049E000FFFFFFF7FFFFFFFEEF7FFE0FFFFFFFFF61
:1049F000FFFFC0007FF7F803E3FFFFFFFFFFFFFFAC
:104A0000FFF7FFFEFFFEEF7FFFFFFFFFFFFFFFFF50
:104A1000C0007FF7F81FC3FFFFFFFFFFFFFFFFF797
:104A2000FFFEFFFEEF7FFDF7FFFFFFFFFFFFFFFF32
:104A3000FFF7F87C03FFFFFFFFFFFFFFFFF7FFFE1D
:104A4000FFFEF77FF007FFFFFFFFFFFFFFFFFFF70E
:104A5000F86003FFFFFFFFFFFFFFFFF7FFFEFFFF11
:104A600000FFFDFFFFFFFFFFFFFFFFFFFFF7F84421
:104A700023FFFFFFFFFFFFFFFFF7FFFEFFFFFFFF2B
:104A8000EC07FFFFFFFFFFFFFFFFFFF7F84423FFE7
:104A9000FFFFFFFFFFFFFFF7FFBBDFFFFFFFFFFF92
:104AA000FFFFFFFFFFFFFFFFFFF7F84423FFFFFFBC
:104AB000FFFFFFFFFFF7FFBBDFFE007FFFFFFFFFF2
:104AC000FFFFFFFFFFFFFFF7F84423FFFFFFFFFF9C
:104AD000FFFFFFF7FFBBDFFF7FFFFE07FFFFFFFFCB
:104AE000FFFFFFFFFFF7F84423FFFFFFFFFFFFFF7C
:104AF000FFF7FFBBDFFFBFFFFDFFFFFFFFFFFFFF74
:104B0000FFFFFFF7F84423FFFFFFFFFFFFFFFFF763
:104B1000FFBBDFFFFFFFFDFFFFFFFFFFFFFFFFFF0B
:104B2000FFF7F84423FFFFFFFFFFFFFFFFF7FFBB87
:104B3000DFFFFDFFFEFFFFFFFFFFFFFFFFFFFFF7B0
:104B4000F87FE3FFFFFFFFFFFFFFFFF7FFBBDFFE85
:104B5000007FE007FFFFFFFFFFFFFFFFFFF7F87F8A
:104B6000E3FFFFFFFFFFFFFFFFF7FF801FFF3DFF9A
:104B7000E7FFFFFFFFFFFFFFC0007FF7F80003FF25
:104B8000FFFFFFFFFFFFFFF7FF801FFFCDFFF8FFD5
:104B9000FFFFFFFFFFFFC0007FF7F87FE3FFFFFF8E
:104BA000FFFFFFFFFFF7FFFFFFFFF1FFFF1FFFFF0B
:104BB000FFFFFFFFE3FFFFF7F87FE3FFFFFFFFFFCC
:104BC000FFFFFFF7FFFFFFFFFDFFFFE7FFF17FFFA5
:104BD000FFFFF3FFFFF7F800C3FFFFFFFFFFFFFF3B
:104BE000FFF7FFFFFFFFFFFFFF1FFFEDBFFFFFFF0F
:104BF000FBFFFFF7F80383FFFFFFFFFFFFFFFFF758
:104C0000FFFFFFFFFFFFF0FFFFEDBFFFFFFFFFFF15
:104C1000FFF7F80703FFFFFFFFFFFFFFFFF7FFFFAF
:104C2000FFFFFFFFEFFFFFEDBFFFFFFFFFFFFFF7FE
:104C3000F81C03FFFFFFFFFFFFFFFFF7FFFFFFFF72
:104C4000FFFFF0FFFFF07FFFFFFFFFFFFFF7F838E8
:104C500003FFFFFFFFFFFFFFFFF7FFF01FFFFFFF57
:104C6000FF1FFFFFFFFFFFFFFFFFFFF7F87FE3FFDF
:104C7000FFFFFFFFFFFFFFF7FFE01FFFDF7FFFE703
:104C8000FFFFFFFFFFFFCFFFFFF7F87FE3FFFFFF0F
:104C9000FFFFFFFFFFF7FFEFFFFFFFFFFF1FFFF724
:104CA0007FFFFFFFCFFFFFF7F80003FFFFFFFFFFCE
:104CB000FFFFFFF7FFEFFFFFFFFFF8FFFFEFBFFF73
:104CC000FFFFC3FFFFF7F80003FFFFFFFFFFFFFF3A
:104CD000FFF7FFE7FFFFFFFFE7FFFFEFBFFFFFFF6C
:104CE000C0FFFFF7F80003FFFFFFFFFFFFFFFFF725
:104CF000FF801FFFFFFFFFFFFFEFBFFFFFFFCC7F26
:104D0000FFF7F80003FFFFFFFFFFFFFFFFF7FF8044
:104D10001FFFE07FFFFFFFF07FFFFFFFCC0FFFF7DC
:104D2000F80003FFFFFFFFFFFFFFFFF7FFFFFFFF9D
:104D3000DFFFFFFFFFFFFFFFFFFFCF83FFF7F8005D
:104D400003FFFFFFFFFFFFFFFFF7FFF3BFFFDFFFE3
:104D5000E007FFF03FFFFFFFCFC07FF7F80003FF42
:104D6000FFFFFFFFFFFFFFF7FFE39FFFEFFFFEF7F0
:104D7000FFED7FFFFFFFCFF87FF7F80003FFFFFF96
:104D8000FFFFFFFFFFF7FFE7DFFFC07FFDF7FFED4E
:104D9000BFFFFFFFCFFFFFF7F80003FFFFFFFFFF9D
:104DA000FFFFFFF7FFEFDFFFFFFFFDF7FFEDBFFFA7
:104DB000FFFFCFFFFFF7F80003FFFFFFFFFFFFFF3D
:104DC000FFF7FFEFDFFFE0FFFE0FFF767FFFFFFF44
:104DD000CFFFFFF7F80003FFFFFFFFFFFFFFFFF725
:104DE000FFE01FFFDF7FFFFFFF6FFFFFFFFFFFFF02
:104DF000FFF7F80003FFFFFFFFFFFFFFFFF7FFF0E4
:104E00003FFFDF7FFFFFFF803FFFFFFFFFFFFFF759
:104E1000F80003FFFFFFFFFFFFFFFFF7FFFFFFFFAC
:104E2000DF7FFE07FFEFFFFFFFFFFFFE7FF7F800CA
:104E300003FFFFFFFFFFFFFFFFF7FFF01FFFE0FF94
:104E4000FDFFFFF7FFFFFFFFFFFE7FF7F80003FF07
:104E5000FFFFFFFFFFFFFFF7FFE01FFFFFFFFDFF6B
:104E6000FFE03FFFFFFFFFFFFFF7F80003FFFFFF3B
:104E7000FFFFFFFFFFF7FFEFFFFFFFFFFEFFFFFF5B
:104E8000FFFFFFFFFFFFFFF7F80003FFFFFFFFFF3C
:104E9000FFFFFFF7FFEFFFFEC07FFC07FFFFFFFFF5
:104EA000FFFFFFE3FFF7F80003FFFFFFFFFFFFFF38
:104EB000FFF7FFE7FFFFFFFFFFFFFFF17FFFFFFFB0
:104EC000F3C1FFF7F80003FFFFFFFFFFFF7EFFF7CF
:104ED000FFE01FFFDF7FFE07FFEDBFFFFFFFE08862
:104EE000FFF7F80003FFFFFFFFFFFF7EFFF7FFE084
:104EF0001FFF007FFDAFFFEDBFFFFFFFE21CFFF7CD
:104F0000F80003FFFFFFFFFFFFFFFFF7FFFFFFFFBB
:104F1000DFFFFDB7FFEDBFFFFFFFCE3E7FF7F800DD
:104F200003FFFFFFFFFFFF8DFFF7FFA01FFFC07F05
:104F3000FDB7FFF07FFFFFFFCF3E7FF7F80003FFD5
:104F4000FFFFFFFFFF0CFFF7FFA01FFFFF7FFECF5C
:104F5000FFFFFFFFFFFFCF3E7FF7F80003FFFFFFDC
:104F6000FFFFFF6EFFF7FFFFFFFFFF7FFFFFFFEF7A
:104F7000BFFFFFFFCFBE7FF7F80003FFFFFFFFFF7C
:104F8000FF6EFFF7FFFFFFFFFF7FFFFFFF803FFF89
:104F9000FFFFC7FE7FF7F80003FFFFFFFFFFFF6E75
:104FA000FFF7FFFFFFFFC0FFFFFFFFEFFFFFFFFF68
:104FB000E7FCFFF7F80003FFFFFFFFFFFF00FFF72D
:104FC000FFFFFFFFFFFFFFFFFFF03FFFFFFFF3F8D3
:104FD000FFF7F80003FFFFFFFFFFFF81FFF7FFFF71
:104FE000FFFE007FFDF7FFEFFFFFFFFFF3FBFFF783
:104FF000F80003FFFFFFFFFFFFFFFFF7FFFFFFFFCB
:10500000FFFFFECFFFEFFFFFFFFFFFFFFFF7F800FF
:1050100003FFFFFFFFFFFF9DFFF7FFFFFFFFFFFF06
:10502000FF3FFFF7FFFFFFFFFFFFFFF7F80003FF62
:10503000FFFFFFFFFF1CFFF7FF801FFFE0FFFFBF29
:10504000FFE03FFFFFFFFFFFFFF7F80003FFFFFF59
:10505000FFFFFF3EFFF7FF801FFFDF7FE007FFFF3F
:10506000FFFFFFFFFFFFFFF7F80003FFFFFFFFFF5A
:10507000FF7EFFF7FFCFFFFFDF7FFFFFFF003FFF58
:10508000FFFFFFFFFFF7F80003FFFFFFFFFFFF7EBB
:10509000FFF7FFEFFFFFDF7FFFFFFFFFFFFFFFFFD8
:1050A000FFFFFFF7F80003FFFFFFFFFFFF00FFF721
:1050B000FFFFFFFFE0FFFEEFFFFFFFFFFFFFFFFF30
:1050C000FFF7F80003FFFFFFFFFFFF81FFF7FFFF80
:1050D000FFFFFFFFFDF7FFFFFFFFFFFFFFFFFFF7F2
:1050E000F80003FFFFFFFFFFFFFFFFF7FF9FFFFF3A
:1050F000ECFFFDF7FFFFFFFFFFFFFFFFFFF7F800EB
:1051000003FFFFFFFFFFFD00FFF7FF87FFFFDB7FD0
:10511000FDF7FFFFFFFFFFFFFFFFFFF7F80003FFB3
:10512000FFFFFFFFFD00FFF7FFA0FFFFDB7FFE0F8C
:10513000FF003FFFFFFFFFFFFFF7F80003FFFFFF48
:10514000FFFFFF7FFFF7FFB81FFFDB7FFFFFFFFFC2
:10515000FFFFFFFFFFFFFFF7F80003FFFFFFFFFF69
:10516000FF7FFFF7FFBF1FFFE6FFFE07FF87FFFF81
:10517000FFFFFFFFFFF7F80003FFFFFFFFFFFF3F09
:10518000FFF7FFBFFFFFFFFFFDAFFF7BFFFFFFFF4D
:10519000FFFFFFF7F80003FFFFFFFFFFFF00FFF730
:1051A000FFBFFFFFE2FFFDB7FF7BFFFFFFFFFFFF3A
:1051B000FFF7F80003FFFFFFFFFFFF00FFF7FFFF10
:1051C000FFFFDB7FFDB7FF7BFFFFFFFFFFFFFFF769
:1051D000F80003FFFFFFFFFFFFFFFFF7FFFFDFFF09
:1051E000DB7FFECFFF7BFFFFFFFFFFFFFFF7F80036
:1051F00003FFFFFFFFFFFE1FFFF7FFFFDFFFDB7F68
:10520000FFFFFF7BFFFFFFFFFFFFFFF7F80003FF3C
:10521000FFFFFFFFFC0FFFF7FFFFFFFFE0FFE007CF
:10522000FF003FFFFFFFFFFFFFF7F80003FFFFFF57
:10523000FFFFFCCFFFF7FFFFFFFFFFFFFFFFFFFFB9
:10524000FFFFFFFFFFFFFFF7F80003FFFFFFFFFF78
:10525000FDEFFFF7FFC43FFF0F7FF10FFF9C7FFFC4
:10526000FFFFFFFFFFF7F80003FFFFFFFFFFFDEF6A
:10527000FFF7FF801FFEF4FFEEF7FF7BBFFFFFFF8E
:10528000FFFFFFF7F80003FFFFFFFFFFFDEFFFF752
:10529000FFBBDFFEF3FFEEF7FF7BBFFFFFFFFFFF6C
:1052A000FFF7F80003FFFFFFFFFFFDEFFFF7FFBB76
:1052B000DFFEF7FFEEF7FF77BFFFFFFFFFFFFFF710
:1052C000F80003FFFFFFFFFFFC00FFF7FFBBDFFE5F
:1052D000F7FFEEF7FF77BFFFFFFFFFFFFFF7F800D5
:1052E00003FFFFFFFFFFFC00FFF7FF9F9FFEF7FF9D
:1052F000EEF7FF77BFFFFFFFFFFFFFF7F80003FFA9
:10530000FFFFFFFFFFFFFFF7FFDFBFFE007FE007AC
:10531000FF8E7FFFFFFFFFFFFFF7F80003FFFFFF98
:10532000FFFFFFFFFFF7FFFFFFFFFFFFFFFFFFFF95
:10533000FFFFFFFFFFFFFFF7F80003FFFFFFFFFF87
:10534000FFFFFFF7FFFFFFFFFFFFFFFFFFFFFFFF75
:10535000FFFFFFFFFFF7F80003FFFFFFFFFFFFFF67
:10536000FFF7FFFFFFFFFFFFFFFFFFFFFFFFFFFF55
:10537000FFFFFFF7F80003FFFFFFFFFFFFFFFFF74F
:10538000FFFFFFFFFFFFFFFFFFFFFFFFFFFFFFFF2D
:10539000FFF7FFFFFFFFFFFFFFFFFFFFFFF7FFFF2D
:1053A000FFFFFFFFFFFFFFFFFFFFFFFFFFFFFFF715
:1053B000FFFFFFFFFFFFFFFFFFFFFFF7FFFFFFFF05
:1053C000FFFFFFFFFFFFFFFFFFFFFFFFFFF7FFFFF5
:1053D000FFFFFFFFFFFFFFFFFFF7FFFFFFFFFFFFE5
:1053E000FFFFFFFFFFFFFFFFFFFFFFF7FFFFFFFFD5
:1053F000FFFFFFFFFFFFFFF7FFFFFFFFFFFFFFFFC5
:10540000FFFFFFFFFFFFFFFFFFF7FFFFFFFFFFFFB4
:10541000FFFFFFFFFFF7FFFFFFFFFFFFFFFFFFFFA4
:10542000FFFFFFFFFFFFFFF7FFFFFFFFFFFFFFFF94
:10543000FFFFFFF7FFFFFFFFFFFFFFFFFFFFFFFF84
:10544000FFFFFFFFFFF7FFFFFFFFFFFFFFFFFFFF74
:10545000FFF7FFFFFFFFFFFFFFFFFFFFFFFFFFFF64
:10546000FFFFFFFFFFFFFFFFFFFFFFFFFFFFFFF754
:10547000FFFFFFFFFFFFFFFFFFFFFFFFFFFFFFFF3C
:10548000FFFFFFFFFFFFFFFFFFFFFFFFFFFFFFFF2C
:10549000FFFFFFFFFFFFFFFFFFFFFFFFFFFFFFFF1C
:1054A000FFFFFFFFFFFFFFFFFFFFFFFFFFFFFFFF0C
:1056A000FFFFFFFFFFFFCFFFFFFFFFFFFFFF9FFF9A
:1056B000FFFFFFFFFFFFFFFFFFFFFFFFFFFFFFFFFA
:1056C000FFFFFFFFCFFFFFFFFFFFFFFF9FFFFFFF7A
:1056D000FFFFFFFFFFFFFFFFFFFFFFFFFFFFFFFFDA
:1056E000FFFFCFFFFFFFFFFFFFFF9FFFFFFFFFFF5A
:1056F000FFFFFFFFFFFFFFFFFFFFFFFFFFFFFFFFBA
:10570000CFFFFFFFFFFFFFFF9FFFFFFFFFFFFFFF39
:10571000FFFFFFFFFFFFFFFFFFFFFFFFFFFFCFFFC9
:10572000FFFFFFFFFFFF9FFFFFFFFFFFFFFFFFFFE9
:10573000FFFFFFFFFFFFFFFFFFFFFFFFCFFFFFFFA9
:10574000FFFFFFFF9FFFFFFFFFFFFFFFFFFFFFFFC9
:10575000FFFFFFFFFFFFFFFFFFFFCFFFFFFFFFFF89
:10576000FFFF9FFFFFFFFFFFFFFFFFFFFFFFFFFFA9
:10577000FFFFFFFFFFFFFFFFCFFFFFFFFFFFFFFF69
:105780009FFFFFFFFFFFFFFFFFFFFFFFFFFFFFFF89
:10579000FFFFFFFFFFFFCFFFFFFFFFFFFFFF9FFFA9
:1057A000FFFFFFFFFFFFFFFFFFFFFFFFFFFFFFFF09
:1057B000FFFFFFFFCFFFFFFFFFFFFFFF9FFFFFFF89
:1057C000FFFFFFFFFFFFFFFFFFFFFFFFFFFFFFFFE9
:1057D000FFFFCFFFFFFFFFFFFFFF9FFFFFFFFFFF69
:1057E000FFFFFFFFFFFFFFFFFFFFFFFFFFFFFFFFC9
:1057F000CFFFFFFFFFFFFFFF9FFFFFFFFFFFFFFF49
:10580000FFFFFFFFFFFFFFFFFFFFFFFFFFFFCFFFD8
:10581000FFFFFFFFFFFF9FFFFFFFFFFFFFFFFFFFF8
:10582000FFFFFFFFFFFFFFFFFFFFFFFFCFFFFFFFB8
:10583000FFFFFFFF9FFFFFFFFFFFFFFFFFFFFFFFD8
:10584000FFFFFFFFFFFFFFFFFFFFCFFFFFFFFFFF98
:10585000FFFF9FFFFFFFFFFFFFFFFFFFFFFFFFFFB8
:10586000FFFFFFFFFFFFFFFFCFFFFFFFFFFFFFFF78
:105870009FFFFFFFFFFFFFFFFFFFFFFFFFFFFFFF98
:10588000FFFFFFFFFFFFCFFFFFFFFFFFFFFF9FFFB8
:10589000FFFFFFFFFFFFFFFFFFFFFFFFFFFFFFFF18
:1058A000FFFFFFFFCFFFFFFFFFFFFFFF9FFFFFFF98
:1058B000FFFFFFFFFFFFFFFFFFFFFFFFFFFFFFFFF8
:1058C000FFFFCFFFFFFFFFFFFFFF9FFFFFFFFFFF78
:1058D000FFFFFFFFFFFFFFFFFFFFFFFFFFFFFFFFD8
:1058E000CFFFFFFFFFFFFFFF9FFFFFFFFFFFFFFF58
:1058F000FFFFFFFFFFFFFFFFFFFFFFFFFFFFCFFFE8
:10590000FFFFFFFFFFFF9FFFFFFFFFFFFFFFFFFF07
:10591000FFFFFFFFFFFFFFFFFFFFFFFFCFFFFFFFC7
:10592000FFFFFFFF9FFFFFFFFFFFFFFFFFFFFFFFE7
:10593000FFFFFFFFFFFFFFFFFFFFCFFFFFFFFFFFA7
:10594000FFFF9FFFFFFFFFFFFFFFFFFFFFFFFFFFC7
:10595000FFFFFFFFFFFFFFFFCFFFFFFFFFFFFFFF87
:105960009FFFFFFFFFFFFFFFFFFFFFFFFFFFFFFFA7
:10597000FFFFFFFFFFFFCFFFFFFFFFFFFFFF9FFFC7
:10598000FFFFFFFFFFFFFFFFFFFFFFFFFFFFFFFF27
:10599000FFFFFFFFCFFFFFFFFFFFFFFF9FFFFFFFA7
:1059A000FFFFFFFFFFFFFFFFFFFFFFFFFFFFFFFF07
:1059B000FFFFCFFFFFFFFFFFFFFF9FFFFFFFFFFF87
:1059C000FFFFFFFFFFFFFFFFFFFFFFFFFFFFFFFFE7
:1059D000CFFFFFFFFFFFFFFF9FFFFFFFFFFFFFFF67
:1059E000FFFFFFFFFFFFFFFFFFFFFFFFFFFFCFFFF7
:1059F000FFFFFFFFFFFF9FFFFFFFFFFFFFFFFFFF17
:105A0000FFFFFFFFFFFFFFFFFFFFFFFFCFFFFFFFD6
:105A1000FFFFFFFF9FFFFFFFFFFFFFFFFFFFFFFFF6
:105A2000FFFFFFFFFFFFFFFFFFFFCFFFFFFFFFFFB6
:105A3000FFFF9FFFFFFFFFFFFFFFFFFFFFFFFFFFD6
:105A4000FFFFFFFFFFFFFFFFCFFFFFFFFFFFFFFF96
:105A50009FFFFFFFFFFFFFFFFFFFFFFFFFFFFFFFB6
:105A6000FFFFFFFFFFFFCFFFFFFFFFFFFFFF9FFFD6
:105A7000FFFFFFFFFFFFFFFFFFFFFFFFFFFFFFFF36
:105A8000FFFFFFFFCFFFFFFFFFFFFFFF9FFFFFFFB6
:105A9000FFFFFFFFFFFFFFFFFFE07FFFFFFFFFFFB5
:105AA000FFFFCFFFFFFFFFFFFFFF9FFFFFFFFFFF96
:105AB000FFFFFFFFFFFFFFE07FFFFFFFFFFFFFFF95
:105AC000CFFFFFFFFFFFFFFF9FFFFFFFFFFFFFFF76
:105AD000FFFFFFFFFFE07FFE07FFFFFFFFFFCFFF9E
:105AE000FFFFFFFFFFFF9FFFFFFF8007FFFFFFFF9D
:105AF000FFFFFFE07FFE07FFFFFFFFFFCFFFFFFF7E
:105B0000FFFFFFFF9FFFFFFF0007FFFFFFFFFFFFFC
:105B1000FFE07FFE07FFFFFFFFFFCFFFFFFFFFFF5D
:105B2000FFFF9FFFFFFE0007FFFFFFFFFFFFFFE0FC
:105B30007FFE07FFFFFFFFFFCFFFFFFFFFFFFFFF1E
:105B40009FFFFFFE0007FFFFFFFFFFFFFFE07FFE5D
:105B500007FFFFFFFFFFCFFFFFFFFFFFFFFF9FFFDD
:105B6000FFFE3FFFFFFFFFFFFFFFFFE07FFE07FF9E
:105B7000FFFFFFFFCFFFFFFFFFFFFFFF9FFFFFFEC6
:105B80007FFFFFFFFFFFFFFFFFE07FFE07FFFFFF3D
:105B9000FFFFCFFFFFFFFFFFFFFF9FFFFFFE7FFF26
:105BA000FFFFFFFFFFFFFFE07FFE07FFFFFFFFFF9D
:105BB000CFFFFFFFFFFFFFFF9FFFFFFF7FFFFFFF05
:105BC000FFFFFFFFFFE07FFE07FFFFFFFFFFCFFFAD
:105BD000FFFFFFFFFFFF9FFFFFFFBFFFFFFFFFFF75
:105BE000FFFFFFE07FFE07FFFFFFFFFFCFFFFFFF8D
:105BF000FFFFFFFF9FFFFE000007FFFFFFFFFFFF0C
:105C0000FFE07FFE07FFFFFFFFFFCFFFFFFFFC3F2F
:105C1000FFFF9FFFFE000007FFFFFFFFFFFFFFE00A
:105C20007FFE07FFFFFFFFFFCFFFFFFFF80FFFFF24
:105C30009FFFFE000007FFFFFFFFFFFFFFE07FFE6B
:105C400007FFFFFFFFFFCFFFFFFFF80FFFFF9FFFE3
:105C5000FE000007FFFFFFFFFFFFFFE07FFE07FFE3
:105C6000FFFFFFFFCFFFFFFFF3E7FFFF9FFFFFFFF8
:105C7000E07FFFFFFFFFFFFFFFE07FFE07FFFFFF6B
:105C8000FFFFCFFFFFFFF7F7FFFF9FFFFFFF801F23
:105C9000FFFFFFFFFFFFFFE07FFE07FFFFFFFFFFAC
:105CA000CFFFFFFFF7F7FFFF9FFFFFFF000FFFFF93
:105CB000FFFFFFFFFFE07FFE07FFFFFFFFFFCFFFBC
:105CC000FF9FF3E7FFFF9FFFFFFE000FFFFFFFFFB8
:105CD000FFFFFFE07FFE07FFFFFFFFFFCFFFFF8714
:105CE000F007FFFF9FFFFFFE1F87FFFFFFFFFFFF84
:105CF000FFE07FFE07FFFFFFFFFFCFFFFFC1F80FB1
:105D0000FFFF9FFFFFFE7FC7FFFFFFFFFFFFFFE0DB
:105D10007FFE07FFFFFFFFFFCFFFFFF0780FFFFFC2
:105D20009FFFFFFE7FE7FFFFFFFFFFFFFFE07FFE1C
:105D300007FFFFFFFFFFCFFFFFFC1E1FFFFF9FFFBF
:105D4000FFFE7FE7FFFFFFFFFFFFFFE07FFE07FF94
:105D5000FFFFFFFFCFFFFFFF87FFFFFF9FFFFFFF5B
:105D60003FEFFFFFFFFFFFFFFFE000000000007FAD
:105D7000FFFFCFFFFFFFE1FFFFFF9FFFFFFF9F8FB1
:105D8000FFFFFFFFFFFFFFE000000000007FFFFFBD
:105D9000CFFFFFE0F87FFFFF9FFFFFFE00000FFF38
:105DA000FFFFFFFFFFE000000000007FFFFFCFFFCD
:105DB000FFC03E1FFFFF9FFFFFFE00000FFFFFFF22
:105DC000FFFFFFE000000000007FFFFFCFFFFFC0EC
:105DD0003F87FFFF9FFFFFFE00000FFFFFFFFFFF5A
:105DE000FFE000000000007FFFFFCFFFFF9F9FE369
:105DF000FFFF9FFFFFFE00000FFFFFFFFFFFFFE021
:105E000000000000007FFFFFCFFFFFBFDFFFFFFFAD
:105E10009FFFFFFF8007FFFFFFFFFFFFFFE0000086
:105E20000000007FFFFFCFFFFFBFDFFFFFFF9FFFEF
:105E3000FFFF0007FFFFFFFFFFFFFFFFFFFFFFFF69
:105E4000FFFFFFFFCFFFFF9F9FFFFFFF9FFFFFFEB3
:105E50000007FFFFFFFFFFFFFFFFFFFFFFFFFFFF49
:105E6000FFFFCFFFFFC01FFFFFFF9FFFFFFE0007E9
:105E7000FFFFFFFFFFFFFFFFFFFFFFFFFFFFFFFF32
:105E8000CFFFFFC03FFFFFFF9FFFFFFE3FFFFFFF72
:105E9000FFFFFFFFFFFFFFFFFFFFFFFFFFFFCFFF42
:105EA000FFF0FFFFFFFF9FFFFFFE7FFFFFFFFFFFF2
:105EB000FFFFFFFFFFFFFFFFFFFFFFFFCFFFFFFF22
