:020000040800F2
:10000000C0C000200D0A0008E1050008E305000853
:10001000E7050008EB050008EF05000800000000F8
:10002000000000000000000000000000F3050008D0
:10003000F505000800000000F7050008F9050008B4
:10004000270A0008270A0008270A0008270A0008CC
:10005000270A0008270A0008270A0008270A0008BC
:10006000270A0008270A0008270A0008270A0008AC
:10007000270A0008270A0008270A0008270A00089C
:10008000270A0008270A0008270A0008270A00088C
:10009000270A0008270A0008270A0008270A00087C
:1000A000270A0008270A0008270A0008270A00086C
:1000B000270A0008270A0008270A0008270A00085C
:1000C000270A0008270A0008270A0008270A00084C
:1000D000270A000881090008270A0008270A0008E3
:1000E000270A0008270A0008270A0008270A00082C
:1000F000270A0008270A0008270A0008270A00081C
:10010000270A0008270A0008270A0008270A00080B
:10011000270A0008270A0008270A0008270A0008FB
:10012000270A0008270A0008270A0008270A0008EB
:10013000DFF80CD002F082FA0048004745010008C1
:10014000C0C000200EB500F047FB00F0B9FB01F085
:1001500077FB3EE201F0CEFAFD49FE4801F01FFBBD
:1001600001F00AFB022000F096FB01F0C3FA01F057
:1001700040FB01F001FB022000F08DFBFF2000237B
:100180004FF4F0724FF448710090F34801F000FC16
:10019000F14801F03AFC01F0ADFAFF2001F0F0FC6B
:1001A0000120034600220A210090052001F01DFDD8
:1001B00001200223002219210090052001F015FDE5
:1001C00001200323002228210090052001F00DFDCD
:1001D00001200423002237210090052001F005FDB5
:1001E0000120002100913C234622CDE901100A2183
:1001F000142001F04CFD0120002100913C23142229
:10020000CDE901100A21462001F041FD0120002224
:10021000CDE900203723AA220F210290104601F0D9
:1002200036FD01200022CDE900202323BE221946FD
:100230000290962001F02BFDC74801F008FAFF203C
:1002400001F09EFC0120002100913C234622CDE9D3
:1002500001100A21142001F098FD01200022CDE9AF
:1002600000203C2382220A210290552001F08DFDBE
:10027000012000210B469622CDE9001051000846CE
:1002800001F0DCFD01200090002396225100019036
:100290004FF4FA7001F0D2FDAF4801F007FA01F017
:1002A0006BFA022000F0F7FA01F024FAFF2001F0C7
:1002B00067FC0020FF21A94BA9A2CDE9001001464F
:1002C00001F03CFF0020FF21A94BA5A2CDE90010C1
:1002D0000A2101F033FF0020FF21A64BA0A2CDE9A7
:1002E0000010192101F02AFF0020FF21A24B9CA23F
:1002F000CDE900102D2101F021FF0020FF219F4BAF
:1003000097A2CDE90010462101F018FF924801F0B4
:100310009EF9FF2001F034FC0020FF218F4B90A2BA
:10032000CDE90010C821B42001F008FF0020FF2112
:100330008F4B8BA2CDE90010D221B42001F0FEFE3C
:100340000020FF218B4B86A2CDE90010E121B420D3
:1003500001F0F4FE0020FF21874B81A2CDE90010BF
:10036000F521B42001F0EAFE0020FF21834B7CA29E
:10037000CDE900104FF48771B42001F0DFFE76481C
:1003800001F094F901F0B6F9FF2001F0F9FB00202B
:10039000FF21724B72A2CDE900104FF4BE714FF4F1
:1003A000FA7001F0CBFE0020FF21714B6CA2CDE969
:1003B00000104FF4C3714FF4FA7001F0BFFE00203B
:1003C000FF216C4B66A2CDE9001040F295114FF46D
:1003D000FA7001F0B3FE0020FF21674B60A2CDE967
:1003E000001040F2A9114FF4FA7001F0A7FE0020AE
:1003F000FF21624B5AA2CDE900104FF4E1714FF496
:10040000FA7001F09BFE544801F021F901F0B4F9B3
:10041000022000F040FA01F06DF9FF2001F0B0FB7E
:100420000020FF214D4B564ACDE90010014601F056
:10043000CBFF0020FF214E4B514ACDE900100A218D
:1004400001F0C2FF0020FF214A4B4D4ACDE90010C8
:10045000192101F0B9FF0020FF21474B484ACDE99F
:1004600000102D2101F0B0FF0020FF21434B444A32
:10047000CDE90010462101F0A7FF374801F0E7F869
:10048000FF2001F07DFB0020FF21344B3C4ACDE9E9
:100490000010C821DC2001F097FF0020FF21344B21
:1004A000374ACDE90010D221DC2001F08DFF002079
:1004B000FF21304B324ACDE90010E121DC2001F070
:1004C00083FF0020FF212C4B2D4ACDE90010F521A0
:1004D000DC2001F079FF0020FF21284B284ACDE9DC
:1004E00000104FF48771DC2001F06EFF1A4801F014
:1004F000DDF801F0FFF8FF2001F042FB0020FF21B2
:10050000164B1F4ACDE900104FF4BE714FF4FA703C
:1005100001F05AFF0020FF21154B194ACDE90010C8
:100520004FF4C3714FF4FA7001F04EFF0020FF2129
:10053000104B134ACDE9001040F295114FF4FA70B8
:1005400001F042FF0020FF210B4B0D4A1AE0000092
:10055000FEE100087E2600085C0000203400002038
:10056000476F6F6420446973706C6179000000000C
:100570003C000020440000204C00002054000020DB
:1005800015CD5B07CDE9001040F2A9114FF4FA70C8
:1005900001F01AFF0020FF210E4B0F4ACDE9001099
:1005A0004FF4E1714FF4FA7001F00EFF0B4801F0C7
:1005B0004EF801F0E1F8022000F06DF901F09AF830
:1005C00001F017F901F0D8F8022000F064F900BF3B
:1005D000FEE7BFE55400002015CD5B075C0000205E
:1005E000704700BFFEE700BFFEE700BFFEE700BFA9
:1005F000FEE7704770477047704700000CB5002059
:10060000019000906B48006840F4803069490860B0
:1006100000BF6848006800F4003000900198401C5A
:100620000190009818B90198B0F5A06FF1D1614818
:10063000006810F4003F02D00120009001E000208B
:1006400000900098012842D15B48006840F01000FB
:10065000594908600846006820F003000860084611
:10066000006840F002000860524840685149486004
:100670000846406848600846406840F4806048602A
:100680000846406820F47C1048600846406840F402
:10069000E81048600846006840F08070086000BFBD
:1006A0004448006810F0007FFAD04248406820F0CB
:1006B0000300404948600846406840F00200486036
:1006C00000BF3C48406800F00C000828F9D10CBD80
:1006D00010B5FFF793FF10BD10B53648006840F025
:1006E00001003449086008464068344908403149EF
:1006F000486008460068324908402E4908600846AC
:10070000006820F4802008600846406820F4FE005D
:1007100048604FF41F008860FFF7DAFF4FF0006079
:100720002849086010BD10B5002100200022214B8F
:100730005B6803F00C0121B1042906D0082928D1F7
:1007400007E0214B214C236027E01F4B1F4C236007
:1007500023E0184B5B6803F47010164B5B6803F4DE
:100760008032022303EB904022B9194B4343174CCC
:1007700023600DE00F4B5B6813F4003F04D0144B73
:100780004343124C236003E00F4B43430F4C236061
:1007900003E00D4B0D4C236000BF00BF054B5B68B1
:1007A000C3F303130B4CE15C084B1B68CB40074CB5
:1007B000236010BD00100240002002400000FFF83E
:1007C000FFFFF6FE08ED00E000127A0000000020B6
:1007D00000093D000400002010B56FF0040000F097
:1007E00077F9334800683349B0FBF1F032490870BB
:1007F0000846007800EB4001C1EBC0104FF6FF71D6
:1008000001EAC0002D49088010BD01462A4A12782D
:100810004A434FF0E0235A6100229A611A46126956
:1008200042F001021A6100BF4FF0E022106910F09F
:10083000010F02D010F4803FF6D04FF0E022126991
:1008400022F001024FF0E0231A6100229A61704702
:1008500001461A4A12884A434FF0E0235A610022A7
:100860009A611A46126942F001021A6100BF4FF004
:10087000E022106910F0010F02D010F4803FF6D092
:100880004FF0E022126922F001024FF0E0231A61DA
:1008900000229A61704730B50446002505E04FF408
:1008A0007A70FFF7D5FF681C85B2A542F7DB30BD33
:1008B0000000002000127A00140000201600002022
:1008C00010B54FF4A06000F0B3F810BD014600BFB2
:1008D000704700BF494A128812F0400FFAD0C2B2E6
:1008E000464B1B1D1A80704710B586B00446012187
:1008F00044F2050000F020FC4FF40070ADF8140045
:1009000003208DF8160018208DF8170005A93C4823
:1009100000F05CF94FF48060ADF8140004208DF80D
:10092000170005A9364800F051F925208DF8000080
:1009300003208DF801008DF8020001208DF80300DE
:10094000684600F07AF801940020ADF80800ADF890
:100950000A00ADF80C00ADF810000C20ADF80E0048
:1009600001A9264800F093FC012240F225512348BA
:1009700000F025FD0121214800F015FD06B010BD55
:1009800010B540F225511D4800F0FEFD10B31B4884
:1009900000F07AFDC4B21B48008810F4004F2BD140
:1009A0001848008810F4804F0CD00A2C03D0002087
:1009B0001449088020E01348008840F400401149A1
:1009C000088019E00D2C06D10E48008840F48040C4
:1009D0000C49088010E00B480088C0F30D000A495C
:1009E0000C5408480088401C0649088008460088C6
:1009F000C72801DD0020088010BD0000003801403C
:100A00000008014018000020DCBB00200648804799
:100A100006480047FEE7FEE7FEE7FEE7FEE7FEE7E3
:100A2000FEE7FEE7FEE7FEE7D90600083101000811
:100A300031490143314A1160704770B500210023EC
:100A40000F22C4780CB32D4C246804F4E064C4F580
:100A5000E064210AC1F10403CA40447804FA03F1B6
:100A60008478144021430901254C0678A155047867
:100A700004F01F050124AC4005786D114FF0E0260D
:100A800006EB8505C5F8004109E0047804F01F0570
:100A90000124AC401B4D0678761145F8264070BD08
:100AA000194A0A400243154B1B1F1A60704739B19F
:100AB000124A121D12680243104B1B1D1A6006E0F9
:100AC0000E4A121D126882430C4B1B1D1A607047A0
:100AD000042808D14FF0E021096941F004014FF0EA
:100AE000E022116107E04FF0E021096921F00401E3
:100AF0004FF0E022116170470000FA050CED00E0B4
:100B000000E400E080E100E080FFFF1F10B5044634
:100B1000CA48844208D10121042000F027FB0021AB
:100B2000042000F023FB46E0C548844208D101219F
:100B3000082000F01BFB0021082000F017FB3AE022
:100B4000C048844208D10121102000F00FFB002191
:100B5000102000F00BFB2EE0BB48844208D101219D
:100B6000202000F003FB0021202000F0FFFA22E00B
:100B7000B648844208D10121402000F0F7FA002154
:100B8000402000F0F3FA16E0B148844208D1012178
:100B9000802000F0EBFA0021802000F0E7FA0AE064
:100BA000AC48844207D10121801500F0DFFA002112
:100BB000A01500F0DBFA10BD10B50121084600F0C9
:100BC000D5FA0021012000F0D1FA10BD2DE9F04145
:100BD000024600250026002000230024002791F86B
:100BE00003C00CF00F0591F803C01CF0100F03D0E8
:100BF00091F802C04CEA050591F800C0BCF1000F65
:100C000031D0146800202BE04FF0010C0CFA00F3F7
:100C1000B1F800C00CEA03069E4220D183004FF0D9
:100C20000F0C0CFA03F7BC4305FA03FC4CEA04046E
:100C300091F803C0BCF1280F06D14FF0010C0CFA5B
:100C400000FCC2F814C00AE091F803C0BCF1480FE0
:100C500005D14FF0010C0CFA00FCC2F810C0401C8A
:100C60000828D1D31460B1F800C0BCF1FF0F34DD07
:100C7000546800202EE000F1080C4FF0010808FA3B
:100C80000CF3B1F800C00CEA03069E4221D18300A8
:100C90004FF00F0C0CFA03F7BC4305FA03FC4CEAC7
:100CA000040491F803C0BCF1280F05D100F1080C31
:100CB00008FA0CF8C2F8148091F803C0BCF1480F90
:100CC00007D100F1080C4FF0010808FA0CF8C2F83F
:100CD0001080401C0828CED35460BDE8F0814FF648
:100CE000FF710180022181700421C17070470246AA
:100CF000002093680B4201D0012000E000207047E3
:100D00000146886880B2704702460020D3680B42D3
:100D100001D0012000E0002070470146C86880B281
:100D2000704701617047416170470AB1016100E09D
:100D300041617047C16070474FF480320A4382615D
:100D40008161826182698269704702460020424B5C
:100D500018684FF68073184040EA021008433E4B73
:100D6000186070473D49C8617047F0B50A460023D6
:100D700000240021002500F00046B6F1004F02D10A
:100D8000354EF16901E0344E7168C0F3034583B21A
:100D900000F44016B6F5401F08D121F070612E4EC8
:100DA000766826F070662C4F7E6012E000F48016A4
:100DB000B6F5801F06D1032606FA05F4A14341F0DB
:100DC000706106E0460D360103FA06F6B14341F0C4
:100DD000706122B1460D360103FA06F6314300F088
:100DE0000046B6F1004F02D11B4EF16101E01A4EF0
:100DF0007160F0BD30B500228B071C0F0F2303FA82
:100E000004F2154B08338C1053F824309343124CE2
:100E100008348D1044F8253023468C1053F82430C4
:100E20008C07240F00FA04F423430B4C08348D1074
:100E300044F8253030BD0A49086070470008014079
:100E4000000C014000100140001401400018014056
:100E5000001C014000200140000001400000204231
:100E6000DC002042DD48006840F00100DB490860FA
:100E700008464068DA490840D84948600846006892
:100E8000D8490840D54908600846006820F4802009
:100E900008600846406820F4FE0048604FF41F00D8
:100EA00088607047CD49096821F48031CB4A1160D0
:100EB0001146096821F480211160B0F5803F03D00C
:100EC000B0F5802F0ED106E0C449096841F48031A5
:100ED000C24A116007E0C149096841F4A021BF4A34
:100EE000116000E000BF00BF704710B5014600224E
:100EF000002300204A11012A02D1B84C236806E0E1
:100F0000022A02D1B54C236A01E0B44C636A01F0B5
:100F10001F02012494401C4201D0012000E0002067
:100F200010BD38B5002000900024002500BF3120FE
:100F3000FFF7DBFF05460098401C00900098B0F5D5
:100F4000A06F01D0002DF2D03120FFF7CEFF08B105
:100F5000012400E00024204638BD014600209F4ABD
:100F6000106820F0F80040EAC100106070479E4908
:100F70000860704702460020984B586820F47C10A7
:100F800042EA01031843954B58607047964908663A
:100F9000704701460020914A506820F00300084342
:100FA000506070478D48406800F00C007047014663
:100FB00000208A4A506820F0F000084350607047D3
:100FC00001460020854A506820F4E06008435060E4
:100FD000704701460020814A506820F4605040EA82
:100FE000C1005060704729B17C4A527A02437B4B62
:100FF0005A7204E0794A527A8243784B5A727047A7
:101000007A490860704701460020744A506820F40D
:1010100040400843506070470021754A11706F4A84
:1010200082F82010012802D0042808D103E0012111
:101030006F4A117004E005216D4A117000E000BF95
:1010400000BF70476B49086070476449096A0143F3
:10105000624A11627047674944390860704730B589
:1010600000210022002400235C4D6D6805F00C0176
:1010700021B1042905D0082923D105E05E4D056082
:1010800022E05D4D05601FE0544D6D6805F470125F
:10109000524D6D6805F48034022505EB92421CB96F
:1010A000564D554305600BE04C4D6D6815F4003FFF
:1010B00003D0524D5543056002E04F4D5543056046
:1010C00002E04D4D056000BF00BF444D6D6805F066
:1010D000F00109094A4D6B5C0568DD4045603F4DF4
:1010E0006D6805F4E061090A454D6B5C4568DD40BB
:1010F00085603A4D6D6805F46051C90A404D6B5CDE
:101100004568DD40C560354D6D6805F44041890B8B
:101110003C4D6B5CC568B5FBF3F5056130BD29B18D
:101120002E4A526902432D4B5A6104E02B4A526900
:1011300082432A4B5A61704729B1284A9269024377
:10114000264B9A6104E0254A92698243234B9A61B7
:10115000704729B1214AD2690243204BDA6104E089
:101160001E4AD26982431D4BDA61704729B11B4A7E
:10117000D2680243194BDA6004E0184AD26882430D
:10118000164BDA60704729B1144A12690243134BB7
:101190001A6104E0114A12698243104B1A617047C8
:1011A00014494039086070470F49C86470470B49BB
:1011B000C87170470948406A40F08070074948622A
:1011C000704701460020054A92680A4201D001207A
:1011D00000E000207047014988727047001002400B
:1011E0000000FFF8FFFFF6FE00004242D800424236
:1011F000201002408004424200127A0000093D00A3
:10120000200000203000002010B50446FB48844236
:1012100009D101218803FFF7A9FF00214FF4804085
:10122000FFF7A4FF32E0F648844209D101214804C7
:10123000FFF7A9FF00214FF40030FFF7A4FF25E0DE
:10124000F048844209D101218804FFF79CFF002166
:101250004FF48020FFF797FF18E0EB48844209D154
:101260000121C804FFF78FFF00214FF40020FFF792
:101270008AFF0BE0E548844208D101210805FFF709
:1012800082FF00214FF48010FFF77DFF10BD2DE994
:10129000F04786B005460E460024A24600BFA14690
:1012A0000027B08900B100BF2F462C8A4CF6FF7092
:1012B0000440F08804432C82AC894EF6F3100440BD
:1012C000B08831890843718908430443AC81AC8AF2
:1012D0004FF6FF400440B0890443AC8201A8FFF7F9
:1012E000BEFEC648874202D1DDF810A001E0DDF85D
:1012F0000CA0A88910F4004F08D00AEBCA0000EB3C
:101300000A1031684900B0FBF1F807E00AEBCA00A7
:1013100000EB0A1031688900B0FBF1F86420B8FBDB
:10132000F0F004012009642101FB1089A88910F460
:10133000004F08D0322000EBC900B0FBF1F000F004
:101340000700044308E0322000EB09106421B0FBE1
:10135000F1F000F00F0004432C8106B0BDE8F087E7
:101360004FF41651016000218180C18001810C2160
:10137000418100218181704710B502460020108A0A
:101380004FF2FF0318400B884C8823438C8823437B
:10139000CC8823431843108210BD00210180418076
:1013A0008180C180704721B1828942F400528281DC
:1013B00004E082894DF6FF731A4082817047F0B5D0
:1013C00003460024002600250020A1F510676A3F8F
:1013D00000D100BF1846C1F3421401F01F060127D7
:1013E00007FA06F5012C01D10C3004E0022C01D1E2
:1013F000103000E014301AB107682F43076002E094
:101400000768AF430760F0BD1AB1838A0B4383823C
:1014100002E0838A8B4383827047028A4FF6F0731F
:101420001A400282028A0A430282704782894FF27E
:10143000FF731A40828182890A438281704721B1F9
:10144000828942F00202828104E082894FF6FD73B4
:101450001A4082817047028A4FF6DF731A40028277
:10146000028A0A430282704721B1028A42F4804212
:10147000028204E0028A4BF6FF731A400282704730
:10148000C1F308028280704701468888C0F30800D3
:101490007047818941F0010181817047028BD2B28E
:1014A0000283028B42EA012202837047028B02F41C
:1014B0007F420283028B0A430283704721B1828AF2
:1014C00042F02002828204E0828A4FF6DF731A40E3
:1014D0008282704721B1828A42F01002828204E047
:1014E000828A4FF6EF731A408282704721B1828A56
:1014F00042F00802828204E0828A4FF6F7731A40B3
:101500008282704721B1828942F40042828103E0E5
:101510008289C2F30E028281704721B1828A42F42D
:101520000062828204E0828A4FF2FF731A40828254
:101530007047828A4FF6FB731A408282828A0A437E
:101540008282704721B1828A42F00202828204E0E4
:10155000828A4FF6FD731A4082827047024600204D
:10156000B1F5007F00D100BF13880B4201D00120EC
:1015700000E00020704701F40072B2F5007F00D156
:1015800000BFCA430280704770B5024600240023A2
:1015900000250020A1F510666A3E00D100BFC1F30E
:1015A000421501F01F03012606FA03F3012D02D1B3
:1015B0009689334006E0022D02D1168A334001E0BD
:1015C000968A33400C12012606FA04F41688344039
:1015D00013B10CB1012000E0002070BD10B5002255
:1015E0000023A1F510646A3C00D100BF0A12012457
:1015F0009440A3B2DC43048010BD000000380140D9
:101600000044004000480040004C004000500040B2
:1016100006E042F6E06100BF0A00A1F10101FBD142
:101620000200A0F10100F4D1704710B54FF48041E1
:101630008248FFF778FB0A20FFF7EAFF4FF480416A
:101640007E48FFF76EFB0A20FFF7E2FF10BD2DE991
:10165000F041064664274FF4F078102000F064F95A
:1016600000250AE0002405E005FB0741705C00F05E
:1016700073F9641CBC42F7D36D1C4545F2D3BDE839
:10168000F08110B500BF712000F04EF94FF4005109
:101690006A48FFF72CFB044604F0010080F00104C7
:1016A000002CF0D1C820FFF7B3FF10BD2DE9F041A9
:1016B000064664274FF4F078132000F035F9002532
:1016C0000CE0002407E005FB0741715CC943C8B288
:1016D00000F042F9641CBC42F5D36D1C4545F0D3C3
:1016E000122000F021F90120FFF792FFFFF7C9FF58
:1016F000BDE8F08110B5FFF798FF012000F014F964
:10170000072000F029F9072000F026F93F2000F01B
:1017100023F93F2000F020F9042000F005F9FFF73D
:10172000B0FF002000F000F90F2000F015F9612053
:1017300000F0FAF8032000F00FF9202000F00CF977
:10174000012000F009F9E02000F006F9152000F072
:10175000EBF8002000F000F9502000F0E5F811202F
:1017600000F0FAF8072000F0F7F8602000F0DCF84D
:10177000222000F0F1F810BD10B5502000F0D4F890
:10178000F72000F0E9F8022000F0CEF8FFF779FF2B
:10179000072000F0C9F8A52000F0DEF810BD70B5F4
:1017A00005460E46102000F0BFF8002406E0297818
:1017B000C943C8B200F0D0F86D1C641C4BF68030F1
:1017C0008442F4D3132000F0AFF8002404E0307812
:1017D00000F0C2F8761C641C4BF680308442F6D3CD
:1017E000122000F0A1F80120FFF712FFFFF749FFD8
:1017F00070BD10B5102000F097F8002403E0FF2022
:1018000000F0AAF8641C4BF680308442F7D3132012
:1018100000F08AF8002403E0002000F09DF8641C2A
:101820004BF680308442F7D3122000F07DF801207F
:10183000FFF7EEFEFFF725FF10BD00000018014086
:1018400008B501216020FFF777FC4FF4E060ADF8A8
:10185000000010208DF8030002208DF80200694678
:101860004948FFF7B3F94FF44040ADF800001020AD
:101870008DF8030002208DF8020069464348FFF707
:10188000A5F94FF40050ADF8000048208DF8030092
:1018900002208DF8020069463C48FFF797F94FF4A3
:1018A0008050ADF8000010208DF8030002208DF864
:1018B000020069463548FFF789F908BD00BF0100FD
:1018C000A0F10102D0B2FAD1704770B504460120F0
:1018D000FFF7F4FF002524E04FF400712A48FFF7DA
:1018E00022FA0120FFF7EAFF14F0800F05D04FF431
:1018F00080612548FFF715FA04E04FF48061224823
:10190000FFF711FA6006040E0120FFF7D7FF4FF42E
:1019100000711D48FFF705FA0120FFF7CFFF681C93
:10192000C5B2082DD8DB70BD10B504460120FFF705
:10193000C5FF4FF480711448FFF7F5F94FF40041EB
:101940001248FFF7F0F92046FFF7BFFF4FF4807110
:101950000D48FFF7E6F910BD10B504460120FFF76A
:10196000ADFF4FF480710848FFF7DDF94FF40041F7
:101970000648FFF7D6F92046FFF7A7FF4FF480711E
:101980000148FFF7CEF910BD0014014000180140D6
:101990002DE9F0410646069F0020F94C20602046C4
:1019A00006600181428187810C464FEAE17C01EBB0
:1019B0005C7C4FEAEC0CB1EBCC0C07D10D464FEA46
:1019C000E57C05EB5C7C4FEAEC0C08E008464FEA4E
:1019D000E17C01EB5C7C4FEAEC0C0CF1010CDFF8D4
:1019E000A083A8F812C040468282C38100204446EA
:1019F00020820BB1B42B03D1E1488180C28002E088
:101A0000DF488280C180BDE8F081DD490860704711
:101A100030B15A2804D0B42802D0B0F5877F01D164
:101A2000D749C881704728B1012803D0022801D0C6
:101A3000032801D1D249088270472DE9F0410346BD
:101A40000C461746CE4EB6889E4203DBCC4EF68837
:101A5000A64201DABDE8F081C94EF6893EB15A2EA0
:101A600008D0B42E0DD0B6F5877F1CD114E01846EF
:101A7000214619E0C24E3689361B761EB0B2194691
:101A800012E0BF4E3689F61A761EB0B2BC4E768989
:101A9000361B761EB1B207E02046B94E7689F61A9B
:101AA000761EB1B200E0D5E700BFB54E368A36B13A
:101AB000012E05D0022E09D0032E18D10CE017E01C
:101AC000AF4E3689361A761EB0B211E0AC4E76892A
:101AD000761A761EB1B20BE0A94E3689361A761EFA
:101AE000B0B2A74E7689761A761EB1B200E0B1E7A1
:101AF00000BFA34E3689864203DBA14E76898E4213
:101B000000DAA7E706464FEAE07C00EB5C7C4FEA90
:101B1000EC0CDFF86C82B8F8128001FB08C2984E1A
:101B20003668B55CAFB906464FEAE07C00EB5C7CFA
:101B30004FEAEC0CA0EBCC084FF0800C4CFA08FC00
:101B400025EA0C0CDFF83882D8F8008008F802C0CB
:101B500014E006464FEAE07C00EB5C7C4FEAEC0CBC
:101B6000A0EBCC084FF0800C4CFA08FC4CEA050CBA
:101B7000DFF80C82D8F8008008F802C000BF69E7DF
:101B800030B50246002110E0002008E07C4C648A59
:101B900001FB04037A4D2D68EA54441CA0B2784C32
:101BA000648A8442F2DC4C1CA1B2754CA48A8C423B
:101BB000EADC30BD2DE9F04706460F4690469946CF
:101BC000DDF820A03D460CE0344606E052462946AA
:101BD0002046FFF732FF601C84B24445F6DB681CE8
:101BE00085B24D45F0DBBDE8F0872DE9F0470746AB
:101BF000884691461C46DDF820A061488088B8429E
:101C000003DB5F48C088404501DABDE8F087BAF1E0
:101C1000010F24D100251DE0002614E007EB05008C
:101C2000001B03D408EB0600001B00D50FE008EBF7
:101C30000602121B91B27A19121B90B24A46FFF7A4
:101C4000FCFE701C06B26000401EB042E6DC00BF25
:101C5000681C05B26000401EA842DDDC15E00025CE
:101C600011E000260BE008EB0602521E91B27A1931
:101C7000521E90B24A46FFF7E0FE701C06B2A64222
:101C8000F1DB681C05B2A542EBDB00BFBDE72DE927
:101C9000F04F85B004460D4616461F4638488088EA
:101CA000A0420BDB3648C088A84207DB3448808856
:101CB000B04203DB3248C088B84202DA05B0BDE862
:101CC000F08FA046AA46301B01D4301B00E0A01BB9
:101CD0008346781B002801DC781B00E0E81B049099
:101CE000B44201DA012001E04FF0FF300390BD4221
:101CF00001DA012001E04FF0FF30029004980BEB75
:101D000000090020019000BF0198401CC0B2019062
:101D10000F98012811D10321019890FBF1F201FBEA
:101D2000120050B901200090FF2251464046109BFE
:101D3000FFF75BFF0020019007E001200090514673
:101D40004046109B0E9AFFF750FF4FEA4901049856
:101D5000814208DBB04500D114E004988144039827
:101D600040441FFA80F84FEA49005845CCDCBA4598
:101D700000D107E0D944029850441FFA80FAC3E723
:101D8000A4BC002000BF00BF98E72DE9FE4F8146AC
:101D90000F4692469846DDE90DB50C9CFE488088BA
:101DA00048450BDBFC48C088B84207DBFA4880880E
:101DB000504503DBF848C088404501DABDE8FE8F96
:101DC000BBF1000F10D03E460BE0002033465246D8
:101DD0003146CDE9010500944846FFF758FF701CD5
:101DE00086B24645F1DB27E000203B4652463946A5
:101DF000CDE9010500944846FFF749FF002043461E
:101E00004A463946CDE9010500944846FFF73FFFB1
:101E100000203B4652464146CDE90105009450461C
:101E2000FFF735FF002043464A464146CDE901050C
:101E300000945046FFF72BFF00BFBFE72DE9F84F96
:101E400005460E4692469B46D3488088A84203DB4F
:101E5000D148C088B04201DCBDE8F88F00240FFAF9
:101E60008AF70320A0EB4A000FFA80F90A980128AC
:101E700077D172E0A0465BE0012006EB080291B248
:101E80002A19009090B201235A46FFF7AEFE0120B6
:101E900006EB080291B22A1B009090B201235A4629
:101EA000FFF7A3FE0120321991B2A5EB08020090C2
:101EB00090B201235A46FFF798FE0120321B91B2DF
:101EC000A5EB0802009090B201235A46FFF78DFE61
:101ED0000120A6EB080291B22A1B009090B20123C8
:101EE0005A46FFF782FE0120A6EB080291B22A199A
:101EF000009090B201235A46FFF777FE0120321B73
:101F000091B205EB0802009090B201235A46FFF708
:101F10006CFE0120321991B205EB0802009090B2DC
:101F200001235A46FFF761FE08F101000FFA80F81D
:101F3000B845A1DDB9F1000F05DAA000801D4844C5
:101F40000FFA80F907E0E01B80000A3048440FFADE
:101F500080F9781E07B2601C04B2BC428ADD66E0DC
:101F6000FFE762E00120F21991B22A19009090B2C5
:101F70005A460B9BFFF739FE0120F21991B22A1B3A
:101F8000009090B25A460B9BFFF72FFE01203219AA
:101F900091B2EA1B009090B25A460B9BFFF725FEC8
:101FA0000120321B91B2EA1B009090B25A460B9B63
:101FB000FFF71BFE0120F21B91B22A1B009090B28A
:101FC0005A460B9BFFF711FE0120F21B91B22A1912
:101FD000009090B25A460B9BFFF707FE0120321B80
:101FE00091B2EA19009090B25A460B9BFFF7FDFDA3
:101FF0000120321991B2EA19009090B25A460B9B17
:10200000FFF7F3FDB9F1000F05DAA000801D484489
:102010000FFA80F907E0E01B80000A3048440FFA0D
:1020200080F9781E07B2601C04B2BC429ADD00BF82
:1020300012E72DE9F04F0746884692461D4656485E
:102040008088B84203DB5448C088404501DABDE8C7
:10205000F08FA988CA1701EB5272D2100846CB172D
:1020600001EB5373DB10B1EBC30301D0012300E09C
:1020700000231344AAF12002B5F806C002FB0CF2BB
:1020800003FB02FB286800EB0B09002651E000244B
:1020900040E00998FF2814D1E11704EB5171C910F1
:1020A000A4EBC1028021114199F80020114225D0F2
:1020B00008EB060291B23A1990B20A9AFFF7BDFCFA
:1020C0001CE0E11704EB5171C910A4EBC10280219F
:1020D000114199F80020114208D008EB060291B294
:1020E0003A1990B20A9AFFF7A8FC07E008EB06023B
:1020F00091B23A1990B2099AFFF79FFCE11704EBED
:102100005171C910A4EBC101072901D109F10109DD
:10211000601C84B2A888A042BBDCA888C11700EB71
:102120005171C910B0EBC10101D009F10109701C56
:1021300086B2E888B042AADC00BF88E72DE9FC4FF0
:1021400004460E4617461D46DDE90BABA046B146D8
:1021500011488088A04203DB0F48C088B04201DAF2
:10216000BDE8FC8F22E0A88840440B49898888425A
:1021700004DDA046E88848441FFA80F9E88848440E
:102180000549C988884201DDA046B146CDE900ABCA
:102190003A782B46494601E0A4BC00204046FFF7B0
:1021A00048FF7F1CA88840441FFA80F83878002830
:1021B000D9D100BFD4E72DE9FF4F1D46DDF80890C7
:1021C000DDF80080DDF804A0F7E099F800007F2832
:1021D00075DC002769E053207843296811F8100066
:1021E00099F8001088425FD153207843296801EBA9
:1021F000400000F1020B002652E0002442E00D985E
:10220000FF2815D1E11704EB5171C910A4EBC102ED
:10221000802111419BF80020114228D00AEB0602D0
:1022200091B208EB040290B20E9AFFF706FC1EE092
:10223000E11704EB5171C910A4EBC10280211141D7
:102240009BF80020114209D00AEB060291B208EB7C
:10225000040290B20E9AFFF7F0FB08E00AEB0602C8
:1022600091B208EB040290B20D9AFFF7E6FBE1177A
:1022700004EB5171C910A4EBC101072901D10BF185
:10228000010B641C2889A042B9DC2889C11700EB26
:102290005171C910B0EBC10101D00BF1010B761CDB
:1022A0006889B042A9DC03E07F1CA888B84292DCB0
:1022B00000BF09F10109E88880447EE0FFE70027BC
:1022C00073E053207843296811F8100099F8001042
:1022D000884269D153207843296801EB4000407857
:1022E00099F8011088425FD153207843296801EBA7
:1022F000400000F1020B002652E0002442E00D985D
:10230000FF2815D1E11704EB5171C910A4EBC102EC
:10231000802111419BF80020114228D00AEB0602CF
:1023200091B208EB040290B20E9AFFF786FB1EE012
:10233000E11704EB5171C910A4EBC10280211141D6
:102340009BF80020114209D00AEB060291B208EB7B
:10235000040290B20E9AFFF770FB08E00AEB060247
:1023600091B208EB040290B20D9AFFF766FBE117F9
:1023700004EB5171C910A4EBC101072901D10BF184
:10238000010B641C2889A042B9DC2889C11700EB25
:102390005171C910B0EBC10101D00BF1010B761CDA
:1023A0006889B042A9DC03E07F1CA888B84288DCB9
:1023B00000BF09F102092889804499F8000000282B
:1023C0007FF403AFBDE8FF8F2DE9F04FADF5037D3E
:1023D00006460F4615469946DDF834B2DDF830A2C0
:1023E0000024A0464FF4807143A800F01CF94FF47C
:1023F000807103A800F017F943A8029082488088F2
:10240000B04203DB8048C088B84203DA0DF5037D93
:10241000BDE8F08F0CE00A2095FBF0F100FB1150B5
:10242000303003A90855601C04B20A2095FBF0F572
:10243000002DF0D10BE0601E03A9085C43A901F850
:10244000080008F101000FFA80F8601E04B2002CA9
:10245000F1DC4B46CDE900AB39463046029AFFF736
:102460006DFE00BFD2E72DE9FF4F85B005469046CF
:102470009A46DDE9126765A207CA02AB07C3BAF83C
:10248000044098F804000A2190FBF1F002A911F829
:10249000009053464A46CDE9006728460699FFF763
:1024A000C8FD98F804000A2190FBF1F201FB12002C
:1024B00002A911F80090291988B253464A46CDE97D
:1024C00000670699FFF7B5FDA146E11704EB91718E
:1024D0002A1902EBA101A34604EBDB7201EB6201B6
:1024E00088B253463A22CDE900670699FFF7A1FD6D
:1024F00098F805000A2190FBF1F002A911F800B04C
:1025000004EBD97105EB440202EB610188B253463A
:102510005A46CDE900670699FFF78BFD98F805004C
:102520000A2190FBF1F201FB120002A911F800B0A0
:1025300004EBD97104EB44022A4402EB610188B236
:1025400053465A46CDE900670699FFF772FD04EB42
:10255000D97105EB840202EB6101A346E21704EB9B
:102560009272A1EBA20188B253463A22CDE90067EC
:102570000699FFF75EFD98F806000A2190FBF1F03E
:1025800002A911F8009004EB8401294488B2534653
:102590004A46CDE900670699FFF74BFD98F806001B
:1025A0000A2190FBF1F201FB120002A911F8009040
:1025B00004EB440105EB410188B253464A46CDE99C
:1025C00000670699FFF735FD09B0BDE8F08F30B51B
:1025D00002460023002111E0002009E00A4C648A31
:1025E00001FB0403D45C084D2D68EC54441CA0B2DC
:1025F000054C648A8442F1DC4C1CA1B2024CA48AD2
:102600008C42E9DC30BD0000A4BC00203031323304
:102610003435363738390000D2B201E000F8012BEA
:10262000491EFBD270470022F6E710B513460A4652
:1026300004461946FFF7F0FF204610BD064C074D33
:1026400006E0E06840F0010394E807009847103482
:10265000AC42F6D3FDF770FD5CDA01087CDA0108C4
:1026600002E008C8121F08C1002AFAD1704770475B
:10267000002001E001C1121F002AFBD170470000B9
:10268000000000000000000000000000000000004A
:10269000000000000000000000000000000000003A
:1026A000000000000000000000000000000000002A
:1026B000000000000000000000000000000000001A
:1026C000000000000000000000000000000000000A
:1026D00010FF880000000000000000000000000063
:1026E00000000000000000000000000000000000EA
:1026F00000000000000000000000000000000000DA
:1027000000000000000000000000000000000000C9
:1027100000000000000000000000000000000000B9
:1027200000000000000000000000000000000000A9
:1027300000000000307FC400000000000000000026
:102740000000000000000000000000000000000089
:102750000000000000000000000000000000000079
:102760000000000000000000000000000000000069
:102770000000000000000000000000000000000059
:102780000000000000000000000000000000000049
:102790000000000000000000643FE20000000000B4
:1027A0000000000000000000000000000000000029
:1027B0000000000000000000000000000000000019
:1027C00000000000001000000000000000000000F9
:1027D00000000000000000000000000000000000F9
:1027E00000000000000000000000000000000000E9
:1027F000000000000000000000000000060FF100D3
:1028000000000000000000000000000000000000C8
:1028100000000000000000000000000000000000B8
:102820000000000000000000001000000000000098
:102830000000000000000000000000000000000098
:102840000000000000000000000000000000000088
:102850000000000000000000000000000000000078
:10286000010FFC80000000000000000000000000DC
:102870000000000000000000000000000000000058
:102880000000000000000000000000000010000038
:102890000000000000000000000000000000000038
:1028A0000000000000000000000000000000000028
:1028B0000000000000000000000000000000000018
:1028C00000000000008FF848000000000000000039
:1028D00000000000000000000000000000000000F8
:1028E00000000000000000000000000000000000E8
:1028F00000100000000000000000000000000000C8
:1029000000000000000000000000000000000000C7
:1029100000000000000000000000000000000000B7
:10292000000000000000000002007F0850000000CE
:102930000000000000000000000000000000000097
:102940000000000000000000000000000000000087
:102950000000000000100000000000000000000067
:102960000000000000000000000000000000000067
:102970000000000000000000000000000000000057
:102980000000000000000000000000000300FE6CDA
:102990000000000000000000000000000000000037
:1029A0000000000000000000000000000000000027
:1029B00000000000000000000020000000000000F7
:1029C0000000000000000000000000000000000007
:1029D00000000000000000000000000000000000F7
:1029E00000000000000000000000000000000000E7
:1029F00000009F64000000000000000000000000D4
:102A000000000000000000000000000000000000C6
:102A10000000000000000000000000000020000096
:102A200000000000000000000000000000000000A6
:102A30000000000000000000000000000000000096
:102A40000000000000000000000000000000000086
:102A500000000000000C5F031000000000000000F8
:102A60000000000000000000000000000000000066
:102A70000000000000000000000000000000000056
:102A80000020000000000000000000000000000026
:102A90000000000000000000000000000000000036
:102AA0000000000000000000000000000000000026
:102AB000000000000000000000300F81180100003D
:102AC0000000000000000000000000000000000006
:102AD00000000000000000000000000000000000F6
:102AE0000000000000600000000000000000000086
:102AF00000000000000000000000000000000000D6
:102B000000000000000000000000000000000000C5
:102B1000000000000000000000000000006007E965
:102B2000800980000000000000000000000000009C
:102B30000000000000000000000000000000000095
:102B4000000000000000000008700000000000000D
:102B50000000000000000000000000000000000075
:102B60000000000000000000000000000000000065
:102B70000000000000000000000000000000000055
:102B8000001C07F08000C0000000000000000000F2
:102B90000000000000000000000000000000000035
:102BA00000000000000000000000000000700000B5
:102BB0000000000000000000000000000000000015
:102BC0000000000000000000000000000000000005
:102BD00000000000000000000000000000000000F5
:102BE00000000000001003F041024000000000005F
:102BF00000000000000000000000000000000000D5
:102C000000000000000000000000000000000000C4
:102C10000060000000000000000000000000000054
:102C200000000000000000000000000000000000A4
:102C30000000000000000000000000000000000094
:102C40000000000000000000001801F841F1F00051
:102C50000000000000000000000000000000000074
:102C60000000000000000000000000000000000064
:102C70000000000010600000820000000000000062
:102C80000000000000000000000000000000000044
:102C90000000000000000000000000000000000034
:102CA000000000000000000000000000000E00F91D
:102CB00010F9F80000000000000000000000000013
:102CC0000000000000000000000000000000000004
:102CD00000000000000000001070008D02000000E5
:102CE00000000000000000000000000000000000E4
:102CF00000000000000000000000000000000000D4
:102D000000000000000000000000000000000000C3
:102D1000000200FD90FFF0C0000000000000000075
:102D200000000000000000000000000000000000A3
:102D300000000000000000000040000012700009C8
:102D4000060000000000000000000000000000007D
:102D50000000000000000000000000000000000073
:102D60000000000000000000000000000000000063
:102D700000000000000001FE98FEFCC00000000002
:102D80000000000000000000000000000000000043
:102D900000000000000000000000000000400000F3
:102DA00032E0001B26400000000000000000000090
:102DB0000000000000000000000000000000000013
:102DC0000000000000000000000000000000000003
:102DD00000000000000000000000007E0CFEFE70FD
:102DE00000000000000000000000000000000000E3
:102DF00000000000000000000000000000000000D3
:102E00000040000032E0011A4340000000000000D2
:102E100000000000000000000000000000000000B2
:102E200000000000000000000000000000000000A2
:102E30000000000000000000000000000000003F53
:102E4000067CFF61000000000000000000000000A0
:102E50000000000000000000000000000000000072
:102E6000000000000040000002E007324B8000003C
:102E70000000000000000000000000000000000052
:102E80000000000000000000000000000000000042
:102E90000000000000000000000000000000000032
:102EA0000000060F063BFF3100000000000000009C
:102EB0000000000000000000000000000000000012
:102EC00000000000000000000040000027E0043A7D
:102ED000DF80000000000000000000000000000093
:102EE00000000000000000000000000000000000E2
:102EF00000000000000000000000000000000000D2
:102F0000000000000000100F839FFFB800000000C9
:102F100000000000000000000000000000000000B1
:102F20000000000000000000000000000040000061
:102F300067F8027CBFC00000000000000000000035
:102F40000000000000000000000000000000000081
:102F50000000000000000000000000000000000071
:102F6000000000000000000000001A1BC3FC7FF8F6
:102F70000000000000000000000000000000000051
:102F80000000000000000000000000000000000041
:102F9000004000004FF80AFF9FC80000000000003A
:102FA0000000000000000000000000000000000021
:102FB0000000000000000000000000000000000011
:102FC0000000000000000000000000000000080FEA
:102FD000C32E7FFC00000000000000000000000085
:102FE00000000000000000000000000000000000E1
:102FF0000000000000600000CFF813FFBFEC0000ED
:1030000000000000000000000000000000000000C0
:1030100000000000000000000000000000000000B0
:1030200000000000000000000000000000000000A0
:1030300000000007E48F37FC0000000000000000E3
:103040000000000000000000000000000000000080
:103050000000000000000000084000009FFE03FF89
:10306000BFEC0000000000000000000000000000B5
:103070000000000000000000000000000000000050
:103080000000000000000000000000000000000040
:103090000000000000000407E00737FFA000000068
:1030A0000000000000000000000000000000000020
:1030B00000000000000000000000000008400001C7
:1030C0009FD21FFFFFEC0000000000007000000016
:1030D00000000000000000000000000000000000F0
:1030E00000000000000000000000000000000000E0
:1030F000000000000000000000000203E01313FFC6
:10310000E0000000000000000000000000000000DF
:1031100000000000000000000000000000000000AF
:10312000086000033FC23FFFFFF600000000000000
:10313000E0000000000000000000000000000000AF
:10314000000000000000000000000000000000007F
:10315000000000000000000000000000000003006C
:10316000704399FFF0000000000000000000000024
:10317000000000000000000000000000000000004F
:1031800000000000186000077FF63FFFFFFE000010
:1031900040000001C000000000000000000000002E
:1031A000000000000000000000000000000000001F
:1031B000000000000000000000000000000000000F
:1031C000000001807849C1FFFA0000000000000003
:1031D00000000000000000000000000000000000EF
:1031E000000000000000000000E000067F967FFF66
:1031F000FFFE00008000000FC00000000000000083
:1032000000000000000000000000000000000000BE
:1032100000000000000000000000000000000000AE
:1032200000000000000000803F7DC0FFFF000000A4
:10323000000000000000000000000000000000008E
:1032400000000000000000000000000000E0000E90
:10325000FFB6FFFFFFFE00008000000E0000000030
:10326000000000000000000000000000000000005E
:10327000000000000000000000000000000000004E
:103280000000000000000000000000001E7CC4FFE1
:10329000FF0000000000000000000000000000002F
:1032A000000000000000000000000000000000001E
:1032B0001AE0000CFF3FFFFFFFFF00000000000EC0
:1032C00000000000000000000000000000000000FE
:1032D00000000000000000000000000000000000EE
:1032E00000000000000000000000000000000000DE
:1032F0009FFAC4FFFF8000000000000000000000F3
:1033000000000000000000000000000000000000BD
:10331000000000010BE0C00DFF3FFFFFFFF7800042
:10332000000000000000000000000000000000009D
:10333000000000000000000000000000000000008D
:10334000000000000000000000000000000000007D
:10335000000000401F13C67FFFC0000000000000F7
:10336000000000000000000000000000000000005D
:10337000000000000000000012E0C009FF7FFFFF16
:10338000FDF70000008000000000000000000000C9
:10339000000000000000000000000000000000002D
:1033A000000000000000000000000000000000001D
:1033B00000000000000000000F8F661FFFC000002B
:1033C00000000000000000000000000000000000FD
:1033D00000000000000000000000000013E0E00911
:1033E000FF7FFFFFFFFF8000008000000000000063
:1033F00000000000000000000000000000000000CD
:1034000000000000000000000000000000000000BC
:103410000000000000000000000000200F87F70FF0
:10342000FFE00000000000000000000000000000BD
:10343000000000000000000000000000000000008C
:1034400013E0F00BFBFFFFFFFFFF80000000010017
:10345000000000000000000000000000000000006C
:10346000000000000000000000000000000000005C
:10347000000000000000000000000000000000202C
:1034800007C7F20FFFF0000000000000000000007E
:10349000000000000000000000000000000000002C
:1034A0000000000016E0F813FAFFFFFFFFFFC00066
:1034B000000001000000000000000000000000000B
:1034C00000000000000000000000000000000000FC
:1034D00000000000000000000000000000000000EC
:1034E000000000C007C7F81FFFF000000000000048
:1034F00000000000000000000000000000000000CC
:10350000000000000000000017E0F813F7FFFFFFC5
:10351000FFFFC000000000000000000000000000ED
:10352000000000000000000000000000000000009B
:10353000000000000000000000000000000000008B
:10354000000000000000004307E7F81FFFF800003C
:10355000000000000000000000000000000000006B
:1035600000000000000000000000000017E0FC1751
:10357000F7FFFFFFFFFF80000000080000000000D1
:10358000000000000000000000000000000000003B
:10359000000000000000000000000000000000002B
:1035A0000000000000000000000000491FF1F81FAB
:1035B000FFF8000000000000000000000000000014
:1035C00000000000000000000000000000000000FB
:1035D0001FF0FE17EFFFFFFFFFFF8000000000005D
:1035E00000000000000000000000000000000000DB
:1035F00000000000000000000000000000000000CB
:103600000000000000000000000000000000002892
:1036100003E1F93FFFFC0000000000000000000093
:10362000000000000000000000000000000000009A
:103630000000000017F07E2FFFFFFFFFFFFFA0003C
:10364000000000000000000000000000000000007A
:10365000000000000000000000000000000000006A
:10366000000000000000000000000000000000005A
:10367000000000398BE37C7FFFFC000000000000AD
:10368000000000000000000000000000000000003A
:10369000000000000000000007F07F0FFFFFFFFFA9
:1036A000BFFFC0000000200000000000000000007C
:1036B000000000000000000000000000000000000A
:1036C00000000000000000000000000000000000FA
:1036D0000000000000000014C9F9787FFFFC000022
:1036E00000000000000000000000000000000000DA
:1036F0000000000000000000000000001FF07F8FAD
:10370000FFFFFFFF3FFFC000000060000800000057
:1037100000000000000000000000000000000000A9
:103720000000000000000000000000000000000099
:10373000000000000000000000000010C3FDBA3FC0
:10374000FFFE00000000000000000000000000007C
:103750000000000000000000000000000000000069
:103760001FF07F8FFFFFFFFE3FFF800C0000E00097
:103770003800000000000000000000000000000011
:103780000000000000000000000000000000000039
:103790000000000000000000000000000000000227
:1037A00049FFBA3FFFFE00000000000000000000DB
:1037B0000000000000000000000000000000000009
:1037C000000000001FF87FDFFFFFFFFE3FFF8008C3
:1037D0000000A000700000000000000000000000D9
:1037E00000000000000000000000000000000000D9
:1037F00000000000000000000000000000000000C9
:103800000000000241FEFBBFFFFF000000000000BF
:1038100000000000000000000000000000000000A8
:103820000000000000000000FFF8FFDFFFFFFFFCCA
:103830007FFF8010000160006000000000000000B9
:103840000000000000000000000000000000000078
:103850000000000000000000000000000000000068
:10386000000000000000000B01FCF99FFFFF80003A
:103870000000000000000000000000000000000048
:10388000000000000000000000000000FFF8FFDF63
:10389000FFFFFFFC7FFF84200007E000C000000066
:1038A0000000000000000000000000000000000018
:1038B0000000000000000000000000000000000008
:1038C00000000000000000000000000301FE7CBFBB
:1038D000FFFF80000000000000000000000000006A
:1038E00000000000000000000000000000000001D7
:1038F000FFF0FFCFFFFFFFFDBFFF8420000FE001BF
:1039000000000000000000000000000000000000B7
:1039100000000000000000000000000000000000A7
:103920000000000000000000000000000000000C8B
:10393000013E7CBFFFFFC00000000000000000004F
:103940000000000000000000000000000000000077
:1039500000000003FFF1FFFFFFFFFFFBBFFFCC42B2
:10396000020FC00300000000000000000000000083
:103970000000000000000000000000000000000047
:103980000000000000000000000000000000000037
:1039900000000004007F7EFFFFFFE0000000000049
:1039A0000000000000000000000000000000000017
:1039B0000000000000000003FFF1BFFFFFFFFFFF5A
:1039C0007FFE98C4021FC00200000000000000003B
:1039D00000000000000000000000000000000000E7
:1039E00000000000000000000000000000000000D7
:1039F000000000000000000200FF1EFFFFFFF800B3
:103A000000000000000000000000000000000000B6
:103A1000000000000000000000040003FFF33FFF6F
:103A2000FFFFFFFEFFFF18E0021F800600000000FE
:103A30000000000000000000000000000000000086
:103A40000000000000000000000000000000000076
:103A5000000000000000000000000002000FBE7F18
:103A6000FFFFF80000000000000000000000000060
:103A700000000000000000000000000000048003BF
:103A8000FFF33FFFFFFFFFFDFFFE31CA063F0008C7
:103A90000000000000000000000000000000000026
:103AA0000000000000000000000000000000000016
:103AB0000000000000000000000000000000000303
:103AC000001FBFEFFFFFFE0000000000000000002D
:103AD00000000000000000000000000000000000E6
:103AE00000044003FFF33FFFFFFFFFFBFFF863D23B
:103AF000867F0018000000000000000000000000A9
:103B000000000000000000000000000000000000B5
:103B100000000000000000000000000000000000A5
:103B200000000001403FB7E3FFFFFE00000000007F
:103B30000000000000000000000000000000000085
:103B40000000000000062007FFF63FE7FFFFFFF739
:103B5000FFF0E7D58CFE0000000000000000000030
:103B60000000000000000000000000000000000055
:103B70000000000000000000000000000000000045
:103B8000000000000000000140073BFBFFFFFE00BB
:103B90000000000000000000000000000000000025
:103BA000000000000000000000030807FFE61FE31C
:103BB000FFFFFDFFFFE1FFCDCBFE00000000000096
:103BC00000000000000000000000000000000000F5
:103BD00000000000000000000000000000000000E5
:103BE000000000000000000000000001C0073DF3DD
:103BF000FFFFFF00000000000000000000000000C8
:103C0000000000000000000000000000000380072A
:103C1000FFE61FF0FFFFDFE7FFC3FF799BFC00001B
:103C20000000000000000000000000000000000094
:103C30000000000000000000000000000000000084
:103C40000000000000000000000000000000000074
:103C500000033FFBFFFFFE0000000000000000002B
:103C60000000000000000000000000000000000054
:103C70000003C007FFE61FB0FFFFFFDFFF9EDE78F7
:103C8000B3F8000000000000000000000000000089
:103C90000000000000000000000000000000000024
:103CA0000000000000000000000000000000000014
:103CB0000000000000017FFBFFFFFE00000000008D
:103CC00000000000000000000000000000000000F4
:103CD000000000000003E007FFEE0F1BFFFFFFBF27
:103CE000FCBF9EF1F7F00000001000000000000093
:103CF00000000000000000000000000000000000C4
:103D000000000000000000000000000000000000B3
:103D100000000000000000004001BBF9FFFFFF00B1
:103D20000000000000000000000000000000000093
:103D300000000000000000000003E003FFEE1F1B76
:103D4000FFFFFF7FF39F3CF7E7F90000002400002E
:103D50000000000000000000000000000000000063
:103D60000000000000000000000000000000000053
:103D7000000000000000000000000000000123FD22
:103D8000FFFFFF80000000000000000000000000B6
:103D90000000000000000000000000000001F0032F
:103DA000FFF61E09FFFFFFFFC73779FFEFFA02009A
:103DB000100C0000000000000000000000000000E7
:103DC00000000000000000000000000000000000F3
:103DD00000000000000000000000000000000000E3
:103DE0000000077CFFFFFF800000000000000000D3
:103DF00000000000000000000000000000000000C3
:103E00000001F801FFEE0E09FFFFFFFF0E67F3FF51
:103E1000FFE3040030183000000000000000000044
:103E20000000000000000000000000000000000092
:103E30000000000000000000000000000000000082
:103E400000000000000007FCFFFFFF8000000000F2
:103E50000000000000000000000000000000000062
:103E6000000000000000FC01FFEE0E0DFFFFFFF060
:103E70007F9FF7FFFFE0000020306000000000009F
:103E80000000000000000000000000000000000032
:103E90000000000000000000000000000000000022
:103EA0000000000000000000000003EFFFFFFF80A3
:103EB0000000000000000000000000000000000002
:103EC000000000000000000000207F00FFEE020C58
:103ED000FFFFFFE7FF3FEEFFFFF000004060C00084
:103EE00000000000000000000000000000000000D2
:103EF00000000000000000000000000000000000C2
:103F0000000000000000000000000000000001FFB1
:103F1000FFFFFFC0000000000000000000000000E4
:103F200000000000000000000000000000207F8072
:103F30007FEE000C5FFFFFFFFE7FEDFFFFF0100044
:103F4000C0C1800000000000000000000000000070
:103F50000000000000000000000000000000000061
:103F60000000000000000000000000000000000051
:103F7000000003FE7FFFFFC0000000000000000003
:103F80000000000000000000000000000000000031
:103F900000203F803FFE601E0FFFFFFFFEFFC3FFBC
:103FA000FFF00000038B0000000000000000000094
:103FB0000000000000000000000000000000000001
:103FC00000000000000000000000000000000000F1
:103FD00000000000000003F2FFFFFFC0000000002F
:103FE00000000000000000000000000000000000D1
:103FF0000000000000100F803FFE301F03FFFFFF96
:10400000FFFF87FFFFF80000070E1C000000000004
:104010000000000000000000000000000010000090
:104020000000000000000000000000000000000090
:104030000000000000000000000003F0FFFFFFC0D0
:104040000000000000000000000000000000000070
:104050000000000000000000001807819FFC180FFE
:1040600001FFFFFFFFFF8FFFFFFDE0034F143C0048
:104070000000000000000000000000000000000040
:104080000010000000000000000000000000000020
:1040900000000000000000000000000000000277A7
:1040A000FFFFFFC000000000000000000000000053
:1040B00000000000000000000000000000080000F8
:1040C000FFFC0E0F807FFFFFFFFF1FFFFFFCC046BE
:1040D0001738380000000000000000000000000059
:1040E00000000000001000000000000000000000C0
:1040F00000000000000000000000000000000000C0
:1041000000000037FFFFFFC40000000000000000B7
:10411000000000000000000000000000000000009F
:10412000000900003FF80F07C01FFFFFFFFE3FFF21
:10413000FFFFC0C02E7870000000000000000000EB
:10414000000000000000000000120000002000003D
:10415000000000000000000000000000000000005F
:104160000000000000000077FFFFFFC40000000017
:10417000000000000000000000000000000000003F
:1041800000000000000C81003FF80780E00FFFFFF7
:10419000FFFC7FFFFBFFC0805CF0E400000000003C
:1041A00000000000000000000000000000100400FB
:1041B00000200000000000000000000000000000DF
:1041C0000000000000000000000000F7FFFFFFC03B
:1041D00000000000000000000000000000000000DF
:1041E00000000000000000000004C0807FF803C051
:1041F0006007FFFFFFFCFBFFF1A7C00079E3C800E9
:1042000000000000000000000000000000000000AE
:104210000000060000220000000000000000000076
:10422000000000000000000000000000000000F698
:10423000FFFFFFE0000000000000000000000000A1
:10424000000000000000000000000000000660C147
:10425000FFF801F07003FFFFFFF1FFFFE21F821C78
:1042600031E79000000000000000000000000000A6
:104270000000000000008600002300000000000095
:10428000000000000000000000000000000000002E
:10429000000000F8FFFFFFC0000000000000000069
:1042A000000000000000000000000000000000000E
:1042B000000330FFFFF800FC3000FFFFFFF3FFFFBB
:1042C000E43F063F23FFBC000000000000000000A8
:1042D000000000000000000000000200002080003C
:1042E00000000000000000000000000000000000CE
:1042F00000000000000000F9FFFFFFE000000000E8
:1043000000000000000000000000000000000000AD
:104310000000000000213E7FFFF8007E30007FFF9C
:10432000FFFFFFFFC8FE046347EF380000000000F6
:104330000000000000000000000000000001868076
:1043400000008000000000000000000000000000ED
:104350000000000000000000000000FDFFFFFFCE95
:10436000000000000000000000000000000000004D
:1043700000000000000000000011BFFFFFF8003F38
:1043800090007BFFFFFFFFFF803E0E47CC8EF000CA
:10439000000000000000000000000000000000001D
:1043A0000050C680002080000000000000000000D7
:1043B000000000000000000000000000000000FD00
:1043C000FFFFFFEC00000000000000000000000004
:1043D0000000000000000000000000000018FFFFC7
:1043E000FFFC001FD8003CFFFFFFFFFF807C18CFC1
:1043F000881F900000000000000000000000000086
:104400000000000001F084800000000000000000B7
:10441000000000000000000000000000000000009C
:10442000000000F9FFFFFFFC00000000000000009A
:10443000000000000000000000000000000000007C
:1044400000007FFFFFF80007FC001E7FFFFFFFFF5B
:1044500000E991BD90BC00000000000000000000D9
:1044600000000000000000000390A5800080800094
:10447000000000000000000000000000000000003C
:1044800000000000000001FBFFFFFFFC0000000037
:10449000000000000000000000000000000000001C
:1044A0000000000000067FFFFFF80003FC00071F6C
:1044B000FFFFFFFE0183817938F820000000000033
:1044C0000000000000000000000000000081A100CA
:1044D000000080000000000000000000000000005C
:1044E000000000000000000000001779FFFFFFFC43
:1044F00000000000000000000000000000000000BC
:10450000000000000000000000033FFFFFF8000172
:10451000FFC0078FFFFFFFFC030323FB79C180006F
:10452000000000000000000000000000000000008B
:104530000D87C30000000000000000000000000024
:104540000000000000000000000000000000162D28
:10455000FFFFFFFC00000000000000000000000062
:104560000000000000000000000000000001CFFF7C
:10457000FFEC0000FFF003C7FFFFFFFC060647F754
:10458000DB00000000000000000000000000000050
:10459000000000000DB7C300000000000000000094
:1045A000000000000000000000000000000000000B
:1045B00000003663FFFFFFF800000000000000006D
:1045C00000000000000000000000000000000000EB
:1045D0000000FFFFFFCC00007FF801E7FFFFFFFCBA
:1045E000000C07F7FF1C00000000000000000000A6
:1045F00000000000000000000FFFE30000000000CA
:1046000000000000000000000000000000000000AA
:104610000000000000003622FFFFFFFE0000000047
:10462000000000000000000000000000000000008A
:104630000000000000007FFFFF8C00003DFC00F741
:10464000FFFFFFF8001C0FFF3FFE100000000000FE
:1046500000000000000000000000000007FFC30091
:10466000000000000000000000000000000000004A
:1046700000000000000000000000B600FFFFFFFE89
:10468000000000000000000000000000000000002A
:10469000000000000000000000031FFFFF0C0000EE
:1046A00000FEC07FFFFFFFF800301BFF7FF82000F7
:1046B00000000000000000000000000000000000FA
:1046C00003FFC60001000000000000000000000021
:1046D0000000000000000000000000000000B60024
:1046E000FFFFFFFF000000000000000000000000CE
:1046F0000000000000000000000000000001DFFFDB
:10470000FE04000031FFC03FFFFFFFF0002017BE96
:10471000FFC00000000000000000000000000000DA
:104720000000000007FFC6000000000000000000BD
:104730000000000000000000000000000000000079
:1047400000003C00FFFFFFFF000000000000000031
:104750000000000000000000000000000000000059
:1047600000003FFFFC06000033FF801FFFFFFFF04B
:104770000000273FFDC8000000000000000000000E
:10478000000000000000000007FFCE000001000054
:104790000000000000000000000000000000000019
:1047A0000000000000001002FFFFFFFF00000000FB
:1047B00000000000000000000000000000000000F9
:1047C00000000000000007FFF806000073FF000F64
:1047D000FFFFFFE0018047FFF9F800000000000044
:1047E00000000000000000000000000007FF8C0037
:1047F00000010000000000000000000000000000B8
:10480000000000000000000000002006FFFFFFFF86
:104810000000000000000000000000000000000098
:104820000000000000000000000001FFFC0200008A
:1048300073FF000FFFFFFFE00110CFFFFBF0000050
:104840000000000000000000000000000000000068
:104850000FFFAE0003020000000000000000000097
:104860000000000000000000000000000000000642
:104870007FFFFFFE000000000000000000000000BD
:104880000000000000000000000000000000003FE9
:10489000FC02000073F60007FFFFFFE10601BFFF07
:1048A000FFE0000000000000000000000000000029
:1048B000000000004FFFBC000002000000000000EC
:1048C00000000000000000000000000000000000E8
:1048D000000000067FFFFFFE000000000000000057
:1048E00000000000000000000000000000000000C8
:1048F00000000005F803000073F00003FFFFFFE372
:104900001C037FFFFFC0000000000000000000004B
:1049100000000000000000007FFF1A00008200007D
:104920000000000000000000000000000000000087
:1049300000000000000000047FFFFFFE00000000F8
:104940000000000000000000000000000000000067
:104950000000000000000001F801000073F00003F7
:10496000FFFFFFE20806F7FEFF80000000000000E6
:104970000000000000000000000000007FFF9A001F
:104980000100000000000000000000000000000026
:104990000000000000000000000000047FFFFFFF97
:1049A0000000000000000000000000000000000007
:1049B000000000000000000000000003E001000013
:1049C000F3F00001FFFFFFFC0003BFFFFE800000CB
:1049D00000000000000000000000000000000000D7
:1049E000FFFFFE200004A400000000000000000003
:1049F00000000000000000000000000000000004B3
:104A0000FFFFFFFF000000000000000000000000AA
:104A10000000000000000000000000000000000393
:104A2000C0010000F7F00001FFFFFFF9C1001FFF08
:104A3000FC800000000000000000000000000000FA
:104A400000000001FFFF7E400485800000000000A0
:104A50000000000000000000000000000000000056
:104A600000000006FFFFFFFF000000000000000044
:104A70000000000000000000000000000000000036
:104A800000000003C000000071980000FFFFFFFF5E
:104A900082019FFFFF0000000000000000000000F6
:104AA0000000000000000000FFFF7440080D00003F
:104AB00000000000000000000000000000000000F6
:104AC0000000000000000006BFFFFFFE0000000025
:104AD00000000000000000000000000000000000D6
:104AE0000000000000000001C0008000E00800009D
:104AF0007FFFFFFF0403FFFFFF0000000000000036
:104B0000000000000000000000000000FFFFFC406B
:104B100001FD220000000000000000000000000075
:104B20000000000000000000000000843FFFFFFCC8
:104B30000000000000000000000000000000000075
:104B400000000000000000000000000380000000E2
:104B5000E00800003FFFFFFE0803FFFFFF0000002A
:104B60000000000000000000000000000000000342
:104B7000FFFFFF00003B1E000000000000000000DF
:104B80000000000000000000000000000000008D98
:104B9000BFFFFFFC0000000000000000000000005C
:104BA0000000000000000000000000000000000302
:104BB00080000000600C00003FFFFFF8303FFFFF67
:104BC000FE000000000000000000000000000000E7
:104BD00000000003FFFFF90008323600000000006B
:104BE00000000000000000000000000000000000C5
:104BF0000000008DBFFFFFFF00000000000000006C
:104C000000000000000000000000000000000000A4
:104C10000000000380000000600400001FFFFFFC94
:104C20002024FFFFFE000000000000000000000044
:104C30000000000000000037FFFFFD8006703E000E
:104C40000000000000000000000000000000000064
:104C50000000000000000081FFFFFFFF00000000D7
:104C60000000000000000000000000000000000044
:104C70000000000000000007800000006006000047
:104C80001FFFFFFC0227FFFFFE00000000000000E6
:104C900000000000000000000000400FFFFFFD804A
:104CA00037E40E00000000000000000000000000DB
:104CB0000000000000000000000000093FFFFFFEB0
:104CC00000000000000000000000000000000000E4
:104CD00000000000000000000000001F00000000B5
:104CE000600600000FFFFFFF807FFFFFFC00000059
:104CF0000000000000000000000000000000008F25
:104D0000FFFFFFC07DE04C0000000000000000003D
:104D1000000000000000000000000000000000187B
:104D20003FFFFFFE00000000000000000000000048
:104D30000000000000000000000000000000003F34
:104D4000800000002006000007FFFFFFFFFFFFFFBD
:104D5000FC000000000000000000000000000078DF
:104D60001006003FFFFFFFC83BE8440000000000C2
:104D70000000000000000000000000000000000033
:104D8000000000103FFFFFFE0000000000000000D8
:104D90000000000000000000000000000000000013
:104DA0000000003F000000002006000003FFFFFF9E
:104DB000FFFFFFFFFC0000000000000000000000FB
:104DC000000023E3C0081C3FFFFFFFE07BF8CC009E
:104DD00000000000000000000000000000000000D3
:104DE00000000000000000103FFFFFFC000000007A
:104DF00000000000000000000000000000000000B3
:104E0000000000000000003B8000000000030000E4
:104E100001FFFFFFFFFFFFFFF800000000000000A0
:104E20000000000000001F9F4010747FFFFFFFE0A4
:104E3000DFD0FE8000000000000000000000000045
:104E40000000000000000000000000203FFFFFF015
:104E50000000000000000000000000000000000052
:104E60000000000000000000000000190000000029
:104E70000003000000FFFFFFFFFFFFFFF80000003E
:104E8000000000000000000000027FFFF0C1E0FF12
:104E9000FFFFFFE05810FE000000000000000000CF
:104EA00000000000000000000000000000000060A2
:104EB0007FFFFFF000000000000000000000000085
:104EC0000000000000000000000000000000001CC6
:104ED000000000000007800000FFFFFFFFFFFFFF52
:104EE000F80000000000000000000000000DFFFFBF
:104EF000C007E9FFFFFFFFE18004EB800000000036
:104F000000000000000000000000000000000000A1
:104F100000000040FFFFFFF0000000000000000064
:104F20000000000000000000000000000000000081
:104F30000000000C0000000000078000007FFFFF61
:104F4000E7FFFFFFF8000000000000000000000085
:104F50000023FFFE001E43FFFFFFFFF1F3C1FF80B0
:104F60000000000000000000000000000000000041
:104F700000000000000000C0FFFFFFF00000000084
:104F80000000000000000000000000000000000021
:104F9000000000000000000F000000000207800079
:104FA000007FFFFFF7FFFFFFF80000000000000098
:104FB00000000000004FFFFC007FEFFFFFFFFFF34A
:104FC0007FD1FF8000000000000000000000000012
:104FD000000000000000000000000183FFFFFFF060
:104FE00000000000000000000000000000000000C1
:104FF0000000000000000000000001EF8000000041
:105000000307C000003FFFFFFFFFFFFFF0000000AD
:105010000000000000000000009FFFE001FFFFFF14
:10502000FFFFFFF36FC9FF800000000000000000D9
:10503000000000000000000000000000000000036D
:10504000FFFFFFE000000000000000000000000083
:10505000000000000000000000000000000000FF51
:105060009800000C038FC000003FFFFFFFFFFFFF11
:10507000E10000000000000000000000013FFFD040
:1050800007FFFFFFFFFFFFF70FCFFF8000000000CB
:105090000000000000000000000000000000000010
:1050A0000000004FFFFFFFE00000000000000000D4
:1050B00000000000000000000000000000000000F0
:1050C0000000003FFC00000603CFC000001FFFFFF0
:1050D000FFFFFFFFE00000000000000000000000F4
:1050E000027FFF300FFFFFFFFFFFFFFFCF9BFF801F
:1050F00000000000000000000000000000000000B0
:10510000000000000000008FFFFFFF000000000013
:10511000000000000000000000000000000000008F
:10512000000000000000007FFE00000603EFC0004A
:10513000001FFFFFFFFFFFFFEC000000000000006A
:105140000000000004FFFE701FFFFFFFFFFFFFFFD6
:105150008FBF7D8000000000000000000000000004
:1051600000000000000000000000000FFFFFFE0034
:10517000000000000000000000000000000000002F
:1051800000000000000000000000001FFF000003FE
:1051900003FFE000000FFFFFFFFFFFFFDC00000048
:1051A000000000000000000008FFF8E07FFFFFFFA4
:1051B000FFFFFFFF9FFFFD00000000000000000058
:1051C0000000000000000000000000000000001FC0
:1051D000FFFFFC00000000000000000000000000D5
:1051E0000000000000000000000000000000001CA3
:1051F000FF00000301FFE000000BFFFFFFFFFFFFC8
:10520000F000000000000000000000001BFFF7E1BC
:10521000FFFFFFFFFFFFFFFF9FFFFD0000000000FB
:10522000000000000000000000000000000000007E
:105230000000007FFFFFF8000000000000000000F9
:10524000000000000000000000000000000000005E
:10525000000000001F80000181FFE0000007FFFF49
:10526000FFFFFFFFC88000000000000000000000FA
:1052700013FF8FEBFFFFFFFFFFFFFFFFFFFFF100BB
:10528000000000000000000000000000000000001E
:1052900000000000000000FFFFFFF0000000000021
:1052A00000000000000000000000000000000000FE
:1052B00000000000000000000F80000181FFE000FE
:1052C0000007FFFFFFFFFFFFFDC000000000000020
:1052D0000000000037FE1FE7FFFFFFFFFFFFFFFF9B
:1052E000FFFF8F0000000000000000000000000031
:1052F0000000000000000000000000FFFFFFC000F1
:10530000000000000000000000000000000000009D
:1053100000000000000000000000000003C00001C9
:10532000C0FFC0000003FFFFFFFFFFFFFFC2000040
:1053300000000000000000002FFFFFCFFFFFFFFF75
:10534000FFFFFFFFFFFFBF000000000000000000A4
:10535000000000000000000000000000000981FFC4
:10536000FFFFC0000000000000000000000000007F
:10537000000000000000000000000000000000002D
:1053800001C00000C0FF80000003FFFFFFFFFFFF20
:10539000FFBE000000000000000000005FFFFFDF14
:1053A000FFFFFFFFFFFFFFFFFFFFFF000000000008
:1053B00000000000000000000000000000000000ED
:1053C000008F87FFFFFF00000000000000000000CA
:1053D00000000000000000000000000000000000CD
:1053E0000000000000E00000C07C00000003FFFFA0
:1053F000FFFFFFFFFFFDC0000000000000000000F5
:105400001FFF7FDFFFFFFFFFFFFFFFFFFFFFFE002C
:10541000000000000000000000000000000000008C
:105420000000000000FF9FFFFFFE000000000000E2
:10543000000000000000000000000000000000006C
:10544000000000000000000000710000E07C00008F
:105450000001FFFFFFFFFFFFFFECC00000000000A6
:10546000000000009FFCFFFFFFFFFFFFFFFFFFFFAB
:10547000FFFDF6000000000000000000000000003A
:105480000000000000000000007FFFFFFFFE0000A2
:10549000000000000000000000000000000000000C
:1054A000000000000000000000000000007180000B
:1054B000603E00000001FFFFFFFFFFFFFFF812004A
:1054C000000000000000000037F1FFFFFFFFFFFFBA
:1054D000FFF7FFFFFFFFF4000000000000000000E6
:1054E00000000000000000000000000000FFFFFFBF
:1054F000FFF80000000000000000000000000000B5
:10550000000000000000000000000000000000009B
:105510000030C000703A00000001FFFFFFFFFFFFF6
:10552000FFE0320000000000000000007FF3FFDF1A
:10553000FFFFFFFFFFDFFFFFFFFFFD000000000098
:10554000000000000000000000000000000000005B
:1055500001FFFFFFFFF0000000000000000000005E
:10556000000000000000000000000000000000003B
:105570000000000000306000701B00000001FFFF11
:10558000FFFFFFFFFFC7E600000000000000000073
:1055900033EFFFFFFFFFFFFFFC9FFFFFFFFD9C00BE
:1055A00000000000000000000000000000000000FB
:1055B0000000000003FFFFFFFFE00000000000000C
:1055C00000000000000000000000000000000000DB
:1055D0000000000000000000001160003019800091
:1055E0000000FFFFFFFFFFFFFFC7FC0000000000FF
:1055F0000000000126FFFFFFFFFFFFFFC1FFFFFFCD
:10560000FFFF9C20000000000000000000000000E0
:1056100000000000000000007FFFFFFFFFC000004F
:10562000000000000000000000000000000000007A
:105630000000000000000000000000000019300021
:10564000380DC0000000FFFFFFFFFFFFFF8FFC00D1
:1056500030000000000000004FFFFFDFFFFFFFFCF5
:1056600003FFFFFFFFFFF800000000000000000044
:10567000000000000000000000000007E3FFFFFF43
:10568000FF8000000000000000000000000000009B
:10569000000000000000000000000000000000000A
:1056A000000DB800180DE0000000FFFFFFFFFFFF36
:1056B000FF3FB40064000000000000019FCFFFBF67
:1056C000FFFFFE004FFFFFFFFFFFFA00000000009A
:1056D0000000000000000000000000000000007654
:1056E00003FFFFFFFF80000000000000000000003B
:1056F00000000000000000000000000000000000AA
:1057000000000000000CD8000C04E0000000FFFFC7
:10571000FFFFFFFFFE7E0C00F8000000000000000D
:105720003FBFFFBFFFFFE0007FFFFFFFFFFFFA006B
:105730000000000000000000000000000000000069
:10574000000003C003FFFFFFFDF8000000000000A1
:105750000000000000000000000000000000000049
:1057600000000000000000000007DC000604B0009C
:1057700000007FFFFFFFFFFFFDFC1001E080000045
:10578000000000181FFFFF3F9FBF004FFFFFFFFFFC
:10579000FFFFF80000000000000000000000000013
:1057A0000000000000003C0007FFFFFFF87C000045
:1057B00000000000000000000000000000000000E9
:1057C0000000000000000000000000000007FC00D6
:1057D0000706900000007FFFFFFFFFFFFFFE300382
:1057E000E08000000000FFFC1FFFFF7FFF780E0F2E
:1057F000FFFFFFFFFFFFE4000000000000000000CB
:1058000000000000000000000001F002C7FFFFFFE1
:10581000F81C000000000000000000000000000074
:105820000000000000000000000000000000000078
:105830000003FC000386980000003FFFFFFFFFFF0E
:10584000FFE1E00FC883F000001FFFFE3FFFFEFEF8
:10585000FFE5C0FFFFFFFFFFFFFFF00000000000BB
:10586000000000000000000000000000000F0040E9
:10587000C7FFFFFFF019000000000000000000005B
:105880000000000000000000000000000000000018
:10589000000000000001FE0001C2880000003FFF80
:1058A000FFFFFFFFFFE0C01F8407FC0001FC00FFBB
:1058B0007FFFFEF7FF880FFFFFFFFFFFFFFDF88070
:1058C00000000000000000000000000000000000D8
:1058D000007003818FFFFFFFE00E0000000000005A
:1058E00000000000000000000000000000000000B8
:1058F00000000000000000000000660000F2480008
:1059000000003FFFFFFFFFFFFFF4C07F6C0FFE00B2
:105910001FC003FFFFFFFE07FE1FFFFFFFFFFFFF8C
:10592000FFFFDC004000000000000000000000005D
:105930000000000001C000038FFFFFFFFD7FC000DB
:105940000000000000000000000000000000000057
:105950000000000000000000000000000000060041
:1059600000784C0000003FFFFFFFFFFFFFCB80FFF0
:105970009C1FFF80FE000FFFFFFFFDFFFCFFFFFFEE
:10598000FFFFFFFFFFFFFE0080000000000000009F
:1059900000000000000000000F0000031FFFFFFFD9
:1059A000FC7FE0000000000000000000000000009C
:1059B00000000000000000000000000000000000E7
:1059C00000000300003E640000001FFFFFFFFFFF18
:1059D000FFBF03FFF83FFFE0C0001FFFFFFFFFFF17
:1059E000FFA7FFFFFFFFFFFFFFFFFA00000000001F
:1059F0000000000000000000000000007000000037
:105A00003FFFFFFF80377000000000000000000033
:105A10000000000000000000000000000000000086
:105A20000000000000000300001F660000001FFFD0
:105A3000FFFFFFFFFFFE0FFFF07FFFFF80087FFFEC
:105A4000FFFFFFFFFFFFFFFFFFFFFFFFFFFFDE0284
:105A50002000000000000000000000000000000125
:105A6000C00000007FFFFFFF9FFF780000000000E4
:105A70000000000000000000000000000000000026
:105A8000000000000000000000000380000F3E0046
:105A900000001FFFFFFFFFFFFFFC1FFFE0FE03FFF3
:105AA0000030FFFFFFFF1FFFFFFFFFFFFFFFFFFFB4
:105AB000FFFFFC0480000000000000000000000068
:105AC0000000000300000000FFFFFFFE37FFF800AA
:105AD00000000000000000000000000000000000C6
