:020000040800F2
:10000000A02C0020D9080008AD040008AF040008A7
:10001000B3040008B7040008BB0400080000000097
:10002000000000000000000000000000BF04000805
:10003000C104000800000000C3040008C504000853
:10004000F3080008F3080008F3080008F3080008A4
:10005000F3080008F3080008F3080008F308000894
:10006000F3080008F3080008F3080008F308000884
:10007000F3080008F3080008F3080008F308000874
:10008000F3080008F3080008F3080008F308000864
:10009000F3080008F3080008F3080008F308000854
:1000A000F3080008F3080008F3080008F308000844
:1000B000F3080008F3080008F3080008F308000834
:1000C000F3080008F3080008F3080008F308000824
:1000D000F30800084D080008F3080008F3080008BA
:1000E000F3080008F3080008F3080008F308000804
:1000F000F3080008F3080008F3080008F3080008F4
:10010000F3080008F3080008F3080008F3080008E3
:10011000F3080008F3080008F3080008F3080008D3
:10012000F3080008F3080008F3080008F3080008C3
:1001300000F002F800F03AF80AA090E8000C8244BF
:100140008344AAF10107DA4501D100F02FF8AFF29C
:10015000090EBAE80F0013F0010F18BFFB1A43F0A5
:100160000103184768ED000088ED0000103A24BF35
:1001700078C878C1FAD8520724BF30C830C144BF0C
:1001800004680C607047000000230024002500264E
:10019000103A28BF78C1FBD8520728BF30C148BFEA
:1001A0000B6070471FB51FBD10B510BD02F0CCFB32
:1001B0001146FFF7F7FF00F009F802F0EAFB03B47D
:1001C000FFF7F2FF03BC00F0E7FA00000EB500F005
:1001D00069FA00F0DBFA01F09FFC43E101F00FFA4D
:1001E000A14801F0EEFB01F0D9FB022000F0B9FAC2
:1001F00001F058FA9D4801F09FFA01F0CFFB022070
:1002000000F0AFFA01F0FBF901F0FFFB01F0C6FBD3
:1002100001F05FFB002080214FF49473944ACDE9F4
:100220000010014601F013FC002020210B46914AEA
:10023000CDE90010014601F00AFC012020210B4607
:100240008D4ACDE900100021084601F000FC012094
:1002500020210B46894ACDE900100021084601F013
:10026000F6FB01F0CCF901F0D0FB01F097FB022086
:1002700000F077FAFF204FF487734FF494728021D7
:1002800000907F4801F0F0FC7D4801F02AFD01F06C
:10029000B6F9FF2001F0E0FD0120034600220A210B
:1002A0000090052001F00DFE0120022300221921FB
:1002B0000090052001F005FE0120032300222821E3
:1002C0000090052001F0FDFD0120042300223721CC
:1002D0000090052001F0F5FD0120002100913C2354
:1002E0004622CDE901100A21142001F03CFE012034
:1002F000002100913C231422CDE901100A2146205F
:1003000001F031FE0120002100913C234622CDE97D
:1003100001100A21142001F0A4FE01200022CDE9E1
:1003200000203C2382220A210290552001F099FEF0
:10033000012000210B461922CDE9001078211E2052
:1003400001F0E8FE0120009000231922782101909D
:10035000642001F0DFFE4A4801F01FF901F01EFBA6
:10036000022000F0FEF901F04AF9FF2001F074FDCF
:100370000020FF21434B44A2CDE90010014602F0CA
:1003800049F80020FF21444B3FA2CDE900100A218B
:1003900002F040F80020FF21404B3BA2CDE90010C5
:1003A000192102F037F80020FF213D4B36A2CDE99C
:1003B00000102D2102F02EF80020FF21394B32A22F
:1003C000CDE90010462102F025F82D4801F0E5F8AE
:1003D00001F0E4FA022000F0C4F901F010F9FF2066
:1003E00001F03AFD0020FF21264B2F4ACDE90010F5
:1003F000014602F055F90020FF21274B2A4ACDE99A
:1004000000100A2102F04CF90020FF21234B264A5C
:10041000CDE90010192102F043F90020FF21204B03
:10042000214ACDE900102D2102F03AF90020FF21E8
:100430001C4B1D4ACDE90010462102F031F910484D
:1004400001F0ABF801F0AAFA022000F08AF901F0FD
:10045000D6F801F0DAFA01F0A1FA022000F081F9F1
:1004600000BFFEE7BAE60000A82E000828660008D4
:1004700028410008282A0008A82A0008282B00087C
:100480005C00002034000020476F6F6420446973D3
:10049000706C6179000000003C00002044000020E6
:1004A0004C0000205400002015CD5B07704700BFB2
:1004B000FEE700BFFEE700BFFEE700BFFEE77047B4
:1004C00070477047704700000CB500200190009005
:1004D0006B48006840F480306949086000BF684894
:1004E000006800F4003000900198401C01900098D2
:1004F00018B90198B0F5A06FF1D16148006810F407
:10050000003F02D00120009001E000200090009800
:10051000012842D15B48006840F01000594908604A
:100520000846006820F0030008600846006840F0B4
:1005300002000860524840685149486008464068D7
:1005400048600846406840F480604860084640685B
:1005500020F47C1048600846406840F4E810486089
:100560000846006840F08070086000BF444800689A
:1005700010F0007FFAD04248406820F00300404964
:1005800048600846406840F00200486000BF3C48B0
:10059000406800F00C000828F9D10CBD10B5FFF739
:1005A00093FF10BD10B53648006840F00100344993
:1005B00008600846406834490840314948600846A8
:1005C0000068324908402E4908600846006820F457
:1005D000802008600846406820F4FE0048604FF420
:1005E0001F008860FFF7DAFF4FF0006028490860BD
:1005F00010BD10B5002100200022214B5B6803F0E4
:100600000C0121B1042906D0082928D107E0214B8B
:10061000214C236027E01F4B1F4C236023E0184B25
:100620005B6803F47010164B5B6803F4803202239E
:1006300003EB904022B9194B4343174C23600DE064
:100640000F4B5B6813F4003F04D0144B4343124C30
:10065000236003E00F4B43430F4C236003E00D4B3B
:100660000D4C236000BF00BF054B5B68C3F3031351
:100670000B4CE15C084B1B68CB40074C236010BD62
:1006800000100240002002400000FFF8FFFFF6FECD
:1006900008ED00E000127A000000002000093D0093
:1006A0000400002010B56FF0040000F085F9334815
:1006B00000683349B0FBF1F0324908700846007811
:1006C00000EB4001C1EBC0104FF6FF7101EAC00022
:1006D0002D49088010BD01462A4A12784A434FF03E
:1006E000E0235A6100229A611A46126942F001021F
:1006F0001A6100BF4FF0E022106910F0010F02D024
:1007000010F4803FF6D04FF0E022126922F001028F
:100710004FF0E0231A6100229A61704701461A4A9D
:1007200012884A434FF0E0235A6100229A611A4628
:10073000126942F001021A6100BF4FF0E022106915
:1007400010F0010F02D010F4803FF6D04FF0E022FD
:10075000126922F001024FF0E0231A6100229A612F
:10076000704730B50446002505E04FF47A70FFF776
:10077000D5FF681C85B2A542F7DB30BD0000002024
:1007800000127A00140000201600002010B54FF46B
:10079000A06000F0C1F810BD014600BF704700BF67
:1007A000494A128812F0400FFAD0C2B2464B1B1DC4
:1007B0001A80704710B586B00446012144F2050046
:1007C00000F02EFC4FF40070ADF8140003208DF8FB
:1007D000160018208DF8170005A93C4800F06AF9AA
:1007E0004FF48060ADF8140004208DF8170005A9BF
:1007F000364800F05FF925208DF8000003208DF8C1
:1008000001008DF8020001208DF80300684600F019
:1008100088F801940020ADF80800ADF80A00ADF8A2
:100820000C00ADF810000C20ADF80E0001A9264810
:1008300000F0A1FC012240F22551234800F033FDD5
:100840000121214800F023FD06B010BD10B540F293
:1008500025511D4800F00CFE10B31B4800F088FD28
:10086000C4B21B48008810F4004F2BD118480088F0
:1008700010F4804F0CD00A2C03D0002014490880BB
:1008800020E01348008840F400401149088019E036
:100890000D2C06D10E48008840F480400C49088099
:1008A00010E00B480088C0F30D000A490C540848BA
:1008B0000088401C0649088008460088C72801DDDA
:1008C0000020088010BD00000038014000080140F1
:1008D00018000020DC120020094880470948004722
:1008E000FEE7FEE7FEE7FEE7FEE7FEE7FEE7FEE7E0
:1008F000FEE7FEE704480549054A064B704700003D
:10090000A505000831010008A0260020A02C002029
:10091000A0280020A028002031490143314A11605D
:10092000704770B5002100230F22C4780CB32D4C02
:10093000246804F4E064C4F5E064210AC1F104030E
:10094000CA40447804FA03F1847814402143090131
:10095000254C0678A155047804F01F050124AC400D
:1009600005786D114FF0E02606EB8505C5F80041CE
:1009700009E0047804F01F050124AC401B4D067803
:10098000761145F8264070BD194A0A400243154BBE
:100990001B1F1A60704739B1124A121D12680243B8
:1009A000104B1B1D1A6006E00E4A121D126882438E
:1009B0000C4B1B1D1A607047042808D14FF0E02132
:1009C000096941F004014FF0E022116107E04FF0A6
:1009D000E021096921F004014FF0E0221161704724
:1009E0000000FA050CED00E000E400E080E100E02A
:1009F00080FFFF1F10B50446CA48844208D1012178
:100A0000042000F027FB0021042000F023FB46E037
:100A1000C548844208D10121082000F01BFB0021B9
:100A2000082000F017FB3AE0C048844208D10121B9
:100A3000102000F00FFB0021102000F00BFB2EE037
:100A4000BB48844208D10121202000F003FB002193
:100A5000202000F0FFFA22E0B648844208D10121AC
:100A6000402000F0F7FA0021402000F0F3FA16E0F1
:100A7000B148844208D10121802000F0EBFA002126
:100A8000802000F0E7FA0AE0AC48844207D1012157
:100A9000801500F0DFFA0021A01500F0DBFA10BD90
:100AA00010B50121084600F0D5FA0021012000F020
:100AB000D1FA10BD2DE9F0410246002500260020A4
:100AC00000230024002791F803C00CF00F0591F8D3
:100AD00003C01CF0100F03D091F802C04CEA0505CA
:100AE00091F800C0BCF1000F31D0146800202BE059
:100AF0004FF0010C0CFA00F3B1F800C00CEA030649
:100B00009E4220D183004FF00F0C0CFA03F7BC4338
:100B100005FA03FC4CEA040491F803C0BCF1280F69
:100B200006D14FF0010C0CFA00FCC2F814C00AE028
:100B300091F803C0BCF1480F05D14FF0010C0CFA3D
:100B400000FCC2F810C0401C0828D1D31460B1F8D2
:100B500000C0BCF1FF0F34DD546800202EE000F12E
:100B6000080C4FF0010808FA0CF3B1F800C00CEAC9
:100B700003069E4221D183004FF00F0C0CFA03F7BD
:100B8000BC4305FA03FC4CEA040491F803C0BCF131
:100B9000280F05D100F1080C08FA0CF8C2F81480EF
:100BA00091F803C0BCF1480F07D100F1080C4FF0D9
:100BB000010808FA0CF8C2F81080401C0828CED3AF
:100BC0005460BDE8F0814FF6FF7101800221817011
:100BD0000421C17070470246002093680B4201D087
:100BE000012000E0002070470146886880B270470D
:100BF00002460020D3680B4201D0012000E0002013
:100C000070470146C86880B2704701617047416112
:100C100070470AB1016100E041617047C1607047EF
:100C20004FF480320A438261816182618269826904
:100C3000704702460020424B18684FF680731840F8
:100C400040EA021008433E4B186070473D49C861B6
:100C50007047F0B50A46002300240021002500F06B
:100C60000046B6F1004F02D1354EF16901E0344E35
:100C70007168C0F3034583B200F44016B6F5401F17
:100C800008D121F070612E4E766826F070662C4FE8
:100C90007E6012E000F48016B6F5801F06D10326B0
:100CA00006FA05F4A14341F0706106E0460D3601F5
:100CB00003FA06F6B14341F0706122B1460D3601E8
:100CC00003FA06F6314300F00046B6F1004F02D1B8
:100CD0001B4EF16101E01A4E7160F0BD30B500228B
:100CE0008B071C0F0F2303FA04F2154B08338C10EB
:100CF00053F824309343124C08348D1044F82530B7
:100D000023468C1053F824308C07240F00FA04F487
:100D100023430B4C08348D1044F8253030BD0A496C
:100D20000860704700080140000C014000100140BD
:100D30000014014000180140001C01400020014047
:100D40000000014000002042DC002042DD48006835
:100D500040F00100DB49086008464068DA49084075
:100D6000D849486008460068D8490840D549086015
:100D70000846006820F4802008600846406820F497
:100D8000FE0048604FF41F0088607047CD49096835
:100D900021F48031CB4A11601146096821F4802189
:100DA0001160B0F5803F03D0B0F5802F0ED106E082
:100DB000C449096841F48031C24A116007E0C14961
:100DC000096841F4A021BF4A116000E000BF00BFE4
:100DD000704710B501460022002300204A11012A65
:100DE00002D1B84C236806E0022A02D1B54C236A2E
:100DF00001E0B44C636A01F01F02012494401C42DC
:100E000001D0012000E0002010BD38B50020009086
:100E10000024002500BF3120FFF7DBFF05460098C6
:100E2000401C00900098B0F5A06F01D0002DF2D0CA
:100E30003120FFF7CEFF08B1012400E00024204656
:100E400038BD014600209F4A106820F0F80040EAB3
:100E5000C100106070479E4908607047024600203C
:100E6000984B586820F47C1042EA01031843954BD4
:100E70005860704796490866704701460020914ABD
:100E8000506820F003000843506070478D48406868
:100E900000F00C007047014600208A4A506820F09C
:100EA000F00008435060704701460020854A5068B2
:100EB00020F4E06008435060704701460020814AFA
:100EC000506820F4605040EAC1005060704729B17A
:100ED0007C4A527A02437B4B5A7204E0794A527A36
:100EE0008243784B5A7270477A49086070470146CE
:100EF0000020744A506820F4404008435060704716
:100F00000021754A11706F4A82F82010012802D022
:100F1000042808D103E001216F4A117004E0052183
:100F20006D4A117000E000BF00BF70476B49086058
:100F300070476449096A0143624A11627047674910
:100F400044390860704730B5002100220024002396
:100F50005C4D6D6805F00C0121B1042905D008290C
:100F600023D105E05E4D056022E05D4D05601FE088
:100F7000544D6D6805F47012524D6D6805F480345F
:100F8000022505EB92421CB9564D554305600BE016
:100F90004C4D6D6815F4003F03D0524D554305602C
:100FA00002E04F4D5543056002E04D4D056000BF26
:100FB00000BF444D6D6805F0F00109094A4D6B5CB6
:100FC0000568DD4045603F4D6D6805F4E061090A44
:100FD000454D6B5C4568DD4085603A4D6D6805F4B4
:100FE0006051C90A404D6B5C4568DD40C560354DB8
:100FF0006D6805F44041890B3C4D6B5CC568B5FBE1
:10100000F3F5056130BD29B12E4A526902432D4BDB
:101010005A6104E02B4A526982432A4B5A61704755
:1010200029B1284A92690243264B9A6104E0254A75
:1010300092698243234B9A61704729B1214AD26950
:101040000243204BDA6104E01E4AD26982431D4B01
:10105000DA61704729B11B4AD2680243194BDA6042
:1010600004E0184AD2688243164BDA60704729B10F
:10107000144A12690243134B1A6104E0114A1269BF
:101080008243104B1A617047144940390860704719
:101090000F49C86470470B49C87170470948406AD6
:1010A00040F0807007494862704701460020054AB9
:1010B00092680A4201D0012000E0002070470149F7
:1010C00088727047001002400000FFF8FFFFF6FE34
:1010D00000004242D80042422010024080044242B6
:1010E00000127A0000093D0020000020300000209E
:1010F00010B50446FB48844209D101218803FFF75B
:10110000A9FF00214FF48040FFF7A4FF32E0F6482A
:10111000844209D101214804FFF7A9FF00214FF4BF
:101120000030FFF7A4FF25E0F048844209D10121F7
:101130008804FFF79CFF00214FF48020FFF797FF02
:1011400018E0EB48844209D10121C804FFF78FFF62
:1011500000214FF40020FFF78AFF0BE0E5488442AE
:1011600008D101210805FFF782FF00214FF480100C
:10117000FFF77DFF10BD2DE9F04786B005460E460E
:101180000024A24600BFA1460027B08900B100BFDD
:101190002F462C8A4CF6FF700440F08804432C82C2
:1011A000AC894EF6F3100440B08831890843718948
:1011B00008430443AC81AC8A4FF6FF400440B08939
:1011C0000443AC8201A8FFF7BEFEC648874202D1A5
:1011D000DDF810A001E0DDF80CA0A88910F4004FA4
:1011E00008D00AEBCA0000EB0A1031684900B0FBD6
:1011F000F1F807E00AEBCA0000EB0A103168890039
:10120000B0FBF1F86420B8FBF0F004012009642180
:1012100001FB1089A88910F4004F08D0322000EBA0
:10122000C900B0FBF1F000F00700044308E03220F1
:1012300000EB09106421B0FBF1F000F00F00044353
:101240002C8106B0BDE8F0874FF4165101600021F3
:101250008180C18001810C21418100218181704701
:1012600010B502460020108A4FF2FF0318400B8889
:101270004C8823438C882343CC8823431843108213
:1012800010BD0021018041808180C180704721B163
:10129000828942F40052828104E082894DF6FF7314
:1012A0001A4082817047F0B50346002400260025CD
:1012B0000020A1F510676A3F00D100BF1846C1F3B6
:1012C000421401F01F06012707FA06F5012C01D18F
:1012D0000C3004E0022C01D1103000E014301AB1BF
:1012E00007682F43076002E00768AF430760F0BD5F
:1012F0001AB1838A0B43838202E0838A8B43838201
:101300007047028A4FF6F0731A400282028A0A433B
:101310000282704782894FF2FF731A40828182896C
:101320000A438281704721B1828942F002028281A0
:1013300004E082894FF6FD731A4082817047028A69
:101340004FF6DF731A400282028A0A430282704714
:1013500021B1028A42F48042028204E0028A4BF602
:10136000FF731A4002827047C1F3080282807047FF
:1013700001468888C0F308007047818941F0010167
:1013800081817047028BD2B20283028B42EA012232
:1013900002837047028B02F47F420283028B0A436E
:1013A0000283704721B1828A42F02002828204E0E7
:1013B000828A4FF6DF731A408282704721B1828A97
:1013C00042F01002828204E0828A4FF6EF731A40E4
:1013D0008282704721B1828A42F00802828204E050
:1013E000828A4FF6F7731A408282704721B1828950
:1013F00042F40042828103E08289C2F30E028281BC
:10140000704721B1828A42F40062828204E0828ABB
:101410004FF2FF731A4082827047828A4FF6FB7345
:101420001A408282828A0A438282704721B1828A6C
:1014300042F00202828204E0828A4FF6FD731A4073
:101440008282704702460020B1F5007F00D100BFC4
:1014500013880B4201D0012000E00020704701F406
:101460000072B2F5007F00D100BFCA43028070470E
:1014700070B502460024002300250020A1F5106667
:101480006A3E00D100BFC1F3421501F01F030126DF
:1014900006FA03F3012D02D19689334006E0022DAE
:1014A00002D1168A334001E0968A33400C1201269D
:1014B00006FA04F41688344013B10CB1012000E0A0
:1014C000002070BD10B500220023A1F510646A3C15
:1014D00000D100BF0A1201249440A3B2DC4304806F
:1014E00010BD0000003801400044004000480040AA
:1014F000004C00400050004006E042F6E06100BFB2
:101500000A00A1F10101FBD10200A0F10100F4D118
:10151000704710B54FF48041FE48FFF778FB0A2072
:10152000FFF7EAFF4FF48041FA48FFF76EFB0A200D
:10153000FFF7E2FF4FF48041F648FFF768FB0A200F
:10154000FFF7DAFF4FF48041F248FFF75EFB0A2015
:10155000FFF7D2FF4FF48041EE48FFF758FB0A2017
:10156000FFF7CAFF4FF48041EA48FFF74EFB0A201D
:10157000FFF7C2FF10BD10B500BF712000F040FBA7
:101580004FF40051E348FFF726FB044604F0010046
:1015900080F00104002CF0D110BD2DE9F041074688
:1015A00010264FF49478102000F02AFB002508E064
:1015B000002403E0002000F03BFB641CB442F9D39C
:1015C0006D1C4545F4D3132000F01AFB00250AE0FA
:1015D000002405E005FB0641785C00F029FB641C53
:1015E000B442F7D36D1C4545F2D3122000F008FB3E
:1015F0000120FFF781FFFFF7BEFFBDE8F08110B5C6
:10160000FFF787FF042000F0FBFAFFF7B4FF00208C
:1016100000F0F6FA1F2000F00BFB502000F0F0FA6B
:10162000972000F005FB10BD10B5202000F0E8FA6F
:10163000002404E0B849085D00F0FAFA641C242C88
:10164000F8D3212000F0DCFA002404E0B349085D5F
:1016500000F0EEFA641C242CF8D3222000F0D0FA1B
:10166000002404E0AE49085D00F0E2FA641C242C7A
:10167000F8D3232000F0C4FA002404E0A949085D4F
:1016800000F0D6FA641C242CF8D3242000F0B8FA19
:10169000002404E0A449085D00F0CAFA641C242C6C
:1016A000F8D310BD10B5FFF734FF012000F0A8FA01
:1016B000032000F0BDFA002000F0BAFA2B2000F061
:1016C000B7FA2B2000F0B4FA062000F099FA1720A0
:1016D00000F0AEFA172000F0ABFA172000F0A8FADD
:1016E000042000F08DFAFFF746FF002000F088FA92
:1016F000BF2000F09DFA302000F082FA3C2000F07C
:1017000097FA612000F07CFA802000F091FA012025
:1017100000F08EFA282000F08BFA822000F070FA98
:10172000122000F085FA502000F06AFA972000F0AD
:101730007FFAFFF779FF10BD2DE9F04781461020B1
:1017400000F05EFA002739E00024002630E006EBC6
:10175000870019F8008008F0F005F02D02D144F060
:10176000010409E005B907E0A02D04DDF02D02DA3F
:1017700044F0010400E000BF6006040E4FEA087068
:101780004FEA106808F0F005F02D02D144F0010492
:1017900009E005B907E0A02D04DDF02D02DA44F0E0
:1017A000010400E000BF032E01D06006040E761C89
:1017B000042ECCD3204600F03BFA7F1CB7F5945F93
:1017C000C2D3132000F01CFA002737E000240026C3
:1017D0002EE006EB870019F8008008F0F005F02DE8
:1017E00002D144F0010408E005B906E0A02D02DDB5
:1017F000F02D00DA01E044F001046006040E4FEA27
:1018000008704FEA106808F0F005F02D02D144F09E
:10181000010408E005B906E0A02D02DDF02D00DA94
:1018200001E044F00104032E01D06006040E761C92
:10183000042ECED3204600F0FBF97F1CB7F5945F51
:10184000C4D3122000F0DCF90A20FFF755FEFFF7A1
:1018500092FEBDE8F08710B5202000F0D1F90024F9
:1018600004E03249085D00F0E3F9641C2C2CF8D345
:10187000212000F0C5F9002404E02D49085D00F0A6
:10188000D7F9641C2A2CF8D3222000F0B9F90024DF
:1018900004E02849085D00F0CBF9641C2A2CF8D339
:1018A000232000F0ADF9002404E02349085D00F096
:1018B000BFF9641C2A2CF8D3242000F0A1F90024DD
:1018C00004E01E49085D00F0B3F9641C2A2CF8D32B
:1018D00010BD10B5FFF71DFE012000F091F90320A7
:1018E00000F0A6F9002000F0A3F92B2000F0A0F9E9
:1018F0002B2000F09DF9032000F09AF9062000F05B
:101900007FF9172000F094F9172000F091F91720C3
:1019100016E000000018014028B0000864B000087C
:1019200088B00008C4B00008E8B000080CB1000896
:1019300048B100086CB10008A8B10008CCB100089B
:1019400000F076F9042000F05BF9FFF714FE0020A8
:1019500000F056F9BF2000F06BF9302000F050F98C
:101960003C2000F065F9612000F04AF9802000F089
:101970005FF9012000F05CF9282000F059F982207D
:1019800000F03EF9122000F053F9502000F038F931
:10199000472000F04DF9FFF75EFF10BD10B5502055
:1019A00000F02EF9F72000F043F9022000F028F9AA
:1019B000FFF7E1FD072000F023F9A52000F038F93A
:1019C00010BD70B50546102000F01AF9002403E0A0
:1019D000FF2000F02DF9641CB4F5945FF8D31320B8
:1019E00000F00EF9002404E0287800F021F96D1CC5
:1019F000641CB4F5945FF7D3122000F001F90120C4
:101A0000FFF77AFDFFF7B7FD70BD10B5102000F0AD
:101A1000F7F8002403E0FF2000F00AF9641CB4F595
:101A2000945FF8D3132000F0EBF8002403E0FF20CC
:101A300000F0FEF8641CB4F5945FF8D3122000F0B7
:101A4000DFF80120FFF758FDFFF795FD10BD2DE9E8
:101A5000F84F06460D4617469846DDF8289006EBE7
:101A60000900401E009005EB0800A0F1010B09FBE6
:101A700008F04FEAD00A912000F0C2F8902000F060
:101A8000BFF8F0B200F0D4F80099491EC8B200F0D7
:101A9000CFF8C5F3072000F0CBF8E8B200F0C8F8A3
:101AA000CBF3072000F0C4F8ABF10101C8B200F09D
:101AB000BFF8282000F0BCF8102000F0A1F80024A6
:101AC0000CE00B9818B9002000F0B2F805E01149BD
:101AD000095DC943C8B200F0ABF8641C5445F0D3AB
:101AE000132000F08DF8002408E0395DC943C8B226
:101AF00000F09EF8385D07490855641C5445F4D33E
:101B0000122000F07DF80A20FFF7F6FCFFF733FD06
:101B1000BDE8F88FA413002008B501216020FFF76D
:101B20007FFA4FF4E060ADF8000010208DF803005C
:101B300002208DF8020069464948FEF7BBFF4FF4CA
:101B40004040ADF8000010208DF8030002208DF811
:101B5000020069464348FEF7ADFF4FF40050ADF870
:101B6000000048208DF8030002208DF8020069462D
:101B70003C48FEF79FFF4FF48050ADF80000102066
:101B80008DF8030002208DF8020069463548FEF703
:101B900091FF08BD00BF0100A0F10102D0B2FAD14F
:101BA000704770B504460120FFF7F4FF002524E0DC
:101BB0004FF400712A48FFF72AF80120FFF7EAFFE7
:101BC00014F0800F05D04FF480612548FFF71DF811
:101BD00004E04FF480612248FFF719F86006040E14
:101BE0000120FFF7D7FF4FF400711D48FFF70DF8F4
:101BF0000120FFF7CFFF681CC5B2082DD8DB70BDF0
:101C000010B504460120FFF7C5FF4FF4807114485A
:101C1000FEF7FDFF4FF400411248FEF7F8FF2046A3
:101C2000FFF7BFFF4FF480710D48FEF7EEFF10BDC8
:101C300010B504460120FFF7ADFF4FF4807108484E
:101C4000FEF7E5FF4FF400410648FEF7DEFF2046B1
:101C5000FFF7A7FF4FF480710148FEF7D6FF10BDD4
:101C600000140140001801402DE9F0410646069F8E
:101C70000020F94C20602046066001814281878166
:101C80000C464FEAE17C01EB5C7C4FEAEC0CB1EBDB
:101C9000CC0C07D10D464FEAE57C05EB5C7C4FEAA6
:101CA000EC0C08E008464FEAE17C01EB5C7C4FEA73
:101CB000EC0C0CF1010CDFF8A083A8F812C0404630
:101CC0008282C3810020444620820BB1B42B03D111
:101CD000E1488180C28002E0DF488280C180BDE8A7
:101CE000F081DD490860704730B15A2804D0B4282B
:101CF00002D0B0F5877F01D1D749C881704728B19C
:101D0000012803D0022801D0032801D1D24908823A
:101D100070472DE9F04103460C461746CE4EB68873
:101D20009E4203DBCC4EF688A64201DABDE8F08184
:101D3000C94EF6893EB15A2E08D0B42E0DD0B6F554
:101D4000877F1CD114E01846214619E0C24E36891F
:101D5000361B761EB0B2194612E0BF4E3689F61A0F
:101D6000761EB0B2BC4E7689361B761EB1B207E045
:101D70002046B94E7689F61A761EB1B200E0D5E754
:101D800000BFB54E368A36B1012E05D0022E09D0DD
:101D9000032E18D10CE017E0AF4E3689361A761EA6
:101DA000B0B211E0AC4E7689761A761EB1B20BE075
:101DB000A94E3689361A761EB0B2A74E7689761AA3
:101DC000761EB1B200E0B1E700BFA34E368986426D
:101DD00003DBA14E76898E4200DAA7E706464FEA7A
:101DE000E07C00EB5C7C4FEAEC0CDFF86C82B8F82E
:101DF000128001FB08C2984E3668B55CAFB9064642
:101E00004FEAE07C00EB5C7C4FEAEC0CA0EBCC08EA
:101E10004FF0800C4CFA08FC25EA0C0CDFF83882F5
:101E2000D8F8008008F802C014E006464FEAE07CCB
:101E300000EB5C7C4FEAEC0CA0EBCC084FF0800C84
:101E40004CFA08FC4CEA050CDFF80C82D8F800804C
:101E500008F802C000BF69E730B50246002110E073
:101E6000002008E07C4C648A01FB04037A4D2D6855
:101E7000EA54441CA0B2784C648A8442F2DC4C1CC4
:101E8000A1B2754CA48A8C42EADC30BD2DE9F04742
:101E900006460F4690469946DDF820A03D460CE0E8
:101EA000344606E0524629462046FFF732FF601CC2
:101EB00084B24445F6DB681C85B24D45F0DBBDE8D5
:101EC000F0872DE9F0470746884691461C46DDF825
:101ED00020A061488088B84203DB5F48C088404545
:101EE00001DABDE8F087BAF1010F24D100251DE029
:101EF000002614E007EB0500001B03D408EB0600E6
:101F0000001B00D50FE008EB0602121B91B27A19F4
:101F1000121B90B24A46FFF7FCFE701C06B260002E
:101F2000401EB042E6DC00BF681C05B26000401EE7
:101F3000A842DDDC15E0002511E000260BE008EBEF
:101F40000602521E91B27A19521E90B24A46FFF70B
:101F5000E0FE701C06B2A642F1DB681C05B2A54289
:101F6000EBDB00BFBDE72DE9F04F85B004460D4621
:101F700016461F4638488088A0420BDB3648C0888A
:101F8000A84207DB34488088B04203DB3248C0886F
:101F9000B84202DA05B0BDE8F08FA046AA46301B71
:101FA00001D4301B00E0A01B8346781B002801DC15
:101FB000781B00E0E81B0490B44201DA012001E044
:101FC0004FF0FF300390BD4201DA012001E04FF0F5
:101FD000FF30029004980BEB00090020019000BF35
:101FE0000198401CC0B201900F98012811D1032123
:101FF000019890FBF1F201FB120050B90120009012
:10200000FF2251464046109BFFF75BFF00200190E6
:1020100007E00120009051464046109B0E9AFFF7C2
:1020200050FF4FEA49010498814208DBB04500D1D6
:1020300014E004988144039840441FFA80F84FEA62
:1020400049005845CCDCBA4500D107E0D944029894
:1020500050441FFA80FAC3E72426002000BF00BFC7
:1020600098E72DE9FE4F81460F4692469846DDE9F6
:102070000DB50C9CFE48808848450BDBFC48C088A9
:10208000B84207DBFA488088504503DBF848C0882F
:10209000404501DABDE8FE8FBBF1000F10D03E468F
:1020A0000BE00020334652463146CDE9010500944D
:1020B0004846FFF758FF701C86B24645F1DB27E023
:1020C00000203B4652463946CDE90105009448467A
:1020D000FFF749FF002043464A463946CDE901054E
:1020E00000944846FFF73FFF00203B4652464146DA
:1020F000CDE9010500945046FFF735FF0020434627
:102100004A464146CDE9010500945046FFF72BFFB2
:1021100000BFBFE72DE9F84F05460E4692469B46A5
:10212000D3488088A84203DBD148C088B04201DC94
:10213000BDE8F88F00240FFA8AF70320A0EB4A00CD
:102140000FFA80F90A98012877D172E0A0465BE087
:10215000012006EB080291B22A19009090B20123E7
:102160005A46FFF7AEFE012006EB080291B22A1B89
:10217000009090B201235A46FFF7A3FE01203219C6
:1021800091B2A5EB0802009090B201235A46FFF7E6
:1021900098FE0120321B91B2A5EB0802009090B28C
:1021A00001235A46FFF78DFE0120A6EB080291B2EB
:1021B0002A1B009090B201235A46FFF782FE0120AD
:1021C000A6EB080291B22A19009090B201235A4658
:1021D000FFF777FE0120321B91B205EB0802009059
:1021E00090B201235A46FFF76CFE0120321991B2DA
:1021F00005EB0802009090B201235A46FFF761FEFA
:1022000008F101000FFA80F8B845A1DDB9F1000F1F
:1022100005DAA000801D48440FFA80F907E0E01BB2
:1022200080000A3048440FFA80F9781E07B2601C1B
:1022300004B2BC428ADD66E0FFE762E00120F219E9
:1022400091B22A19009090B25A460B9BFFF739FEC3
:102250000120F21991B22A1B009090B25A460B9BB2
:10226000FFF72FFE0120321991B2EA1B009090B2C5
:102270005A460B9BFFF725FE0120321B91B2EA1B49
:10228000009090B25A460B9BFFF71BFE0120F21BF9
:1022900091B22A1B009090B25A460B9BFFF711FE99
:1022A0000120F21B91B22A19009090B25A460B9B62
:1022B000FFF707FE0120321B91B2EA19009090B29D
:1022C0005A460B9BFFF7FDFD0120321991B2EA1926
:1022D000009090B25A460B9BFFF7F3FDB9F1000F47
:1022E00005DAA000801D48440FFA80F907E0E01BE2
:1022F00080000A3048440FFA80F9781E07B2601C4B
:1023000004B2BC429ADD00BF12E72DE9F04F074648
:10231000884692461D4656488088B84203DB54489A
:10232000C088404501DABDE8F08FA988CA1701EBE3
:102330005272D2100846CB1701EB5373DB10B1EB8E
:10234000C30301D0012300E000231344AAF12002BB
:10235000B5F806C002FB0CF203FB02FB286800EB99
:102360000B09002651E0002440E00998FF2814D111
:10237000E11704EB5171C910A4EBC1028021114196
:1023800099F80020114225D008EB060291B23A19C3
:1023900090B20A9AFFF7BDFC1CE0E11704EB517103
:1023A000C910A4EBC1028021114199F8002011420B
:1023B00008D008EB060291B23A1990B20A9AFFF7D8
:1023C000A8FC07E008EB060291B23A1990B2099A0C
:1023D000FFF79FFCE11704EB5171C910A4EBC10199
:1023E000072901D109F10109601C84B2A888A04223
:1023F000BBDCA888C11700EB5171C910B0EBC1015B
:1024000001D009F10109701C86B2E888B042AADC4B
:1024100000BF88E72DE9FC4F04460E4617461D46CF
:10242000DDE90BABA046B14611488088A04203DB32
:102430000F48C088B04201DABDE8FC8F22E0A888CE
:1024400040440B498988884204DDA046E888484416
:102450001FFA80F9E88848440549C988884201DDA7
:10246000A046B146CDE900AB3A782B46494601E09B
:10247000242600204046FFF748FF7F1CA8884044E0
:102480001FFA80F838780028D9D100BFD4E72DE9A9
:10249000FF4F1D46DDF80890DDF80080DDF804A050
:1024A000F7E099F800007F2875DC002769E05320E9
:1024B0007843296811F8100099F8001088425FD11C
:1024C00053207843296801EB400000F1020B0026FD
:1024D00052E0002442E00D98FF2815D1E11704EBEB
:1024E0005171C910A4EBC102802111419BF8002059
:1024F000114228D00AEB060291B208EB040290B216
:102500000E9AFFF706FC1EE0E11704EB5171C910AB
:10251000A4EBC102802111419BF80020114209D097
:102520000AEB060291B208EB040290B20E9AFFF792
:10253000F0FB08E00AEB060291B208EB040290B24D
:102540000D9AFFF7E6FBE11704EB5171C910A4EBFC
:10255000C101072901D10BF1010B641C2889A0429C
:10256000B9DC2889C11700EB5171C910B0EBC1016A
:1025700001D00BF1010B761C6889B042A9DC03E0A5
:102580007F1CA888B84292DC00BF09F10109E888E5
:1025900080447EE0FFE7002773E0532078432968FA
:1025A00011F8100099F80010884269D1532078433F
:1025B000296801EB4000407899F8011088425FD10A
:1025C00053207843296801EB400000F1020B0026FC
:1025D00052E0002442E00D98FF2815D1E11704EBEA
:1025E0005171C910A4EBC102802111419BF8002058
:1025F000114228D00AEB060291B208EB040290B215
:102600000E9AFFF786FB1EE0E11704EB5171C9102B
:10261000A4EBC102802111419BF80020114209D096
:102620000AEB060291B208EB040290B20E9AFFF791
:1026300070FB08E00AEB060291B208EB040290B2CC
:102640000D9AFFF766FBE11704EB5171C910A4EB7B
:10265000C101072901D10BF1010B641C2889A0429B
:10266000B9DC2889C11700EB5171C910B0EBC10169
:1026700001D00BF1010B761C6889B042A9DC03E0A4
:102680007F1CA888B84288DC00BF09F102092889AC
:10269000804499F8000000287FF403AFBDE8FF8F65
:1026A0002DE9F04FADF5037D06460F4615469946D8
:1026B000DDF834B2DDF830A20024A0464FF480717A
:1026C00043A800F016F94FF4807103A800F011F947
:1026D00043A8029082488088B04203DB8048C088CB
:1026E000B84203DA0DF5037DBDE8F08F0CE00A2057
:1026F00095FBF0F100FB1150303003A90855601C28
:1027000004B20A2095FBF0F5002DF0D10BE0601E1D
:1027100003A9085C43A901F8080008F101000FFAB9
:1027200080F8601E04B2002CF1DC4B46CDE900AB12
:1027300039463046029AFFF76DFE00BFD2E72DE919
:10274000FF4F85B0054690469A46DDE9126765A2BF
:1027500007CA02AB07C3BAF8044098F804000A217C
:1027600090FBF1F002A911F8009053464A46CDE9DA
:10277000006728460699FFF7C8FD98F804000A216B
:1027800090FBF1F201FB120002A911F80090291947
:1027900088B253464A46CDE900670699FFF7B5FD72
:1027A000A146E11704EB91712A1902EBA101A3469E
:1027B00004EBDB7201EB620188B253463A22CDE9A9
:1027C00000670699FFF7A1FD98F805000A2190FB24
:1027D000F1F002A911F800B004EBD97105EB440245
:1027E00002EB610188B253465A46CDE9006706996B
:1027F000FFF78BFD98F805000A2190FBF1F201FB31
:10280000120002A911F800B004EBD97104EB4402E4
:102810002A4402EB610188B253465A46CDE900676B
:102820000699FFF772FD04EBD97105EB840202EB08
:102830006101A346E21704EB9272A1EBA20188B2F8
:1028400053463A22CDE900670699FFF75EFD98F8F6
:1028500006000A2190FBF1F002A911F8009004EBA8
:102860008401294488B253464A46CDE90067069957
:10287000FFF74BFD98F806000A2190FBF1F201FBEF
:10288000120002A911F8009004EB440105EB41018C
:1028900088B253464A46CDE900670699FFF735FDF1
:1028A00009B0BDE8F08F30B502460023002111E0E9
:1028B000002009E00A4C648A01FB0403D45C084D43
:1028C0002D68EC54441CA0B2054C648A8442F1DCAF
:1028D0004C1CA1B2024CA48A8C42E9DC30BD000041
:1028E0002426002030313233343536373839000071
:1028F00070474FF0000200B51346944696462039C3
:1029000022BFA0E80C50A0E80C50B1F12001BFF4A8
:10291000F7AF090728BFA0E80C5048BF0CC05DF80E
:1029200004EB890028BF40F8042B08BF704748BF5C
:1029300020F8022B11F0804F18BF00F8012B7047D0
:102940007047704770477047754600F029F8AE46EB
:1029500005006946534620F00700854618B020B5AB
:10296000FDF7C8FFBDE820404FF000064FF000071C
:102970004FF000084FF0000B21F00701AC46ACE827
:10298000C009ACE8C009ACE8C009ACE8C0098D4694
:1029900070470446AFF300802046FDF710FC0000AE
:1029A000004870473C260020FFFFFFFFFFFFFFFFAE
:1029B000FFFFFFFFFFFFFFFFFFFFFFFFFFFFFFFF27
:1029C000FFFFFFFFFFFFFFFFFFFC01FFFFE0003FF6
:1029D000FFC0001FFF87FF0FFF1FFFC7FF3FFFE77D
:1029E000FF7FFFF7FF7FFFF7FF3FFFE7FF1FFFC7F7
:1029F000FF83FE0FFFC0001FFFE0003FFFFC01FF51
:102A0000FFFFFFFFFFFFFFFFFFFFFFFFFFFFFFFFD6
:102A1000FFFFFFFFFFFFFFFFFFFFFFFFFFFFFFFFC6
:102A2000FFFFFFFFFFFFFFFFFFFFFFFFFFFFFFFFB6
:102A3000FFFFFFFFFFFFFFFFFFFFFFFFFFFFFFFFA6
:102A4000FFFFFFFFFFFFFFFFFFFFFFFFFFFFFFFF96
:102A5000FFFFFFF7FFFFFFF7FFFFFFF7FFFFFFE7B6
:102A6000FF000007FF000007FF800007FFDFFFE710
:102A7000FFDFFFF7FFDFFFF7FFDFFFF7FFFFFFFFDE
:102A8000FFFFFFFFFFFFFFFFFFFFFFFFFFFFFFFF56
:102A9000FFFFFFFFFFFFFFFFFFFFFFFFFFFFFFFF46
:102AA000FFFFFFFFFFFFFFFFFFFFFFFFFFFFFFFF36
:102AB000FFFFFFFFFFFFFFFFFFFFFFFFFFFFFFFF26
:102AC000FFFFFFFFFFFFFFFFFFFFFFFFFFE0FE1F16
:102AD000FF807E07FF803FC7FF1F1FE7FF3FCFE755
:102AE000FF7FE7E7FF7FF3E7FF7FF9E7FF7FFCE783
:102AF000FF3FFE67FF99FF27FFC1FF87FFE1FFC789
:102B0000FFFFFFFFFFFFFFFFFFFFFFFFFFFFFFFFD5
:102B1000FFFFFFFFFFFFFFFFFFFFFFFFFFFFFFFFC5
:102B2000FFFFFFFFFFFFFFFFFFFFFFFFFFFFFFFFB5
:102B3000FFFFFFFFFFFFFFFFFFFFFFFFFFFFFFFFA5
:102B4000FFFFFFFFFFFFFFFFFFFFFFFFFFFFF87F1C
:102B5000FFE1E01FFF80C00FFF804FCFFF1E1FE788
:102B6000FF3F1FF7FF7FBFF7FF7FBFF7FF7FBFF775
:102B7000FF3FFFE7FF83FE0FFF83FE0FFFC3FE1F34
:102B8000FFFFFFFFFFFFFFFFFFFFFFFFFFFFFFFF55
:102B9000FFFFFFFFFFFFFFFFFFFFFFFFFFFFFFFF45
:102BA000FFFFFFFFFFFFFFFFFFFFFFFFFFFFFFFF35
:102BB000FFFFFFFFFFFFFFFFFFFFFFFFFFFFFFFF25
:102BC000FFFFFFFFFFFFFFFFFFFFFDFBFFFFFDFB21
:102BD000FFFFFDFBFF000003FF000003FF000003F9
:102BE000FF800003FFE3FDFBFFF0FDFBFFFC7DFB2F
:102BF000FFFE1DFFFFFF8DFFFFFFE1FFFFFFF1FF66
:102C0000FFFFFDFFFFFFFFFFFFFFFFFFFFFFFFFFD6
:102C1000FFFFFFFFFFFFFFFFFFFFFFFFFFFFFFFFC4
:102C2000FFFFFFFFFFFFFFFFFFFFFFFFFFFFFFFFB4
:102C3000FFFFFFFFFFFFFFFFFFFFFFFFFFFFFFFFA4
:102C4000FFFFFFFFFFFFFFFFFFFFFFFFFF3FE07FF3
:102C5000FF3F801FFF3F000FFF3E3F8FFF3E7FE79C
:102C6000FF3EFFF7FF3EFFF7FF3EFFF7FF3E7FF718
:102C7000FF073FF7FF001E67FFF81E0FFFFFFE1F55
:102C8000FFFFFFFFFFFFFFFFFFFFFFFFFFFFFFFF54
:102C9000FFFFFFFFFFFFFFFFFFFFFFFFFFFFFFFF44
:102CA000FFFFFFFFFFFFFFFFFFFFFFFFFFFFFFFF34
:102CB000FFFFFFFFFFFFFFFFFFFFFFFFFFFFFFFF24
:102CC000FFFFFFFFFFFFFFFFFFFFE07FFFCFC01F02
:102CD000FF8F800FFF0F1FCFFF7F3FE7FF7F7FF743
:102CE000FF7F7FF7FF3F7FF7FF3F3FE7FF9F9FC7D4
:102CF000FFC38F0FFFE0001FFFF0003FFFFE00FF4C
:102D0000FFFFFFFFFFFFFFFFFFFFFFFFFFFFFFFFD3
:102D1000FFFFFFFFFFFFFFFFFFFFFFFFFFFFFFFFC3
:102D2000FFFFFFFFFFFFFFFFFFFFFFFFFFFFFFFFB3
:102D3000FFFFFFFFFFFFFFFFFFFFFFFFFFFFFFFFA3
:102D4000FFFFFFFFFFFFFFFFFFFFFFFFFF3FFFFF53
:102D5000FF1FFFFFFF07FFFFFF21FFFFFF387FFF80
:102D6000FF3E0FFFFF3F8007FF3FF007FF3FFE07DB
:102D7000FF1FFFFFFF0FFFFFFF03FFFFFFC3FFFF6B
:102D8000FFFFFFFFFFFFFFFFFFFFFFFFFFFFFFFF53
:102D9000FFFFFFFFFFFFFFFFFFFFFFFFFFFFFFFF43
:102DA000FFFFFFFFFFFFFFFFFFFFFFFFFFFFFFFF33
:102DB000FFFFFFFFFFFFFFFFFFFFFFFFFFFFFFFF23
:102DC000FFFFFFFFFFFFFFFFFFFFFFFFFFE1F83FF8
:102DD000FFC0F01FFF80600FFF1E03CFFF3F87E79C
:102DE000FF7F8FF7FF7F9FF7FF7F1FF7FF3E1FF7E4
:102DF000FF1C0FE7FF8047CFFFC0E00FFFE1F01F90
:102E0000FFFFF83FFFFFFFFFFFFFFFFFFFFFFFFF99
:102E1000FFFFFFFFFFFFFFFFFFFFFFFFFFFFFFFFC2
:102E2000FFFFFFFFFFFFFFFFFFFFFFFFFFFFFFFFB2
:102E3000FFFFFFFFFFFFFFFFFFFFFFFFFFFFFFFFA2
:102E4000FFFFFFFFFFFFFFFFFFFFFFFFFFF803FF95
:102E5000FFE0007FFFC0003FFF8F8C1FFF3FCF8F41
:102E6000FF7FE7C7FF7FF7E7FF7FF7F7FF7FF7F702
:102E7000FF3FE7F7FF8FC787FF800F8FFFC01F8FD0
:102E8000FFF03FFFFFFFFFFFFFFFFFFFFFFFFFFF21
:102E9000FFFFFFFFFFFFFFFFFFFFFFFFFFFFFFFF42
:102EA000FFFFFFFFFFFFFFFF00000000000000002A
:102EB000007FFFFFFFFFFFFF000000000000000099
:102EC000007FFFFFFFFFFFFF000000000000000089
:102ED000007FFFFFFFFFFFFF000000000000000079
:102EE000007FFFFFFFFFFFFF000000000000000069
:102EF000007FFFFFFFFFFFFF000000000000000059
:102F0000007FFFFFFFFFFFFF000000000000000048
:102F1000007FFFFFFFFFFFFF000000000000000038
:102F2000007FFFFFFFFFFFFF000000000000000028
:102F3000007FF8078CC41FFF0000000000000000A5
:102F4000007FFBF731F9FFFF0000000000000000E8
:102F5000007FFA177E3AFFFF00000000000000002B
:102F6000007FFA141DC9DFFF000000000000000010
:102F7000007FFA141DC9DFFF004C000000000000B4
:102F8000007FFA143C033FFF00920000FE000000A7
:102F9000007FFBF710783FFF00920007FFE0000082
:102FA000007FF807AF493FFF0092000FFFF80000D5
:102FB000007FFFFF0D793FFF0064001FFFFC000052
:102FC000007FFE0341021FFF0000003E073E00009D
:102FD000007FFE0341021FFF00000038038F000046
:102FE000007FFEFF20F1FFFF00740070018780006A
:102FF000007FFAD0FC431FFF009200700183C000E5
:10300000007FFF2CF349FFFF0092007001C1C00058
:10301000007FFD146F72DFFF0092007001C1C000DD
:10302000007FF83872053FFF007C007001C1C000CE
:10303000007FF83872053FFF0000003803C0E00051
:10304000007FFA0443FB3FFF0000003E0F80E000DA
:10305000007FFAE8A0F33FFF07FE001FFF80E000BB
:10306000007FFF176F071FFF0000001FFF00E00039
:10307000007FFFFC6EFFFFFF007E0007FE000000E8
:10308000007FF804AD401FFF00940001F80000002D
:10309000007FF804AD401FFF009200000000000018
:1030A000007FFBF492CFDFFF0092000000000000E1
:1030B000007FFA176FC8DFFF004C0000007C0000A3
:1030C000007FFA1791C8DFFF0000000780FF0000B3
:1030D000007FFA173248DFFF0000001FE1FF800089
:1030E000007FFBF413CFDFFF004C001FF3FFC00095
:1030F000007FFBF413CFDFFF0092003FFFC3C0004F
:10310000007FF804A0401FFF009200783F81E0009C
:10311000007FFFFFFFFFFFFF009200701F00E00035
:10312000007FFFFFFFFFFFFF006400700E00E00064
:10313000007FFFFFFFFFFFFF000000700E00E000B8
:10314000007FFFFFFFFFFFFF000000701E00E00098
:10315000007FFFFFFFFFFFFF000000701E00E00088
:10316000007FFFFFFFFFFFFF000000387F01E0004E
:10317000007FFFFFFFFFFFFF0000003FFBC3C00019
:10318000007FFFFFFFFFFFFF0000001FF3FFC000F5
:10319000007FFFFFFFFFFFFF0074000FE1FF8020B3
:1031A000007FFFFFFFFFFFFF00920003C0FF00242E
:1031B000007FFFFFFFFFFFFF00920000003C001FA9
:1031C000F07FFFFFFFFFFFFF0092000000000024E0
:1031D000007FFFFFFFFFFFFF007C00000001C02415
:1031E000007FFFFFFFFFFFFF000000000003C01F84
:1031F000F07FFFFFFFFFFFFF007E00000003E00401
:10320000007FFFFFFFFFFFFF008000000003C00002
:10321000007FFFFFFFFFFFFF008000000001C001F3
:10322000C07FFFFFFFFFFFFF004000000000000223
:10323000207FFFFFFFFFFFFF007E00000000000473
:10324000107FFFFFFFFFFFFF008000000000000471
:10325000107FF0000007FFFF008000000000000268
:10326000207FF0000007FFFF00400007807C000186
:10327000C07FF0000007FFFF00FE001FE0FF00001E
:10328000007FF0000007FFFF0000003FF1FF80001B
:10329000007FF0000007FFFF0000003FFBFF800001
:1032A000007FF0000007FFFF04FE007C3B83C001AD
:1032B000E07FFFFFFFFFFFFF000000781F01C0025B
:1032C000107FF0000007FFFF000000701F00E012F9
:1032D000107FFFFFFFFFFFFF008200700E00E01A6B
:1032E000107FFFFFFFFFFFFF03FE00700E00E007EF
:1032F000E07FF0000007FFFF008000700E00E0019B
:10330000007FF0000007FFFF000000380E00E00E15
:10331000C07FF0000007FFFF001000380000E01140
:10332000307FF0000007FFFF0010003C0001C011DB
:10333000107FFFFFFFFFFFFF001000000001C01122
:10334000007FFFFFFFFF67FF07FE00000000C00EC9
:10335000007FFFFFFFFF5BFF004200000000000056
:10336000007FFFFFFFFF5BFF008200000000000006
:10337000007FFFFFFFFF5BFF0082000000000000F6
:10338000007FF000000797FF007C00000000000FA6
:10339000C07FFFFFFFFFFFFF0000000000000010E4
:1033A000207FFFFFFFFF67FF0000000000000020FC
:1033B000107FFFFFFFFF5BFF0074003FFFFFE01087
:1033C000207FF00000075BFF0092003FFFFFE00F4F
:1033D000C07FFFFFFFFF5BFF0092003FFFFFE000A9
:1033E000007FFFFFFFFF87FF0092003FFFFFE0002D
:1033F000807FF0000007FFFF007C00180000001F26
:10340000F07FF000000767FF0000001C00000008CC
:10341000807FF00000075BFF0000001C000000043C
:10342000807FFFFFFFFF5BFF0082000E00000003B4
:10343000807FFFFFFFFF5BFF03FE000C000000002A
:10344000807FFFFFFFFF97FF00800000000000006B
:10345000007FF0000007FFFF0000000000000000F8
:10346000007FFFFFFFFF87FF04FE00000000000059
:10347000007FFFFFFFFF6BFF000000000000000067
:10348000007FF00000076BFF007E000000000000DE
:10349000007FF00000076BFF00800000007C000050
:1034A000007FFFFFFFFF9BFF0080001801FE000070
:1034B000007FFFFFFFFFFFFF0040001C03FF000035
:1034C000007FF000000703FF007E003807FF800048
:1034D000007FFFFFFFFFBFFF0080003807838000F1
:1034E000007FF0000007BFFF008003F80F01FC0021
:1034F000007FFFFFFFFFFFFF004003F80F01FC000C
:10350000007FFFFFFFFFFFFF00FE03F81E01FC002E
:10351000007FFFFFFFFF67FF0000003C3E01C0008F
:10352000007FF00000075BFF0000001E3C01C000B0
:10353000007FF00000075BFF04FE001FFC01C000DD
:10354000007FFFFFFFFF5BFF0000000FF80380001C
:10355000007FFFFFFFFF87FF00020007F0038000EE
:10356000007FF0000007F7FF00020003E003800087
:10357000007FFFFFFFFF03FF0002000000000000CC
:10358000007FFFFFFFFF77FF000200000000000048
:10359000007FFFFFFFFFB7FF0002000000000000F8
:1035A000007FF0000007D7FF07FE000000000000CA
:1035B000007FF0000007E7FF0000000000000000AF
:1035C000007FFFFFFFFFFFFF000000000000000082
:1035D000007FFFFFFFFFA7FF0000000000000000CA
:1035E000007FF00000075BFF00000000000000000B
:1035F000007FFFFFFFFF5BFF0000000000000000F6
:10360000007FFFFFFFFF5BFF0000000000000000E5
:10361000007FFFFFFFFFA7FF000000000000000089
:10362000007FFFFFFFFFFFFF000000000000000021
:10363000007FF0000007FFFF000000000000000016
:10364000007FFFFFFFFFFFFF000000000000000001
:10365000007FF0000007FFFF0000000000000000F6
:10366000007FF0000007FFFF0000000000000000E6
:10367000007FFFFFFFFFFFFF0000000000000000D1
:10368000007FFFFFFFFFFFFF0000000000000000C1
:10369000007FF0000007FFFF0000000000000000B6
:1036A000007FF0000007FFFFFFFFFFFFFFFFFFFFAE
:1036B000FFFFF0000007FFFFFFFFFFFFFFFFFFFF1F
:1036C000FFFFF0000007FFFFFFFFFFFFFFFFFFFF0F
:1036D000FFFFFFFFFFFFFFFFFFFFFFFFFFFFFFFFFA
:1036E000FFFFFFFFFFFFFFFFFFFFFFFFFFFFFFFFEA
:1036F000FFFFF0000007FFFFFFFFFFFFFFFFFFFFDF
:10370000FFFFFFFFFFFFFFFFFFFFFFFFFFFFFFFFC9
:10371000FFFFF0000007FFFFFFFFFFFFFFFFFFFFBE
:10372000FFFFF0000007FFFFFFFFFFFFFFFFFFFFAE
:10373000FFFFF0000007FFFFFFFFFFFFFFFFFFFF9E
:10374000FFFFF0000007FFFFFFFFFFFFFFFFFFFF8E
:10375000FFFFFFFFFFFFFFFFFFFFFFFFFFFFFFFF79
:10376000FFFFFFFFFFFFFFFFFFFFFFFFFFFFFFFF69
:10377000FFFFFFFFFFF03FFFFFFFFFFFFFFFFFFF28
:10378000FFFFFFFFFFE03FFFFFFFFFFFFFFFFFFF28
:10379000FFFFFFFFFFEFFFFFFFFFFFFFFFFFFFFF49
:1037A000FFFFFFFFFFF7FFFFFFFFFFFFFFFFFFFF31
:1037B000FFFFFFFFFFE03FFFFFFFFFFFFFFFFFFFF8
:1037C000FE7FFFFFFFE03FFFFFFFFFFFFFFFFFFF69
:1037D000FC7FFFFFFFEFFFFFFFFFFFFFFFFFFFFF8C
:1037E000F87FFFFFFFF7FFFFFFFFFFFFFFFFFFFF78
:1037F000F87FFFFFFFE03FFFFFFFFFFFFFFFFFFF3F
:10380000F27FFFFFFFE03FFFFFFFFFFFFFFFFFFF34
:10381000E67FFFFFFFFFFFFFFFFFF01FFFFFFFFF40
:103820000E7FFFFFFFFFFFFFFFFFF7DFFFFFFFFF41
:103830001E7FFFFFFFF07FFFFFFFF7DFFFFFFFFEB1
:103840003E7FFFFFFFE03FFFFFFFF7DFFFFFFFFCD3
:103850007E7FFFFFFFEFBFFFFFFFF000000002F8D9
:10386000FE7FFFFFFFEFBFFFFFFFF019FFFFF6F145
:10387000FE7FFFFFFFE03FFFFFFFF7D9FFFFEEE313
:10388000FE7FFFFFFFF07FFFFFFFF7DC7FFFCE87AC
:10389000FE7FFFFFFFFFFFFFFFFFF7DE7FFF8E8F43
:1038A000FE7FFFFFFFF77FFFFFFFF7DE3FFF0E1FEB
:1038B000FE7FFFFFFFE73FFFFFFFF7DF03F83E7FDD
:1038C000FE7FFFFFFFEFBFFFFFFFF7DFC000FE7FC0
:1038D000F807FFFFFFEFBFFFFFFFF01FF000FEFF45
:1038E000E003FFFFFFE03FFFFFFFF01FFC0FFEFFC5
:1038F00087F1FFFFFFF07FFFFFFFFFDFFFFFFEFE0F
:103900007FFF7FFFFFFFFFFFFFFFFFDFFFFFFEFCEB
:103910007FFF3FFFFFFFFFFFFFFFFFDFFFFFFEFC1B
:10392000FFFF9FFFFFFF3FFFFFFFFFDFFFFFFEF8EF
:10393000FFFF9FFFFFFF3FFFFFFFFFDFFFFFFEF9DE
:10394000FC7FDFFFFFE7FFFFF07FFFDFFFFFFEF9F8
:10395000FB9FDFFFFFE0FFFFF01FFFDFFFFFFEF930
:10396000FB9FDFFFFFF81FFFF207FFDFFFFFFEF9FE
:10397000F39FDFFFFFFF07FFF380FFDFFFFFFEF98D
:10398000F39FDFFFFFF807FFF3F80FDFFFFFFEF9FC
:10399000FB9FDFFFFFE0F7FFF3FF01DFFFFFFEF913
:1039A000F81FDFFFFFE7F7FFF3FFE01FFFFFFEF960
:1039B000F83F9FFFFFFFFFFFF3FFFE1FFFFFFEF833
:1039C000FFFF1FFFFFF03FFFF3FFFF9FFFFFFEFC26
:1039D000FFFF1FFFFFE03FFFF3FFFFDFFFFFFEFFE3
:1039E0001FF8FFFFFFEBBFFFF3FFFFDFFFFFFEFF4F
:1039F0000FF8FFFFFFE9BFFFF3FFFFDFFFFFFEFF51
:103A000087E1FFFC0FEC3FFFF3FFFFDFFFFFFEFF4F
:103A1000C003FFF80FF67FFFF3FFFFDFFFFFFEFF9E
:103A2000FC3FFFFBFFFFFFFFF3FFFFDFFFFFFEFF9A
:103A3000FE7FFFF9FFFFFFFFF3FFFFDFFFFFFEFF4A
:103A4000FE7FFFF80F003FFFF3FFFFDFFFFFFEFFEA
:103A5000FE7FFFF80F003FFFF3FFFE1FFFFFFEFF9B
:103A6000FE7FFFFFFFFFFFFFF3FFFE1FFFFFFEFFD5
:103A7000FE7FFFFFFFFFFFFFF3FFC0DFFFFFFEFF43
:103A8000FE7FFFD80FF07FFFF3FF81DFFFFFFEFF18
:103A9000FE7FFFD80FE03FFFF3FC0FDFFFFFFEFFCD
:103AA000FE7FFFFFFFEFBFFFF3E07FDFFFFFFEFFC3
:103AB000F00FFFFFFFF77FFFF01FFE1FFFFFFEFF6E
:103AC0000FF8FFFC0FE007FFF01FFC1FFFFFFEFFDA
:103AD0000FFCFFF80FE007FFF3FFE0DFFFFFFEFE44
:103AE0007FFF3FFB4FF67FFFFFFFC1DFFFFFFEFEC3
:103AF000FFFF1FFB6FE43FFFFFFFC3DFFFFFFEF889
:103B0000FFFF9FF90FECBFFFFFFF87DFFFFFFEF80E
:103B1000FFFF9FFD9FE9BFFFFFFF8FDFFFFFFEF964
:103B2000FC7FDFFFFFE13FFFFFFF8FDFFFFFFEF9BD
:103B3000F87FDFFBFFF37FFFFFFF8FDFFFFFFEF963
:103B4000FBBFDFF9FFFFFFFFFFFF8FDFFFFFFEF986
:103B5000FBBFDFF80F203FFFFFFF8FDFFFFFFEF906
:103B6000FBBFDFF80F203FFFFFFFC3DFFFFFFEFBC0
:103B7000FBBFDFFFFFFFFFFFFFFFC1DFCFCF8EF9EE
:103B8000FC7FDFFFFFFFFFFFFFFFE05F87870EF88F
:103B9000FFFF9FFBEF003FFFFFFFFE1F333776FC69
:103BA0007FFF1FE00F003FFFFFFFFFDF333776FE91
:103BB000FFFF3FE00FF77FFFFFFFFFDF87870EFF6D
:103BC0003FFC7FFBFFEFBFFFFFFFFFDFCFCF8EFF8D
:103BD0000FF87FFFFFE03FFFFFFFFFDFFFFFFEFF6C
:103BE0008003FFF9FFF07FFFFF800000000000FF6F
:103BF000E007FFF83FFFFFFFFF800000000000FF2D
:103C0000FC7FFFFE03FEFFFFFF9FFFFFFFFFFEFFA6
:103C1000FCFFFFFE01FEFFFFFF9FFFFFFFFFFEFF18
:103C2000FCFFFFF83DFEFFFFFF9FFFFFFFFFFEFFD2
:103C3000FCFFFFF9FDFFFFFFFF9FFFFFFFFFFEFF00
:103C4000F00FFFFFFF003FFFFF9FFFFFFFFFFEFFA3
:103C5000C3C7FFFFFF003FFFFF98001FFFFFFEFFEE
:103C600087F1FFFC1FF77FFFFF98001FFFFFFEFF9C
:103C70000FF8FFF80FEFBFFFFF98FFDFFFFFFEFC1D
:103C80007FFF3FFBEFE03FFFFF98FFDFFFFFFEF806
:103C9000FFFF3FFBEFF07FFFFF98FFDFFFFFFEF925
:103CA000FFFF9FF80FFFFFFFFF98FFDFFFFFFEF909
:103CB000FC7F9FFC1FFFFFFFFF98FFDFFFFFFEF968
:103CC000F83F9FFFFFF07FFFFF98FFDFFFFFFEFB46
:103CD000FB9FDFDFFFE03FFFFF98FFDFFFFFFEFB03
:103CE000FB9FDFDFFFEFBFFFFF98FFDFFFFFFEFB64
:103CF000FB9FDFDFFFEFBFFFFF98FFDFFFFFFEFB54
:103D0000FB9FDFC00FE03FFFFF98001FFFFFFEF9A2
:103D1000FC3FDFC00FF07FFFFF98001FFFFFFEF9A1
:103D2000FC7F9FDFFFFFFFFFFF9FFFFFFFFFFEF90D
:103D3000FFFF9FDFFFFFFFFFFF9FFFFFFFFFFEFC77
:103D4000FFFF1FDFFFF07FFFFF9FFFFFFFFFFEFC76
:103D5000FFFF3FFFFFE03FFFFF9FFFFFFFFFFEFF73
:103D60008FF8FFFFFFEFBFFFFF9FC000000000FFC5
:103D7000CFF1FFFFFFEFBFFFFF9F8000000000FFBC
:103D8000C3C3FFFFFFE03FFFFF9F0FBFFEE7FEFF44
:103D9000F007FFFFFFF07FFFFF987FBFFEE7FEFF0A
:103DA000FCFFFFFFFFFFFFFFFF90FFBFFEE7FEFFEF
:103DB000FCFFFFFFFFFFFFFFFF83FFBFFEE7FEFFEC
:103DC000F83FFFFFFFE00FFFFF8FFFBF0EE7FEFF93
:103DD000C387FFFFFFE007FFFF9FFFBEF6E7FEFF81
:103DE00087F1FFFFFFF777FFFFFFFFBEF6E7FEFF5C
:103DF0000FF8FFFFFFEFB7FFFFFFFFBEF6E7FEFE86
:103E00003FFE7FFFFFE037FFFFFFFFBF0EE7FEFC37
:103E1000FFFF7FFFFFF06FFFFFFFFFBF9EE7FEF892
:103E2000FFFF3FFFFFFFFFFFFFFFFFBFFEE7FEF8C3
:103E3000FFFF9FFFFFFF3FFFFFFFFFBFFEE7FEF912
:103E4000F83F9FFFFFFF3FFFFFFFFFBFFEE7FEFBC7
:103E5000F91FDFFFFFFFFFFFFFFFFFBF0EE7FEFBC6
:103E6000FB9FDFFFFFE7FFFFFFFFFFBEF6E7FEFB65
:103E7000FB9FDFFFFFE0FFFFFFFFFFBEF6E7FEFB5C
:103E8000FB9FDFFFFFF83FFFFFFFFFBEF6E7FEFBF4
:103E9000F83F9FFFFFFE3FFFFFFFFFBF0EE7FEF96A
:103EA000FC7F9FFFFFF07FFFFFFFFFBF9EE7FEF954
:103EB000FFFF9FFFFFE3FFFFFFFFFFBFFEE7FEF8EF
:103EC000FFFF1FFFFFF07FFFFFFFFFBFFEE7FEFCCE
:103ED0007FFF3FFFFFFE3FFFFFFFFFBFFEE7FEFE4E
:103EE0003FFE7FFFFFF83FFFFFFFFFBF9EE7FEFFA4
:103EF0001FFC7FFFFFE0FFFFFFFFFFBEF6E7FEFFB7
:103F000083C0FFFFFFE7FFFFFFFFFFBEF6E7FEFFF7
:103F1000E001FFFFFFE7FFFFFFFFFFBF0EE7FEFF30
:103F2000FC7FFFFFFFE0FFFFFFFFFFBF9EE7FE00FC
:103F3000007FFFFFFFF83FFFFFFFFFBFFEE7FE0030
:103F4000007FFFFFFFFE3FFFFFFFFFBFFEE7FEFF1B
:103F5000FFFFFFFFFFF07FFFFFFFFF80000000FF7C
:103F6000FFFFFFFFFFE3FFFFFFFFFFFFFFFFFFFF7D
:103F7000FFFFFFFFFFF07FFFFFFFFFFFFFFFFFFFE0
:103F8000FFFFFFFFFFFE3FFFFFFFFFFFFFFFFFFF02
:103F9000FFFFFFFFFFF83FFFFFFFFFFFFFFFFFFFF8
:103FA000FFFFFFFFFFE0FFFFFFFFFFFFFFFFFFFF40
:103FB000FFFFFFFFFFE7FFFFFFFFFFFFFFFFFFFF29
:103FC000FFFFFFFFFFE7FFFFFFFFFFFFFFFFFFFF19
:103FD000FFFFFFFFFFE0FFFFFFFFFFFFFFFFFFFF10
:103FE000FFFFFFFFFFF83FFFFFFFFFFFFFFFFFFFA8
:103FF000FFFFFFFFFFFE3FFFFFFFFFFFFFFFFFFF92
:10400000FFFFFFFFFFF07FFFFFFFFFFFFFFFFFFF4F
:10401000FFFFFFFFFFE3FFFFFFFFFFFFFFFFFFFFCC
:10402000FFFFFFFFFFF07FFFFFFFFFFFFFFFFFFF2F
:10403000FFFFFFFFFFFE3FFFFFFFFFFFFFFFFFFF51
:10404000FFFFFFFFFFF83FFFFFFFFFFFFFFFFFFF47
:10405000FFFFFFFFFFE0FFFFFFFFFFFFFFFFFFFF8F
:10406000FFFFFFFFFFE7FFFFFFFFFFFFFFFFFFFF78
:10407000FFFFFFFFFFFFFFFFFFFFFFFFFFFFFFFF50
:10408000FFFFFFFFFFFFFFFFFFFFFFFFFFFFFFFF40
:10409000FFFFFFFFFFFFFFFFFFFFFFFFFFFFFFFF30
:1040A000FFFFFFFFFFFFFFFFFFFFFFFFFFFFFFFF20
:10428000FFFFFFFFFFFFFFFFFFFFFFFFFFF8000043
:10429000000FFFFFFFFFFFFFFFFFFFFFFFF8000022
:1042A000000FFFFFFFFFFFFFFFFFFFFFFFF8000012
:1042B000000FFFFFFFFFFFFFFFFFFFFFFFF8000002
:1042C000000FFFFFFFFFFFFFFFFFFFFFFFF80000F2
:1042D000000FFFFFFFFFFFFFFFFFFFFFFFF80000E2
:1042E000000FFFFFFFFFFFFFFFFFFFFFFFF80FFFC4
:1042F000F80FFFFFFFFFFFFFFFFFFFFFFFF80FFFBC
:10430000F80FFFFFFFFFFFFFFFFFFFFFFFF80FFFAB
:10431000F80FFFFFFFFFFFFFFFFFFFFFFFF80FFF9B
:10432000F80FFFFFFFFFFFFFFFFFFFFFFFF80FFF8B
:10433000F80FFFFFFFFFFFFFFFFFFFFFFFF80FFF7B
:10434000F80FFFFFFFFFFFFFFFFFFFFFFFF80FFF6B
:10435000F80FFFFFFFFFFFFFFFFFFFFFFFF80FFF5B
:10436000F80FFFFFFFFFFFFFFFFFFFFFFFF80FFF4B
:10437000F80FFFFFFFFFFFFFFFFFFFFFFFF80FFF3B
:10438000F80FFFFFFFFFFFFFFFFFFFFFFFF80FFF2B
:10439000F80FFFFFFFFFFFFFFFFFFFFFFFF80FFF1B
:1043A000F80FFFC7FFFFFFFFFFFFFFFFFFF80FFF43
:1043B000F80FFF801FFFFFFFFFFFFFFFFFF80FFF5A
:1043C000F80FFF801FFFFFFFFFFFFFFFE07FFF03EE
:1043D000FFFFFF801FFFFFFFFFFFFFFFC07FFF0109
:1043E000FFFFFF9E1FFFFFFFFFFFFFFFC07FFF01DB
:1043F000FFFFFFDFFFFFFFFFFFFFFFFFC07FFF01AA
:10440000FFFFFFC3FFFFFFFFFFFFFFFFC07FFF01B5
:10441000FFFFFF801FFFFFFFFFFFFFFFC07FFF01C8
:10442000F80FFF801FFFFFFFFFFFFFFFC07FFF01AF
:10443000F80FFF801FFFFFFFFFFFFFFFC07FFF019F
:10444000F80FFF9F9FFFFFFFFFFFFFFFC07FFF01F0
:10445000F80FFF8FFFFFFFFFFFFFFFFFC07FFF0190
:10446000F80FFF81FFFFFFFFFFFFFFFFC07FFF018E
:10447000F80FFF801FFFFFFFFFFFFFFFC07FFF015F
:10448000F80FFF801FFFFFFFFFFFFFFFC07FFF014F
:10449000F80FFFF01FFFFFFFFFFFFFFFC07FFF01CF
:1044A000F80FFFFFDFFFFFFFFFFFFFFFC00000016E
:1044B000F80FFFFFFFFFFFFFFFFFFFFFC00000013E
:1044C000F80FFFE0FFFFFFFFFFFFFFFFC00000014D
:1044D000F80FFFC07FFFFFFFFFFFFFFFC0000001DD
:1044E000F80FFF803FFFFFFFFFFFFFFFC00000014D
:1044F000F80FFF801FFFFFFFFFFFFFFFC00000015D
:10450000F80FFF9F1FFFFFFFFFFFFFFFFFFFFFFFF2
:10451000F80FFF9F9FFFFFFFFFFFFFFFFFFFFFFF62
:10452000F80FFF8F9FFFFFFFFFFFFFFFFFFFFFFF62
:10453000F80FFF801FFFFFFFFFFFFFFFFFFFFFFFE1
:10454000F80FFFC01FFFFFFFFFFFFFFFFFFFFFFF91
:10455000F80FFFC03FFFFFFFFFFFFFFFFFFFFFFF61
:10456000F80FFFF07FFFFFFFFFFFFFFFFFFFFFFFE1
:10457000F80FFFFFFFFFFFFFFFFFFFFFFFFFFFFF42
:10458000F80FFFFFFFFFFFFFFFFFFFFFFFF8000037
:10459000000FFFC77FFFFFFFFFFFFFFFFFF80000D7
:1045A000000FFF863FFFFFFFFFFFFFFFFFF8000048
:1045B000000FFF861FFFFFFFFFFFFFFFFFF8000058
:1045C000000FFF9F1FFFFFFFFFFFFFFFFFF800002F
:1045D000000FFF9F9FFFFFFFFFFFFFFFFFF800009F
:1045E000000FFF831FFFFFFFFFFFFFFFFFFFFFFF26
:1045F000FFFFFF801FFFFFFFFFFFFFFFFFFFFFFF2A
:10460000FFFFFFC03FFFFFFFFFFFFFFFFFFFFFFFB9
:10461000FFFFFFE07FFFFFFFFFFFFFFFFFFFFFFF49
:10462000FFFFFFFFFFFFFFFFFFFFFFFFFFFFFFFF9A
:10463000FFFFFFFFFFFFFFFFFFFFFFFFFFFFFFFF8A
:10464000FFFFFFFFFFFFFFFFFFFFFFFFFFFFFFFF7A
:10465000FFFFFFFE3FFFFFFFFFFFFFFFFFFFFFFF2B
:10466000FFFFFFFE1FFFFFFFFFFFFFFFFFFFFFFF3B
:10467000FFFFFFFE1FFFFFFFFFFFFFFFFFFFFFFF2B
:10468000FFFFFFFF1FFFFFFFFFFFFFFFE3FFFFFF36
:10469000FFFFFFBFFFFFFFFFFFFFFFFFE03FFFFF49
:1046A000FFFFFF8FFFFFFFFFFFFFFFFFE001FFFFA7
:1046B000FFFFFF83FFFFFFFFFFFFFFFFE0003FFF64
:1046C000FFFFFFE0FFFFFFFFFFFFFFFFE00003FF33
:1046D000FFFFFFF83FFFFFFFFFFFFFFFF0000000BD
:1046E000003FFFF80FFFFFFFFFFFFFFFFFE00000AD
:1046F000001FFF8003FFFFFFFFFFFFFFFFFF8000A2
:10470000001FFF8003FFFFFFFFFFFFFFFFFFC00051
:10471000001FFF81F1FFFFFFFFFFFFFFFFE0000031
:10472000001FFF9FF1FFFFFFFFFFFFFFF0000000F2
:10473000001FFFFFF1FFFFFFFFFFFFFFE00001FF92
:10474000FFFFFFFFFFFFFFFFFFFFFFFFE0001FFF77
:10475000FFFFFFC7FFFFFFFFFFFFFFFFE001FFFFBE
:10476000FFFFFF801FFFFFFFFFFFFFFFE01FFFFFB7
:10477000FFFFFF801FFFFFFFFFFFFFFFE1FFFFFFC6
:10478000FFFFFF801FFFFFFFFFFFFFFFFFFFFFFF98
:10479000F81FFF921FFFFFFFFFFFFFFFFFFFFFC09C
:1047A000001FFF933FFFFFFFFFFFFFFFFFFFC00062
:1047B000001FFF9B9FFFFFFFFFFFFFFFFF80000029
:1047C000001FFF899FFFFFFFFFFFFFFFE0000000CA
:1047D000001FFF881FFFFFFFFFFFFFFFE00000003B
:1047E000003FFFD81FFFFFFFFFFFFFFFE0000003B8
:1047F00083FFFFFC1FFFFFFFFFFFFFFFE007FFFF3F
:1048000083FFFFFE7FFFFFFFFFFFFFFFE00FFFFFC4
:1048100083FFF8FFFFFFFFFFFFFFFFFFE000003F08
:1048200083FFF803FFFFFFFFFFFFFFFFE000000033
:10483000007FF8001FFFFFFFFFFFFFFFE000000009
:10484000001FFC001FFFFFFFFFFFFFFFFE00000037
:10485000001FFFC01FFFFFFFFFFFFFFFFFFE000065
:10486000001FFFFF9FFFFFFFFFFFFFFFFFFFFF0096
:10487000001FFFFFFFFFFFFFFFFFFFFFFFFFFFFF27
:10488000801FFFE3FFFFFFFFFFFFFFFFFFFFFFFFB3
:10489000FFFFFF807FFFFFFFFFFFFFFFFFFFFFFF27
:1048A000FFFFFF803FFFFFFFFFFFFFFFFFFFFFFF57
:1048B000FC3FFF801FFFFFFFFFFFFFFFFFFFFFFF2A
:1048C000FC1FFF9E1FFFFFFFFFFFFFFFFFFFFFFF1C
:1048D000FC1FFF9F9FFFFFFFFFFFFFFFFFFFFFFF8B
:1048E000FC1FFF8F9FFFFFFFFFFFFFFFFFFFFFFF8B
:1048F000FC1FFF803FFFFFFFFFFFFFFFFFFFFFFFEA
:10490000FC1FFF8003FFFFFFFFFFFFFFFFFFFFFF15
:10491000FC1FFF8003FFFFFFFFFFFFFFE000000021
:10492000001FFFF003FFFFFFFFFFFFFFE00000009D
:10493000001FFFFFC3FFFFFFFFFFFFFFE0000000BE
:10494000001FFFFFFFFFFFFFFFFFFFFFE000000072
:10495000001FFFFFFFFFFFFFFFFFFFFFE000000062
:10496000001FFFDC3FFFFFFFFFFFFFFFE000000035
:10497000003FFF981FFFFFFFFFFFFFFFFFFFFFFF4D
:10498000FFFFFF981FFFFFFFFFFFFFFFFFFFFFFF7E
:10499000FFFFFF989FFFFFFFFFFFFFFFFE001FFFCE
:1049A000FFFFFF919FFFFFFFFFFFFFFFF80007FFE3
:1049B000FFFFFF819FFFFFFFFFFFFFFFF00003FFEF
:1049C000FFFFFF811FFFFFFFFFFFFFFFF00001FF61
:1049D000FFFFFFC31FFFFFFFFFFFFFFFE00001FF1F
:1049E000FFFFFFE73FFFFFFFFFFFFFFFE00001FFCB
:1049F000FFFFFFFFFFFFFFFFFFFFFFFFE07FC1FFA4
:104A0000FFFFF8FFFFFFFFFFFFFFFFFFE0FFE1FFFA
:104A1000FFFFF881FFFFFFFFFFFFFFFFE0FFE0FF69
:104A2000FFFFF8801FFFFFFFFFFFFFFFE000000018
:104A3000001FFC801FFFFFFFFFFFFFFFE0000000E3
:104A4000001FFFF01FFFFFFFFFFFFFFFE000000060
:104A5000001FFFFFDFFFFFFFFFFFFFFFE000000081
:104A6000001FF8FFFFFFFFFFFFFFFFFFE000000058
:104A7000001FF803FFFFFFFFFFFFFFFFE000000044
:104A8000003FF8001FFFFFFFFFFFFFFFFFFFFFFFDB
:104A9000FFFFF8001FFFFFFFFFFFFFFFFFFFFFFF0C
:104AA000FFFFFF801FFFFFFFFFFFFFFFFFFFFFFF75
:104AB000FFFFFF9F1FFFFFFFFFFFFFFFFE00FFF055
:104AC00003FFFF9FBFFFFFFFFFFFFFFFF800FF8017
:104AD00000FFFF8F9FFFFFFFFFFFFFFFF000FF00C2
:104AE000007FFF801FFFFFFFFFFFFFFFE000FE00D2
:104AF000003FFF801FFFFFFFFFFFFFFFE000FC0004
:104B0000001FFFC01FFFFFFFFFFFFFFFE03FF000A0
:104B1000001FFFF03FFFFFFFFFFFFFFFE0FFE00789
:104B2000FC1FFFFFFFFFFFFFFFFFFFFFE1FFC01FB5
:104B3000FC1FFFFFFFFFFFFFFFFFFFFFE0FF003F46
:104B4000FC1FFFF1FFFFFFFFFFFFFFFFE000007F03
:104B5000F81FFFF1FFFFFFFFFFFFFFFFE00000FC7A
:104B6000001FFFF1FFFFFFFFFFFFFFFFF00003FC4F
:104B7000003FFFF1FFFFFFFFFFFFFFFFF00007FC1B
:104B8000003FFFF9FFFFFFFFFFFFFFFFF8001FFCE3
:104B9000007FF8FFFFFFFFFFFFFFFFFFFE007FFC2E
:104BA00000FFF803FFFFFFFFFFFFFFFFFFFFFFFF17
:104BB000FFFFF8001FFFFFFFFFFFFFFFFFFFFFFFEB
:104BC000FFFFF8001FFFFFFFFFFFFFFFFFFFFFFFDB
:104BD000FFFFFF801FFFFFFFFFFFFFFFE000000060
:104BE000003FFF9F1FFFFFFFFFFFFFFFE0000000F0
:104BF000001FFF9FBFFFFFFFFFFFFFFFE000000060
:104C0000001FFF8F9FFFFFFFFFFFFFFFE00000007F
:104C1000001FFF801FFFFFFFFFFFFFFFE0000000FE
:104C2000001FFF801FFFFFFFFFFFFFFFE0000000EE
:104C3000001FFFC01FFFFFFFFFFFFFFFFFFFFFFF82
:104C4000FFFFFFF03FFFFFFFFFFFFFFFFFFFFFFF43
:104C5000FFFFFFFFFFFFFFFFFFFFFFFFFFFFFFFF64
:104C6000FFFFFFFFFFFFFFFFFFFFFFFFFF00000051
:104C700007FFFFE0FFFFFFFFFFFFFFFFF80000005F
:104C800000FFFFC07FFFFFFFFFFFFFFFF0000000FE
:104C9000007FFF803FFFFFFFFFFFFFFFF0000000EE
:104CA000003FFF801FFFFFFFFFFFFFFFF00000003E
:104CB000003FFF9F1FFFFFFFFFFFFFFFE00000001F
:104CC000003FFF9F9FFFFFFFFFFFFFFFE07FFFFF12
:104CD000F81FFF8F9FFFFFFFFFFFFFFFE0FFFFFFBA
:104CE000FC1FFF801FFFFFFFFFFFFFFFE0FFFFFF35
:104CF000FC1FFFC01FFFFFFFFFFFFFFFE0000000E2
:104D0000001FFFC03FFFFFFFFFFFFFFFE0000000AD
:104D1000001FFFF07FFFFFFFFFFFFFFFE00000002D
:104D2000001FFFFFFFFFFFFFFFFFFFFFE00000008E
:104D3000001FFFF1FFFFFFFFFFFFFFFFE00000008C
:104D4000001FFFC07FFFFFFFFFFFFFFFE00000002D
:104D5000003FFF803FFFFFFFFFFFFFFFFFFFFFFF61
:104D6000FFFFFF801FFFFFFFFFFFFFFFFFFFFFFFB2
:104D7000FFFFFF9E1FFFFFFFFFFFFFFFFFFFFFFF84
:104D8000FFFFFF9F9FFFFFFFFFFFFFFFFFFFFFFFF3
:104D9000FFFFFF8F9FFFFFFFFFFFFFFFFFFFFFFFF3
:104DA000FFFFFF801FFFFFFFFFFFFFFFFFFFFFFF72
:104DB000FFFFFF801FFFFFFFFFFFFFFFFFFFFFFF62
:104DC000FFFFFFC03FFFFFFFFFFFFFFF800000006E
:104DD0000003FFF07FFFFFFFFFFFFFFF80000000E9
:104DE0000003FFFFFFFFFFFFFFFFFFFF800000004A
:104DF0000003FCFFFFFFFFFFFFFFFFFF800000003D
:104E00000003FCC7CFFFFFFFFFFFFFFF83FFFFFF94
:104E1000FE03FC0387FFFFFFFFFFFFFF87FFFFFF8E
:104E2000FF83FE0183FFFFFFFFFFFFFF8FFFFFFFF9
:104E3000FFC3FF8103FFFFFFFFFFFFFF9FFFFFFF98
:104E4000FFC3FFB91BFFFFFFFFFFFFFF9FFFFFFF38
:104E5000FFE3FF991BFFFFFFFFFFFFFF9FFFFFFF28
:104E6000FFE3FF811BFFFFFFFFFFFFFF9F800000AD
:104E700007E3FF8113FFFFFFFFFFFFFF9F0000001D
:104E800007E3FFC003FFFFFFFFFFFFFF9FFFFFFFE1
:104E9000FFE3FFE603FFFFFFFFFFFFFF9FFFFFFFB3
:104EA000FFE3FFFF63FFFFFFFFFFFFFF9FFFFFFF2A
:104EB000FFE3FFFFFFFFFFFFFFFFFFFF9FFFFFFF7E
:104EC000FFE3FFFFFFFFFFFFFFFFFFFF9FFFFFFF6E
:104ED000FFE3FFFFFFFFFFFFFFFFFFFF9FFFFFFF5E
:104EE000FFE3FFFFFFFFFFFFFFFFFFFF9FFFFFFF4E
:104EF000FFE3FFFFFFFFFFFFFFFFFFFF800000005A
:104F00000003FFFE1FFFFFFFFFFFFFFF8000000009
:104F10000003FFFE1FFFFFFFFFFFFFFF80000000F9
:104F20000003FFFE1FFFFFFFFFFFFFFF83FFFFFFE9
:104F3000FF03FFFF1FFFFFFFFFFFFFFF87FFFFFFD5
:104F4000FF83FFBFFFFFFFFFFFFFFFFF8FFFFFFF9D
:104F5000FFC3FF8FFFFFFFFFFFFFFFFF9FFFFFFF6D
:104F6000FFE3FF81FFFFFFFFFFFFFFFF9FFFFFFF4B
:104F7000FFE3FFE07FFFFFFFFFFFFFFFBFFFFFFF3C
:104F8000FFE3FFF81FFFFFFFFFFFFFFFBF00000071
:104F900003E3FF801FFFFFFFFFFFFFFFBF000000D5
:104FA00003E3FF801FFFFFFFFFFFFFFFBFFFFFFFC8
:104FB000FFE3FF803FFFFFFFFFFFFFFF9FFFFFFFBC
:104FC000FFE3FF83FFFFFFFFFFFFFFFF9FFFFFFFE9
:104FD000FFE3FFE0FFFFFFFFFFFFFFFF8FFFFFFF8C
:104FE000FFC3FFF81FFFFFFFFFFFFFFF87FFFFFF6C
:104FF000FF83FF801FFFFFFFFFFFFFFF83FFFFFF18
:10500000FF03FF801FFFFFFFFFFFFFFF801FFFFF6A
:10501000E003FF801FFFFFFFFFFFFFFF8000000096
:105020000003FF8FFFFFFFFFFFFFFFFF8000000077
:105030000003FFFFFFFFFFFFFFFFFFFF807FFFFF7A
:10504000F803FF9FFFFFFFFFFFFFFFFF83FFFFFF4F
:10505000FF03FF87FFFFFFFFFFFFFFFF8FFFFFFF44
:10506000FF83FFC0FFFFFFFFFFFFFFFF8FFFFFFF7B
:10507000FFC3FFF03FFFFFFFFFFFFFFF9FFFFFFFAB
:10508000FFE3FFF81FFFFFFFFFFFFFFF9FFFFFFF93
:10509000FFE3FF801FFFFFFFFFFFFFFFBF80000058
:1050A00007E3FF801FFFFFFFFFFFFFFFBF000000C0
:1050B00003E3FF83FFFFFFFFFFFFFFFFBF000000D1
:1050C00003E3FFC1FFFFFFFFFFFFFFFFBFFFFFFF86
:1050D000FFE3FFF87FFFFFFFFFFFFFFF9FFFFFFFE3
:1050E000FFE3FFF01FFFFFFFFFFFFFFF9FFFFFFF3B
:1050F000FFE3FF801FFFFFFFFFFFFFFF8FFFFFFFAB
:10510000FFC3FF801FFFFFFFFFFFFFFF87FFFFFFC2
:10511000FF83FF81FFFFFFFFFFFFFFFF81FFFFFF17
:10512000FE03FFFFFFFFFFFFFFFFFFFF8000000008
:105130000003FFFFFFFFFFFFFFFFFFFF80000000F6
:105140000003FF8FFFFFFFFFFFFFFFFF8000000056
:105150000003FF83FFFFFFFFFFFFFFFF83FE07FF4B
:10516000FE03FFC0FFFFFFFFFFFFFFFF87FE07FFFC
:10517000FF83FFF81FFFFFFFFFFFFFFF8FFE07FF0B
:10518000FFC3FFE01FFFFFFFFFFFFFFF9FFE07FFC3
:10519000FFE3FF801FFFFFFFFFFFFFFF9FFE07FFF3
:1051A000FFE3FF801FFFFFFFFFFFFFFFBFFE07FFC3
:1051B000FFE3FF83FFFFFFFFFFFFFFFFBF0007E0ED
:1051C00003E3FFE0FFFFFFFFFFFFFFFFBF0003C0A0
:1051D00003E3FFF83FFFFFFFFFFFFFFFBF000000FB
:1051E00007E3FF801FFFFFFFFFFFFFFF9FFFFFFFA2
:1051F000FFE3FF801FFFFFFFFFFFFFFF9FFFFFFF9A
:10520000FFE3FF801FFFFFFFFFFFFFFF9FFFFFFF89
:10521000FFC3FF87FFFFFFFFFFFFFFFF8FFFFFFFC2
:10522000FF83FFFFFFFFFFFFFFFFFFFF87FFFFFF82
:10523000FF03FFFFFFFFFFFFFFFFFFFF80FFFFFFF9
:10524000F803FFFFFFFFFFFFFFFFFFFF80000000ED
:105250000003FFFFFFFFFFFFFFFFFFFF80000000D5
:105260000003FFFFFFFFFFFFFFFFFFFFFFFFFFFF49
:10527000FFFFFFFFFFFFFFFFFFFFFFFFFFFFFFFF3E
:10528000FFFFFFFFFFFFFFFFFFFFFFFFFFFFFFFF2E
:10529000FFFFFFFFFFFFFFFFFFFFFFFFFFFFFFFF1E
:1052A000FFFFFFFFFFFFFFFFFFFFFFFFFFFFFFFF0E
:1052B000FFFFFFFFFFFFFFFFFFFFFFFFFFFFFFFFFE
:1052C000FFFFFFFFFFFFFFFFFFFFFFFFFFFFFFFFEE
:1052D000FFFFFFFFFFFFFFFFFFFFFFFFFFFFFFFFDE
:1052E000FFFFFFFFFFFFFFFFFFFFFFFFFFFFFFFFCE
:1052F000FFFFFFFFFFFFFFFFFFFFFFFFFFFFFFFFBE
:10530000FFFFFFFFFFFFFFFFFFFFFFFFFFFFFFFFAD
:10531000FFFFFFFFFFFFFFFFFFFFFFFFFFFFFFFF9D
:10532000FFFFFFFFFFFFFFFFFFFFFFFFFFFFFFFF8D
:10533000FFFFFFFFFFFFFFFFFFFFFFFFFFFFFFFF7D
:10534000FFFFFFFFFFFFFFFFFFFFFFFFFFFFFFFF6D
:10535000FFFFFFFFFFFFFFFFFFFFFFFFFFFFFFFF5D
:10536000FFFFFFFFFFFFFFFFFFFFFFFFFFFFFFFF4D
:10537000FFFFFFFFFFFFFFFFFFFFFFFFFFFFFFFF3D
:10538000FFFFFFFFFFFFFFFFFFFFFFFFFFFFFFFF2D
:10539000FFFFFFFFFFFFFFFFFFFFFFFFFFFFFFFF1D
:1053A000FFFFFFFFFFFFFFFFFFFFFFFFFFFFFFFF0D
:1053B000FFFFFFFFFFFFFFFFFFFFFFFFFFFFFFFFFD
:1053C000FFFFFFFFFFFFFFFFFFFFFFFFFFFFFFFFED
:1053D000FFFFFFFFFFFFFFFFFFFFFFFFFFFFFFFFDD
:1053E000FFFFFFFFFFFFFFFFFFFFFFFFFFFFFFFFCD
:1053F000FFFFFFFFFFFFFFFFFFFFFFFFFFFFFFFFBD
:10540000FFFFFFFFFFFFFFFFFFFFFFFFFFFFFFFFAC
:10541000FFFFFFFFFFFFFFFFFFFFFFFFFFFFFFFF9C
:10542000FFFFFFFFFFFFFFFFFFFFFFFFFFFFFFFF8C
:10543000FFFFFFFFFFFFFFFFFFFFFFFFFFFFFFFF7C
:10544000FFFFFFFFFFFFFFFFFFFFFFFFFFFFFFFF6C
:10545000FFFFFFFFFFFFFFFFFFFEFFFF7FFFFFE0FC
:10546000000FE0387C1801FFFFFE3FFF1FFFFFE049
:10547000000FE0387C1801FFFFFE1FFF0FFFFFE762
:10548000FF8F87C1FFE0FFFFFFFF0FFF87FFFFE7F1
:10549000FF8F87C1FFE0FFFFFFFFC3FFE1FFFFE7D3
:1054A000FF8F87C1FFE0FFFFFFFFE1FFF0FFFFE796
:1054B000018F9FFE03E73FFFFFFFF003F801FFE7C7
:1054C000018F9FFE03E73FFFFFFFFC03FE01FFE7A5
:1054D000018C00F9FC60F9FFFFFFF003F801FFE722
:1054E000018C00F9FC60F9FFFFFFE1FFF0FFFFE72F
:1054F000018C00F9FC60F9FFFFFFC3FFE1FFFFE74C
:10550000018C07F80007C7FFFFFF0FFF87FFFFE7CA
:10551000018C07F80007C7FFFFFE1FFF0FFFFFE723
:10552000FF8F80C00FE007FFFFFE3FFF1FFFFFE779
:10553000FF8F80C00FE007FFFFFEFFFF7FFFFFE050
:10554000000FE73F8C60C7FFFFFFFFFBFFFFFFE09F
:10555000000FE73F8C60C7FFFFFFFFE3FFF1FFE0B5
:10556000000FE73F8C60C7FFFFFFFF83FFF1FFFFE6
:10557000FFFF80398FE0C7FFFFFFFC07FFF1FFFF50
:10558000FFFF80398FE0C7FFFFFFF01FFFF1FFFF34
:1055900000039801800701FFFFFFC01FFFF1FFFF1D
:1055A00000039801800701FFFFFF031FFFF1FFFFCA
:1055B00000039801800701FFFFFE0F1FFFF1FFFFAF
:1055C0003FFF87007F80FFFFFFFE3F1FFFF1FFFFD0
:1055D0003FFF87007F80FFFFFFFE0F1FFFF1FFE708
:1055E00039807FF80C07C1FFFFFF031F0001FFE7B1
:1055F00039807FF80C07C1FFFFFFC01F0001FFFFCC
:10560000C67C7FC78C60FFFFFFFFF01F0001FFFF1C
:10561000C67C7FC78C60FFFFFFFFFC07FFFFFFFF1B
:10562000C67C7FC78C60FFFFFFFFFF83FFFFFFF893
:10563000C18C1F3F8F8739FFFFFFFFE3FFFFFFF89C
:10564000C18C1F3F8F8739FFFFFFFFFBFFFFFFE08C
:1056500007F01FC60018C7FFFFFFFFFF0001FFE0B4
:1056600007F01FC60018C7FFFFFFE03F0001FFE083
:1056700007F01FC60018C7FFFFFFC01F0001FFE7AC
:10568000000C1807FFE7C7FFFFFF0007FFE1FFE778
:10569000000C1807FFE7C7FFFFFF0F87FF87FFE733
:1056A0003E7067007F87C7FFFFFE1FC3FF0FFFE746
:1056B0003E7067007F87C7FFFFFE3FE3FC3FFFFFB1
:1056C000C18F9F3F801FC1FFFFFE3FE3F87FFFFFB9
:1056D000C18F9F3F801FC1FFFFFE3FE3E1FFFFFF40
:1056E000C18F9F3F801FC1FFFFFE3FE3C3FFFFFF4E
:1056F000FFFC1F3E7FFFFFFFFFFE3FE30FFFFFFFAB
:10570000FFFC1F3E7FFFFFFFFFFE3FE30001FFE0C6
:10571000000C67398C0001FFFFFE3FE30001FFE052
:10572000000C67398C0001FFFFFE00030001FFE061
:10573000000C67398C0001FFFFFE0003FFFFFFE74D
:10574000FF8C60C67C7FF9FFFFFE0003FFFFFFE7D1
:10575000FF8C60C67C7FF9FFFFFFFFFFF83FFFE78C
:10576000018F9F3FFC6039FFFFFFFFFFE00FFFE766
:10577000018F9F3FFC6039FFFFFFFFFFC007FFE77E
:10578000018FE0C1FC6039FFFFFFFFFF87C3FFE728
:10579000018FE0C1FC6039FFFFFFFFFF8FE3FFE7F0
:1057A000018FE0C1FC6039FFFFFFFFFF0FE1FFE762
:1057B000018F87C60C6039FFFFFFFFFF1FF1FFE776
:1057C000018F87C60C6039FFFFFFFFFF1FF1FFE766
:1057D000FF8C00C7FC7FF9FFFFFFFFFF1FF1FFE712
:1057E000FF8C00C7FC7FF9FFFFFFFFFF1FF1FFE702
:1057F000FF8C00C7FC7FF9FFFFFFFFFF1FF1FFE0F9
:10580000000C67000C0001FFFFFFFFFF0FE1FFE04E
:10581000000C67000C0001FFFFFFFFFF8FE3FFFF9D
:10582000FFFFFFFFFFFFFFFFFFFE000387C3FFFF38
:10583000FFFFFFFFFFFFFFFFFFFE0003C007FFFFAB
:10584000FFFFFFFFFFFFFFFFFFFE0003E00FFFFF73
:10585000FFFFFFFFFFFFFFFFFFFF8FFFF83FFFFF8F
:10586000FFFFFFFFFFFFFFFFFFFFC7FFFFFFFFFF80
:10587000FFFFFFFFFFFFFFFFFFFFC7FFFFFFFFFF70
:10588000FFFFFFFFFFFFFFFFFFFFE3FFFFFFFFFF44
:10589000FFFFFFFFFFFFFFFFFFFFFFFFFFFFFFFF18
:1058A000FFFFFFFFFFFFFFFFFFFFFFFFFFFFFFFF08
:1058B000FFFFFFFFFFFFFFFFFFFFFFFFFFFFFFFFF8
:1058C000FFFFFFFFFFFFFFFFFFFFFFFFFFFFFFFFE8
:1058D000FFFFFFFFFFFFFFFFFFFFFFFFFFFFFFFFD8
:1058E000FFFFFFFFFFFFFFFFFFFFFFFFFFFFFFFFC8
:1058F000FFFFFFFFFFFFFFFFFFFFFFFFFFFFFFFFB8
:10590000FFFFFFFFFFFFFFFFFFFFFFFFFFFFFFFFA7
:10591000FFFFFFFFFFFFFFFFFFFFFFFFFFFFFFFF97
:10592000FFFFFFFFFFFFFFFFFFFFFFFFFFFFFFFF87
:10593000FFFFFFFFFFFFFFFFFFFFFFFFFFFFFFFF77
:10594000FFFFFFFFFFFFFFFFFFFFFFFFFFFFFFFF67
:10595000FFFFFBEFFFFFFFFFFFFFFFFFFFFFFFFF6B
:10596000FFFFF3F3FFFFFFFFFFFFFFFFFFFFFFFF5F
:10597000FFFFF3FBFFFFFFFFFFFFFFFFFFFFFFFF47
:10598000FFFFE7FDFFFFFFFFFFFFFFFFFFFFFFFF41
:10599000FFFFEFFDFFFFFFFFFFFFFFFFFFFFFFFF29
:1059A000FFFFEFFDFFFFFFFFFFFFFFFFFFFFFFFF19
:1059B000FFFFEFFDFFFFFFFFFFFFFFFFFFFFFFFF09
:1059C000FFFFEFFDFFFFFFFFFFFFFFFFFFFFFFFFF9
:1059D000FFFFF7F9FFFFFFFFFFFFFFFFFFFFFFFFE5
:1059E000FFFFF3F3FFFFFFFFFFFFFFFFFFFFFFFFDF
:1059F000FFFFF807FFFFFFFFFFFFFFFFFFFFFFFFB6
:105A0000FFFFFC0FFFFFFFFFFFFFFFFFFFFFFFFF99
:105A1000FFFFFFFFFFFFFFFFFFFFFFFFFFFFFFFF96
:105A2000FFFFF8FFFFFFFFFFFFFFFFFFFFFFFFFF8D
:105A3000FFFFF07FFFFFFFFFFFFFFFFFFFFFFFFF05
:105A4000FFFFE73FFFFFFFFFFFFFFFFFFFFFFFFF3E
:105A5000FFFFEFBFFFFFFFFFFFFFFFFFFFFFFFFFA6
:105A6000FFFFEFBFFFFFFFFFFFFFFFFFFFFFFFFF96
:105A7000FFFFEFBFFFFFFFFFFFFFFFFFFFFFFFFF86
:105A8000FFFFEFBFFFFFFFFFFFFFFFFFFFFFFFFF76
:105A9000FFFFEFBFFFFFFFFFFFFFFFFFFFFFFFFF66
:105AA000FFFFE001FFFFFFFFFFFFFFFFFFFFFFFF23
:105AB000FFFFE001FFFFFFFFFFFFFFFFFFFFFFFF13
:105AC000FFFFFFFFFFFFFFFFFFFFFFFFFFFFFFFFE6
:105AD000FFFFFFFFFFFFFFFFFFFFFFFFFFFFFFFFD6
:105AE000FFFFFFFFFFFFFFFFFFFFFFFFFFFFFFFFC6
:105AF000FFFFE3FFFFFFFFFFFFFFFFFFFFFFFFFFD2
:105B0000FFFFF07FFFFFFFFFFFFFFFFFFFFFFFFF34
:105B1000FFFFFE0FFFFFFFFFFFFFFFFFFFFFFFFF86
:105B2000FFFFFFC1FFFFFFFFFFFFFFFFFFFFFFFFC3
:105B3000FFFFFFF9FFFFFFFFFFFFFFFFFFFFFFFF7B
:105B4000FFFFFFFFFFFFFFFFFFFFFFFFFFFFFFFF65
:105B5000FFFFFFFFFFFFFFFFFFFFFFFFFFFFFFFF55
:105B6000FFFFFFFFFFFFFFFFFFFFFFFFFFFFFFFF45
:105B7000FFFFFFFFFFFFFFFFFFFFFFFFFFFFFFFF35
:105B8000FFFFFFFFFFFFFFFFFFFFFFFFFFFFFFFF25
:105B9000FFFFFFFFFFFFFFFFFFFFFFFFFFFFFFFF15
:105BA000FFFFFFFFFFFFFFFFFFFFFFFFFFFFFFFF05
:105BB000FFFFFFFFFFFFFFFFFFFFFFFFFFFFFFFFF5
:105BC000FFFE003FFFFFFFFFFFFFFFFFFFFFFFFFA5
:105BD000FFE00003FFFFFFFFFFFFFFFFFFFFFFFFEF
:105BE000FF800001FFFFFFFFFFFFFFFFFFFFFFFF41
:105BF000FF01FFE0FFFFFFFFFFFFFFFFFFFFFFFFD2
:105C0000FF0FFFF87FFFFFFFFFFFFFFFFFFFFFFF1B
:105C1000FE1FFFFC3FFFFFFFFFFFFFFFFFFFFFFF38
:105C2000FE3FFFFE3FFFFFFFFFFFFFFFFFFFFFFF06
:105C3000FE3FFFFE3FFFFFFFFFFFFFFFFFFFFFFFF6
:105C4000FE3FFFFE3FFFFFFFFBFFFFFFFBFFFFFFEE
:105C5000FE3FFFFE3FFFFFFFFBFFFFFFFBFFFFFFDE
:105C6000FE3FFFFE3FFFFFFFF9FFFFFFF3FFFFFFD8
:105C7000FE1FFFFC3FFFFFFFF9FFFFFFF3FFFFFFEA
:105C8000FF0FFFF87FFFFFFFF8FFFFFFE3FFFFFFBE
:105C9000FF81FFE07FFFFFFFF8FFFFFFE3FFFFFF54
:105CA000FFC00000FFFFFFFFF87FFFFFC3FFFFFF04
